{
  "address": "0xBCb011FB225aFe1a0B9Ac56c9231C772DeF6805A",
  "abi": [
    {
      "inputs": [
        {
          "internalType": "contract IDCAGlobalParameters",
          "name": "_globalParameters",
          "type": "address"
        }
      ],
      "stateMutability": "nonpayable",
      "type": "constructor"
    },
    {
      "inputs": [],
      "name": "IdenticalTokens",
      "type": "error"
    },
    {
      "inputs": [],
      "name": "PairAlreadyExists",
      "type": "error"
    },
    {
      "inputs": [],
      "name": "ZeroAddress",
      "type": "error"
    },
    {
      "anonymous": false,
      "inputs": [
        {
          "indexed": true,
          "internalType": "address",
          "name": "_token0",
          "type": "address"
        },
        {
          "indexed": true,
          "internalType": "address",
          "name": "_token1",
          "type": "address"
        },
        {
          "indexed": false,
          "internalType": "address",
          "name": "_pair",
          "type": "address"
        }
      ],
      "name": "PairCreated",
      "type": "event"
    },
    {
      "inputs": [
        {
          "internalType": "uint256",
          "name": "",
          "type": "uint256"
        }
      ],
      "name": "allPairs",
      "outputs": [
        {
          "internalType": "address",
          "name": "",
          "type": "address"
        }
      ],
      "stateMutability": "view",
      "type": "function"
    },
    {
      "inputs": [
        {
          "internalType": "address",
          "name": "_tokenA",
          "type": "address"
        },
        {
          "internalType": "address",
          "name": "_tokenB",
          "type": "address"
        }
      ],
      "name": "createPair",
      "outputs": [
        {
          "internalType": "address",
          "name": "_pair",
          "type": "address"
        }
      ],
      "stateMutability": "nonpayable",
      "type": "function"
    },
    {
      "inputs": [],
      "name": "globalParameters",
      "outputs": [
        {
          "internalType": "contract IDCAGlobalParameters",
          "name": "",
          "type": "address"
        }
      ],
      "stateMutability": "view",
      "type": "function"
    },
    {
      "inputs": [
        {
          "internalType": "address",
          "name": "_tokenA",
          "type": "address"
        },
        {
          "internalType": "address",
          "name": "_tokenB",
          "type": "address"
        }
      ],
      "name": "pairByTokens",
      "outputs": [
        {
          "internalType": "address",
          "name": "_pair",
          "type": "address"
        }
      ],
      "stateMutability": "view",
      "type": "function"
    }
  ],
  "transactionHash": "0x51b408af25448f6bcdba035d848260b1bf3d01704bfd170ab86d6899557731c3",
  "args": [
    "0x1cC34af846123f575B644117CA58557b31F8f753"
  ],
  "solcInputHash": "fecd88feb33677725ca81c8ab9ca827e",
  "bytecode": "0x608060405234801561001057600080fd5b5060405161607238038061607283398101604081905261002f9161007d565b806001600160a01b0381166100575760405163d92e233d60e01b815260040160405180910390fd5b600280546001600160a01b0319166001600160a01b0392909216919091179055506100ab565b60006020828403121561008e578081fd5b81516001600160a01b03811681146100a4578182fd5b9392505050565b615fb8806100ba6000396000f3fe60806040523480156200001157600080fd5b5060043610620000525760003560e01c80630ad82b2f14620000575780631d5aa6d814620000875780631e3dd18b146200009e578063c9c6539614620000b5575b600080fd5b6002546200006b906001600160a01b031681565b6040516001600160a01b03909116815260200160405180910390f35b6200006b6200009836600462000391565b620000cc565b6200006b620000af366004620003c8565b6200010b565b6200006b620000c636600462000391565b62000136565b6000806000620000dd858562000333565b6001600160a01b03918216600090815260208181526040808320938516835292905220541695945050505050565b600181815481106200011c57600080fd5b6000918252602090912001546001600160a01b0316905081565b60006001600160a01b03831615806200015657506001600160a01b038216155b15620001755760405163d92e233d60e01b815260040160405180910390fd5b816001600160a01b0316836001600160a01b03161415620001a957604051635c6d7b7360e01b815260040160405180910390fd5b600080620001b8858562000333565b6001600160a01b0380831660009081526020818152604080832084861684529091529020549294509092501615620002035760405163c9bb25eb60e01b815260040160405180910390fd5b6002546040516001600160a01b03909116907384f4bc40c227cef248ec5b46e7a44947d7d2f94a90849084906200023a9062000366565b6001600160a01b039485168152928416602084015290831660408301529091166060820152608001604051809103906000f0801580156200027f573d6000803e3d6000fd5b506001600160a01b0383811660008181526020818152604080832087861680855290835281842080546001600160a01b031990811697891697881790915560018054808201825595527fb10e2d527612073b26eecdfd717e6a320cf44b4afac2b0732d9fcbe2b7fa0cf690940180549094168617909355519384529396509290917fa92a2b95c8d8436f6ac4c673c61487364f877efb9534d4296fad8ef904546c94910160405180910390a3505092915050565b600080826001600160a01b0316846001600160a01b031610620003585782846200035b565b83835b909590945092505050565b615ba180620003e283390190565b80356001600160a01b03811681146200038c57600080fd5b919050565b60008060408385031215620003a4578182fd5b620003af8362000374565b9150620003bf6020840162000374565b90509250929050565b600060208284031215620003da578081fd5b503591905056fe60e06040523480156200001157600080fd5b5060405162005ba138038062005ba18339810160408190526200003491620004e7565b8181816001600160a01b03166395d89b416040518163ffffffff1660e01b815260040160006040518083038186803b1580156200007057600080fd5b505afa15801562000085573d6000803e3d6000fd5b505050506040513d6000823e601f3d908101601f19168201604052620000af91908101906200054e565b816001600160a01b03166395d89b416040518163ffffffff1660e01b815260040160006040518083038186803b158015620000e957600080fd5b505afa158015620000fe573d6000803e3d6000fd5b505050506040513d6000823e601f3d908101601f191682016040526200012891908101906200054e565b6040516020016200013b92919062000651565b60408051601f19818403018152828201909152600382526244434160e81b6020830152600160005590868887876001600160a01b038316620001905760405163d92e233d60e01b815260040160405180910390fd5b6001600160a01b038216620001b85760405163d92e233d60e01b815260040160405180910390fd5b6001600160a01b038116620001e05760405163d92e233d60e01b815260040160405180910390fd5b600180546001600160a01b0319166001600160a01b0385169081179091556040805163e63a391f60e01b8152905163e63a391f91600480820192602092909190829003018186803b1580156200023557600080fd5b505afa1580156200024a573d6000803e3d6000fd5b505050506040513d601f19601f8201168201806040525081019062000270919062000602565b6001600160e81b031960e89190911b1660c052600280546001600160a01b038085166001600160a01b0319928316811790935560038054918516919092161790556040805163313ce56760e01b8152905163313ce56791600480820192602092909190829003018186803b158015620002e857600080fd5b505afa158015620002fd573d6000803e3d6000fd5b505050506040513d601f19601f820116820180604052508101906200032391906200062e565b6200033090600a620006ed565b60808181525050806001600160a01b031663313ce5676040518163ffffffff1660e01b815260040160206040518083038186803b1580156200037157600080fd5b505afa15801562000386573d6000803e3d6000fd5b505050506040513d601f19601f82011682018060405250810190620003ac91906200062e565b620003b990600a620006ed565b60a0525050506001600160a01b038116620003e75760405163d92e233d60e01b815260040160405180910390fd5b600c80546001600160a01b0319166001600160a01b039290921691909117905581516200041c90600d90602085019062000441565b5080516200043290600e90602084019062000441565b50505050505050505062000863565b8280546200044f90620007e1565b90600052602060002090601f016020900481019282620004735760008555620004be565b82601f106200048e57805160ff1916838001178555620004be565b82800160010185558215620004be579182015b82811115620004be578251825591602001919060010190620004a1565b50620004cc929150620004d0565b5090565b5b80821115620004cc5760008155600101620004d1565b60008060008060808587031215620004fd578384fd5b84516200050a816200084a565b60208601519094506200051d816200084a565b604086015190935062000530816200084a565b606086015190925062000543816200084a565b939692955090935050565b60006020828403121562000560578081fd5b81516001600160401b038082111562000577578283fd5b818401915084601f8301126200058b578283fd5b815181811115620005a057620005a062000834565b604051601f8201601f19908116603f01168101908382118183101715620005cb57620005cb62000834565b81604052828152876020848701011115620005e4578586fd5b620005f7836020830160208801620007ae565b979650505050505050565b60006020828403121562000614578081fd5b815162ffffff8116811462000627578182fd5b9392505050565b60006020828403121562000640578081fd5b815160ff8116811462000627578182fd5b6402221a09d160dd1b81526000835162000673816005850160208801620007ae565b6201016960ed1b600591840191820152835162000698816008840160208801620007ae565b01600801949350505050565b600181815b80851115620006e5578160001904821115620006c957620006c96200081e565b80851615620006d757918102915b93841c9390800290620006a9565b509250929050565b60006200062760ff8416836000826200070957506001620007a8565b816200071857506000620007a8565b81600181146200073157600281146200073c576200075c565b6001915050620007a8565b60ff8411156200075057620007506200081e565b50506001821b620007a8565b5060208310610133831016604e8410600b841016171562000781575081810a620007a8565b6200078d8383620006a4565b8060001904821115620007a457620007a46200081e565b0290505b92915050565b60005b83811015620007cb578181015183820152602001620007b1565b83811115620007db576000848401525b50505050565b600181811c90821680620007f657607f821691505b602082108114156200081857634e487b7160e01b600052602260045260246000fd5b50919050565b634e487b7160e01b600052601160045260246000fd5b634e487b7160e01b600052604160045260246000fd5b6001600160a01b03811681146200086057600080fd5b50565b60805160a05160c05160e81c6152cc620008d560003960008181612d7e01528181612db701528181612df90152612e4a01526000818161257401528181612629015281816126670152613db6015260008181612608015281816126cc015281816127d10152613ddc01526152cc6000f3fe608060405234801561001057600080fd5b506004361061021c5760003560e01c80635f64b55b11610125578063a22cb465116100ad578063c87b56dd1161007c578063c87b56dd14610523578063c96ed63914610536578063e111e3e714610549578063e985e9c51461055c578063eb391aa81461056f57600080fd5b8063a22cb465146104ca578063a57351f9146104dd578063b0d2847c146104e5578063b88d4fde1461051057600080fd5b80637dc0d1d0116100f45780637dc0d1d01461046a5780637e29e8a41461047d5780638119c065146104a55780638e7e7390146104ad57806395d89b41146104c257600080fd5b80635f64b55b1461041e5780636352211e1461043157806370a08231146104445780637a828b281461045757600080fd5b806323b872dd116101a857806332e8af461161017757806332e8af46146103865780633d783717146103c55780633fcf01e6146103d857806342842e0e146103eb5780635b6fd01d146103fe57600080fd5b806323b872dd1461032557806326742bed146103385780632a52803e1461034b5780632f84cbf51461037157600080fd5b8063095ea7b3116101ef578063095ea7b31461029e5780630ad82b2f146102b15780630b74e852146102c45780630f7d0f2b146102d75780630fc63d101461031257600080fd5b806301ffc9a714610221578063022c0d9f1461024957806306fdde031461025e578063081812fc14610273575b600080fd5b61023461022f36600461483c565b610582565b60405190151581526020015b60405180910390f35b61025c6102573660046149aa565b6105d4565b005b610266610ce8565b6040516102409190614dba565b610286610281366004614915565b610d7a565b6040516001600160a01b039091168152602001610240565b61025c6102ac366004614785565b610e0f565b600154610286906001600160a01b031681565b61025c6102d2366004614945565b610f25565b6102fd6102e5366004614a44565b60056020526000908152604090205463ffffffff1681565b60405163ffffffff9091168152602001610240565b600254610286906001600160a01b031681565b61025c610333366004614653565b61102c565b61025c610346366004614969565b61105d565b6102fd610359366004614a44565b600b6020526000908152604090205463ffffffff1681565b6103796110a3565b6040516102409190614ea7565b6103b7610394366004614a99565b600460209081526000938452604080852082529284528284209052825290205481565b604051908152602001610240565b61025c6103d33660046149aa565b611139565b61025c6103e6366004614a20565b6115a2565b61025c6103f9366004614653565b611607565b61041161040c366004614915565b611622565b6040516102409190614eba565b600354610286906001600160a01b031681565b61028661043f366004614915565b61183f565b6103b76104523660046145ff565b6118b6565b61025c610465366004614915565b61193d565b600c54610286906001600160a01b031681565b61049061048b3660046147b0565b611a93565b60408051928352602083019190915201610240565b61025c611c92565b6104b5611cb0565b6040516102409190614d70565b610266611d75565b61025c6104d83660046146fd565b611d84565b6102fd611e49565b6103b76104f3366004614a7c565b600a60209081526000928352604080842090915290825290205481565b61025c61051e366004614693565b611ef1565b610266610531366004614915565b611f29565b61025c6105443660046149f3565b61202a565b6103b7610557366004614915565b6120bc565b61023461056a36600461461b565b6121ec565b6103b761057d36600461472a565b61221a565b60006001600160e01b031982166380ac58cd60e01b14806105b357506001600160e01b03198216635b5e139f60e01b145b806105ce57506301ffc9a760e01b6001600160e01b03198316145b92915050565b600260005414156106005760405162461bcd60e51b81526004016105f790614e70565b60405180910390fd5b60026000908155600154604080516303956f4760e21b815290516001600160a01b0390921691630e55bd1c91600480820192606092909190829003018186803b15801561064c57600080fd5b505afa158015610660573d6000803e3d6000fd5b505050506040513d601f19601f8201168201806040525081019061068491906148fa565b90508060200151156106a9576040516313d0ff5960e31b815260040160405180910390fd5b60006106b88260400151612494565b9050806020015160ff16600014156106e3576040516346f8d7b160e11b815260040160405180910390fd5b4260005b826020015160ff1681101561090d5760008360000151828151811061071c57634e487b7160e01b600052603260045260246000fd5b602002602001015160000151905060008460000151838151811061075057634e487b7160e01b600052603260045260246000fd5b602002602001015160200151905060008560000151848151811061078457634e487b7160e01b600052603260045260246000fd5b60200260200101516040015111806107cb57506000856000015184815181106107bd57634e487b7160e01b600052603260045260246000fd5b602002602001015160600151115b156108e2576002548551805161081e9285926001600160a01b03909116918790811061080757634e487b7160e01b600052603260045260246000fd5b6020026020010151604001518860a00151856128e2565b6003548551805161086c9285926001600160a01b03909116918790811061085557634e487b7160e01b600052603260045260246000fd5b6020026020010151606001518860800151856128e2565b63ffffffff8281166000908152600560205260409020805463ffffffff19169183169190911790558161089f8186615044565b6108aa906001615008565b6108b491906150b5565b63ffffffff8381166000908152600b60205260409020805463ffffffff1916929091169190911790556108f8565b6108f6600863ffffffff8085169061295516565b505b50508080610905906151ba565b9150506106e7565b5081604001518711806109235750816060015186115b156109415760405163bb55fd2760e01b815260040160405180910390fd5b604082015160608301516002546101608501518a918a916001600160a01b03908116911614156109955761012086015161097b9083614ff0565b91508561010001518361098e9190614ff0565b92506109bb565b6101208601516109a59082614ff0565b9050856101000151846109b89190614ff0565b93505b81156109d8576002546109d8906001600160a01b03168a84612968565b80156109f5576003546109f5906001600160a01b03168a83612968565b5050855115610acf57866001600160a01b0316633d33803c33600260009054906101000a90046001600160a01b0316600360009054906101000a90046001600160a01b03168d8d600260009054906101000a90046001600160a01b03166001600160a01b03168b61016001516001600160a01b0316148b61012001518c61010001518f6040518a63ffffffff1660e01b8152600401610a9c99989796959493929190614c6c565b600060405180830381600087803b158015610ab657600080fd5b505af1158015610aca573d6000803e3d6000fd5b505050505b6002546040516370a0823160e01b81523060048201526000916001600160a01b0316906370a082319060240160206040518083038186803b158015610b1357600080fd5b505afa158015610b27573d6000803e3d6000fd5b505050506040513d601f19601f82011682018060405250810190610b4b919061492d565b6003546040516370a0823160e01b81523060048201529192506000916001600160a01b03909116906370a082319060240160206040518083038186803b158015610b9457600080fd5b505afa158015610ba8573d6000803e3d6000fd5b505050506040513d601f19601f82011682018060405250810190610bcc919061492d565b905083821080610bdb57508281105b15610bf95760405163d562e29f60e01b815260040160405180910390fd5b60c0860151610c089083615117565b6002546001600160a01b031660009081526007602052604090205560e0860151610c329082615117565b6003546001600160a01b03908116600090815260076020526040902091909155875160c0880151600254610c6893169190612968565b865160e0870151600354610c87926001600160a01b0390911691612968565b886001600160a01b0316336001600160a01b03167fa4c280ea24fcbaddca6720e8215ecd4d55408bf160be61e293a12fbd6f6823c18d8d8a604051610cce93929190614f37565b60405180910390a350506001600055505050505050505050565b6060600d8054610cf79061517f565b80601f0160208091040260200160405190810160405280929190818152602001828054610d239061517f565b8015610d705780601f10610d4557610100808354040283529160200191610d70565b820191906000526020600020905b815481529060010190602001808311610d5357829003601f168201915b5050505050905090565b6000818152600f60205260408120546001600160a01b0316610df35760405162461bcd60e51b815260206004820152602c60248201527f4552433732313a20617070726f76656420717565727920666f72206e6f6e657860448201526b34b9ba32b73a103a37b5b2b760a11b60648201526084016105f7565b506000908152601160205260409020546001600160a01b031690565b6000610e1a8261183f565b9050806001600160a01b0316836001600160a01b03161415610e885760405162461bcd60e51b815260206004820152602160248201527f4552433732313a20617070726f76616c20746f2063757272656e74206f776e656044820152603960f91b60648201526084016105f7565b336001600160a01b0382161480610ea45750610ea481336121ec565b610f165760405162461bcd60e51b815260206004820152603860248201527f4552433732313a20617070726f76652063616c6c6572206973206e6f74206f7760448201527f6e6572206e6f7220617070726f76656420666f7220616c6c000000000000000060648201526084016105f7565b610f2083836129cb565b505050565b60026000541415610f485760405162461bcd60e51b81526004016105f790614e70565b6002600055610f5682612a39565b6000828152601360209081526040808320815160c081018352815463ffffffff8082168352600160201b82048116838701908152600160401b83048216848701819052600160601b9093046001600160a01b0316606085015260019094015460ff81161515608085015261010090046001600160f81b031660a08401529086526005909452918420549051919392610ff09291169061512e565b905063ffffffff81166110165760405163d43195c360e01b815260040160405180910390fd5b611021848483612a9f565b505060016000555050565b6110363382612add565b6110525760405162461bcd60e51b81526004016105f790614e1f565b610f20838383612bb4565b600260005414156110805760405162461bcd60e51b81526004016105f790614e70565b600260005561108e83612a39565b611099838383612a9f565b5050600160005550565b6110ab6144c1565b600154604080516354cf2aeb60e01b815290516000926001600160a01b0316916354cf2aeb916004808301926020929190829003018186803b1580156110f057600080fd5b505afa158015611104573d6000803e3d6000fd5b505050506040513d601f19601f820116820180604052508101906111289190614a60565b905061113381612494565b91505090565b6002600054141561115c5760405162461bcd60e51b81526004016105f790614e70565b60026000558315801561116d575082155b1561118b5760405163125f2a8360e21b815260040160405180910390fd5b6001546040805163b1d0a33760e01b815290516000926001600160a01b03169163b1d0a337916004808301926060929190829003018186803b1580156111d057600080fd5b505afa1580156111e4573d6000803e3d6000fd5b505050506040513d601f19601f8201168201806040525081019061120891906148fa565b905080602001511561122d576040516313d0ff5960e31b815260040160405180910390fd5b6002546001600160a01b039081166000908152600760205260408082205460035490931682529020548187118061126357508086115b156112815760405163bb55fd2760e01b815260040160405180910390fd5b600080881161129157600061129f565b61129f846040015189612d54565b905060008088116112b15760006112bf565b6112bf856040015189612d54565b905088156112de576002546112de906001600160a01b0316888b612968565b87156112fb576003546112fb906001600160a01b0316888a612968565b866001600160a01b031663f62c404133600260009054906101000a90046001600160a01b0316600360009054906101000a90046001600160a01b03168d8d88888e6040518963ffffffff1660e01b815260040161135f989796959493929190614cd1565b600060405180830381600087803b15801561137957600080fd5b505af115801561138d573d6000803e3d6000fd5b50506002546040516370a0823160e01b8152306004820152600093506001600160a01b0390911691506370a082319060240160206040518083038186803b1580156113d757600080fd5b505afa1580156113eb573d6000803e3d6000fd5b505050506040513d601f19601f8201168201806040525081019061140f919061492d565b6003546040516370a0823160e01b81523060048201529192506000916001600160a01b03909116906370a082319060240160206040518083038186803b15801561145857600080fd5b505afa15801561146c573d6000803e3d6000fd5b505050506040513d601f19601f82011682018060405250810190611490919061492d565b905061149c8487614ff0565b8210806114b157506114ae8386614ff0565b81105b156114cf5760405163d562e29f60e01b815260040160405180910390fd5b6114d98483615117565b6002546001600160a01b03166000908152600760205260409020556114fe8382615117565b6003546001600160a01b03908116600090815260076020526040902091909155875160025461152f92169086612968565b865160035461154a916001600160a01b039091169085612968565b60408088015181518d8152602081018d905263ffffffff909116918101919091526001600160a01b038a169033907f891529dc768bd9c3ee9afa282dfdaf4ddffed309e6dae2af016a804e1d05473390606001610cce565b600260005414156115c55760405162461bcd60e51b81526004016105f790614e70565b60026000556115d382612a39565b6000828152601360205260409020546115fe908390600160601b90046001600160a01b031683612a9f565b50506001600055565b610f2083838360405180602001604052806000815250611ef1565b6040805161010081018252600080825260208201819052918101829052606081018290526080810182905260a0810182905260c0810182905260e0810191909152600082815260136020908152604091829020825160c081018452815463ffffffff8082168352600160201b8204811694830194909452600160401b810490931693810193909352600160601b9091046001600160a01b031660608301526001015460ff81161515608083018190526101009091046001600160f81b031660a08301526116fa576003546001600160a01b0316611707565b6002546001600160a01b03165b6001600160a01b03168252608081015161172c576002546001600160a01b0316611739565b6003546001600160a01b03165b6001600160a01b031660208301526040808201805163ffffffff90811692850192909252511661176a576000611794565b805160408083015163ffffffff90811660009081526005602052919091205461179492911661512e565b63ffffffff1660608301526117a883612e8d565b608083015260408082015163ffffffff90811660009081526005602090815292902054918301519181169116116117e057600061180f565b60408082015163ffffffff908116600090815260056020908152929020549183015161180f929091169061512e565b63ffffffff1660a083015261182383612e9a565b60c0830152606001516001600160a01b031660e0820152919050565b6000818152600f60205260408120546001600160a01b0316806105ce5760405162461bcd60e51b815260206004820152602960248201527f4552433732313a206f776e657220717565727920666f72206e6f6e657869737460448201526832b73a103a37b5b2b760b91b60648201526084016105f7565b60006001600160a01b0382166119215760405162461bcd60e51b815260206004820152602a60248201527f4552433732313a2062616c616e636520717565727920666f7220746865207a65604482015269726f206164647265737360b01b60648201526084016105f7565b506001600160a01b031660009081526010602052604090205490565b600260005414156119605760405162461bcd60e51b81526004016105f790614e70565b600260005561196e81612a39565b600061197982612e8d565b9050600061198683612e9a565b9050600061199384612f92565b905060006119a08561303d565b90506119ab856130e8565b6119b4856132aa565b83156119fc576001600160a01b038116600090815260076020526040812080548692906119e2908490615117565b909155506119fc90506001600160a01b0382163386612968565b8215611a44576001600160a01b03821660009081526007602052604081208054859290611a2a908490615117565b90915550611a4490506001600160a01b0383163385612968565b604080518681526020810185905290810185905233907f9b863fe095959050c7ed1d85b45c0922e5667da8f82299a3eebf4cbc584f79ec9060600160405180910390a250506001600055505050565b60008060026000541415611ab95760405162461bcd60e51b81526004016105f790614e70565b600260009081555b83811015611ba4576000858583818110611aeb57634e487b7160e01b600052603260045260246000fd5b905060200201359050611afd81612a39565b6000611b0882612e8d565b60008381526013602052604090206001015490915060ff1615611b3657611b2f8185614ff0565b9350611b43565b611b408186614ff0565b94505b5060008181526013602081815260408084208054600160401b810463ffffffff9081168752600585529286205496909552929091529290921663ffffffff19909116178155600101805460ff16905580611b9c816151ba565b915050611ac1565b508115611bf1576002546001600160a01b031660009081526007602052604081208054849290611bd5908490615117565b9091555050600254611bf1906001600160a01b03163384612968565b8015611c3d576003546001600160a01b031660009081526007602052604081208054839290611c21908490615117565b9091555050600354611c3d906001600160a01b03163383612968565b336001600160a01b03167f4fd01d816751d768469443eeebd391cbef7fae3c437c75730c0e1b9a3c174eee85858585604051611c7c9493929190614d2c565b60405180910390a2600160005590939092509050565b611cae60008033604051806020016040528060008152506105d4565b565b60606000611cbe6008613345565b90508067ffffffffffffffff811115611ce757634e487b7160e01b600052604160045260246000fd5b604051908082528060200260200182016040528015611d10578160200160208202803683370190505b50915060005b81811015611d7057611d2960088261334f565b838281518110611d4957634e487b7160e01b600052603260045260246000fd5b63ffffffff9092166020928302919091019091015280611d68816151ba565b915050611d16565b505090565b6060600e8054610cf79061517f565b6001600160a01b038216331415611ddd5760405162461bcd60e51b815260206004820152601960248201527f4552433732313a20617070726f766520746f2063616c6c65720000000000000060448201526064016105f7565b3360008181526012602090815260408083206001600160a01b03871680855290835292819020805460ff191686151590811790915590519081529192917f17307eab39ab6107e8899845ad3d59bd9653f200f220920489ca2b5937696c31910160405180910390a35050565b63ffffffff4260005b611e5c6008613345565b811015611d70576000611e7060088361334f565b63ffffffff8082166000908152600b6020526040902054919250808516911611611e9e576000935050505090565b63ffffffff8082166000908152600b60205260408120549091611ec39186911661512e565b90508463ffffffff168163ffffffff161015611edd578094505b505080611ee9816151ba565b915050611e52565b611efb3383612add565b611f175760405162461bcd60e51b81526004016105f790614e1f565b611f238484848461335b565b50505050565b60015460408051630442675760e41b815290516060926001600160a01b0316916344267570916004808301926020929190829003018186803b158015611f6e57600080fd5b505afa158015611f82573d6000803e3d6000fd5b505050506040513d601f19601f82011682018060405250810190611fa69190614874565b60405163e9dc637560e01b8152306004820152602481018490526001600160a01b03919091169063e9dc63759060440160006040518083038186803b158015611fee57600080fd5b505afa158015612002573d6000803e3d6000fd5b505050506040513d6000823e601f3d908101601f191682016040526105ce9190810190614890565b6002600054141561204d5760405162461bcd60e51b81526004016105f790614e70565b600260005561205b83612a39565b8161207957604051631f2a200560e01b815260040160405180910390fd5b600061208484612e9a565b905060006120928483614ff0565b90506120b08582846120aa63ffffffff881683615030565b8761338e565b50506001600055505050565b6000600260005414156120e15760405162461bcd60e51b81526004016105f790614e70565b60026000556120ef82612a39565b6120f882612e8d565b60008381526013602081815260408084208054600160401b810463ffffffff9081168752600585529286205489875294909352921663ffffffff19909116178155600101805460ff16905590915061214f8361303d565b6001600160a01b03811660009081526007602052604081208054929350849290919061217c908490615117565b9091555061219690506001600160a01b0382163384612968565b604080518481526001600160a01b038316602082015290810183905233907f7d3fe0088fc0b393d0c7629c8d9df3043bd33e8fc1a953dfa251ab201c6ebc389060600160405180910390a2506001600055919050565b6001600160a01b03918216600090815260126020908152604080832093909416825291909152205460ff1690565b60006002600054141561223f5760405162461bcd60e51b81526004016105f790614e70565b60026000819055546001600160a01b0386811691161480159061227057506003546001600160a01b03868116911614155b1561228e5760405163c1ab6dc160e01b815260040160405180910390fd5b600154604051639eceefe160e01b815263ffffffff841660048201526001600160a01b0390911690639eceefe19060240160206040518083038186803b1580156122d757600080fd5b505afa1580156122eb573d6000803e3d6000fd5b505050506040513d601f19601f8201168201806040525081019061230f9190614820565b61232c576040516305fabb6160e41b815260040160405180910390fd5b6002546000906001600160a01b03878116911614612355576003546001600160a01b0316612362565b6002546001600160a01b03165b9050600061237663ffffffff861687615067565b6001600160a01b039081169150612391908316333084613535565b6001600160a01b038716600090815260076020526040812080548392906123b9908490614ff0565b925050819055506001601460008282546123d39190614ff0565b925050819055506123e63360145461356d565b6123fa600863ffffffff8087169061358b16565b5060008061240f6014548a8a8a60008b613597565b601454604080519182526001600160a01b038d811660208401528c169082015263ffffffff8084166060830152808a166080830152821660a0820152919350915033907f7bd589f2fd6a39318e78fbbbadbcd21ce8c1306fc0ecb4d7a49a7e4be9c67e639060c00160405180910390a250506014546001600055979650505050505050565b61249c6144c1565b6000806000806124aa6137a7565b9150915060005b8160ff16811015612540578281815181106124dc57634e487b7160e01b600052603260045260246000fd5b602002602001015160400151856124f39190614ff0565b945082818151811061251557634e487b7160e01b600052603260045260246000fd5b6020026020010151606001518461252c9190614ff0565b935080612538816151ba565b9150506124b1565b5090845260ff166020840152600c546003546002546040516353ae9ce160e11b81526001600160a01b0392831660048201527f00000000000000000000000000000000000000000000000000000000000000006024820152908216604482015291169063a75d39c29060640160206040518083038186803b1580156125c457600080fd5b505afa1580156125d8573d6000803e3d6000fd5b505050506040513d601f19601f820116820180604052508101906125fc919061492d565b6080840181905261264d7f00000000000000000000000000000000000000000000000000000000000000007f0000000000000000000000000000000000000000000000000000000000000000615096565b6126579190615030565b8360a001818152505060006126917f000000000000000000000000000000000000000000000000000000000000000083866080015161394a565b90508281101561278b576003546001600160a01b039081166101408601526002541661016085015260006126c58285615117565b90506126f67f0000000000000000000000000000000000000000000000000000000000000000828760a0015161394a565b6101008601526127068682612d54565b6127109082614ff0565b6101208601526127208683612d54565b60c086015261272f8684612d54565b60e08601526101208501516002546001600160a01b031660009081526007602052604090205461275f9190615117565b6040808701919091526003546001600160a01b03166000908152600760205220546060860152506128da565b82811115612887576002546001600160a01b03908116610140860152600354166101608501526127bb8382615117565b610100850181905260a08501516000916127f7917f0000000000000000000000000000000000000000000000000000000000000000919061394a565b90506128038682612d54565b61280d9082614ff0565b61012086015261281d8685612d54565b60c0860152612835866128308386615117565b612d54565b60e08601526002546001600160a01b03908116600090815260076020818152604080842054818b01526101208a0151600354909516845291905290205461287c9190615117565b6060860152506128da565b6128918584612d54565b60c08501526128a08583612d54565b60e08501526002546001600160a01b03908116600090815260076020818152604080842054818a0152600354909416835252205460608501525b505050919050565b63ffffffff85166000908152600a602090815260408083206001600160a01b0388168452909152902083905561291a85858385613961565b63ffffffff94851660009081526004602090815260408083206001600160a01b03909716835295815285822092909616815294525050812055565b600061296183836139f5565b9392505050565b6040516001600160a01b038316602482015260448101829052610f2090849063a9059cbb60e01b906064015b60408051601f198184030181529190526020810180516001600160e01b03166001600160e01b031990931692909217909152613b13565b600081815260116020526040902080546001600160a01b0319166001600160a01b0384169081179091558190612a008261183f565b6001600160a01b03167f8c5be1e5ebec7d5bd14f71427d1e84f3dd0314c0f7b2291e5b200ac8c7c3b92560405160405180910390a45050565b600081815260136020526040902054600160601b90046001600160a01b0316612a755760405163673f032f60e11b815260040160405180910390fd5b612a7f3382612add565b612a9c57604051635c427cd960e01b815260040160405180910390fd5b50565b6000612aaa84612e9a565b90506000612abe63ffffffff841685615067565b6001600160a01b03169050612ad6858284878761338e565b5050505050565b6000818152600f60205260408120546001600160a01b0316612b565760405162461bcd60e51b815260206004820152602c60248201527f4552433732313a206f70657261746f7220717565727920666f72206e6f6e657860448201526b34b9ba32b73a103a37b5b2b760a11b60648201526084016105f7565b6000612b618361183f565b9050806001600160a01b0316846001600160a01b03161480612b9c5750836001600160a01b0316612b9184610d7a565b6001600160a01b0316145b80612bac5750612bac81856121ec565b949350505050565b826001600160a01b0316612bc78261183f565b6001600160a01b031614612c2f5760405162461bcd60e51b815260206004820152602960248201527f4552433732313a207472616e73666572206f6620746f6b656e2074686174206960448201526839903737ba1037bbb760b91b60648201526084016105f7565b6001600160a01b038216612c915760405162461bcd60e51b8152602060048201526024808201527f4552433732313a207472616e7366657220746f20746865207a65726f206164646044820152637265737360e01b60648201526084016105f7565b612c9c6000826129cb565b6001600160a01b0383166000908152601060205260408120805460019290612cc5908490615117565b90915550506001600160a01b0382166000908152601060205260408120805460019290612cf3908490614ff0565b90915550506000818152600f602052604080822080546001600160a01b0319166001600160a01b0386811691821790925591518493918716917fddf252ad1be2c89b69c2b068fc378daa952ba7f163c4a11628f55a4df523b3ef91a4505050565b6000806000612d69848663ffffffff16613be5565b915091508115612db5576064612da462ffffff7f00000000000000000000000000000000000000000000000000000000000000001683615030565b612dae9190615030565b9050612bac565b7f000000000000000000000000000000000000000000000000000000000000000062ffffff168563ffffffff1610612e385763ffffffff85166064612e1f62ffffff7f00000000000000000000000000000000000000000000000000000000000000001687615030565b612e299190615030565b612e339190615096565b612e84565b606463ffffffff8616612e7062ffffff7f00000000000000000000000000000000000000000000000000000000000000001687615030565b612e7a9190615096565b612e849190615030565b95945050505050565b60006105ce826001613c3b565b6000818152601360209081526040808320815160c081018352815463ffffffff8082168352600160201b82048116838701908152600160401b83048216848701819052600160601b9093046001600160a01b0316606085015260019094015460ff81161515608085015261010090046001600160f81b031660a084015290865260059094529184205490519192908116911611612f3a5750600092915050565b60408082015163ffffffff90811660009081526005602090815292812054928401519092612f6992169061512e565b905081606001518163ffffffff16612f819190615067565b6001600160a01b0316949350505050565b6000818152601360209081526040808320815160c081018352815463ffffffff8082168352600160201b8204811695830195909552600160401b810490941692810192909252600160601b9092046001600160a01b0316606082015260019091015460ff81161515608083018190526101009091046001600160f81b031660a083015261302a576003546001600160a01b0316612961565b6002546001600160a01b03169392505050565b6000818152601360209081526040808320815160c081018352815463ffffffff8082168352600160201b8204811695830195909552600160401b810490941692810192909252600160601b9092046001600160a01b0316606082015260019091015460ff81161515608083018190526101009091046001600160f81b031660a08301526130d5576002546001600160a01b0316612961565b6003546001600160a01b03169392505050565b6000818152601360209081526040808320815160c081018352815463ffffffff8082168352600160201b82048116838701908152600160401b83048216848701819052600160601b9093046001600160a01b0316606085015260019094015460ff81161515608085015261010090046001600160f81b031660a08401529086526005909452919093205492519092821691161115613292576000816080015161319c576003546001600160a01b03166131a9565b6002546001600160a01b03165b60608301516040808501805163ffffffff9081166000908152600460209081528482206001600160a01b03881683528152848220935183168252600590529283205494955060139390930b93909261320391166001615008565b63ffffffff1663ffffffff168152602001908152602001600020600082825461322c91906150d8565b9091555050606082015160408084015163ffffffff9081166000908152600460209081528382206001600160a01b0387168352815283822081880151909316825291909152908120805460139390930b9290919061328b908490614faf565b9091555050505b50600090815260136020526040812081815560010155565b60006132b58261183f565b90506132c26000836129cb565b6001600160a01b03811660009081526010602052604081208054600192906132eb908490615117565b90915550506000828152600f602052604080822080546001600160a01b0319169055518391906001600160a01b038416907fddf252ad1be2c89b69c2b068fc378daa952ba7f163c4a11628f55a4df523b3ef908390a45050565b60006105ce825490565b60006129618383613f99565b613366848484612bb4565b6133728484848461402d565b611f235760405162461bcd60e51b81526004016105f790614dcd565b600061339986612f92565b905060006133a8876000613c3b565b90506001600160f81b038111156133d257604051630930608960e11b815260040160405180910390fd5b600087815260136020526040902054600160401b900463ffffffff166133f7886130e8565b6000806134088a8689898888613597565b91509150878911156134725761343533306134238b8d615117565b6001600160a01b038916929190613535565b61343f888a615117565b6001600160a01b03861660009081526007602052604081208054909190613467908490614ff0565b909155506134d19050565b878910156134d1576134848989615117565b6001600160a01b038616600090815260076020526040812080549091906134ac908490615117565b909155506134d19050336134c08b8b615117565b6001600160a01b0388169190612968565b604080518b81526001600160a01b038916602082015263ffffffff8481168284015283166060820152905133917ffa7c989fea93eb42545a9e7a74f2b8d966813e216a1dd7b59562af10dba259b4919081900360800190a250505050505050505050565b6040516001600160a01b0380851660248301528316604482015260648101829052611f239085906323b872dd60e01b90608401612994565b61358782826040518060200160405280600081525061413a565b5050565b6000612961838361416d565b6000806001600160a01b0386166135c1576040516314cee7cd60e11b815260040160405180910390fd5b63ffffffff85166135e557604051633c92196b60e11b815260040160405180910390fd5b63ffffffff80841660009081526005602052604090205416613608816001615008565b92506136148682615008565b63ffffffff80861660009081526004602090815260408083206001600160a01b038e16845282528083209388168352929052908120805492945060138a900b92909190613662908490614faf565b909155505063ffffffff80851660009081526004602090815260408083206001600160a01b038d16845282528083209386168352929052908120805460138a900b92906136b09084906150d8565b90915550506040805160c08101825263ffffffff928316815283831660208083019182529684168284019081526001600160a01b039a8b16606084019081526002549c8c169c8c169c909c14608084019081526001600160f81b03998a1660a0850190815260009e8f52601390995293909c209151825491519c519b51909a16600160601b026bffffffffffffffffffffffff9b8516600160401b029b909b1667ffffffffffffffff9c8516600160201b0267ffffffffffffffff199092169a90941699909917989098179990991617969096178555955190519091166101000290151560ff161760019290920191909155509091565b60606000806137b66008613345565b90508067ffffffffffffffff8111156137df57634e487b7160e01b600052604160045260246000fd5b60405190808252806020026020018201604052801561383157816020015b6040805160808101825260008082526020808301829052928201819052606082015282526000199092019101816137fd5790505b50925060005b8181101561394457600061384c60088361334f565b90504263ffffffff8281166000908152600b60205260409020549181169116116139315763ffffffff808216600090815260056020526040812054909161389591166001615008565b6040805160808101825263ffffffff80861682528316602082015260025492935091908201906138d09085906001600160a01b0316856141bc565b81526003546020909101906138f09085906001600160a01b0316856141bc565b815250868660ff168151811061391657634e487b7160e01b600052603260045260246000fd5b6020026020010181905250848061392c906151d5565b955050505b508061393c816151ba565b915050613837565b50509091565b6000836139578385615096565b612bac9190615030565b63ffffffff841660009081526006602090815260408083206001600160a01b038716845290915281208161399660018661512e565b63ffffffff16815260208101919091526040016000205490506139b98282614ff0565b63ffffffff95861660009081526006602090815260408083206001600160a01b0390981683529681528682209590971681529390955250502055565b60008181526001830160205260408120548015613b02576000613a19600183615117565b8554909150600090613a2d90600190615117565b90506000866000018281548110613a5457634e487b7160e01b600052603260045260246000fd5b9060005260206000200154905080876000018481548110613a8557634e487b7160e01b600052603260045260246000fd5b600091825260208083209091019290925582815260018901909152604090208490558654879080613ac657634e487b7160e01b600052603160045260246000fd5b600190038181906000526020600020016000905590558660010160008781526020019081526020016000206000905560019450505050506105ce565b60009150506105ce565b5092915050565b6000613b68826040518060400160405280602081526020017f5361666545524332303a206c6f772d6c6576656c2063616c6c206661696c6564815250856001600160a01b031661420f9092919063ffffffff16565b805190915015610f205780806020019051810190613b869190614820565b610f205760405162461bcd60e51b815260206004820152602a60248201527f5361666545524332303a204552433230206f7065726174696f6e20646964206e6044820152691bdd081cdd58d8d9595960b21b60648201526084016105f7565b60008083613bf95750600190506000613c34565b83830283858281613c1a57634e487b7160e01b600052601260045260246000fd5b0414613c2d576000809250925050613c34565b6001925090505b9250929050565b6000828152601360209081526040808320815160c081018352815463ffffffff8082168352600160201b8204811695830195909552600160401b810490941692810192909252600160601b9092046001600160a01b0316606082015260019091015460ff81161515608083018190526101009091046001600160f81b031660a08301528290613cd5576003546001600160a01b0316613ce2565b6002546001600160a01b03165b6040808401805163ffffffff9081166000908152600660208181528583206001600160a01b0388168085529082528684208a51861685528252868420548651861685529282528684209084528152858320818a0151955185168452600590915294822054959650949093928492908116911610613d63578560200151613d82565b60408087015163ffffffff908116600090815260056020529190912054165b63ffffffff16815260208101919091526040016000908120549150613da78383615117565b905060008560800151613dda577f0000000000000000000000000000000000000000000000000000000000000000613dfc565b7f00000000000000000000000000000000000000000000000000000000000000005b9050600080613e188489606001516001600160a01b0316613be5565b9150915060008215613e3557613e2e8483615030565b9050613ed2565b6000848a606001516001600160a01b03161080613e7c57508486118015613e7c5750848a606001516001600160a01b0316613e7091906151f5565b613e7a86886151f5565b105b905080613eac5785858b606001516001600160a01b0316613e9d9190615030565b613ea79190615096565b613ece565b60608a01516001600160a01b0316613ec48688615030565b613ece9190615096565b9150505b60008960a001516001600160f81b031682613eed9190614ff0565b90508b613efa5780613f88565b600154604080516354cf2aeb60e01b81529051613f7e926001600160a01b0316916354cf2aeb916004808301926020929190829003018186803b158015613f4057600080fd5b505afa158015613f54573d6000803e3d6000fd5b505050506040513d601f19601f82011682018060405250810190613f789190614a60565b82612d54565b613f889082615117565b9d9c50505050505050505050505050565b81546000908210613ff75760405162461bcd60e51b815260206004820152602260248201527f456e756d657261626c655365743a20696e646578206f7574206f6620626f756e604482015261647360f01b60648201526084016105f7565b82600001828154811061401a57634e487b7160e01b600052603260045260246000fd5b9060005260206000200154905092915050565b60006001600160a01b0384163b1561412f57604051630a85bd0160e11b81526001600160a01b0385169063150b7a0290614071903390899088908890600401614c2f565b602060405180830381600087803b15801561408b57600080fd5b505af19250505080156140bb575060408051601f3d908101601f191682019092526140b891810190614858565b60015b614115573d8080156140e9576040519150601f19603f3d011682016040523d82523d6000602084013e6140ee565b606091505b50805161410d5760405162461bcd60e51b81526004016105f790614dcd565b805181602001fd5b6001600160e01b031916630a85bd0160e11b149050612bac565b506001949350505050565b614144838361421e565b614151600084848461402d565b610f205760405162461bcd60e51b81526004016105f790614dcd565b60008181526001830160205260408120546141b4575081546001818101845560008481526020808220909301849055845484825282860190935260409020919091556105ce565b5060006105ce565b63ffffffff92831660008181526004602090815260408083206001600160a01b0390961680845295825280832094909616825292835284812054918152600a835284812093815292909152919020540190565b6060612bac8484600085614360565b6001600160a01b0382166142745760405162461bcd60e51b815260206004820181905260248201527f4552433732313a206d696e7420746f20746865207a65726f206164647265737360448201526064016105f7565b6000818152600f60205260409020546001600160a01b0316156142d95760405162461bcd60e51b815260206004820152601c60248201527f4552433732313a20746f6b656e20616c7265616479206d696e7465640000000060448201526064016105f7565b6001600160a01b0382166000908152601060205260408120805460019290614302908490614ff0565b90915550506000818152600f602052604080822080546001600160a01b0319166001600160a01b03861690811790915590518392907fddf252ad1be2c89b69c2b068fc378daa952ba7f163c4a11628f55a4df523b3ef908290a45050565b6060824710156143c15760405162461bcd60e51b815260206004820152602660248201527f416464726573733a20696e73756666696369656e742062616c616e636520666f6044820152651c8818d85b1b60d21b60648201526084016105f7565b843b61440f5760405162461bcd60e51b815260206004820152601d60248201527f416464726573733a2063616c6c20746f206e6f6e2d636f6e747261637400000060448201526064016105f7565b600080866001600160a01b0316858760405161442b9190614c13565b60006040518083038185875af1925050503d8060008114614468576040519150601f19603f3d011682016040523d82523d6000602084013e61446d565b606091505b509150915061447d828286614488565b979650505050505050565b60608315614497575081612961565b8251156144a75782518084602001fd5b8160405162461bcd60e51b81526004016105f79190614dba565b60405180610180016040528060608152602001600060ff168152602001600081526020016000815260200160008152602001600081526020016000815260200160008152602001600081526020016000815260200160006001600160a01b0316815260200160006001600160a01b031681525090565b600082601f830112614547578081fd5b813561455a61455582614f87565b614f56565b81815284602083860101111561456e578283fd5b816020850160208301379081016020019190915292915050565b600060608284031215614599578081fd5b6040516060810181811067ffffffffffffffff821117156145bc576145bc615235565b806040525080915082516145cf8161524b565b815260208301516145df81615260565b602082015260408301516145f281615284565b6040919091015292915050565b600060208284031215614610578081fd5b81356129618161524b565b6000806040838503121561462d578081fd5b82356146388161524b565b915060208301356146488161524b565b809150509250929050565b600080600060608486031215614667578081fd5b83356146728161524b565b925060208401356146828161524b565b929592945050506040919091013590565b600080600080608085870312156146a8578081fd5b84356146b38161524b565b935060208501356146c38161524b565b925060408501359150606085013567ffffffffffffffff8111156146e5578182fd5b6146f187828801614537565b91505092959194509250565b6000806040838503121561470f578182fd5b823561471a8161524b565b9150602083013561464881615260565b6000806000806080858703121561473f578384fd5b843561474a8161524b565b9350602085013561475a8161524b565b9250604085013561476a81615284565b9150606085013561477a81615284565b939692955090935050565b60008060408385031215614797578182fd5b82356147a28161524b565b946020939093013593505050565b600080602083850312156147c2578182fd5b823567ffffffffffffffff808211156147d9578384fd5b818501915085601f8301126147ec578384fd5b8135818111156147fa578485fd5b8660208260051b850101111561480e578485fd5b60209290920196919550909350505050565b600060208284031215614831578081fd5b815161296181615260565b60006020828403121561484d578081fd5b81356129618161526e565b600060208284031215614869578081fd5b81516129618161526e565b600060208284031215614885578081fd5b81516129618161524b565b6000602082840312156148a1578081fd5b815167ffffffffffffffff8111156148b7578182fd5b8201601f810184136148c7578182fd5b80516148d561455582614f87565b8181528560208385010111156148e9578384fd5b612e84826020830160208601615153565b60006060828403121561490b578081fd5b6129618383614588565b600060208284031215614926578081fd5b5035919050565b60006020828403121561493e578081fd5b5051919050565b60008060408385031215614957578182fd5b8235915060208301356146488161524b565b60008060006060848603121561497d578081fd5b83359250602084013561498f8161524b565b9150604084013561499f81615284565b809150509250925092565b600080600080608085870312156149bf578182fd5b843593506020850135925060408501356149d88161524b565b9150606085013567ffffffffffffffff8111156146e5578182fd5b600080600060608486031215614a07578081fd5b8335925060208401359150604084013561499f81615284565b60008060408385031215614a32578182fd5b82359150602083013561464881615284565b600060208284031215614a55578081fd5b813561296181615284565b600060208284031215614a71578081fd5b815161296181615284565b60008060408385031215614a8e578182fd5b823561463881615284565b600080600060608486031215614aad578081fd5b8335614ab881615284565b9250602084013561498f8161524b565b6000815180845260208085019450808401835b83811015614b20578151805163ffffffff9081168952848201511684890152604080820151908901526060908101519088015260809096019590820190600101614adb565b509495945050505050565b60008151808452614b43816020860160208601615153565b601f01601f19169290920160200192915050565b60006101808251818552614b6d82860182614ac8565b9150506020830151614b84602086018260ff169052565b5060408301516040850152606083015160608501526080830151608085015260a083015160a085015260c083015160c085015260e083015160e085015261010080840151818601525061012080840151818601525061014080840151614bf4828701826001600160a01b03169052565b5050610160928301516001600160a01b03169390920192909252919050565b60008251614c25818460208701615153565b9190910192915050565b6001600160a01b0385811682528416602082015260408101839052608060608201819052600090614c6290830184614b2b565b9695505050505050565b600061012060018060a01b03808d168452808c166020850152808b1660408501525088606084015287608084015286151560a08401528560c08401528460e084015280610100840152614cc181840185614b2b565b9c9b505050505050505050505050565b600061010060018060a01b03808c168452808b166020850152808a166040850152508760608401528660808401528560a08401528460c08401528060e0840152614d1d81840185614b2b565b9b9a5050505050505050505050565b6060808252810184905260006001600160fb1b03851115614d4b578081fd5b8460051b80876080850137820160800190815260208201939093526040015292915050565b6020808252825182820181905260009190848201906040850190845b81811015614dae57835163ffffffff1683529284019291840191600101614d8c565b50909695505050505050565b6020815260006129616020830184614b2b565b60208082526032908201527f4552433732313a207472616e7366657220746f206e6f6e20455243373231526560408201527131b2b4bb32b91034b6b83632b6b2b73a32b960711b606082015260800190565b60208082526031908201527f4552433732313a207472616e736665722063616c6c6572206973206e6f74206f6040820152701ddb995c881b9bdc88185c1c1c9bdd9959607a1b606082015260800190565b6020808252601f908201527f5265656e7472616e637947756172643a207265656e7472616e742063616c6c00604082015260600190565b6020815260006129616020830184614b57565b60006101008201905060018060a01b0380845116835280602085015116602084015250604083015163ffffffff8082166040850152806060860151166060850152608085015160808501528060a08601511660a0850152505060c083015160c083015260e0830151613b0c60e08401826001600160a01b03169052565b838152826020820152606060408201526000612e846060830184614b57565b604051601f8201601f1916810167ffffffffffffffff81118282101715614f7f57614f7f615235565b604052919050565b600067ffffffffffffffff821115614fa157614fa1615235565b50601f01601f191660200190565b600080821280156001600160ff1b0384900385131615614fd157614fd1615209565b600160ff1b8390038412811615614fea57614fea615209565b50500190565b6000821982111561500357615003615209565b500190565b600063ffffffff80831681851680830382111561502757615027615209565b01949350505050565b60008261503f5761503f61521f565b500490565b600063ffffffff8084168061505b5761505b61521f565b92169190910492915050565b60006001600160a01b038281168482168115158284048211161561508d5761508d615209565b02949350505050565b60008160001904831182151516156150b0576150b0615209565b500290565b600063ffffffff8083168185168183048111821515161561508d5761508d615209565b60008083128015600160ff1b8501841216156150f6576150f6615209565b6001600160ff1b038401831381161561511157615111615209565b50500390565b60008282101561512957615129615209565b500390565b600063ffffffff8381169083168181101561514b5761514b615209565b039392505050565b60005b8381101561516e578181015183820152602001615156565b83811115611f235750506000910152565b600181811c9082168061519357607f821691505b602082108114156151b457634e487b7160e01b600052602260045260246000fd5b50919050565b60006000198214156151ce576151ce615209565b5060010190565b600060ff821660ff8114156151ec576151ec615209565b60010192915050565b6000826152045761520461521f565b500690565b634e487b7160e01b600052601160045260246000fd5b634e487b7160e01b600052601260045260246000fd5b634e487b7160e01b600052604160045260246000fd5b6001600160a01b0381168114612a9c57600080fd5b8015158114612a9c57600080fd5b6001600160e01b031981168114612a9c57600080fd5b63ffffffff81168114612a9c57600080fdfea2646970667358221220faa79f1d2ed8be6caa6548089767fa6795bcb2f328bad062438df614bd30c69f64736f6c63430008040033a2646970667358221220091ffd4dc6b91f4fd937e7efde3bb5adfc82bb543fff7a98347cdef474ec475564736f6c63430008040033"
}