{
  "address": "0x32897d909c6BEE1A80d19585F31f9863DBC274cc",
  "abi": [
    {
      "inputs": [
        {
          "internalType": "address",
          "name": "_governor",
          "type": "address"
        },
        {
          "internalType": "address",
          "name": "_feeRecipient",
          "type": "address"
        },
        {
          "internalType": "contract IDCATokenDescriptor",
          "name": "_nftDescriptor",
          "type": "address"
        },
        {
          "internalType": "contract ITimeWeightedOracle",
          "name": "_oracle",
          "type": "address"
        }
      ],
      "stateMutability": "nonpayable",
      "type": "constructor"
    },
    {
      "inputs": [],
      "name": "EmptyDescription",
      "type": "error"
    },
    {
      "inputs": [],
      "name": "HighFee",
      "type": "error"
    },
    {
      "inputs": [],
      "name": "InvalidParams",
      "type": "error"
    },
    {
      "inputs": [],
      "name": "ZeroAddress",
      "type": "error"
    },
    {
      "inputs": [],
      "name": "ZeroInterval",
      "type": "error"
    },
    {
      "anonymous": false,
      "inputs": [
        {
          "indexed": false,
          "internalType": "address",
          "name": "_feeRecipient",
          "type": "address"
        }
      ],
      "name": "FeeRecipientSet",
      "type": "event"
    },
    {
      "anonymous": false,
      "inputs": [
        {
          "indexed": false,
          "internalType": "uint32",
          "name": "_feeSet",
          "type": "uint32"
        }
      ],
      "name": "LoanFeeSet",
      "type": "event"
    },
    {
      "anonymous": false,
      "inputs": [
        {
          "indexed": false,
          "internalType": "contract IDCATokenDescriptor",
          "name": "_descriptor",
          "type": "address"
        }
      ],
      "name": "NFTDescriptorSet",
      "type": "event"
    },
    {
      "anonymous": false,
      "inputs": [
        {
          "indexed": false,
          "internalType": "contract ITimeWeightedOracle",
          "name": "_oracle",
          "type": "address"
        }
      ],
      "name": "OracleSet",
      "type": "event"
    },
    {
      "anonymous": false,
      "inputs": [
        {
          "indexed": false,
          "internalType": "address",
          "name": "account",
          "type": "address"
        }
      ],
      "name": "Paused",
      "type": "event"
    },
    {
      "anonymous": false,
      "inputs": [],
      "name": "PendingGovernorAccepted",
      "type": "event"
    },
    {
      "anonymous": false,
      "inputs": [
        {
          "indexed": false,
          "internalType": "address",
          "name": "_pendingGovernor",
          "type": "address"
        }
      ],
      "name": "PendingGovernorSet",
      "type": "event"
    },
    {
      "anonymous": false,
      "inputs": [
        {
          "indexed": false,
          "internalType": "uint32",
          "name": "_feeSet",
          "type": "uint32"
        }
      ],
      "name": "SwapFeeSet",
      "type": "event"
    },
    {
      "anonymous": false,
      "inputs": [
        {
          "indexed": false,
          "internalType": "uint32[]",
          "name": "_swapIntervals",
          "type": "uint32[]"
        },
        {
          "indexed": false,
          "internalType": "string[]",
          "name": "_descriptions",
          "type": "string[]"
        }
      ],
      "name": "SwapIntervalsAllowed",
      "type": "event"
    },
    {
      "anonymous": false,
      "inputs": [
        {
          "indexed": false,
          "internalType": "uint32[]",
          "name": "_swapIntervals",
          "type": "uint32[]"
        }
      ],
      "name": "SwapIntervalsForbidden",
      "type": "event"
    },
    {
      "anonymous": false,
      "inputs": [
        {
          "indexed": false,
          "internalType": "address",
          "name": "account",
          "type": "address"
        }
      ],
      "name": "Unpaused",
      "type": "event"
    },
    {
      "inputs": [],
      "name": "FEE_PRECISION",
      "outputs": [
        {
          "internalType": "uint24",
          "name": "",
          "type": "uint24"
        }
      ],
      "stateMutability": "view",
      "type": "function"
    },
    {
      "inputs": [],
      "name": "MAX_FEE",
      "outputs": [
        {
          "internalType": "uint32",
          "name": "",
          "type": "uint32"
        }
      ],
      "stateMutability": "view",
      "type": "function"
    },
    {
      "inputs": [],
      "name": "acceptPendingGovernor",
      "outputs": [],
      "stateMutability": "nonpayable",
      "type": "function"
    },
    {
      "inputs": [
        {
          "internalType": "uint32[]",
          "name": "_swapIntervals",
          "type": "uint32[]"
        },
        {
          "internalType": "string[]",
          "name": "_descriptions",
          "type": "string[]"
        }
      ],
      "name": "addSwapIntervalsToAllowedList",
      "outputs": [],
      "stateMutability": "nonpayable",
      "type": "function"
    },
    {
      "inputs": [],
      "name": "allowedSwapIntervals",
      "outputs": [
        {
          "internalType": "uint32[]",
          "name": "__allowedSwapIntervals",
          "type": "uint32[]"
        }
      ],
      "stateMutability": "view",
      "type": "function"
    },
    {
      "inputs": [],
      "name": "feeRecipient",
      "outputs": [
        {
          "internalType": "address",
          "name": "",
          "type": "address"
        }
      ],
      "stateMutability": "view",
      "type": "function"
    },
    {
      "inputs": [],
      "name": "governor",
      "outputs": [
        {
          "internalType": "address",
          "name": "",
          "type": "address"
        }
      ],
      "stateMutability": "view",
      "type": "function"
    },
    {
      "inputs": [
        {
          "internalType": "uint32",
          "name": "",
          "type": "uint32"
        }
      ],
      "name": "intervalDescription",
      "outputs": [
        {
          "internalType": "string",
          "name": "",
          "type": "string"
        }
      ],
      "stateMutability": "view",
      "type": "function"
    },
    {
      "inputs": [
        {
          "internalType": "address",
          "name": "_account",
          "type": "address"
        }
      ],
      "name": "isGovernor",
      "outputs": [
        {
          "internalType": "bool",
          "name": "_isGovernor",
          "type": "bool"
        }
      ],
      "stateMutability": "view",
      "type": "function"
    },
    {
      "inputs": [
        {
          "internalType": "address",
          "name": "_account",
          "type": "address"
        }
      ],
      "name": "isPendingGovernor",
      "outputs": [
        {
          "internalType": "bool",
          "name": "_isPendingGovernor",
          "type": "bool"
        }
      ],
      "stateMutability": "view",
      "type": "function"
    },
    {
      "inputs": [
        {
          "internalType": "uint32",
          "name": "_swapInterval",
          "type": "uint32"
        }
      ],
      "name": "isSwapIntervalAllowed",
      "outputs": [
        {
          "internalType": "bool",
          "name": "",
          "type": "bool"
        }
      ],
      "stateMutability": "view",
      "type": "function"
    },
    {
      "inputs": [],
      "name": "loanFee",
      "outputs": [
        {
          "internalType": "uint32",
          "name": "",
          "type": "uint32"
        }
      ],
      "stateMutability": "view",
      "type": "function"
    },
    {
      "inputs": [],
      "name": "loanParameters",
      "outputs": [
        {
          "components": [
            {
              "internalType": "address",
              "name": "feeRecipient",
              "type": "address"
            },
            {
              "internalType": "bool",
              "name": "isPaused",
              "type": "bool"
            },
            {
              "internalType": "uint32",
              "name": "loanFee",
              "type": "uint32"
            }
          ],
          "internalType": "struct IDCAGlobalParameters.LoanParameters",
          "name": "_loanParameters",
          "type": "tuple"
        }
      ],
      "stateMutability": "view",
      "type": "function"
    },
    {
      "inputs": [],
      "name": "nftDescriptor",
      "outputs": [
        {
          "internalType": "contract IDCATokenDescriptor",
          "name": "",
          "type": "address"
        }
      ],
      "stateMutability": "view",
      "type": "function"
    },
    {
      "inputs": [],
      "name": "oracle",
      "outputs": [
        {
          "internalType": "contract ITimeWeightedOracle",
          "name": "",
          "type": "address"
        }
      ],
      "stateMutability": "view",
      "type": "function"
    },
    {
      "inputs": [],
      "name": "pause",
      "outputs": [],
      "stateMutability": "nonpayable",
      "type": "function"
    },
    {
      "inputs": [],
      "name": "paused",
      "outputs": [
        {
          "internalType": "bool",
          "name": "",
          "type": "bool"
        }
      ],
      "stateMutability": "view",
      "type": "function"
    },
    {
      "inputs": [],
      "name": "pendingGovernor",
      "outputs": [
        {
          "internalType": "address",
          "name": "",
          "type": "address"
        }
      ],
      "stateMutability": "view",
      "type": "function"
    },
    {
      "inputs": [
        {
          "internalType": "uint32[]",
          "name": "_swapIntervals",
          "type": "uint32[]"
        }
      ],
      "name": "removeSwapIntervalsFromAllowedList",
      "outputs": [],
      "stateMutability": "nonpayable",
      "type": "function"
    },
    {
      "inputs": [
        {
          "internalType": "address",
          "name": "_feeRecipient",
          "type": "address"
        }
      ],
      "name": "setFeeRecipient",
      "outputs": [],
      "stateMutability": "nonpayable",
      "type": "function"
    },
    {
      "inputs": [
        {
          "internalType": "uint32",
          "name": "_loanFee",
          "type": "uint32"
        }
      ],
      "name": "setLoanFee",
      "outputs": [],
      "stateMutability": "nonpayable",
      "type": "function"
    },
    {
      "inputs": [
        {
          "internalType": "contract IDCATokenDescriptor",
          "name": "_descriptor",
          "type": "address"
        }
      ],
      "name": "setNFTDescriptor",
      "outputs": [],
      "stateMutability": "nonpayable",
      "type": "function"
    },
    {
      "inputs": [
        {
          "internalType": "contract ITimeWeightedOracle",
          "name": "_oracle",
          "type": "address"
        }
      ],
      "name": "setOracle",
      "outputs": [],
      "stateMutability": "nonpayable",
      "type": "function"
    },
    {
      "inputs": [
        {
          "internalType": "address",
          "name": "__pendingGovernor",
          "type": "address"
        }
      ],
      "name": "setPendingGovernor",
      "outputs": [],
      "stateMutability": "nonpayable",
      "type": "function"
    },
    {
      "inputs": [
        {
          "internalType": "uint32",
          "name": "_swapFee",
          "type": "uint32"
        }
      ],
      "name": "setSwapFee",
      "outputs": [],
      "stateMutability": "nonpayable",
      "type": "function"
    },
    {
      "inputs": [],
      "name": "swapFee",
      "outputs": [
        {
          "internalType": "uint32",
          "name": "",
          "type": "uint32"
        }
      ],
      "stateMutability": "view",
      "type": "function"
    },
    {
      "inputs": [],
      "name": "swapParameters",
      "outputs": [
        {
          "components": [
            {
              "internalType": "address",
              "name": "feeRecipient",
              "type": "address"
            },
            {
              "internalType": "bool",
              "name": "isPaused",
              "type": "bool"
            },
            {
              "internalType": "uint32",
              "name": "swapFee",
              "type": "uint32"
            },
            {
              "internalType": "contract ITimeWeightedOracle",
              "name": "oracle",
              "type": "address"
            }
          ],
          "internalType": "struct IDCAGlobalParameters.SwapParameters",
          "name": "_swapParameters",
          "type": "tuple"
        }
      ],
      "stateMutability": "view",
      "type": "function"
    },
    {
      "inputs": [],
      "name": "unpause",
      "outputs": [],
      "stateMutability": "nonpayable",
      "type": "function"
    }
  ],
  "transactionHash": "0xa19ef59e1d8a761626c771f665d71abb0b974fe138f1f82601b9791e2dd1e04b",
  "args": [
    "0x9012D9bbFdcEe42c618f9464b4632568e6385dCa",
    "0x0daABaB6f7E7Bb6befA07F88cAE10E5113aF11Cc",
    "0xFDD731ab96C2b8B1Ef98A0C5c2c70a4e19b7F20f",
    "0x7998d2Fc485D7010D6375814EA8DaF379E7f1500"
  ],
  "solcInputHash": "486e204ff99612f30e6fa3cccc207409",
  "bytecode": "0x608060405260048054600160a01b600160e01b031916647d0000017760a31b1790553480156200002e57600080fd5b5060405162001a6838038062001a68833981016040819052620000519162000162565b836001600160a01b038116620000ad5760405162461bcd60e51b815260206004820152601860248201527f476f7665726e61626c653a207a65726f20616464726573730000000000000000604482015260640160405180910390fd5b600080546001600160a01b0319166001600160a01b039283161790556001805460ff60a01b1916905583161580620000ec57506001600160a01b038216155b80620000ff57506001600160a01b038116155b156200011e5760405163d92e233d60e01b815260040160405180910390fd5b600280546001600160a01b039485166001600160a01b03199182161790915560038054938516938216939093179092556004805491909316911617905550620001e2565b6000806000806080858703121562000178578384fd5b84516200018581620001c9565b60208601519094506200019881620001c9565b6040860151909350620001ab81620001c9565b6060860151909250620001be81620001c9565b939692955090935050565b6001600160a01b0381168114620001df57600080fd5b50565b61187680620001f26000396000f3fe608060405234801561001057600080fd5b50600436106101c45760003560e01c80638456cb59116100f9578063da90b03a11610097578063e43581b811610071578063e43581b8146104ab578063e63a391f146104cd578063e74b981b146104ea578063f235757f146104fd57600080fd5b8063da90b03a14610465578063df08aed514610478578063e3056a341461049a57600080fd5b8063b1d0a337116100d3578063b1d0a337146103c1578063bc063e1a14610437578063caeb93d91461043f578063d6d788c31461045257600080fd5b80638456cb591461038f5780639bcb5572146103975780639eceefe1146103ae57600080fd5b806354cf2aeb116101665780637adbf973116101405780637adbf973146103435780637cad6cd1146103565780637d8e8603146103695780637dc0d1d01461037c57600080fd5b806354cf2aeb146102d95780635c975abb1461030557806375c890b81461032357600080fd5b80633f4ba83a116101a25780633f4ba83a14610296578063442675701461029e57806346904840146102b1578063480e5da1146102c457600080fd5b80630c340a24146101c95780630e55bd1c146101f357806313f6986d1461028c575b600080fd5b6000546001600160a01b03165b6040516001600160a01b0390911681526020015b60405180910390f35b610245604080516080810182526002546001600160a01b03908116825260015460ff600160a01b91829004161515602084015260045490810463ffffffff169383019390935291909116606082015290565b6040516101ea919081516001600160a01b03908116825260208084015115159083015260408084015163ffffffff1690830152606092830151169181019190915260800190565b610294610510565b005b610294610583565b6003546101d6906001600160a01b031681565b6002546101d6906001600160a01b031681565b6102cc6105b5565b6040516101ea9190611664565b6004546102f090600160a01b900463ffffffff1681565b60405163ffffffff90911681526020016101ea565b600154600160a01b900460ff165b60405190151581526020016101ea565b610336610331366004611515565b61067a565b6040516101ea91906116ae565b610294610351366004611450565b610714565b610294610364366004611450565b6107ba565b61029461037736600461146c565b610859565b6004546101d6906001600160a01b031681565b61029461098c565b6004546102f090600160c01b900463ffffffff1681565b6103136103bc366004611515565b6109be565b604080516060810182526002546001600160a01b03168152600154600160a01b900460ff1615156020820152600454600160c01b900463ffffffff16918101919091526040805182516001600160a01b031681526020808401511515908201529181015163ffffffff16908201526060016101ea565b6102f06109da565b61029461044d3660046114ac565b6109ef565b610294610460366004611515565b610c21565b610294610473366004611515565b610cd7565b610313610486366004611450565b6001546001600160a01b0391821691161490565b6001546001600160a01b03166101d6565b6103136104b9366004611450565b6000546001600160a01b0391821691161490565b6104d661271081565b60405162ffffff90911681526020016101ea565b6102946104f8366004611450565b610d8d565b61029461050b366004611450565b610e2c565b6001546001600160a01b031633146105795760405162461bcd60e51b815260206004820152602160248201527f476f7665726e61626c653a206f6e6c792070656e64696e6720676f7665726e6f6044820152603960f91b60648201526084015b60405180910390fd5b610581610e62565b565b6000546001600160a01b031633146105ad5760405162461bcd60e51b815260040161057090611701565b610581610f0a565b606060006105c36006610fa7565b90508067ffffffffffffffff8111156105ec57634e487b7160e01b600052604160045260246000fd5b604051908082528060200260200182016040528015610615578160200160208202803683370190505b50915060005b818110156106755761062e600682610fb1565b83828151811061064e57634e487b7160e01b600052603260045260246000fd5b63ffffffff909216602092830291909101909101528061066d816117fa565b91505061061b565b505090565b60056020526000908152604090208054610693906117bf565b80601f01602080910402602001604051908101604052809291908181526020018280546106bf906117bf565b801561070c5780601f106106e15761010080835404028352916020019161070c565b820191906000526020600020905b8154815290600101906020018083116106ef57829003601f168201915b505050505081565b6000546001600160a01b0316331461073e5760405162461bcd60e51b815260040161057090611701565b6001600160a01b0381166107655760405163d92e233d60e01b815260040160405180910390fd5b600480546001600160a01b0319166001600160a01b0383169081179091556040519081527f3f32684a32a11dabdbb8c0177de80aa3ae36a004d75210335b49e544e48cd0aa906020015b60405180910390a150565b6000546001600160a01b031633146107e45760405162461bcd60e51b815260040161057090611701565b6001600160a01b03811661080b5760405163d92e233d60e01b815260040160405180910390fd5b600380546001600160a01b0319166001600160a01b0383169081179091556040519081527f58a2b9171063c6d38177053178bc1844b920884b05d7c9126c480d86b0716bce906020016107af565b6000546001600160a01b031633146108835760405162461bcd60e51b815260040161057090611701565b60005b8181101561094e576108dc8383838181106108b157634e487b7160e01b600052603260045260246000fd5b90506020020160208101906108c69190611515565b63ffffffff166006610fc490919063ffffffff16565b506005600084848481811061090157634e487b7160e01b600052603260045260246000fd5b90506020020160208101906109169190611515565b63ffffffff1663ffffffff168152602001908152602001600020600061093c919061131a565b80610946816117fa565b915050610886565b507fd0359552feffede26fee29bd110dd8e1a3237acd35c7e17a9d3b7330b02f8825828260405161098092919061159b565b60405180910390a15050565b6000546001600160a01b031633146109b65760405162461bcd60e51b815260040161057090611701565b610581610fd0565b60006109d4600663ffffffff8085169061105816565b92915050565b6109e7612710600a61177d565b62ffffff1681565b6000546001600160a01b03163314610a195760405162461bcd60e51b815260040161057090611701565b828114610a3957604051635435b28960e11b815260040160405180910390fd5b60005b83811015610bdd57848482818110610a6457634e487b7160e01b600052603260045260246000fd5b9050602002016020810190610a799190611515565b63ffffffff16610a9c5760405163346ff60760e01b815260040160405180910390fd5b828282818110610abc57634e487b7160e01b600052603260045260246000fd5b9050602002810190610ace9190611738565b15159050610aef5760405163d937d5df60e01b815260040160405180910390fd5b610b3d858583818110610b1257634e487b7160e01b600052603260045260246000fd5b9050602002016020810190610b279190611515565b63ffffffff16600661107090919063ffffffff16565b50828282818110610b5e57634e487b7160e01b600052603260045260246000fd5b9050602002810190610b709190611738565b60056000888886818110610b9457634e487b7160e01b600052603260045260246000fd5b9050602002016020810190610ba99190611515565b63ffffffff1681526020810191909152604001600020610bca929091611354565b5080610bd5816117fa565b915050610a3c565b507fbedbd17c0fc434b767574d7b78c5b856984fbdd13b02606fb750dd37020ddaa384848484604051610c1394939291906115b7565b60405180910390a150505050565b6000546001600160a01b03163314610c4b5760405162461bcd60e51b815260040161057090611701565b610c58612710600a61177d565b62ffffff1663ffffffff82161115610c83576040516314041af760e31b815260040160405180910390fd5b6004805463ffffffff60a01b1916600160a01b63ffffffff8416908102919091179091556040519081527f5658872a8436367e842f76c14ffbbf8e67a2e70f47b28b3c4154134f72e902d6906020016107af565b6000546001600160a01b03163314610d015760405162461bcd60e51b815260040161057090611701565b610d0e612710600a61177d565b62ffffff1663ffffffff82161115610d39576040516314041af760e31b815260040160405180910390fd5b6004805463ffffffff60c01b1916600160c01b63ffffffff8416908102919091179091556040519081527f6d0851a3fe66369a96f833703a09a7cb561e2eea7bc56bb8f247ac599814150f906020016107af565b6000546001600160a01b03163314610db75760405162461bcd60e51b815260040161057090611701565b6001600160a01b038116610dde5760405163d92e233d60e01b815260040160405180910390fd5b600280546001600160a01b0319166001600160a01b0383169081179091556040519081527fbf9a9534339a9d6b81696e05dcfb614b7dc518a31d48be3cfb757988381fb323906020016107af565b6000546001600160a01b03163314610e565760405162461bcd60e51b815260040161057090611701565b610e5f8161107c565b50565b6001546001600160a01b0316610eba5760405162461bcd60e51b815260206004820152601f60248201527f476f7665726e61626c653a206e6f2070656e64696e6720676f7665726e6f72006044820152606401610570565b60018054600080546001600160a01b03199081166001600160a01b0384161782559091169091556040517fdc57ca23c46d823853915ed5a090ca0ee9db5eb6a46f5c58e1c9158de861fd769190a1565b600154600160a01b900460ff16610f5a5760405162461bcd60e51b815260206004820152601460248201527314185d5cd8589b194e881b9bdd081c185d5cd95960621b6044820152606401610570565b6001805460ff60a01b191690557f5db9ee0a495bf2e6ff9c91a7834c1ba4fdd244a5e8aa4e537bd38aeae4b073aa335b6040516001600160a01b03909116815260200160405180910390a1565b60006109d4825490565b6000610fbd8383611120565b9392505050565b6000610fbd83836111b4565b600154600160a01b900460ff161561101d5760405162461bcd60e51b815260206004820152601060248201526f14185d5cd8589b194e881c185d5cd95960821b6044820152606401610570565b6001805460ff60a01b1916600160a01b1790557f62e78cea01bee320cd4e420270b5ea74000d11b0c9f74754ebdbfc544b05a258610f8a3390565b60008181526001830160205260408120541515610fbd565b6000610fbd83836112cb565b6001600160a01b0381166110d25760405162461bcd60e51b815260206004820152601860248201527f476f7665726e61626c653a207a65726f206164647265737300000000000000006044820152606401610570565b600180546001600160a01b0319166001600160a01b0383169081179091556040519081527f56bddfa0cee9697cebddf9acd7f23dc6583663b05e007b877056d05017994def906020016107af565b8154600090821061117e5760405162461bcd60e51b815260206004820152602260248201527f456e756d657261626c655365743a20696e646578206f7574206f6620626f756e604482015261647360f01b6064820152608401610570565b8260000182815481106111a157634e487b7160e01b600052603260045260246000fd5b9060005260206000200154905092915050565b600081815260018301602052604081205480156112c15760006111d86001836117a8565b85549091506000906111ec906001906117a8565b9050600086600001828154811061121357634e487b7160e01b600052603260045260246000fd5b906000526020600020015490508087600001848154811061124457634e487b7160e01b600052603260045260246000fd5b60009182526020808320909101929092558281526001890190915260409020849055865487908061128557634e487b7160e01b600052603160045260246000fd5b600190038181906000526020600020016000905590558660010160008781526020019081526020016000206000905560019450505050506109d4565b60009150506109d4565b6000818152600183016020526040812054611312575081546001818101845560008481526020808220909301849055845484825282860190935260409020919091556109d4565b5060006109d4565b508054611326906117bf565b6000825580601f10611336575050565b601f016020900490600052602060002090810190610e5f91906113d8565b828054611360906117bf565b90600052602060002090601f01602090048101928261138257600085556113c8565b82601f1061139b5782800160ff198235161785556113c8565b828001600101855582156113c8579182015b828111156113c85782358255916020019190600101906113ad565b506113d49291506113d8565b5090565b5b808211156113d457600081556001016113d9565b60008083601f8401126113fe578182fd5b50813567ffffffffffffffff811115611415578182fd5b6020830191508360208260051b850101111561143057600080fd5b9250929050565b803563ffffffff8116811461144b57600080fd5b919050565b600060208284031215611461578081fd5b8135610fbd8161182b565b6000806020838503121561147e578081fd5b823567ffffffffffffffff811115611494578182fd5b6114a0858286016113ed565b90969095509350505050565b600080600080604085870312156114c1578182fd5b843567ffffffffffffffff808211156114d8578384fd5b6114e4888389016113ed565b909650945060208701359150808211156114fc578384fd5b50611509878288016113ed565b95989497509550505050565b600060208284031215611526578081fd5b610fbd82611437565b81835260006020808501945082825b858110156115675763ffffffff61155483611437565b168752958201959082019060010161153e565b509495945050505050565b81835281816020850137506000828201602090810191909152601f909101601f19169091010190565b6020815260006115af60208301848661152f565b949350505050565b6040815260006115cb60408301868861152f565b602083820381850152818583528183019050818660051b84010187855b8881101561165457858303601f190184528135368b9003601e1901811261160d578788fd5b8a01803567ffffffffffffffff811115611625578889fd5b8036038c1315611633578889fd5b6116408582898501611572565b9587019594505050908401906001016115e8565b50909a9950505050505050505050565b6020808252825182820181905260009190848201906040850190845b818110156116a257835163ffffffff1683529284019291840191600101611680565b50909695505050505050565b6000602080835283518082850152825b818110156116da578581018301518582016040015282016116be565b818111156116eb5783604083870101525b50601f01601f1916929092016040019392505050565b60208082526019908201527f476f7665726e61626c653a206f6e6c7920676f7665726e6f7200000000000000604082015260600190565b6000808335601e1984360301811261174e578283fd5b83018035915067ffffffffffffffff821115611768578283fd5b60200191503681900382131561143057600080fd5b600062ffffff8083168185168183048111821515161561179f5761179f611815565b02949350505050565b6000828210156117ba576117ba611815565b500390565b600181811c908216806117d357607f821691505b602082108114156117f457634e487b7160e01b600052602260045260246000fd5b50919050565b600060001982141561180e5761180e611815565b5060010190565b634e487b7160e01b600052601160045260246000fd5b6001600160a01b0381168114610e5f57600080fdfea2646970667358221220acc0f3b15ca86bb1be3c6bbcb0925e0fccc098e507278bbb38daeee7f037e2f264736f6c63430008040033",
  "devdoc": {
    "kind": "dev",
    "methods": {},
    "version": 1
  },
  "userdoc": {
    "kind": "user",
    "methods": {},
    "version": 1
  },
  "storageLayout": {
    "storage": [
      {
        "astId": 12909,
        "contract": "contracts/DCAGlobalParameters/DCAGlobalParameters.sol:DCAGlobalParameters",
        "label": "_governor",
        "offset": 0,
        "slot": "0",
        "type": "t_address"
      },
      {
        "astId": 12911,
        "contract": "contracts/DCAGlobalParameters/DCAGlobalParameters.sol:DCAGlobalParameters",
        "label": "_pendingGovernor",
        "offset": 0,
        "slot": "1",
        "type": "t_address"
      },
      {
        "astId": 17,
        "contract": "contracts/DCAGlobalParameters/DCAGlobalParameters.sol:DCAGlobalParameters",
        "label": "_paused",
        "offset": 20,
        "slot": "1",
        "type": "t_bool"
      },
      {
        "astId": 4409,
        "contract": "contracts/DCAGlobalParameters/DCAGlobalParameters.sol:DCAGlobalParameters",
        "label": "feeRecipient",
        "offset": 0,
        "slot": "2",
        "type": "t_address"
      },
      {
        "astId": 4413,
        "contract": "contracts/DCAGlobalParameters/DCAGlobalParameters.sol:DCAGlobalParameters",
        "label": "nftDescriptor",
        "offset": 0,
        "slot": "3",
        "type": "t_contract(IDCATokenDescriptor)9262"
      },
      {
        "astId": 4417,
        "contract": "contracts/DCAGlobalParameters/DCAGlobalParameters.sol:DCAGlobalParameters",
        "label": "oracle",
        "offset": 0,
        "slot": "4",
        "type": "t_contract(ITimeWeightedOracle)9323"
      },
      {
        "astId": 4421,
        "contract": "contracts/DCAGlobalParameters/DCAGlobalParameters.sol:DCAGlobalParameters",
        "label": "swapFee",
        "offset": 20,
        "slot": "4",
        "type": "t_uint32"
      },
      {
        "astId": 4425,
        "contract": "contracts/DCAGlobalParameters/DCAGlobalParameters.sol:DCAGlobalParameters",
        "label": "loanFee",
        "offset": 24,
        "slot": "4",
        "type": "t_uint32"
      },
      {
        "astId": 4440,
        "contract": "contracts/DCAGlobalParameters/DCAGlobalParameters.sol:DCAGlobalParameters",
        "label": "intervalDescription",
        "offset": 0,
        "slot": "5",
        "type": "t_mapping(t_uint32,t_string_storage)"
      },
      {
        "astId": 4443,
        "contract": "contracts/DCAGlobalParameters/DCAGlobalParameters.sol:DCAGlobalParameters",
        "label": "_allowedSwapIntervals",
        "offset": 0,
        "slot": "6",
        "type": "t_struct(UintSet)2915_storage"
      }
    ],
    "types": {
      "t_address": {
        "encoding": "inplace",
        "label": "address",
        "numberOfBytes": "20"
      },
      "t_array(t_bytes32)dyn_storage": {
        "base": "t_bytes32",
        "encoding": "dynamic_array",
        "label": "bytes32[]",
        "numberOfBytes": "32"
      },
      "t_bool": {
        "encoding": "inplace",
        "label": "bool",
        "numberOfBytes": "1"
      },
      "t_bytes32": {
        "encoding": "inplace",
        "label": "bytes32",
        "numberOfBytes": "32"
      },
      "t_contract(IDCATokenDescriptor)9262": {
        "encoding": "inplace",
        "label": "contract IDCATokenDescriptor",
        "numberOfBytes": "20"
      },
      "t_contract(ITimeWeightedOracle)9323": {
        "encoding": "inplace",
        "label": "contract ITimeWeightedOracle",
        "numberOfBytes": "20"
      },
      "t_mapping(t_bytes32,t_uint256)": {
        "encoding": "mapping",
        "key": "t_bytes32",
        "label": "mapping(bytes32 => uint256)",
        "numberOfBytes": "32",
        "value": "t_uint256"
      },
      "t_mapping(t_uint32,t_string_storage)": {
        "encoding": "mapping",
        "key": "t_uint32",
        "label": "mapping(uint32 => string)",
        "numberOfBytes": "32",
        "value": "t_string_storage"
      },
      "t_string_storage": {
        "encoding": "bytes",
        "label": "string",
        "numberOfBytes": "32"
      },
      "t_struct(Set)2513_storage": {
        "encoding": "inplace",
        "label": "struct EnumerableSet.Set",
        "members": [
          {
            "astId": 2508,
            "contract": "contracts/DCAGlobalParameters/DCAGlobalParameters.sol:DCAGlobalParameters",
            "label": "_values",
            "offset": 0,
            "slot": "0",
            "type": "t_array(t_bytes32)dyn_storage"
          },
          {
            "astId": 2512,
            "contract": "contracts/DCAGlobalParameters/DCAGlobalParameters.sol:DCAGlobalParameters",
            "label": "_indexes",
            "offset": 0,
            "slot": "1",
            "type": "t_mapping(t_bytes32,t_uint256)"
          }
        ],
        "numberOfBytes": "64"
      },
      "t_struct(UintSet)2915_storage": {
        "encoding": "inplace",
        "label": "struct EnumerableSet.UintSet",
        "members": [
          {
            "astId": 2914,
            "contract": "contracts/DCAGlobalParameters/DCAGlobalParameters.sol:DCAGlobalParameters",
            "label": "_inner",
            "offset": 0,
            "slot": "0",
            "type": "t_struct(Set)2513_storage"
          }
        ],
        "numberOfBytes": "64"
      },
      "t_uint256": {
        "encoding": "inplace",
        "label": "uint256",
        "numberOfBytes": "32"
      },
      "t_uint32": {
        "encoding": "inplace",
        "label": "uint32",
        "numberOfBytes": "4"
      }
    }
  }
}