{
  "address": "0x059d306A25c4cE8D7437D25743a8B94520536BD5",
  "abi": [
    {
      "inputs": [
        {
          "internalType": "address",
          "name": "_immediateGovernor",
          "type": "address"
        },
        {
          "internalType": "address",
          "name": "_timeLockedGovernor",
          "type": "address"
        },
        {
          "internalType": "contract IPriceOracle",
          "name": "_oracle",
          "type": "address"
        },
        {
          "internalType": "contract IDCAPermissionManager",
          "name": "_permissionManager",
          "type": "address"
        }
      ],
      "stateMutability": "nonpayable",
      "type": "constructor"
    },
    {
      "inputs": [],
      "name": "AmountTooBig",
      "type": "error"
    },
    {
      "inputs": [],
      "name": "HighFee",
      "type": "error"
    },
    {
      "inputs": [],
      "name": "HighPlatformFeeRatio",
      "type": "error"
    },
    {
      "inputs": [],
      "name": "IntervalNotAllowed",
      "type": "error"
    },
    {
      "inputs": [],
      "name": "InvalidAllowedTokensInput",
      "type": "error"
    },
    {
      "inputs": [],
      "name": "InvalidFee",
      "type": "error"
    },
    {
      "inputs": [],
      "name": "InvalidInterval",
      "type": "error"
    },
    {
      "inputs": [],
      "name": "InvalidMask",
      "type": "error"
    },
    {
      "inputs": [],
      "name": "InvalidPairs",
      "type": "error"
    },
    {
      "inputs": [],
      "name": "InvalidPosition",
      "type": "error"
    },
    {
      "inputs": [],
      "name": "InvalidToken",
      "type": "error"
    },
    {
      "inputs": [],
      "name": "InvalidTokens",
      "type": "error"
    },
    {
      "inputs": [],
      "name": "LiquidityNotReturned",
      "type": "error"
    },
    {
      "inputs": [],
      "name": "NoSwapsToExecute",
      "type": "error"
    },
    {
      "inputs": [],
      "name": "PositionDoesNotMatchToken",
      "type": "error"
    },
    {
      "inputs": [],
      "name": "UnallowedToken",
      "type": "error"
    },
    {
      "inputs": [],
      "name": "UnauthorizedCaller",
      "type": "error"
    },
    {
      "inputs": [],
      "name": "ZeroAddress",
      "type": "error"
    },
    {
      "inputs": [],
      "name": "ZeroAmount",
      "type": "error"
    },
    {
      "inputs": [],
      "name": "ZeroSwaps",
      "type": "error"
    },
    {
      "anonymous": false,
      "inputs": [
        {
          "indexed": true,
          "internalType": "address",
          "name": "depositor",
          "type": "address"
        },
        {
          "indexed": true,
          "internalType": "address",
          "name": "owner",
          "type": "address"
        },
        {
          "indexed": false,
          "internalType": "uint256",
          "name": "positionId",
          "type": "uint256"
        },
        {
          "indexed": false,
          "internalType": "address",
          "name": "fromToken",
          "type": "address"
        },
        {
          "indexed": false,
          "internalType": "address",
          "name": "toToken",
          "type": "address"
        },
        {
          "indexed": false,
          "internalType": "uint32",
          "name": "swapInterval",
          "type": "uint32"
        },
        {
          "indexed": false,
          "internalType": "uint120",
          "name": "rate",
          "type": "uint120"
        },
        {
          "indexed": false,
          "internalType": "uint32",
          "name": "startingSwap",
          "type": "uint32"
        },
        {
          "indexed": false,
          "internalType": "uint32",
          "name": "lastSwap",
          "type": "uint32"
        },
        {
          "components": [
            {
              "internalType": "address",
              "name": "operator",
              "type": "address"
            },
            {
              "internalType": "enum IDCAPermissionManager.Permission[]",
              "name": "permissions",
              "type": "uint8[]"
            }
          ],
          "indexed": false,
          "internalType": "struct IDCAPermissionManager.PermissionSet[]",
          "name": "permissions",
          "type": "tuple[]"
        }
      ],
      "name": "Deposited",
      "type": "event"
    },
    {
      "anonymous": false,
      "inputs": [
        {
          "indexed": false,
          "internalType": "uint256",
          "name": "positionId",
          "type": "uint256"
        },
        {
          "indexed": false,
          "internalType": "bytes",
          "name": "data",
          "type": "bytes"
        }
      ],
      "name": "Miscellaneous",
      "type": "event"
    },
    {
      "anonymous": false,
      "inputs": [
        {
          "indexed": true,
          "internalType": "address",
          "name": "user",
          "type": "address"
        },
        {
          "indexed": false,
          "internalType": "uint256",
          "name": "positionId",
          "type": "uint256"
        },
        {
          "indexed": false,
          "internalType": "uint120",
          "name": "rate",
          "type": "uint120"
        },
        {
          "indexed": false,
          "internalType": "uint32",
          "name": "startingSwap",
          "type": "uint32"
        },
        {
          "indexed": false,
          "internalType": "uint32",
          "name": "lastSwap",
          "type": "uint32"
        }
      ],
      "name": "Modified",
      "type": "event"
    },
    {
      "anonymous": false,
      "inputs": [
        {
          "indexed": false,
          "internalType": "contract IPriceOracle",
          "name": "_oracle",
          "type": "address"
        }
      ],
      "name": "OracleSet",
      "type": "event"
    },
    {
      "anonymous": false,
      "inputs": [
        {
          "indexed": false,
          "internalType": "address",
          "name": "account",
          "type": "address"
        }
      ],
      "name": "Paused",
      "type": "event"
    },
    {
      "anonymous": false,
      "inputs": [
        {
          "indexed": false,
          "internalType": "uint16",
          "name": "_platformFeeRatio",
          "type": "uint16"
        }
      ],
      "name": "PlatformFeeRatioSet",
      "type": "event"
    },
    {
      "anonymous": false,
      "inputs": [
        {
          "indexed": true,
          "internalType": "bytes32",
          "name": "role",
          "type": "bytes32"
        },
        {
          "indexed": true,
          "internalType": "bytes32",
          "name": "previousAdminRole",
          "type": "bytes32"
        },
        {
          "indexed": true,
          "internalType": "bytes32",
          "name": "newAdminRole",
          "type": "bytes32"
        }
      ],
      "name": "RoleAdminChanged",
      "type": "event"
    },
    {
      "anonymous": false,
      "inputs": [
        {
          "indexed": true,
          "internalType": "bytes32",
          "name": "role",
          "type": "bytes32"
        },
        {
          "indexed": true,
          "internalType": "address",
          "name": "account",
          "type": "address"
        },
        {
          "indexed": true,
          "internalType": "address",
          "name": "sender",
          "type": "address"
        }
      ],
      "name": "RoleGranted",
      "type": "event"
    },
    {
      "anonymous": false,
      "inputs": [
        {
          "indexed": true,
          "internalType": "bytes32",
          "name": "role",
          "type": "bytes32"
        },
        {
          "indexed": true,
          "internalType": "address",
          "name": "account",
          "type": "address"
        },
        {
          "indexed": true,
          "internalType": "address",
          "name": "sender",
          "type": "address"
        }
      ],
      "name": "RoleRevoked",
      "type": "event"
    },
    {
      "anonymous": false,
      "inputs": [
        {
          "indexed": false,
          "internalType": "uint32",
          "name": "_feeSet",
          "type": "uint32"
        }
      ],
      "name": "SwapFeeSet",
      "type": "event"
    },
    {
      "anonymous": false,
      "inputs": [
        {
          "indexed": false,
          "internalType": "uint32[]",
          "name": "_swapIntervals",
          "type": "uint32[]"
        }
      ],
      "name": "SwapIntervalsAllowed",
      "type": "event"
    },
    {
      "anonymous": false,
      "inputs": [
        {
          "indexed": false,
          "internalType": "uint32[]",
          "name": "_swapIntervals",
          "type": "uint32[]"
        }
      ],
      "name": "SwapIntervalsForbidden",
      "type": "event"
    },
    {
      "anonymous": false,
      "inputs": [
        {
          "indexed": true,
          "internalType": "address",
          "name": "sender",
          "type": "address"
        },
        {
          "indexed": true,
          "internalType": "address",
          "name": "rewardRecipient",
          "type": "address"
        },
        {
          "indexed": true,
          "internalType": "address",
          "name": "callbackHandler",
          "type": "address"
        },
        {
          "components": [
            {
              "components": [
                {
                  "internalType": "address",
                  "name": "token",
                  "type": "address"
                },
                {
                  "internalType": "uint256",
                  "name": "reward",
                  "type": "uint256"
                },
                {
                  "internalType": "uint256",
                  "name": "toProvide",
                  "type": "uint256"
                },
                {
                  "internalType": "uint256",
                  "name": "platformFee",
                  "type": "uint256"
                }
              ],
              "internalType": "struct IDCAHubSwapHandler.TokenInSwap[]",
              "name": "tokens",
              "type": "tuple[]"
            },
            {
              "components": [
                {
                  "internalType": "address",
                  "name": "tokenA",
                  "type": "address"
                },
                {
                  "internalType": "address",
                  "name": "tokenB",
                  "type": "address"
                },
                {
                  "internalType": "uint256",
                  "name": "ratioAToB",
                  "type": "uint256"
                },
                {
                  "internalType": "uint256",
                  "name": "ratioBToA",
                  "type": "uint256"
                },
                {
                  "internalType": "bytes1",
                  "name": "intervalsInSwap",
                  "type": "bytes1"
                }
              ],
              "internalType": "struct IDCAHubSwapHandler.PairInSwap[]",
              "name": "pairs",
              "type": "tuple[]"
            }
          ],
          "indexed": false,
          "internalType": "struct IDCAHubSwapHandler.SwapInfo",
          "name": "swapInformation",
          "type": "tuple"
        },
        {
          "indexed": false,
          "internalType": "uint256[]",
          "name": "borrowed",
          "type": "uint256[]"
        },
        {
          "indexed": false,
          "internalType": "uint32",
          "name": "fee",
          "type": "uint32"
        }
      ],
      "name": "Swapped",
      "type": "event"
    },
    {
      "anonymous": false,
      "inputs": [
        {
          "indexed": true,
          "internalType": "address",
          "name": "user",
          "type": "address"
        },
        {
          "indexed": true,
          "internalType": "address",
          "name": "recipientUnswapped",
          "type": "address"
        },
        {
          "indexed": true,
          "internalType": "address",
          "name": "recipientSwapped",
          "type": "address"
        },
        {
          "indexed": false,
          "internalType": "uint256",
          "name": "positionId",
          "type": "uint256"
        },
        {
          "indexed": false,
          "internalType": "uint256",
          "name": "returnedUnswapped",
          "type": "uint256"
        },
        {
          "indexed": false,
          "internalType": "uint256",
          "name": "returnedSwapped",
          "type": "uint256"
        }
      ],
      "name": "Terminated",
      "type": "event"
    },
    {
      "anonymous": false,
      "inputs": [
        {
          "indexed": false,
          "internalType": "address[]",
          "name": "_tokens",
          "type": "address[]"
        },
        {
          "indexed": false,
          "internalType": "bool[]",
          "name": "_allowed",
          "type": "bool[]"
        }
      ],
      "name": "TokensAllowedUpdated",
      "type": "event"
    },
    {
      "anonymous": false,
      "inputs": [
        {
          "indexed": false,
          "internalType": "address",
          "name": "account",
          "type": "address"
        }
      ],
      "name": "Unpaused",
      "type": "event"
    },
    {
      "anonymous": false,
      "inputs": [
        {
          "indexed": true,
          "internalType": "address",
          "name": "withdrawer",
          "type": "address"
        },
        {
          "indexed": true,
          "internalType": "address",
          "name": "recipient",
          "type": "address"
        },
        {
          "indexed": false,
          "internalType": "uint256",
          "name": "positionId",
          "type": "uint256"
        },
        {
          "indexed": false,
          "internalType": "address",
          "name": "token",
          "type": "address"
        },
        {
          "indexed": false,
          "internalType": "uint256",
          "name": "amount",
          "type": "uint256"
        }
      ],
      "name": "Withdrew",
      "type": "event"
    },
    {
      "anonymous": false,
      "inputs": [
        {
          "indexed": true,
          "internalType": "address",
          "name": "sender",
          "type": "address"
        },
        {
          "indexed": true,
          "internalType": "address",
          "name": "recipient",
          "type": "address"
        },
        {
          "components": [
            {
              "internalType": "address",
              "name": "token",
              "type": "address"
            },
            {
              "internalType": "uint256",
              "name": "amount",
              "type": "uint256"
            }
          ],
          "indexed": false,
          "internalType": "struct IDCAHub.AmountOfToken[]",
          "name": "amounts",
          "type": "tuple[]"
        }
      ],
      "name": "WithdrewFromPlatform",
      "type": "event"
    },
    {
      "anonymous": false,
      "inputs": [
        {
          "indexed": true,
          "internalType": "address",
          "name": "withdrawer",
          "type": "address"
        },
        {
          "indexed": true,
          "internalType": "address",
          "name": "recipient",
          "type": "address"
        },
        {
          "components": [
            {
              "internalType": "address",
              "name": "token",
              "type": "address"
            },
            {
              "internalType": "uint256[]",
              "name": "positionIds",
              "type": "uint256[]"
            }
          ],
          "indexed": false,
          "internalType": "struct IDCAHubPositionHandler.PositionSet[]",
          "name": "positions",
          "type": "tuple[]"
        },
        {
          "indexed": false,
          "internalType": "uint256[]",
          "name": "withdrew",
          "type": "uint256[]"
        }
      ],
      "name": "WithdrewMany",
      "type": "event"
    },
    {
      "inputs": [],
      "name": "DEFAULT_ADMIN_ROLE",
      "outputs": [
        {
          "internalType": "bytes32",
          "name": "",
          "type": "bytes32"
        }
      ],
      "stateMutability": "view",
      "type": "function"
    },
    {
      "inputs": [],
      "name": "IMMEDIATE_ROLE",
      "outputs": [
        {
          "internalType": "bytes32",
          "name": "",
          "type": "bytes32"
        }
      ],
      "stateMutability": "view",
      "type": "function"
    },
    {
      "inputs": [],
      "name": "MAX_FEE",
      "outputs": [
        {
          "internalType": "uint32",
          "name": "",
          "type": "uint32"
        }
      ],
      "stateMutability": "view",
      "type": "function"
    },
    {
      "inputs": [],
      "name": "MAX_PLATFORM_FEE_RATIO",
      "outputs": [
        {
          "internalType": "uint16",
          "name": "",
          "type": "uint16"
        }
      ],
      "stateMutability": "view",
      "type": "function"
    },
    {
      "inputs": [],
      "name": "PLATFORM_WITHDRAW_ROLE",
      "outputs": [
        {
          "internalType": "bytes32",
          "name": "",
          "type": "bytes32"
        }
      ],
      "stateMutability": "view",
      "type": "function"
    },
    {
      "inputs": [],
      "name": "TIME_LOCKED_ROLE",
      "outputs": [
        {
          "internalType": "bytes32",
          "name": "",
          "type": "bytes32"
        }
      ],
      "stateMutability": "view",
      "type": "function"
    },
    {
      "inputs": [
        {
          "internalType": "address",
          "name": "_tokenA",
          "type": "address"
        },
        {
          "internalType": "address",
          "name": "_tokenB",
          "type": "address"
        },
        {
          "internalType": "bytes1",
          "name": "_swapIntervalMask",
          "type": "bytes1"
        },
        {
          "internalType": "uint32",
          "name": "_swapNumber",
          "type": "uint32"
        }
      ],
      "name": "accumRatio",
      "outputs": [
        {
          "components": [
            {
              "internalType": "uint256",
              "name": "accumRatioAToB",
              "type": "uint256"
            },
            {
              "internalType": "uint256",
              "name": "accumRatioBToA",
              "type": "uint256"
            }
          ],
          "internalType": "struct IDCAHubParameters.AccumRatio",
          "name": "",
          "type": "tuple"
        }
      ],
      "stateMutability": "view",
      "type": "function"
    },
    {
      "inputs": [
        {
          "internalType": "address",
          "name": "",
          "type": "address"
        },
        {
          "internalType": "address",
          "name": "",
          "type": "address"
        }
      ],
      "name": "activeSwapIntervals",
      "outputs": [
        {
          "internalType": "bytes1",
          "name": "",
          "type": "bytes1"
        }
      ],
      "stateMutability": "view",
      "type": "function"
    },
    {
      "inputs": [
        {
          "internalType": "uint32[]",
          "name": "_swapIntervals",
          "type": "uint32[]"
        }
      ],
      "name": "addSwapIntervalsToAllowedList",
      "outputs": [],
      "stateMutability": "nonpayable",
      "type": "function"
    },
    {
      "inputs": [],
      "name": "allowedSwapIntervals",
      "outputs": [
        {
          "internalType": "bytes1",
          "name": "",
          "type": "bytes1"
        }
      ],
      "stateMutability": "view",
      "type": "function"
    },
    {
      "inputs": [
        {
          "internalType": "address",
          "name": "",
          "type": "address"
        }
      ],
      "name": "allowedTokens",
      "outputs": [
        {
          "internalType": "bool",
          "name": "",
          "type": "bool"
        }
      ],
      "stateMutability": "view",
      "type": "function"
    },
    {
      "inputs": [
        {
          "internalType": "address",
          "name": "_from",
          "type": "address"
        },
        {
          "internalType": "address",
          "name": "_to",
          "type": "address"
        },
        {
          "internalType": "uint256",
          "name": "_amount",
          "type": "uint256"
        },
        {
          "internalType": "uint32",
          "name": "_amountOfSwaps",
          "type": "uint32"
        },
        {
          "internalType": "uint32",
          "name": "_swapInterval",
          "type": "uint32"
        },
        {
          "internalType": "address",
          "name": "_owner",
          "type": "address"
        },
        {
          "components": [
            {
              "internalType": "address",
              "name": "operator",
              "type": "address"
            },
            {
              "internalType": "enum IDCAPermissionManager.Permission[]",
              "name": "permissions",
              "type": "uint8[]"
            }
          ],
          "internalType": "struct IDCAPermissionManager.PermissionSet[]",
          "name": "_permissions",
          "type": "tuple[]"
        }
      ],
      "name": "deposit",
      "outputs": [
        {
          "internalType": "uint256",
          "name": "",
          "type": "uint256"
        }
      ],
      "stateMutability": "nonpayable",
      "type": "function"
    },
    {
      "inputs": [
        {
          "internalType": "address",
          "name": "_from",
          "type": "address"
        },
        {
          "internalType": "address",
          "name": "_to",
          "type": "address"
        },
        {
          "internalType": "uint256",
          "name": "_amount",
          "type": "uint256"
        },
        {
          "internalType": "uint32",
          "name": "_amountOfSwaps",
          "type": "uint32"
        },
        {
          "internalType": "uint32",
          "name": "_swapInterval",
          "type": "uint32"
        },
        {
          "internalType": "address",
          "name": "_owner",
          "type": "address"
        },
        {
          "components": [
            {
              "internalType": "address",
              "name": "operator",
              "type": "address"
            },
            {
              "internalType": "enum IDCAPermissionManager.Permission[]",
              "name": "permissions",
              "type": "uint8[]"
            }
          ],
          "internalType": "struct IDCAPermissionManager.PermissionSet[]",
          "name": "_permissions",
          "type": "tuple[]"
        },
        {
          "internalType": "bytes",
          "name": "_miscellaneous",
          "type": "bytes"
        }
      ],
      "name": "deposit",
      "outputs": [
        {
          "internalType": "uint256",
          "name": "_positionId",
          "type": "uint256"
        }
      ],
      "stateMutability": "nonpayable",
      "type": "function"
    },
    {
      "inputs": [
        {
          "internalType": "address[]",
          "name": "_tokens",
          "type": "address[]"
        },
        {
          "components": [
            {
              "internalType": "uint8",
              "name": "indexTokenA",
              "type": "uint8"
            },
            {
              "internalType": "uint8",
              "name": "indexTokenB",
              "type": "uint8"
            }
          ],
          "internalType": "struct IDCAHubSwapHandler.PairIndexes[]",
          "name": "_pairs",
          "type": "tuple[]"
        }
      ],
      "name": "getNextSwapInfo",
      "outputs": [
        {
          "components": [
            {
              "components": [
                {
                  "internalType": "address",
                  "name": "token",
                  "type": "address"
                },
                {
                  "internalType": "uint256",
                  "name": "reward",
                  "type": "uint256"
                },
                {
                  "internalType": "uint256",
                  "name": "toProvide",
                  "type": "uint256"
                },
                {
                  "internalType": "uint256",
                  "name": "platformFee",
                  "type": "uint256"
                }
              ],
              "internalType": "struct IDCAHubSwapHandler.TokenInSwap[]",
              "name": "tokens",
              "type": "tuple[]"
            },
            {
              "components": [
                {
                  "internalType": "address",
                  "name": "tokenA",
                  "type": "address"
                },
                {
                  "internalType": "address",
                  "name": "tokenB",
                  "type": "address"
                },
                {
                  "internalType": "uint256",
                  "name": "ratioAToB",
                  "type": "uint256"
                },
                {
                  "internalType": "uint256",
                  "name": "ratioBToA",
                  "type": "uint256"
                },
                {
                  "internalType": "bytes1",
                  "name": "intervalsInSwap",
                  "type": "bytes1"
                }
              ],
              "internalType": "struct IDCAHubSwapHandler.PairInSwap[]",
              "name": "pairs",
              "type": "tuple[]"
            }
          ],
          "internalType": "struct IDCAHubSwapHandler.SwapInfo",
          "name": "_swapInformation",
          "type": "tuple"
        }
      ],
      "stateMutability": "view",
      "type": "function"
    },
    {
      "inputs": [
        {
          "internalType": "bytes32",
          "name": "role",
          "type": "bytes32"
        }
      ],
      "name": "getRoleAdmin",
      "outputs": [
        {
          "internalType": "bytes32",
          "name": "",
          "type": "bytes32"
        }
      ],
      "stateMutability": "view",
      "type": "function"
    },
    {
      "inputs": [
        {
          "internalType": "bytes32",
          "name": "role",
          "type": "bytes32"
        },
        {
          "internalType": "address",
          "name": "account",
          "type": "address"
        }
      ],
      "name": "grantRole",
      "outputs": [],
      "stateMutability": "nonpayable",
      "type": "function"
    },
    {
      "inputs": [
        {
          "internalType": "bytes32",
          "name": "role",
          "type": "bytes32"
        },
        {
          "internalType": "address",
          "name": "account",
          "type": "address"
        }
      ],
      "name": "hasRole",
      "outputs": [
        {
          "internalType": "bool",
          "name": "",
          "type": "bool"
        }
      ],
      "stateMutability": "view",
      "type": "function"
    },
    {
      "inputs": [
        {
          "internalType": "uint256",
          "name": "_positionId",
          "type": "uint256"
        },
        {
          "internalType": "uint256",
          "name": "_amount",
          "type": "uint256"
        },
        {
          "internalType": "uint32",
          "name": "_newAmountOfSwaps",
          "type": "uint32"
        }
      ],
      "name": "increasePosition",
      "outputs": [],
      "stateMutability": "nonpayable",
      "type": "function"
    },
    {
      "inputs": [],
      "name": "oracle",
      "outputs": [
        {
          "internalType": "contract IPriceOracle",
          "name": "",
          "type": "address"
        }
      ],
      "stateMutability": "view",
      "type": "function"
    },
    {
      "inputs": [],
      "name": "pause",
      "outputs": [],
      "stateMutability": "nonpayable",
      "type": "function"
    },
    {
      "inputs": [],
      "name": "paused",
      "outputs": [
        {
          "internalType": "bool",
          "name": "",
          "type": "bool"
        }
      ],
      "stateMutability": "view",
      "type": "function"
    },
    {
      "inputs": [],
      "name": "permissionManager",
      "outputs": [
        {
          "internalType": "contract IDCAPermissionManager",
          "name": "",
          "type": "address"
        }
      ],
      "stateMutability": "view",
      "type": "function"
    },
    {
      "inputs": [
        {
          "internalType": "address",
          "name": "",
          "type": "address"
        }
      ],
      "name": "platformBalance",
      "outputs": [
        {
          "internalType": "uint256",
          "name": "",
          "type": "uint256"
        }
      ],
      "stateMutability": "view",
      "type": "function"
    },
    {
      "inputs": [],
      "name": "platformFeeRatio",
      "outputs": [
        {
          "internalType": "uint16",
          "name": "",
          "type": "uint16"
        }
      ],
      "stateMutability": "view",
      "type": "function"
    },
    {
      "inputs": [
        {
          "internalType": "uint256",
          "name": "_positionId",
          "type": "uint256"
        },
        {
          "internalType": "uint256",
          "name": "_amount",
          "type": "uint256"
        },
        {
          "internalType": "uint32",
          "name": "_newAmountOfSwaps",
          "type": "uint32"
        },
        {
          "internalType": "address",
          "name": "_recipient",
          "type": "address"
        }
      ],
      "name": "reducePosition",
      "outputs": [],
      "stateMutability": "nonpayable",
      "type": "function"
    },
    {
      "inputs": [
        {
          "internalType": "uint32[]",
          "name": "_swapIntervals",
          "type": "uint32[]"
        }
      ],
      "name": "removeSwapIntervalsFromAllowedList",
      "outputs": [],
      "stateMutability": "nonpayable",
      "type": "function"
    },
    {
      "inputs": [
        {
          "internalType": "bytes32",
          "name": "role",
          "type": "bytes32"
        },
        {
          "internalType": "address",
          "name": "account",
          "type": "address"
        }
      ],
      "name": "renounceRole",
      "outputs": [],
      "stateMutability": "nonpayable",
      "type": "function"
    },
    {
      "inputs": [
        {
          "internalType": "bytes32",
          "name": "role",
          "type": "bytes32"
        },
        {
          "internalType": "address",
          "name": "account",
          "type": "address"
        }
      ],
      "name": "revokeRole",
      "outputs": [],
      "stateMutability": "nonpayable",
      "type": "function"
    },
    {
      "inputs": [
        {
          "internalType": "address[]",
          "name": "_tokens",
          "type": "address[]"
        },
        {
          "internalType": "bool[]",
          "name": "_allowed",
          "type": "bool[]"
        }
      ],
      "name": "setAllowedTokens",
      "outputs": [],
      "stateMutability": "nonpayable",
      "type": "function"
    },
    {
      "inputs": [
        {
          "internalType": "contract IPriceOracle",
          "name": "_oracle",
          "type": "address"
        }
      ],
      "name": "setOracle",
      "outputs": [],
      "stateMutability": "nonpayable",
      "type": "function"
    },
    {
      "inputs": [
        {
          "internalType": "uint16",
          "name": "_platformFeeRatio",
          "type": "uint16"
        }
      ],
      "name": "setPlatformFeeRatio",
      "outputs": [],
      "stateMutability": "nonpayable",
      "type": "function"
    },
    {
      "inputs": [
        {
          "internalType": "uint32",
          "name": "_swapFee",
          "type": "uint32"
        }
      ],
      "name": "setSwapFee",
      "outputs": [],
      "stateMutability": "nonpayable",
      "type": "function"
    },
    {
      "inputs": [
        {
          "internalType": "bytes4",
          "name": "interfaceId",
          "type": "bytes4"
        }
      ],
      "name": "supportsInterface",
      "outputs": [
        {
          "internalType": "bool",
          "name": "",
          "type": "bool"
        }
      ],
      "stateMutability": "view",
      "type": "function"
    },
    {
      "inputs": [
        {
          "internalType": "address[]",
          "name": "_tokens",
          "type": "address[]"
        },
        {
          "components": [
            {
              "internalType": "uint8",
              "name": "indexTokenA",
              "type": "uint8"
            },
            {
              "internalType": "uint8",
              "name": "indexTokenB",
              "type": "uint8"
            }
          ],
          "internalType": "struct IDCAHubSwapHandler.PairIndexes[]",
          "name": "_pairsToSwap",
          "type": "tuple[]"
        },
        {
          "internalType": "address",
          "name": "_rewardRecipient",
          "type": "address"
        },
        {
          "internalType": "address",
          "name": "_callbackHandler",
          "type": "address"
        },
        {
          "internalType": "uint256[]",
          "name": "_borrow",
          "type": "uint256[]"
        },
        {
          "internalType": "bytes",
          "name": "_data",
          "type": "bytes"
        }
      ],
      "name": "swap",
      "outputs": [
        {
          "components": [
            {
              "components": [
                {
                  "internalType": "address",
                  "name": "token",
                  "type": "address"
                },
                {
                  "internalType": "uint256",
                  "name": "reward",
                  "type": "uint256"
                },
                {
                  "internalType": "uint256",
                  "name": "toProvide",
                  "type": "uint256"
                },
                {
                  "internalType": "uint256",
                  "name": "platformFee",
                  "type": "uint256"
                }
              ],
              "internalType": "struct IDCAHubSwapHandler.TokenInSwap[]",
              "name": "tokens",
              "type": "tuple[]"
            },
            {
              "components": [
                {
                  "internalType": "address",
                  "name": "tokenA",
                  "type": "address"
                },
                {
                  "internalType": "address",
                  "name": "tokenB",
                  "type": "address"
                },
                {
                  "internalType": "uint256",
                  "name": "ratioAToB",
                  "type": "uint256"
                },
                {
                  "internalType": "uint256",
                  "name": "ratioBToA",
                  "type": "uint256"
                },
                {
                  "internalType": "bytes1",
                  "name": "intervalsInSwap",
                  "type": "bytes1"
                }
              ],
              "internalType": "struct IDCAHubSwapHandler.PairInSwap[]",
              "name": "pairs",
              "type": "tuple[]"
            }
          ],
          "internalType": "struct IDCAHubSwapHandler.SwapInfo",
          "name": "_swapInformation",
          "type": "tuple"
        }
      ],
      "stateMutability": "nonpayable",
      "type": "function"
    },
    {
      "inputs": [
        {
          "internalType": "address",
          "name": "_tokenA",
          "type": "address"
        },
        {
          "internalType": "address",
          "name": "_tokenB",
          "type": "address"
        },
        {
          "internalType": "bytes1",
          "name": "_swapIntervalMask",
          "type": "bytes1"
        },
        {
          "internalType": "uint32",
          "name": "_swapNumber",
          "type": "uint32"
        }
      ],
      "name": "swapAmountDelta",
      "outputs": [
        {
          "components": [
            {
              "internalType": "uint128",
              "name": "swapDeltaAToB",
              "type": "uint128"
            },
            {
              "internalType": "uint128",
              "name": "swapDeltaBToA",
              "type": "uint128"
            }
          ],
          "internalType": "struct IDCAHubParameters.SwapDelta",
          "name": "",
          "type": "tuple"
        }
      ],
      "stateMutability": "view",
      "type": "function"
    },
    {
      "inputs": [
        {
          "internalType": "address",
          "name": "_tokenA",
          "type": "address"
        },
        {
          "internalType": "address",
          "name": "_tokenB",
          "type": "address"
        },
        {
          "internalType": "bytes1",
          "name": "_swapIntervalMask",
          "type": "bytes1"
        }
      ],
      "name": "swapData",
      "outputs": [
        {
          "components": [
            {
              "internalType": "uint32",
              "name": "performedSwaps",
              "type": "uint32"
            },
            {
              "internalType": "uint224",
              "name": "nextAmountToSwapAToB",
              "type": "uint224"
            },
            {
              "internalType": "uint32",
              "name": "lastSwappedAt",
              "type": "uint32"
            },
            {
              "internalType": "uint224",
              "name": "nextAmountToSwapBToA",
              "type": "uint224"
            }
          ],
          "internalType": "struct IDCAHubParameters.SwapData",
          "name": "",
          "type": "tuple"
        }
      ],
      "stateMutability": "view",
      "type": "function"
    },
    {
      "inputs": [],
      "name": "swapFee",
      "outputs": [
        {
          "internalType": "uint32",
          "name": "",
          "type": "uint32"
        }
      ],
      "stateMutability": "view",
      "type": "function"
    },
    {
      "inputs": [
        {
          "internalType": "uint256",
          "name": "_positionId",
          "type": "uint256"
        },
        {
          "internalType": "address",
          "name": "_recipientUnswapped",
          "type": "address"
        },
        {
          "internalType": "address",
          "name": "_recipientSwapped",
          "type": "address"
        }
      ],
      "name": "terminate",
      "outputs": [
        {
          "internalType": "uint256",
          "name": "_unswapped",
          "type": "uint256"
        },
        {
          "internalType": "uint256",
          "name": "_swapped",
          "type": "uint256"
        }
      ],
      "stateMutability": "nonpayable",
      "type": "function"
    },
    {
      "inputs": [
        {
          "internalType": "address",
          "name": "",
          "type": "address"
        }
      ],
      "name": "tokenMagnitude",
      "outputs": [
        {
          "internalType": "uint120",
          "name": "",
          "type": "uint120"
        }
      ],
      "stateMutability": "view",
      "type": "function"
    },
    {
      "inputs": [],
      "name": "totalCreatedPositions",
      "outputs": [
        {
          "internalType": "uint256",
          "name": "",
          "type": "uint256"
        }
      ],
      "stateMutability": "view",
      "type": "function"
    },
    {
      "inputs": [],
      "name": "unpause",
      "outputs": [],
      "stateMutability": "nonpayable",
      "type": "function"
    },
    {
      "inputs": [
        {
          "internalType": "uint256",
          "name": "_positionId",
          "type": "uint256"
        }
      ],
      "name": "userPosition",
      "outputs": [
        {
          "components": [
            {
              "internalType": "contract IERC20Metadata",
              "name": "from",
              "type": "address"
            },
            {
              "internalType": "contract IERC20Metadata",
              "name": "to",
              "type": "address"
            },
            {
              "internalType": "uint32",
              "name": "swapInterval",
              "type": "uint32"
            },
            {
              "internalType": "uint32",
              "name": "swapsExecuted",
              "type": "uint32"
            },
            {
              "internalType": "uint256",
              "name": "swapped",
              "type": "uint256"
            },
            {
              "internalType": "uint32",
              "name": "swapsLeft",
              "type": "uint32"
            },
            {
              "internalType": "uint256",
              "name": "remaining",
              "type": "uint256"
            },
            {
              "internalType": "uint120",
              "name": "rate",
              "type": "uint120"
            }
          ],
          "internalType": "struct IDCAHubPositionHandler.UserPosition",
          "name": "_userPosition",
          "type": "tuple"
        }
      ],
      "stateMutability": "view",
      "type": "function"
    },
    {
      "inputs": [
        {
          "components": [
            {
              "internalType": "address",
              "name": "token",
              "type": "address"
            },
            {
              "internalType": "uint256",
              "name": "amount",
              "type": "uint256"
            }
          ],
          "internalType": "struct IDCAHub.AmountOfToken[]",
          "name": "_amounts",
          "type": "tuple[]"
        },
        {
          "internalType": "address",
          "name": "_recipient",
          "type": "address"
        }
      ],
      "name": "withdrawFromPlatformBalance",
      "outputs": [],
      "stateMutability": "nonpayable",
      "type": "function"
    },
    {
      "inputs": [
        {
          "internalType": "uint256",
          "name": "_positionId",
          "type": "uint256"
        },
        {
          "internalType": "address",
          "name": "_recipient",
          "type": "address"
        }
      ],
      "name": "withdrawSwapped",
      "outputs": [
        {
          "internalType": "uint256",
          "name": "",
          "type": "uint256"
        }
      ],
      "stateMutability": "nonpayable",
      "type": "function"
    },
    {
      "inputs": [
        {
          "components": [
            {
              "internalType": "address",
              "name": "token",
              "type": "address"
            },
            {
              "internalType": "uint256[]",
              "name": "positionIds",
              "type": "uint256[]"
            }
          ],
          "internalType": "struct IDCAHubPositionHandler.PositionSet[]",
          "name": "_positions",
          "type": "tuple[]"
        },
        {
          "internalType": "address",
          "name": "_recipient",
          "type": "address"
        }
      ],
      "name": "withdrawSwappedMany",
      "outputs": [
        {
          "internalType": "uint256[]",
          "name": "_swapped",
          "type": "uint256[]"
        }
      ],
      "stateMutability": "nonpayable",
      "type": "function"
    }
  ],
  "transactionHash": "0x506785e32c9b5100bc4c37416a310c037a5b50fb4e1941d1d1178ac31ecdb052",
  "args": [
    "0x308810881807189cAe91950888b2cB73A1CC5920",
    "0xDDC4A17B23E5e14aa4ceE71E8a414c3bdC55e12a",
    "0x4b0C54236B86f41C5e5A5dc5d020f832692ff06d",
    "0x6f54391fE0386D506b51d69Deeb8b04E0544E088"
  ],
  "numDeployments": 1,
  "bytecode": "0x60806040527f313f8c5ec4103e5607b5d8b3519ab06a512037396eaf72a07527d8b838012ed46008557ffb63867dc303889c4e19b6276d834e066500dd4210f4434d34089a246beec82a6009557f73c06b41830ea810d4e9dd3dfb0309555fbff1642391fb7644bc4a0b0f7a77fd600a55600b805466ffffffffffffff60a01b1916659c4f0000017760a41b1790553480156200009b57600080fd5b506040516200636c3803806200636c833981016040819052620000be916200030c565b60016000556007805460ff19169055808484846001600160a01b0383161580620000ef57506001600160a01b038216155b806200010257506001600160a01b038116155b15620001215760405163d92e233d60e01b815260040160405180910390fd5b600854620001309084620001cc565b6009546200013f9083620001cc565b62000155600a54600854620001dc60201b60201c565b600854620001649080620001dc565b600954620001739080620001dc565b600b80546001600160a01b0319166001600160a01b039290921691909117905550620001a190508162000227565b600e80546001600160a01b0319166001600160a01b0392909216919091179055506200037492505050565b620001d8828262000252565b5050565b600082815260066020526040808220600101805490849055905190918391839186917fbd79b86ffe0ab8e8776151514217cd7cacd52c909f66475c3af44e129f0b00ff9190a4505050565b6001600160a01b0381166200024f5760405163d92e233d60e01b815260040160405180910390fd5b50565b60008281526006602090815260408083206001600160a01b038516845290915290205460ff16620001d85760008281526006602090815260408083206001600160a01b03851684529091529020805460ff19166001179055620002b23390565b6001600160a01b0316816001600160a01b0316837f2f8788117e7eff1d82e926ec794901d17c78024a50270940304540a733656f0d60405160405180910390a45050565b6001600160a01b03811681146200024f57600080fd5b600080600080608085870312156200032357600080fd5b84516200033081620002f6565b60208601519094506200034381620002f6565b60408601519093506200035681620002f6565b60608601519092506200036981620002f6565b939692955090935050565b615fe880620003846000396000f3fe608060405234801561001057600080fd5b50600436106102cf5760003560e01c80636b29e1bd1161018c578063a217fddf116100ee578063d547741f11610097578063e744092e11610071578063e744092e14610772578063f1accf3914610795578063fc448158146107a857600080fd5b8063d547741f14610739578063d6d788c31461074c578063ded700a61461075f57600080fd5b8063c67e32e9116100c8578063c67e32e9146106f3578063cc7a204914610713578063d2d95b2d1461072657600080fd5b8063a217fddf146106ce578063b2b513c1146106d6578063bc063e1a146106e957600080fd5b80637d361dd311610150578063808ba8e01161012a578063808ba8e01461062c5780638456cb591461068d57806391d148541461069557600080fd5b80637d361dd3146105e55780637d8e8603146105ee5780637dc0d1d01461060157600080fd5b80636b29e1bd146105715780636eefd1341461058457806372ada4c51461059757806374ae623b146105bf5780637adbf973146105d257600080fd5b80633feb14931161023557806354cf2aeb116101f9578063582cf84b116101d3578063582cf84b1461051b5780635b6fd01d146105495780635c975abb1461056957600080fd5b806354cf2aeb146104c7578063560c6499146104f357806357ae1cec1461050657600080fd5b80633feb149314610424578063480b379614610437578063480e5da1146104575780634aa91aee146104845780634eeeb3eb146104be57600080fd5b8063248a9ca31161029757806336568abe1161027157806336568abe1461040057806336639580146104135780633f4ba83a1461041c57600080fd5b8063248a9ca3146103a85780632a2a1a74146103cb5780632f2ff15d146103eb57600080fd5b806301ffc9a7146102d45780630b1aa984146102fc57806316cd7af81461032a578063176218901461036b5780631b8b8c341461038c575b600080fd5b6102e76102e2366004614b71565b6107b1565b60405190151581526020015b60405180910390f35b61030f61030a366004614bec565b6107e8565b604080518251815260209283015192810192909252016102f3565b610353610338366004614c44565b600d602052600090815260409020546001600160781b031681565b6040516001600160781b0390911681526020016102f3565b61037e610379366004614c61565b610872565b6040519081526020016102f3565b61039561271081565b60405161ffff90911681526020016102f3565b61037e6103b6366004614c91565b60009081526006602052604090206001015490565b6103de6103d9366004614d73565b610925565b6040516102f39190614f4e565b6103fe6103f9366004614c61565b610e47565b005b6103fe61040e366004614c61565b610e72565b61037e60115481565b6103fe610ef0565b6103fe610432366004614f61565b610f08565b61044a610445366004614fa2565b610fc8565b6040516102f39190615033565b600b5461046b90600160c01b900460f81b81565b6040516001600160f81b031990911681526020016102f3565b610497610492366004614bec565b61121b565b6040805182516001600160801b0390811682526020938401511692810192909252016102f3565b61037e60095481565b600b546104de90600160a01b900463ffffffff1681565b60405163ffffffff90911681526020016102f3565b6103fe610501366004615046565b6112b6565b600b5461039590600160c81b900461ffff1681565b61046b61052936600461507d565b600160209081526000928352604080842090915290825290205460f81b81565b61055c610557366004614c91565b61142a565b6040516102f391906150ab565b6102e76115e8565b61037e61057f366004615130565b6115f7565b6103fe6105923660046151d5565b6119d7565b6105aa6105a53660046151f9565b611a63565b604080519283526020830191909152016102f3565b6103fe6105cd366004615230565b611cbf565b6103fe6105e0366004614c44565b611f1e565b61037e60085481565b6103fe6105fc366004614f61565b611f8f565b600b54610614906001600160a01b031681565b6040516001600160a01b0390911681526020016102f3565b61063f61063a36600461529b565b612029565b60408051825163ffffffff90811682526020808501516001600160e01b03908116918401919091528484015190911692820192909252606092830151909116918101919091526080016102f3565b6103fe6120e5565b6102e76106a3366004614c61565b60009182526006602090815260408084206001600160a01b0393909316845291905290205460ff1690565b61037e600081565b61037e6106e43660046152e2565b6120fa565b6104de620186a081565b61037e610701366004614c44565b60026020526000908152604090205481565b600e54610614906001600160a01b031681565b6103de610734366004615391565b61215e565b6103fe610747366004614c61565b612923565b6103fe61075a3660046153f0565b612949565b6103fe61076d36600461540b565b6129b3565b6102e7610780366004614c44565b600c6020526000908152604090205460ff1681565b6103fe6107a3366004615437565b612a39565b61037e600a5481565b60006001600160e01b03198216637965db0b60e01b14806107e257506301ffc9a760e01b6001600160e01b03198316145b92915050565b60408051808201909152600080825260208201526000806108098787612a80565b6001600160a01b0391821660009081526004602090815260408083209390941682529182528281206001600160f81b031989168252825282812063ffffffff8816825282528290208251808401909352805483526001015490820152925050505b949350505050565b600060026000540361089f5760405162461bcd60e51b81526004016108969061547f565b60405180910390fd5b60026000556108ad82612ab1565b6000806108b985612ad8565b915091506108c8818584612be8565b604080518681526001600160a01b0383811660208301529181018490529085169033907fcade65431cead780eb2b14b84a6594e1b235278a02e31abf3fc04c7c3e8ab4ee9060600160405180910390a35060016000559392505050565b604080518082019091526060808252602082015260026000540361095b5760405162461bcd60e51b81526004016108969061547f565b60026000556109686115e8565b156109a85760405162461bcd60e51b815260206004820152601060248201526f14185d5cd8589b194e881c185d5cd95960821b6044820152606401610896565b600b54600160a01b900463ffffffff166109c48c8c8c8c61215e565b9150426000805b846020015151811015610ab1576000856020015182815181106109f0576109f06154b6565b60209081029190910101516080810151909150600160f81b5b6001600160f81b031980821690831610801590610a2f57506001600160f81b0319811615155b15610a84576001600160f81b03198282161615610a7657610a768360000151846020015183610a628b8860400151612bfc565b610a708c8960600151612bfc565b8b612c25565b60011b607f60f91b16610a09565b8480610a9957506001600160f81b0319821615155b94505050508080610aa9906154e2565b9150506109cb565b5080610ad0576040516346f8d7b160e11b815260040160405180910390fd5b50508151516000906001600160401b03811115610aef57610aef6154fb565b604051908082528060200260200182016040528015610b18578160200160208202803683370190505b50905060005b835151811015610c3457600084600001518281518110610b4057610b406154b6565b602002602001015190506000898984818110610b5e57610b5e6154b6565b905060200201359050600082604001511180610b7a5750600081115b15610ba9578151610b8a90612fdb565b848481518110610b9c57610b9c6154b6565b6020026020010181815250505b8a6001600160a01b03168c6001600160a01b031603610bef576000818360200151610bd49190615511565b90508015610be9578251610be9908d83612be8565b50610c1f565b602082015115610c0c57610c0c82600001518d8460200151612be8565b8015610c1f578151610c1f908c83612be8565b50508080610c2c906154e2565b915050610b1e565b508251604051632c0be4cf60e11b81526001600160a01b038a1691635817c99e91610c6b9133918c908c908c908c90600401615588565b600060405180830381600087803b158015610c8557600080fd5b505af1158015610c99573d6000803e3d6000fd5b5050505060005b835151811015610dd657600084600001518281518110610cc257610cc26154b6565b60200260200101519050600081606001519050600082604001511180610d00575060008a8a85818110610cf757610cf76154b6565b90506020020135115b15610d8c57600082602001518360400151868681518110610d2357610d236154b6565b6020026020010151610d359190615511565b610d3f9190615636565b90506000610d508460000151612fdb565b905081811015610d735760405163d562e29f60e01b815260040160405180910390fd5b610d7d8282615636565b610d879084615511565b925050505b8015610dc15781516001600160a01b031660009081526002602052604081208054839290610dbb908490615511565b90915550505b50508080610dce906154e2565b915050610ca0565b50876001600160a01b0316896001600160a01b0316336001600160a01b03167fa1ec3a0d95701d84ce597ac1f6789b13a582504554c8aa7ec2be74470639c8e5868b8b88604051610e2a949392919061564d565b60405180910390a4505060016000559a9950505050505050505050565b600082815260066020526040902060010154610e638133613046565b610e6d83836130c6565b505050565b6001600160a01b0381163314610ee25760405162461bcd60e51b815260206004820152602f60248201527f416363657373436f6e74726f6c3a2063616e206f6e6c792072656e6f756e636560448201526e103937b632b9903337b91039b2b63360891b6064820152608401610896565b610eec8282613168565b5050565b600854610efd8133613046565b610f056131eb565b50565b600854610f158133613046565b60005b82811015610f8957610f4f848483818110610f3557610f356154b6565b9050602002016020810190610f4a91906153f0565b613289565b600b805460ff60c01b198116600160c01b9182900460f890811b9490941790931c0291909117905580610f81816154e2565b915050610f18565b507fd691741464555eddf67afe8f82b0cbe92f8859926856aec4a48a106ceb1b1bee8383604051610fbb92919061568b565b60405180910390a1505050565b6060600260005403610fec5760405162461bcd60e51b81526004016108969061547f565b6002600055610ffa82612ab1565b826001600160401b03811115611012576110126154fb565b60405190808252806020026020018201604052801561103b578160200160208202803683370190505b50905060005b838110156111bf57600085858381811061105d5761105d6154b6565b905060200281019061106f91906156d4565b61107d906020810190614c44565b905060005b868684818110611094576110946154b6565b90506020028101906110a691906156d4565b6110b49060208101906156f4565b9050811015611187576000806111118989878181106110d5576110d56154b6565b90506020028101906110e791906156d4565b6110f59060208101906156f4565b85818110611105576111056154b6565b90506020020135612ad8565b91509150836001600160a01b0316816001600160a01b0316146111475760405163305663b560e11b815260040160405180910390fd5b8186868151811061115a5761115a6154b6565b6020026020010181815161116e9190615511565b90525082915061117f9050816154e2565b915050611082565b506111ac818585858151811061119f5761119f6154b6565b6020026020010151612be8565b50806111b7816154e2565b915050611041565b50816001600160a01b0316336001600160a01b03167fdc1e0c1e1b707ce83f3d3a8c66a6abc1d23d95f81a61fc1f578355e0d968fd2d868685604051611207939291906157a4565b60405180910390a360016000559392505050565b604080518082019091526000808252602082015260008061123c8787612a80565b6001600160a01b0391821660009081526003602090815260408083209490931682529283528181206001600160f81b031989168252835281812063ffffffff8816825283528190208151808301909252546001600160801b038082168352600160801b909104169181019190915292505050949350505050565b6002600054036112d85760405162461bcd60e51b81526004016108969061547f565b6002600055600a546112ea8133613046565b60005b838110156113d157848482818110611307576113076154b6565b9050604002016020013560026000878785818110611327576113276154b6565b61133d9260206040909202019081019150614c44565b6001600160a01b03166001600160a01b03168152602001908152602001600020600082825461136c9190615636565b909155506113bf9050858583818110611387576113876154b6565b61139d9260206040909202019081019150614c44565b848787858181106113b0576113b06154b6565b90506040020160200135612be8565b806113c9816154e2565b9150506112ed565b50816001600160a01b0316336001600160a01b03167fc372140441ddd3b3a7319bbc36cbc33b5600b15c211eda1d1fc9d35bb7ebb3a88686604051611417929190615840565b60405180910390a3505060016000555050565b6040805161010081018252600080825260208201819052918101829052606081018290526080810182905260a0810182905260c0810182905260e08101919091526000828152600f60209081526040808320815160e081018352815463ffffffff8082168352600160201b82041694820194909452600160401b840460f81b6001600160f81b031916928101839052600160481b84046001600160a01b0390811660608301819052600160e81b90950462ffffff1660808301526001909201546001600160601b03811660a0830152600160601b900490911660c0820181905290939261151992909190613375565b9050600061152b8284602001516133d0565b60608401516001600160a01b03908116865260c085015116602086015283519091506115589082906133f1565b63ffffffff166060850152602083015161157290836133f1565b63ffffffff1660a08501526115878383613417565b60c085015261159583613449565b6001600160781b031660e085015260408301516001600160f81b031916156115e0576115c4836040015161347a565b63ffffffff1660408501526115da858484613586565b60808501525b505050919050565b60006115f26137f9565b905090565b600060026000540361161b5760405162461bcd60e51b81526004016108969061547f565b60026000556116286115e8565b156116685760405162461bcd60e51b815260206004820152601060248201526f14185d5cd8589b194e881c185d5cd95960821b6044820152606401610896565b6001600160a01b038916158061168557506001600160a01b038816155b8061169757506001600160a01b038416155b156116b55760405163d92e233d60e01b815260040160405180910390fd5b876001600160a01b0316896001600160a01b0316036116e75760405163c1ab6dc160e01b815260040160405180910390fd5b8660000361170857604051631f2a200560e01b815260040160405180910390fd5b8563ffffffff1660000361172f57604051633c92196b60e11b815260040160405180910390fd5b6117398989613807565b60006117458888613866565b90506000601160008154611758906154e2565b9182905550905060006117768c8c8b6117708c613289565b876138a3565b6040810151600b549192506001600160f81b0319600160c01b90920460f81b16166000036117b757604051638b52594f60e01b815260040160405180910390fd5b600e546040516306d66a1360e31b81526001600160a01b03909116906336b35098906117ed9085908b908b908b9060040161597d565b600060405180830381600087803b15801561180757600080fd5b505af115801561181b573d6000803e3d6000fd5b5050505061182e8c8c836040015161397c565b6118438c8c8360400151846020015187613a88565b6000828152600f60209081526040918290208351815492850151938501516060860151608087015163ffffffff93841667ffffffffffffffff1990961695909517600160201b96841696909602959095177fffffff000000000000000000000000000000000000000000ffffffffffffffff16600160401b60f89290921c919091027fffffff0000000000000000000000000000000000000000ffffffffffffffffff1617600160481b6001600160a01b0395861602176001600160e81b0316600160e81b62ffffff9094169390930292909217815560a084015160c08501516001600160601b03909116600160601b9185169190910217600190910155611954918e1690339030908e90613a9e16565b866001600160a01b0316336001600160a01b03167f1915b09a20b5793f1bd89b84dc928fe4ee36b0b9270ec217a3b2c278999f0967848f8f8d898860000151600161199f91906159b0565b89602001518f8f6040516119bb999897969594939291906159d8565b60405180910390a35060016000559a9950505050505050505050565b6009546119e48133613046565b61271061ffff83161115611a0b576040516314bc5e9d60e21b815260040160405180910390fd5b600b805461ffff60c81b1916600160c81b61ffff8516908102919091179091556040519081527f6c234431526967795ada65665e195191d4b2fc63c9f564d1ea626478325ae9d9906020015b60405180910390a15050565b600080600260005403611a885760405162461bcd60e51b81526004016108969061547f565b60026000556001600160a01b0384161580611aaa57506001600160a01b038316155b15611ac85760405163d92e233d60e01b815260040160405180910390fd5b6000858152600f6020908152604091829020825160e081018452815463ffffffff8082168352600160201b82041693820193909352600160401b830460f81b6001600160f81b03191693810193909352600160481b82046001600160a01b039081166060850152600160e81b90920462ffffff166080840152600101546001600160601b03811660a0840152600160601b90041660c0820152611b6d86826003613b0f565b6000611b8682606001518360c001518460400151613375565b9050611b93878383613586565b9250611b9f8282613417565b9350611bab8282613bd0565b6000878152600f60209081526040808320838155600101839055601090915280822091909155600e549051630852cd8d60e31b8152600481018990526001600160a01b03909116906342966c6890602401600060405180830381600087803b158015611c1657600080fd5b505af1158015611c2a573d6000803e3d6000fd5b505050506000831115611c4657611c468260c001518685612be8565b8315611c5b57611c5b82606001518786612be8565b60408051888152602081018690529081018490526001600160a01b03808716919088169033907f2577f709b454c4d5c1118a01186dd48d4a6bacf43fe4c26aad2f66a51bf5290d9060600160405180910390a4505060016000559094909350915050565b600854611ccc8133613046565b838214611cec576040516389db169560e01b815260040160405180910390fd5b60005b84811015611ed957838382818110611d0957611d096154b6565b9050602002016020810190611d1e9190615a55565b600c6000888885818110611d3457611d346154b6565b9050602002016020810190611d499190614c44565b6001600160a01b0316815260208101919091526040016000908120805460ff191692151592909217909155600d90878784818110611d8957611d896154b6565b9050602002016020810190611d9e9190614c44565b6001600160a01b0316815260208101919091526040016000908120546001600160781b03169003611ec757858582818110611ddb57611ddb6154b6565b9050602002016020810190611df09190614c44565b6001600160a01b031663313ce5676040518163ffffffff1660e01b8152600401602060405180830381865afa158015611e2d573d6000803e3d6000fd5b505050506040513d601f19601f82011682018060405250810190611e519190615a81565b611e5c90600a615b82565b600d6000888885818110611e7257611e726154b6565b9050602002016020810190611e879190614c44565b6001600160a01b03168152602081019190915260400160002080546effffffffffffffffffffffffffffff19166001600160781b03929092169190911790555b80611ed1816154e2565b915050611cef565b507f205ab319bb13f5ff529e58d094941772894e6d3a1905e971dafc88a1bf8bf44b85858585604051611f0f9493929190615b91565b60405180910390a15050505050565b600954611f2b8133613046565b611f3482612ab1565b600b805473ffffffffffffffffffffffffffffffffffffffff19166001600160a01b0384169081179091556040519081527f3f32684a32a11dabdbb8c0177de80aa3ae36a004d75210335b49e544e48cd0aa90602001611a57565b600854611f9c8133613046565b60005b82811015611ff757611fbc848483818110610f3557610f356154b6565b600b805460ff60c01b1981169219600160c01b9182900460f890811b91909116901c0291909117905580611fef816154e2565b915050611f9f565b507fd0359552feffede26fee29bd110dd8e1a3237acd35c7e17a9d3b7330b02f88258383604051610fbb92919061568b565b604080516080810182526000808252602082018190529181018290526060810182905290806120588686612a80565b6001600160a01b0391821660009081526005602090815260408083209390941682529182528281206001600160f81b03198816825282528290208251608081018452815463ffffffff80821683526001600160e01b03600160201b9283900481169584019590955260019093015492831694820194909452929004166060820152925050505b9392505050565b6008546120f28133613046565b610f05613c0f565b600061210c8b8b8b8b8b8b8b8b6115f7565b90508115612150577fa9c989cd063ac13a33305492ca3b3643f4bf38968e009d020c750e27b3ee287e81848460405161214793929190615c21565b60405180910390a15b9a9950505050505050505050565b6040805180820190915260608082526020820152600b5463ffffffff600160a01b820416906001600160a01b03166000866001600160401b038111156121a6576121a66154fb565b6040519080825280602002602001820160405280156121cf578160200160208202803683370190505b5090506000876001600160401b038111156121ec576121ec6154fb565b604051908082528060200260200182016040528015612215578160200160208202803683370190505b509050856001600160401b03811115612230576122306154fb565b60405190808252806020026020018201604052801561228957816020015b6040805160a08101825260008082526020808301829052928201819052606082018190526080820152825260001990920191018161224e5790505b50602086015260005b868110156126165760008888838181106122ae576122ae6154b6565b6122c49260206040909202019081019150615c44565b905060008989848181106122da576122da6154b6565b90506040020160200160208101906122f29190615c44565b90508060ff168260ff161015806123ce57506000831180156123ce5750898961231c600186615636565b81811061232b5761232b6154b6565b6123419260206040909202019081019150615c44565b60ff168260ff1610806123ce5750898961235c600186615636565b81811061236b5761236b6154b6565b6123819260206040909202019081019150615c44565b60ff168260ff161480156123ce5750898961239d600186615636565b8181106123ac576123ac6154b6565b90506040020160200160208101906123c49190615c44565b60ff168160ff1611155b156123ec57604051635dd49b5d60e01b815260040160405180910390fd5b6040805160a0810182526000808252602082018190529181018290526060810182905260808101919091528c8c8460ff1681811061242c5761242c6154b6565b90506020020160208101906124419190614c44565b6001600160a01b031681528c8c60ff8416818110612461576124616154b6565b90506020020160208101906124769190614c44565b6001600160a01b039081166020838101918252835183166000908152600d90915260408082205483519094168252812054845192516001600160781b03948516949091169282916124c79190613c8c565b6001600160f81b03191660808801528b51919350915082908b9060ff8a169081106124f4576124f46154b6565b602002602001018181516125089190615511565b905250895181908b9060ff8916908110612524576125246154b6565b602002602001018181516125389190615511565b9052508451602086015161254f919086868f613e34565b60608701819052604087019190915261256c90849083908f613edd565b898860ff1681518110612581576125816154b6565b602002602001018181516125959190615511565b90525060408501516125ab90859084908f613edd565b898760ff16815181106125c0576125c06154b6565b602002602001018181516125d49190615511565b90525060208d015180518691908a9081106125f1576125f16154b6565b602002602001018190525050505050505050808061260e906154e2565b915050612292565b50600b54600160c81b900461ffff16886001600160401b0381111561263d5761263d6154fb565b6040519080825280602002602001820160405280156126a257816020015b61268f604051806080016040528060006001600160a01b031681526020016000815260200160008152602001600081525090565b81526020019060019003908161265b5790505b50865260005b86515181101561291557600c60008c8c848181106126c8576126c86154b6565b90506020020160208101906126dd9190614c44565b6001600160a01b0316815260208101919091526040016000205460ff16612717576040516306d022d560e51b815260040160405180910390fd5b60008111801561278f57508a8a61272f600184615636565b81811061273e5761273e6154b6565b90506020020160208101906127539190614c44565b6001600160a01b03168b8b8381811061276e5761276e6154b6565b90506020020160208101906127839190614c44565b6001600160a01b031611155b156127ad576040516333910aef60e11b815260040160405180910390fd5b6127e1604051806080016040528060006001600160a01b031681526020016000815260200160008152602001600081525090565b8b8b838181106127f3576127f36154b6565b90506020020160208101906128089190614c44565b6001600160a01b03168152835160009085908490811061282a5761282a6154b6565b602002602001015190506000868481518110612848576128486154b6565b6020026020010151905060008211806128615750600081115b156128dd5760006128728a84613f27565b9050600061271061288761ffff891684615c61565b6128919190615c96565b9050600061289f8585615caa565b9050818113156128bd576128b38282615caa565b60208701526128d5565b818112156128d5576128cf8183615caa565b60408701525b506060850152505b828a6000015185815181106128f4576128f46154b6565b6020026020010181905250505050808061290d906154e2565b9150506126a8565b505050505050949350505050565b60008281526006602052604090206001015461293f8133613046565b610e6d8383613168565b6009546129568133613046565b61295f82613f68565b600b805463ffffffff60a01b1916600160a01b63ffffffff8516908102919091179091556040519081527f5658872a8436367e842f76c14ffbbf8e67a2e70f47b28b3c4154134f72e902d690602001611a57565b6002600054036129d55760405162461bcd60e51b81526004016108969061547f565b60026000556129e26115e8565b15612a225760405162461bcd60e51b815260206004820152601060248201526f14185d5cd8589b194e881c185d5cd95960821b6044820152606401610896565b612a2f8383836000613fc1565b5050600160005550565b600260005403612a5b5760405162461bcd60e51b81526004016108969061547f565b6002600055612a6981612ab1565b612a7584848484613fc1565b505060016000555050565b600080826001600160a01b0316846001600160a01b031610612aa3578284612aa6565b83835b909590945092505050565b6001600160a01b038116610f055760405163d92e233d60e01b815260040160405180910390fd5b6000818152600f60209081526040808320815160e081018352815463ffffffff8082168352600160201b82041694820194909452600160401b840460f81b6001600160f81b03191692810192909252600160481b83046001600160a01b039081166060840152600160e81b90930462ffffff166080830152600101546001600160601b03811660a0830152600160601b900490911660c08201528190612b8084826002613b0f565b6000612b9982606001518360c001518460400151613375565b9050612ba6858383613586565b60c0909201516000958652600f60209081526040808820805463ffffffff90951663ffffffff1990951694909417909355601090529085209490945593915050565b610e6d6001600160a01b03841683836142bf565b6000612c09606484615ce9565b612c1590612710615d0c565b6120de9063ffffffff1683615c61565b6001600160a01b03808716600090815260056020908152604080832093891683529281528282206001600160f81b0319881683528152908290208251608081018452815463ffffffff80821683526001600160e01b03600160201b92839004811695840186905260019094015490811695830195909552909304166060830152151580612cbf5750600081606001516001600160e01b0316115b15612f97576001600160a01b038088166000908152600460209081526040808320938a1683529281528282206001600160f81b0319891683528152828220845163ffffffff168352815290829020825180840184528154815260019091015491810191909152815180830190925280519091908190612d3f908890615511565b8152602001858360200151612d549190615511565b90526001600160a01b03808a166000908152600460209081526040808320938c1683529281528282206001600160f81b03198b16835290529081208451909190612d9f9060016159b0565b63ffffffff1681526020808201929092526040908101600090812084518155938301516001909401939093556001600160a01b03808c16845260038352818420908b16845282528083206001600160f81b03198a168452909152812083518290612e0a9060026159b0565b63ffffffff16815260208082019290925260409081016000208151808301835290546001600160801b038082168352600160801b90910416928101929092528051608081019091528451919250908190612e659060016159b0565b63ffffffff16815260200182600001516001600160801b03168560200151612e8d9190615d31565b6001600160e01b031681526020018563ffffffff16815260200182602001516001600160801b03168560600151612ec49190615d31565b6001600160e01b039081169091526001600160a01b03808c166000818152600560209081526040808320948f168084529482528083206001600160f81b03198f168085529083528184208851898501518916600160201b90810263ffffffff9283161783558a8501516060909b01519099169098029890971697909717600190960195909555918152600382528381209281529181528282209382529290925281208451909190612f769060026159b0565b63ffffffff168152602081019190915260400160009081205550612fd29050565b6001600160a01b038088166000908152600160209081526040808320938a16835292905220805460f881811b881916901c60ff199091161790555b50505050505050565b6040516370a0823160e01b81523060048201526000906001600160a01b038316906370a0823190602401602060405180830381865afa158015613022573d6000803e3d6000fd5b505050506040513d601f19601f820116820180604052508101906107e29190615d51565b60008281526006602090815260408083206001600160a01b038516845290915290205460ff16610eec57613084816001600160a01b031660146142ef565b61308f8360206142ef565b6040516020016130a0929190615d96565b60408051601f198184030181529082905262461bcd60e51b825261089691600401615e0b565b60008281526006602090815260408083206001600160a01b038516845290915290205460ff16610eec5760008281526006602090815260408083206001600160a01b03851684529091529020805460ff191660011790556131243390565b6001600160a01b0316816001600160a01b0316837f2f8788117e7eff1d82e926ec794901d17c78024a50270940304540a733656f0d60405160405180910390a45050565b60008281526006602090815260408083206001600160a01b038516845290915290205460ff1615610eec5760008281526006602090815260408083206001600160a01b0385168085529252808320805460ff1916905551339285917ff6391f5c32d9c69d2a47ea670b442974b53935d1edc7fd64eb21e047a839171b9190a45050565b6131f36115e8565b61323f5760405162461bcd60e51b815260206004820152601460248201527f5061757361626c653a206e6f74207061757365640000000000000000000000006044820152606401610896565b6007805460ff191690557f5db9ee0a495bf2e6ff9c91a7834c1ba4fdd244a5e8aa4e537bd38aeae4b073aa335b6040516001600160a01b03909116815260200160405180910390a1565b60008163ffffffff16603c036132a45750600160f81b919050565b8163ffffffff1661012c036132be5750600160f91b919050565b8163ffffffff16610384036132d85750600160fa1b919050565b8163ffffffff16610708036132f25750600160fb1b919050565b8163ffffffff16610e100361330c5750600160fc1b919050565b8163ffffffff16613840036133265750600160fd1b919050565b8163ffffffff1662015180036133415750600160fe1b919050565b8163ffffffff1662093a800361335c5750600160ff1b919050565b6040516305fabb6160e41b815260040160405180910390fd5b60008060006133848686612a80565b6001600160a01b0391821660009081526005602090815260408083209490931682529283528181206001600160f81b03198816825290925290205463ffffffff16925050509392505050565b60008163ffffffff168363ffffffff16116133eb57826120de565b50919050565b60008163ffffffff168363ffffffff161161340d5760006120de565b6120de8284615d0c565b600061342283613449565b6001600160781b03166134398460200151846133f1565b63ffffffff166120de9190615c61565b6000816080015162ffffff1660188360a001516001600160601b03166001600160781b0316901b6107e29190615e3e565b60006001600160f81b03198216600160f81b036134995750603c919050565b6001600160f81b03198216600160f91b036134b7575061012c919050565b6001600160f81b03198216600160fa1b036134d55750610384919050565b6001600160f81b03198216600160fb1b036134f35750610708919050565b6001600160f81b03198216600160fc1b036135115750610e10919050565b6001600160f81b03198216600160fd1b0361352f5750613840919050565b6001600160f81b03198216600160fe1b0361354e575062015180919050565b6001600160f81b03198216600160ff1b0361356d575062093a80919050565b60405163bf3cad0b60e01b815260040160405180910390fd5b6000806135978385602001516133d0565b90508063ffffffff16846000015163ffffffff1611156135bb5760009150506120de565b835163ffffffff8083169116036135e25750506000838152601060205260409020546120de565b60008460c001516001600160a01b031685606001516001600160a01b0316106136a75760c0850180516001600160a01b03908116600090815260046020818152604080842060608c01805187168652908352818520828d0180516001600160f81b031990811688529185528387208e5163ffffffff90811689529086528488206001908101549a518a1689529686528488209351909816875291845282862091511685528252808420948816845293905291902001546136a29190615636565b61373b565b6060850180516001600160a01b03908116600090815260046020818152604080842060c08c01805187168652908352818520828d0180516001600160f81b031990811688529185528387208e5163ffffffff908116895290865284882054995189168852958552838720925190971686529083528185209551168452938152838320918716835252205461373b9190615636565b60608601516001600160a01b03166000908152600d60205260408120549192506001600160781b039091169061377087613449565b905060008061378885846001600160781b031661448a565b90925090506000612710836137ba576001600160781b0385166137ab8789615c96565b6137b59190615c61565b6137c4565b6137c48684615c96565b6137ce9190615c96565b60008c8152601060205260409020549091506137ea9082615511565b9b9a5050505050505050505050565b60006115f260075460ff1690565b6001600160a01b0382166000908152600c602052604090205460ff16158061384857506001600160a01b0381166000908152600c602052604090205460ff16155b15610eec576040516306d022d560e51b815260040160405180910390fd5b60008061387963ffffffff841685615c96565b90506001600160781b038111156120de57604051636b2f218360e01b815260040160405180910390fd5b6040805160e081018252600080825260208201819052918101829052606081018290526080810182905260a0810182905260c08101829052906138e7878786613375565b6040805160e0810190915263ffffffff8216815290915083906001600160601b03601883901c16906020810161391d89866159b0565b63ffffffff168152602001876001600160f81b03191681526020018a6001600160a01b031681526020018362ffffff168152602001826001600160601b03168152602001896001600160a01b0316815250935050505095945050505050565b6000806139898585612a80565b6001600160a01b03808316600090815260016020908152604080832093851683529290529081205492945090925060f89190911b906001600160f81b0319858316169003613a80576001600160f81b03198116600003613a4b57600b54604051633faaed9d60e11b81526001600160a01b038581166004830152848116602483015290911690637f55db3a90604401600060405180830381600087803b158015613a3257600080fd5b505af1158015613a46573d6000803e3d6000fd5b505050505b6001600160a01b038381166000908152600160209081526040808320938616835292905220805460ff191685831760f81c1790555b505050505050565b613a97858585858560016144d5565b5050505050565b6040516001600160a01b0380851660248301528316604482015260648101829052613b099085906323b872dd60e01b906084015b60408051601f198184030181529190526020810180516001600160e01b03166001600160e01b031990931692909217909152614978565b50505050565b60408201516001600160f81b031916600003613b3e5760405163673f032f60e11b815260040160405180910390fd5b600e5460405163823abfd960e01b81526001600160a01b039091169063823abfd990613b7290869033908690600401615e60565b602060405180830381865afa158015613b8f573d6000803e3d6000fd5b505050506040513d601f19601f82011682018060405250810190613bb39190615e83565b610e6d57604051635c427cd960e01b815260040160405180910390fd5b8063ffffffff16826020015163ffffffff161115610eec57610eec82606001518360c0015184604001518560200151613c0887613449565b60006144d5565b613c176115e8565b15613c575760405162461bcd60e51b815260206004820152601060248201526f14185d5cd8589b194e881c185d5cd95960821b6044820152606401610896565b6007805460ff191660011790557f62e78cea01bee320cd4e420270b5ea74000d11b0c9f74754ebdbfc544b05a25861326c3390565b6001600160a01b0382811660009081526001602090815260408083209385168352929052908120548190819060f81b42600160f81b5b6001600160f81b031980821690841610801590613ce857506001600160f81b0319811615155b15613e14576001600160f81b03198382161615613e06576001600160a01b038089166000908152600560209081526040808320938b1683529281528282206001600160f81b03198516835281528282208351608081018552815463ffffffff80821683526001600160e01b03600160201b9283900481169584019590955260019093015492831695820195909552939004166060830152613d888361347a565b90508363ffffffff1681828460400151613da29190615ce9565b613dad9060016159b0565b613db79190615ea0565b63ffffffff161115613dca575050613e14565b602082015195831795613de6906001600160e01b031689615511565b975081606001516001600160e01b031687613e019190615511565b965050505b60011b607f60f91b16613cc2565b85158015613e20575084155b15613e2a57600093505b5050509250925092565b60405163a513355f60e01b81526001600160a01b0385811660048301526001600160801b03841660248301528681166044830152600091829184169063a513355f90606401602060405180830381865afa158015613e96573d6000803e3d6000fd5b505050506040513d601f19601f82011682018060405250810190613eba9190615d51565b905080613ec78686615c61565b613ed19190615c96565b91509550959350505050565b600080613ef383613eee8688615c61565b614a4a565b9050613eff8682615c96565b9150613f0b8682615ecc565b15613f1e5781613f1a816154e2565b9250505b50949350505050565b600082613f376127106064615ee0565b62ffffff16613f469190615d0c565b63ffffffff168363ffffffff1683613f5e9190615c61565b6120de9190615c96565b620186a063ffffffff82161115613f92576040516314041af760e31b815260040160405180910390fd5b613f9d606482615f02565b63ffffffff1615610f05576040516358d620b360e01b815260040160405180910390fd5b6000848152600f6020908152604091829020825160e081018452815463ffffffff8082168352600160201b82041693820193909352600160401b830460f81b6001600160f81b03191693810193909352600160481b82046001600160a01b039081166060850152600160e81b90920462ffffff166080840152600101546001600160601b03811660a0840152600160601b9004811660c083015282161561407686838361406f576001613b0f565b6000613b0f565b801561408e5761408e82606001518360c00151613807565b60006140a783606001518460c001518560400151613375565b905060006140b58483613417565b90506000836140cd576140c88883615636565b6140d7565b6140d78883615511565b905080158015906140ec575063ffffffff8716155b1561410a57604051633c92196b60e11b815260040160405180910390fd5b8015801561411e575060008763ffffffff16115b1561412857600096505b600063ffffffff881615614145576141408289613866565b614148565b60005b60008b8152600f602052604081206001810180546bffffffffffffffffffffffff19166001600160601b03601886901c1617905580546001600160e81b0316600160e81b62ffffff8516021790559091506141a389866159b0565b60008c8152600f60205260409020805463ffffffff808416600160201b0267ffffffffffffffff199092169089161717905590506141e28b8887613586565b60008c8152601060205260409020556141fb8786613bd0565b61421487606001518860c0015189604001518486613a88565b891561424e57851561423f57606087015161423a906001600160a01b031633308d613a9e565b61424e565b61424e8760600151898c612be8565b337f1e52a79a98c3fbf6230e862913323047a9c0ec511d2c289b1eeeeb9cc97c5bea8c8461427d8960016159b0565b604080519384526001600160781b0392909216602084015263ffffffff9081168383015285166060830152519081900360800190a25050505050505050505050565b6040516001600160a01b038316602482015260448101829052610e6d90849063a9059cbb60e01b90606401613ad2565b606060006142fe836002615c61565b614309906002615511565b6001600160401b03811115614320576143206154fb565b6040519080825280601f01601f19166020018201604052801561434a576020820181803683370190505b509050600360fc1b81600081518110614365576143656154b6565b60200101906001600160f81b031916908160001a905350600f60fb1b81600181518110614394576143946154b6565b60200101906001600160f81b031916908160001a90535060006143b8846002615c61565b6143c3906001615511565b90505b600181111561443b576f181899199a1a9b1b9c1cb0b131b232b360811b85600f16601081106143f7576143f76154b6565b1a60f81b82828151811061440d5761440d6154b6565b60200101906001600160f81b031916908160001a90535060049490941c9361443481615f25565b90506143c6565b5083156120de5760405162461bcd60e51b815260206004820181905260248201527f537472696e67733a20686578206c656e67746820696e73756666696369656e746044820152606401610896565b600080836000036144a157506001905060006144ce565b838302838582816144b4576144b4615c80565b04146144c75760008092509250506144ce565b6001925090505b9250929050565b846001600160a01b0316866001600160a01b0316101561472a578015614624576001600160a01b03868116600090815260056020908152604080832093891683529281528282206001600160f81b03198816835290522080546001600160781b0384169190600490614558908490600160201b90046001600160e01b0316615f3c565b82546001600160e01b039182166101009390930a9283029190920219909116179055506001600160a01b03808716600090815260036020908152604080832093891683529281528282206001600160f81b03198816835290529081206001600160781b038416916145ca8660016159b0565b63ffffffff1681526020810191909152604001600090812080549091906145fb9084906001600160801b0316615f5e565b92506101000a8154816001600160801b0302191690836001600160801b03160217905550613a80565b6001600160a01b03868116600090815260056020908152604080832093891683529281528282206001600160f81b03198816835290522080546001600160781b0384169190600490614687908490600160201b90046001600160e01b0316615d31565b82546001600160e01b039182166101009390930a9283029190920219909116179055506001600160a01b03808716600090815260036020908152604080832093891683529281528282206001600160f81b03198816835290529081206001600160781b038416916146f98660016159b0565b63ffffffff1681526020810191909152604001600090812080549091906145fb9084906001600160801b0316615f80565b801561483e576001600160a01b038581166000908152600560209081526040808320938a1683529281528282206001600160f81b03198816835290522060010180546001600160781b0384169190600490614796908490600160201b90046001600160e01b0316615f3c565b82546001600160e01b039182166101009390930a9283029190920219909116179055506001600160a01b038086166000908152600360209081526040808320938a1683529281528282206001600160f81b03198816835290529081206001600160781b038416916148088660016159b0565b63ffffffff168152602081019190915260400160002080546010906145fb908490600160801b90046001600160801b0316615f5e565b6001600160a01b038581166000908152600560209081526040808320938a1683529281528282206001600160f81b03198816835290522060010180546001600160781b03841691906004906148a4908490600160201b90046001600160e01b0316615d31565b82546001600160e01b039182166101009390930a9283029190920219909116179055506001600160a01b038086166000908152600360209081526040808320938a1683529281528282206001600160f81b03198816835290529081206001600160781b038416916149168660016159b0565b63ffffffff1681526020810191909152604001600020805460109061494c908490600160801b90046001600160801b0316615f80565b92506101000a8154816001600160801b0302191690836001600160801b03160217905550505050505050565b60006149cd826040518060400160405280602081526020017f5361666545524332303a206c6f772d6c6576656c2063616c6c206661696c6564815250856001600160a01b0316614a769092919063ffffffff16565b805190915015610e6d57808060200190518101906149eb9190615e83565b610e6d5760405162461bcd60e51b815260206004820152602a60248201527f5361666545524332303a204552433230206f7065726174696f6e20646964206e6044820152691bdd081cdd58d8d9595960b21b6064820152608401610896565b6000612710614a5a606485615ce9565b614a6690612710615d0c565b613f5e9063ffffffff1684615c61565b606061086a848460008585843b614acf5760405162461bcd60e51b815260206004820152601d60248201527f416464726573733a2063616c6c20746f206e6f6e2d636f6e74726163740000006044820152606401610896565b600080866001600160a01b03168587604051614aeb9190615fa0565b60006040518083038185875af1925050503d8060008114614b28576040519150601f19603f3d011682016040523d82523d6000602084013e614b2d565b606091505b5091509150613f1a82828660608315614b475750816120de565b825115614b575782518084602001fd5b8160405162461bcd60e51b81526004016108969190615e0b565b600060208284031215614b8357600080fd5b81356001600160e01b0319811681146120de57600080fd5b6001600160a01b0381168114610f0557600080fd5b8035614bbb81614b9b565b919050565b80356001600160f81b031981168114614bbb57600080fd5b803563ffffffff81168114614bbb57600080fd5b60008060008060808587031215614c0257600080fd5b8435614c0d81614b9b565b93506020850135614c1d81614b9b565b9250614c2b60408601614bc0565b9150614c3960608601614bd8565b905092959194509250565b600060208284031215614c5657600080fd5b81356120de81614b9b565b60008060408385031215614c7457600080fd5b823591506020830135614c8681614b9b565b809150509250929050565b600060208284031215614ca357600080fd5b5035919050565b60008083601f840112614cbc57600080fd5b5081356001600160401b03811115614cd357600080fd5b6020830191508360208260051b85010111156144ce57600080fd5b60008083601f840112614d0057600080fd5b5081356001600160401b03811115614d1757600080fd5b6020830191508360208260061b85010111156144ce57600080fd5b60008083601f840112614d4457600080fd5b5081356001600160401b03811115614d5b57600080fd5b6020830191508360208285010111156144ce57600080fd5b60008060008060008060008060008060c08b8d031215614d9257600080fd5b8a356001600160401b0380821115614da957600080fd5b614db58e838f01614caa565b909c509a5060208d0135915080821115614dce57600080fd5b614dda8e838f01614cee565b909a509850889150614dee60408e01614bb0565b9750614dfc60608e01614bb0565b965060808d0135915080821115614e1257600080fd5b614e1e8e838f01614caa565b909650945060a08d0135915080821115614e3757600080fd5b50614e448d828e01614d32565b915080935050809150509295989b9194979a5092959850565b8051604080845281518482018190526000926060916020918201918388019190865b82811015614ec657845180516001600160a01b0316855260208082015190860152604080820151908601526060908101519085015260808401948201949350600101614e7f565b50878101518984038a83015280518085529082019450600093820192505b80841015614f4057845180516001600160a01b039081168552838201511683850152878101518885015286810151878501526080908101516001600160f81b03191690840152938101936001939093019260a090920191614ee4565b509098975050505050505050565b6020815260006120de6020830184614e5d565b60008060208385031215614f7457600080fd5b82356001600160401b03811115614f8a57600080fd5b614f9685828601614caa565b90969095509350505050565b600080600060408486031215614fb757600080fd5b83356001600160401b03811115614fcd57600080fd5b614fd986828701614caa565b9094509250506020840135614fed81614b9b565b809150509250925092565b600081518084526020808501945080840160005b838110156150285781518752958201959082019060010161500c565b509495945050505050565b6020815260006120de6020830184614ff8565b60008060006040848603121561505b57600080fd5b83356001600160401b0381111561507157600080fd5b614fd986828701614cee565b6000806040838503121561509057600080fd5b823561509b81614b9b565b91506020830135614c8681614b9b565b6000610100820190506001600160a01b0380845116835280602085015116602084015250604083015163ffffffff8082166040850152806060860151166060850152608085015160808501528060a08601511660a0850152505060c083015160c083015260e083015161512960e08401826001600160781b03169052565b5092915050565b60008060008060008060008060e0898b03121561514c57600080fd5b883561515781614b9b565b9750602089013561516781614b9b565b96506040890135955061517c60608a01614bd8565b945061518a60808a01614bd8565b935060a089013561519a81614b9b565b925060c08901356001600160401b038111156151b557600080fd5b6151c18b828c01614caa565b999c989b5096995094979396929594505050565b6000602082840312156151e757600080fd5b813561ffff811681146120de57600080fd5b60008060006060848603121561520e57600080fd5b83359250602084013561522081614b9b565b91506040840135614fed81614b9b565b6000806000806040858703121561524657600080fd5b84356001600160401b038082111561525d57600080fd5b61526988838901614caa565b9096509450602087013591508082111561528257600080fd5b5061528f87828801614caa565b95989497509550505050565b6000806000606084860312156152b057600080fd5b83356152bb81614b9b565b925060208401356152cb81614b9b565b91506152d960408501614bc0565b90509250925092565b6000806000806000806000806000806101008b8d03121561530257600080fd5b8a3561530d81614b9b565b995060208b013561531d81614b9b565b985060408b0135975061533260608c01614bd8565b965061534060808c01614bd8565b955060a08b013561535081614b9b565b945060c08b01356001600160401b038082111561536c57600080fd5b6153788e838f01614caa565b909650945060e08d0135915080821115614e3757600080fd5b600080600080604085870312156153a757600080fd5b84356001600160401b03808211156153be57600080fd5b6153ca88838901614caa565b909650945060208701359150808211156153e357600080fd5b5061528f87828801614cee565b60006020828403121561540257600080fd5b6120de82614bd8565b60008060006060848603121561542057600080fd5b83359250602084013591506152d960408501614bd8565b6000806000806080858703121561544d57600080fd5b843593506020850135925061546460408601614bd8565b9150606085013561547481614b9b565b939692955090935050565b6020808252601f908201527f5265656e7472616e637947756172643a207265656e7472616e742063616c6c00604082015260600190565b634e487b7160e01b600052603260045260246000fd5b634e487b7160e01b600052601160045260246000fd5b6000600182016154f4576154f46154cc565b5060010190565b634e487b7160e01b600052604160045260246000fd5b60008219821115615524576155246154cc565b500190565b81835260006001600160fb1b0383111561554257600080fd5b8260051b8083602087013760009401602001938452509192915050565b81835281816020850137506000828201602090810191909152601f909101601f19169091010190565b6000608082016001600160a01b0389168352602060808185015281895180845260a086019150828b01935060005b818110156155fd57845180516001600160a01b03168452602080820151908501526040808201519085015260609081015190840152608083019484019492506001016155b6565b5050848103604086015261561281898b615529565b92505050828103606084015261562981858761555f565b9998505050505050505050565b600082821015615648576156486154cc565b500390565b6060815260006156606060830187614e5d565b8281036020840152615673818688615529565b91505063ffffffff8316604083015295945050505050565b60208082528181018390526000908460408401835b868110156156c95763ffffffff6156b684614bd8565b16825291830191908301906001016156a0565b509695505050505050565b60008235603e198336030181126156ea57600080fd5b9190910192915050565b6000808335601e1984360301811261570b57600080fd5b8301803591506001600160401b0382111561572557600080fd5b6020019150600581901b36038213156144ce57600080fd5b6000808335601e1984360301811261575457600080fd5b83016020810192503590506001600160401b0381111561577357600080fd5b8060051b36038313156144ce57600080fd5b60008235603e1983360301811261579b57600080fd5b90910192915050565b60408082528181018490526000906060600586901b8401810190840187845b8881101561582b57868403605f190183526157de828b615785565b80356157e981614b9b565b6001600160a01b0316855260206158028282018361573d565b925087828801526158168888018483615529565b965050938401939290920191506001016157c3565b5050508381036020850152613f1a8186614ff8565b6020808252818101839052600090604080840186845b8781101561588c57813561586981614b9b565b6001600160a01b0316835281850135858401529183019190830190600101615856565b5090979650505050505050565b600481106158b757634e487b7160e01b600052602160045260246000fd5b9052565b81835260006020808501808196508560051b810191508460005b878110156159705782840389526158ec8288615785565b604080860182356158fc81614b9b565b6001600160a01b031687526159138389018461573d565b888a019390935290829052909150606086019060005b8381101561595b5781356004811061594057600080fd5b61594a8482615899565b509188019190880190600101615929565b505099860199945050908401906001016158d5565b5091979650505050505050565b8481526001600160a01b03841660208201526060604082015260006159a66060830184866158bb565b9695505050505050565b600063ffffffff8083168185168083038211156159cf576159cf6154cc565b01949350505050565b8981526001600160a01b0389811660208301528816604082015263ffffffff87811660608301526001600160781b038716608083015285811660a0830152841660c082015261010060e08201819052600090615a3783820185876158bb565b9c9b505050505050505050505050565b8015158114610f0557600080fd5b600060208284031215615a6757600080fd5b81356120de81615a47565b60ff81168114610f0557600080fd5b600060208284031215615a9357600080fd5b81516120de81615a72565b600181815b80851115615ad9578160001904821115615abf57615abf6154cc565b80851615615acc57918102915b93841c9390800290615aa3565b509250929050565b600082615af0575060016107e2565b81615afd575060006107e2565b8160018114615b135760028114615b1d57615b39565b60019150506107e2565b60ff841115615b2e57615b2e6154cc565b50506001821b6107e2565b5060208310610133831016604e8410600b8410161715615b5c575081810a6107e2565b615b668383615a9e565b8060001904821115615b7a57615b7a6154cc565b029392505050565b60006120de60ff841683615ae1565b6040808252810184905260008560608301825b87811015615bd4578235615bb781614b9b565b6001600160a01b0316825260209283019290910190600101615ba4565b5083810360208581019190915285825291508590820160005b86811015615c14578235615c0081615a47565b151582529183019190830190600101615bed565b5098975050505050505050565b838152604060208201526000615c3b60408301848661555f565b95945050505050565b600060208284031215615c5657600080fd5b81356120de81615a72565b6000816000190483118215151615615c7b57615c7b6154cc565b500290565b634e487b7160e01b600052601260045260246000fd5b600082615ca557615ca5615c80565b500490565b60008083128015600160ff1b850184121615615cc857615cc86154cc565b6001600160ff1b0384018313811615615ce357615ce36154cc565b50500390565b600063ffffffff80841680615d0057615d00615c80565b92169190910492915050565b600063ffffffff83811690831681811015615d2957615d296154cc565b039392505050565b60006001600160e01b0383811690831681811015615d2957615d296154cc565b600060208284031215615d6357600080fd5b5051919050565b60005b83811015615d85578181015183820152602001615d6d565b83811115613b095750506000910152565b7f416363657373436f6e74726f6c3a206163636f756e7420000000000000000000815260008351615dce816017850160208801615d6a565b7001034b99036b4b9b9b4b733903937b6329607d1b6017918401918201528351615dff816028840160208801615d6a565b01602801949350505050565b6020815260008251806020840152615e2a816040850160208701615d6a565b601f01601f19169190910160400192915050565b60006001600160781b038083168185168083038211156159cf576159cf6154cc565b8381526001600160a01b03831660208201526060810161086a6040830184615899565b600060208284031215615e9557600080fd5b81516120de81615a47565b600063ffffffff80831681851681830481118215151615615ec357615ec36154cc565b02949350505050565b600082615edb57615edb615c80565b500690565b600062ffffff80831681851681830481118215151615615ec357615ec36154cc565b600063ffffffff80841680615f1957615f19615c80565b92169190910692915050565b600081615f3457615f346154cc565b506000190190565b60006001600160e01b038281168482168083038211156159cf576159cf6154cc565b60006001600160801b038083168185168083038211156159cf576159cf6154cc565b60006001600160801b0383811690831681811015615d2957615d296154cc565b600082516156ea818460208701615d6a56fea26469706673582212209b30f5c342b69d79f409d7c27f35a87e52fe11f143b5eef7bffd389bd17c7a4a64736f6c634300080d0033"
}