{
  "address": "0x4384f6e940C9bF5e56df63064e38CB9c5Af4A8Bc",
  "abi": [
    {
      "inputs": [
        {
          "internalType": "address",
          "name": "_WETH",
          "type": "address"
        },
        {
          "internalType": "contract FeedRegistryInterface",
          "name": "_registry",
          "type": "address"
        },
        {
          "internalType": "uint32",
          "name": "_maxDelay",
          "type": "uint32"
        },
        {
          "internalType": "address",
          "name": "_governor",
          "type": "address"
        }
      ],
      "stateMutability": "nonpayable",
      "type": "constructor"
    },
    {
      "inputs": [],
      "name": "InvalidMappingsInput",
      "type": "error"
    },
    {
      "inputs": [],
      "name": "InvalidPrice",
      "type": "error"
    },
    {
      "inputs": [],
      "name": "LastUpdateIsTooOld",
      "type": "error"
    },
    {
      "inputs": [],
      "name": "PairNotSupported",
      "type": "error"
    },
    {
      "inputs": [],
      "name": "ZeroAddress",
      "type": "error"
    },
    {
      "inputs": [],
      "name": "ZeroMaxDelay",
      "type": "error"
    },
    {
      "anonymous": false,
      "inputs": [
        {
          "indexed": false,
          "internalType": "address",
          "name": "tokenA",
          "type": "address"
        },
        {
          "indexed": false,
          "internalType": "address",
          "name": "tokenB",
          "type": "address"
        }
      ],
      "name": "AddedSupportForPairInChainlinkOracle",
      "type": "event"
    },
    {
      "anonymous": false,
      "inputs": [
        {
          "indexed": false,
          "internalType": "address[]",
          "name": "tokens",
          "type": "address[]"
        },
        {
          "indexed": false,
          "internalType": "address[]",
          "name": "mappings",
          "type": "address[]"
        }
      ],
      "name": "MappingsAdded",
      "type": "event"
    },
    {
      "anonymous": false,
      "inputs": [],
      "name": "PendingGovernorAccepted",
      "type": "event"
    },
    {
      "anonymous": false,
      "inputs": [
        {
          "indexed": false,
          "internalType": "address",
          "name": "pendingGovernor",
          "type": "address"
        }
      ],
      "name": "PendingGovernorSet",
      "type": "event"
    },
    {
      "anonymous": false,
      "inputs": [
        {
          "indexed": false,
          "internalType": "address[]",
          "name": "tokens",
          "type": "address[]"
        }
      ],
      "name": "TokensConsideredUSD",
      "type": "event"
    },
    {
      "inputs": [],
      "name": "WETH",
      "outputs": [
        {
          "internalType": "address",
          "name": "",
          "type": "address"
        }
      ],
      "stateMutability": "view",
      "type": "function"
    },
    {
      "inputs": [],
      "name": "acceptPendingGovernor",
      "outputs": [],
      "stateMutability": "nonpayable",
      "type": "function"
    },
    {
      "inputs": [
        {
          "internalType": "address[]",
          "name": "_addresses",
          "type": "address[]"
        },
        {
          "internalType": "address[]",
          "name": "_mappings",
          "type": "address[]"
        }
      ],
      "name": "addMappings",
      "outputs": [],
      "stateMutability": "nonpayable",
      "type": "function"
    },
    {
      "inputs": [
        {
          "internalType": "address",
          "name": "_tokenA",
          "type": "address"
        },
        {
          "internalType": "address",
          "name": "_tokenB",
          "type": "address"
        }
      ],
      "name": "addSupportForPairIfNeeded",
      "outputs": [],
      "stateMutability": "nonpayable",
      "type": "function"
    },
    {
      "inputs": [
        {
          "internalType": "address[]",
          "name": "_addresses",
          "type": "address[]"
        }
      ],
      "name": "addUSDStablecoins",
      "outputs": [],
      "stateMutability": "nonpayable",
      "type": "function"
    },
    {
      "inputs": [
        {
          "internalType": "address",
          "name": "_tokenA",
          "type": "address"
        },
        {
          "internalType": "address",
          "name": "_tokenB",
          "type": "address"
        }
      ],
      "name": "canSupportPair",
      "outputs": [
        {
          "internalType": "bool",
          "name": "",
          "type": "bool"
        }
      ],
      "stateMutability": "view",
      "type": "function"
    },
    {
      "inputs": [],
      "name": "governor",
      "outputs": [
        {
          "internalType": "address",
          "name": "",
          "type": "address"
        }
      ],
      "stateMutability": "view",
      "type": "function"
    },
    {
      "inputs": [
        {
          "internalType": "address",
          "name": "_account",
          "type": "address"
        }
      ],
      "name": "isGovernor",
      "outputs": [
        {
          "internalType": "bool",
          "name": "_isGovernor",
          "type": "bool"
        }
      ],
      "stateMutability": "view",
      "type": "function"
    },
    {
      "inputs": [
        {
          "internalType": "address",
          "name": "_account",
          "type": "address"
        }
      ],
      "name": "isPendingGovernor",
      "outputs": [
        {
          "internalType": "bool",
          "name": "_isPendingGovernor",
          "type": "bool"
        }
      ],
      "stateMutability": "view",
      "type": "function"
    },
    {
      "inputs": [
        {
          "internalType": "address",
          "name": "_token",
          "type": "address"
        }
      ],
      "name": "mappedToken",
      "outputs": [
        {
          "internalType": "address",
          "name": "",
          "type": "address"
        }
      ],
      "stateMutability": "view",
      "type": "function"
    },
    {
      "inputs": [],
      "name": "maxDelay",
      "outputs": [
        {
          "internalType": "uint32",
          "name": "",
          "type": "uint32"
        }
      ],
      "stateMutability": "view",
      "type": "function"
    },
    {
      "inputs": [],
      "name": "pendingGovernor",
      "outputs": [
        {
          "internalType": "address",
          "name": "",
          "type": "address"
        }
      ],
      "stateMutability": "view",
      "type": "function"
    },
    {
      "inputs": [
        {
          "internalType": "address",
          "name": "",
          "type": "address"
        },
        {
          "internalType": "address",
          "name": "",
          "type": "address"
        }
      ],
      "name": "planForPair",
      "outputs": [
        {
          "internalType": "enum IChainlinkOracle.PricingPlan",
          "name": "",
          "type": "uint8"
        }
      ],
      "stateMutability": "view",
      "type": "function"
    },
    {
      "inputs": [
        {
          "internalType": "address",
          "name": "_tokenIn",
          "type": "address"
        },
        {
          "internalType": "uint128",
          "name": "_amountIn",
          "type": "uint128"
        },
        {
          "internalType": "address",
          "name": "_tokenOut",
          "type": "address"
        }
      ],
      "name": "quote",
      "outputs": [
        {
          "internalType": "uint256",
          "name": "_amountOut",
          "type": "uint256"
        }
      ],
      "stateMutability": "view",
      "type": "function"
    },
    {
      "inputs": [
        {
          "internalType": "address",
          "name": "_tokenA",
          "type": "address"
        },
        {
          "internalType": "address",
          "name": "_tokenB",
          "type": "address"
        }
      ],
      "name": "reconfigureSupportForPair",
      "outputs": [],
      "stateMutability": "nonpayable",
      "type": "function"
    },
    {
      "inputs": [],
      "name": "registry",
      "outputs": [
        {
          "internalType": "contract FeedRegistryInterface",
          "name": "",
          "type": "address"
        }
      ],
      "stateMutability": "view",
      "type": "function"
    },
    {
      "inputs": [
        {
          "internalType": "address",
          "name": "__pendingGovernor",
          "type": "address"
        }
      ],
      "name": "setPendingGovernor",
      "outputs": [],
      "stateMutability": "nonpayable",
      "type": "function"
    }
  ],
  "transactionHash": "0xc36d169ccefdbc4a6ff7cac39e188c5470f56ff23c7ba50e8da575bc5ad03f94",
  "args": [
    "0x4200000000000000000000000000000000000006",
    "0x2dfb2c5c013826a0728440d8036305b254ad9cce",
    "4294967295",
    "0x1a00e1E311009E56e3b0B9Ed6F86f5Ce128a1C01"
  ],
  "solcInputHash": "c05c06b1a5e910552d4718935471de1d",
  "bytecode": "0x60e06040523480156200001157600080fd5b5060405162001c1f38038062001c1f833981016040819052620000349162000141565b806001600160a01b038116620000905760405162461bcd60e51b815260206004820152601860248201527f476f7665726e61626c653a207a65726f20616464726573730000000000000000604482015260640160405180910390fd5b600080546001600160a01b0319166001600160a01b0392831617905584161580620000c257506001600160a01b038316155b15620000e15760405163d92e233d60e01b815260040160405180910390fd5b63ffffffff82166200010657604051632c4f52fb60e21b815260040160405180910390fd5b506001600160a01b0391821660805263ffffffff1660c0521660a052620001b1565b6001600160a01b03811681146200013e57600080fd5b50565b600080600080608085870312156200015857600080fd5b8451620001658162000128565b6020860151909450620001788162000128565b604086015190935063ffffffff811681146200019357600080fd5b6060860151909250620001a68162000128565b939692955090935050565b60805160a05160c051611a0662000219600039600081816102ca015281816113b301526113ea01526000818161021301528181610a1701528181610bed01528181610ca1015261123e0152600081816101b801528181611126015261131c0152611a066000f3fe608060405234801561001057600080fd5b506004361061010b5760003560e01c80637f55db3a116100a2578063e3056a3411610071578063e3056a3414610257578063e43581b814610268578063e82138cd1461028a578063ed49d2f8146102c5578063f235757f1461030157600080fd5b80637f55db3a146101da578063a513355f146101ed578063ad5c46481461020e578063df08aed51461023557600080fd5b80636edc6632116100de5780636edc66321461016a57806372c12c871461017d578063734273fd146101905780637b103999146101b357600080fd5b80630c340a241461011057806313f6986d1461013a5780631d4ef30a146101445780634df3cad614610157575b600080fd5b6000546001600160a01b03165b6040516001600160a01b0390911681526020015b60405180910390f35b610142610314565b005b610142610152366004611485565b610387565b61011d610165366004611508565b6104b5565b610142610178366004611523565b61055d565b61014261018b366004611565565b610637565b6101a361019e366004611565565b610645565b6040519015158152602001610131565b61011d7f000000000000000000000000000000000000000000000000000000000000000081565b6101426101e8366004611565565b610688565b6102006101fb366004611598565b6106ec565b604051908152602001610131565b61011d7f000000000000000000000000000000000000000000000000000000000000000081565b6101a3610243366004611508565b6001546001600160a01b0391821691161490565b6001546001600160a01b031661011d565b6101a3610276366004611508565b6000546001600160a01b0391821691161490565b6102b8610298366004611565565b600260209081526000928352604080842090915290825290205460ff1681565b60405161013191906115ff565b6102ec7f000000000000000000000000000000000000000000000000000000000000000081565b60405163ffffffff9091168152602001610131565b61014261030f366004611508565b6107fd565b6001546001600160a01b0316331461037d5760405162461bcd60e51b815260206004820152602160248201527f476f7665726e61626c653a206f6e6c792070656e64696e6720676f7665726e6f6044820152603960f91b60648201526084015b60405180910390fd5b610385610833565b565b6000546001600160a01b031633146103b15760405162461bcd60e51b815260040161037490611627565b8281146103d1576040516306e3b91560e11b815260040160405180910390fd5b60005b83811015610471578282828181106103ee576103ee61165e565b90506020020160208101906104039190611508565b600460008787858181106104195761041961165e565b905060200201602081019061042e9190611508565b6001600160a01b039081168252602082019290925260400160002080546001600160a01b03191692909116919091179055806104698161168a565b9150506103d4565b507f25967af46669513d9b32b10bce9dc8b094f9638e01d68bd4253fb634873b3d17848484846040516104a794939291906116ec565b60405180910390a150505050565b600046600114801561050957506001600160a01b03821673eb4c2781e4eba804ce9a9803c67d0893436bb27d148061050957506001600160a01b038216732260fac5e5542a773aa44fbcfedf7c193bc2c599145b15610529575073bbbbbbbbbbbbbbbbbbbbbbbbbbbbbbbbbbbbbbbb919050565b6001600160a01b03808316600090815260046020526040902054168061054f5782610551565b805b9392505050565b919050565b6000546001600160a01b031633146105875760405162461bcd60e51b815260040161037490611627565b60005b818110156105f9576001600360008585858181106105aa576105aa61165e565b90506020020160208101906105bf9190611508565b6001600160a01b031681526020810191909152604001600020805460ff1916911515919091179055806105f18161168a565b91505061058a565b507f0e1316bdb62d8b87b8c288a81e4bc638fbf187056521cd5f525a3c70dd812abf828260405161062b92919061171e565b60405180910390a15050565b61064182826108db565b5050565b600080600061065485856109be565b91509150600061066483836109ef565b9050600081600781111561067a5761067a6115e9565b141593505050505b92915050565b60008061069584846109be565b909250905060006001600160a01b0380841660009081526002602090815260408083209386168352929052205460ff1660078111156106d6576106d66115e9565b14156106e6576106e684846108db565b50505050565b60008060006106fb86856109be565b6001600160a01b03808316600090815260026020908152604080832093851683529290529081205492945090925060ff90911690816007811115610741576107416115e9565b1415610760576040516365db466f60e01b815260040160405180910390fd5b600061076b88610b31565b9050600061077887610b31565b9050600383600781111561078e5761078e6115e9565b116107b6576107aa898884848c6001600160801b031688610b95565b95505050505050610551565b60058360078111156107ca576107ca6115e9565b116107e6576107aa898884848c6001600160801b031688610d4f565b6107aa898884848c6001600160801b031688610de7565b6000546001600160a01b031633146108275760405162461bcd60e51b815260040161037490611627565b61083081610f1e565b50565b6001546001600160a01b031661088b5760405162461bcd60e51b815260206004820152601f60248201527f476f7665726e61626c653a206e6f2070656e64696e6720676f7665726e6f72006044820152606401610374565b60018054600080546001600160a01b03199081166001600160a01b0384161782559091169091556040517fdc57ca23c46d823853915ed5a090ca0ee9db5eb6a46f5c58e1c9158de861fd769190a1565b6000806108e884846109be565b9150915060006108f883836109ef565b9050600081600781111561090e5761090e6115e9565b141561092d576040516365db466f60e01b815260040160405180910390fd5b6001600160a01b038084166000908152600260209081526040808320938616835292905220805482919060ff1916600183600781111561096f5761096f6115e9565b0217905550604080516001600160a01b038086168252841660208201527fa0f87b02ca47ea06fb7d8fd30abf826222301c4e0cc359211c4254d49b4736ad910160405180910390a15050505050565b600080826001600160a01b0316846001600160a01b0316106109e15782846109e4565b83835b909590945092505050565b6000806109fb84610fc8565b90506000610a0884610fc8565b90506001600160a01b038581167f0000000000000000000000000000000000000000000000000000000000000000821690811491861614818015610a495750825b80610a595750838015610a595750805b15610a6b576001945050505050610682565b828015610a76575083155b15610a9357610a88876002600761106d565b945050505050610682565b838015610a9e575082155b15610ab057610a88866002600661106d565b8015610ac357610a88876006600361106d565b8115610ad657610a88866007600361106d565b610ae287610348611122565b15610af457610a88866004600661106d565b610b128773eeeeeeeeeeeeeeeeeeeeeeeeeeeeeeeeeeeeeeee611122565b15610b2457610a88866007600561106d565b5060009695505050505050565b6000816001600160a01b031663313ce5676040518163ffffffff1660e01b8152600401602060405180830381865afa158015610b71573d6000803e3d6000fd5b505050506040513d601f19601f82011682018060405250810190610682919061173a565b600080806003846007811115610bad57610bad6115e9565b14610bb9576008610bbc565b60125b90506000610bc98a610fc8565b80610c2157506003856007811115610be357610be36115e9565b148015610c2157507f00000000000000000000000000000000000000000000000000000000000000006001600160a01b03168a6001600160a01b0316145b90506001856007811115610c3757610c376115e9565b1415610c4c57610c456111e0565b9250610ce7565b6002856007811115610c6057610c606115e9565b1415610c8257610c45610c728a610fc8565b610c7c5789611207565b8a611207565b6003856007811115610c9657610c966115e9565b1415610ce757610ce47f00000000000000000000000000000000000000000000000000000000000000006001600160a01b03168a6001600160a01b031614610cde578961123a565b8a61123a565b92505b80610d2057610d16610cf9878561175d565b89610d04858b61177c565b610d0e919061177c565b60000b6112aa565b9350505050610d45565b610d1683610d3288610d0e8b876117bd565b610d3c9190611800565b610d0e8a611822565b9695505050505050565b6000806004836007811115610d6657610d666115e9565b14610d855773eeeeeeeeeeeeeeeeeeeeeeeeeeeeeeeeeeeeeeee610d89565b6103485b90506000610d9f610d998a6104b5565b836112ee565b90506000610db5610daf8a6104b5565b846112ee565b9050610dd981610dc5848961175d565b610dcf9190611800565b610d0e8a8a61177c565b9a9950505050505050505050565b6000806006836007811115610dfe57610dfe6115e9565b148015610e1c5750866001600160a01b0316886001600160a01b0316105b80610e5457506007836007811115610e3657610e366115e9565b148015610e545750866001600160a01b0316886001600160a01b0316115b90506000610e606111e0565b90508115610eca576000610e738a611207565b90506000610e808a61123a565b90506000610ea7610e91848a61175d565b6012610e9d8d8d61177c565b610d0e91906117bd565b905081610eb48583611800565b610ebe9190611800565b95505050505050610d45565b6000610ed58a61123a565b90506000610ee28a611207565b9050610f138184610ef3858b61175d565b610efd919061175d565b610f079190611800565b6012610d048c8c61177c565b945050505050610d45565b6001600160a01b038116610f745760405162461bcd60e51b815260206004820152601860248201527f476f7665726e61626c653a207a65726f206164647265737300000000000000006044820152606401610374565b600180546001600160a01b0319166001600160a01b0383169081179091556040519081527f56bddfa0cee9697cebddf9acd7f23dc6583663b05e007b877056d05017994def9060200160405180910390a150565b60008046600114801561104457506001600160a01b038316736b175474e89094c44da98b954eedeac495271d0f148061101d57506001600160a01b03831673a0b86991c6218b36c1d19d4a2e9eb0ce3606eb48145b8061104457506001600160a01b03831673dac17f958d2ee523a2206206994597c13d831ec7145b90508080610551575050506001600160a01b031660009081526003602052604090205460ff1690565b6000806000806000856007811115611087576110876115e9565b876007811115611099576110996115e9565b106110bd5773eeeeeeeeeeeeeeeeeeeeeeeeeeeeeeeeeeeeeeee86610348896110d8565b6103488773eeeeeeeeeeeeeeeeeeeeeeeeeeeeeeeeeeeeeeee885b93509350935093506110ea8885611122565b156110fb5782945050505050610551565b6111058883611122565b1561111557935061055192505050565b6000945050505050610551565b60007f00000000000000000000000000000000000000000000000000000000000000006001600160a01b031663bcfd032d61115c856104b5565b6040516001600160e01b031960e084901b1681526001600160a01b039182166004820152908516602482015260440160a060405180830381865afa9250505080156111c4575060408051601f3d908101601f191682019092526111c19181019061185c565b60015b6111d057506000610682565b6000841395505050505050610682565b600061120273eeeeeeeeeeeeeeeeeeeeeeeeeeeeeeeeeeeeeeee6103486112ee565b905090565b600061121282610fc8565b61122f5761122a611222836104b5565b6103486112ee565b610682565b6305f5e10092915050565b60007f00000000000000000000000000000000000000000000000000000000000000006001600160a01b0316826001600160a01b03161461129b5761122a611281836104b5565b73eeeeeeeeeeeeeeeeeeeeeeeeeeeeeeeeeeeeeeee6112ee565b670de0b6b3a764000092915050565b6000808212156112d9576112bd826118ac565b6112c890600a6119ad565b6112d29084611800565b9050610682565b6112e482600a6119ad565b6112d2908461175d565b60405163bcfd032d60e01b81526001600160a01b0383811660048301528281166024830152600091829182917f00000000000000000000000000000000000000000000000000000000000000009091169063bcfd032d9060440160a060405180830381865afa158015611365573d6000803e3d6000fd5b505050506040513d601f19601f82011682018060405250810190611389919061185c565b50935050925050600082136113b05760405162bfc92160e01b815260040160405180910390fd5b427f000000000000000000000000000000000000000000000000000000000000000063ffffffff16108015611413575061141063ffffffff7f000000000000000000000000000000000000000000000000000000000000000016426119b9565b81105b15611431576040516346ea729360e01b815260040160405180910390fd5b509392505050565b60008083601f84011261144b57600080fd5b50813567ffffffffffffffff81111561146357600080fd5b6020830191508360208260051b850101111561147e57600080fd5b9250929050565b6000806000806040858703121561149b57600080fd5b843567ffffffffffffffff808211156114b357600080fd5b6114bf88838901611439565b909650945060208701359150808211156114d857600080fd5b506114e587828801611439565b95989497509550505050565b80356001600160a01b038116811461055857600080fd5b60006020828403121561151a57600080fd5b610551826114f1565b6000806020838503121561153657600080fd5b823567ffffffffffffffff81111561154d57600080fd5b61155985828601611439565b90969095509350505050565b6000806040838503121561157857600080fd5b611581836114f1565b915061158f602084016114f1565b90509250929050565b6000806000606084860312156115ad57600080fd5b6115b6846114f1565b925060208401356001600160801b03811681146115d257600080fd5b91506115e0604085016114f1565b90509250925092565b634e487b7160e01b600052602160045260246000fd5b602081016008831061162157634e487b7160e01b600052602160045260246000fd5b91905290565b60208082526019908201527f476f7665726e61626c653a206f6e6c7920676f7665726e6f7200000000000000604082015260600190565b634e487b7160e01b600052603260045260246000fd5b634e487b7160e01b600052601160045260246000fd5b600060001982141561169e5761169e611674565b5060010190565b8183526000602080850194508260005b858110156116e1576001600160a01b036116ce836114f1565b16875295820195908201906001016116b5565b509495945050505050565b6040815260006117006040830186886116a5565b82810360208401526117138185876116a5565b979650505050505050565b6020815260006117326020830184866116a5565b949350505050565b60006020828403121561174c57600080fd5b815160ff8116811461055157600080fd5b600081600019048311821515161561177757611777611674565b500290565b600081810b83820b8281128015607f1983018412161561179e5761179e611674565b81607f0183138116156117b3576117b3611674565b5090039392505050565b60008160000b8360000b6000821282607f038213811516156117e1576117e1611674565b82607f190382128116156117f7576117f7611674565b50019392505050565b60008261181d57634e487b7160e01b600052601260045260246000fd5b500490565b600081810b607f1981141561183957611839611674565b60000392915050565b805169ffffffffffffffffffff8116811461055857600080fd5b600080600080600060a0868803121561187457600080fd5b61187d86611842565b94506020860151935060408601519250606086015191506118a060808701611842565b90509295509295909350565b6000600160ff1b8214156118c2576118c2611674565b5060000390565b600181815b808511156119045781600019048211156118ea576118ea611674565b808516156118f757918102915b93841c93908002906118ce565b509250929050565b60008261191b57506001610682565b8161192857506000610682565b816001811461193e576002811461194857611964565b6001915050610682565b60ff84111561195957611959611674565b50506001821b610682565b5060208310610133831016604e8410600b8410161715611987575081810a610682565b61199183836118c9565b80600019048211156119a5576119a5611674565b029392505050565b6000610551838361190c565b6000828210156119cb576119cb611674565b50039056fea2646970667358221220edfef47bf084af73c846ef3673bc52855e19d7c6a8fa55d4272746d55072447564736f6c634300080a0033",
  "devdoc": {
    "kind": "dev",
    "methods": {
      "addMappings(address[],address[])": {
        "params": {
          "_addresses": "The addresses of the tokens",
          "_mappings": "The addresses of their mappings"
        }
      },
      "addSupportForPairIfNeeded(address,address)": {
        "details": "Will revert if pair cannot be supported. _tokenA and _tokenB may be passed in either tokenA/tokenB or tokenB/tokenA order",
        "params": {
          "_tokenA": "One of the pair's tokens",
          "_tokenB": "The other of the pair's tokens"
        }
      },
      "addUSDStablecoins(address[])": {
        "params": {
          "_addresses": "The addresses of the tokens"
        }
      },
      "canSupportPair(address,address)": {
        "details": "_tokenA and _tokenB may be passed in either tokenA/tokenB or tokenB/tokenA order",
        "params": {
          "_tokenA": "One of the pair's tokens",
          "_tokenB": "The other of the pair's tokens"
        },
        "returns": {
          "_0": "Whether the given pair of tokens can be supported by the oracle"
        }
      },
      "mappedToken(address)": {
        "returns": {
          "_0": "If it exists, the mapping is returned. Otherwise, the original token is returned"
        }
      },
      "quote(address,uint128,address)": {
        "params": {
          "_amountIn": "The amount that will be provided",
          "_tokenIn": "The token that will be provided",
          "_tokenOut": "The token we would like to quote"
        },
        "returns": {
          "_amountOut": "How much _tokenOut will be returned in exchange for _amountIn amount of _tokenIn"
        }
      },
      "reconfigureSupportForPair(address,address)": {
        "details": "Will revert if pair cannot be supported. _tokenA and _tokenB may be passed in either tokenA/tokenB or tokenB/tokenA order",
        "params": {
          "_tokenA": "One of the pair's tokens",
          "_tokenB": "The other of the pair's tokens"
        }
      }
    },
    "stateVariables": {
      "WETH": {
        "return": "The address of the token",
        "returns": {
          "_0": "The address of the token"
        }
      },
      "maxDelay": {
        "return": "How old the last price update can be in seconds",
        "returns": {
          "_0": "How old the last price update can be in seconds"
        }
      },
      "planForPair": {
        "details": "It is expected that _tokenA < _tokenB",
        "return": "The pricing plan that will be used",
        "returns": {
          "_0": "The pricing plan that will be used"
        }
      },
      "registry": {
        "return": "The Chainlink registry",
        "returns": {
          "_0": "The Chainlink registry"
        }
      }
    },
    "version": 1
  },
  "userdoc": {
    "errors": {
      "InvalidMappingsInput()": [
        {
          "notice": "Thrown when the input for adding mappings in invalid"
        }
      ],
      "InvalidPrice()": [
        {
          "notice": "Thrown when the price is non-positive"
        }
      ],
      "LastUpdateIsTooOld()": [
        {
          "notice": "Thrown when the last price update was too long ago"
        }
      ],
      "PairNotSupported()": [
        {
          "notice": "Thrown when trying to configure a pair that is not supported"
        }
      ],
      "ZeroAddress()": [
        {
          "notice": "Thrown when one of the parameters is a zero address"
        }
      ],
      "ZeroMaxDelay()": [
        {
          "notice": "Thrown when the given max delay is zero"
        }
      ]
    },
    "events": {
      "AddedSupportForPairInChainlinkOracle(address,address)": {
        "notice": "Emitted when the oracle add supports for a new pair"
      },
      "MappingsAdded(address[],address[])": {
        "notice": "Emitted when new mappings are added"
      },
      "TokensConsideredUSD(address[])": {
        "notice": "Emitted when new tokens are considered USD"
      }
    },
    "kind": "user",
    "methods": {
      "WETH()": {
        "notice": "Returns the address of the WETH ERC-20 token"
      },
      "addMappings(address[],address[])": {
        "notice": "Adds new token mappings"
      },
      "addSupportForPairIfNeeded(address,address)": {
        "notice": "Adds support for a given pair if the oracle didn't support it already. If called for a pair that is already supported, then nothing will happen. This function will let the oracle take some actions to configure the pair, in preparation for future quotes."
      },
      "addUSDStablecoins(address[])": {
        "notice": "Adds new tokens that should be considered USD stablecoins"
      },
      "canSupportPair(address,address)": {
        "notice": "Returns whether this oracle can support this pair of tokens"
      },
      "mappedToken(address)": {
        "notice": "Returns the mapping of the given token, if it exists. If it doesn't, then the original token is returned"
      },
      "maxDelay()": {
        "notice": "Returns how old the last price update can be before the oracle reverts by considering it too old"
      },
      "planForPair(address,address)": {
        "notice": "Returns the pricing plan that will be used when quoting the given pair"
      },
      "quote(address,uint128,address)": {
        "notice": "Returns a quote, based on the given tokens and amount"
      },
      "reconfigureSupportForPair(address,address)": {
        "notice": "Reconfigures support for a given pair. This function will let the oracle take some actions to configure the pair, in preparation for future quotes. Can be called many times in order to let the oracle re-configure for a new context."
      },
      "registry()": {
        "notice": "Returns the Chainlink feed registry"
      }
    },
    "version": 1
  },
  "storageLayout": {
    "storage": [
      {
        "astId": 16135,
        "contract": "contracts/oracles/ChainlinkOracle.sol:ChainlinkOracle",
        "label": "_governor",
        "offset": 0,
        "slot": "0",
        "type": "t_address"
      },
      {
        "astId": 16137,
        "contract": "contracts/oracles/ChainlinkOracle.sol:ChainlinkOracle",
        "label": "_pendingGovernor",
        "offset": 0,
        "slot": "1",
        "type": "t_address"
      },
      {
        "astId": 14555,
        "contract": "contracts/oracles/ChainlinkOracle.sol:ChainlinkOracle",
        "label": "planForPair",
        "offset": 0,
        "slot": "2",
        "type": "t_mapping(t_address,t_mapping(t_address,t_enum(PricingPlan)10564))"
      },
      {
        "astId": 14590,
        "contract": "contracts/oracles/ChainlinkOracle.sol:ChainlinkOracle",
        "label": "_shouldBeConsideredUSD",
        "offset": 0,
        "slot": "3",
        "type": "t_mapping(t_address,t_bool)"
      },
      {
        "astId": 14594,
        "contract": "contracts/oracles/ChainlinkOracle.sol:ChainlinkOracle",
        "label": "_tokenMappings",
        "offset": 0,
        "slot": "4",
        "type": "t_mapping(t_address,t_address)"
      }
    ],
    "types": {
      "t_address": {
        "encoding": "inplace",
        "label": "address",
        "numberOfBytes": "20"
      },
      "t_bool": {
        "encoding": "inplace",
        "label": "bool",
        "numberOfBytes": "1"
      },
      "t_enum(PricingPlan)10564": {
        "encoding": "inplace",
        "label": "enum IChainlinkOracle.PricingPlan",
        "numberOfBytes": "1"
      },
      "t_mapping(t_address,t_address)": {
        "encoding": "mapping",
        "key": "t_address",
        "label": "mapping(address => address)",
        "numberOfBytes": "32",
        "value": "t_address"
      },
      "t_mapping(t_address,t_bool)": {
        "encoding": "mapping",
        "key": "t_address",
        "label": "mapping(address => bool)",
        "numberOfBytes": "32",
        "value": "t_bool"
      },
      "t_mapping(t_address,t_enum(PricingPlan)10564)": {
        "encoding": "mapping",
        "key": "t_address",
        "label": "mapping(address => enum IChainlinkOracle.PricingPlan)",
        "numberOfBytes": "32",
        "value": "t_enum(PricingPlan)10564"
      },
      "t_mapping(t_address,t_mapping(t_address,t_enum(PricingPlan)10564))": {
        "encoding": "mapping",
        "key": "t_address",
        "label": "mapping(address => mapping(address => enum IChainlinkOracle.PricingPlan))",
        "numberOfBytes": "32",
        "value": "t_mapping(t_address,t_enum(PricingPlan)10564)"
      }
    }
  }
}