{
  "address": "0x2aCb69a8f2Ab6b496D482073eB70573A345a3272",
  "abi": [
    {
      "inputs": [
        {
          "internalType": "address",
          "name": "_immediateGovernor",
          "type": "address"
        },
        {
          "internalType": "address",
          "name": "_timeLockedGovernor",
          "type": "address"
        },
        {
          "internalType": "contract IPriceOracle",
          "name": "_oracle",
          "type": "address"
        },
        {
          "internalType": "contract IDCAPermissionManager",
          "name": "_permissionManager",
          "type": "address"
        }
      ],
      "stateMutability": "nonpayable",
      "type": "constructor"
    },
    {
      "inputs": [],
      "name": "AmountTooBig",
      "type": "error"
    },
    {
      "inputs": [],
      "name": "HighFee",
      "type": "error"
    },
    {
      "inputs": [],
      "name": "HighPlatformFeeRatio",
      "type": "error"
    },
    {
      "inputs": [],
      "name": "IntervalNotAllowed",
      "type": "error"
    },
    {
      "inputs": [],
      "name": "InvalidFee",
      "type": "error"
    },
    {
      "inputs": [],
      "name": "InvalidInterval",
      "type": "error"
    },
    {
      "inputs": [],
      "name": "InvalidMask",
      "type": "error"
    },
    {
      "inputs": [],
      "name": "InvalidPairs",
      "type": "error"
    },
    {
      "inputs": [],
      "name": "InvalidPosition",
      "type": "error"
    },
    {
      "inputs": [],
      "name": "InvalidToken",
      "type": "error"
    },
    {
      "inputs": [],
      "name": "InvalidTokens",
      "type": "error"
    },
    {
      "inputs": [],
      "name": "LiquidityNotReturned",
      "type": "error"
    },
    {
      "inputs": [],
      "name": "NoSwapsToExecute",
      "type": "error"
    },
    {
      "inputs": [],
      "name": "PositionDoesNotMatchToken",
      "type": "error"
    },
    {
      "inputs": [],
      "name": "UnauthorizedCaller",
      "type": "error"
    },
    {
      "inputs": [],
      "name": "ZeroAddress",
      "type": "error"
    },
    {
      "inputs": [],
      "name": "ZeroAmount",
      "type": "error"
    },
    {
      "inputs": [],
      "name": "ZeroSwaps",
      "type": "error"
    },
    {
      "anonymous": false,
      "inputs": [
        {
          "indexed": true,
          "internalType": "address",
          "name": "depositor",
          "type": "address"
        },
        {
          "indexed": true,
          "internalType": "address",
          "name": "owner",
          "type": "address"
        },
        {
          "indexed": false,
          "internalType": "uint256",
          "name": "positionId",
          "type": "uint256"
        },
        {
          "indexed": false,
          "internalType": "address",
          "name": "fromToken",
          "type": "address"
        },
        {
          "indexed": false,
          "internalType": "address",
          "name": "toToken",
          "type": "address"
        },
        {
          "indexed": false,
          "internalType": "uint32",
          "name": "swapInterval",
          "type": "uint32"
        },
        {
          "indexed": false,
          "internalType": "uint120",
          "name": "rate",
          "type": "uint120"
        },
        {
          "indexed": false,
          "internalType": "uint32",
          "name": "startingSwap",
          "type": "uint32"
        },
        {
          "indexed": false,
          "internalType": "uint32",
          "name": "lastSwap",
          "type": "uint32"
        },
        {
          "components": [
            {
              "internalType": "address",
              "name": "operator",
              "type": "address"
            },
            {
              "internalType": "enum IDCAPermissionManager.Permission[]",
              "name": "permissions",
              "type": "uint8[]"
            }
          ],
          "indexed": false,
          "internalType": "struct IDCAPermissionManager.PermissionSet[]",
          "name": "permissions",
          "type": "tuple[]"
        }
      ],
      "name": "Deposited",
      "type": "event"
    },
    {
      "anonymous": false,
      "inputs": [
        {
          "indexed": false,
          "internalType": "uint32",
          "name": "_feeSet",
          "type": "uint32"
        }
      ],
      "name": "LoanFeeSet",
      "type": "event"
    },
    {
      "anonymous": false,
      "inputs": [
        {
          "indexed": true,
          "internalType": "address",
          "name": "sender",
          "type": "address"
        },
        {
          "indexed": true,
          "internalType": "address",
          "name": "to",
          "type": "address"
        },
        {
          "components": [
            {
              "internalType": "address",
              "name": "token",
              "type": "address"
            },
            {
              "internalType": "uint256",
              "name": "amount",
              "type": "uint256"
            }
          ],
          "indexed": false,
          "internalType": "struct IDCAHub.AmountOfToken[]",
          "name": "loan",
          "type": "tuple[]"
        },
        {
          "indexed": false,
          "internalType": "uint32",
          "name": "fee",
          "type": "uint32"
        }
      ],
      "name": "Loaned",
      "type": "event"
    },
    {
      "anonymous": false,
      "inputs": [
        {
          "indexed": true,
          "internalType": "address",
          "name": "user",
          "type": "address"
        },
        {
          "indexed": false,
          "internalType": "uint256",
          "name": "positionId",
          "type": "uint256"
        },
        {
          "indexed": false,
          "internalType": "uint120",
          "name": "rate",
          "type": "uint120"
        },
        {
          "indexed": false,
          "internalType": "uint32",
          "name": "startingSwap",
          "type": "uint32"
        },
        {
          "indexed": false,
          "internalType": "uint32",
          "name": "lastSwap",
          "type": "uint32"
        }
      ],
      "name": "Modified",
      "type": "event"
    },
    {
      "anonymous": false,
      "inputs": [
        {
          "indexed": false,
          "internalType": "contract IPriceOracle",
          "name": "_oracle",
          "type": "address"
        }
      ],
      "name": "OracleSet",
      "type": "event"
    },
    {
      "anonymous": false,
      "inputs": [
        {
          "indexed": false,
          "internalType": "address",
          "name": "account",
          "type": "address"
        }
      ],
      "name": "Paused",
      "type": "event"
    },
    {
      "anonymous": false,
      "inputs": [
        {
          "indexed": false,
          "internalType": "uint16",
          "name": "_platformFeeRatio",
          "type": "uint16"
        }
      ],
      "name": "PlatformFeeRatioSet",
      "type": "event"
    },
    {
      "anonymous": false,
      "inputs": [
        {
          "indexed": true,
          "internalType": "bytes32",
          "name": "role",
          "type": "bytes32"
        },
        {
          "indexed": true,
          "internalType": "bytes32",
          "name": "previousAdminRole",
          "type": "bytes32"
        },
        {
          "indexed": true,
          "internalType": "bytes32",
          "name": "newAdminRole",
          "type": "bytes32"
        }
      ],
      "name": "RoleAdminChanged",
      "type": "event"
    },
    {
      "anonymous": false,
      "inputs": [
        {
          "indexed": true,
          "internalType": "bytes32",
          "name": "role",
          "type": "bytes32"
        },
        {
          "indexed": true,
          "internalType": "address",
          "name": "account",
          "type": "address"
        },
        {
          "indexed": true,
          "internalType": "address",
          "name": "sender",
          "type": "address"
        }
      ],
      "name": "RoleGranted",
      "type": "event"
    },
    {
      "anonymous": false,
      "inputs": [
        {
          "indexed": true,
          "internalType": "bytes32",
          "name": "role",
          "type": "bytes32"
        },
        {
          "indexed": true,
          "internalType": "address",
          "name": "account",
          "type": "address"
        },
        {
          "indexed": true,
          "internalType": "address",
          "name": "sender",
          "type": "address"
        }
      ],
      "name": "RoleRevoked",
      "type": "event"
    },
    {
      "anonymous": false,
      "inputs": [
        {
          "indexed": false,
          "internalType": "uint32",
          "name": "_feeSet",
          "type": "uint32"
        }
      ],
      "name": "SwapFeeSet",
      "type": "event"
    },
    {
      "anonymous": false,
      "inputs": [
        {
          "indexed": false,
          "internalType": "uint32[]",
          "name": "_swapIntervals",
          "type": "uint32[]"
        }
      ],
      "name": "SwapIntervalsAllowed",
      "type": "event"
    },
    {
      "anonymous": false,
      "inputs": [
        {
          "indexed": false,
          "internalType": "uint32[]",
          "name": "_swapIntervals",
          "type": "uint32[]"
        }
      ],
      "name": "SwapIntervalsForbidden",
      "type": "event"
    },
    {
      "anonymous": false,
      "inputs": [
        {
          "indexed": true,
          "internalType": "address",
          "name": "sender",
          "type": "address"
        },
        {
          "indexed": true,
          "internalType": "address",
          "name": "rewardRecipient",
          "type": "address"
        },
        {
          "indexed": true,
          "internalType": "address",
          "name": "callbackHandler",
          "type": "address"
        },
        {
          "components": [
            {
              "components": [
                {
                  "internalType": "address",
                  "name": "token",
                  "type": "address"
                },
                {
                  "internalType": "uint256",
                  "name": "reward",
                  "type": "uint256"
                },
                {
                  "internalType": "uint256",
                  "name": "toProvide",
                  "type": "uint256"
                },
                {
                  "internalType": "uint256",
                  "name": "platformFee",
                  "type": "uint256"
                }
              ],
              "internalType": "struct IDCAHubSwapHandler.TokenInSwap[]",
              "name": "tokens",
              "type": "tuple[]"
            },
            {
              "components": [
                {
                  "internalType": "address",
                  "name": "tokenA",
                  "type": "address"
                },
                {
                  "internalType": "address",
                  "name": "tokenB",
                  "type": "address"
                },
                {
                  "internalType": "uint256",
                  "name": "ratioAToB",
                  "type": "uint256"
                },
                {
                  "internalType": "uint256",
                  "name": "ratioBToA",
                  "type": "uint256"
                },
                {
                  "internalType": "bytes1",
                  "name": "intervalsInSwap",
                  "type": "bytes1"
                }
              ],
              "internalType": "struct IDCAHubSwapHandler.PairInSwap[]",
              "name": "pairs",
              "type": "tuple[]"
            }
          ],
          "indexed": false,
          "internalType": "struct IDCAHubSwapHandler.SwapInfo",
          "name": "swapInformation",
          "type": "tuple"
        },
        {
          "indexed": false,
          "internalType": "uint256[]",
          "name": "borrowed",
          "type": "uint256[]"
        },
        {
          "indexed": false,
          "internalType": "uint32",
          "name": "fee",
          "type": "uint32"
        }
      ],
      "name": "Swapped",
      "type": "event"
    },
    {
      "anonymous": false,
      "inputs": [
        {
          "indexed": true,
          "internalType": "address",
          "name": "user",
          "type": "address"
        },
        {
          "indexed": true,
          "internalType": "address",
          "name": "recipientUnswapped",
          "type": "address"
        },
        {
          "indexed": true,
          "internalType": "address",
          "name": "recipientSwapped",
          "type": "address"
        },
        {
          "indexed": false,
          "internalType": "uint256",
          "name": "positionId",
          "type": "uint256"
        },
        {
          "indexed": false,
          "internalType": "uint256",
          "name": "returnedUnswapped",
          "type": "uint256"
        },
        {
          "indexed": false,
          "internalType": "uint256",
          "name": "returnedSwapped",
          "type": "uint256"
        }
      ],
      "name": "Terminated",
      "type": "event"
    },
    {
      "anonymous": false,
      "inputs": [
        {
          "indexed": false,
          "internalType": "address",
          "name": "account",
          "type": "address"
        }
      ],
      "name": "Unpaused",
      "type": "event"
    },
    {
      "anonymous": false,
      "inputs": [
        {
          "indexed": true,
          "internalType": "address",
          "name": "withdrawer",
          "type": "address"
        },
        {
          "indexed": true,
          "internalType": "address",
          "name": "recipient",
          "type": "address"
        },
        {
          "indexed": false,
          "internalType": "uint256",
          "name": "positionId",
          "type": "uint256"
        },
        {
          "indexed": false,
          "internalType": "address",
          "name": "token",
          "type": "address"
        },
        {
          "indexed": false,
          "internalType": "uint256",
          "name": "amount",
          "type": "uint256"
        }
      ],
      "name": "Withdrew",
      "type": "event"
    },
    {
      "anonymous": false,
      "inputs": [
        {
          "indexed": true,
          "internalType": "address",
          "name": "sender",
          "type": "address"
        },
        {
          "indexed": true,
          "internalType": "address",
          "name": "recipient",
          "type": "address"
        },
        {
          "components": [
            {
              "internalType": "address",
              "name": "token",
              "type": "address"
            },
            {
              "internalType": "uint256",
              "name": "amount",
              "type": "uint256"
            }
          ],
          "indexed": false,
          "internalType": "struct IDCAHub.AmountOfToken[]",
          "name": "amounts",
          "type": "tuple[]"
        }
      ],
      "name": "WithdrewFromPlatform",
      "type": "event"
    },
    {
      "anonymous": false,
      "inputs": [
        {
          "indexed": true,
          "internalType": "address",
          "name": "withdrawer",
          "type": "address"
        },
        {
          "indexed": true,
          "internalType": "address",
          "name": "recipient",
          "type": "address"
        },
        {
          "components": [
            {
              "internalType": "address",
              "name": "token",
              "type": "address"
            },
            {
              "internalType": "uint256[]",
              "name": "positionIds",
              "type": "uint256[]"
            }
          ],
          "indexed": false,
          "internalType": "struct IDCAHubPositionHandler.PositionSet[]",
          "name": "positions",
          "type": "tuple[]"
        },
        {
          "indexed": false,
          "internalType": "uint256[]",
          "name": "withdrew",
          "type": "uint256[]"
        }
      ],
      "name": "WithdrewMany",
      "type": "event"
    },
    {
      "inputs": [],
      "name": "DEFAULT_ADMIN_ROLE",
      "outputs": [
        {
          "internalType": "bytes32",
          "name": "",
          "type": "bytes32"
        }
      ],
      "stateMutability": "view",
      "type": "function"
    },
    {
      "inputs": [],
      "name": "IMMEDIATE_ROLE",
      "outputs": [
        {
          "internalType": "bytes32",
          "name": "",
          "type": "bytes32"
        }
      ],
      "stateMutability": "view",
      "type": "function"
    },
    {
      "inputs": [],
      "name": "MAX_FEE",
      "outputs": [
        {
          "internalType": "uint32",
          "name": "",
          "type": "uint32"
        }
      ],
      "stateMutability": "view",
      "type": "function"
    },
    {
      "inputs": [],
      "name": "MAX_PLATFORM_FEE_RATIO",
      "outputs": [
        {
          "internalType": "uint16",
          "name": "",
          "type": "uint16"
        }
      ],
      "stateMutability": "view",
      "type": "function"
    },
    {
      "inputs": [],
      "name": "PLATFORM_WITHDRAW_ROLE",
      "outputs": [
        {
          "internalType": "bytes32",
          "name": "",
          "type": "bytes32"
        }
      ],
      "stateMutability": "view",
      "type": "function"
    },
    {
      "inputs": [],
      "name": "TIME_LOCKED_ROLE",
      "outputs": [
        {
          "internalType": "bytes32",
          "name": "",
          "type": "bytes32"
        }
      ],
      "stateMutability": "view",
      "type": "function"
    },
    {
      "inputs": [
        {
          "internalType": "address",
          "name": "_tokenA",
          "type": "address"
        },
        {
          "internalType": "address",
          "name": "_tokenB",
          "type": "address"
        },
        {
          "internalType": "bytes1",
          "name": "_swapIntervalMask",
          "type": "bytes1"
        },
        {
          "internalType": "uint32",
          "name": "_swapNumber",
          "type": "uint32"
        }
      ],
      "name": "accumRatio",
      "outputs": [
        {
          "components": [
            {
              "internalType": "uint256",
              "name": "accumRatioAToB",
              "type": "uint256"
            },
            {
              "internalType": "uint256",
              "name": "accumRatioBToA",
              "type": "uint256"
            }
          ],
          "internalType": "struct IDCAHubParameters.AccumRatio",
          "name": "",
          "type": "tuple"
        }
      ],
      "stateMutability": "view",
      "type": "function"
    },
    {
      "inputs": [
        {
          "internalType": "address",
          "name": "",
          "type": "address"
        },
        {
          "internalType": "address",
          "name": "",
          "type": "address"
        }
      ],
      "name": "activeSwapIntervals",
      "outputs": [
        {
          "internalType": "bytes1",
          "name": "",
          "type": "bytes1"
        }
      ],
      "stateMutability": "view",
      "type": "function"
    },
    {
      "inputs": [
        {
          "internalType": "uint32[]",
          "name": "_swapIntervals",
          "type": "uint32[]"
        }
      ],
      "name": "addSwapIntervalsToAllowedList",
      "outputs": [],
      "stateMutability": "nonpayable",
      "type": "function"
    },
    {
      "inputs": [],
      "name": "allowedSwapIntervals",
      "outputs": [
        {
          "internalType": "bytes1",
          "name": "",
          "type": "bytes1"
        }
      ],
      "stateMutability": "view",
      "type": "function"
    },
    {
      "inputs": [
        {
          "internalType": "address",
          "name": "_from",
          "type": "address"
        },
        {
          "internalType": "address",
          "name": "_to",
          "type": "address"
        },
        {
          "internalType": "uint256",
          "name": "_amount",
          "type": "uint256"
        },
        {
          "internalType": "uint32",
          "name": "_amountOfSwaps",
          "type": "uint32"
        },
        {
          "internalType": "uint32",
          "name": "_swapInterval",
          "type": "uint32"
        },
        {
          "internalType": "address",
          "name": "_owner",
          "type": "address"
        },
        {
          "components": [
            {
              "internalType": "address",
              "name": "operator",
              "type": "address"
            },
            {
              "internalType": "enum IDCAPermissionManager.Permission[]",
              "name": "permissions",
              "type": "uint8[]"
            }
          ],
          "internalType": "struct IDCAPermissionManager.PermissionSet[]",
          "name": "_permissions",
          "type": "tuple[]"
        }
      ],
      "name": "deposit",
      "outputs": [
        {
          "internalType": "uint256",
          "name": "",
          "type": "uint256"
        }
      ],
      "stateMutability": "nonpayable",
      "type": "function"
    },
    {
      "inputs": [
        {
          "internalType": "address[]",
          "name": "_tokens",
          "type": "address[]"
        },
        {
          "components": [
            {
              "internalType": "uint8",
              "name": "indexTokenA",
              "type": "uint8"
            },
            {
              "internalType": "uint8",
              "name": "indexTokenB",
              "type": "uint8"
            }
          ],
          "internalType": "struct IDCAHubSwapHandler.PairIndexes[]",
          "name": "_pairs",
          "type": "tuple[]"
        }
      ],
      "name": "getNextSwapInfo",
      "outputs": [
        {
          "components": [
            {
              "components": [
                {
                  "internalType": "address",
                  "name": "token",
                  "type": "address"
                },
                {
                  "internalType": "uint256",
                  "name": "reward",
                  "type": "uint256"
                },
                {
                  "internalType": "uint256",
                  "name": "toProvide",
                  "type": "uint256"
                },
                {
                  "internalType": "uint256",
                  "name": "platformFee",
                  "type": "uint256"
                }
              ],
              "internalType": "struct IDCAHubSwapHandler.TokenInSwap[]",
              "name": "tokens",
              "type": "tuple[]"
            },
            {
              "components": [
                {
                  "internalType": "address",
                  "name": "tokenA",
                  "type": "address"
                },
                {
                  "internalType": "address",
                  "name": "tokenB",
                  "type": "address"
                },
                {
                  "internalType": "uint256",
                  "name": "ratioAToB",
                  "type": "uint256"
                },
                {
                  "internalType": "uint256",
                  "name": "ratioBToA",
                  "type": "uint256"
                },
                {
                  "internalType": "bytes1",
                  "name": "intervalsInSwap",
                  "type": "bytes1"
                }
              ],
              "internalType": "struct IDCAHubSwapHandler.PairInSwap[]",
              "name": "pairs",
              "type": "tuple[]"
            }
          ],
          "internalType": "struct IDCAHubSwapHandler.SwapInfo",
          "name": "_swapInformation",
          "type": "tuple"
        }
      ],
      "stateMutability": "view",
      "type": "function"
    },
    {
      "inputs": [
        {
          "internalType": "bytes32",
          "name": "role",
          "type": "bytes32"
        }
      ],
      "name": "getRoleAdmin",
      "outputs": [
        {
          "internalType": "bytes32",
          "name": "",
          "type": "bytes32"
        }
      ],
      "stateMutability": "view",
      "type": "function"
    },
    {
      "inputs": [
        {
          "internalType": "bytes32",
          "name": "role",
          "type": "bytes32"
        },
        {
          "internalType": "address",
          "name": "account",
          "type": "address"
        }
      ],
      "name": "grantRole",
      "outputs": [],
      "stateMutability": "nonpayable",
      "type": "function"
    },
    {
      "inputs": [
        {
          "internalType": "bytes32",
          "name": "role",
          "type": "bytes32"
        },
        {
          "internalType": "address",
          "name": "account",
          "type": "address"
        }
      ],
      "name": "hasRole",
      "outputs": [
        {
          "internalType": "bool",
          "name": "",
          "type": "bool"
        }
      ],
      "stateMutability": "view",
      "type": "function"
    },
    {
      "inputs": [
        {
          "internalType": "uint256",
          "name": "_positionId",
          "type": "uint256"
        },
        {
          "internalType": "uint256",
          "name": "_amount",
          "type": "uint256"
        },
        {
          "internalType": "uint32",
          "name": "_newAmountOfSwaps",
          "type": "uint32"
        }
      ],
      "name": "increasePosition",
      "outputs": [],
      "stateMutability": "nonpayable",
      "type": "function"
    },
    {
      "inputs": [
        {
          "components": [
            {
              "internalType": "address",
              "name": "token",
              "type": "address"
            },
            {
              "internalType": "uint256",
              "name": "amount",
              "type": "uint256"
            }
          ],
          "internalType": "struct IDCAHub.AmountOfToken[]",
          "name": "_loan",
          "type": "tuple[]"
        },
        {
          "internalType": "address",
          "name": "_to",
          "type": "address"
        },
        {
          "internalType": "bytes",
          "name": "_data",
          "type": "bytes"
        }
      ],
      "name": "loan",
      "outputs": [],
      "stateMutability": "nonpayable",
      "type": "function"
    },
    {
      "inputs": [],
      "name": "loanFee",
      "outputs": [
        {
          "internalType": "uint32",
          "name": "",
          "type": "uint32"
        }
      ],
      "stateMutability": "view",
      "type": "function"
    },
    {
      "inputs": [],
      "name": "oracle",
      "outputs": [
        {
          "internalType": "contract IPriceOracle",
          "name": "",
          "type": "address"
        }
      ],
      "stateMutability": "view",
      "type": "function"
    },
    {
      "inputs": [],
      "name": "pause",
      "outputs": [],
      "stateMutability": "nonpayable",
      "type": "function"
    },
    {
      "inputs": [],
      "name": "paused",
      "outputs": [
        {
          "internalType": "bool",
          "name": "",
          "type": "bool"
        }
      ],
      "stateMutability": "view",
      "type": "function"
    },
    {
      "inputs": [],
      "name": "permissionManager",
      "outputs": [
        {
          "internalType": "contract IDCAPermissionManager",
          "name": "",
          "type": "address"
        }
      ],
      "stateMutability": "view",
      "type": "function"
    },
    {
      "inputs": [
        {
          "internalType": "address",
          "name": "",
          "type": "address"
        }
      ],
      "name": "platformBalance",
      "outputs": [
        {
          "internalType": "uint256",
          "name": "",
          "type": "uint256"
        }
      ],
      "stateMutability": "view",
      "type": "function"
    },
    {
      "inputs": [],
      "name": "platformFeeRatio",
      "outputs": [
        {
          "internalType": "uint16",
          "name": "",
          "type": "uint16"
        }
      ],
      "stateMutability": "view",
      "type": "function"
    },
    {
      "inputs": [
        {
          "internalType": "uint256",
          "name": "_positionId",
          "type": "uint256"
        },
        {
          "internalType": "uint256",
          "name": "_amount",
          "type": "uint256"
        },
        {
          "internalType": "uint32",
          "name": "_newAmountOfSwaps",
          "type": "uint32"
        },
        {
          "internalType": "address",
          "name": "_recipient",
          "type": "address"
        }
      ],
      "name": "reducePosition",
      "outputs": [],
      "stateMutability": "nonpayable",
      "type": "function"
    },
    {
      "inputs": [
        {
          "internalType": "uint32[]",
          "name": "_swapIntervals",
          "type": "uint32[]"
        }
      ],
      "name": "removeSwapIntervalsFromAllowedList",
      "outputs": [],
      "stateMutability": "nonpayable",
      "type": "function"
    },
    {
      "inputs": [
        {
          "internalType": "bytes32",
          "name": "role",
          "type": "bytes32"
        },
        {
          "internalType": "address",
          "name": "account",
          "type": "address"
        }
      ],
      "name": "renounceRole",
      "outputs": [],
      "stateMutability": "nonpayable",
      "type": "function"
    },
    {
      "inputs": [
        {
          "internalType": "bytes32",
          "name": "role",
          "type": "bytes32"
        },
        {
          "internalType": "address",
          "name": "account",
          "type": "address"
        }
      ],
      "name": "revokeRole",
      "outputs": [],
      "stateMutability": "nonpayable",
      "type": "function"
    },
    {
      "inputs": [
        {
          "internalType": "uint32",
          "name": "_loanFee",
          "type": "uint32"
        }
      ],
      "name": "setLoanFee",
      "outputs": [],
      "stateMutability": "nonpayable",
      "type": "function"
    },
    {
      "inputs": [
        {
          "internalType": "contract IPriceOracle",
          "name": "_oracle",
          "type": "address"
        }
      ],
      "name": "setOracle",
      "outputs": [],
      "stateMutability": "nonpayable",
      "type": "function"
    },
    {
      "inputs": [
        {
          "internalType": "uint16",
          "name": "_platformFeeRatio",
          "type": "uint16"
        }
      ],
      "name": "setPlatformFeeRatio",
      "outputs": [],
      "stateMutability": "nonpayable",
      "type": "function"
    },
    {
      "inputs": [
        {
          "internalType": "uint32",
          "name": "_swapFee",
          "type": "uint32"
        }
      ],
      "name": "setSwapFee",
      "outputs": [],
      "stateMutability": "nonpayable",
      "type": "function"
    },
    {
      "inputs": [
        {
          "internalType": "bytes4",
          "name": "interfaceId",
          "type": "bytes4"
        }
      ],
      "name": "supportsInterface",
      "outputs": [
        {
          "internalType": "bool",
          "name": "",
          "type": "bool"
        }
      ],
      "stateMutability": "view",
      "type": "function"
    },
    {
      "inputs": [
        {
          "internalType": "address[]",
          "name": "_tokens",
          "type": "address[]"
        },
        {
          "components": [
            {
              "internalType": "uint8",
              "name": "indexTokenA",
              "type": "uint8"
            },
            {
              "internalType": "uint8",
              "name": "indexTokenB",
              "type": "uint8"
            }
          ],
          "internalType": "struct IDCAHubSwapHandler.PairIndexes[]",
          "name": "_pairsToSwap",
          "type": "tuple[]"
        },
        {
          "internalType": "address",
          "name": "_rewardRecipient",
          "type": "address"
        },
        {
          "internalType": "address",
          "name": "_callbackHandler",
          "type": "address"
        },
        {
          "internalType": "uint256[]",
          "name": "_borrow",
          "type": "uint256[]"
        },
        {
          "internalType": "bytes",
          "name": "_data",
          "type": "bytes"
        }
      ],
      "name": "swap",
      "outputs": [
        {
          "components": [
            {
              "components": [
                {
                  "internalType": "address",
                  "name": "token",
                  "type": "address"
                },
                {
                  "internalType": "uint256",
                  "name": "reward",
                  "type": "uint256"
                },
                {
                  "internalType": "uint256",
                  "name": "toProvide",
                  "type": "uint256"
                },
                {
                  "internalType": "uint256",
                  "name": "platformFee",
                  "type": "uint256"
                }
              ],
              "internalType": "struct IDCAHubSwapHandler.TokenInSwap[]",
              "name": "tokens",
              "type": "tuple[]"
            },
            {
              "components": [
                {
                  "internalType": "address",
                  "name": "tokenA",
                  "type": "address"
                },
                {
                  "internalType": "address",
                  "name": "tokenB",
                  "type": "address"
                },
                {
                  "internalType": "uint256",
                  "name": "ratioAToB",
                  "type": "uint256"
                },
                {
                  "internalType": "uint256",
                  "name": "ratioBToA",
                  "type": "uint256"
                },
                {
                  "internalType": "bytes1",
                  "name": "intervalsInSwap",
                  "type": "bytes1"
                }
              ],
              "internalType": "struct IDCAHubSwapHandler.PairInSwap[]",
              "name": "pairs",
              "type": "tuple[]"
            }
          ],
          "internalType": "struct IDCAHubSwapHandler.SwapInfo",
          "name": "_swapInformation",
          "type": "tuple"
        }
      ],
      "stateMutability": "nonpayable",
      "type": "function"
    },
    {
      "inputs": [
        {
          "internalType": "address",
          "name": "_tokenA",
          "type": "address"
        },
        {
          "internalType": "address",
          "name": "_tokenB",
          "type": "address"
        },
        {
          "internalType": "bytes1",
          "name": "_swapIntervalMask",
          "type": "bytes1"
        },
        {
          "internalType": "uint32",
          "name": "_swapNumber",
          "type": "uint32"
        }
      ],
      "name": "swapAmountDelta",
      "outputs": [
        {
          "components": [
            {
              "internalType": "uint128",
              "name": "swapDeltaAToB",
              "type": "uint128"
            },
            {
              "internalType": "uint128",
              "name": "swapDeltaBToA",
              "type": "uint128"
            }
          ],
          "internalType": "struct IDCAHubParameters.SwapDelta",
          "name": "",
          "type": "tuple"
        }
      ],
      "stateMutability": "view",
      "type": "function"
    },
    {
      "inputs": [
        {
          "internalType": "address",
          "name": "_tokenA",
          "type": "address"
        },
        {
          "internalType": "address",
          "name": "_tokenB",
          "type": "address"
        },
        {
          "internalType": "bytes1",
          "name": "_swapIntervalMask",
          "type": "bytes1"
        }
      ],
      "name": "swapData",
      "outputs": [
        {
          "components": [
            {
              "internalType": "uint32",
              "name": "performedSwaps",
              "type": "uint32"
            },
            {
              "internalType": "uint224",
              "name": "nextAmountToSwapAToB",
              "type": "uint224"
            },
            {
              "internalType": "uint32",
              "name": "lastSwappedAt",
              "type": "uint32"
            },
            {
              "internalType": "uint224",
              "name": "nextAmountToSwapBToA",
              "type": "uint224"
            }
          ],
          "internalType": "struct IDCAHubParameters.SwapData",
          "name": "",
          "type": "tuple"
        }
      ],
      "stateMutability": "view",
      "type": "function"
    },
    {
      "inputs": [],
      "name": "swapFee",
      "outputs": [
        {
          "internalType": "uint32",
          "name": "",
          "type": "uint32"
        }
      ],
      "stateMutability": "view",
      "type": "function"
    },
    {
      "inputs": [
        {
          "internalType": "uint256",
          "name": "_positionId",
          "type": "uint256"
        },
        {
          "internalType": "address",
          "name": "_recipientUnswapped",
          "type": "address"
        },
        {
          "internalType": "address",
          "name": "_recipientSwapped",
          "type": "address"
        }
      ],
      "name": "terminate",
      "outputs": [
        {
          "internalType": "uint256",
          "name": "_unswapped",
          "type": "uint256"
        },
        {
          "internalType": "uint256",
          "name": "_swapped",
          "type": "uint256"
        }
      ],
      "stateMutability": "nonpayable",
      "type": "function"
    },
    {
      "inputs": [],
      "name": "unpause",
      "outputs": [],
      "stateMutability": "nonpayable",
      "type": "function"
    },
    {
      "inputs": [
        {
          "internalType": "uint256",
          "name": "_positionId",
          "type": "uint256"
        }
      ],
      "name": "userPosition",
      "outputs": [
        {
          "components": [
            {
              "internalType": "contract IERC20Metadata",
              "name": "from",
              "type": "address"
            },
            {
              "internalType": "contract IERC20Metadata",
              "name": "to",
              "type": "address"
            },
            {
              "internalType": "uint32",
              "name": "swapInterval",
              "type": "uint32"
            },
            {
              "internalType": "uint32",
              "name": "swapsExecuted",
              "type": "uint32"
            },
            {
              "internalType": "uint256",
              "name": "swapped",
              "type": "uint256"
            },
            {
              "internalType": "uint32",
              "name": "swapsLeft",
              "type": "uint32"
            },
            {
              "internalType": "uint256",
              "name": "remaining",
              "type": "uint256"
            },
            {
              "internalType": "uint120",
              "name": "rate",
              "type": "uint120"
            }
          ],
          "internalType": "struct IDCAHubPositionHandler.UserPosition",
          "name": "_userPosition",
          "type": "tuple"
        }
      ],
      "stateMutability": "view",
      "type": "function"
    },
    {
      "inputs": [
        {
          "components": [
            {
              "internalType": "address",
              "name": "token",
              "type": "address"
            },
            {
              "internalType": "uint256",
              "name": "amount",
              "type": "uint256"
            }
          ],
          "internalType": "struct IDCAHub.AmountOfToken[]",
          "name": "_amounts",
          "type": "tuple[]"
        },
        {
          "internalType": "address",
          "name": "_recipient",
          "type": "address"
        }
      ],
      "name": "withdrawFromPlatformBalance",
      "outputs": [],
      "stateMutability": "nonpayable",
      "type": "function"
    },
    {
      "inputs": [
        {
          "internalType": "uint256",
          "name": "_positionId",
          "type": "uint256"
        },
        {
          "internalType": "address",
          "name": "_recipient",
          "type": "address"
        }
      ],
      "name": "withdrawSwapped",
      "outputs": [
        {
          "internalType": "uint256",
          "name": "",
          "type": "uint256"
        }
      ],
      "stateMutability": "nonpayable",
      "type": "function"
    },
    {
      "inputs": [
        {
          "components": [
            {
              "internalType": "address",
              "name": "token",
              "type": "address"
            },
            {
              "internalType": "uint256[]",
              "name": "positionIds",
              "type": "uint256[]"
            }
          ],
          "internalType": "struct IDCAHubPositionHandler.PositionSet[]",
          "name": "_positions",
          "type": "tuple[]"
        },
        {
          "internalType": "address",
          "name": "_recipient",
          "type": "address"
        }
      ],
      "name": "withdrawSwappedMany",
      "outputs": [
        {
          "internalType": "uint256[]",
          "name": "_swapped",
          "type": "uint256[]"
        }
      ],
      "stateMutability": "nonpayable",
      "type": "function"
    }
  ],
  "transactionHash": "0xd8e9fa80448813a9c20dadd0d83a2317456ab2dc2dabeb41fd398a7316b00afb",
  "args": [
    "0x1a00e1E311009E56e3b0B9Ed6F86f5Ce128a1C01",
    "0x826b7FDdb0430bF84a7dc7BD01199C577DFb2F2C",
    "0xbd216FC42aD3B937278665f3659Dce318f3F3f70",
    "0x3dbC70b2c825329d13A33991028426cfF582f9B3"
  ],
  "solcInputHash": "c05c06b1a5e910552d4718935471de1d",
  "bytecode": "0x60806040527f313f8c5ec4103e5607b5d8b3519ab06a512037396eaf72a07527d8b838012ed46008557ffb63867dc303889c4e19b6276d834e066500dd4210f4434d34089a246beec82a6009557f73c06b41830ea810d4e9dd3dfb0309555fbff1642391fb7644bc4a0b0f7a77fd600a55600b8054600160a01b600160f81b0319167e09c4f000000064000017700000000000000000000000000000000000000000179055348015620000b157600080fd5b506040516200639838038062006398833981016040819052620000d49162000322565b60016000556007805460ff19169055808484846001600160a01b03831615806200010557506001600160a01b038216155b806200011857506001600160a01b038116155b15620001375760405163d92e233d60e01b815260040160405180910390fd5b600854620001469084620001e2565b600954620001559083620001e2565b6200016b600a54600954620001f260201b60201c565b6008546200017a9080620001f2565b600954620001899080620001f2565b600b80546001600160a01b0319166001600160a01b039290921691909117905550620001b79050816200023d565b600c80546001600160a01b0319166001600160a01b0392909216919091179055506200038a92505050565b620001ee828262000268565b5050565b600082815260066020526040808220600101805490849055905190918391839186917fbd79b86ffe0ab8e8776151514217cd7cacd52c909f66475c3af44e129f0b00ff9190a4505050565b6001600160a01b038116620002655760405163d92e233d60e01b815260040160405180910390fd5b50565b60008281526006602090815260408083206001600160a01b038516845290915290205460ff16620001ee5760008281526006602090815260408083206001600160a01b03851684529091529020805460ff19166001179055620002c83390565b6001600160a01b0316816001600160a01b0316837f2f8788117e7eff1d82e926ec794901d17c78024a50270940304540a733656f0d60405160405180910390a45050565b6001600160a01b03811681146200026557600080fd5b600080600080608085870312156200033957600080fd5b845162000346816200030c565b602086015190945062000359816200030c565b60408601519093506200036c816200030c565b60608601519092506200037f816200030c565b939692955090935050565b615ffe806200039a6000396000f3fe608060405234801561001057600080fd5b50600436106102695760003560e01c80636eefd13411610151578063a217fddf116100c3578063d547741f11610087578063d547741f14610667578063d6d788c31461067a578063da90b03a1461068d578063ded700a6146106a0578063f1accf39146106b3578063fc448158146106c657600080fd5b8063a217fddf1461060f578063bc063e1a14610617578063c67e32e914610621578063cc7a204914610641578063d2d95b2d1461065457600080fd5b80637d8e8603116101155780637d8e86031461053e5780637dc0d1d014610551578063808ba8e01461057c5780638456cb59146105dd57806391d14854146105e55780639bcb5572146105f857600080fd5b80636eefd134146104d457806371651aa9146104e757806372ada4c5146104fa5780637adbf973146105225780637d361dd31461053557600080fd5b8063480b3796116101ea578063560c6499116101ae578063560c64991461044357806357ae1cec14610456578063582cf84b1461046b5780635b6fd01d146104995780635c975abb146104b95780636b29e1bd146104c157600080fd5b8063480b379614610387578063480e5da1146103a75780634aa91aee146103d45780634eeeb3eb1461040e57806354cf2aeb1461041757600080fd5b80632a2a1a74116102315780632a2a1a74146103245780632f2ff15d1461034457806336568abe146103595780633f4ba83a1461036c5780633feb14931461037457600080fd5b806301ffc9a71461026e5780630b1aa9841461029657806317621890146102c45780631b8b8c34146102e5578063248a9ca314610301575b600080fd5b61028161027c366004614c4a565b6106cf565b60405190151581526020015b60405180910390f35b6102a96102a4366004614cc5565b610706565b6040805182518152602092830151928101929092520161028d565b6102d76102d2366004614d1d565b610790565b60405190815260200161028d565b6102ee61271081565b60405161ffff909116815260200161028d565b6102d761030f366004614d4d565b60009081526006602052604090206001015490565b610337610332366004614e2f565b61084e565b60405161028d919061500a565b610357610352366004614d1d565b610e38565b005b610357610367366004614d1d565b610e63565b610357610ee1565b61035761038236600461501d565b610ef9565b61039a61039536600461505e565b610fb9565b60405161028d91906150ef565b600b546103bb90600160e01b900460f81b81565b6040516001600160f81b0319909116815260200161028d565b6103e76103e2366004614cc5565b611220565b6040805182516001600160801b03908116825260209384015116928101929092520161028d565b6102d760095481565b600b5461042e90600160a01b900463ffffffff1681565b60405163ffffffff909116815260200161028d565b610357610451366004615102565b6112bb565b600b546102ee90600160e81b900461ffff1681565b6103bb610479366004615139565b600160209081526000928352604080842090915290825290205460f81b81565b6104ac6104a7366004614d4d565b61143b565b60405161028d9190615167565b6102816115f9565b6102d76104cf3660046151eb565b611608565b6103576104e2366004615290565b6119a4565b6103576104f53660046152b4565b611a30565b61050d610508366004615338565b611ef3565b6040805192835260208301919091520161028d565b61035761053036600461536f565b612157565b6102d760085481565b61035761054c36600461501d565b6121bb565b600b54610564906001600160a01b031681565b6040516001600160a01b03909116815260200161028d565b61058f61058a36600461538c565b612255565b60408051825163ffffffff90811682526020808501516001600160e01b039081169184019190915284840151909116928201929092526060928301519091169181019190915260800161028d565b610357612311565b6102816105f3366004614d1d565b612326565b600b5461042e90600160c01b900463ffffffff1681565b6102d7600081565b61042e620186a081565b6102d761062f36600461536f565b60026020526000908152604090205481565b600c54610564906001600160a01b031681565b6103376106623660046153d3565b612351565b610357610675366004614d1d565b612ac2565b61035761068836600461543e565b612ae8565b61035761069b36600461543e565b612b52565b6103576106ae366004615459565b612bbc565b6103576106c1366004615485565b612c20565b6102d7600a5481565b60006001600160e01b03198216637965db0b60e01b148061070057506301ffc9a760e01b6001600160e01b03198316145b92915050565b60408051808201909152600080825260208201526000806107278787612c68565b6001600160a01b0391821660009081526004602090815260408083209390941682529182528281206001600160f81b031989168252825282812063ffffffff8816825282528290208251808401909352805483526001015490820152925050505b949350505050565b6000600260005414156107be5760405162461bcd60e51b81526004016107b5906154cd565b60405180910390fd5b60026000556107cc82612c99565b6000806107d885612cc0565b90925090506107f16001600160a01b0382168584612dd0565b604080518681526001600160a01b0383811660208301529181018490529085169033907fcade65431cead780eb2b14b84a6594e1b235278a02e31abf3fc04c7c3e8ab4ee9060600160405180910390a35060016000559392505050565b6040805180820190915260608082526020820152600260005414156108855760405162461bcd60e51b81526004016107b5906154cd565b60026000556108926115f9565b156108af5760405162461bcd60e51b81526004016107b590615504565b600b54600160a01b900463ffffffff166108cb8c8c8c8c612351565b9150426000805b8460200151518110156109c4576000856020015182815181106108f7576108f761552e565b60209081029190910101516080810151909150600160f81b5b6001600160f81b03198082169083161080159061093657506001600160f81b0319811615155b1561099757806001600160f81b0319168183166001600160f81b03191614156109895761098983600001518460200151836109758b8860400151612e33565b6109838c8960600151612e33565b8b612e69565b60011b607f60f91b16610910565b84806109ac57506001600160f81b0319821615155b945050505080806109bc9061555a565b9150506108d2565b50806109e3576040516346f8d7b160e11b815260040160405180910390fd5b50508151516000906001600160401b03811115610a0257610a02615575565b604051908082528060200260200182016040528015610a2b578160200160208202803683370190505b50905060005b835151811015610bc557600084600001518281518110610a5357610a5361552e565b602002602001015190506000898984818110610a7157610a7161552e565b905060200201359050600082604001511180610a8d5750600081115b15610b1c5781516040516370a0823160e01b81523060048201526001600160a01b03909116906370a0823190602401602060405180830381865afa158015610ad9573d6000803e3d6000fd5b505050506040513d601f19601f82011682018060405250810190610afd919061558b565b848481518110610b0f57610b0f61552e565b6020026020010181815250505b8a6001600160a01b03168c6001600160a01b03161415610b6c576000818360200151610b4891906155a4565b90508015610b66578251610b66906001600160a01b03168d83612dd0565b50610bb0565b602082015115610b945760208201518251610b94916001600160a01b03909116908e90612dd0565b8015610bb0578151610bb0906001600160a01b03168c83612dd0565b50508080610bbd9061555a565b915050610a31565b508251604051632c0be4cf60e11b81526001600160a01b038a1691635817c99e91610bfc9133918c908c908c908c9060040161561b565b600060405180830381600087803b158015610c1657600080fd5b505af1158015610c2a573d6000803e3d6000fd5b5050505060005b835151811015610dc757600084600001518281518110610c5357610c5361552e565b60200260200101519050600081606001519050600082604001511180610c91575060008a8a85818110610c8857610c8861552e565b90506020020135115b15610d7d57600082602001518360400151868681518110610cb457610cb461552e565b6020026020010151610cc691906155a4565b610cd091906156c8565b83516040516370a0823160e01b81523060048201529192506000916001600160a01b03909116906370a0823190602401602060405180830381865afa158015610d1d573d6000803e3d6000fd5b505050506040513d601f19601f82011682018060405250810190610d41919061558b565b905081811015610d645760405163d562e29f60e01b815260040160405180910390fd5b610d6e82826156c8565b610d7890846155a4565b925050505b8015610db25781516001600160a01b031660009081526002602052604081208054839290610dac9084906155a4565b90915550505b50508080610dbf9061555a565b915050610c31565b50876001600160a01b0316896001600160a01b0316336001600160a01b03167fa1ec3a0d95701d84ce597ac1f6789b13a582504554c8aa7ec2be74470639c8e5868b8b88604051610e1b94939291906156df565b60405180910390a4505060016000559a9950505050505050505050565b600082815260066020526040902060010154610e54813361321f565b610e5e8383613283565b505050565b6001600160a01b0381163314610ed35760405162461bcd60e51b815260206004820152602f60248201527f416363657373436f6e74726f6c3a2063616e206f6e6c792072656e6f756e636560448201526e103937b632b9903337b91039b2b63360891b60648201526084016107b5565b610edd8282613309565b5050565b600854610eee813361321f565b610ef6613370565b50565b600854610f06813361321f565b60005b82811015610f7a57610f40848483818110610f2657610f2661552e565b9050602002016020810190610f3b919061543e565b613405565b600b805460ff60e01b198116600160e01b9182900460f890811b9490941790931c0291909117905580610f728161555a565b915050610f09565b507fd691741464555eddf67afe8f82b0cbe92f8859926856aec4a48a106ceb1b1bee8383604051610fac92919061571d565b60405180910390a1505050565b606060026000541415610fde5760405162461bcd60e51b81526004016107b5906154cd565b6002600055610fec82612c99565b826001600160401b0381111561100457611004615575565b60405190808252806020026020018201604052801561102d578160200160208202803683370190505b50905060005b838110156111c457600085858381811061104f5761104f61552e565b90506020028101906110619190615766565b61106f90602081019061536f565b905060005b8686848181106110865761108661552e565b90506020028101906110989190615766565b6110a6906020810190615786565b9050811015611179576000806111038989878181106110c7576110c761552e565b90506020028101906110d99190615766565b6110e7906020810190615786565b858181106110f7576110f761552e565b90506020020135612cc0565b91509150836001600160a01b0316816001600160a01b0316146111395760405163305663b560e11b815260040160405180910390fd5b8186868151811061114c5761114c61552e565b6020026020010181815161116091906155a4565b90525082915061117190508161555a565b915050611074565b506111b1848484815181106111905761119061552e565b6020026020010151836001600160a01b0316612dd09092919063ffffffff16565b50806111bc8161555a565b915050611033565b50816001600160a01b0316336001600160a01b03167fdc1e0c1e1b707ce83f3d3a8c66a6abc1d23d95f81a61fc1f578355e0d968fd2d86868560405161120c93929190615836565b60405180910390a360016000559392505050565b60408051808201909152600080825260208201526000806112418787612c68565b6001600160a01b0391821660009081526003602090815260408083209490931682529283528181206001600160f81b031989168252835281812063ffffffff8816825283528190208151808301909252546001600160801b038082168352600160801b909104169181019190915292505050949350505050565b600260005414156112de5760405162461bcd60e51b81526004016107b5906154cd565b6002600055600a546112f0813361321f565b60005b838110156113e25784848281811061130d5761130d61552e565b905060400201602001356002600087878581811061132d5761132d61552e565b611343926020604090920201908101915061536f565b6001600160a01b03166001600160a01b03168152602001908152602001600020600082825461137291906156c8565b909155506113d090508386868481811061138e5761138e61552e565b905060400201602001358787858181106113aa576113aa61552e565b6113c0926020604090920201908101915061536f565b6001600160a01b03169190612dd0565b806113da8161555a565b9150506112f3565b50816001600160a01b0316336001600160a01b03167fc372140441ddd3b3a7319bbc36cbc33b5600b15c211eda1d1fc9d35bb7ebb3a8868660405161142892919061591a565b60405180910390a3505060016000555050565b6040805161010081018252600080825260208201819052918101829052606081018290526080810182905260a0810182905260c0810182905260e08101919091526000828152600d60209081526040808320815160e081018352815463ffffffff8082168352600160201b82041694820194909452600160401b840460f81b6001600160f81b031916928101839052600160481b84046001600160a01b0390811660608301819052600160e81b90950462ffffff1660808301526001909201546001600160601b03811660a0830152600160601b900490911660c0820181905290939261152a929091906134f9565b9050600061153c828460200151613554565b60608401516001600160a01b03908116865260c08501511660208601528351909150611569908290613575565b63ffffffff16606085015260208301516115839083613575565b63ffffffff1660a0850152611598838361359b565b60c08501526115a6836135cd565b6001600160781b031660e085015260408301516001600160f81b031916156115f1576115d583604001516135fe565b63ffffffff1660408501526115eb858484613712565b60808501525b505050919050565b6000611603613970565b905090565b60006002600054141561162d5760405162461bcd60e51b81526004016107b5906154cd565b600260005561163a6115f9565b156116575760405162461bcd60e51b81526004016107b590615504565b6001600160a01b038916158061167457506001600160a01b038816155b8061168657506001600160a01b038416155b156116a45760405163d92e233d60e01b815260040160405180910390fd5b876001600160a01b0316896001600160a01b031614156116d75760405163c1ab6dc160e01b815260040160405180910390fd5b866116f557604051631f2a200560e01b815260040160405180910390fd5b63ffffffff861661171957604051633c92196b60e11b815260040160405180910390fd5b6000611725888861397e565b90506000600f600081546117389061555a565b9182905550905060006117568c8c8b6117508c613405565b876139bb565b6040810151600b549192506001600160f81b0319600160e01b90920460f81b161661179457604051638b52594f60e01b815260040160405180910390fd5b600c546040516306d66a1360e31b81526001600160a01b03909116906336b35098906117ca9085908b908b908b90600401615a15565b600060405180830381600087803b1580156117e457600080fd5b505af11580156117f8573d6000803e3d6000fd5b5050505061180b8c8c8360400151613a94565b6118208c8c8360400151846020015187613b94565b6000828152600d60209081526040918290208351815492850151938501516060860151608087015163ffffffff93841667ffffffffffffffff1990961695909517600160201b968416969096029590951768010000000000000000600160e81b031916600160401b60f89290921c919091027fffffff0000000000000000000000000000000000000000ffffffffffffffffff1617600160481b6001600160a01b0395861602176001600160e81b0316600160e81b62ffffff9094169390930292909217815560a084015160c08501516001600160601b03909116600160601b9185169190910217600190910155611921918e1690339030908e90613baa16565b866001600160a01b0316336001600160a01b03167f1915b09a20b5793f1bd89b84dc928fe4ee36b0b9270ec217a3b2c278999f0967848f8f8d898860000151600161196c9190615a4a565b89602001518f8f60405161198899989796959493929190615a72565b60405180910390a35060016000559a9950505050505050505050565b6009546119b1813361321f565b61271061ffff831611156119d8576040516314bc5e9d60e21b815260040160405180910390fd5b600b805461ffff60e81b1916600160e81b61ffff8516908102919091179091556040519081527f6c234431526967795ada65665e195191d4b2fc63c9f564d1ea626478325ae9d9906020015b60405180910390a15050565b60026000541415611a535760405162461bcd60e51b81526004016107b5906154cd565b6002600055611a606115f9565b15611a7d5760405162461bcd60e51b81526004016107b590615504565b600b54600160c01b900463ffffffff166000856001600160401b03811115611aa757611aa7615575565b604051908082528060200260200182016040528015611ad0578160200160208202803683370190505b50905060005b8151811015611ba057878782818110611af157611af161552e565b611b07926020604090920201908101915061536f565b6040516370a0823160e01b81523060048201526001600160a01b0391909116906370a0823190602401602060405180830381865afa158015611b4d573d6000803e3d6000fd5b505050506040513d601f19601f82011682018060405250810190611b71919061558b565b828281518110611b8357611b8361552e565b602090810291909101015280611b988161555a565b915050611ad6565b5060005b86811015611c8857600081118015611c2657508787611bc46001846156c8565b818110611bd357611bd361552e565b611be9926020604090920201908101915061536f565b6001600160a01b0316888883818110611c0457611c0461552e565b611c1a926020604090920201908101915061536f565b6001600160a01b031611155b15611c44576040516333910aef60e11b815260040160405180910390fd5b611c7686898984818110611c5a57611c5a61552e565b905060400201602001358a8a858181106113aa576113aa61552e565b80611c808161555a565b915050611ba4565b5060405163c5dd4f9960e01b81526001600160a01b0386169063c5dd4f9990611cbf9033908b908b9088908b908b90600401615ae1565b600060405180830381600087803b158015611cd957600080fd5b505af1158015611ced573d6000803e3d6000fd5b5050505060005b86811015611e95576000888883818110611d1057611d1061552e565b611d26926020604090920201908101915061536f565b6040516370a0823160e01b81523060048201526001600160a01b0391909116906370a0823190602401602060405180830381865afa158015611d6c573d6000803e3d6000fd5b505050506040513d601f19601f82011682018060405250810190611d90919061558b565b9050611db7848a8a85818110611da857611da861552e565b90506040020160200135613be8565b838381518110611dc957611dc961552e565b6020026020010151611ddb91906155a4565b811015611dfb5760405163d562e29f60e01b815260040160405180910390fd5b828281518110611e0d57611e0d61552e565b602002602001015181611e2091906156c8565b600260008b8b86818110611e3657611e3661552e565b611e4c926020604090920201908101915061536f565b6001600160a01b03166001600160a01b031681526020019081526020016000206000828254611e7b91906155a4565b90915550829150611e8d90508161555a565b915050611cf4565b50846001600160a01b0316336001600160a01b03167ffe7a45edbfa15e95f7bb4e9f70a63c167ef12768b9ab360f861497e3bbbbaa08898986604051611edd93929190615b25565b60405180910390a3505060016000555050505050565b60008060026000541415611f195760405162461bcd60e51b81526004016107b5906154cd565b60026000556001600160a01b0384161580611f3b57506001600160a01b038316155b15611f595760405163d92e233d60e01b815260040160405180910390fd5b6000858152600d6020908152604091829020825160e081018452815463ffffffff8082168352600160201b82041693820193909352600160401b830460f81b6001600160f81b03191693810193909352600160481b82046001600160a01b039081166060850152600160e81b90920462ffffff166080840152600101546001600160601b03811660a0840152600160601b90041660c0820152611ffe86826003613c09565b600061201782606001518360c0015184604001516134f9565b9050612024878383613712565b9250612030828261359b565b935061203c8282613cc7565b6000878152600d602052604080822082815560010191909155600c549051630852cd8d60e31b8152600481018990526001600160a01b03909116906342966c6890602401600060405180830381600087803b15801561209a57600080fd5b505af11580156120ae573d6000803e3d6000fd5b5050505060008311156120d45760c08201516120d4906001600160a01b03168685612dd0565b83156120f35760608201516120f3906001600160a01b03168786612dd0565b60408051888152602081018690529081018490526001600160a01b03808716919088169033907f2577f709b454c4d5c1118a01186dd48d4a6bacf43fe4c26aad2f66a51bf5290d9060600160405180910390a4505060016000559094909350915050565b600954612164813361321f565b61216d82612c99565b600b80546001600160a01b0319166001600160a01b0384169081179091556040519081527f3f32684a32a11dabdbb8c0177de80aa3ae36a004d75210335b49e544e48cd0aa90602001611a24565b6008546121c8813361321f565b60005b82811015612223576121e8848483818110610f2657610f2661552e565b600b805460ff60e01b1981169219600160e01b9182900460f890811b91909116901c029190911790558061221b8161555a565b9150506121cb565b507fd0359552feffede26fee29bd110dd8e1a3237acd35c7e17a9d3b7330b02f88258383604051610fac92919061571d565b604080516080810182526000808252602082018190529181018290526060810182905290806122848686612c68565b6001600160a01b0391821660009081526005602090815260408083209390941682529182528281206001600160f81b03198816825282528290208251608081018452815463ffffffff80821683526001600160e01b03600160201b9283900481169584019590955260019093015492831694820194909452929004166060820152925050505b9392505050565b60085461231e813361321f565b610ef6613d06565b60009182526006602090815260408084206001600160a01b0393909316845291905290205460ff1690565b6040805180820190915260608082526020820152600b5463ffffffff600160a01b820416906001600160a01b03166000866001600160401b0381111561239957612399615575565b6040519080825280602002602001820160405280156123c2578160200160208202803683370190505b5090506000876001600160401b038111156123df576123df615575565b604051908082528060200260200182016040528015612408578160200160208202803683370190505b509050856001600160401b0381111561242357612423615575565b60405190808252806020026020018201604052801561247c57816020015b6040805160a0810182526000808252602080830182905292820181905260608201819052608082015282526000199092019101816124415790505b50602086015260005b8681101561281a5760008888838181106124a1576124a161552e565b6124b79260206040909202019081019150615b5e565b905060008989848181106124cd576124cd61552e565b90506040020160200160208101906124e59190615b5e565b90508060ff168260ff161015806125c157506000831180156125c15750898961250f6001866156c8565b81811061251e5761251e61552e565b6125349260206040909202019081019150615b5e565b60ff168260ff1610806125c15750898961254f6001866156c8565b81811061255e5761255e61552e565b6125749260206040909202019081019150615b5e565b60ff168260ff161480156125c1575089896125906001866156c8565b81811061259f5761259f61552e565b90506040020160200160208101906125b79190615b5e565b60ff168160ff1611155b156125df57604051635dd49b5d60e01b815260040160405180910390fd5b6040805160a0810182526000808252602082018190529181018290526060810182905260808101919091528c8c8460ff1681811061261f5761261f61552e565b9050602002016020810190612634919061536f565b6001600160a01b031681528c8c60ff84168181106126545761265461552e565b9050602002016020810190612669919061536f565b6001600160a01b03166020820152805160009061268590613d60565b905060006126968360200151613d60565b90506000806126ad85600001518660200151613dcf565b6001600160f81b03191660808801528b51919350915082908b9060ff8a169081106126da576126da61552e565b602002602001018181516126ee91906155a4565b905250895181908b9060ff891690811061270a5761270a61552e565b6020026020010181815161271e91906155a4565b9052508451602086015161274191906001600160781b038088169087168f613f83565b606087018190526040870191909152612767906001600160781b0385169083908f61402c565b898860ff168151811061277c5761277c61552e565b6020026020010181815161279091906155a4565b90525060408501516127af906001600160781b0386169084908f61402c565b898760ff16815181106127c4576127c461552e565b602002602001018181516127d891906155a4565b90525060208d015180518691908a9081106127f5576127f561552e565b60200260200101819052505050505050505080806128129061555a565b915050612485565b50600b54600160e81b900461ffff16886001600160401b0381111561284157612841615575565b6040519080825280602002602001820160405280156128a657816020015b612893604051806080016040528060006001600160a01b031681526020016000815260200160008152602001600081525090565b81526020019060019003908161285f5790505b50865260005b865151811015612ab45760008111801561292e57508a8a6128ce6001846156c8565b8181106128dd576128dd61552e565b90506020020160208101906128f2919061536f565b6001600160a01b03168b8b8381811061290d5761290d61552e565b9050602002016020810190612922919061536f565b6001600160a01b031611155b1561294c576040516333910aef60e11b815260040160405180910390fd5b612980604051806080016040528060006001600160a01b031681526020016000815260200160008152602001600081525090565b8b8b838181106129925761299261552e565b90506020020160208101906129a7919061536f565b6001600160a01b0316815283516000908590849081106129c9576129c961552e565b6020026020010151905060008684815181106129e7576129e761552e565b602002602001015190506000821180612a005750600081115b15612a7c576000612a118a84614077565b90506000612710612a2661ffff891684615b7b565b612a309190615bb0565b90506000612a3e8585615bc4565b905081811315612a5c57612a528282615bc4565b6020870152612a74565b81811215612a7457612a6e8183615bc4565b60408701525b506060850152505b828a600001518581518110612a9357612a9361552e565b60200260200101819052505050508080612aac9061555a565b9150506128ac565b505050505050949350505050565b600082815260066020526040902060010154612ade813361321f565b610e5e8383613309565b600954612af5813361321f565b612afe826140ae565b600b805463ffffffff60a01b1916600160a01b63ffffffff8516908102919091179091556040519081527f5658872a8436367e842f76c14ffbbf8e67a2e70f47b28b3c4154134f72e902d690602001611a24565b600954612b5f813361321f565b612b68826140ae565b600b805463ffffffff60c01b1916600160c01b63ffffffff8516908102919091179091556040519081527f6d0851a3fe66369a96f833703a09a7cb561e2eea7bc56bb8f247ac599814150f90602001611a24565b60026000541415612bdf5760405162461bcd60e51b81526004016107b5906154cd565b6002600055612bec6115f9565b15612c095760405162461bcd60e51b81526004016107b590615504565b612c168383836000614107565b5050600160005550565b60026000541415612c435760405162461bcd60e51b81526004016107b5906154cd565b6002600055612c5181612c99565b612c5d84848484614107565b505060016000555050565b600080826001600160a01b0316846001600160a01b031610612c8b578284612c8e565b83835b909590945092505050565b6001600160a01b038116610ef65760405163d92e233d60e01b815260040160405180910390fd5b6000818152600d60209081526040808320815160e081018352815463ffffffff8082168352600160201b82041694820194909452600160401b840460f81b6001600160f81b03191692810192909252600160481b83046001600160a01b039081166060840152600160e81b90930462ffffff166080830152600101546001600160601b03811660a0830152600160601b900490911660c08201528190612d6884826002613c09565b6000612d8182606001518360c0015184604001516134f9565b9050612d8e858383613712565b60c0909201516000958652600d60209081526040808820805463ffffffff90951663ffffffff1990951694909417909355600e90529085209490945593915050565b6040516001600160a01b038316602482015260448101829052610e5e90849063a9059cbb60e01b906064015b60408051601f198184030181529190526020810180516001600160e01b03166001600160e01b0319909316929092179091526143f7565b6000612710612e43606485615c03565b612e4f90612710615c26565b612e5f9063ffffffff1684615b7b565b61230a9190615bb0565b6001600160a01b03808716600090815260056020908152604080832093891683529281528282206001600160f81b0319881683528152908290208251608081018452815463ffffffff80821683526001600160e01b03600160201b92839004811695840186905260019094015490811695830195909552909304166060830152151580612f035750600081606001516001600160e01b0316115b156131db576001600160a01b038088166000908152600460209081526040808320938a1683529281528282206001600160f81b0319891683528152828220845163ffffffff168352815290829020825180840184528154815260019091015491810191909152815180830190925280519091908190612f839088906155a4565b8152602001858360200151612f9891906155a4565b90526001600160a01b03808a166000908152600460209081526040808320938c1683529281528282206001600160f81b03198b16835290529081208451909190612fe3906001615a4a565b63ffffffff1681526020808201929092526040908101600090812084518155938301516001909401939093556001600160a01b03808c16845260038352818420908b16845282528083206001600160f81b03198a16845290915281208351829061304e906002615a4a565b63ffffffff16815260208082019290925260409081016000208151808301835290546001600160801b038082168352600160801b909104169281019290925280516080810190915284519192509081906130a9906001615a4a565b63ffffffff16815260200182600001516001600160801b031685602001516130d19190615c4b565b6001600160e01b031681526020018563ffffffff16815260200182602001516001600160801b031685606001516131089190615c4b565b6001600160e01b039081169091526001600160a01b03808c166000818152600560209081526040808320948f168084529482528083206001600160f81b03198f168085529083528184208851898501518916600160201b90810263ffffffff9283161783558a8501516060909b015190991690980298909716979097176001909601959095559181526003825283812092815291815282822093825292909252812084519091906131ba906002615a4a565b63ffffffff1681526020810191909152604001600090812055506132169050565b6001600160a01b038088166000908152600160209081526040808320938a16835292905220805460f881811b881916901c60ff199091161790555b50505050505050565b6132298282612326565b610edd57613241816001600160a01b031660146144c9565b61324c8360206144c9565b60405160200161325d929190615c97565b60408051601f198184030181529082905262461bcd60e51b82526107b591600401615d0c565b61328d8282612326565b610edd5760008281526006602090815260408083206001600160a01b03851684529091529020805460ff191660011790556132c53390565b6001600160a01b0316816001600160a01b0316837f2f8788117e7eff1d82e926ec794901d17c78024a50270940304540a733656f0d60405160405180910390a45050565b6133138282612326565b15610edd5760008281526006602090815260408083206001600160a01b0385168085529252808320805460ff1916905551339285917ff6391f5c32d9c69d2a47ea670b442974b53935d1edc7fd64eb21e047a839171b9190a45050565b6133786115f9565b6133bb5760405162461bcd60e51b815260206004820152601460248201527314185d5cd8589b194e881b9bdd081c185d5cd95960621b60448201526064016107b5565b6007805460ff191690557f5db9ee0a495bf2e6ff9c91a7834c1ba4fdd244a5e8aa4e537bd38aeae4b073aa335b6040516001600160a01b03909116815260200160405180910390a1565b60008163ffffffff16603c14156134215750600160f81b919050565b8163ffffffff1661012c141561343c5750600160f91b919050565b8163ffffffff1661038414156134575750600160fa1b919050565b8163ffffffff1661070814156134725750600160fb1b919050565b8163ffffffff16610e10141561348d5750600160fc1b919050565b8163ffffffff1661384014156134a85750600160fd1b919050565b8163ffffffff166201518014156134c45750600160fe1b919050565b8163ffffffff1662093a8014156134e05750600160ff1b919050565b6040516305fabb6160e41b815260040160405180910390fd5b60008060006135088686612c68565b6001600160a01b0391821660009081526005602090815260408083209490931682529283528181206001600160f81b03198816825290925290205463ffffffff16925050509392505050565b60008163ffffffff168363ffffffff161161356f578261230a565b50919050565b60008163ffffffff168363ffffffff161161359157600061230a565b61230a8284615c26565b60006135a6836135cd565b6001600160781b03166135bd846020015184613575565b63ffffffff1661230a9190615b7b565b6000816080015162ffffff1660188360a001516001600160601b03166001600160781b0316901b6107009190615d3f565b6000600160f81b6001600160f81b03198316141561361e5750603c919050565b600160f91b6001600160f81b03198316141561363d575061012c919050565b600160fa1b6001600160f81b03198316141561365c5750610384919050565b600160fb1b6001600160f81b03198316141561367b5750610708919050565b600160fc1b6001600160f81b03198316141561369a5750610e10919050565b600160fd1b6001600160f81b0319831614156136b95750613840919050565b600160fe1b6001600160f81b0319831614156136d9575062015180919050565b600160ff1b6001600160f81b0319831614156136f9575062093a80919050565b60405163bf3cad0b60e01b815260040160405180910390fd5b600080613723838560200151613554565b90508063ffffffff16846000015163ffffffff16111561374757600091505061230a565b8063ffffffff16846000015163ffffffff1614156137755750506000838152600e602052604090205461230a565b60008460c001516001600160a01b031685606001516001600160a01b03161061383a5760c0850180516001600160a01b03908116600090815260046020818152604080842060608c01805187168652908352818520828d0180516001600160f81b031990811688529185528387208e5163ffffffff90811689529086528488206001908101549a518a16895296865284882093519098168752918452828620915116855282528084209488168452939052919020015461383591906156c8565b6138ce565b6060850180516001600160a01b03908116600090815260046020818152604080842060c08c01805187168652908352818520828d0180516001600160f81b031990811688529185528387208e5163ffffffff90811689529086528488205499518916885295855283872092519097168652908352818520955116845293815283832091871683525220546138ce91906156c8565b905060006138df8660600151613d60565b6001600160781b0316905060006138f5876135cd565b905060008061390d85846001600160781b0316614664565b9150915060008261393b576001600160781b03841661392c8688615bb0565b6139369190615b7b565b613945565b6139458583615bb0565b60008c8152600e602052604090205490915061396190826155a4565b9b9a5050505050505050505050565b600061160360075460ff1690565b60008061399163ffffffff841685615bb0565b90506001600160781b0381111561230a57604051636b2f218360e01b815260040160405180910390fd5b6040805160e081018252600080825260208201819052918101829052606081018290526080810182905260a0810182905260c08101829052906139ff8787866134f9565b6040805160e0810190915263ffffffff8216815290915083906001600160601b03601883901c169060208101613a358986615a4a565b63ffffffff168152602001876001600160f81b03191681526020018a6001600160a01b031681526020018362ffffff168152602001826001600160601b03168152602001896001600160a01b0316815250935050505095945050505050565b600080613aa18585612c68565b6001600160a01b03808316600090815260016020908152604080832093851683529290522054919350915060f81b6001600160f81b031984821616613b8c576001600160f81b03198116613b5757600b54604051633faaed9d60e11b81526001600160a01b038581166004830152848116602483015290911690637f55db3a90604401600060405180830381600087803b158015613b3e57600080fd5b505af1158015613b52573d6000803e3d6000fd5b505050505b6001600160a01b038381166000908152600160209081526040808320938616835292905220805460ff191685831760f81c1790555b505050505050565b613ba3858585858560016146ac565b5050505050565b6040516001600160a01b0380851660248301528316604482015260648101829052613be29085906323b872dd60e01b90608401612dfc565b50505050565b60006064612710613bff63ffffffff861685615b7b565b612e5f9190615bb0565b60408201516001600160f81b031916613c355760405163673f032f60e11b815260040160405180910390fd5b600c5460405163823abfd960e01b81526001600160a01b039091169063823abfd990613c6990869033908690600401615d61565b602060405180830381865afa158015613c86573d6000803e3d6000fd5b505050506040513d601f19601f82011682018060405250810190613caa9190615d84565b610e5e57604051635c427cd960e01b815260040160405180910390fd5b8063ffffffff16826020015163ffffffff161115610edd57610edd82606001518360c0015184604001518560200151613cff876135cd565b60006146ac565b613d0e6115f9565b15613d2b5760405162461bcd60e51b81526004016107b590615504565b6007805460ff191660011790557f62e78cea01bee320cd4e420270b5ea74000d11b0c9f74754ebdbfc544b05a2586133e83390565b6000816001600160a01b031663313ce5676040518163ffffffff1660e01b8152600401602060405180830381865afa158015613da0573d6000803e3d6000fd5b505050506040513d601f19601f82011682018060405250810190613dc49190615da6565b61070090600a615ea7565b6001600160a01b0382811660009081526001602090815260408083209385168352929052908120548190819060f81b42600160f81b5b6001600160f81b031980821690841610801590613e2b57506001600160f81b0319811615155b15613f6357806001600160f81b0319168184166001600160f81b0319161415613f55576001600160a01b038089166000908152600560209081526040808320938b1683529281528282206001600160f81b03198516835281528282208351608081018552815463ffffffff80821683526001600160e01b03600160201b9283900481169584019590955260019093015492831695820195909552939004166060830152613ed7836135fe565b90508363ffffffff1681828460400151613ef19190615c03565b613efc906001615a4a565b613f069190615eb6565b63ffffffff161115613f19575050613f63565b602082015195831795613f35906001600160e01b0316896155a4565b975081606001516001600160e01b031687613f5091906155a4565b965050505b60011b607f60f91b16613e05565b85158015613f6f575084155b15613f7957600093505b5050509250925092565b60405163a513355f60e01b81526001600160a01b0385811660048301526001600160801b03841660248301528681166044830152600091829184169063a513355f90606401602060405180830381865afa158015613fe5573d6000803e3d6000fd5b505050506040513d601f19601f82011682018060405250810190614009919061558b565b9050806140168686615b7b565b6140209190615bb0565b91509550959350505050565b6000806140398385612e33565b6140439086615b7b565b905061404f8682615bb0565b915061405b8682615ee2565b1561406e578161406a8161555a565b9250505b50949350505050565b6000826140876127106064615ef6565b62ffffff166140969190615c26565b63ffffffff168363ffffffff1683612e5f9190615b7b565b620186a063ffffffff821611156140d8576040516314041af760e31b815260040160405180910390fd5b6140e3606482615f18565b63ffffffff1615610ef6576040516358d620b360e01b815260040160405180910390fd5b6000848152600d6020908152604091829020825160e081018452815463ffffffff8082168352600160201b82041693820193909352600160401b830460f81b6001600160f81b03191693810193909352600160481b82046001600160a01b039081166060850152600160e81b90920462ffffff166080840152600101546001600160601b03811660a0840152600160601b9004811660c08301528216156141bc8683836141b5576001613c09565b6000613c09565b60006141d583606001518460c0015185604001516134f9565b905060006141e3848361359b565b90506000836141fb576141f688836156c8565b614205565b61420588836155a4565b9050801580159061421a575063ffffffff8716155b1561423857604051633c92196b60e11b815260040160405180910390fd5b8015801561424c575060008763ffffffff16115b1561425657600096505b600063ffffffff8816156142735761426e828961397e565b614276565b60005b60008b8152600d602052604081206001810180546bffffffffffffffffffffffff19166001600160601b03601886901c1617905580546001600160e81b0316600160e81b62ffffff8516021790559091506142d18986615a4a565b60008c8152600d60205260409020805463ffffffff808416600160201b0267ffffffffffffffff199092169089161717905590506143108b8887613712565b60008c8152600e60205260409020556143298786613cc7565b61434287606001518860c0015189604001518486613b94565b891561438657851561436d576060870151614368906001600160a01b031633308d613baa565b614386565b6060870151614386906001600160a01b0316898c612dd0565b337f1e52a79a98c3fbf6230e862913323047a9c0ec511d2c289b1eeeeb9cc97c5bea8c846143b5896001615a4a565b604080519384526001600160781b0392909216602084015263ffffffff9081168383015285166060830152519081900360800190a25050505050505050505050565b600061444c826040518060400160405280602081526020017f5361666545524332303a206c6f772d6c6576656c2063616c6c206661696c6564815250856001600160a01b0316614b4f9092919063ffffffff16565b805190915015610e5e578080602001905181019061446a9190615d84565b610e5e5760405162461bcd60e51b815260206004820152602a60248201527f5361666545524332303a204552433230206f7065726174696f6e20646964206e6044820152691bdd081cdd58d8d9595960b21b60648201526084016107b5565b606060006144d8836002615b7b565b6144e39060026155a4565b6001600160401b038111156144fa576144fa615575565b6040519080825280601f01601f191660200182016040528015614524576020820181803683370190505b509050600360fc1b8160008151811061453f5761453f61552e565b60200101906001600160f81b031916908160001a905350600f60fb1b8160018151811061456e5761456e61552e565b60200101906001600160f81b031916908160001a9053506000614592846002615b7b565b61459d9060016155a4565b90505b6001811115614615576f181899199a1a9b1b9c1cb0b131b232b360811b85600f16601081106145d1576145d161552e565b1a60f81b8282815181106145e7576145e761552e565b60200101906001600160f81b031916908160001a90535060049490941c9361460e81615f3b565b90506145a0565b50831561230a5760405162461bcd60e51b815260206004820181905260248201527f537472696e67733a20686578206c656e67746820696e73756666696369656e7460448201526064016107b5565b6000808361467857506001905060006146a5565b8383028385828161468b5761468b615b9a565b041461469e5760008092509250506146a5565b6001925090505b9250929050565b846001600160a01b0316866001600160a01b031610156149015780156147fb576001600160a01b03868116600090815260056020908152604080832093891683529281528282206001600160f81b03198816835290522080546001600160781b038416919060049061472f908490600160201b90046001600160e01b0316615f52565b82546001600160e01b039182166101009390930a9283029190920219909116179055506001600160a01b03808716600090815260036020908152604080832093891683529281528282206001600160f81b03198816835290529081206001600160781b038416916147a1866001615a4a565b63ffffffff1681526020810191909152604001600090812080549091906147d29084906001600160801b0316615f74565b92506101000a8154816001600160801b0302191690836001600160801b03160217905550613b8c565b6001600160a01b03868116600090815260056020908152604080832093891683529281528282206001600160f81b03198816835290522080546001600160781b038416919060049061485e908490600160201b90046001600160e01b0316615c4b565b82546001600160e01b039182166101009390930a9283029190920219909116179055506001600160a01b03808716600090815260036020908152604080832093891683529281528282206001600160f81b03198816835290529081206001600160781b038416916148d0866001615a4a565b63ffffffff1681526020810191909152604001600090812080549091906147d29084906001600160801b0316615f96565b8015614a15576001600160a01b038581166000908152600560209081526040808320938a1683529281528282206001600160f81b03198816835290522060010180546001600160781b038416919060049061496d908490600160201b90046001600160e01b0316615f52565b82546001600160e01b039182166101009390930a9283029190920219909116179055506001600160a01b038086166000908152600360209081526040808320938a1683529281528282206001600160f81b03198816835290529081206001600160781b038416916149df866001615a4a565b63ffffffff168152602081019190915260400160002080546010906147d2908490600160801b90046001600160801b0316615f74565b6001600160a01b038581166000908152600560209081526040808320938a1683529281528282206001600160f81b03198816835290522060010180546001600160781b0384169190600490614a7b908490600160201b90046001600160e01b0316615c4b565b82546001600160e01b039182166101009390930a9283029190920219909116179055506001600160a01b038086166000908152600360209081526040808320938a1683529281528282206001600160f81b03198816835290529081206001600160781b03841691614aed866001615a4a565b63ffffffff16815260208101919091526040016000208054601090614b23908490600160801b90046001600160801b0316615f96565b92506101000a8154816001600160801b0302191690836001600160801b03160217905550505050505050565b6060610788848460008585843b614ba85760405162461bcd60e51b815260206004820152601d60248201527f416464726573733a2063616c6c20746f206e6f6e2d636f6e747261637400000060448201526064016107b5565b600080866001600160a01b03168587604051614bc49190615fb6565b60006040518083038185875af1925050503d8060008114614c01576040519150601f19603f3d011682016040523d82523d6000602084013e614c06565b606091505b509150915061406a82828660608315614c2057508161230a565b825115614c305782518084602001fd5b8160405162461bcd60e51b81526004016107b59190615d0c565b600060208284031215614c5c57600080fd5b81356001600160e01b03198116811461230a57600080fd5b6001600160a01b0381168114610ef657600080fd5b8035614c9481614c74565b919050565b80356001600160f81b031981168114614c9457600080fd5b803563ffffffff81168114614c9457600080fd5b60008060008060808587031215614cdb57600080fd5b8435614ce681614c74565b93506020850135614cf681614c74565b9250614d0460408601614c99565b9150614d1260608601614cb1565b905092959194509250565b60008060408385031215614d3057600080fd5b823591506020830135614d4281614c74565b809150509250929050565b600060208284031215614d5f57600080fd5b5035919050565b60008083601f840112614d7857600080fd5b5081356001600160401b03811115614d8f57600080fd5b6020830191508360208260051b85010111156146a557600080fd5b60008083601f840112614dbc57600080fd5b5081356001600160401b03811115614dd357600080fd5b6020830191508360208260061b85010111156146a557600080fd5b60008083601f840112614e0057600080fd5b5081356001600160401b03811115614e1757600080fd5b6020830191508360208285010111156146a557600080fd5b60008060008060008060008060008060c08b8d031215614e4e57600080fd5b8a356001600160401b0380821115614e6557600080fd5b614e718e838f01614d66565b909c509a5060208d0135915080821115614e8a57600080fd5b614e968e838f01614daa565b909a509850889150614eaa60408e01614c89565b9750614eb860608e01614c89565b965060808d0135915080821115614ece57600080fd5b614eda8e838f01614d66565b909650945060a08d0135915080821115614ef357600080fd5b50614f008d828e01614dee565b915080935050809150509295989b9194979a5092959850565b8051604080845281518482018190526000926060916020918201918388019190865b82811015614f8257845180516001600160a01b0316855260208082015190860152604080820151908601526060908101519085015260808401948201949350600101614f3b565b50878101518984038a83015280518085529082019450600093820192505b80841015614ffc57845180516001600160a01b039081168552838201511683850152878101518885015286810151878501526080908101516001600160f81b03191690840152938101936001939093019260a090920191614fa0565b509098975050505050505050565b60208152600061230a6020830184614f19565b6000806020838503121561503057600080fd5b82356001600160401b0381111561504657600080fd5b61505285828601614d66565b90969095509350505050565b60008060006040848603121561507357600080fd5b83356001600160401b0381111561508957600080fd5b61509586828701614d66565b90945092505060208401356150a981614c74565b809150509250925092565b600081518084526020808501945080840160005b838110156150e4578151875295820195908201906001016150c8565b509495945050505050565b60208152600061230a60208301846150b4565b60008060006040848603121561511757600080fd5b83356001600160401b0381111561512d57600080fd5b61509586828701614daa565b6000806040838503121561514c57600080fd5b823561515781614c74565b91506020830135614d4281614c74565b60006101008201905060018060a01b0380845116835280602085015116602084015250604083015163ffffffff8082166040850152806060860151166060850152608085015160808501528060a08601511660a0850152505060c083015160c083015260e08301516151e460e08401826001600160781b03169052565b5092915050565b60008060008060008060008060e0898b03121561520757600080fd5b883561521281614c74565b9750602089013561522281614c74565b96506040890135955061523760608a01614cb1565b945061524560808a01614cb1565b935060a089013561525581614c74565b925060c08901356001600160401b0381111561527057600080fd5b61527c8b828c01614d66565b999c989b5096995094979396929594505050565b6000602082840312156152a257600080fd5b813561ffff8116811461230a57600080fd5b6000806000806000606086880312156152cc57600080fd5b85356001600160401b03808211156152e357600080fd5b6152ef89838a01614daa565b90975095506020880135915061530482614c74565b9093506040870135908082111561531a57600080fd5b5061532788828901614dee565b969995985093965092949392505050565b60008060006060848603121561534d57600080fd5b83359250602084013561535f81614c74565b915060408401356150a981614c74565b60006020828403121561538157600080fd5b813561230a81614c74565b6000806000606084860312156153a157600080fd5b83356153ac81614c74565b925060208401356153bc81614c74565b91506153ca60408501614c99565b90509250925092565b600080600080604085870312156153e957600080fd5b84356001600160401b038082111561540057600080fd5b61540c88838901614d66565b9096509450602087013591508082111561542557600080fd5b5061543287828801614daa565b95989497509550505050565b60006020828403121561545057600080fd5b61230a82614cb1565b60008060006060848603121561546e57600080fd5b83359250602084013591506153ca60408501614cb1565b6000806000806080858703121561549b57600080fd5b84359350602085013592506154b260408601614cb1565b915060608501356154c281614c74565b939692955090935050565b6020808252601f908201527f5265656e7472616e637947756172643a207265656e7472616e742063616c6c00604082015260600190565b60208082526010908201526f14185d5cd8589b194e881c185d5cd95960821b604082015260600190565b634e487b7160e01b600052603260045260246000fd5b634e487b7160e01b600052601160045260246000fd5b600060001982141561556e5761556e615544565b5060010190565b634e487b7160e01b600052604160045260246000fd5b60006020828403121561559d57600080fd5b5051919050565b600082198211156155b7576155b7615544565b500190565b81835260006001600160fb1b038311156155d557600080fd5b8260051b8083602087013760009401602001938452509192915050565b81835281816020850137506000828201602090810191909152601f909101601f19169091010190565b6001600160a01b0387168152608060208083018290528751918301829052600091888201919060a0850190845b8181101561568f57845180516001600160a01b0316845260208082015190850152604080820151908501526060908101519084015260808301948401949250600101615648565b505084810360408601526156a481898b6155bc565b9250505082810360608401526156bb8185876155f2565b9998505050505050505050565b6000828210156156da576156da615544565b500390565b6060815260006156f26060830187614f19565b82810360208401526157058186886155bc565b91505063ffffffff8316604083015295945050505050565b60208082528181018390526000908460408401835b8681101561575b5763ffffffff61574884614cb1565b1682529183019190830190600101615732565b509695505050505050565b60008235603e1983360301811261577c57600080fd5b9190910192915050565b6000808335601e1984360301811261579d57600080fd5b8301803591506001600160401b038211156157b757600080fd5b6020019150600581901b36038213156146a557600080fd5b6000808335601e198436030181126157e657600080fd5b83016020810192503590506001600160401b0381111561580557600080fd5b8060051b36038313156146a557600080fd5b60008235603e1983360301811261582d57600080fd5b90910192915050565b60408082528181018490526000906060600586901b8401810190840187845b888110156158bd57868403605f19018352615870828b615817565b803561587b81614c74565b6001600160a01b031685526020615894828201836157cf565b925087828801526158a888880184836155bc565b96505093840193929092019150600101615855565b505050838103602085015261406a81866150b4565b8183526000602080850194508260005b858110156150e45781356158f581614c74565b6001600160a01b031687528183013583880152604096870196909101906001016158e2565b6020815260006107886020830184866158d2565b6004811061594c57634e487b7160e01b600052602160045260246000fd5b9052565b60008383855260208086019550808560051b8301018460005b87811015615a0857848303601f190189526159848288615817565b6040808501823561599481614c74565b6001600160a01b031686526159ab838801846157cf565b8789019390935290829052909150606085019060005b838110156159f3578135600481106159d857600080fd5b6159e2848261592e565b5091870191908701906001016159c1565b50509985019993505090830190600101615969565b5090979650505050505050565b8481526001600160a01b0384166020820152606060408201819052600090615a409083018486615950565b9695505050505050565b600063ffffffff808316818516808303821115615a6957615a69615544565b01949350505050565b8981526001600160a01b0389811660208301528816604082015263ffffffff87811660608301526001600160781b038716608083015285811660a0830152841660c082015261010060e08201819052600090615ad18382018587615950565b9c9b505050505050505050505050565b6001600160a01b0387168152608060208201819052600090615b0690830187896158d2565b63ffffffff8616604084015282810360608401526156bb8185876155f2565b604081526000615b396040830185876158d2565b905063ffffffff83166020830152949350505050565b60ff81168114610ef657600080fd5b600060208284031215615b7057600080fd5b813561230a81615b4f565b6000816000190483118215151615615b9557615b95615544565b500290565b634e487b7160e01b600052601260045260246000fd5b600082615bbf57615bbf615b9a565b500490565b60008083128015600160ff1b850184121615615be257615be2615544565b6001600160ff1b0384018313811615615bfd57615bfd615544565b50500390565b600063ffffffff80841680615c1a57615c1a615b9a565b92169190910492915050565b600063ffffffff83811690831681811015615c4357615c43615544565b039392505050565b60006001600160e01b0383811690831681811015615c4357615c43615544565b60005b83811015615c86578181015183820152602001615c6e565b83811115613be25750506000910152565b7f416363657373436f6e74726f6c3a206163636f756e7420000000000000000000815260008351615ccf816017850160208801615c6b565b7001034b99036b4b9b9b4b733903937b6329607d1b6017918401918201528351615d00816028840160208801615c6b565b01602801949350505050565b6020815260008251806020840152615d2b816040850160208701615c6b565b601f01601f19169190910160400192915050565b60006001600160781b03808316818516808303821115615a6957615a69615544565b8381526001600160a01b038316602082015260608101610788604083018461592e565b600060208284031215615d9657600080fd5b8151801515811461230a57600080fd5b600060208284031215615db857600080fd5b815161230a81615b4f565b600181815b80851115615dfe578160001904821115615de457615de4615544565b80851615615df157918102915b93841c9390800290615dc8565b509250929050565b600082615e1557506001610700565b81615e2257506000610700565b8160018114615e385760028114615e4257615e5e565b6001915050610700565b60ff841115615e5357615e53615544565b50506001821b610700565b5060208310610133831016604e8410600b8410161715615e81575081810a610700565b615e8b8383615dc3565b8060001904821115615e9f57615e9f615544565b029392505050565b600061230a60ff841683615e06565b600063ffffffff80831681851681830481118215151615615ed957615ed9615544565b02949350505050565b600082615ef157615ef1615b9a565b500690565b600062ffffff80831681851681830481118215151615615ed957615ed9615544565b600063ffffffff80841680615f2f57615f2f615b9a565b92169190910692915050565b600081615f4a57615f4a615544565b506000190190565b60006001600160e01b03828116848216808303821115615a6957615a69615544565b60006001600160801b03808316818516808303821115615a6957615a69615544565b60006001600160801b0383811690831681811015615c4357615c43615544565b6000825161577c818460208701615c6b56fea26469706673582212203b5db00fbb4e1cc494386a421b5c2842f782990c48b1877c2976f88580fac88064736f6c634300080a0033",
  "devdoc": {
    "kind": "dev",
    "methods": {
      "accumRatio(address,address,bytes1,uint32)": {
        "details": "_tokenA and _tokenB may be passed in either tokenA/tokenB or tokenB/tokenA order",
        "params": {
          "_swapIntervalMask": "The byte representation of the swap interval to check",
          "_swapNumber": "The swap number to check",
          "_tokenA": "One of the pair's token",
          "_tokenB": "The other of the pair's token"
        },
        "returns": {
          "_0": "The sum of the ratios"
        }
      },
      "addSwapIntervalsToAllowedList(uint32[])": {
        "params": {
          "_swapIntervals": "The new swap intervals"
        }
      },
      "deposit(address,address,uint256,uint32,uint32,address,(address,uint8[])[])": {
        "details": "Will revert: With ZeroAddress if _from, _to or _owner are zero With InvalidToken if _from == _to With ZeroAmount if _amount is zero With AmountTooBig if _amount is too big With ZeroSwaps if _amountOfSwaps is zero With IntervalNotAllowed if _swapInterval is not allowed",
        "params": {
          "_amount": "How many \"from\" tokens will be swapped in total",
          "_amountOfSwaps": "How many swaps to execute for this position",
          "_from": "The address of the \"from\" token",
          "_owner": "The address of the owner of the position being created",
          "_permissions": "Extra permissions to add to the position. Can be empty",
          "_swapInterval": "How frequently the position's swaps should be executed",
          "_to": "The address of the \"to\" token"
        },
        "returns": {
          "_0": "The id of the created position"
        }
      },
      "getNextSwapInfo(address[],(uint8,uint8)[])": {
        "details": "Will revert with: With InvalidTokens if _tokens are not sorted, or if there are duplicates With InvalidPairs if _pairs are not sorted (first by indexTokenA and then indexTokenB), or if indexTokenA >= indexTokenB for any pair",
        "params": {
          "_pairs": "The pairs that you want to swap. Each element of the list points to the index of the token in the _tokens array",
          "_tokens": "The tokens involved in the next swap"
        },
        "returns": {
          "_swapInformation": "The information about the next swap"
        }
      },
      "getRoleAdmin(bytes32)": {
        "details": "Returns the admin role that controls `role`. See {grantRole} and {revokeRole}. To change a role's admin, use {_setRoleAdmin}."
      },
      "grantRole(bytes32,address)": {
        "details": "Grants `role` to `account`. If `account` had not been already granted `role`, emits a {RoleGranted} event. Requirements: - the caller must have ``role``'s admin role."
      },
      "hasRole(bytes32,address)": {
        "details": "Returns `true` if `account` has been granted `role`."
      },
      "increasePosition(uint256,uint256,uint32)": {
        "details": "Will revert: With InvalidPosition if _positionId is invalid With UnauthorizedCaller if the caller doesn't have access to the position With AmountTooBig if _amount is too big",
        "params": {
          "_amount": "Amount of funds to add to the position",
          "_newSwaps": "The new amount of swaps",
          "_positionId": "The position's id"
        }
      },
      "loan((address,uint256)[],address,bytes)": {
        "details": "Will revert: With Paused if loans are paused by protocol With InvalidTokens if the tokens in `_loan` are not sorted",
        "params": {
          "_data": "Any data that should be passed through to the callback",
          "_loan": "The amount to borrow in each token",
          "_to": "Address that will receive the loan. This address should be a contract that implements `IDCAPairLoanCallee`"
        }
      },
      "paused()": {
        "returns": {
          "_0": "Whether swaps and loans are currently paused"
        }
      },
      "reducePosition(uint256,uint256,uint32,address)": {
        "details": "Will revert: With InvalidPosition if _positionId is invalid With UnauthorizedCaller if the caller doesn't have access to the position With ZeroSwaps if _newSwaps is zero and _amount is not the total unswapped balance",
        "params": {
          "_amount": "Amount of funds to withdraw from the position",
          "_newSwaps": "The new amount of swaps",
          "_positionId": "The position's id",
          "_recipient": "The address to send tokens to"
        }
      },
      "removeSwapIntervalsFromAllowedList(uint32[])": {
        "params": {
          "_swapIntervals": "The swap intervals to remove"
        }
      },
      "renounceRole(bytes32,address)": {
        "details": "Revokes `role` from the calling account. Roles are often managed via {grantRole} and {revokeRole}: this function's purpose is to provide a mechanism for accounts to lose their privileges if they are compromised (such as when a trusted device is misplaced). If the calling account had been granted `role`, emits a {RoleRevoked} event. Requirements: - the caller must be `account`."
      },
      "revokeRole(bytes32,address)": {
        "details": "Revokes `role` from `account`. If `account` had been granted `role`, emits a {RoleRevoked} event. Requirements: - the caller must have ``role``'s admin role."
      },
      "setLoanFee(uint32)": {
        "details": "Will revert with HighFee if the fee is higher than the maximumWill revert with InvalidFee if the fee is not multiple of 100",
        "params": {
          "_fee": "The new loan fee"
        }
      },
      "setOracle(address)": {
        "details": "Will revert with ZeroAddress if the zero address is passed",
        "params": {
          "_oracle": "The new oracle contract"
        }
      },
      "setPlatformFeeRatio(uint16)": {
        "details": "Will revert with HighPlatformFeeRatio if given ratio is too high",
        "params": {
          "_platformFeeRatio": "The new ratio"
        }
      },
      "setSwapFee(uint32)": {
        "details": "Will revert with HighFee if the fee is higher than the maximumWill revert with InvalidFee if the fee is not multiple of 100",
        "params": {
          "_fee": "The new swap fee"
        }
      },
      "supportsInterface(bytes4)": {
        "details": "See {IERC165-supportsInterface}."
      },
      "swap(address[],(uint8,uint8)[],address,address,uint256[],bytes)": {
        "details": "Will revert with: With InvalidTokens if _tokens are not sorted, or if there are duplicates With InvalidPairs if _pairs are not sorted (first by indexTokenA and then indexTokenB), or if indexTokenA >= indexTokenB for any pair Paused if swaps are paused by protocol NoSwapsToExecute if there are no swaps to execute for the given pairs LiquidityNotReturned if the required tokens were not back during the callback",
        "params": {
          "_borrow": "How much to borrow of each of the tokens in _tokens. The amount must match the position of the token in the _tokens array",
          "_callbackHandler": "Address to call for callback (and send the borrowed tokens to)",
          "_data": "Bytes to send to the caller during the callback",
          "_pairsToSwap": "The pairs that you want to swap. Each element of the list points to the index of the token in the _tokens array",
          "_rewardRecipient": "The address to send the reward to",
          "_tokens": "The tokens involved in the next swap"
        },
        "returns": {
          "_swapInformation": "Information about the executed swap"
        }
      },
      "swapAmountDelta(address,address,bytes1,uint32)": {
        "details": "_tokenA and _tokenB may be passed in either tokenA/tokenB or tokenB/tokenA order",
        "params": {
          "_swapIntervalMask": "The byte representation of the swap interval to check",
          "_swapNumber": "The swap number to check",
          "_tokenA": "One of the pair's token",
          "_tokenB": "The other of the pair's token"
        },
        "returns": {
          "_0": "How much will the amount to swap differ, when compared to the swap just before this one"
        }
      },
      "swapData(address,address,bytes1)": {
        "details": "_tokenA and _tokenB may be passed in either tokenA/tokenB or tokenB/tokenA order",
        "params": {
          "_swapIntervalMask": "The byte representation of the swap interval to check",
          "_tokenA": "One of the pair's token",
          "_tokenB": "The other of the pair's token"
        },
        "returns": {
          "_0": "The swapping information"
        }
      },
      "terminate(uint256,address,address)": {
        "details": "Will revert: With InvalidPosition if _positionId is invalid With UnauthorizedCaller if the caller doesn't have access to the position With ZeroAddress if _recipientUnswapped or _recipientSwapped is zero",
        "params": {
          "_positionId": "The position's id",
          "_recipientSwapped": "The address to withdraw swapped tokens to",
          "_recipientUnswapped": "The address to withdraw unswapped tokens to"
        },
        "returns": {
          "_swapped": "The swapped balance sent to `_recipientSwapped`",
          "_unswapped": "The unswapped balance sent to `_recipientUnswapped`"
        }
      },
      "userPosition(uint256)": {
        "params": {
          "_positionId": "The id of the position"
        },
        "returns": {
          "_userPosition": "The position itself"
        }
      },
      "withdrawFromPlatformBalance((address,uint256)[],address)": {
        "params": {
          "_amounts": "The amounts to withdraw",
          "_recipient": "The address that will receive the tokens"
        }
      },
      "withdrawSwapped(uint256,address)": {
        "details": "Will revert: With InvalidPosition if _positionId is invalid With UnauthorizedCaller if the caller doesn't have access to the position With ZeroAddress if recipient is zero",
        "params": {
          "_positionId": "The position's id",
          "_recipient": "The address to withdraw swapped tokens to"
        },
        "returns": {
          "_0": "How much was withdrawn"
        }
      },
      "withdrawSwappedMany((address,uint256[])[],address)": {
        "details": "Will revert: With InvalidPosition if any of the position ids are invalid With UnauthorizedCaller if the caller doesn't have access to the position to any of the given positions With ZeroAddress if recipient is zero With PositionDoesNotMatchToken if any of the positions do not match the token in their position set",
        "params": {
          "_positions": "A list positions, grouped by `to` token",
          "_recipient": "The address to withdraw swapped tokens to"
        },
        "returns": {
          "_swapped": "How much was withdrawn for each token"
        }
      }
    },
    "version": 1
  },
  "userdoc": {
    "errors": {
      "AmountTooBig()": [
        {
          "notice": "Thrown when a user tries create or modify a position with an amount too big"
        }
      ],
      "HighFee()": [
        {
          "notice": "Thrown when trying to set a fee higher than the maximum allowed"
        }
      ],
      "HighPlatformFeeRatio()": [
        {
          "notice": "Thrown when trying to set a fee ratio that is higher that the maximum allowed"
        }
      ],
      "IntervalNotAllowed()": [
        {
          "notice": "Thrown when a user tries to create a position with a swap interval that is not allowed"
        }
      ],
      "InvalidFee()": [
        {
          "notice": "Thrown when trying to set a fee that is not multiple of 100"
        }
      ],
      "InvalidInterval()": [
        {
          "notice": "Thrown when a user tries convert and invalid interval to a byte representation"
        }
      ],
      "InvalidMask()": [
        {
          "notice": "Thrown when a user tries convert and invalid byte representation to an interval"
        }
      ],
      "InvalidPairs()": [
        {
          "notice": "Thrown when pairs indexes are not sorted correctly"
        }
      ],
      "InvalidPosition()": [
        {
          "notice": "Thrown when a user tries operate on a position that doesn't exist (it might have been already terminated)"
        }
      ],
      "InvalidToken()": [
        {
          "notice": "Thrown when a user tries to create a position with the same `from` & `to`"
        }
      ],
      "InvalidTokens()": [
        {
          "notice": "Thrown when a list of token pairs is not sorted, or if there are duplicates"
        }
      ],
      "LiquidityNotReturned()": [
        {
          "notice": "Thrown when the expected liquidity is not returned, either in flash loans or swaps"
        }
      ],
      "NoSwapsToExecute()": [
        {
          "notice": "Thrown when trying to execute a swap, but there is nothing to swap"
        }
      ],
      "PositionDoesNotMatchToken()": [
        {
          "notice": "Thrown when a user tries to withdraw a position whose `to` token doesn't match the specified one"
        }
      ],
      "UnauthorizedCaller()": [
        {
          "notice": "Thrown when a user tries operate on a position that they don't have access to"
        }
      ],
      "ZeroAddress()": [
        {
          "notice": "Thrown when one of the parameters is a zero address"
        }
      ],
      "ZeroAmount()": [
        {
          "notice": "Thrown when a user tries to create a position with zero funds"
        }
      ],
      "ZeroSwaps()": [
        {
          "notice": "Thrown when a user tries to create a position with zero swaps"
        }
      ]
    },
    "events": {
      "Deposited(address,address,uint256,address,address,uint32,uint120,uint32,uint32,(address,uint8[])[])": {
        "notice": "Emitted when a position is created"
      },
      "LoanFeeSet(uint32)": {
        "notice": "Emitted when a new loan fee is set"
      },
      "Loaned(address,address,(address,uint256)[],uint32)": {
        "notice": "Emitted when a flash loan is executed"
      },
      "Modified(address,uint256,uint120,uint32,uint32)": {
        "notice": "Emitted when a position is modified"
      },
      "OracleSet(address)": {
        "notice": "Emitted when a new oracle is set"
      },
      "PlatformFeeRatioSet(uint16)": {
        "notice": "Emitted when a new platform fee ratio is set"
      },
      "SwapFeeSet(uint32)": {
        "notice": "Emitted when a new swap fee is set"
      },
      "SwapIntervalsAllowed(uint32[])": {
        "notice": "Emitted when new swap intervals are allowed"
      },
      "SwapIntervalsForbidden(uint32[])": {
        "notice": "Emitted when some swap intervals are no longer allowed"
      },
      "Swapped(address,address,address,((address,uint256,uint256,uint256)[],(address,address,uint256,uint256,bytes1)[]),uint256[],uint32)": {
        "notice": "Emitted when a swap is executed"
      },
      "Terminated(address,address,address,uint256,uint256,uint256)": {
        "notice": "Emitted when a position is terminated"
      },
      "Withdrew(address,address,uint256,address,uint256)": {
        "notice": "Emitted when a user withdraws all swapped tokens from a position"
      },
      "WithdrewFromPlatform(address,address,(address,uint256)[])": {
        "notice": "Emitted when someone withdraws from the paltform balance"
      },
      "WithdrewMany(address,address,(address,uint256[])[],uint256[])": {
        "notice": "Emitted when a user withdraws all swapped tokens from many positions"
      }
    },
    "kind": "user",
    "methods": {
      "MAX_FEE()": {
        "notice": "Returns the max fee that can be set for either swap or loans"
      },
      "MAX_PLATFORM_FEE_RATIO()": {
        "notice": "Returns the max fee ratio that can be set"
      },
      "accumRatio(address,address,bytes1,uint32)": {
        "notice": "Returns the sum of the ratios reported in all swaps executed until the given swap number"
      },
      "activeSwapIntervals(address,address)": {
        "notice": "Returns the byte representation of the set of actice swap intervals for the given pair"
      },
      "addSwapIntervalsToAllowedList(uint32[])": {
        "notice": "Adds new swap intervals to the allowed list"
      },
      "allowedSwapIntervals()": {
        "notice": "Returns a byte that represents allowed swap intervals"
      },
      "deposit(address,address,uint256,uint32,uint32,address,(address,uint8[])[])": {
        "notice": "Creates a new position"
      },
      "getNextSwapInfo(address[],(uint8,uint8)[])": {
        "notice": "Returns all information related to the next swap"
      },
      "increasePosition(uint256,uint256,uint32)": {
        "notice": "Takes the unswapped balance, adds the new deposited funds and modifies the position so that it is executed in _newSwaps swaps"
      },
      "loan((address,uint256)[],address,bytes)": {
        "notice": "Executes a flash loan, sending the required amounts to the specified loan recipient"
      },
      "loanFee()": {
        "notice": "Returns the fee charged on loans"
      },
      "oracle()": {
        "notice": "Returns the price oracle contract"
      },
      "pause()": {
        "notice": "Pauses all swaps and loans"
      },
      "paused()": {
        "notice": "Returns whether swaps and loans are currently paused"
      },
      "permissionManager()": {
        "notice": "Returns the permission manager contract"
      },
      "platformBalance(address)": {
        "notice": "Returns how much of the hub's token balance belongs to the platform"
      },
      "platformFeeRatio()": {
        "notice": "Returns how much will the platform take from the fees collected in swaps"
      },
      "reducePosition(uint256,uint256,uint32,address)": {
        "notice": "Withdraws the specified amount from the unswapped balance and modifies the position so that it is executed in _newSwaps swaps"
      },
      "removeSwapIntervalsFromAllowedList(uint32[])": {
        "notice": "Removes some swap intervals from the allowed list"
      },
      "setLoanFee(uint32)": {
        "notice": "Sets a new loan fee"
      },
      "setOracle(address)": {
        "notice": "Sets a new price oracle"
      },
      "setPlatformFeeRatio(uint16)": {
        "notice": "Sets a new platform fee ratio"
      },
      "setSwapFee(uint32)": {
        "notice": "Sets a new swap fee"
      },
      "swap(address[],(uint8,uint8)[],address,address,uint256[],bytes)": {
        "notice": "Executes a flash swap"
      },
      "swapAmountDelta(address,address,bytes1,uint32)": {
        "notice": "Returns how much will the amount to swap differ from the previous swap. f.e. if the returned value is -100, then the amount to swap will be 100 less than the swap just before it"
      },
      "swapData(address,address,bytes1)": {
        "notice": "Returns swapping information about a specific pair"
      },
      "swapFee()": {
        "notice": "Returns the fee charged on swaps"
      },
      "terminate(uint256,address,address)": {
        "notice": "Terminates the position and sends all unswapped and swapped balance to the specified recipients"
      },
      "unpause()": {
        "notice": "Unpauses all swaps and loans"
      },
      "userPosition(uint256)": {
        "notice": "Returns a user position"
      },
      "withdrawFromPlatformBalance((address,uint256)[],address)": {
        "notice": "Withdraws tokens from the platform balance"
      },
      "withdrawSwapped(uint256,address)": {
        "notice": "Withdraws all swapped tokens from a position to a recipient"
      },
      "withdrawSwappedMany((address,uint256[])[],address)": {
        "notice": "Withdraws all swapped tokens from multiple positions"
      }
    },
    "version": 1
  },
  "storageLayout": {
    "storage": [
      {
        "astId": 1013,
        "contract": "contracts/DCAHub/DCAHub.sol:DCAHub",
        "label": "_status",
        "offset": 0,
        "slot": "0",
        "type": "t_uint256"
      },
      {
        "astId": 5694,
        "contract": "contracts/DCAHub/DCAHub.sol:DCAHub",
        "label": "activeSwapIntervals",
        "offset": 0,
        "slot": "1",
        "type": "t_mapping(t_address,t_mapping(t_address,t_bytes1))"
      },
      {
        "astId": 5699,
        "contract": "contracts/DCAHub/DCAHub.sol:DCAHub",
        "label": "platformBalance",
        "offset": 0,
        "slot": "2",
        "type": "t_mapping(t_address,t_uint256)"
      },
      {
        "astId": 5710,
        "contract": "contracts/DCAHub/DCAHub.sol:DCAHub",
        "label": "_swapAmountDelta",
        "offset": 0,
        "slot": "3",
        "type": "t_mapping(t_address,t_mapping(t_address,t_mapping(t_bytes1,t_mapping(t_uint32,t_struct(SwapDelta)9675_storage))))"
      },
      {
        "astId": 5721,
        "contract": "contracts/DCAHub/DCAHub.sol:DCAHub",
        "label": "_accumRatio",
        "offset": 0,
        "slot": "4",
        "type": "t_mapping(t_address,t_mapping(t_address,t_mapping(t_bytes1,t_mapping(t_uint32,t_struct(AccumRatio)9680_storage))))"
      },
      {
        "astId": 5730,
        "contract": "contracts/DCAHub/DCAHub.sol:DCAHub",
        "label": "_swapData",
        "offset": 0,
        "slot": "5",
        "type": "t_mapping(t_address,t_mapping(t_address,t_mapping(t_bytes1,t_struct(SwapData)9670_storage)))"
      },
      {
        "astId": 555,
        "contract": "contracts/DCAHub/DCAHub.sol:DCAHub",
        "label": "_roles",
        "offset": 0,
        "slot": "6",
        "type": "t_mapping(t_bytes32,t_struct(RoleData)550_storage)"
      },
      {
        "astId": 928,
        "contract": "contracts/DCAHub/DCAHub.sol:DCAHub",
        "label": "_paused",
        "offset": 0,
        "slot": "7",
        "type": "t_bool"
      },
      {
        "astId": 5140,
        "contract": "contracts/DCAHub/DCAHub.sol:DCAHub",
        "label": "IMMEDIATE_ROLE",
        "offset": 0,
        "slot": "8",
        "type": "t_bytes32"
      },
      {
        "astId": 5145,
        "contract": "contracts/DCAHub/DCAHub.sol:DCAHub",
        "label": "TIME_LOCKED_ROLE",
        "offset": 0,
        "slot": "9",
        "type": "t_bytes32"
      },
      {
        "astId": 5150,
        "contract": "contracts/DCAHub/DCAHub.sol:DCAHub",
        "label": "PLATFORM_WITHDRAW_ROLE",
        "offset": 0,
        "slot": "10",
        "type": "t_bytes32"
      },
      {
        "astId": 5162,
        "contract": "contracts/DCAHub/DCAHub.sol:DCAHub",
        "label": "oracle",
        "offset": 0,
        "slot": "11",
        "type": "t_contract(IPriceOracle)10762"
      },
      {
        "astId": 5166,
        "contract": "contracts/DCAHub/DCAHub.sol:DCAHub",
        "label": "swapFee",
        "offset": 20,
        "slot": "11",
        "type": "t_uint32"
      },
      {
        "astId": 5170,
        "contract": "contracts/DCAHub/DCAHub.sol:DCAHub",
        "label": "loanFee",
        "offset": 24,
        "slot": "11",
        "type": "t_uint32"
      },
      {
        "astId": 5174,
        "contract": "contracts/DCAHub/DCAHub.sol:DCAHub",
        "label": "allowedSwapIntervals",
        "offset": 28,
        "slot": "11",
        "type": "t_bytes1"
      },
      {
        "astId": 5178,
        "contract": "contracts/DCAHub/DCAHub.sol:DCAHub",
        "label": "platformFeeRatio",
        "offset": 29,
        "slot": "11",
        "type": "t_uint16"
      },
      {
        "astId": 5985,
        "contract": "contracts/DCAHub/DCAHub.sol:DCAHub",
        "label": "permissionManager",
        "offset": 0,
        "slot": "12",
        "type": "t_contract(IDCAPermissionManager)10523"
      },
      {
        "astId": 5990,
        "contract": "contracts/DCAHub/DCAHub.sol:DCAHub",
        "label": "_userPositions",
        "offset": 0,
        "slot": "13",
        "type": "t_mapping(t_uint256,t_struct(DCA)5977_storage)"
      },
      {
        "astId": 5994,
        "contract": "contracts/DCAHub/DCAHub.sol:DCAHub",
        "label": "_swappedBeforeModified",
        "offset": 0,
        "slot": "14",
        "type": "t_mapping(t_uint256,t_uint256)"
      },
      {
        "astId": 5996,
        "contract": "contracts/DCAHub/DCAHub.sol:DCAHub",
        "label": "_idCounter",
        "offset": 0,
        "slot": "15",
        "type": "t_uint256"
      }
    ],
    "types": {
      "t_address": {
        "encoding": "inplace",
        "label": "address",
        "numberOfBytes": "20"
      },
      "t_bool": {
        "encoding": "inplace",
        "label": "bool",
        "numberOfBytes": "1"
      },
      "t_bytes1": {
        "encoding": "inplace",
        "label": "bytes1",
        "numberOfBytes": "1"
      },
      "t_bytes32": {
        "encoding": "inplace",
        "label": "bytes32",
        "numberOfBytes": "32"
      },
      "t_contract(IDCAPermissionManager)10523": {
        "encoding": "inplace",
        "label": "contract IDCAPermissionManager",
        "numberOfBytes": "20"
      },
      "t_contract(IPriceOracle)10762": {
        "encoding": "inplace",
        "label": "contract IPriceOracle",
        "numberOfBytes": "20"
      },
      "t_mapping(t_address,t_bool)": {
        "encoding": "mapping",
        "key": "t_address",
        "label": "mapping(address => bool)",
        "numberOfBytes": "32",
        "value": "t_bool"
      },
      "t_mapping(t_address,t_bytes1)": {
        "encoding": "mapping",
        "key": "t_address",
        "label": "mapping(address => bytes1)",
        "numberOfBytes": "32",
        "value": "t_bytes1"
      },
      "t_mapping(t_address,t_mapping(t_address,t_bytes1))": {
        "encoding": "mapping",
        "key": "t_address",
        "label": "mapping(address => mapping(address => bytes1))",
        "numberOfBytes": "32",
        "value": "t_mapping(t_address,t_bytes1)"
      },
      "t_mapping(t_address,t_mapping(t_address,t_mapping(t_bytes1,t_mapping(t_uint32,t_struct(AccumRatio)9680_storage))))": {
        "encoding": "mapping",
        "key": "t_address",
        "label": "mapping(address => mapping(address => mapping(bytes1 => mapping(uint32 => struct IDCAHubParameters.AccumRatio))))",
        "numberOfBytes": "32",
        "value": "t_mapping(t_address,t_mapping(t_bytes1,t_mapping(t_uint32,t_struct(AccumRatio)9680_storage)))"
      },
      "t_mapping(t_address,t_mapping(t_address,t_mapping(t_bytes1,t_mapping(t_uint32,t_struct(SwapDelta)9675_storage))))": {
        "encoding": "mapping",
        "key": "t_address",
        "label": "mapping(address => mapping(address => mapping(bytes1 => mapping(uint32 => struct IDCAHubParameters.SwapDelta))))",
        "numberOfBytes": "32",
        "value": "t_mapping(t_address,t_mapping(t_bytes1,t_mapping(t_uint32,t_struct(SwapDelta)9675_storage)))"
      },
      "t_mapping(t_address,t_mapping(t_address,t_mapping(t_bytes1,t_struct(SwapData)9670_storage)))": {
        "encoding": "mapping",
        "key": "t_address",
        "label": "mapping(address => mapping(address => mapping(bytes1 => struct IDCAHubParameters.SwapData)))",
        "numberOfBytes": "32",
        "value": "t_mapping(t_address,t_mapping(t_bytes1,t_struct(SwapData)9670_storage))"
      },
      "t_mapping(t_address,t_mapping(t_bytes1,t_mapping(t_uint32,t_struct(AccumRatio)9680_storage)))": {
        "encoding": "mapping",
        "key": "t_address",
        "label": "mapping(address => mapping(bytes1 => mapping(uint32 => struct IDCAHubParameters.AccumRatio)))",
        "numberOfBytes": "32",
        "value": "t_mapping(t_bytes1,t_mapping(t_uint32,t_struct(AccumRatio)9680_storage))"
      },
      "t_mapping(t_address,t_mapping(t_bytes1,t_mapping(t_uint32,t_struct(SwapDelta)9675_storage)))": {
        "encoding": "mapping",
        "key": "t_address",
        "label": "mapping(address => mapping(bytes1 => mapping(uint32 => struct IDCAHubParameters.SwapDelta)))",
        "numberOfBytes": "32",
        "value": "t_mapping(t_bytes1,t_mapping(t_uint32,t_struct(SwapDelta)9675_storage))"
      },
      "t_mapping(t_address,t_mapping(t_bytes1,t_struct(SwapData)9670_storage))": {
        "encoding": "mapping",
        "key": "t_address",
        "label": "mapping(address => mapping(bytes1 => struct IDCAHubParameters.SwapData))",
        "numberOfBytes": "32",
        "value": "t_mapping(t_bytes1,t_struct(SwapData)9670_storage)"
      },
      "t_mapping(t_address,t_uint256)": {
        "encoding": "mapping",
        "key": "t_address",
        "label": "mapping(address => uint256)",
        "numberOfBytes": "32",
        "value": "t_uint256"
      },
      "t_mapping(t_bytes1,t_mapping(t_uint32,t_struct(AccumRatio)9680_storage))": {
        "encoding": "mapping",
        "key": "t_bytes1",
        "label": "mapping(bytes1 => mapping(uint32 => struct IDCAHubParameters.AccumRatio))",
        "numberOfBytes": "32",
        "value": "t_mapping(t_uint32,t_struct(AccumRatio)9680_storage)"
      },
      "t_mapping(t_bytes1,t_mapping(t_uint32,t_struct(SwapDelta)9675_storage))": {
        "encoding": "mapping",
        "key": "t_bytes1",
        "label": "mapping(bytes1 => mapping(uint32 => struct IDCAHubParameters.SwapDelta))",
        "numberOfBytes": "32",
        "value": "t_mapping(t_uint32,t_struct(SwapDelta)9675_storage)"
      },
      "t_mapping(t_bytes1,t_struct(SwapData)9670_storage)": {
        "encoding": "mapping",
        "key": "t_bytes1",
        "label": "mapping(bytes1 => struct IDCAHubParameters.SwapData)",
        "numberOfBytes": "32",
        "value": "t_struct(SwapData)9670_storage"
      },
      "t_mapping(t_bytes32,t_struct(RoleData)550_storage)": {
        "encoding": "mapping",
        "key": "t_bytes32",
        "label": "mapping(bytes32 => struct AccessControl.RoleData)",
        "numberOfBytes": "32",
        "value": "t_struct(RoleData)550_storage"
      },
      "t_mapping(t_uint256,t_struct(DCA)5977_storage)": {
        "encoding": "mapping",
        "key": "t_uint256",
        "label": "mapping(uint256 => struct DCAHubPositionHandler.DCA)",
        "numberOfBytes": "32",
        "value": "t_struct(DCA)5977_storage"
      },
      "t_mapping(t_uint256,t_uint256)": {
        "encoding": "mapping",
        "key": "t_uint256",
        "label": "mapping(uint256 => uint256)",
        "numberOfBytes": "32",
        "value": "t_uint256"
      },
      "t_mapping(t_uint32,t_struct(AccumRatio)9680_storage)": {
        "encoding": "mapping",
        "key": "t_uint32",
        "label": "mapping(uint32 => struct IDCAHubParameters.AccumRatio)",
        "numberOfBytes": "32",
        "value": "t_struct(AccumRatio)9680_storage"
      },
      "t_mapping(t_uint32,t_struct(SwapDelta)9675_storage)": {
        "encoding": "mapping",
        "key": "t_uint32",
        "label": "mapping(uint32 => struct IDCAHubParameters.SwapDelta)",
        "numberOfBytes": "32",
        "value": "t_struct(SwapDelta)9675_storage"
      },
      "t_struct(AccumRatio)9680_storage": {
        "encoding": "inplace",
        "label": "struct IDCAHubParameters.AccumRatio",
        "members": [
          {
            "astId": 9677,
            "contract": "contracts/DCAHub/DCAHub.sol:DCAHub",
            "label": "accumRatioAToB",
            "offset": 0,
            "slot": "0",
            "type": "t_uint256"
          },
          {
            "astId": 9679,
            "contract": "contracts/DCAHub/DCAHub.sol:DCAHub",
            "label": "accumRatioBToA",
            "offset": 0,
            "slot": "1",
            "type": "t_uint256"
          }
        ],
        "numberOfBytes": "64"
      },
      "t_struct(DCA)5977_storage": {
        "encoding": "inplace",
        "label": "struct DCAHubPositionHandler.DCA",
        "members": [
          {
            "astId": 5964,
            "contract": "contracts/DCAHub/DCAHub.sol:DCAHub",
            "label": "swapWhereLastUpdated",
            "offset": 0,
            "slot": "0",
            "type": "t_uint32"
          },
          {
            "astId": 5966,
            "contract": "contracts/DCAHub/DCAHub.sol:DCAHub",
            "label": "finalSwap",
            "offset": 4,
            "slot": "0",
            "type": "t_uint32"
          },
          {
            "astId": 5968,
            "contract": "contracts/DCAHub/DCAHub.sol:DCAHub",
            "label": "swapIntervalMask",
            "offset": 8,
            "slot": "0",
            "type": "t_bytes1"
          },
          {
            "astId": 5970,
            "contract": "contracts/DCAHub/DCAHub.sol:DCAHub",
            "label": "from",
            "offset": 9,
            "slot": "0",
            "type": "t_address"
          },
          {
            "astId": 5972,
            "contract": "contracts/DCAHub/DCAHub.sol:DCAHub",
            "label": "rateLower",
            "offset": 29,
            "slot": "0",
            "type": "t_uint24"
          },
          {
            "astId": 5974,
            "contract": "contracts/DCAHub/DCAHub.sol:DCAHub",
            "label": "rateHigher",
            "offset": 0,
            "slot": "1",
            "type": "t_uint96"
          },
          {
            "astId": 5976,
            "contract": "contracts/DCAHub/DCAHub.sol:DCAHub",
            "label": "to",
            "offset": 12,
            "slot": "1",
            "type": "t_address"
          }
        ],
        "numberOfBytes": "64"
      },
      "t_struct(RoleData)550_storage": {
        "encoding": "inplace",
        "label": "struct AccessControl.RoleData",
        "members": [
          {
            "astId": 547,
            "contract": "contracts/DCAHub/DCAHub.sol:DCAHub",
            "label": "members",
            "offset": 0,
            "slot": "0",
            "type": "t_mapping(t_address,t_bool)"
          },
          {
            "astId": 549,
            "contract": "contracts/DCAHub/DCAHub.sol:DCAHub",
            "label": "adminRole",
            "offset": 0,
            "slot": "1",
            "type": "t_bytes32"
          }
        ],
        "numberOfBytes": "64"
      },
      "t_struct(SwapData)9670_storage": {
        "encoding": "inplace",
        "label": "struct IDCAHubParameters.SwapData",
        "members": [
          {
            "astId": 9663,
            "contract": "contracts/DCAHub/DCAHub.sol:DCAHub",
            "label": "performedSwaps",
            "offset": 0,
            "slot": "0",
            "type": "t_uint32"
          },
          {
            "astId": 9665,
            "contract": "contracts/DCAHub/DCAHub.sol:DCAHub",
            "label": "nextAmountToSwapAToB",
            "offset": 4,
            "slot": "0",
            "type": "t_uint224"
          },
          {
            "astId": 9667,
            "contract": "contracts/DCAHub/DCAHub.sol:DCAHub",
            "label": "lastSwappedAt",
            "offset": 0,
            "slot": "1",
            "type": "t_uint32"
          },
          {
            "astId": 9669,
            "contract": "contracts/DCAHub/DCAHub.sol:DCAHub",
            "label": "nextAmountToSwapBToA",
            "offset": 4,
            "slot": "1",
            "type": "t_uint224"
          }
        ],
        "numberOfBytes": "64"
      },
      "t_struct(SwapDelta)9675_storage": {
        "encoding": "inplace",
        "label": "struct IDCAHubParameters.SwapDelta",
        "members": [
          {
            "astId": 9672,
            "contract": "contracts/DCAHub/DCAHub.sol:DCAHub",
            "label": "swapDeltaAToB",
            "offset": 0,
            "slot": "0",
            "type": "t_uint128"
          },
          {
            "astId": 9674,
            "contract": "contracts/DCAHub/DCAHub.sol:DCAHub",
            "label": "swapDeltaBToA",
            "offset": 16,
            "slot": "0",
            "type": "t_uint128"
          }
        ],
        "numberOfBytes": "32"
      },
      "t_uint128": {
        "encoding": "inplace",
        "label": "uint128",
        "numberOfBytes": "16"
      },
      "t_uint16": {
        "encoding": "inplace",
        "label": "uint16",
        "numberOfBytes": "2"
      },
      "t_uint224": {
        "encoding": "inplace",
        "label": "uint224",
        "numberOfBytes": "28"
      },
      "t_uint24": {
        "encoding": "inplace",
        "label": "uint24",
        "numberOfBytes": "3"
      },
      "t_uint256": {
        "encoding": "inplace",
        "label": "uint256",
        "numberOfBytes": "32"
      },
      "t_uint32": {
        "encoding": "inplace",
        "label": "uint32",
        "numberOfBytes": "4"
      },
      "t_uint96": {
        "encoding": "inplace",
        "label": "uint96",
        "numberOfBytes": "12"
      }
    }
  }
}