{
  "address": "0x059d306A25c4cE8D7437D25743a8B94520536BD5",
  "abi": [
    {
      "inputs": [
        {
          "internalType": "address",
          "name": "_immediateGovernor",
          "type": "address"
        },
        {
          "internalType": "address",
          "name": "_timeLockedGovernor",
          "type": "address"
        },
        {
          "internalType": "contract IPriceOracle",
          "name": "_oracle",
          "type": "address"
        },
        {
          "internalType": "contract IDCAPermissionManager",
          "name": "_permissionManager",
          "type": "address"
        }
      ],
      "stateMutability": "nonpayable",
      "type": "constructor"
    },
    {
      "inputs": [],
      "name": "AmountTooBig",
      "type": "error"
    },
    {
      "inputs": [],
      "name": "HighFee",
      "type": "error"
    },
    {
      "inputs": [],
      "name": "HighPlatformFeeRatio",
      "type": "error"
    },
    {
      "inputs": [],
      "name": "IntervalNotAllowed",
      "type": "error"
    },
    {
      "inputs": [],
      "name": "InvalidAllowedTokensInput",
      "type": "error"
    },
    {
      "inputs": [],
      "name": "InvalidFee",
      "type": "error"
    },
    {
      "inputs": [],
      "name": "InvalidInterval",
      "type": "error"
    },
    {
      "inputs": [],
      "name": "InvalidMask",
      "type": "error"
    },
    {
      "inputs": [],
      "name": "InvalidPairs",
      "type": "error"
    },
    {
      "inputs": [],
      "name": "InvalidPosition",
      "type": "error"
    },
    {
      "inputs": [],
      "name": "InvalidToken",
      "type": "error"
    },
    {
      "inputs": [],
      "name": "InvalidTokens",
      "type": "error"
    },
    {
      "inputs": [],
      "name": "LiquidityNotReturned",
      "type": "error"
    },
    {
      "inputs": [],
      "name": "NoSwapsToExecute",
      "type": "error"
    },
    {
      "inputs": [],
      "name": "PositionDoesNotMatchToken",
      "type": "error"
    },
    {
      "inputs": [],
      "name": "UnallowedToken",
      "type": "error"
    },
    {
      "inputs": [],
      "name": "UnauthorizedCaller",
      "type": "error"
    },
    {
      "inputs": [],
      "name": "ZeroAddress",
      "type": "error"
    },
    {
      "inputs": [],
      "name": "ZeroAmount",
      "type": "error"
    },
    {
      "inputs": [],
      "name": "ZeroSwaps",
      "type": "error"
    },
    {
      "anonymous": false,
      "inputs": [
        {
          "indexed": true,
          "internalType": "address",
          "name": "depositor",
          "type": "address"
        },
        {
          "indexed": true,
          "internalType": "address",
          "name": "owner",
          "type": "address"
        },
        {
          "indexed": false,
          "internalType": "uint256",
          "name": "positionId",
          "type": "uint256"
        },
        {
          "indexed": false,
          "internalType": "address",
          "name": "fromToken",
          "type": "address"
        },
        {
          "indexed": false,
          "internalType": "address",
          "name": "toToken",
          "type": "address"
        },
        {
          "indexed": false,
          "internalType": "uint32",
          "name": "swapInterval",
          "type": "uint32"
        },
        {
          "indexed": false,
          "internalType": "uint120",
          "name": "rate",
          "type": "uint120"
        },
        {
          "indexed": false,
          "internalType": "uint32",
          "name": "startingSwap",
          "type": "uint32"
        },
        {
          "indexed": false,
          "internalType": "uint32",
          "name": "lastSwap",
          "type": "uint32"
        },
        {
          "components": [
            {
              "internalType": "address",
              "name": "operator",
              "type": "address"
            },
            {
              "internalType": "enum IDCAPermissionManager.Permission[]",
              "name": "permissions",
              "type": "uint8[]"
            }
          ],
          "indexed": false,
          "internalType": "struct IDCAPermissionManager.PermissionSet[]",
          "name": "permissions",
          "type": "tuple[]"
        }
      ],
      "name": "Deposited",
      "type": "event"
    },
    {
      "anonymous": false,
      "inputs": [
        {
          "indexed": false,
          "internalType": "uint256",
          "name": "positionId",
          "type": "uint256"
        },
        {
          "indexed": false,
          "internalType": "bytes",
          "name": "data",
          "type": "bytes"
        }
      ],
      "name": "Miscellaneous",
      "type": "event"
    },
    {
      "anonymous": false,
      "inputs": [
        {
          "indexed": true,
          "internalType": "address",
          "name": "user",
          "type": "address"
        },
        {
          "indexed": false,
          "internalType": "uint256",
          "name": "positionId",
          "type": "uint256"
        },
        {
          "indexed": false,
          "internalType": "uint120",
          "name": "rate",
          "type": "uint120"
        },
        {
          "indexed": false,
          "internalType": "uint32",
          "name": "startingSwap",
          "type": "uint32"
        },
        {
          "indexed": false,
          "internalType": "uint32",
          "name": "lastSwap",
          "type": "uint32"
        }
      ],
      "name": "Modified",
      "type": "event"
    },
    {
      "anonymous": false,
      "inputs": [
        {
          "indexed": false,
          "internalType": "contract IPriceOracle",
          "name": "_oracle",
          "type": "address"
        }
      ],
      "name": "OracleSet",
      "type": "event"
    },
    {
      "anonymous": false,
      "inputs": [
        {
          "indexed": false,
          "internalType": "address",
          "name": "account",
          "type": "address"
        }
      ],
      "name": "Paused",
      "type": "event"
    },
    {
      "anonymous": false,
      "inputs": [
        {
          "indexed": false,
          "internalType": "uint16",
          "name": "_platformFeeRatio",
          "type": "uint16"
        }
      ],
      "name": "PlatformFeeRatioSet",
      "type": "event"
    },
    {
      "anonymous": false,
      "inputs": [
        {
          "indexed": true,
          "internalType": "bytes32",
          "name": "role",
          "type": "bytes32"
        },
        {
          "indexed": true,
          "internalType": "bytes32",
          "name": "previousAdminRole",
          "type": "bytes32"
        },
        {
          "indexed": true,
          "internalType": "bytes32",
          "name": "newAdminRole",
          "type": "bytes32"
        }
      ],
      "name": "RoleAdminChanged",
      "type": "event"
    },
    {
      "anonymous": false,
      "inputs": [
        {
          "indexed": true,
          "internalType": "bytes32",
          "name": "role",
          "type": "bytes32"
        },
        {
          "indexed": true,
          "internalType": "address",
          "name": "account",
          "type": "address"
        },
        {
          "indexed": true,
          "internalType": "address",
          "name": "sender",
          "type": "address"
        }
      ],
      "name": "RoleGranted",
      "type": "event"
    },
    {
      "anonymous": false,
      "inputs": [
        {
          "indexed": true,
          "internalType": "bytes32",
          "name": "role",
          "type": "bytes32"
        },
        {
          "indexed": true,
          "internalType": "address",
          "name": "account",
          "type": "address"
        },
        {
          "indexed": true,
          "internalType": "address",
          "name": "sender",
          "type": "address"
        }
      ],
      "name": "RoleRevoked",
      "type": "event"
    },
    {
      "anonymous": false,
      "inputs": [
        {
          "indexed": false,
          "internalType": "uint32",
          "name": "_feeSet",
          "type": "uint32"
        }
      ],
      "name": "SwapFeeSet",
      "type": "event"
    },
    {
      "anonymous": false,
      "inputs": [
        {
          "indexed": false,
          "internalType": "uint32[]",
          "name": "_swapIntervals",
          "type": "uint32[]"
        }
      ],
      "name": "SwapIntervalsAllowed",
      "type": "event"
    },
    {
      "anonymous": false,
      "inputs": [
        {
          "indexed": false,
          "internalType": "uint32[]",
          "name": "_swapIntervals",
          "type": "uint32[]"
        }
      ],
      "name": "SwapIntervalsForbidden",
      "type": "event"
    },
    {
      "anonymous": false,
      "inputs": [
        {
          "indexed": true,
          "internalType": "address",
          "name": "sender",
          "type": "address"
        },
        {
          "indexed": true,
          "internalType": "address",
          "name": "rewardRecipient",
          "type": "address"
        },
        {
          "indexed": true,
          "internalType": "address",
          "name": "callbackHandler",
          "type": "address"
        },
        {
          "components": [
            {
              "components": [
                {
                  "internalType": "address",
                  "name": "token",
                  "type": "address"
                },
                {
                  "internalType": "uint256",
                  "name": "reward",
                  "type": "uint256"
                },
                {
                  "internalType": "uint256",
                  "name": "toProvide",
                  "type": "uint256"
                },
                {
                  "internalType": "uint256",
                  "name": "platformFee",
                  "type": "uint256"
                }
              ],
              "internalType": "struct IDCAHubSwapHandler.TokenInSwap[]",
              "name": "tokens",
              "type": "tuple[]"
            },
            {
              "components": [
                {
                  "internalType": "address",
                  "name": "tokenA",
                  "type": "address"
                },
                {
                  "internalType": "address",
                  "name": "tokenB",
                  "type": "address"
                },
                {
                  "internalType": "uint256",
                  "name": "ratioAToB",
                  "type": "uint256"
                },
                {
                  "internalType": "uint256",
                  "name": "ratioBToA",
                  "type": "uint256"
                },
                {
                  "internalType": "bytes1",
                  "name": "intervalsInSwap",
                  "type": "bytes1"
                }
              ],
              "internalType": "struct IDCAHubSwapHandler.PairInSwap[]",
              "name": "pairs",
              "type": "tuple[]"
            }
          ],
          "indexed": false,
          "internalType": "struct IDCAHubSwapHandler.SwapInfo",
          "name": "swapInformation",
          "type": "tuple"
        },
        {
          "indexed": false,
          "internalType": "uint256[]",
          "name": "borrowed",
          "type": "uint256[]"
        },
        {
          "indexed": false,
          "internalType": "uint32",
          "name": "fee",
          "type": "uint32"
        }
      ],
      "name": "Swapped",
      "type": "event"
    },
    {
      "anonymous": false,
      "inputs": [
        {
          "indexed": true,
          "internalType": "address",
          "name": "user",
          "type": "address"
        },
        {
          "indexed": true,
          "internalType": "address",
          "name": "recipientUnswapped",
          "type": "address"
        },
        {
          "indexed": true,
          "internalType": "address",
          "name": "recipientSwapped",
          "type": "address"
        },
        {
          "indexed": false,
          "internalType": "uint256",
          "name": "positionId",
          "type": "uint256"
        },
        {
          "indexed": false,
          "internalType": "uint256",
          "name": "returnedUnswapped",
          "type": "uint256"
        },
        {
          "indexed": false,
          "internalType": "uint256",
          "name": "returnedSwapped",
          "type": "uint256"
        }
      ],
      "name": "Terminated",
      "type": "event"
    },
    {
      "anonymous": false,
      "inputs": [
        {
          "indexed": false,
          "internalType": "address[]",
          "name": "_tokens",
          "type": "address[]"
        },
        {
          "indexed": false,
          "internalType": "bool[]",
          "name": "_allowed",
          "type": "bool[]"
        }
      ],
      "name": "TokensAllowedUpdated",
      "type": "event"
    },
    {
      "anonymous": false,
      "inputs": [
        {
          "indexed": false,
          "internalType": "address",
          "name": "account",
          "type": "address"
        }
      ],
      "name": "Unpaused",
      "type": "event"
    },
    {
      "anonymous": false,
      "inputs": [
        {
          "indexed": true,
          "internalType": "address",
          "name": "withdrawer",
          "type": "address"
        },
        {
          "indexed": true,
          "internalType": "address",
          "name": "recipient",
          "type": "address"
        },
        {
          "indexed": false,
          "internalType": "uint256",
          "name": "positionId",
          "type": "uint256"
        },
        {
          "indexed": false,
          "internalType": "address",
          "name": "token",
          "type": "address"
        },
        {
          "indexed": false,
          "internalType": "uint256",
          "name": "amount",
          "type": "uint256"
        }
      ],
      "name": "Withdrew",
      "type": "event"
    },
    {
      "anonymous": false,
      "inputs": [
        {
          "indexed": true,
          "internalType": "address",
          "name": "sender",
          "type": "address"
        },
        {
          "indexed": true,
          "internalType": "address",
          "name": "recipient",
          "type": "address"
        },
        {
          "components": [
            {
              "internalType": "address",
              "name": "token",
              "type": "address"
            },
            {
              "internalType": "uint256",
              "name": "amount",
              "type": "uint256"
            }
          ],
          "indexed": false,
          "internalType": "struct IDCAHub.AmountOfToken[]",
          "name": "amounts",
          "type": "tuple[]"
        }
      ],
      "name": "WithdrewFromPlatform",
      "type": "event"
    },
    {
      "anonymous": false,
      "inputs": [
        {
          "indexed": true,
          "internalType": "address",
          "name": "withdrawer",
          "type": "address"
        },
        {
          "indexed": true,
          "internalType": "address",
          "name": "recipient",
          "type": "address"
        },
        {
          "components": [
            {
              "internalType": "address",
              "name": "token",
              "type": "address"
            },
            {
              "internalType": "uint256[]",
              "name": "positionIds",
              "type": "uint256[]"
            }
          ],
          "indexed": false,
          "internalType": "struct IDCAHubPositionHandler.PositionSet[]",
          "name": "positions",
          "type": "tuple[]"
        },
        {
          "indexed": false,
          "internalType": "uint256[]",
          "name": "withdrew",
          "type": "uint256[]"
        }
      ],
      "name": "WithdrewMany",
      "type": "event"
    },
    {
      "inputs": [],
      "name": "DEFAULT_ADMIN_ROLE",
      "outputs": [
        {
          "internalType": "bytes32",
          "name": "",
          "type": "bytes32"
        }
      ],
      "stateMutability": "view",
      "type": "function"
    },
    {
      "inputs": [],
      "name": "IMMEDIATE_ROLE",
      "outputs": [
        {
          "internalType": "bytes32",
          "name": "",
          "type": "bytes32"
        }
      ],
      "stateMutability": "view",
      "type": "function"
    },
    {
      "inputs": [],
      "name": "MAX_FEE",
      "outputs": [
        {
          "internalType": "uint32",
          "name": "",
          "type": "uint32"
        }
      ],
      "stateMutability": "view",
      "type": "function"
    },
    {
      "inputs": [],
      "name": "MAX_PLATFORM_FEE_RATIO",
      "outputs": [
        {
          "internalType": "uint16",
          "name": "",
          "type": "uint16"
        }
      ],
      "stateMutability": "view",
      "type": "function"
    },
    {
      "inputs": [],
      "name": "PLATFORM_WITHDRAW_ROLE",
      "outputs": [
        {
          "internalType": "bytes32",
          "name": "",
          "type": "bytes32"
        }
      ],
      "stateMutability": "view",
      "type": "function"
    },
    {
      "inputs": [],
      "name": "TIME_LOCKED_ROLE",
      "outputs": [
        {
          "internalType": "bytes32",
          "name": "",
          "type": "bytes32"
        }
      ],
      "stateMutability": "view",
      "type": "function"
    },
    {
      "inputs": [
        {
          "internalType": "address",
          "name": "_tokenA",
          "type": "address"
        },
        {
          "internalType": "address",
          "name": "_tokenB",
          "type": "address"
        },
        {
          "internalType": "bytes1",
          "name": "_swapIntervalMask",
          "type": "bytes1"
        },
        {
          "internalType": "uint32",
          "name": "_swapNumber",
          "type": "uint32"
        }
      ],
      "name": "accumRatio",
      "outputs": [
        {
          "components": [
            {
              "internalType": "uint256",
              "name": "accumRatioAToB",
              "type": "uint256"
            },
            {
              "internalType": "uint256",
              "name": "accumRatioBToA",
              "type": "uint256"
            }
          ],
          "internalType": "struct IDCAHubParameters.AccumRatio",
          "name": "",
          "type": "tuple"
        }
      ],
      "stateMutability": "view",
      "type": "function"
    },
    {
      "inputs": [
        {
          "internalType": "address",
          "name": "",
          "type": "address"
        },
        {
          "internalType": "address",
          "name": "",
          "type": "address"
        }
      ],
      "name": "activeSwapIntervals",
      "outputs": [
        {
          "internalType": "bytes1",
          "name": "",
          "type": "bytes1"
        }
      ],
      "stateMutability": "view",
      "type": "function"
    },
    {
      "inputs": [
        {
          "internalType": "uint32[]",
          "name": "_swapIntervals",
          "type": "uint32[]"
        }
      ],
      "name": "addSwapIntervalsToAllowedList",
      "outputs": [],
      "stateMutability": "nonpayable",
      "type": "function"
    },
    {
      "inputs": [],
      "name": "allowedSwapIntervals",
      "outputs": [
        {
          "internalType": "bytes1",
          "name": "",
          "type": "bytes1"
        }
      ],
      "stateMutability": "view",
      "type": "function"
    },
    {
      "inputs": [
        {
          "internalType": "address",
          "name": "",
          "type": "address"
        }
      ],
      "name": "allowedTokens",
      "outputs": [
        {
          "internalType": "bool",
          "name": "",
          "type": "bool"
        }
      ],
      "stateMutability": "view",
      "type": "function"
    },
    {
      "inputs": [
        {
          "internalType": "address",
          "name": "_from",
          "type": "address"
        },
        {
          "internalType": "address",
          "name": "_to",
          "type": "address"
        },
        {
          "internalType": "uint256",
          "name": "_amount",
          "type": "uint256"
        },
        {
          "internalType": "uint32",
          "name": "_amountOfSwaps",
          "type": "uint32"
        },
        {
          "internalType": "uint32",
          "name": "_swapInterval",
          "type": "uint32"
        },
        {
          "internalType": "address",
          "name": "_owner",
          "type": "address"
        },
        {
          "components": [
            {
              "internalType": "address",
              "name": "operator",
              "type": "address"
            },
            {
              "internalType": "enum IDCAPermissionManager.Permission[]",
              "name": "permissions",
              "type": "uint8[]"
            }
          ],
          "internalType": "struct IDCAPermissionManager.PermissionSet[]",
          "name": "_permissions",
          "type": "tuple[]"
        }
      ],
      "name": "deposit",
      "outputs": [
        {
          "internalType": "uint256",
          "name": "",
          "type": "uint256"
        }
      ],
      "stateMutability": "nonpayable",
      "type": "function"
    },
    {
      "inputs": [
        {
          "internalType": "address",
          "name": "_from",
          "type": "address"
        },
        {
          "internalType": "address",
          "name": "_to",
          "type": "address"
        },
        {
          "internalType": "uint256",
          "name": "_amount",
          "type": "uint256"
        },
        {
          "internalType": "uint32",
          "name": "_amountOfSwaps",
          "type": "uint32"
        },
        {
          "internalType": "uint32",
          "name": "_swapInterval",
          "type": "uint32"
        },
        {
          "internalType": "address",
          "name": "_owner",
          "type": "address"
        },
        {
          "components": [
            {
              "internalType": "address",
              "name": "operator",
              "type": "address"
            },
            {
              "internalType": "enum IDCAPermissionManager.Permission[]",
              "name": "permissions",
              "type": "uint8[]"
            }
          ],
          "internalType": "struct IDCAPermissionManager.PermissionSet[]",
          "name": "_permissions",
          "type": "tuple[]"
        },
        {
          "internalType": "bytes",
          "name": "_miscellaneous",
          "type": "bytes"
        }
      ],
      "name": "deposit",
      "outputs": [
        {
          "internalType": "uint256",
          "name": "_positionId",
          "type": "uint256"
        }
      ],
      "stateMutability": "nonpayable",
      "type": "function"
    },
    {
      "inputs": [
        {
          "internalType": "address[]",
          "name": "_tokens",
          "type": "address[]"
        },
        {
          "components": [
            {
              "internalType": "uint8",
              "name": "indexTokenA",
              "type": "uint8"
            },
            {
              "internalType": "uint8",
              "name": "indexTokenB",
              "type": "uint8"
            }
          ],
          "internalType": "struct IDCAHubSwapHandler.PairIndexes[]",
          "name": "_pairs",
          "type": "tuple[]"
        }
      ],
      "name": "getNextSwapInfo",
      "outputs": [
        {
          "components": [
            {
              "components": [
                {
                  "internalType": "address",
                  "name": "token",
                  "type": "address"
                },
                {
                  "internalType": "uint256",
                  "name": "reward",
                  "type": "uint256"
                },
                {
                  "internalType": "uint256",
                  "name": "toProvide",
                  "type": "uint256"
                },
                {
                  "internalType": "uint256",
                  "name": "platformFee",
                  "type": "uint256"
                }
              ],
              "internalType": "struct IDCAHubSwapHandler.TokenInSwap[]",
              "name": "tokens",
              "type": "tuple[]"
            },
            {
              "components": [
                {
                  "internalType": "address",
                  "name": "tokenA",
                  "type": "address"
                },
                {
                  "internalType": "address",
                  "name": "tokenB",
                  "type": "address"
                },
                {
                  "internalType": "uint256",
                  "name": "ratioAToB",
                  "type": "uint256"
                },
                {
                  "internalType": "uint256",
                  "name": "ratioBToA",
                  "type": "uint256"
                },
                {
                  "internalType": "bytes1",
                  "name": "intervalsInSwap",
                  "type": "bytes1"
                }
              ],
              "internalType": "struct IDCAHubSwapHandler.PairInSwap[]",
              "name": "pairs",
              "type": "tuple[]"
            }
          ],
          "internalType": "struct IDCAHubSwapHandler.SwapInfo",
          "name": "_swapInformation",
          "type": "tuple"
        }
      ],
      "stateMutability": "view",
      "type": "function"
    },
    {
      "inputs": [
        {
          "internalType": "bytes32",
          "name": "role",
          "type": "bytes32"
        }
      ],
      "name": "getRoleAdmin",
      "outputs": [
        {
          "internalType": "bytes32",
          "name": "",
          "type": "bytes32"
        }
      ],
      "stateMutability": "view",
      "type": "function"
    },
    {
      "inputs": [
        {
          "internalType": "bytes32",
          "name": "role",
          "type": "bytes32"
        },
        {
          "internalType": "address",
          "name": "account",
          "type": "address"
        }
      ],
      "name": "grantRole",
      "outputs": [],
      "stateMutability": "nonpayable",
      "type": "function"
    },
    {
      "inputs": [
        {
          "internalType": "bytes32",
          "name": "role",
          "type": "bytes32"
        },
        {
          "internalType": "address",
          "name": "account",
          "type": "address"
        }
      ],
      "name": "hasRole",
      "outputs": [
        {
          "internalType": "bool",
          "name": "",
          "type": "bool"
        }
      ],
      "stateMutability": "view",
      "type": "function"
    },
    {
      "inputs": [
        {
          "internalType": "uint256",
          "name": "_positionId",
          "type": "uint256"
        },
        {
          "internalType": "uint256",
          "name": "_amount",
          "type": "uint256"
        },
        {
          "internalType": "uint32",
          "name": "_newAmountOfSwaps",
          "type": "uint32"
        }
      ],
      "name": "increasePosition",
      "outputs": [],
      "stateMutability": "nonpayable",
      "type": "function"
    },
    {
      "inputs": [],
      "name": "oracle",
      "outputs": [
        {
          "internalType": "contract IPriceOracle",
          "name": "",
          "type": "address"
        }
      ],
      "stateMutability": "view",
      "type": "function"
    },
    {
      "inputs": [],
      "name": "pause",
      "outputs": [],
      "stateMutability": "nonpayable",
      "type": "function"
    },
    {
      "inputs": [],
      "name": "paused",
      "outputs": [
        {
          "internalType": "bool",
          "name": "",
          "type": "bool"
        }
      ],
      "stateMutability": "view",
      "type": "function"
    },
    {
      "inputs": [],
      "name": "permissionManager",
      "outputs": [
        {
          "internalType": "contract IDCAPermissionManager",
          "name": "",
          "type": "address"
        }
      ],
      "stateMutability": "view",
      "type": "function"
    },
    {
      "inputs": [
        {
          "internalType": "address",
          "name": "",
          "type": "address"
        }
      ],
      "name": "platformBalance",
      "outputs": [
        {
          "internalType": "uint256",
          "name": "",
          "type": "uint256"
        }
      ],
      "stateMutability": "view",
      "type": "function"
    },
    {
      "inputs": [],
      "name": "platformFeeRatio",
      "outputs": [
        {
          "internalType": "uint16",
          "name": "",
          "type": "uint16"
        }
      ],
      "stateMutability": "view",
      "type": "function"
    },
    {
      "inputs": [
        {
          "internalType": "uint256",
          "name": "_positionId",
          "type": "uint256"
        },
        {
          "internalType": "uint256",
          "name": "_amount",
          "type": "uint256"
        },
        {
          "internalType": "uint32",
          "name": "_newAmountOfSwaps",
          "type": "uint32"
        },
        {
          "internalType": "address",
          "name": "_recipient",
          "type": "address"
        }
      ],
      "name": "reducePosition",
      "outputs": [],
      "stateMutability": "nonpayable",
      "type": "function"
    },
    {
      "inputs": [
        {
          "internalType": "uint32[]",
          "name": "_swapIntervals",
          "type": "uint32[]"
        }
      ],
      "name": "removeSwapIntervalsFromAllowedList",
      "outputs": [],
      "stateMutability": "nonpayable",
      "type": "function"
    },
    {
      "inputs": [
        {
          "internalType": "bytes32",
          "name": "role",
          "type": "bytes32"
        },
        {
          "internalType": "address",
          "name": "account",
          "type": "address"
        }
      ],
      "name": "renounceRole",
      "outputs": [],
      "stateMutability": "nonpayable",
      "type": "function"
    },
    {
      "inputs": [
        {
          "internalType": "bytes32",
          "name": "role",
          "type": "bytes32"
        },
        {
          "internalType": "address",
          "name": "account",
          "type": "address"
        }
      ],
      "name": "revokeRole",
      "outputs": [],
      "stateMutability": "nonpayable",
      "type": "function"
    },
    {
      "inputs": [
        {
          "internalType": "address[]",
          "name": "_tokens",
          "type": "address[]"
        },
        {
          "internalType": "bool[]",
          "name": "_allowed",
          "type": "bool[]"
        }
      ],
      "name": "setAllowedTokens",
      "outputs": [],
      "stateMutability": "nonpayable",
      "type": "function"
    },
    {
      "inputs": [
        {
          "internalType": "contract IPriceOracle",
          "name": "_oracle",
          "type": "address"
        }
      ],
      "name": "setOracle",
      "outputs": [],
      "stateMutability": "nonpayable",
      "type": "function"
    },
    {
      "inputs": [
        {
          "internalType": "uint16",
          "name": "_platformFeeRatio",
          "type": "uint16"
        }
      ],
      "name": "setPlatformFeeRatio",
      "outputs": [],
      "stateMutability": "nonpayable",
      "type": "function"
    },
    {
      "inputs": [
        {
          "internalType": "uint32",
          "name": "_swapFee",
          "type": "uint32"
        }
      ],
      "name": "setSwapFee",
      "outputs": [],
      "stateMutability": "nonpayable",
      "type": "function"
    },
    {
      "inputs": [
        {
          "internalType": "bytes4",
          "name": "interfaceId",
          "type": "bytes4"
        }
      ],
      "name": "supportsInterface",
      "outputs": [
        {
          "internalType": "bool",
          "name": "",
          "type": "bool"
        }
      ],
      "stateMutability": "view",
      "type": "function"
    },
    {
      "inputs": [
        {
          "internalType": "address[]",
          "name": "_tokens",
          "type": "address[]"
        },
        {
          "components": [
            {
              "internalType": "uint8",
              "name": "indexTokenA",
              "type": "uint8"
            },
            {
              "internalType": "uint8",
              "name": "indexTokenB",
              "type": "uint8"
            }
          ],
          "internalType": "struct IDCAHubSwapHandler.PairIndexes[]",
          "name": "_pairsToSwap",
          "type": "tuple[]"
        },
        {
          "internalType": "address",
          "name": "_rewardRecipient",
          "type": "address"
        },
        {
          "internalType": "address",
          "name": "_callbackHandler",
          "type": "address"
        },
        {
          "internalType": "uint256[]",
          "name": "_borrow",
          "type": "uint256[]"
        },
        {
          "internalType": "bytes",
          "name": "_data",
          "type": "bytes"
        }
      ],
      "name": "swap",
      "outputs": [
        {
          "components": [
            {
              "components": [
                {
                  "internalType": "address",
                  "name": "token",
                  "type": "address"
                },
                {
                  "internalType": "uint256",
                  "name": "reward",
                  "type": "uint256"
                },
                {
                  "internalType": "uint256",
                  "name": "toProvide",
                  "type": "uint256"
                },
                {
                  "internalType": "uint256",
                  "name": "platformFee",
                  "type": "uint256"
                }
              ],
              "internalType": "struct IDCAHubSwapHandler.TokenInSwap[]",
              "name": "tokens",
              "type": "tuple[]"
            },
            {
              "components": [
                {
                  "internalType": "address",
                  "name": "tokenA",
                  "type": "address"
                },
                {
                  "internalType": "address",
                  "name": "tokenB",
                  "type": "address"
                },
                {
                  "internalType": "uint256",
                  "name": "ratioAToB",
                  "type": "uint256"
                },
                {
                  "internalType": "uint256",
                  "name": "ratioBToA",
                  "type": "uint256"
                },
                {
                  "internalType": "bytes1",
                  "name": "intervalsInSwap",
                  "type": "bytes1"
                }
              ],
              "internalType": "struct IDCAHubSwapHandler.PairInSwap[]",
              "name": "pairs",
              "type": "tuple[]"
            }
          ],
          "internalType": "struct IDCAHubSwapHandler.SwapInfo",
          "name": "_swapInformation",
          "type": "tuple"
        }
      ],
      "stateMutability": "nonpayable",
      "type": "function"
    },
    {
      "inputs": [
        {
          "internalType": "address",
          "name": "_tokenA",
          "type": "address"
        },
        {
          "internalType": "address",
          "name": "_tokenB",
          "type": "address"
        },
        {
          "internalType": "bytes1",
          "name": "_swapIntervalMask",
          "type": "bytes1"
        },
        {
          "internalType": "uint32",
          "name": "_swapNumber",
          "type": "uint32"
        }
      ],
      "name": "swapAmountDelta",
      "outputs": [
        {
          "components": [
            {
              "internalType": "uint128",
              "name": "swapDeltaAToB",
              "type": "uint128"
            },
            {
              "internalType": "uint128",
              "name": "swapDeltaBToA",
              "type": "uint128"
            }
          ],
          "internalType": "struct IDCAHubParameters.SwapDelta",
          "name": "",
          "type": "tuple"
        }
      ],
      "stateMutability": "view",
      "type": "function"
    },
    {
      "inputs": [
        {
          "internalType": "address",
          "name": "_tokenA",
          "type": "address"
        },
        {
          "internalType": "address",
          "name": "_tokenB",
          "type": "address"
        },
        {
          "internalType": "bytes1",
          "name": "_swapIntervalMask",
          "type": "bytes1"
        }
      ],
      "name": "swapData",
      "outputs": [
        {
          "components": [
            {
              "internalType": "uint32",
              "name": "performedSwaps",
              "type": "uint32"
            },
            {
              "internalType": "uint224",
              "name": "nextAmountToSwapAToB",
              "type": "uint224"
            },
            {
              "internalType": "uint32",
              "name": "lastSwappedAt",
              "type": "uint32"
            },
            {
              "internalType": "uint224",
              "name": "nextAmountToSwapBToA",
              "type": "uint224"
            }
          ],
          "internalType": "struct IDCAHubParameters.SwapData",
          "name": "",
          "type": "tuple"
        }
      ],
      "stateMutability": "view",
      "type": "function"
    },
    {
      "inputs": [],
      "name": "swapFee",
      "outputs": [
        {
          "internalType": "uint32",
          "name": "",
          "type": "uint32"
        }
      ],
      "stateMutability": "view",
      "type": "function"
    },
    {
      "inputs": [
        {
          "internalType": "uint256",
          "name": "_positionId",
          "type": "uint256"
        },
        {
          "internalType": "address",
          "name": "_recipientUnswapped",
          "type": "address"
        },
        {
          "internalType": "address",
          "name": "_recipientSwapped",
          "type": "address"
        }
      ],
      "name": "terminate",
      "outputs": [
        {
          "internalType": "uint256",
          "name": "_unswapped",
          "type": "uint256"
        },
        {
          "internalType": "uint256",
          "name": "_swapped",
          "type": "uint256"
        }
      ],
      "stateMutability": "nonpayable",
      "type": "function"
    },
    {
      "inputs": [
        {
          "internalType": "address",
          "name": "",
          "type": "address"
        }
      ],
      "name": "tokenMagnitude",
      "outputs": [
        {
          "internalType": "uint120",
          "name": "",
          "type": "uint120"
        }
      ],
      "stateMutability": "view",
      "type": "function"
    },
    {
      "inputs": [],
      "name": "totalCreatedPositions",
      "outputs": [
        {
          "internalType": "uint256",
          "name": "",
          "type": "uint256"
        }
      ],
      "stateMutability": "view",
      "type": "function"
    },
    {
      "inputs": [],
      "name": "unpause",
      "outputs": [],
      "stateMutability": "nonpayable",
      "type": "function"
    },
    {
      "inputs": [
        {
          "internalType": "uint256",
          "name": "_positionId",
          "type": "uint256"
        }
      ],
      "name": "userPosition",
      "outputs": [
        {
          "components": [
            {
              "internalType": "contract IERC20Metadata",
              "name": "from",
              "type": "address"
            },
            {
              "internalType": "contract IERC20Metadata",
              "name": "to",
              "type": "address"
            },
            {
              "internalType": "uint32",
              "name": "swapInterval",
              "type": "uint32"
            },
            {
              "internalType": "uint32",
              "name": "swapsExecuted",
              "type": "uint32"
            },
            {
              "internalType": "uint256",
              "name": "swapped",
              "type": "uint256"
            },
            {
              "internalType": "uint32",
              "name": "swapsLeft",
              "type": "uint32"
            },
            {
              "internalType": "uint256",
              "name": "remaining",
              "type": "uint256"
            },
            {
              "internalType": "uint120",
              "name": "rate",
              "type": "uint120"
            }
          ],
          "internalType": "struct IDCAHubPositionHandler.UserPosition",
          "name": "_userPosition",
          "type": "tuple"
        }
      ],
      "stateMutability": "view",
      "type": "function"
    },
    {
      "inputs": [
        {
          "components": [
            {
              "internalType": "address",
              "name": "token",
              "type": "address"
            },
            {
              "internalType": "uint256",
              "name": "amount",
              "type": "uint256"
            }
          ],
          "internalType": "struct IDCAHub.AmountOfToken[]",
          "name": "_amounts",
          "type": "tuple[]"
        },
        {
          "internalType": "address",
          "name": "_recipient",
          "type": "address"
        }
      ],
      "name": "withdrawFromPlatformBalance",
      "outputs": [],
      "stateMutability": "nonpayable",
      "type": "function"
    },
    {
      "inputs": [
        {
          "internalType": "uint256",
          "name": "_positionId",
          "type": "uint256"
        },
        {
          "internalType": "address",
          "name": "_recipient",
          "type": "address"
        }
      ],
      "name": "withdrawSwapped",
      "outputs": [
        {
          "internalType": "uint256",
          "name": "",
          "type": "uint256"
        }
      ],
      "stateMutability": "nonpayable",
      "type": "function"
    },
    {
      "inputs": [
        {
          "components": [
            {
              "internalType": "address",
              "name": "token",
              "type": "address"
            },
            {
              "internalType": "uint256[]",
              "name": "positionIds",
              "type": "uint256[]"
            }
          ],
          "internalType": "struct IDCAHubPositionHandler.PositionSet[]",
          "name": "_positions",
          "type": "tuple[]"
        },
        {
          "internalType": "address",
          "name": "_recipient",
          "type": "address"
        }
      ],
      "name": "withdrawSwappedMany",
      "outputs": [
        {
          "internalType": "uint256[]",
          "name": "_swapped",
          "type": "uint256[]"
        }
      ],
      "stateMutability": "nonpayable",
      "type": "function"
    }
  ],
  "transactionHash": "0x530b194ae1b2d107aa4635bcc2fa1bb6f96a30aebe202d5c42eccf37efe67101",
  "args": [
    "0x1a00e1E311009E56e3b0B9Ed6F86f5Ce128a1C01",
    "0xDDC4A17B23E5e14aa4ceE71E8a414c3bdC55e12a",
    "0x4b0C54236B86f41C5e5A5dc5d020f832692ff06d",
    "0x6f54391fE0386D506b51d69Deeb8b04E0544E088"
  ],
  "numDeployments": 1,
  "bytecode": "0x60806040527f313f8c5ec4103e5607b5d8b3519ab06a512037396eaf72a07527d8b838012ed46008557ffb63867dc303889c4e19b6276d834e066500dd4210f4434d34089a246beec82a6009557f73c06b41830ea810d4e9dd3dfb0309555fbff1642391fb7644bc4a0b0f7a77fd600a55600b805466ffffffffffffff60a01b1916659c4f0000017760a41b1790553480156200009b57600080fd5b506040516200660838038062006608833981016040819052620000be916200030c565b60016000556007805460ff19169055808484846001600160a01b0383161580620000ef57506001600160a01b038216155b806200010257506001600160a01b038116155b15620001215760405163d92e233d60e01b815260040160405180910390fd5b600854620001309084620001cc565b6009546200013f9083620001cc565b62000155600a54600854620001dc60201b60201c565b600854620001649080620001dc565b600954620001739080620001dc565b600b80546001600160a01b0319166001600160a01b039290921691909117905550620001a190508162000227565b600e80546001600160a01b0319166001600160a01b0392909216919091179055506200037492505050565b620001d8828262000252565b5050565b600082815260066020526040808220600101805490849055905190918391839186917fbd79b86ffe0ab8e8776151514217cd7cacd52c909f66475c3af44e129f0b00ff9190a4505050565b6001600160a01b0381166200024f5760405163d92e233d60e01b815260040160405180910390fd5b50565b60008281526006602090815260408083206001600160a01b038516845290915290205460ff16620001d85760008281526006602090815260408083206001600160a01b03851684529091529020805460ff19166001179055620002b23390565b6001600160a01b0316816001600160a01b0316837f2f8788117e7eff1d82e926ec794901d17c78024a50270940304540a733656f0d60405160405180910390a45050565b6001600160a01b03811681146200024f57600080fd5b600080600080608085870312156200032357600080fd5b84516200033081620002f6565b60208601519094506200034381620002f6565b60408601519093506200035681620002f6565b60608601519092506200036981620002f6565b939692955090935050565b61628480620003846000396000f3fe608060405234801561001057600080fd5b50600436106102ff5760003560e01c80636b29e1bd1161019c578063a217fddf116100ee578063d547741f11610097578063e744092e11610071578063e744092e146107a5578063f1accf39146107c8578063fc448158146107db57600080fd5b8063d547741f1461076c578063d6d788c31461077f578063ded700a61461079257600080fd5b8063c67e32e9116100c8578063c67e32e914610726578063cc7a204914610746578063d2d95b2d1461075957600080fd5b8063a217fddf14610701578063b2b513c114610709578063bc063e1a1461071c57600080fd5b80637d361dd311610150578063808ba8e01161012a578063808ba8e01461065c5780638456cb59146106c057806391d14854146106c857600080fd5b80637d361dd3146106155780637d8e86031461061e5780637dc0d1d01461063157600080fd5b806372ada4c51161018157806372ada4c5146105c757806374ae623b146105ef5780637adbf9731461060257600080fd5b80636b29e1bd146105a15780636eefd134146105b457600080fd5b80633feb14931161025557806354cf2aeb11610209578063582cf84b116101e3578063582cf84b1461054b5780635b6fd01d146105795780635c975abb1461059957600080fd5b806354cf2aeb146104f7578063560c64991461052357806357ae1cec1461053657600080fd5b8063480e5da11161023a578063480e5da1146104875780634aa91aee146104b45780634eeeb3eb146104ee57600080fd5b80633feb149314610454578063480b37961461046757600080fd5b8063248a9ca3116102b757806336568abe1161029157806336568abe1461043057806336639580146104435780633f4ba83a1461044c57600080fd5b8063248a9ca3146103d85780632a2a1a74146103fb5780632f2ff15d1461041b57600080fd5b806316cd7af8116102e857806316cd7af81461035a578063176218901461039b5780631b8b8c34146103bc57600080fd5b806301ffc9a7146103045780630b1aa9841461032c575b600080fd5b610317610312366004614df9565b6107e4565b60405190151581526020015b60405180910390f35b61033f61033a366004614e74565b61081b565b60408051825181526020928301519281019290925201610323565b610383610368366004614ecc565b600d602052600090815260409020546001600160781b031681565b6040516001600160781b039091168152602001610323565b6103ae6103a9366004614ee9565b6108a5565b604051908152602001610323565b6103c561271081565b60405161ffff9091168152602001610323565b6103ae6103e6366004614f19565b60009081526006602052604090206001015490565b61040e610409366004614ffe565b610984565b60405161032391906151da565b61042e610429366004614ee9565b610ed7565b005b61042e61043e366004614ee9565b610f02565b6103ae60115481565b61042e610f8e565b61042e6104623660046151ed565b610fa6565b61047a61047536600461522f565b611066565b60405161032391906152c1565b600b5461049b90600160c01b900460f81b81565b6040516001600160f81b03199091168152602001610323565b6104c76104c2366004614e74565b6112ea565b6040805182516001600160801b039081168252602093840151169281019290925201610323565b6103ae60095481565b600b5461050e90600160a01b900463ffffffff1681565b60405163ffffffff9091168152602001610323565b61042e6105313660046152d4565b611385565b600b546103c590600160c81b900461ffff1681565b61049b61055936600461530c565b600160209081526000928352604080842090915290825290205460f81b81565b61058c610587366004614f19565b611529565b604051610323919061533a565b6103176116ed565b6103ae6105af3660046153bf565b6116fc565b61042e6105c2366004615465565b611b28565b6105da6105d5366004615489565b611bce565b60408051928352602083019190915201610323565b61042e6105fd3660046154c0565b611e60565b61042e610610366004614ecc565b6120bf565b6103ae60085481565b61042e61062c3660046151ed565b61213b565b600b54610644906001600160a01b031681565b6040516001600160a01b039091168152602001610323565b61066f61066a36600461552c565b6121d5565b6040516103239190600060808201905063ffffffff80845116835260208401516001600160e01b03808216602086015282604087015116604086015280606087015116606086015250505092915050565b61042e612292565b6103176106d6366004614ee9565b60009182526006602090815260408084206001600160a01b0393909316845291905290205460ff1690565b6103ae600081565b6103ae610717366004615573565b6122a7565b61050e620186a081565b6103ae610734366004614ecc565b60026020526000908152604090205481565b600e54610644906001600160a01b031681565b61040e610767366004615623565b61230b565b61042e61077a366004614ee9565b612ad4565b61042e61078d366004615683565b612afa565b61042e6107a036600461569e565b612b7c565b6103176107b3366004614ecc565b600c6020526000908152604090205460ff1681565b61042e6107d63660046156ca565b612c32565b6103ae600a5481565b60006001600160e01b03198216637965db0b60e01b148061081557506301ffc9a760e01b6001600160e01b03198316145b92915050565b604080518082019091526000808252602082015260008061083c8787612ca9565b6001600160a01b0391821660009081526004602090815260408083209390941682529182528281206001600160f81b031989168252825282812063ffffffff8816825282528290208251808401909352805483526001015490820152925050505b949350505050565b60006002600054036108fe5760405162461bcd60e51b815260206004820152601f60248201527f5265656e7472616e637947756172643a207265656e7472616e742063616c6c0060448201526064015b60405180910390fd5b600260005561090c82612cda565b60008061091885612d01565b91509150610927818584612e17565b604080518681526001600160a01b0383811660208301529181018490529085169033907fcade65431cead780eb2b14b84a6594e1b235278a02e31abf3fc04c7c3e8ab4ee9060600160405180910390a35060016000559392505050565b60408051808201909152606080825260208201526002600054036109ea5760405162461bcd60e51b815260206004820152601f60248201527f5265656e7472616e637947756172643a207265656e7472616e742063616c6c0060448201526064016108f5565b60026000556109f76116ed565b15610a375760405162461bcd60e51b815260206004820152601060248201526f14185d5cd8589b194e881c185d5cd95960821b60448201526064016108f5565b600b54600160a01b900463ffffffff16610a538c8c8c8c61230b565b9150426000805b846020015151811015610b4057600085602001518281518110610a7f57610a7f615712565b60209081029190910101516080810151909150600160f81b5b6001600160f81b031980821690831610801590610abe57506001600160f81b0319811615155b15610b13576001600160f81b03198282161615610b0557610b058360000151846020015183610af18b8860400151612e2b565b610aff8c8960600151612e2b565b8b612e54565b60011b607f60f91b16610a98565b8480610b2857506001600160f81b0319821615155b94505050508080610b389061573e565b915050610a5a565b5080610b5f576040516346f8d7b160e11b815260040160405180910390fd5b505081515160009067ffffffffffffffff811115610b7f57610b7f615757565b604051908082528060200260200182016040528015610ba8578160200160208202803683370190505b50905060005b835151811015610cc457600084600001518281518110610bd057610bd0615712565b602002602001015190506000898984818110610bee57610bee615712565b905060200201359050600082604001511180610c0a5750600081115b15610c39578151610c1a9061320c565b848481518110610c2c57610c2c615712565b6020026020010181815250505b8a6001600160a01b03168c6001600160a01b031603610c7f576000818360200151610c64919061576d565b90508015610c79578251610c79908d83612e17565b50610caf565b602082015115610c9c57610c9c82600001518d8460200151612e17565b8015610caf578151610caf908c83612e17565b50508080610cbc9061573e565b915050610bae565b508251604051632c0be4cf60e11b81526001600160a01b038a1691635817c99e91610cfb9133918c908c908c908c906004016157fd565b600060405180830381600087803b158015610d1557600080fd5b505af1158015610d29573d6000803e3d6000fd5b5050505060005b835151811015610e6657600084600001518281518110610d5257610d52615712565b60200260200101519050600081606001519050600082604001511180610d90575060008a8a85818110610d8757610d87615712565b90506020020135115b15610e1c57600082602001518360400151868681518110610db357610db3615712565b6020026020010151610dc5919061576d565b610dcf91906158ab565b90506000610de0846000015161320c565b905081811015610e035760405163d562e29f60e01b815260040160405180910390fd5b610e0d82826158ab565b610e17908461576d565b925050505b8015610e515781516001600160a01b031660009081526002602052604081208054839290610e4b90849061576d565b90915550505b50508080610e5e9061573e565b915050610d30565b50876001600160a01b0316896001600160a01b0316336001600160a01b03167fa1ec3a0d95701d84ce597ac1f6789b13a582504554c8aa7ec2be74470639c8e5868b8b88604051610eba94939291906158c2565b60405180910390a4505060016000559a9950505050505050505050565b600082815260066020526040902060010154610ef38133613277565b610efd83836132f7565b505050565b6001600160a01b0381163314610f805760405162461bcd60e51b815260206004820152602f60248201527f416363657373436f6e74726f6c3a2063616e206f6e6c792072656e6f756e636560448201527f20726f6c657320666f722073656c66000000000000000000000000000000000060648201526084016108f5565b610f8a8282613399565b5050565b600854610f9b8133613277565b610fa361341c565b50565b600854610fb38133613277565b60005b8281101561102757610fed848483818110610fd357610fd3615712565b9050602002016020810190610fe89190615683565b6134ba565b600b805460ff60c01b198116600160c01b9182900460f890811b9490941790931c029190911790558061101f8161573e565b915050610fb6565b507fd691741464555eddf67afe8f82b0cbe92f8859926856aec4a48a106ceb1b1bee8383604051611059929190615900565b60405180910390a1505050565b60606002600054036110ba5760405162461bcd60e51b815260206004820152601f60248201527f5265656e7472616e637947756172643a207265656e7472616e742063616c6c0060448201526064016108f5565b60026000556110c882612cda565b8267ffffffffffffffff8111156110e1576110e1615757565b60405190808252806020026020018201604052801561110a578160200160208202803683370190505b50905060005b8381101561128e57600085858381811061112c5761112c615712565b905060200281019061113e9190615949565b61114c906020810190614ecc565b905060005b86868481811061116357611163615712565b90506020028101906111759190615949565b611183906020810190615969565b9050811015611256576000806111e08989878181106111a4576111a4615712565b90506020028101906111b69190615949565b6111c4906020810190615969565b858181106111d4576111d4615712565b90506020020135612d01565b91509150836001600160a01b0316816001600160a01b0316146112165760405163305663b560e11b815260040160405180910390fd5b8186868151811061122957611229615712565b6020026020010181815161123d919061576d565b90525082915061124e90508161573e565b915050611151565b5061127b818585858151811061126e5761126e615712565b6020026020010151612e17565b50806112868161573e565b915050611110565b50816001600160a01b0316336001600160a01b03167fdc1e0c1e1b707ce83f3d3a8c66a6abc1d23d95f81a61fc1f578355e0d968fd2d8686856040516112d693929190615a1b565b60405180910390a360016000559392505050565b604080518082019091526000808252602082015260008061130b8787612ca9565b6001600160a01b0391821660009081526003602090815260408083209490931682529283528181206001600160f81b031989168252835281812063ffffffff8816825283528190208151808301909252546001600160801b038082168352600160801b909104169181019190915292505050949350505050565b6002600054036113d75760405162461bcd60e51b815260206004820152601f60248201527f5265656e7472616e637947756172643a207265656e7472616e742063616c6c0060448201526064016108f5565b6002600055600a546113e98133613277565b60005b838110156114d05784848281811061140657611406615712565b905060400201602001356002600087878581811061142657611426615712565b61143c9260206040909202019081019150614ecc565b6001600160a01b03166001600160a01b03168152602001908152602001600020600082825461146b91906158ab565b909155506114be905085858381811061148657611486615712565b61149c9260206040909202019081019150614ecc565b848787858181106114af576114af615712565b90506040020160200135612e17565b806114c88161573e565b9150506113ec565b50816001600160a01b0316336001600160a01b03167fc372140441ddd3b3a7319bbc36cbc33b5600b15c211eda1d1fc9d35bb7ebb3a88686604051611516929190615ab7565b60405180910390a3505060016000555050565b6040805161010081018252600080825260208201819052918101829052606081018290526080810182905260a0810182905260c0810182905260e08101919091526000828152600f60209081526040808320815160e081018352815463ffffffff808216835264010000000082041694820194909452600160401b840460f81b6001600160f81b031916928101839052600160481b84046001600160a01b0390811660608301819052600160e81b90950462ffffff1660808301526001909201546bffffffffffffffffffffffff811660a0830152600160601b900490911660c0820181905290939261161e929091906135a6565b90506000611630828460200151613601565b60608401516001600160a01b03908116865260c0850151166020860152835190915061165d908290613622565b63ffffffff16606085015260208301516116779083613622565b63ffffffff1660a085015261168c8383613648565b60c085015261169a8361367a565b6001600160781b031660e085015260408301516001600160f81b031916156116e5576116c983604001516136b0565b63ffffffff1660408501526116df8584846137bc565b60808501525b505050919050565b60006116f7613a2f565b905090565b60006002600054036117505760405162461bcd60e51b815260206004820152601f60248201527f5265656e7472616e637947756172643a207265656e7472616e742063616c6c0060448201526064016108f5565b600260005561175d6116ed565b1561179d5760405162461bcd60e51b815260206004820152601060248201526f14185d5cd8589b194e881c185d5cd95960821b60448201526064016108f5565b6001600160a01b03891615806117ba57506001600160a01b038816155b806117cc57506001600160a01b038416155b156117ea5760405163d92e233d60e01b815260040160405180910390fd5b876001600160a01b0316896001600160a01b03160361181c5760405163c1ab6dc160e01b815260040160405180910390fd5b8660000361183d57604051631f2a200560e01b815260040160405180910390fd5b8563ffffffff1660000361186457604051633c92196b60e11b815260040160405180910390fd5b61186e8989613a3d565b600061187a8888613a9c565b9050600060116000815461188d9061573e565b9182905550905060006118ab8c8c8b6118a58c6134ba565b87613ad9565b6040810151600b549192506001600160f81b0319600160c01b90920460f81b16166000036118ec57604051638b52594f60e01b815260040160405180910390fd5b600e546040516306d66a1360e31b81526001600160a01b03909116906336b35098906119229085908b908b908b90600401615bf4565b600060405180830381600087803b15801561193c57600080fd5b505af1158015611950573d6000803e3d6000fd5b505050506119638c8c8360400151613bbc565b6119788c8c8360400151846020015187613cc8565b6000828152600f60209081526040918290208351815492850151938501516060860151608087015163ffffffff93841667ffffffffffffffff199096169590951764010000000096841696909602959095177fffffff000000000000000000000000000000000000000000ffffffffffffffff16600160401b60f89290921c919091027fffffff0000000000000000000000000000000000000000ffffffffffffffffff1617600160481b6001600160a01b0395861602177cffffffffffffffffffffffffffffffffffffffffffffffffffffffffff16600160e81b62ffffff9094169390930292909217815560a084015160c08501516bffffffffffffffffffffffff909116600160601b9185169190910217600190910155611aa5918e1690339030908e90613cde16565b866001600160a01b0316336001600160a01b03167f1915b09a20b5793f1bd89b84dc928fe4ee36b0b9270ec217a3b2c278999f0967848f8f8d8988600001516001611af09190615c27565b89602001518f8f604051611b0c99989796959493929190615c4f565b60405180910390a35060016000559a9950505050505050505050565b600954611b358133613277565b61271061ffff83161115611b5c576040516314bc5e9d60e21b815260040160405180910390fd5b600b80547fffffffffff0000ffffffffffffffffffffffffffffffffffffffffffffffffff16600160c81b61ffff8516908102919091179091556040519081527f6c234431526967795ada65665e195191d4b2fc63c9f564d1ea626478325ae9d9906020015b60405180910390a15050565b600080600260005403611c235760405162461bcd60e51b815260206004820152601f60248201527f5265656e7472616e637947756172643a207265656e7472616e742063616c6c0060448201526064016108f5565b60026000556001600160a01b0384161580611c4557506001600160a01b038316155b15611c635760405163d92e233d60e01b815260040160405180910390fd5b6000858152600f6020908152604091829020825160e081018452815463ffffffff808216835264010000000082041693820193909352600160401b830460f81b6001600160f81b03191693810193909352600160481b82046001600160a01b039081166060850152600160e81b90920462ffffff166080840152600101546bffffffffffffffffffffffff811660a0840152600160601b90041660c0820152611d0e86826003613d4f565b6000611d2782606001518360c0015184604001516135a6565b9050611d348783836137bc565b9250611d408282613648565b9350611d4c8282613e10565b6000878152600f60209081526040808320838155600101839055601090915280822091909155600e549051630852cd8d60e31b8152600481018990526001600160a01b03909116906342966c6890602401600060405180830381600087803b158015611db757600080fd5b505af1158015611dcb573d6000803e3d6000fd5b505050506000831115611de757611de78260c001518685612e17565b8315611dfc57611dfc82606001518786612e17565b60408051888152602081018690529081018490526001600160a01b03808716919088169033907f2577f709b454c4d5c1118a01186dd48d4a6bacf43fe4c26aad2f66a51bf5290d9060600160405180910390a4505060016000559094909350915050565b600854611e6d8133613277565b838214611e8d576040516389db169560e01b815260040160405180910390fd5b60005b8481101561207a57838382818110611eaa57611eaa615712565b9050602002016020810190611ebf9190615ccc565b600c6000888885818110611ed557611ed5615712565b9050602002016020810190611eea9190614ecc565b6001600160a01b0316815260208101919091526040016000908120805460ff191692151592909217909155600d90878784818110611f2a57611f2a615712565b9050602002016020810190611f3f9190614ecc565b6001600160a01b0316815260208101919091526040016000908120546001600160781b0316900361206857858582818110611f7c57611f7c615712565b9050602002016020810190611f919190614ecc565b6001600160a01b031663313ce5676040518163ffffffff1660e01b8152600401602060405180830381865afa158015611fce573d6000803e3d6000fd5b505050506040513d601f19601f82011682018060405250810190611ff29190615cf8565b611ffd90600a615df9565b600d600088888581811061201357612013615712565b90506020020160208101906120289190614ecc565b6001600160a01b03168152602081019190915260400160002080546effffffffffffffffffffffffffffff19166001600160781b03929092169190911790555b806120728161573e565b915050611e90565b507f205ab319bb13f5ff529e58d094941772894e6d3a1905e971dafc88a1bf8bf44b858585856040516120b09493929190615e08565b60405180910390a15050505050565b6009546120cc8133613277565b6120d582612cda565b600b80547fffffffffffffffffffffffff0000000000000000000000000000000000000000166001600160a01b0384169081179091556040519081527f3f32684a32a11dabdbb8c0177de80aa3ae36a004d75210335b49e544e48cd0aa90602001611bc2565b6008546121488133613277565b60005b828110156121a357612168848483818110610fd357610fd3615712565b600b805460ff60c01b1981169219600160c01b9182900460f890811b91909116901c029190911790558061219b8161573e565b91505061214b565b507fd0359552feffede26fee29bd110dd8e1a3237acd35c7e17a9d3b7330b02f88258383604051611059929190615900565b604080516080810182526000808252602082018190529181018290526060810182905290806122048686612ca9565b6001600160a01b0391821660009081526005602090815260408083209390941682529182528281206001600160f81b03198816825282528290208251608081018452815463ffffffff80821683526001600160e01b036401000000009283900481169584019590955260019093015492831694820194909452929004166060820152925050505b9392505050565b60085461229f8133613277565b610fa3613e4f565b60006122b98b8b8b8b8b8b8b8b6116fc565b905081156122fd577fa9c989cd063ac13a33305492ca3b3643f4bf38968e009d020c750e27b3ee287e8184846040516122f493929190615e98565b60405180910390a15b9a9950505050505050505050565b6040805180820190915260608082526020820152600b5463ffffffff600160a01b820416906001600160a01b031660008667ffffffffffffffff81111561235457612354615757565b60405190808252806020026020018201604052801561237d578160200160208202803683370190505b50905060008767ffffffffffffffff81111561239b5761239b615757565b6040519080825280602002602001820160405280156123c4578160200160208202803683370190505b5090508567ffffffffffffffff8111156123e0576123e0615757565b60405190808252806020026020018201604052801561243957816020015b6040805160a0810182526000808252602080830182905292820181905260608201819052608082015282526000199092019101816123fe5790505b50602086015260005b868110156127c657600088888381811061245e5761245e615712565b6124749260206040909202019081019150615ebb565b9050600089898481811061248a5761248a615712565b90506040020160200160208101906124a29190615ebb565b90508060ff168260ff1610158061257e575060008311801561257e575089896124cc6001866158ab565b8181106124db576124db615712565b6124f19260206040909202019081019150615ebb565b60ff168260ff16108061257e5750898961250c6001866158ab565b81811061251b5761251b615712565b6125319260206040909202019081019150615ebb565b60ff168260ff1614801561257e5750898961254d6001866158ab565b81811061255c5761255c615712565b90506040020160200160208101906125749190615ebb565b60ff168160ff1611155b1561259c57604051635dd49b5d60e01b815260040160405180910390fd5b6040805160a0810182526000808252602082018190529181018290526060810182905260808101919091528c8c8460ff168181106125dc576125dc615712565b90506020020160208101906125f19190614ecc565b6001600160a01b031681528c8c60ff841681811061261157612611615712565b90506020020160208101906126269190614ecc565b6001600160a01b039081166020838101918252835183166000908152600d90915260408082205483519094168252812054845192516001600160781b03948516949091169282916126779190613ecc565b6001600160f81b03191660808801528b51919350915082908b9060ff8a169081106126a4576126a4615712565b602002602001018181516126b8919061576d565b905250895181908b9060ff89169081106126d4576126d4615712565b602002602001018181516126e8919061576d565b905250845160208601516126ff919086868f614075565b60608701819052604087019190915261271c90849083908f61411e565b898860ff168151811061273157612731615712565b60200260200101818151612745919061576d565b905250604085015161275b90859084908f61411e565b898760ff168151811061277057612770615712565b60200260200101818151612784919061576d565b90525060208d015180518691908a9081106127a1576127a1615712565b60200260200101819052505050505050505080806127be9061573e565b915050612442565b50600b54600160c81b900461ffff168867ffffffffffffffff8111156127ee576127ee615757565b60405190808252806020026020018201604052801561285357816020015b612840604051806080016040528060006001600160a01b031681526020016000815260200160008152602001600081525090565b81526020019060019003908161280c5790505b50865260005b865151811015612ac657600c60008c8c8481811061287957612879615712565b905060200201602081019061288e9190614ecc565b6001600160a01b0316815260208101919091526040016000205460ff166128c8576040516306d022d560e51b815260040160405180910390fd5b60008111801561294057508a8a6128e06001846158ab565b8181106128ef576128ef615712565b90506020020160208101906129049190614ecc565b6001600160a01b03168b8b8381811061291f5761291f615712565b90506020020160208101906129349190614ecc565b6001600160a01b031611155b1561295e576040516333910aef60e11b815260040160405180910390fd5b612992604051806080016040528060006001600160a01b031681526020016000815260200160008152602001600081525090565b8b8b838181106129a4576129a4615712565b90506020020160208101906129b99190614ecc565b6001600160a01b0316815283516000908590849081106129db576129db615712565b6020026020010151905060008684815181106129f9576129f9615712565b602002602001015190506000821180612a125750600081115b15612a8e576000612a238a84614168565b90506000612710612a3861ffff891684615ed8565b612a429190615f0d565b90506000612a508585615f21565b905081811315612a6e57612a648282615f21565b6020870152612a86565b81811215612a8657612a808183615f21565b60408701525b506060850152505b828a600001518581518110612aa557612aa5615712565b60200260200101819052505050508080612abe9061573e565b915050612859565b505050505050949350505050565b600082815260066020526040902060010154612af08133613277565b610efd8383613399565b600954612b078133613277565b612b10826141a9565b600b80547fffffffffffffffff00000000ffffffffffffffffffffffffffffffffffffffff16600160a01b63ffffffff8516908102919091179091556040519081527f5658872a8436367e842f76c14ffbbf8e67a2e70f47b28b3c4154134f72e902d690602001611bc2565b600260005403612bce5760405162461bcd60e51b815260206004820152601f60248201527f5265656e7472616e637947756172643a207265656e7472616e742063616c6c0060448201526064016108f5565b6002600055612bdb6116ed565b15612c1b5760405162461bcd60e51b815260206004820152601060248201526f14185d5cd8589b194e881c185d5cd95960821b60448201526064016108f5565b612c288383836000614202565b5050600160005550565b600260005403612c845760405162461bcd60e51b815260206004820152601f60248201527f5265656e7472616e637947756172643a207265656e7472616e742063616c6c0060448201526064016108f5565b6002600055612c9281612cda565b612c9e84848484614202565b505060016000555050565b600080826001600160a01b0316846001600160a01b031610612ccc578284612ccf565b83835b909590945092505050565b6001600160a01b038116610fa35760405163d92e233d60e01b815260040160405180910390fd5b6000818152600f60209081526040808320815160e081018352815463ffffffff808216835264010000000082041694820194909452600160401b840460f81b6001600160f81b03191692810192909252600160481b83046001600160a01b039081166060840152600160e81b90930462ffffff166080830152600101546bffffffffffffffffffffffff811660a0830152600160601b900490911660c08201528190612daf84826002613d4f565b6000612dc882606001518360c0015184604001516135a6565b9050612dd58583836137bc565b60c0909201516000958652600f60209081526040808820805463ffffffff90951663ffffffff1990951694909417909355601090529085209490945593915050565b610efd6001600160a01b0384168383614522565b6000612e38606484615f79565b612e4490612710615f9c565b61228b9063ffffffff1683615ed8565b6001600160a01b03808716600090815260056020908152604080832093891683529281528282206001600160f81b0319881683528152908290208251608081018452815463ffffffff80821683526001600160e01b0364010000000092839004811695840186905260019094015490811695830195909552909304166060830152151580612eef5750600081606001516001600160e01b0316115b156131c8576001600160a01b038088166000908152600460209081526040808320938a1683529281528282206001600160f81b0319891683528152828220845163ffffffff168352815290829020825180840184528154815260019091015491810191909152815180830190925280519091908190612f6f90889061576d565b8152602001858360200151612f84919061576d565b90526001600160a01b03808a166000908152600460209081526040808320938c1683529281528282206001600160f81b03198b16835290529081208451909190612fcf906001615c27565b63ffffffff1681526020808201929092526040908101600090812084518155938301516001909401939093556001600160a01b03808c16845260038352818420908b16845282528083206001600160f81b03198a16845290915281208351829061303a906002615c27565b63ffffffff16815260208082019290925260409081016000208151808301835290546001600160801b038082168352600160801b90910416928101929092528051608081019091528451919250908190613095906001615c27565b63ffffffff16815260200182600001516001600160801b031685602001516130bd9190615fc1565b6001600160e01b031681526020018563ffffffff16815260200182602001516001600160801b031685606001516130f49190615fc1565b6001600160e01b039081169091526001600160a01b03808c166000818152600560209081526040808320948f168084529482528083206001600160f81b03198f16808552908352818420885189850151891664010000000090810263ffffffff9283161783558a8501516060909b015190991690980298909716979097176001909601959095559181526003825283812092815291815282822093825292909252812084519091906131a7906002615c27565b63ffffffff1681526020810191909152604001600090812055506132039050565b6001600160a01b038088166000908152600160209081526040808320938a16835292905220805460f881811b881916901c60ff199091161790555b50505050505050565b6040516370a0823160e01b81523060048201526000906001600160a01b038316906370a0823190602401602060405180830381865afa158015613253573d6000803e3d6000fd5b505050506040513d601f19601f820116820180604052508101906108159190615fe1565b60008281526006602090815260408083206001600160a01b038516845290915290205460ff16610f8a576132b5816001600160a01b03166014614552565b6132c0836020614552565b6040516020016132d1929190616026565b60408051601f198184030181529082905262461bcd60e51b82526108f5916004016160a7565b60008281526006602090815260408083206001600160a01b038516845290915290205460ff16610f8a5760008281526006602090815260408083206001600160a01b03851684529091529020805460ff191660011790556133553390565b6001600160a01b0316816001600160a01b0316837f2f8788117e7eff1d82e926ec794901d17c78024a50270940304540a733656f0d60405160405180910390a45050565b60008281526006602090815260408083206001600160a01b038516845290915290205460ff1615610f8a5760008281526006602090815260408083206001600160a01b0385168085529252808320805460ff1916905551339285917ff6391f5c32d9c69d2a47ea670b442974b53935d1edc7fd64eb21e047a839171b9190a45050565b6134246116ed565b6134705760405162461bcd60e51b815260206004820152601460248201527f5061757361626c653a206e6f742070617573656400000000000000000000000060448201526064016108f5565b6007805460ff191690557f5db9ee0a495bf2e6ff9c91a7834c1ba4fdd244a5e8aa4e537bd38aeae4b073aa335b6040516001600160a01b03909116815260200160405180910390a1565b60008163ffffffff16603c036134d55750600160f81b919050565b8163ffffffff1661012c036134ef5750600160f91b919050565b8163ffffffff16610384036135095750600160fa1b919050565b8163ffffffff16610708036135235750600160fb1b919050565b8163ffffffff16610e100361353d5750600160fc1b919050565b8163ffffffff16613840036135575750600160fd1b919050565b8163ffffffff1662015180036135725750600160fe1b919050565b8163ffffffff1662093a800361358d5750600160ff1b919050565b6040516305fabb6160e41b815260040160405180910390fd5b60008060006135b58686612ca9565b6001600160a01b0391821660009081526005602090815260408083209490931682529283528181206001600160f81b03198816825290925290205463ffffffff16925050509392505050565b60008163ffffffff168363ffffffff161161361c578261228b565b50919050565b60008163ffffffff168363ffffffff161161363e57600061228b565b61228b8284615f9c565b60006136538361367a565b6001600160781b031661366a846020015184613622565b63ffffffff1661228b9190615ed8565b6000816080015162ffffff1660188360a001516bffffffffffffffffffffffff166001600160781b0316901b61081591906160da565b60006001600160f81b03198216600160f81b036136cf5750603c919050565b6001600160f81b03198216600160f91b036136ed575061012c919050565b6001600160f81b03198216600160fa1b0361370b5750610384919050565b6001600160f81b03198216600160fb1b036137295750610708919050565b6001600160f81b03198216600160fc1b036137475750610e10919050565b6001600160f81b03198216600160fd1b036137655750613840919050565b6001600160f81b03198216600160fe1b03613784575062015180919050565b6001600160f81b03198216600160ff1b036137a3575062093a80919050565b60405163bf3cad0b60e01b815260040160405180910390fd5b6000806137cd838560200151613601565b90508063ffffffff16846000015163ffffffff1611156137f157600091505061228b565b835163ffffffff80831691160361381857505060008381526010602052604090205461228b565b60008460c001516001600160a01b031685606001516001600160a01b0316106138dd5760c0850180516001600160a01b03908116600090815260046020818152604080842060608c01805187168652908352818520828d0180516001600160f81b031990811688529185528387208e5163ffffffff90811689529086528488206001908101549a518a1689529686528488209351909816875291845282862091511685528252808420948816845293905291902001546138d891906158ab565b613971565b6060850180516001600160a01b03908116600090815260046020818152604080842060c08c01805187168652908352818520828d0180516001600160f81b031990811688529185528387208e5163ffffffff908116895290865284882054995189168852958552838720925190971686529083528185209551168452938152838320918716835252205461397191906158ab565b60608601516001600160a01b03166000908152600d60205260408120549192506001600160781b03909116906139a68761367a565b90506000806139be85846001600160781b03166146fb565b90925090506000612710836139f0576001600160781b0385166139e18789615f0d565b6139eb9190615ed8565b6139fa565b6139fa8684615f0d565b613a049190615f0d565b60008c815260106020526040902054909150613a20908261576d565b9b9a5050505050505050505050565b60006116f760075460ff1690565b6001600160a01b0382166000908152600c602052604090205460ff161580613a7e57506001600160a01b0381166000908152600c602052604090205460ff16155b15610f8a576040516306d022d560e51b815260040160405180910390fd5b600080613aaf63ffffffff841685615f0d565b90506001600160781b0381111561228b57604051636b2f218360e01b815260040160405180910390fd5b6040805160e081018252600080825260208201819052918101829052606081018290526080810182905260a0810182905260c0810182905290613b1d8787866135a6565b6040805160e0810190915263ffffffff8216815290915083906bffffffffffffffffffffffff601883901c169060208101613b588986615c27565b63ffffffff168152602001876001600160f81b03191681526020018a6001600160a01b031681526020018362ffffff168152602001826bffffffffffffffffffffffff168152602001896001600160a01b0316815250935050505095945050505050565b600080613bc98585612ca9565b6001600160a01b03808316600090815260016020908152604080832093851683529290529081205492945090925060f89190911b906001600160f81b0319858316169003613cc0576001600160f81b03198116600003613c8b57600b54604051633faaed9d60e11b81526001600160a01b038581166004830152848116602483015290911690637f55db3a90604401600060405180830381600087803b158015613c7257600080fd5b505af1158015613c86573d6000803e3d6000fd5b505050505b6001600160a01b038381166000908152600160209081526040808320938616835292905220805460ff191685831760f81c1790555b505050505050565b613cd785858585856001614746565b5050505050565b6040516001600160a01b0380851660248301528316604482015260648101829052613d499085906323b872dd60e01b906084015b60408051601f198184030181529190526020810180516001600160e01b03166001600160e01b031990931692909217909152614bed565b50505050565b60408201516001600160f81b031916600003613d7e5760405163673f032f60e11b815260040160405180910390fd5b600e5460405163823abfd960e01b81526001600160a01b039091169063823abfd990613db2908690339086906004016160fc565b602060405180830381865afa158015613dcf573d6000803e3d6000fd5b505050506040513d601f19601f82011682018060405250810190613df3919061611f565b610efd57604051635c427cd960e01b815260040160405180910390fd5b8063ffffffff16826020015163ffffffff161115610f8a57610f8a82606001518360c0015184604001518560200151613e488761367a565b6000614746565b613e576116ed565b15613e975760405162461bcd60e51b815260206004820152601060248201526f14185d5cd8589b194e881c185d5cd95960821b60448201526064016108f5565b6007805460ff191660011790557f62e78cea01bee320cd4e420270b5ea74000d11b0c9f74754ebdbfc544b05a25861349d3390565b6001600160a01b0382811660009081526001602090815260408083209385168352929052908120548190819060f81b42600160f81b5b6001600160f81b031980821690841610801590613f2857506001600160f81b0319811615155b15614055576001600160f81b03198382161615614047576001600160a01b038089166000908152600560209081526040808320938b1683529281528282206001600160f81b03198516835281528282208351608081018552815463ffffffff80821683526001600160e01b036401000000009283900481169584019590955260019093015492831695820195909552939004166060830152613fc9836136b0565b90508363ffffffff1681828460400151613fe39190615f79565b613fee906001615c27565b613ff8919061613c565b63ffffffff16111561400b575050614055565b602082015195831795614027906001600160e01b03168961576d565b975081606001516001600160e01b031687614042919061576d565b965050505b60011b607f60f91b16613f02565b85158015614061575084155b1561406b57600093505b5050509250925092565b60405163a513355f60e01b81526001600160a01b0385811660048301526001600160801b03841660248301528681166044830152600091829184169063a513355f90606401602060405180830381865afa1580156140d7573d6000803e3d6000fd5b505050506040513d601f19601f820116820180604052508101906140fb9190615fe1565b9050806141088686615ed8565b6141129190615f0d565b91509550959350505050565b6000806141348361412f8688615ed8565b614cd2565b90506141408682615f0d565b915061414c8682616168565b1561415f578161415b8161573e565b9250505b50949350505050565b600082614178612710606461617c565b62ffffff166141879190615f9c565b63ffffffff168363ffffffff168361419f9190615ed8565b61228b9190615f0d565b620186a063ffffffff821611156141d3576040516314041af760e31b815260040160405180910390fd5b6141de60648261619e565b63ffffffff1615610fa3576040516358d620b360e01b815260040160405180910390fd5b6000848152600f6020908152604091829020825160e081018452815463ffffffff808216835264010000000082041693820193909352600160401b830460f81b6001600160f81b03191693810193909352600160481b82046001600160a01b039081166060850152600160e81b90920462ffffff166080840152600101546bffffffffffffffffffffffff811660a0840152600160601b9004811660c08301528216156142bd8683836142b6576001613d4f565b6000613d4f565b80156142d5576142d582606001518360c00151613a3d565b60006142ee83606001518460c0015185604001516135a6565b905060006142fc8483613648565b90506000836143145761430f88836158ab565b61431e565b61431e888361576d565b90508015801590614333575063ffffffff8716155b1561435157604051633c92196b60e11b815260040160405180910390fd5b80158015614365575060008763ffffffff16115b1561436f57600096505b600063ffffffff88161561438c576143878289613a9c565b61438f565b60005b60008b8152600f602052604081206001810180546bffffffffffffffffffffffff19166bffffffffffffffffffffffff601886901c1617905580547cffffffffffffffffffffffffffffffffffffffffffffffffffffffffff16600160e81b62ffffff8516021790559091506144058986615c27565b60008c8152600f60205260409020805463ffffffff8084166401000000000267ffffffffffffffff199092169089161717905590506144458b88876137bc565b60008c81526010602052604090205561445e8786613e10565b61447787606001518860c0015189604001518486613cc8565b89156144b15785156144a257606087015161449d906001600160a01b031633308d613cde565b6144b1565b6144b18760600151898c612e17565b337f1e52a79a98c3fbf6230e862913323047a9c0ec511d2c289b1eeeeb9cc97c5bea8c846144e0896001615c27565b604080519384526001600160781b0392909216602084015263ffffffff9081168383015285166060830152519081900360800190a25050505050505050505050565b6040516001600160a01b038316602482015260448101829052610efd90849063a9059cbb60e01b90606401613d12565b60606000614561836002615ed8565b61456c90600261576d565b67ffffffffffffffff81111561458457614584615757565b6040519080825280601f01601f1916602001820160405280156145ae576020820181803683370190505b509050600360fc1b816000815181106145c9576145c9615712565b60200101906001600160f81b031916908160001a905350600f60fb1b816001815181106145f8576145f8615712565b60200101906001600160f81b031916908160001a905350600061461c846002615ed8565b61462790600161576d565b90505b60018111156146ac577f303132333435363738396162636465660000000000000000000000000000000085600f166010811061466857614668615712565b1a60f81b82828151811061467e5761467e615712565b60200101906001600160f81b031916908160001a90535060049490941c936146a5816161c1565b905061462a565b50831561228b5760405162461bcd60e51b815260206004820181905260248201527f537472696e67733a20686578206c656e67746820696e73756666696369656e7460448201526064016108f5565b60008083600003614712575060019050600061473f565b8383028385828161472557614725615ef7565b041461473857600080925092505061473f565b6001925090505b9250929050565b846001600160a01b0316866001600160a01b0316101561499d578015614896576001600160a01b03868116600090815260056020908152604080832093891683529281528282206001600160f81b03198816835290522080546001600160781b03841691906004906147ca90849064010000000090046001600160e01b03166161d8565b82546001600160e01b039182166101009390930a9283029190920219909116179055506001600160a01b03808716600090815260036020908152604080832093891683529281528282206001600160f81b03198816835290529081206001600160781b0384169161483c866001615c27565b63ffffffff16815260208101919091526040016000908120805490919061486d9084906001600160801b03166161fa565b92506101000a8154816001600160801b0302191690836001600160801b03160217905550613cc0565b6001600160a01b03868116600090815260056020908152604080832093891683529281528282206001600160f81b03198816835290522080546001600160781b03841691906004906148fa90849064010000000090046001600160e01b0316615fc1565b82546001600160e01b039182166101009390930a9283029190920219909116179055506001600160a01b03808716600090815260036020908152604080832093891683529281528282206001600160f81b03198816835290529081206001600160781b0384169161496c866001615c27565b63ffffffff16815260208101919091526040016000908120805490919061486d9084906001600160801b031661621c565b8015614ab2576001600160a01b038581166000908152600560209081526040808320938a1683529281528282206001600160f81b03198816835290522060010180546001600160781b0384169190600490614a0a90849064010000000090046001600160e01b03166161d8565b82546001600160e01b039182166101009390930a9283029190920219909116179055506001600160a01b038086166000908152600360209081526040808320938a1683529281528282206001600160f81b03198816835290529081206001600160781b03841691614a7c866001615c27565b63ffffffff1681526020810191909152604001600020805460109061486d908490600160801b90046001600160801b03166161fa565b6001600160a01b038581166000908152600560209081526040808320938a1683529281528282206001600160f81b03198816835290522060010180546001600160781b0384169190600490614b1990849064010000000090046001600160e01b0316615fc1565b82546001600160e01b039182166101009390930a9283029190920219909116179055506001600160a01b038086166000908152600360209081526040808320938a1683529281528282206001600160f81b03198816835290529081206001600160781b03841691614b8b866001615c27565b63ffffffff16815260208101919091526040016000208054601090614bc1908490600160801b90046001600160801b031661621c565b92506101000a8154816001600160801b0302191690836001600160801b03160217905550505050505050565b6000614c42826040518060400160405280602081526020017f5361666545524332303a206c6f772d6c6576656c2063616c6c206661696c6564815250856001600160a01b0316614cfe9092919063ffffffff16565b805190915015610efd5780806020019051810190614c60919061611f565b610efd5760405162461bcd60e51b815260206004820152602a60248201527f5361666545524332303a204552433230206f7065726174696f6e20646964206e60448201527f6f7420737563636565640000000000000000000000000000000000000000000060648201526084016108f5565b6000612710614ce2606485615f79565b614cee90612710615f9c565b61419f9063ffffffff1684615ed8565b606061089d848460008585843b614d575760405162461bcd60e51b815260206004820152601d60248201527f416464726573733a2063616c6c20746f206e6f6e2d636f6e747261637400000060448201526064016108f5565b600080866001600160a01b03168587604051614d73919061623c565b60006040518083038185875af1925050503d8060008114614db0576040519150601f19603f3d011682016040523d82523d6000602084013e614db5565b606091505b509150915061415b82828660608315614dcf57508161228b565b825115614ddf5782518084602001fd5b8160405162461bcd60e51b81526004016108f591906160a7565b600060208284031215614e0b57600080fd5b81356001600160e01b03198116811461228b57600080fd5b6001600160a01b0381168114610fa357600080fd5b8035614e4381614e23565b919050565b80356001600160f81b031981168114614e4357600080fd5b803563ffffffff81168114614e4357600080fd5b60008060008060808587031215614e8a57600080fd5b8435614e9581614e23565b93506020850135614ea581614e23565b9250614eb360408601614e48565b9150614ec160608601614e60565b905092959194509250565b600060208284031215614ede57600080fd5b813561228b81614e23565b60008060408385031215614efc57600080fd5b823591506020830135614f0e81614e23565b809150509250929050565b600060208284031215614f2b57600080fd5b5035919050565b60008083601f840112614f4457600080fd5b50813567ffffffffffffffff811115614f5c57600080fd5b6020830191508360208260051b850101111561473f57600080fd5b60008083601f840112614f8957600080fd5b50813567ffffffffffffffff811115614fa157600080fd5b6020830191508360208260061b850101111561473f57600080fd5b60008083601f840112614fce57600080fd5b50813567ffffffffffffffff811115614fe657600080fd5b60208301915083602082850101111561473f57600080fd5b60008060008060008060008060008060c08b8d03121561501d57600080fd5b8a3567ffffffffffffffff8082111561503557600080fd5b6150418e838f01614f32565b909c509a5060208d013591508082111561505a57600080fd5b6150668e838f01614f77565b909a50985088915061507a60408e01614e38565b975061508860608e01614e38565b965060808d013591508082111561509e57600080fd5b6150aa8e838f01614f32565b909650945060a08d01359150808211156150c357600080fd5b506150d08d828e01614fbc565b915080935050809150509295989b9194979a5092959850565b8051604080845281518482018190526000926060916020918201918388019190865b8281101561515257845180516001600160a01b031685526020808201519086015260408082015190860152606090810151908501526080840194820194935060010161510b565b50878101518984038a83015280518085529082019450600093820192505b808410156151cc57845180516001600160a01b039081168552838201511683850152878101518885015286810151878501526080908101516001600160f81b03191690840152938101936001939093019260a090920191615170565b509098975050505050505050565b60208152600061228b60208301846150e9565b6000806020838503121561520057600080fd5b823567ffffffffffffffff81111561521757600080fd5b61522385828601614f32565b90969095509350505050565b60008060006040848603121561524457600080fd5b833567ffffffffffffffff81111561525b57600080fd5b61526786828701614f32565b909450925050602084013561527b81614e23565b809150509250925092565b600081518084526020808501945080840160005b838110156152b65781518752958201959082019060010161529a565b509495945050505050565b60208152600061228b6020830184615286565b6000806000604084860312156152e957600080fd5b833567ffffffffffffffff81111561530057600080fd5b61526786828701614f77565b6000806040838503121561531f57600080fd5b823561532a81614e23565b91506020830135614f0e81614e23565b6000610100820190506001600160a01b0380845116835280602085015116602084015250604083015163ffffffff8082166040850152806060860151166060850152608085015160808501528060a08601511660a0850152505060c083015160c083015260e08301516153b860e08401826001600160781b03169052565b5092915050565b60008060008060008060008060e0898b0312156153db57600080fd5b88356153e681614e23565b975060208901356153f681614e23565b96506040890135955061540b60608a01614e60565b945061541960808a01614e60565b935060a089013561542981614e23565b925060c089013567ffffffffffffffff81111561544557600080fd5b6154518b828c01614f32565b999c989b5096995094979396929594505050565b60006020828403121561547757600080fd5b813561ffff8116811461228b57600080fd5b60008060006060848603121561549e57600080fd5b8335925060208401356154b081614e23565b9150604084013561527b81614e23565b600080600080604085870312156154d657600080fd5b843567ffffffffffffffff808211156154ee57600080fd5b6154fa88838901614f32565b9096509450602087013591508082111561551357600080fd5b5061552087828801614f32565b95989497509550505050565b60008060006060848603121561554157600080fd5b833561554c81614e23565b9250602084013561555c81614e23565b915061556a60408501614e48565b90509250925092565b6000806000806000806000806000806101008b8d03121561559357600080fd5b8a3561559e81614e23565b995060208b01356155ae81614e23565b985060408b013597506155c360608c01614e60565b96506155d160808c01614e60565b955060a08b01356155e181614e23565b945060c08b013567ffffffffffffffff808211156155fe57600080fd5b61560a8e838f01614f32565b909650945060e08d01359150808211156150c357600080fd5b6000806000806040858703121561563957600080fd5b843567ffffffffffffffff8082111561565157600080fd5b61565d88838901614f32565b9096509450602087013591508082111561567657600080fd5b5061552087828801614f77565b60006020828403121561569557600080fd5b61228b82614e60565b6000806000606084860312156156b357600080fd5b833592506020840135915061556a60408501614e60565b600080600080608085870312156156e057600080fd5b84359350602085013592506156f760408601614e60565b9150606085013561570781614e23565b939692955090935050565b634e487b7160e01b600052603260045260246000fd5b634e487b7160e01b600052601160045260246000fd5b60006001820161575057615750615728565b5060010190565b634e487b7160e01b600052604160045260246000fd5b6000821982111561578057615780615728565b500190565b81835260007f07ffffffffffffffffffffffffffffffffffffffffffffffffffffffffffffff8311156157b757600080fd5b8260051b8083602087013760009401602001938452509192915050565b81835281816020850137506000828201602090810191909152601f909101601f19169091010190565b6000608082016001600160a01b0389168352602060808185015281895180845260a086019150828b01935060005b8181101561587257845180516001600160a01b031684526020808201519085015260408082015190850152606090810151908401526080830194840194925060010161582b565b5050848103604086015261588781898b615785565b92505050828103606084015261589e8185876157d4565b9998505050505050505050565b6000828210156158bd576158bd615728565b500390565b6060815260006158d560608301876150e9565b82810360208401526158e8818688615785565b91505063ffffffff8316604083015295945050505050565b60208082528181018390526000908460408401835b8681101561593e5763ffffffff61592b84614e60565b1682529183019190830190600101615915565b509695505050505050565b60008235603e1983360301811261595f57600080fd5b9190910192915050565b6000808335601e1984360301811261598057600080fd5b83018035915067ffffffffffffffff82111561599b57600080fd5b6020019150600581901b360382131561473f57600080fd5b6000808335601e198436030181126159ca57600080fd5b830160208101925035905067ffffffffffffffff8111156159ea57600080fd5b8060051b360383131561473f57600080fd5b60008235603e19833603018112615a1257600080fd5b90910192915050565b60408082528181018490526000906060600586901b8401810190840187845b88811015615aa257868403605f19018352615a55828b6159fc565b8035615a6081614e23565b6001600160a01b031685526020615a79828201836159b3565b92508782880152615a8d8888018483615785565b96505093840193929092019150600101615a3a565b505050838103602085015261415b8186615286565b6020808252818101839052600090604080840186845b87811015615b03578135615ae081614e23565b6001600160a01b0316835281850135858401529183019190830190600101615acd565b5090979650505050505050565b60048110615b2e57634e487b7160e01b600052602160045260246000fd5b9052565b81835260006020808501808196508560051b810191508460005b87811015615be7578284038952615b6382886159fc565b60408086018235615b7381614e23565b6001600160a01b03168752615b8a838901846159b3565b888a019390935290829052909150606086019060005b83811015615bd257813560048110615bb757600080fd5b615bc18482615b10565b509188019190880190600101615ba0565b50509986019994505090840190600101615b4c565b5091979650505050505050565b8481526001600160a01b0384166020820152606060408201526000615c1d606083018486615b32565b9695505050505050565b600063ffffffff808316818516808303821115615c4657615c46615728565b01949350505050565b8981526001600160a01b0389811660208301528816604082015263ffffffff87811660608301526001600160781b038716608083015285811660a0830152841660c082015261010060e08201819052600090615cae8382018587615b32565b9c9b505050505050505050505050565b8015158114610fa357600080fd5b600060208284031215615cde57600080fd5b813561228b81615cbe565b60ff81168114610fa357600080fd5b600060208284031215615d0a57600080fd5b815161228b81615ce9565b600181815b80851115615d50578160001904821115615d3657615d36615728565b80851615615d4357918102915b93841c9390800290615d1a565b509250929050565b600082615d6757506001610815565b81615d7457506000610815565b8160018114615d8a5760028114615d9457615db0565b6001915050610815565b60ff841115615da557615da5615728565b50506001821b610815565b5060208310610133831016604e8410600b8410161715615dd3575081810a610815565b615ddd8383615d15565b8060001904821115615df157615df1615728565b029392505050565b600061228b60ff841683615d58565b6040808252810184905260008560608301825b87811015615e4b578235615e2e81614e23565b6001600160a01b0316825260209283019290910190600101615e1b565b5083810360208581019190915285825291508590820160005b86811015615e8b578235615e7781615cbe565b151582529183019190830190600101615e64565b5098975050505050505050565b838152604060208201526000615eb26040830184866157d4565b95945050505050565b600060208284031215615ecd57600080fd5b813561228b81615ce9565b6000816000190483118215151615615ef257615ef2615728565b500290565b634e487b7160e01b600052601260045260246000fd5b600082615f1c57615f1c615ef7565b500490565b60008083128015600160ff1b850184121615615f3f57615f3f615728565b837f7fffffffffffffffffffffffffffffffffffffffffffffffffffffffffffffff018313811615615f7357615f73615728565b50500390565b600063ffffffff80841680615f9057615f90615ef7565b92169190910492915050565b600063ffffffff83811690831681811015615fb957615fb9615728565b039392505050565b60006001600160e01b0383811690831681811015615fb957615fb9615728565b600060208284031215615ff357600080fd5b5051919050565b60005b83811015616015578181015183820152602001615ffd565b83811115613d495750506000910152565b7f416363657373436f6e74726f6c3a206163636f756e742000000000000000000081526000835161605e816017850160208801615ffa565b7f206973206d697373696e6720726f6c6520000000000000000000000000000000601791840191820152835161609b816028840160208801615ffa565b01602801949350505050565b60208152600082518060208401526160c6816040850160208701615ffa565b601f01601f19169190910160400192915050565b60006001600160781b03808316818516808303821115615c4657615c46615728565b8381526001600160a01b03831660208201526060810161089d6040830184615b10565b60006020828403121561613157600080fd5b815161228b81615cbe565b600063ffffffff8083168185168183048111821515161561615f5761615f615728565b02949350505050565b60008261617757616177615ef7565b500690565b600062ffffff8083168185168183048111821515161561615f5761615f615728565b600063ffffffff808416806161b5576161b5615ef7565b92169190910692915050565b6000816161d0576161d0615728565b506000190190565b60006001600160e01b03808316818516808303821115615c4657615c46615728565b60006001600160801b03808316818516808303821115615c4657615c46615728565b60006001600160801b0383811690831681811015615fb957615fb9615728565b6000825161595f818460208701615ffa56fea2646970667358221220a91334e97fe783ee7e6f4d39c51b3e3b497cd1712d0a146382e6c04e873bdb9964736f6c634300080d0033"
}