{
  "address": "0x4b0C54236B86f41C5e5A5dc5d020f832692ff06d",
  "abi": [
    {
      "inputs": [
        {
          "internalType": "contract IPriceOracle",
          "name": "_oracle1",
          "type": "address"
        },
        {
          "internalType": "contract IPriceOracle",
          "name": "_oracle2",
          "type": "address"
        },
        {
          "internalType": "address",
          "name": "_governor",
          "type": "address"
        }
      ],
      "stateMutability": "nonpayable",
      "type": "constructor"
    },
    {
      "inputs": [],
      "name": "InvalidOracle",
      "type": "error"
    },
    {
      "anonymous": false,
      "inputs": [
        {
          "indexed": false,
          "internalType": "address",
          "name": "tokenA",
          "type": "address"
        },
        {
          "indexed": false,
          "internalType": "address",
          "name": "tokenB",
          "type": "address"
        },
        {
          "indexed": false,
          "internalType": "enum IOracleAggregator.OracleInUse",
          "name": "oracleInUse",
          "type": "uint8"
        }
      ],
      "name": "OracleSetForUse",
      "type": "event"
    },
    {
      "anonymous": false,
      "inputs": [],
      "name": "PendingGovernorAccepted",
      "type": "event"
    },
    {
      "anonymous": false,
      "inputs": [
        {
          "indexed": false,
          "internalType": "address",
          "name": "pendingGovernor",
          "type": "address"
        }
      ],
      "name": "PendingGovernorSet",
      "type": "event"
    },
    {
      "inputs": [],
      "name": "acceptPendingGovernor",
      "outputs": [],
      "stateMutability": "nonpayable",
      "type": "function"
    },
    {
      "inputs": [
        {
          "internalType": "address",
          "name": "_tokenA",
          "type": "address"
        },
        {
          "internalType": "address",
          "name": "_tokenB",
          "type": "address"
        }
      ],
      "name": "addSupportForPairIfNeeded",
      "outputs": [],
      "stateMutability": "nonpayable",
      "type": "function"
    },
    {
      "inputs": [
        {
          "internalType": "address",
          "name": "_tokenA",
          "type": "address"
        },
        {
          "internalType": "address",
          "name": "_tokenB",
          "type": "address"
        }
      ],
      "name": "canSupportPair",
      "outputs": [
        {
          "internalType": "bool",
          "name": "",
          "type": "bool"
        }
      ],
      "stateMutability": "view",
      "type": "function"
    },
    {
      "inputs": [],
      "name": "governor",
      "outputs": [
        {
          "internalType": "address",
          "name": "",
          "type": "address"
        }
      ],
      "stateMutability": "view",
      "type": "function"
    },
    {
      "inputs": [
        {
          "internalType": "address",
          "name": "_account",
          "type": "address"
        }
      ],
      "name": "isGovernor",
      "outputs": [
        {
          "internalType": "bool",
          "name": "_isGovernor",
          "type": "bool"
        }
      ],
      "stateMutability": "view",
      "type": "function"
    },
    {
      "inputs": [
        {
          "internalType": "address",
          "name": "_account",
          "type": "address"
        }
      ],
      "name": "isPendingGovernor",
      "outputs": [
        {
          "internalType": "bool",
          "name": "_isPendingGovernor",
          "type": "bool"
        }
      ],
      "stateMutability": "view",
      "type": "function"
    },
    {
      "inputs": [],
      "name": "oracle1",
      "outputs": [
        {
          "internalType": "contract IPriceOracle",
          "name": "",
          "type": "address"
        }
      ],
      "stateMutability": "view",
      "type": "function"
    },
    {
      "inputs": [],
      "name": "oracle2",
      "outputs": [
        {
          "internalType": "contract IPriceOracle",
          "name": "",
          "type": "address"
        }
      ],
      "stateMutability": "view",
      "type": "function"
    },
    {
      "inputs": [
        {
          "internalType": "address",
          "name": "_tokenA",
          "type": "address"
        },
        {
          "internalType": "address",
          "name": "_tokenB",
          "type": "address"
        }
      ],
      "name": "oracleInUse",
      "outputs": [
        {
          "internalType": "enum IOracleAggregator.OracleInUse",
          "name": "",
          "type": "uint8"
        }
      ],
      "stateMutability": "view",
      "type": "function"
    },
    {
      "inputs": [],
      "name": "pendingGovernor",
      "outputs": [
        {
          "internalType": "address",
          "name": "",
          "type": "address"
        }
      ],
      "stateMutability": "view",
      "type": "function"
    },
    {
      "inputs": [
        {
          "internalType": "address",
          "name": "_tokenIn",
          "type": "address"
        },
        {
          "internalType": "uint128",
          "name": "_amountIn",
          "type": "uint128"
        },
        {
          "internalType": "address",
          "name": "_tokenOut",
          "type": "address"
        }
      ],
      "name": "quote",
      "outputs": [
        {
          "internalType": "uint256",
          "name": "_amountOut",
          "type": "uint256"
        }
      ],
      "stateMutability": "view",
      "type": "function"
    },
    {
      "inputs": [
        {
          "internalType": "address",
          "name": "_tokenA",
          "type": "address"
        },
        {
          "internalType": "address",
          "name": "_tokenB",
          "type": "address"
        }
      ],
      "name": "reconfigureSupportForPair",
      "outputs": [],
      "stateMutability": "nonpayable",
      "type": "function"
    },
    {
      "inputs": [
        {
          "internalType": "address",
          "name": "_tokenA",
          "type": "address"
        },
        {
          "internalType": "address",
          "name": "_tokenB",
          "type": "address"
        },
        {
          "internalType": "enum IOracleAggregator.OracleInUse",
          "name": "_oracle",
          "type": "uint8"
        }
      ],
      "name": "setOracleForPair",
      "outputs": [],
      "stateMutability": "nonpayable",
      "type": "function"
    },
    {
      "inputs": [
        {
          "internalType": "address",
          "name": "__pendingGovernor",
          "type": "address"
        }
      ],
      "name": "setPendingGovernor",
      "outputs": [],
      "stateMutability": "nonpayable",
      "type": "function"
    }
  ],
  "transactionHash": "0x5fde9c3d003392f51beae6ca38ae95b136b04ce92fe05e4205b2f0ee8fd5e4a3",
  "args": [
    "0x86E8cB7Cd38F7dE6Ef7fb62A5D7cCEe350C40310",
    "0x14AF365e0825B835C60867C985724e1DF11449ad",
    "0x1a00e1E311009E56e3b0B9Ed6F86f5Ce128a1C01"
  ],
  "numDeployments": 1,
  "bytecode": "0x60c06040523480156200001157600080fd5b50604051620014a8380380620014a8833981016040819052620000349162000134565b806001600160a01b038116620000915760405162461bcd60e51b815260206004820152601860248201527f476f7665726e61626c653a207a65726f2061646472657373000000000000000060448201526064015b60405180910390fd5b600080546001600160a01b0319166001600160a01b03928316179055831615801590620000c657506001600160a01b03821615155b620001025760405162461bcd60e51b815260206004820152600b60248201526a5a65726f4164647265737360a81b604482015260640162000088565b506001600160a01b039182166080521660a05262000188565b6001600160a01b03811681146200013157600080fd5b50565b6000806000606084860312156200014a57600080fd5b835162000157816200011b565b60208501519093506200016a816200011b565b60408501519092506200017d816200011b565b809150509250925092565b60805160a0516112bb620001ed600039600081816101e50152818161051c0152818161075201528181610aa30152610f1e01526000818161018b0152818161045401528181610692015281816109c801528181610da80152610e6501526112bb6000f3fe608060405234801561001057600080fd5b50600436106100ea5760003560e01c80637f55db3a1161008c578063df08aed511610066578063df08aed514610228578063e3056a3414610257578063e43581b814610275578063f235757f146102a457600080fd5b80637f55db3a146101cd578063996f7d3a146101e0578063a513355f1461020757600080fd5b806372c12c87116100c857806372c12c8714610150578063734273fd14610163578063747a0c3a146101865780637aa3d48d146101ad57600080fd5b80630c340a24146100ef57806313f6986d1461013357806360fdaa741461013d575b600080fd5b60005473ffffffffffffffffffffffffffffffffffffffff165b60405173ffffffffffffffffffffffffffffffffffffffff90911681526020015b60405180910390f35b61013b6102b7565b005b61013b61014b3660046110a5565b61036d565b61013b61015e3660046110f0565b6105a0565b6101766101713660046110f0565b610642565b604051901515815260200161012a565b6101097f000000000000000000000000000000000000000000000000000000000000000081565b6101c06101bb3660046110f0565b6107c6565b60405161012a919061118d565b61013b6101db3660046110f0565b610816565b6101097f000000000000000000000000000000000000000000000000000000000000000081565b61021a61021536600461119b565b610881565b60405190815260200161012a565b6101766102363660046111f5565b60015473ffffffffffffffffffffffffffffffffffffffff91821691161490565b60015473ffffffffffffffffffffffffffffffffffffffff16610109565b6101766102833660046111f5565b60005473ffffffffffffffffffffffffffffffffffffffff91821691161490565b61013b6102b23660046111f5565b610ad9565b60015473ffffffffffffffffffffffffffffffffffffffff163314610363576040517f08c379a000000000000000000000000000000000000000000000000000000000815260206004820152602160248201527f476f7665726e61626c653a206f6e6c792070656e64696e6720676f7665726e6f60448201527f720000000000000000000000000000000000000000000000000000000000000060648201526084015b60405180910390fd5b61036b610b66565b565b60005473ffffffffffffffffffffffffffffffffffffffff1633146103ee576040517f08c379a000000000000000000000000000000000000000000000000000000000815260206004820152601960248201527f476f7665726e61626c653a206f6e6c7920676f7665726e6f7200000000000000604482015260640161035a565b600181600281111561040257610402611123565b036104b6576040517f7f55db3a00000000000000000000000000000000000000000000000000000000815273ffffffffffffffffffffffffffffffffffffffff848116600483015283811660248301527f00000000000000000000000000000000000000000000000000000000000000001690637f55db3a906044015b600060405180830381600087803b15801561049957600080fd5b505af11580156104ad573d6000803e3d6000fd5b5050505061057d565b60028160028111156104ca576104ca611123565b0361054b576040517f7f55db3a00000000000000000000000000000000000000000000000000000000815273ffffffffffffffffffffffffffffffffffffffff848116600483015283811660248301527f00000000000000000000000000000000000000000000000000000000000000001690637f55db3a9060440161047f565b6040517f9589a27d00000000000000000000000000000000000000000000000000000000815260040160405180910390fd5b60008061058a8585610c5a565b91509150610599828285610ca5565b5050505050565b60005473ffffffffffffffffffffffffffffffffffffffff163314610621576040517f08c379a000000000000000000000000000000000000000000000000000000000815260206004820152601960248201527f476f7665726e61626c653a206f6e6c7920676f7665726e6f7200000000000000604482015260640161035a565b60008061062e8484610c5a565b9150915061063c8282610d5b565b50505050565b6040517f734273fd00000000000000000000000000000000000000000000000000000000815273ffffffffffffffffffffffffffffffffffffffff838116600483015282811660248301526000917f00000000000000000000000000000000000000000000000000000000000000009091169063734273fd90604401602060405180830381865afa1580156106db573d6000803e3d6000fd5b505050506040513d601f19601f820116820180604052508101906106ff9190611210565b806107bd57506040517f734273fd00000000000000000000000000000000000000000000000000000000815273ffffffffffffffffffffffffffffffffffffffff848116600483015283811660248301527f0000000000000000000000000000000000000000000000000000000000000000169063734273fd90604401602060405180830381865afa158015610799573d6000803e3d6000fd5b505050506040513d601f19601f820116820180604052508101906107bd9190611210565b90505b92915050565b60008060006107d58585610c5a565b73ffffffffffffffffffffffffffffffffffffffff918216600090815260026020908152604080832093909416825291909152205460ff1695945050505050565b6000806108238484610c5a565b9092509050600073ffffffffffffffffffffffffffffffffffffffff808416600090815260026020818152604080842094871684529390529190205460ff169081111561087257610872611123565b0361063c5761063c8282610d5b565b60008060006108908685610c5a565b73ffffffffffffffffffffffffffffffffffffffff808316600090815260026020908152604080832093851683529290529081205492945090925060ff909116908160028111156108e3576108e3611123565b0361094a576040517f08c379a000000000000000000000000000000000000000000000000000000000815260206004820152601060248201527f506169724e6f74537570706f7274656400000000000000000000000000000000604482015260640161035a565b600181600281111561095e5761095e611123565b03610a3e576040517fa513355f00000000000000000000000000000000000000000000000000000000815273ffffffffffffffffffffffffffffffffffffffff88811660048301526fffffffffffffffffffffffffffffffff8816602483015286811660448301527f0000000000000000000000000000000000000000000000000000000000000000169063a513355f906064015b602060405180830381865afa158015610a10573d6000803e3d6000fd5b505050506040513d601f19601f82011682018060405250810190610a349190611232565b9350505050610ad2565b6040517fa513355f00000000000000000000000000000000000000000000000000000000815273ffffffffffffffffffffffffffffffffffffffff88811660048301526fffffffffffffffffffffffffffffffff8816602483015286811660448301527f0000000000000000000000000000000000000000000000000000000000000000169063a513355f906064016109f3565b9392505050565b60005473ffffffffffffffffffffffffffffffffffffffff163314610b5a576040517f08c379a000000000000000000000000000000000000000000000000000000000815260206004820152601960248201527f476f7665726e61626c653a206f6e6c7920676f7665726e6f7200000000000000604482015260640161035a565b610b6381610f86565b50565b60015473ffffffffffffffffffffffffffffffffffffffff16610be5576040517f08c379a000000000000000000000000000000000000000000000000000000000815260206004820152601f60248201527f476f7665726e61626c653a206e6f2070656e64696e6720676f7665726e6f7200604482015260640161035a565b60018054600080547fffffffffffffffffffffffff000000000000000000000000000000000000000090811673ffffffffffffffffffffffffffffffffffffffff84161782559091169091556040517fdc57ca23c46d823853915ed5a090ca0ee9db5eb6a46f5c58e1c9158de861fd769190a1565b6000808273ffffffffffffffffffffffffffffffffffffffff168473ffffffffffffffffffffffffffffffffffffffff1610610c97578284610c9a565b83835b909590945092505050565b73ffffffffffffffffffffffffffffffffffffffff80841660009081526002602081815260408084209487168452939052919020805483927fffffffffffffffffffffffffffffffffffffffffffffffffffffffffffffff00909116906001908490811115610d1657610d16611123565b02179055507fa416645fa086e7f02c306aad52e9da7e22bc3dd9af57d181d841ca6f49db4bcc838383604051610d4e9392919061124b565b60405180910390a1505050565b6040517f734273fd00000000000000000000000000000000000000000000000000000000815273ffffffffffffffffffffffffffffffffffffffff838116600483015282811660248301527f0000000000000000000000000000000000000000000000000000000000000000169063734273fd90604401602060405180830381865afa158015610def573d6000803e3d6000fd5b505050506040513d601f19601f82011682018060405250810190610e139190611210565b15610ed1576040517f72c12c8700000000000000000000000000000000000000000000000000000000815273ffffffffffffffffffffffffffffffffffffffff838116600483015282811660248301527f000000000000000000000000000000000000000000000000000000000000000016906372c12c8790604401600060405180830381600087803b158015610ea957600080fd5b505af1158015610ebd573d6000803e3d6000fd5b50505050610ecd82826001610ca5565b5050565b6040517f72c12c8700000000000000000000000000000000000000000000000000000000815273ffffffffffffffffffffffffffffffffffffffff838116600483015282811660248301527f000000000000000000000000000000000000000000000000000000000000000016906372c12c8790604401600060405180830381600087803b158015610f6257600080fd5b505af1158015610f76573d6000803e3d6000fd5b50505050610ecd82826002610ca5565b73ffffffffffffffffffffffffffffffffffffffff8116611003576040517f08c379a000000000000000000000000000000000000000000000000000000000815260206004820152601860248201527f476f7665726e61626c653a207a65726f20616464726573730000000000000000604482015260640161035a565b600180547fffffffffffffffffffffffff00000000000000000000000000000000000000001673ffffffffffffffffffffffffffffffffffffffff83169081179091556040519081527f56bddfa0cee9697cebddf9acd7f23dc6583663b05e007b877056d05017994def9060200160405180910390a150565b803573ffffffffffffffffffffffffffffffffffffffff811681146110a057600080fd5b919050565b6000806000606084860312156110ba57600080fd5b6110c38461107c565b92506110d16020850161107c565b91506040840135600381106110e557600080fd5b809150509250925092565b6000806040838503121561110357600080fd5b61110c8361107c565b915061111a6020840161107c565b90509250929050565b7f4e487b7100000000000000000000000000000000000000000000000000000000600052602160045260246000fd5b60038110611189577f4e487b7100000000000000000000000000000000000000000000000000000000600052602160045260246000fd5b9052565b602081016107c08284611152565b6000806000606084860312156111b057600080fd5b6111b98461107c565b925060208401356fffffffffffffffffffffffffffffffff811681146111de57600080fd5b91506111ec6040850161107c565b90509250925092565b60006020828403121561120757600080fd5b6107bd8261107c565b60006020828403121561122257600080fd5b81518015158114610ad257600080fd5b60006020828403121561124457600080fd5b5051919050565b73ffffffffffffffffffffffffffffffffffffffff8481168252831660208201526060810161127d6040830184611152565b94935050505056fea264697066735822122037a3d39402a0ee88af2948a4f9bcb2206cf5d0e198bce7314ab93a3f777d9e1d64736f6c634300080d0033"
}