{
  "address": "0xbd216FC42aD3B937278665f3659Dce318f3F3f70",
  "abi": [
    {
      "inputs": [
        {
          "internalType": "contract IPriceOracle",
          "name": "_oracle1",
          "type": "address"
        },
        {
          "internalType": "contract IPriceOracle",
          "name": "_oracle2",
          "type": "address"
        },
        {
          "internalType": "address",
          "name": "_governor",
          "type": "address"
        }
      ],
      "stateMutability": "nonpayable",
      "type": "constructor"
    },
    {
      "inputs": [],
      "name": "InvalidOracle",
      "type": "error"
    },
    {
      "anonymous": false,
      "inputs": [
        {
          "indexed": false,
          "internalType": "address",
          "name": "tokenA",
          "type": "address"
        },
        {
          "indexed": false,
          "internalType": "address",
          "name": "tokenB",
          "type": "address"
        },
        {
          "indexed": false,
          "internalType": "enum IOracleAggregator.OracleInUse",
          "name": "oracleInUse",
          "type": "uint8"
        }
      ],
      "name": "OracleSetForUse",
      "type": "event"
    },
    {
      "anonymous": false,
      "inputs": [],
      "name": "PendingGovernorAccepted",
      "type": "event"
    },
    {
      "anonymous": false,
      "inputs": [
        {
          "indexed": false,
          "internalType": "address",
          "name": "pendingGovernor",
          "type": "address"
        }
      ],
      "name": "PendingGovernorSet",
      "type": "event"
    },
    {
      "inputs": [],
      "name": "acceptPendingGovernor",
      "outputs": [],
      "stateMutability": "nonpayable",
      "type": "function"
    },
    {
      "inputs": [
        {
          "internalType": "address",
          "name": "_tokenA",
          "type": "address"
        },
        {
          "internalType": "address",
          "name": "_tokenB",
          "type": "address"
        }
      ],
      "name": "addSupportForPairIfNeeded",
      "outputs": [],
      "stateMutability": "nonpayable",
      "type": "function"
    },
    {
      "inputs": [
        {
          "internalType": "address",
          "name": "_tokenA",
          "type": "address"
        },
        {
          "internalType": "address",
          "name": "_tokenB",
          "type": "address"
        }
      ],
      "name": "canSupportPair",
      "outputs": [
        {
          "internalType": "bool",
          "name": "",
          "type": "bool"
        }
      ],
      "stateMutability": "view",
      "type": "function"
    },
    {
      "inputs": [],
      "name": "governor",
      "outputs": [
        {
          "internalType": "address",
          "name": "",
          "type": "address"
        }
      ],
      "stateMutability": "view",
      "type": "function"
    },
    {
      "inputs": [
        {
          "internalType": "address",
          "name": "_account",
          "type": "address"
        }
      ],
      "name": "isGovernor",
      "outputs": [
        {
          "internalType": "bool",
          "name": "_isGovernor",
          "type": "bool"
        }
      ],
      "stateMutability": "view",
      "type": "function"
    },
    {
      "inputs": [
        {
          "internalType": "address",
          "name": "_account",
          "type": "address"
        }
      ],
      "name": "isPendingGovernor",
      "outputs": [
        {
          "internalType": "bool",
          "name": "_isPendingGovernor",
          "type": "bool"
        }
      ],
      "stateMutability": "view",
      "type": "function"
    },
    {
      "inputs": [],
      "name": "oracle1",
      "outputs": [
        {
          "internalType": "contract IPriceOracle",
          "name": "",
          "type": "address"
        }
      ],
      "stateMutability": "view",
      "type": "function"
    },
    {
      "inputs": [],
      "name": "oracle2",
      "outputs": [
        {
          "internalType": "contract IPriceOracle",
          "name": "",
          "type": "address"
        }
      ],
      "stateMutability": "view",
      "type": "function"
    },
    {
      "inputs": [
        {
          "internalType": "address",
          "name": "_tokenA",
          "type": "address"
        },
        {
          "internalType": "address",
          "name": "_tokenB",
          "type": "address"
        }
      ],
      "name": "oracleInUse",
      "outputs": [
        {
          "internalType": "enum IOracleAggregator.OracleInUse",
          "name": "",
          "type": "uint8"
        }
      ],
      "stateMutability": "view",
      "type": "function"
    },
    {
      "inputs": [],
      "name": "pendingGovernor",
      "outputs": [
        {
          "internalType": "address",
          "name": "",
          "type": "address"
        }
      ],
      "stateMutability": "view",
      "type": "function"
    },
    {
      "inputs": [
        {
          "internalType": "address",
          "name": "_tokenIn",
          "type": "address"
        },
        {
          "internalType": "uint128",
          "name": "_amountIn",
          "type": "uint128"
        },
        {
          "internalType": "address",
          "name": "_tokenOut",
          "type": "address"
        }
      ],
      "name": "quote",
      "outputs": [
        {
          "internalType": "uint256",
          "name": "_amountOut",
          "type": "uint256"
        }
      ],
      "stateMutability": "view",
      "type": "function"
    },
    {
      "inputs": [
        {
          "internalType": "address",
          "name": "_tokenA",
          "type": "address"
        },
        {
          "internalType": "address",
          "name": "_tokenB",
          "type": "address"
        }
      ],
      "name": "reconfigureSupportForPair",
      "outputs": [],
      "stateMutability": "nonpayable",
      "type": "function"
    },
    {
      "inputs": [
        {
          "internalType": "address",
          "name": "_tokenA",
          "type": "address"
        },
        {
          "internalType": "address",
          "name": "_tokenB",
          "type": "address"
        },
        {
          "internalType": "enum IOracleAggregator.OracleInUse",
          "name": "_oracle",
          "type": "uint8"
        }
      ],
      "name": "setOracleForPair",
      "outputs": [],
      "stateMutability": "nonpayable",
      "type": "function"
    },
    {
      "inputs": [
        {
          "internalType": "address",
          "name": "__pendingGovernor",
          "type": "address"
        }
      ],
      "name": "setPendingGovernor",
      "outputs": [],
      "stateMutability": "nonpayable",
      "type": "function"
    }
  ],
  "transactionHash": "0x3a1334d05b936d7d2afdbd25e18649d3f3710bc1569c9fa58cb6b36f8957f538",
  "args": [
    "0x4384f6e940C9bF5e56df63064e38CB9c5Af4A8Bc",
    "0x3325AE99D0A492521Ef5671181C0c30a352D61A3",
    "0x1a00e1E311009E56e3b0B9Ed6F86f5Ce128a1C01"
  ],
  "solcInputHash": "c05c06b1a5e910552d4718935471de1d",
  "bytecode": "0x60c060405234801561001057600080fd5b506040516200104a3803806200104a8339810160408190526100319161012b565b806001600160a01b03811661008d5760405162461bcd60e51b815260206004820152601860248201527f476f7665726e61626c653a207a65726f2061646472657373000000000000000060448201526064015b60405180910390fd5b600080546001600160a01b0319166001600160a01b039283161790558316158015906100c157506001600160a01b03821615155b6100fb5760405162461bcd60e51b815260206004820152600b60248201526a5a65726f4164647265737360a81b6044820152606401610084565b506001600160a01b039182166080521660a052610178565b6001600160a01b038116811461012857600080fd5b50565b60008060006060848603121561014057600080fd5b835161014b81610113565b602085015190935061015c81610113565b604085015190925061016d81610113565b809150509250925092565b60805160a051610e6d620001dd600039600081816101cb015281816103f701528181610571015281816108190152610b3a01526000818161017101528181610354015281816104d70152818161076d01528181610a100152610aa70152610e6d6000f3fe608060405234801561001057600080fd5b50600436106100ea5760003560e01c80637f55db3a1161008c578063df08aed511610066578063df08aed51461020e578063e3056a3414610230578063e43581b814610241578063f235757f1461026357600080fd5b80637f55db3a146101b3578063996f7d3a146101c6578063a513355f146101ed57600080fd5b806372c12c87116100c857806372c12c8714610136578063734273fd14610149578063747a0c3a1461016c5780637aa3d48d1461019357600080fd5b80630c340a24146100ef57806313f6986d1461011957806360fdaa7414610123575b600080fd5b6000546001600160a01b03165b6040516001600160a01b0390911681526020015b60405180910390f35b610121610276565b005b610121610131366004610c68565b6102e9565b610121610144366004610cb3565b610462565b61015c610157366004610cb3565b6104ad565b6040519015158152602001610110565b6100fc7f000000000000000000000000000000000000000000000000000000000000000081565b6101a66101a1366004610cb3565b6105e5565b6040516101109190610d1e565b6101216101c1366004610cb3565b610628565b6100fc7f000000000000000000000000000000000000000000000000000000000000000081565b6102006101fb366004610d2c565b610687565b604051908152602001610110565b61015c61021c366004610d7d565b6001546001600160a01b0391821691161490565b6001546001600160a01b03166100fc565b61015c61024f366004610d7d565b6000546001600160a01b0391821691161490565b610121610271366004610d7d565b61084f565b6001546001600160a01b031633146102df5760405162461bcd60e51b815260206004820152602160248201527f476f7665726e61626c653a206f6e6c792070656e64696e6720676f7665726e6f6044820152603960f91b60648201526084015b60405180910390fd5b6102e7610885565b565b6000546001600160a01b031633146103135760405162461bcd60e51b81526004016102d690610d98565b600181600281111561032757610327610ce6565b14156103b657604051633faaed9d60e11b81526001600160a01b03848116600483015283811660248301527f00000000000000000000000000000000000000000000000000000000000000001690637f55db3a906044015b600060405180830381600087803b15801561039957600080fd5b505af11580156103ad573d6000803e3d6000fd5b5050505061043f565b60028160028111156103ca576103ca610ce6565b141561042657604051633faaed9d60e11b81526001600160a01b03848116600483015283811660248301527f00000000000000000000000000000000000000000000000000000000000000001690637f55db3a9060440161037f565b604051639589a27d60e01b815260040160405180910390fd5b60008061044c858561092d565b9150915061045b82828561095e565b5050505050565b6000546001600160a01b0316331461048c5760405162461bcd60e51b81526004016102d690610d98565b600080610499848461092d565b915091506104a782826109e9565b50505050565b60405163734273fd60e01b81526001600160a01b03838116600483015282811660248301526000917f00000000000000000000000000000000000000000000000000000000000000009091169063734273fd90604401602060405180830381865afa158015610520573d6000803e3d6000fd5b505050506040513d601f19601f820116820180604052508101906105449190610dcf565b806105dc575060405163734273fd60e01b81526001600160a01b03848116600483015283811660248301527f0000000000000000000000000000000000000000000000000000000000000000169063734273fd90604401602060405180830381865afa1580156105b8573d6000803e3d6000fd5b505050506040513d601f19601f820116820180604052508101906105dc9190610dcf565b90505b92915050565b60008060006105f4858561092d565b6001600160a01b03918216600090815260026020908152604080832093909416825291909152205460ff1695945050505050565b600080610635848461092d565b909250905060006001600160a01b03808416600090815260026020818152604080842094871684529390529190205460ff169081111561067757610677610ce6565b14156104a7576104a782826109e9565b6000806000610696868561092d565b6001600160a01b03808316600090815260026020908152604080832093851683529290529081205492945090925060ff909116908160028111156106dc576106dc610ce6565b141561071d5760405162461bcd60e51b815260206004820152601060248201526f14185a5c939bdd14dd5c1c1bdc9d195960821b60448201526064016102d6565b600181600281111561073157610731610ce6565b14156107e35760405163a513355f60e01b81526001600160a01b0388811660048301526001600160801b038816602483015286811660448301527f0000000000000000000000000000000000000000000000000000000000000000169063a513355f906064015b602060405180830381865afa1580156107b5573d6000803e3d6000fd5b505050506040513d601f19601f820116820180604052508101906107d99190610df1565b9350505050610848565b60405163a513355f60e01b81526001600160a01b0388811660048301526001600160801b038816602483015286811660448301527f0000000000000000000000000000000000000000000000000000000000000000169063a513355f90606401610798565b9392505050565b6000546001600160a01b031633146108795760405162461bcd60e51b81526004016102d690610d98565b61088281610ba2565b50565b6001546001600160a01b03166108dd5760405162461bcd60e51b815260206004820152601f60248201527f476f7665726e61626c653a206e6f2070656e64696e6720676f7665726e6f720060448201526064016102d6565b60018054600080546001600160a01b03199081166001600160a01b0384161782559091169091556040517fdc57ca23c46d823853915ed5a090ca0ee9db5eb6a46f5c58e1c9158de861fd769190a1565b600080826001600160a01b0316846001600160a01b031610610950578284610953565b83835b909590945092505050565b6001600160a01b03808416600090815260026020818152604080842094871684529390529190208054839260ff199091169060019084908111156109a4576109a4610ce6565b02179055507fa416645fa086e7f02c306aad52e9da7e22bc3dd9af57d181d841ca6f49db4bcc8383836040516109dc93929190610e0a565b60405180910390a1505050565b60405163734273fd60e01b81526001600160a01b03838116600483015282811660248301527f0000000000000000000000000000000000000000000000000000000000000000169063734273fd90604401602060405180830381865afa158015610a57573d6000803e3d6000fd5b505050506040513d601f19601f82011682018060405250810190610a7b9190610dcf565b15610b13576040516372c12c8760e01b81526001600160a01b03838116600483015282811660248301527f000000000000000000000000000000000000000000000000000000000000000016906372c12c8790604401600060405180830381600087803b158015610aeb57600080fd5b505af1158015610aff573d6000803e3d6000fd5b50505050610b0f8282600161095e565b5050565b6040516372c12c8760e01b81526001600160a01b03838116600483015282811660248301527f000000000000000000000000000000000000000000000000000000000000000016906372c12c8790604401600060405180830381600087803b158015610b7e57600080fd5b505af1158015610b92573d6000803e3d6000fd5b50505050610b0f8282600261095e565b6001600160a01b038116610bf85760405162461bcd60e51b815260206004820152601860248201527f476f7665726e61626c653a207a65726f2061646472657373000000000000000060448201526064016102d6565b600180546001600160a01b0319166001600160a01b0383169081179091556040519081527f56bddfa0cee9697cebddf9acd7f23dc6583663b05e007b877056d05017994def9060200160405180910390a150565b80356001600160a01b0381168114610c6357600080fd5b919050565b600080600060608486031215610c7d57600080fd5b610c8684610c4c565b9250610c9460208501610c4c565b9150604084013560038110610ca857600080fd5b809150509250925092565b60008060408385031215610cc657600080fd5b610ccf83610c4c565b9150610cdd60208401610c4c565b90509250929050565b634e487b7160e01b600052602160045260246000fd5b60038110610d1a57634e487b7160e01b600052602160045260246000fd5b9052565b602081016105df8284610cfc565b600080600060608486031215610d4157600080fd5b610d4a84610c4c565b925060208401356001600160801b0381168114610d6657600080fd5b9150610d7460408501610c4c565b90509250925092565b600060208284031215610d8f57600080fd5b6105dc82610c4c565b60208082526019908201527f476f7665726e61626c653a206f6e6c7920676f7665726e6f7200000000000000604082015260600190565b600060208284031215610de157600080fd5b8151801515811461084857600080fd5b600060208284031215610e0357600080fd5b5051919050565b6001600160a01b0384811682528316602082015260608101610e2f6040830184610cfc565b94935050505056fea2646970667358221220113ba0679cdad4d237cc79fbbfe48e480824eb4d44ed82ede319953c66aea23964736f6c634300080a0033",
  "devdoc": {
    "kind": "dev",
    "methods": {
      "addSupportForPairIfNeeded(address,address)": {
        "details": "Will revert if pair cannot be supported. _tokenA and _tokenB may be passed in either tokenA/tokenB or tokenB/tokenA order",
        "params": {
          "_tokenA": "One of the pair's tokens",
          "_tokenB": "The other of the pair's tokens"
        }
      },
      "canSupportPair(address,address)": {
        "details": "_tokenA and _tokenB may be passed in either tokenA/tokenB or tokenB/tokenA order",
        "params": {
          "_tokenA": "One of the pair's tokens",
          "_tokenB": "The other of the pair's tokens"
        },
        "returns": {
          "_0": "Whether the given pair of tokens can be supported by the oracle"
        }
      },
      "oracleInUse(address,address)": {
        "details": "_tokenA and _tokenB may be passed in either tokenA/tokenB or tokenB/tokenA order",
        "returns": {
          "_0": "The oracle that is being used for the given pair"
        }
      },
      "quote(address,uint128,address)": {
        "params": {
          "_amountIn": "The amount that will be provided",
          "_tokenIn": "The token that will be provided",
          "_tokenOut": "The token we would like to quote"
        },
        "returns": {
          "_amountOut": "How much _tokenOut will be returned in exchange for _amountIn amount of _tokenIn"
        }
      },
      "reconfigureSupportForPair(address,address)": {
        "details": "Will revert if pair cannot be supported. _tokenA and _tokenB may be passed in either tokenA/tokenB or tokenB/tokenA order",
        "params": {
          "_tokenA": "One of the pair's tokens",
          "_tokenB": "The other of the pair's tokens"
        }
      },
      "setOracleForPair(address,address,uint8)": {
        "details": "_tokenA and _tokenB may be passed in either tokenA/tokenB or tokenB/tokenA order",
        "params": {
          "_tokenA": "One of the pair's tokens",
          "_tokenB": "The other of the pair's tokens"
        }
      }
    },
    "stateVariables": {
      "oracle1": {
        "return": "The first oracle",
        "returns": {
          "_0": "The first oracle"
        }
      },
      "oracle2": {
        "return": "The second oracle",
        "returns": {
          "_0": "The second oracle"
        }
      }
    },
    "version": 1
  },
  "userdoc": {
    "errors": {
      "InvalidOracle()": [
        {
          "notice": "Thrown when trying to set an invalid oracle for use"
        }
      ]
    },
    "events": {
      "OracleSetForUse(address,address,uint8)": {
        "notice": "Emitted when a new oracle is set for use for a pair"
      }
    },
    "kind": "user",
    "methods": {
      "addSupportForPairIfNeeded(address,address)": {
        "notice": "Adds support for a given pair if the oracle didn't support it already. If called for a pair that is already supported, then nothing will happen. This function will let the oracle take some actions to configure the pair, in preparation for future quotes."
      },
      "canSupportPair(address,address)": {
        "notice": "Returns whether this oracle can support this pair of tokens"
      },
      "oracle1()": {
        "notice": "Returns the first oracle of the two being aggregated"
      },
      "oracle2()": {
        "notice": "Returns the second oracle of the two being aggregated"
      },
      "oracleInUse(address,address)": {
        "notice": "Returns the oracle that is being used for the given pair"
      },
      "quote(address,uint128,address)": {
        "notice": "Returns a quote, based on the given tokens and amount"
      },
      "reconfigureSupportForPair(address,address)": {
        "notice": "Reconfigures support for a given pair. This function will let the oracle take some actions to configure the pair, in preparation for future quotes. Can be called many times in order to let the oracle re-configure for a new context."
      },
      "setOracleForPair(address,address,uint8)": {
        "notice": "Sets the oracle for the given pair, and initializes the oracle if necessary"
      }
    },
    "version": 1
  },
  "storageLayout": {
    "storage": [
      {
        "astId": 16135,
        "contract": "contracts/oracles/OracleAggregator.sol:OracleAggregator",
        "label": "_governor",
        "offset": 0,
        "slot": "0",
        "type": "t_address"
      },
      {
        "astId": 16137,
        "contract": "contracts/oracles/OracleAggregator.sol:OracleAggregator",
        "label": "_pendingGovernor",
        "offset": 0,
        "slot": "1",
        "type": "t_address"
      },
      {
        "astId": 15742,
        "contract": "contracts/oracles/OracleAggregator.sol:OracleAggregator",
        "label": "_oracleInUse",
        "offset": 0,
        "slot": "2",
        "type": "t_mapping(t_address,t_mapping(t_address,t_enum(OracleInUse)10670))"
      }
    ],
    "types": {
      "t_address": {
        "encoding": "inplace",
        "label": "address",
        "numberOfBytes": "20"
      },
      "t_enum(OracleInUse)10670": {
        "encoding": "inplace",
        "label": "enum IOracleAggregator.OracleInUse",
        "numberOfBytes": "1"
      },
      "t_mapping(t_address,t_enum(OracleInUse)10670)": {
        "encoding": "mapping",
        "key": "t_address",
        "label": "mapping(address => enum IOracleAggregator.OracleInUse)",
        "numberOfBytes": "32",
        "value": "t_enum(OracleInUse)10670"
      },
      "t_mapping(t_address,t_mapping(t_address,t_enum(OracleInUse)10670))": {
        "encoding": "mapping",
        "key": "t_address",
        "label": "mapping(address => mapping(address => enum IOracleAggregator.OracleInUse))",
        "numberOfBytes": "32",
        "value": "t_mapping(t_address,t_enum(OracleInUse)10670)"
      }
    }
  }
}