{
  "address": "0x3dbC70b2c825329d13A33991028426cfF582f9B3",
  "abi": [
    {
      "inputs": [
        {
          "internalType": "address",
          "name": "_governor",
          "type": "address"
        },
        {
          "internalType": "contract IDCATokenDescriptor",
          "name": "_descriptor",
          "type": "address"
        }
      ],
      "stateMutability": "nonpayable",
      "type": "constructor"
    },
    {
      "inputs": [],
      "name": "ExpiredDeadline",
      "type": "error"
    },
    {
      "inputs": [],
      "name": "HubAlreadySet",
      "type": "error"
    },
    {
      "inputs": [],
      "name": "InvalidSignature",
      "type": "error"
    },
    {
      "inputs": [],
      "name": "NotOwner",
      "type": "error"
    },
    {
      "inputs": [],
      "name": "OnlyHubCanExecute",
      "type": "error"
    },
    {
      "inputs": [],
      "name": "ZeroAddress",
      "type": "error"
    },
    {
      "anonymous": false,
      "inputs": [
        {
          "indexed": true,
          "internalType": "address",
          "name": "owner",
          "type": "address"
        },
        {
          "indexed": true,
          "internalType": "address",
          "name": "approved",
          "type": "address"
        },
        {
          "indexed": true,
          "internalType": "uint256",
          "name": "tokenId",
          "type": "uint256"
        }
      ],
      "name": "Approval",
      "type": "event"
    },
    {
      "anonymous": false,
      "inputs": [
        {
          "indexed": true,
          "internalType": "address",
          "name": "owner",
          "type": "address"
        },
        {
          "indexed": true,
          "internalType": "address",
          "name": "operator",
          "type": "address"
        },
        {
          "indexed": false,
          "internalType": "bool",
          "name": "approved",
          "type": "bool"
        }
      ],
      "name": "ApprovalForAll",
      "type": "event"
    },
    {
      "anonymous": false,
      "inputs": [
        {
          "indexed": false,
          "internalType": "uint256",
          "name": "tokenId",
          "type": "uint256"
        },
        {
          "components": [
            {
              "internalType": "address",
              "name": "operator",
              "type": "address"
            },
            {
              "internalType": "enum IDCAPermissionManager.Permission[]",
              "name": "permissions",
              "type": "uint8[]"
            }
          ],
          "indexed": false,
          "internalType": "struct IDCAPermissionManager.PermissionSet[]",
          "name": "permissions",
          "type": "tuple[]"
        }
      ],
      "name": "Modified",
      "type": "event"
    },
    {
      "anonymous": false,
      "inputs": [
        {
          "indexed": false,
          "internalType": "contract IDCATokenDescriptor",
          "name": "descriptor",
          "type": "address"
        }
      ],
      "name": "NFTDescriptorSet",
      "type": "event"
    },
    {
      "anonymous": false,
      "inputs": [],
      "name": "PendingGovernorAccepted",
      "type": "event"
    },
    {
      "anonymous": false,
      "inputs": [
        {
          "indexed": false,
          "internalType": "address",
          "name": "pendingGovernor",
          "type": "address"
        }
      ],
      "name": "PendingGovernorSet",
      "type": "event"
    },
    {
      "anonymous": false,
      "inputs": [
        {
          "indexed": true,
          "internalType": "address",
          "name": "from",
          "type": "address"
        },
        {
          "indexed": true,
          "internalType": "address",
          "name": "to",
          "type": "address"
        },
        {
          "indexed": true,
          "internalType": "uint256",
          "name": "tokenId",
          "type": "uint256"
        }
      ],
      "name": "Transfer",
      "type": "event"
    },
    {
      "inputs": [],
      "name": "DOMAIN_SEPARATOR",
      "outputs": [
        {
          "internalType": "bytes32",
          "name": "",
          "type": "bytes32"
        }
      ],
      "stateMutability": "view",
      "type": "function"
    },
    {
      "inputs": [],
      "name": "PERMISSION_PERMIT_TYPEHASH",
      "outputs": [
        {
          "internalType": "bytes32",
          "name": "",
          "type": "bytes32"
        }
      ],
      "stateMutability": "view",
      "type": "function"
    },
    {
      "inputs": [],
      "name": "PERMISSION_SET_TYPEHASH",
      "outputs": [
        {
          "internalType": "bytes32",
          "name": "",
          "type": "bytes32"
        }
      ],
      "stateMutability": "view",
      "type": "function"
    },
    {
      "inputs": [],
      "name": "PERMIT_TYPEHASH",
      "outputs": [
        {
          "internalType": "bytes32",
          "name": "",
          "type": "bytes32"
        }
      ],
      "stateMutability": "view",
      "type": "function"
    },
    {
      "inputs": [],
      "name": "acceptPendingGovernor",
      "outputs": [],
      "stateMutability": "nonpayable",
      "type": "function"
    },
    {
      "inputs": [
        {
          "internalType": "address",
          "name": "to",
          "type": "address"
        },
        {
          "internalType": "uint256",
          "name": "tokenId",
          "type": "uint256"
        }
      ],
      "name": "approve",
      "outputs": [],
      "stateMutability": "nonpayable",
      "type": "function"
    },
    {
      "inputs": [
        {
          "internalType": "address",
          "name": "owner",
          "type": "address"
        }
      ],
      "name": "balanceOf",
      "outputs": [
        {
          "internalType": "uint256",
          "name": "",
          "type": "uint256"
        }
      ],
      "stateMutability": "view",
      "type": "function"
    },
    {
      "inputs": [
        {
          "internalType": "uint256",
          "name": "_id",
          "type": "uint256"
        }
      ],
      "name": "burn",
      "outputs": [],
      "stateMutability": "nonpayable",
      "type": "function"
    },
    {
      "inputs": [
        {
          "internalType": "uint256",
          "name": "tokenId",
          "type": "uint256"
        }
      ],
      "name": "getApproved",
      "outputs": [
        {
          "internalType": "address",
          "name": "",
          "type": "address"
        }
      ],
      "stateMutability": "view",
      "type": "function"
    },
    {
      "inputs": [],
      "name": "governor",
      "outputs": [
        {
          "internalType": "address",
          "name": "",
          "type": "address"
        }
      ],
      "stateMutability": "view",
      "type": "function"
    },
    {
      "inputs": [
        {
          "internalType": "uint256",
          "name": "_id",
          "type": "uint256"
        },
        {
          "internalType": "address",
          "name": "_address",
          "type": "address"
        },
        {
          "internalType": "enum IDCAPermissionManager.Permission",
          "name": "_permission",
          "type": "uint8"
        }
      ],
      "name": "hasPermission",
      "outputs": [
        {
          "internalType": "bool",
          "name": "",
          "type": "bool"
        }
      ],
      "stateMutability": "view",
      "type": "function"
    },
    {
      "inputs": [
        {
          "internalType": "uint256",
          "name": "_id",
          "type": "uint256"
        },
        {
          "internalType": "address",
          "name": "_address",
          "type": "address"
        },
        {
          "internalType": "enum IDCAPermissionManager.Permission[]",
          "name": "_permissions",
          "type": "uint8[]"
        }
      ],
      "name": "hasPermissions",
      "outputs": [
        {
          "internalType": "bool[]",
          "name": "_hasPermissions",
          "type": "bool[]"
        }
      ],
      "stateMutability": "view",
      "type": "function"
    },
    {
      "inputs": [],
      "name": "hub",
      "outputs": [
        {
          "internalType": "address",
          "name": "",
          "type": "address"
        }
      ],
      "stateMutability": "view",
      "type": "function"
    },
    {
      "inputs": [
        {
          "internalType": "address",
          "name": "owner",
          "type": "address"
        },
        {
          "internalType": "address",
          "name": "operator",
          "type": "address"
        }
      ],
      "name": "isApprovedForAll",
      "outputs": [
        {
          "internalType": "bool",
          "name": "",
          "type": "bool"
        }
      ],
      "stateMutability": "view",
      "type": "function"
    },
    {
      "inputs": [
        {
          "internalType": "address",
          "name": "_account",
          "type": "address"
        }
      ],
      "name": "isGovernor",
      "outputs": [
        {
          "internalType": "bool",
          "name": "_isGovernor",
          "type": "bool"
        }
      ],
      "stateMutability": "view",
      "type": "function"
    },
    {
      "inputs": [
        {
          "internalType": "address",
          "name": "_account",
          "type": "address"
        }
      ],
      "name": "isPendingGovernor",
      "outputs": [
        {
          "internalType": "bool",
          "name": "_isPendingGovernor",
          "type": "bool"
        }
      ],
      "stateMutability": "view",
      "type": "function"
    },
    {
      "inputs": [
        {
          "internalType": "uint256",
          "name": "",
          "type": "uint256"
        }
      ],
      "name": "lastOwnershipChange",
      "outputs": [
        {
          "internalType": "uint256",
          "name": "",
          "type": "uint256"
        }
      ],
      "stateMutability": "view",
      "type": "function"
    },
    {
      "inputs": [
        {
          "internalType": "uint256",
          "name": "_id",
          "type": "uint256"
        },
        {
          "internalType": "address",
          "name": "_owner",
          "type": "address"
        },
        {
          "components": [
            {
              "internalType": "address",
              "name": "operator",
              "type": "address"
            },
            {
              "internalType": "enum IDCAPermissionManager.Permission[]",
              "name": "permissions",
              "type": "uint8[]"
            }
          ],
          "internalType": "struct IDCAPermissionManager.PermissionSet[]",
          "name": "_permissions",
          "type": "tuple[]"
        }
      ],
      "name": "mint",
      "outputs": [],
      "stateMutability": "nonpayable",
      "type": "function"
    },
    {
      "inputs": [
        {
          "internalType": "uint256",
          "name": "_id",
          "type": "uint256"
        },
        {
          "components": [
            {
              "internalType": "address",
              "name": "operator",
              "type": "address"
            },
            {
              "internalType": "enum IDCAPermissionManager.Permission[]",
              "name": "permissions",
              "type": "uint8[]"
            }
          ],
          "internalType": "struct IDCAPermissionManager.PermissionSet[]",
          "name": "_permissions",
          "type": "tuple[]"
        }
      ],
      "name": "modify",
      "outputs": [],
      "stateMutability": "nonpayable",
      "type": "function"
    },
    {
      "inputs": [],
      "name": "name",
      "outputs": [
        {
          "internalType": "string",
          "name": "",
          "type": "string"
        }
      ],
      "stateMutability": "view",
      "type": "function"
    },
    {
      "inputs": [],
      "name": "nftDescriptor",
      "outputs": [
        {
          "internalType": "contract IDCATokenDescriptor",
          "name": "",
          "type": "address"
        }
      ],
      "stateMutability": "view",
      "type": "function"
    },
    {
      "inputs": [
        {
          "internalType": "address",
          "name": "",
          "type": "address"
        }
      ],
      "name": "nonces",
      "outputs": [
        {
          "internalType": "uint256",
          "name": "",
          "type": "uint256"
        }
      ],
      "stateMutability": "view",
      "type": "function"
    },
    {
      "inputs": [
        {
          "internalType": "uint256",
          "name": "tokenId",
          "type": "uint256"
        }
      ],
      "name": "ownerOf",
      "outputs": [
        {
          "internalType": "address",
          "name": "",
          "type": "address"
        }
      ],
      "stateMutability": "view",
      "type": "function"
    },
    {
      "inputs": [],
      "name": "pendingGovernor",
      "outputs": [
        {
          "internalType": "address",
          "name": "",
          "type": "address"
        }
      ],
      "stateMutability": "view",
      "type": "function"
    },
    {
      "inputs": [
        {
          "components": [
            {
              "internalType": "address",
              "name": "operator",
              "type": "address"
            },
            {
              "internalType": "enum IDCAPermissionManager.Permission[]",
              "name": "permissions",
              "type": "uint8[]"
            }
          ],
          "internalType": "struct IDCAPermissionManager.PermissionSet[]",
          "name": "_permissions",
          "type": "tuple[]"
        },
        {
          "internalType": "uint256",
          "name": "_tokenId",
          "type": "uint256"
        },
        {
          "internalType": "uint256",
          "name": "_deadline",
          "type": "uint256"
        },
        {
          "internalType": "uint8",
          "name": "_v",
          "type": "uint8"
        },
        {
          "internalType": "bytes32",
          "name": "_r",
          "type": "bytes32"
        },
        {
          "internalType": "bytes32",
          "name": "_s",
          "type": "bytes32"
        }
      ],
      "name": "permissionPermit",
      "outputs": [],
      "stateMutability": "nonpayable",
      "type": "function"
    },
    {
      "inputs": [
        {
          "internalType": "address",
          "name": "_spender",
          "type": "address"
        },
        {
          "internalType": "uint256",
          "name": "_tokenId",
          "type": "uint256"
        },
        {
          "internalType": "uint256",
          "name": "_deadline",
          "type": "uint256"
        },
        {
          "internalType": "uint8",
          "name": "_v",
          "type": "uint8"
        },
        {
          "internalType": "bytes32",
          "name": "_r",
          "type": "bytes32"
        },
        {
          "internalType": "bytes32",
          "name": "_s",
          "type": "bytes32"
        }
      ],
      "name": "permit",
      "outputs": [],
      "stateMutability": "nonpayable",
      "type": "function"
    },
    {
      "inputs": [
        {
          "internalType": "address",
          "name": "from",
          "type": "address"
        },
        {
          "internalType": "address",
          "name": "to",
          "type": "address"
        },
        {
          "internalType": "uint256",
          "name": "tokenId",
          "type": "uint256"
        }
      ],
      "name": "safeTransferFrom",
      "outputs": [],
      "stateMutability": "nonpayable",
      "type": "function"
    },
    {
      "inputs": [
        {
          "internalType": "address",
          "name": "from",
          "type": "address"
        },
        {
          "internalType": "address",
          "name": "to",
          "type": "address"
        },
        {
          "internalType": "uint256",
          "name": "tokenId",
          "type": "uint256"
        },
        {
          "internalType": "bytes",
          "name": "_data",
          "type": "bytes"
        }
      ],
      "name": "safeTransferFrom",
      "outputs": [],
      "stateMutability": "nonpayable",
      "type": "function"
    },
    {
      "inputs": [
        {
          "internalType": "address",
          "name": "operator",
          "type": "address"
        },
        {
          "internalType": "bool",
          "name": "approved",
          "type": "bool"
        }
      ],
      "name": "setApprovalForAll",
      "outputs": [],
      "stateMutability": "nonpayable",
      "type": "function"
    },
    {
      "inputs": [
        {
          "internalType": "address",
          "name": "_hub",
          "type": "address"
        }
      ],
      "name": "setHub",
      "outputs": [],
      "stateMutability": "nonpayable",
      "type": "function"
    },
    {
      "inputs": [
        {
          "internalType": "contract IDCATokenDescriptor",
          "name": "_descriptor",
          "type": "address"
        }
      ],
      "name": "setNFTDescriptor",
      "outputs": [],
      "stateMutability": "nonpayable",
      "type": "function"
    },
    {
      "inputs": [
        {
          "internalType": "address",
          "name": "__pendingGovernor",
          "type": "address"
        }
      ],
      "name": "setPendingGovernor",
      "outputs": [],
      "stateMutability": "nonpayable",
      "type": "function"
    },
    {
      "inputs": [
        {
          "internalType": "bytes4",
          "name": "interfaceId",
          "type": "bytes4"
        }
      ],
      "name": "supportsInterface",
      "outputs": [
        {
          "internalType": "bool",
          "name": "",
          "type": "bool"
        }
      ],
      "stateMutability": "view",
      "type": "function"
    },
    {
      "inputs": [],
      "name": "symbol",
      "outputs": [
        {
          "internalType": "string",
          "name": "",
          "type": "string"
        }
      ],
      "stateMutability": "view",
      "type": "function"
    },
    {
      "inputs": [
        {
          "internalType": "uint256",
          "name": "",
          "type": "uint256"
        },
        {
          "internalType": "address",
          "name": "",
          "type": "address"
        }
      ],
      "name": "tokenPermissions",
      "outputs": [
        {
          "internalType": "uint8",
          "name": "permissions",
          "type": "uint8"
        },
        {
          "internalType": "uint248",
          "name": "lastUpdated",
          "type": "uint248"
        }
      ],
      "stateMutability": "view",
      "type": "function"
    },
    {
      "inputs": [
        {
          "internalType": "uint256",
          "name": "_tokenId",
          "type": "uint256"
        }
      ],
      "name": "tokenURI",
      "outputs": [
        {
          "internalType": "string",
          "name": "",
          "type": "string"
        }
      ],
      "stateMutability": "view",
      "type": "function"
    },
    {
      "inputs": [
        {
          "internalType": "address",
          "name": "from",
          "type": "address"
        },
        {
          "internalType": "address",
          "name": "to",
          "type": "address"
        },
        {
          "internalType": "uint256",
          "name": "tokenId",
          "type": "uint256"
        }
      ],
      "name": "transferFrom",
      "outputs": [],
      "stateMutability": "nonpayable",
      "type": "function"
    }
  ],
  "transactionHash": "0xa528e301b9ef69b4e52bc4b1181d8f1a75af84f71f4c793337967260fb36528b",
  "args": [
    "0x1a00e1E311009E56e3b0B9Ed6F86f5Ce128a1C01",
    "0x4f8cc084436Eb5de497DD812871b316ca04ADC57"
  ],
  "solcInputHash": "c05c06b1a5e910552d4718935471de1d",
  "bytecode": "0x6101206040523480156200001257600080fd5b50604051620030d7380380620030d78339810160408190526200003591620002f5565b816040518060400160405280601081526020016f4d65616e2046696e616e63652044434160801b815250604051806040016040528060018152602001603160f81b8152506040518060400160405280601081526020016f4d65616e2046696e616e63652044434160801b8152506040518060400160405280600381526020016244434160e81b8152508160009080519060200190620000d692919062000236565b508051620000ec90600190602084019062000236565b5050825160209384012082519284019290922060c083815260e08290524660a0818152604080517f8b73c3c69bb8fe3d512ecc4cf759cc79239f7b179b0ffacaa9a75d522b39400f818a0181905281830198909852606081019590955260808086019390935230858301528051808603909201825293909201909252805194019390932090925261010052506001600160a01b038116620001d35760405162461bcd60e51b815260206004820152601860248201527f476f7665726e61626c653a207a65726f20616464726573730000000000000000604482015260640160405180910390fd5b600680546001600160a01b0319166001600160a01b0392831617905581166200020f5760405163d92e233d60e01b815260040160405180910390fd5b600880546001600160a01b0319166001600160a01b03929092169190911790555062000371565b828054620002449062000334565b90600052602060002090601f016020900481019282620002685760008555620002b3565b82601f106200028357805160ff1916838001178555620002b3565b82800160010185558215620002b3579182015b82811115620002b357825182559160200191906001019062000296565b50620002c1929150620002c5565b5090565b5b80821115620002c15760008155600101620002c6565b6001600160a01b0381168114620002f257600080fd5b50565b600080604083850312156200030957600080fd5b82516200031681620002dc565b60208401519092506200032981620002dc565b809150509250929050565b600181811c908216806200034957607f821691505b602082108114156200036b57634e487b7160e01b600052602260045260246000fd5b50919050565b60805160a05160c05160e05161010051612d21620003b6600039600061173d0152600061178c01526000611767015260006116eb015260006117140152612d216000f3fe608060405234801561001057600080fd5b50600436106102275760003560e01c8063551e123b11610130578063a22cb465116100b8578063e1fc815d1161007c578063e1fc815d14610552578063e3056a3414610579578063e43581b81461058a578063e985e9c5146105ac578063f235757f146105e857600080fd5b8063a22cb465146104d7578063b3d23ffc146104ea578063b88d4fde1461050a578063c87b56dd1461051d578063df08aed51461053057600080fd5b80637cad6cd1116100ff5780637cad6cd11461042a5780637ecebe001461043d578063823abfd91461045d57806393f03eed1461047057806395d89b41146104cf57600080fd5b8063551e123b146103d15780636352211e146103f157806370a08231146104045780637ac2ff7b1461041757600080fd5b806330adf81f116101b357806336b350981161018257806336b350981461037257806342842e0e1461038557806342966c681461039857806344267570146103ab5780634faa3883146103be57600080fd5b806330adf81f1461031d57806331962cdc146103445780633644e51514610357578063365a86fc1461035f57600080fd5b80630b7d4820116101fa5780630b7d4820146102a95780630c340a24146102bc57806313f6986d146102cd57806323b872dd146102d557806327d70dca146102e857600080fd5b806301ffc9a71461022c57806306fdde0314610254578063081812fc14610269578063095ea7b314610294575b600080fd5b61023f61023a366004612363565b6105fb565b60405190151581526020015b60405180910390f35b61025c61064d565b60405161024b91906123d8565b61027c6102773660046123eb565b6106df565b6040516001600160a01b03909116815260200161024b565b6102a76102a2366004612419565b610779565b005b6102a76102b7366004612491565b61088f565b6006546001600160a01b031661027c565b6102a76108d4565b6102a76102e33660046124dd565b610942565b61030f7fd9daa4fe1723edf458fc13a2d7c6e9147a88485b7932c0ada7e0dd16445f0dda81565b60405190815260200161024b565b61030f7f49ecf333e5b8c95c40fdafc95c1ad136e8914a8fb55e9dc8bb01eaa83a2df9ad81565b6102a761035236600461251e565b610973565b61030f6109e6565b60095461027c906001600160a01b031681565b6102a761038036600461253b565b6109f5565b6102a76103933660046124dd565b610a3b565b6102a76103a63660046123eb565b610a56565b60085461027c906001600160a01b031681565b6102a76103cc3660046125ad565b610a8d565b6103e46103df36600461253b565b610bc2565b60405161024b9190612627565b61027c6103ff3660046123eb565b610d50565b61030f61041236600461251e565b610dc7565b6102a761042536600461266d565b610e4e565b6102a761043836600461251e565b610f7c565b61030f61044b36600461251e565b600a6020526000908152604090205481565b61023f61046b3660046126d6565b61104e565b6104ae61047e366004612714565b600c60209081526000928352604080842090915290825290205460ff81169061010090046001600160f81b031682565b6040805160ff90931683526001600160f81b0390911660208301520161024b565b61025c611103565b6102a76104e5366004612744565b611112565b61030f6104f83660046123eb565b600b6020526000908152604090205481565b6102a76105183660046127e6565b6111d7565b61025c61052b3660046123eb565b611209565b61023f61053e36600461251e565b6007546001600160a01b0391821691161490565b61030f7f5922b2c51ed135e5c892d4fa1b63ad30a4a2c7e7bfc895ee28a38b6e8899962781565b6007546001600160a01b031661027c565b61023f61059836600461251e565b6006546001600160a01b0391821691161490565b61023f6105ba366004612895565b6001600160a01b03918216600090815260056020908152604080832093909416825291909152205460ff1690565b6102a76105f636600461251e565b611289565b60006001600160e01b031982166380ac58cd60e01b148061062c57506001600160e01b03198216635b5e139f60e01b145b8061064757506301ffc9a760e01b6001600160e01b03198316145b92915050565b60606000805461065c906128c3565b80601f0160208091040260200160405190810160405280929190818152602001828054610688906128c3565b80156106d55780601f106106aa576101008083540402835291602001916106d5565b820191906000526020600020905b8154815290600101906020018083116106b857829003601f168201915b5050505050905090565b6000818152600260205260408120546001600160a01b031661075d5760405162461bcd60e51b815260206004820152602c60248201527f4552433732313a20617070726f76656420717565727920666f72206e6f6e657860448201526b34b9ba32b73a103a37b5b2b760a11b60648201526084015b60405180910390fd5b506000908152600460205260409020546001600160a01b031690565b600061078482610d50565b9050806001600160a01b0316836001600160a01b031614156107f25760405162461bcd60e51b815260206004820152602160248201527f4552433732313a20617070726f76616c20746f2063757272656e74206f776e656044820152603960f91b6064820152608401610754565b336001600160a01b038216148061080e575061080e81336105ba565b6108805760405162461bcd60e51b815260206004820152603860248201527f4552433732313a20617070726f76652063616c6c6572206973206e6f74206f7760448201527f6e6572206e6f7220617070726f76656420666f7220616c6c00000000000000006064820152608401610754565b61088a83836112e8565b505050565b61089883610d50565b6001600160a01b0316336001600160a01b0316146108c9576040516330cd747160e01b815260040160405180910390fd5b61088a838383611356565b6007546001600160a01b031633146109385760405162461bcd60e51b815260206004820152602160248201527f476f7665726e61626c653a206f6e6c792070656e64696e6720676f7665726e6f6044820152603960f91b6064820152608401610754565b6109406113a1565b565b61094c3382611449565b6109685760405162461bcd60e51b8152600401610754906128f8565b61088a83838361153c565b6001600160a01b03811661099a5760405163d92e233d60e01b815260040160405180910390fd5b6009546001600160a01b0316156109c4576040516379fb96cd60e01b815260040160405180910390fd5b600980546001600160a01b0319166001600160a01b0392909216919091179055565b60006109f06116e7565b905090565b6009546001600160a01b03163314610a205760405163fc88f3b160e01b815260040160405180910390fd5b610a2a83856117da565b610a35848383611928565b50505050565b61088a838383604051806020016040528060008152506111d7565b6009546001600160a01b03163314610a815760405163fc88f3b160e01b815260040160405180910390fd5b610a8a81611af0565b50565b83421115610aae5760405163f87d927160e01b815260040160405180910390fd5b6000610ab986610d50565b905060007f5922b2c51ed135e5c892d4fa1b63ad30a4a2c7e7bfc895ee28a38b6e88999627610ae88a8a611b97565b80516020918201206001600160a01b0385166000908152600a90925260408220805491928b929190610b198361295f565b909155506040805160208101959095528401929092526060830152608082015260a0810187905260c0016040516020818303038152906040528051906020012090506000610b6682611c12565b90506000610b7682888888611c60565b9050836001600160a01b0316816001600160a01b031614610baa57604051638baa579f60e01b815260040160405180910390fd5b610bb5898c8c611356565b5050505050505050505050565b60608167ffffffffffffffff811115610bdd57610bdd612777565b604051908082528060200260200182016040528015610c06578160200160208202803683370190505b509050836001600160a01b0316610c1c86610d50565b6001600160a01b03161415610c725760005b82811015610c6c576001828281518110610c4a57610c4a61297a565b9115156020928302919091019091015280610c648161295f565b915050610c2e565b50610d48565b6000858152600c602090815260408083206001600160a01b0388168452825280832081518083018352905460ff8116825261010090046001600160f81b0316818401819052898552600b9093529220541015610d465760005b83811015610d4457610d08858583818110610ce857610ce861297a565b9050602002016020810190610cfd9190612990565b835160ff1690611c88565b15610d32576001838281518110610d2157610d2161297a565b911515602092830291909101909101525b80610d3c8161295f565b915050610ccb565b505b505b949350505050565b6000818152600260205260408120546001600160a01b0316806106475760405162461bcd60e51b815260206004820152602960248201527f4552433732313a206f776e657220717565727920666f72206e6f6e657869737460448201526832b73a103a37b5b2b760b91b6064820152608401610754565b60006001600160a01b038216610e325760405162461bcd60e51b815260206004820152602a60248201527f4552433732313a2062616c616e636520717565727920666f7220746865207a65604482015269726f206164647265737360b01b6064820152608401610754565b506001600160a01b031660009081526003602052604090205490565b83421115610e6f5760405163f87d927160e01b815260040160405180910390fd5b6000610e7a86610d50565b6001600160a01b0381166000908152600a60205260408120805492935090917f49ecf333e5b8c95c40fdafc95c1ad136e8914a8fb55e9dc8bb01eaa83a2df9ad918a918a9185610ec98361295f565b909155506040805160208101959095526001600160a01b03909316928401929092526060830152608082015260a0810187905260c0016040516020818303038152906040528051906020012090506000610f2282611c12565b90506000610f3282888888611c60565b9050836001600160a01b0316816001600160a01b031614610f6657604051638baa579f60e01b815260040160405180910390fd5b610f708a8a6112e8565b50505050505050505050565b6006546001600160a01b03163314610fd25760405162461bcd60e51b815260206004820152601960248201527823b7bb32b93730b136329d1037b7363c9033b7bb32b93737b960391b6044820152606401610754565b6001600160a01b038116610ff95760405163d92e233d60e01b815260040160405180910390fd5b600880546001600160a01b0319166001600160a01b0383169081179091556040519081527f58a2b9171063c6d38177053178bc1844b920884b05d7c9126c480d86b0716bce906020015b60405180910390a150565b6000826001600160a01b031661106385610d50565b6001600160a01b0316141561107a575060016110fc565b6000848152600c602090815260408083206001600160a01b038716845282529182902082518084019093525460ff81168084526101009091046001600160f81b0316918301919091526110cd9084611c88565b80156110f8575080602001516001600160f81b0316600b600087815260200190815260200160002054105b9150505b9392505050565b60606001805461065c906128c3565b6001600160a01b03821633141561116b5760405162461bcd60e51b815260206004820152601960248201527f4552433732313a20617070726f766520746f2063616c6c6572000000000000006044820152606401610754565b3360008181526005602090815260408083206001600160a01b03871680855290835292819020805460ff191686151590811790915590519081529192917f17307eab39ab6107e8899845ad3d59bd9653f200f220920489ca2b5937696c31910160405180910390a35050565b6111e13383611449565b6111fd5760405162461bcd60e51b8152600401610754906128f8565b610a3584848484611cb3565b60085460095460405163e9dc637560e01b81526001600160a01b03918216600482015260248101849052606092919091169063e9dc637590604401600060405180830381865afa158015611261573d6000803e3d6000fd5b505050506040513d6000823e601f3d908101601f1916820160405261064791908101906129ab565b6006546001600160a01b031633146112df5760405162461bcd60e51b815260206004820152601960248201527823b7bb32b93730b136329d1037b7363c9033b7bb32b93737b960391b6044820152606401610754565b610a8a81611ce6565b600081815260046020526040902080546001600160a01b0319166001600160a01b038416908117909155819061131d82610d50565b6001600160a01b03167f8c5be1e5ebec7d5bd14f71427d1e84f3dd0314c0f7b2291e5b200ac8c7c3b92560405160405180910390a45050565b611361838383611928565b7f5015559e4f379aa0dd2effee572c916b09bb68ed41ad9ab127c8066f052e164383838360405161139493929190612a38565b60405180910390a1505050565b6007546001600160a01b03166113f95760405162461bcd60e51b815260206004820152601f60248201527f476f7665726e61626c653a206e6f2070656e64696e6720676f7665726e6f72006044820152606401610754565b60078054600680546001600160a01b03199081166001600160a01b038416179091551690556040517fdc57ca23c46d823853915ed5a090ca0ee9db5eb6a46f5c58e1c9158de861fd7690600090a1565b6000818152600260205260408120546001600160a01b03166114c25760405162461bcd60e51b815260206004820152602c60248201527f4552433732313a206f70657261746f7220717565727920666f72206e6f6e657860448201526b34b9ba32b73a103a37b5b2b760a11b6064820152608401610754565b60006114cd83610d50565b9050806001600160a01b0316846001600160a01b031614806115085750836001600160a01b03166114fd846106df565b6001600160a01b0316145b80610d4857506001600160a01b0380821660009081526005602090815260408083209388168352929052205460ff16610d48565b826001600160a01b031661154f82610d50565b6001600160a01b0316146115b75760405162461bcd60e51b815260206004820152602960248201527f4552433732313a207472616e73666572206f6620746f6b656e2074686174206960448201526839903737ba1037bbb760b91b6064820152608401610754565b6001600160a01b0382166116195760405162461bcd60e51b8152602060048201526024808201527f4552433732313a207472616e7366657220746f20746865207a65726f206164646044820152637265737360e01b6064820152608401610754565b611624838383611d8a565b61162f6000826112e8565b6001600160a01b0383166000908152600360205260408120805460019290611658908490612b65565b90915550506001600160a01b0382166000908152600360205260408120805460019290611686908490612b7c565b909155505060008181526002602052604080822080546001600160a01b0319166001600160a01b0386811691821790925591518493918716917fddf252ad1be2c89b69c2b068fc378daa952ba7f163c4a11628f55a4df523b3ef91a4505050565b60007f000000000000000000000000000000000000000000000000000000000000000046141561173657507f000000000000000000000000000000000000000000000000000000000000000090565b50604080517f00000000000000000000000000000000000000000000000000000000000000006020808301919091527f0000000000000000000000000000000000000000000000000000000000000000828401527f000000000000000000000000000000000000000000000000000000000000000060608301524660808301523060a0808401919091528351808403909101815260c0909201909252805191012090565b6001600160a01b0382166118305760405162461bcd60e51b815260206004820181905260248201527f4552433732313a206d696e7420746f20746865207a65726f20616464726573736044820152606401610754565b6000818152600260205260409020546001600160a01b0316156118955760405162461bcd60e51b815260206004820152601c60248201527f4552433732313a20746f6b656e20616c7265616479206d696e746564000000006044820152606401610754565b6118a160008383611d8a565b6001600160a01b03821660009081526003602052604081208054600192906118ca908490612b7c565b909155505060008181526002602052604080822080546001600160a01b0319166001600160a01b03861690811790915590518392907fddf252ad1be2c89b69c2b068fc378daa952ba7f163c4a11628f55a4df523b3ef908290a45050565b4360005b82811015611ae9578383828181106119465761194661297a565b90506020028101906119589190612b94565b611966906020810190612bb4565b151590506119d0576000858152600c602052604081209085858481811061198f5761198f61297a565b90506020028101906119a19190612b94565b6119af90602081019061251e565b6001600160a01b031681526020810191909152604001600090812055611ad7565b6040518060400160405280611a478686858181106119f0576119f061297a565b9050602002810190611a029190612b94565b611a10906020810190612bb4565b80806020026020016040519081016040528093929190818152602001838360200280828437600092019190915250611dcf92505050565b60ff1681526001600160f81b0384166020918201526000878152600c9091526040812090868685818110611a7d57611a7d61297a565b9050602002810190611a8f9190612b94565b611a9d90602081019061251e565b6001600160a01b03168152602080820192909252604001600020825192909101516001600160f81b03166101000260ff9092169190911790555b80611ae18161295f565b91505061192c565b5050505050565b6000611afb82610d50565b9050611b0981600084611d8a565b611b146000836112e8565b6001600160a01b0381166000908152600360205260408120805460019290611b3d908490612b65565b909155505060008281526002602052604080822080546001600160a01b0319169055518391906001600160a01b038416907fddf252ad1be2c89b69c2b068fc378daa952ba7f163c4a11628f55a4df523b3ef908390a45050565b606060005b82811015611c0b5781611bd1858584818110611bba57611bba61297a565b9050602002810190611bcc9190612b94565b611e2b565b8051602091820120604051611be7939201612bfe565b60405160208183030381529060405291508080611c039061295f565b915050611b9c565b5092915050565b6000610647611c1f6116e7565b8360405161190160f01b6020820152602281018390526042810182905260009060620160405160208183030381529060405280519060200120905092915050565b6000806000611c7187878787611eb7565b91509150611c7e81611fa4565b5095945050505050565b600080826003811115611c9d57611c9d612a22565b600160ff9182161b948516169093149392505050565b611cbe84848461153c565b611cca8484848461215f565b610a355760405162461bcd60e51b815260040161075490612c20565b6001600160a01b038116611d3c5760405162461bcd60e51b815260206004820152601860248201527f476f7665726e61626c653a207a65726f206164647265737300000000000000006044820152606401610754565b600780546001600160a01b0319166001600160a01b0383169081179091556040519081527f56bddfa0cee9697cebddf9acd7f23dc6583663b05e007b877056d05017994def90602001611043565b6001600160a01b038216611dab576000908152600b60205260408120555050565b6001600160a01b0383161561088a57436000828152600b6020526040902055505050565b6000805b8251811015611e2557828181518110611dee57611dee61297a565b60200260200101516003811115611e0757611e07612a22565b60ff166001901b821791508080611e1d9061295f565b915050611dd3565b50919050565b60607fd9daa4fe1723edf458fc13a2d7c6e9147a88485b7932c0ada7e0dd16445f0dda611e5b602084018461251e565b611e70611e6b6020860186612bb4565b61225a565b8051602091820120604051611ea1949392019283526001600160a01b03919091166020830152604082015260600190565b6040516020818303038152906040529050919050565b6000807f7fffffffffffffffffffffffffffffff5d576e7357a4501ddfe92f46681b20a0831115611eee5750600090506003611f9b565b8460ff16601b14158015611f0657508460ff16601c14155b15611f175750600090506004611f9b565b6040805160008082526020820180845289905260ff881692820192909252606081018690526080810185905260019060a0016020604051602081039080840390855afa158015611f6b573d6000803e3d6000fd5b5050604051601f1901519150506001600160a01b038116611f9457600060019250925050611f9b565b9150600090505b94509492505050565b6000816004811115611fb857611fb8612a22565b1415611fc15750565b6001816004811115611fd557611fd5612a22565b14156120235760405162461bcd60e51b815260206004820152601860248201527f45434453413a20696e76616c6964207369676e617475726500000000000000006044820152606401610754565b600281600481111561203757612037612a22565b14156120855760405162461bcd60e51b815260206004820152601f60248201527f45434453413a20696e76616c6964207369676e6174757265206c656e677468006044820152606401610754565b600381600481111561209957612099612a22565b14156120f25760405162461bcd60e51b815260206004820152602260248201527f45434453413a20696e76616c6964207369676e6174757265202773272076616c604482015261756560f01b6064820152608401610754565b600481600481111561210657612106612a22565b1415610a8a5760405162461bcd60e51b815260206004820152602260248201527f45434453413a20696e76616c6964207369676e6174757265202776272076616c604482015261756560f01b6064820152608401610754565b60006001600160a01b0384163b1561225257604051630a85bd0160e11b81526001600160a01b0385169063150b7a02906121a3903390899088908890600401612c72565b6020604051808303816000875af19250505080156121de575060408051601f3d908101601f191682019092526121db91810190612caf565b60015b612238573d80801561220c576040519150601f19603f3d011682016040523d82523d6000602084013e612211565b606091505b5080516122305760405162461bcd60e51b815260040161075490612c20565b805181602001fd5b6001600160e01b031916630a85bd0160e11b149050610d48565b506001610d48565b6060612267826020612ccc565b67ffffffffffffffff81111561227f5761227f612777565b6040519080825280601f01601f1916602001820160405280156122a9576020820181803683370190505b50905060005b82811015611c0b578383828181106122c9576122c961297a565b90506020020160208101906122de9190612990565b60038111156122ef576122ef612a22565b60f81b8260016122ff8482612b7c565b61230a906020612ccc565b6123149190612b65565b815181106123245761232461297a565b60200101906001600160f81b031916908160001a905350806123458161295f565b9150506122af565b6001600160e01b031981168114610a8a57600080fd5b60006020828403121561237557600080fd5b81356110fc8161234d565b60005b8381101561239b578181015183820152602001612383565b83811115610a355750506000910152565b600081518084526123c4816020860160208601612380565b601f01601f19169290920160200192915050565b6020815260006110fc60208301846123ac565b6000602082840312156123fd57600080fd5b5035919050565b6001600160a01b0381168114610a8a57600080fd5b6000806040838503121561242c57600080fd5b823561243781612404565b946020939093013593505050565b60008083601f84011261245757600080fd5b50813567ffffffffffffffff81111561246f57600080fd5b6020830191508360208260051b850101111561248a57600080fd5b9250929050565b6000806000604084860312156124a657600080fd5b83359250602084013567ffffffffffffffff8111156124c457600080fd5b6124d086828701612445565b9497909650939450505050565b6000806000606084860312156124f257600080fd5b83356124fd81612404565b9250602084013561250d81612404565b929592945050506040919091013590565b60006020828403121561253057600080fd5b81356110fc81612404565b6000806000806060858703121561255157600080fd5b84359350602085013561256381612404565b9250604085013567ffffffffffffffff81111561257f57600080fd5b61258b87828801612445565b95989497509550505050565b803560ff811681146125a857600080fd5b919050565b600080600080600080600060c0888a0312156125c857600080fd5b873567ffffffffffffffff8111156125df57600080fd5b6125eb8a828b01612445565b909850965050602088013594506040880135935061260b60608901612597565b92506080880135915060a0880135905092959891949750929550565b6020808252825182820181905260009190848201906040850190845b81811015612661578351151583529284019291840191600101612643565b50909695505050505050565b60008060008060008060c0878903121561268657600080fd5b863561269181612404565b955060208701359450604087013593506126ad60608801612597565b92506080870135915060a087013590509295509295509295565b8035600481106125a857600080fd5b6000806000606084860312156126eb57600080fd5b8335925060208401356126fd81612404565b915061270b604085016126c7565b90509250925092565b6000806040838503121561272757600080fd5b82359150602083013561273981612404565b809150509250929050565b6000806040838503121561275757600080fd5b823561276281612404565b91506020830135801515811461273957600080fd5b634e487b7160e01b600052604160045260246000fd5b604051601f8201601f1916810167ffffffffffffffff811182821017156127b6576127b6612777565b604052919050565b600067ffffffffffffffff8211156127d8576127d8612777565b50601f01601f191660200190565b600080600080608085870312156127fc57600080fd5b843561280781612404565b9350602085013561281781612404565b925060408501359150606085013567ffffffffffffffff81111561283a57600080fd5b8501601f8101871361284b57600080fd5b803561285e612859826127be565b61278d565b81815288602083850101111561287357600080fd5b8160208401602083013760006020838301015280935050505092959194509250565b600080604083850312156128a857600080fd5b82356128b381612404565b9150602083013561273981612404565b600181811c908216806128d757607f821691505b60208210811415611e2557634e487b7160e01b600052602260045260246000fd5b60208082526031908201527f4552433732313a207472616e736665722063616c6c6572206973206e6f74206f6040820152701ddb995c881b9bdc88185c1c1c9bdd9959607a1b606082015260800190565b634e487b7160e01b600052601160045260246000fd5b600060001982141561297357612973612949565b5060010190565b634e487b7160e01b600052603260045260246000fd5b6000602082840312156129a257600080fd5b6110fc826126c7565b6000602082840312156129bd57600080fd5b815167ffffffffffffffff8111156129d457600080fd5b8201601f810184136129e557600080fd5b80516129f3612859826127be565b818152856020838501011115612a0857600080fd5b612a19826020830160208601612380565b95945050505050565b634e487b7160e01b600052602160045260246000fd5b8381526040602080830182905282820184905260009190606090818501600587811b8701840189875b8a811015612b5457898303605f190185528135368d9003603e19018112612a8757600080fd5b8c018389018135612a9781612404565b6001600160a01b031685528188013536839003601e19018112612ab957600080fd5b8201803567ffffffffffffffff811115612ad257600080fd5b80881b3603841315612ae357600080fd5b868a018c90529182905289860192508801906000905b80821015612b3f57612b0a836126c7565b6004808210612b2857634e487b7160e01b6000526021815260246000fd5b508452928901929189019160019190910190612af9565b50505094860194925090850190600101612a61565b50909b9a5050505050505050505050565b600082821015612b7757612b77612949565b500390565b60008219821115612b8f57612b8f612949565b500190565b60008235603e19833603018112612baa57600080fd5b9190910192915050565b6000808335601e19843603018112612bcb57600080fd5b83018035915067ffffffffffffffff821115612be657600080fd5b6020019150600581901b360382131561248a57600080fd5b60008351612c10818460208801612380565b9190910191825250602001919050565b60208082526032908201527f4552433732313a207472616e7366657220746f206e6f6e20455243373231526560408201527131b2b4bb32b91034b6b83632b6b2b73a32b960711b606082015260800190565b6001600160a01b0385811682528416602082015260408101839052608060608201819052600090612ca5908301846123ac565b9695505050505050565b600060208284031215612cc157600080fd5b81516110fc8161234d565b6000816000190483118215151615612ce657612ce6612949565b50029056fea2646970667358221220d5547fe997be768e270f0205600d063e715744a4b0ae228a92c8157ac5f7c26364736f6c634300080a0033",
  "devdoc": {
    "kind": "dev",
    "methods": {
      "DOMAIN_SEPARATOR()": {
        "returns": {
          "_0": "The domain seperator used in encoding of permit signature"
        }
      },
      "approve(address,uint256)": {
        "details": "See {IERC721-approve}."
      },
      "balanceOf(address)": {
        "details": "See {IERC721-balanceOf}."
      },
      "burn(uint256)": {
        "details": "Will revert with OnlyHubCanExecute if the caller is not the hub",
        "params": {
          "_id": "The token's id"
        }
      },
      "getApproved(uint256)": {
        "details": "See {IERC721-getApproved}."
      },
      "hasPermission(uint256,address,uint8)": {
        "params": {
          "_address": "The address of the user to check",
          "_id": "The id of the token to check",
          "_permission": "The permission to check"
        },
        "returns": {
          "_0": "Whether the user has the permission or not"
        }
      },
      "hasPermissions(uint256,address,uint8[])": {
        "params": {
          "_address": "The address of the user to check",
          "_id": "The id of the token to check",
          "_permissions": "The permissions to check"
        },
        "returns": {
          "_hasPermissions": "Whether the user has each permission or not"
        }
      },
      "isApprovedForAll(address,address)": {
        "details": "See {IERC721-isApprovedForAll}."
      },
      "mint(uint256,address,(address,uint8[])[])": {
        "details": "Will revert with OnlyHubCanExecute if the caller is not the hub",
        "params": {
          "_id": "The id of the new NFT",
          "_owner": "The owner of the new NFT",
          "_permissions": "Permissions to set for the new NFT"
        }
      },
      "modify(uint256,(address,uint8[])[])": {
        "details": "Will revert with NotOwner if the caller is not the token's owner. Operators that are not part of the given permission sets do not see their permissions modified. In order to remove permissions to an operator, provide an empty list of permissions for them",
        "params": {
          "_id": "The token's id",
          "_permissions": "A list of permission sets"
        }
      },
      "name()": {
        "details": "See {IERC721Metadata-name}."
      },
      "ownerOf(uint256)": {
        "details": "See {IERC721-ownerOf}."
      },
      "permissionPermit((address,uint8[])[],uint256,uint256,uint8,bytes32,bytes32)": {
        "details": "This method works similarly to `modify`, but instead of being executed by the owner, it can be set my signature",
        "params": {
          "_deadline": "The deadline timestamp by which the call must be mined for the approve to work",
          "_permissions": "The permissions to set",
          "_r": "Must produce valid secp256k1 signature from the holder along with `v` and `s`",
          "_s": "Must produce valid secp256k1 signature from the holder along with `r` and `v`",
          "_tokenId": "The token's id",
          "_v": "Must produce valid secp256k1 signature from the holder along with `r` and `s`"
        }
      },
      "permit(address,uint256,uint256,uint8,bytes32,bytes32)": {
        "params": {
          "_deadline": "The deadline timestamp by which the call must be mined for the approve to work",
          "_r": "Must produce valid secp256k1 signature from the holder along with `v` and `s`",
          "_s": "Must produce valid secp256k1 signature from the holder along with `r` and `v`",
          "_spender": "The account that is being approved",
          "_tokenId": "The ID of the token that is being approved for spending",
          "_v": "Must produce valid secp256k1 signature from the holder along with `r` and `s`"
        }
      },
      "safeTransferFrom(address,address,uint256)": {
        "details": "See {IERC721-safeTransferFrom}."
      },
      "safeTransferFrom(address,address,uint256,bytes)": {
        "details": "See {IERC721-safeTransferFrom}."
      },
      "setApprovalForAll(address,bool)": {
        "details": "See {IERC721-setApprovalForAll}."
      },
      "setHub(address)": {
        "details": "Can only be successfully executed once. Once it's set, it can be modified again Will revert: With ZeroAddress if address is zero With HubAlreadySet if the hub has already been set",
        "params": {
          "_hub": "The address to set for the hub"
        }
      },
      "setNFTDescriptor(address)": {
        "details": "Will revert with ZeroAddress if address is zero",
        "params": {
          "_descriptor": "The new NFT descriptor contract"
        }
      },
      "supportsInterface(bytes4)": {
        "details": "See {IERC165-supportsInterface}."
      },
      "symbol()": {
        "details": "See {IERC721Metadata-symbol}."
      },
      "tokenURI(uint256)": {
        "details": "See {IERC721Metadata-tokenURI}."
      },
      "transferFrom(address,address,uint256)": {
        "details": "See {IERC721-transferFrom}."
      }
    },
    "stateVariables": {
      "PERMISSION_PERMIT_TYPEHASH": {
        "return": "The typehash for the permission permit",
        "returns": {
          "_0": "The typehash for the permission permit"
        }
      },
      "PERMISSION_SET_TYPEHASH": {
        "return": "The typehash for the permission set",
        "returns": {
          "_0": "The typehash for the permission set"
        }
      },
      "PERMIT_TYPEHASH": {
        "return": "The typehash for the permit",
        "returns": {
          "_0": "The typehash for the permit"
        }
      },
      "hub": {
        "return": "The address of the DCA Hub",
        "returns": {
          "_0": "The address of the DCA Hub"
        }
      },
      "nftDescriptor": {
        "return": "The contract for the NFT descriptor",
        "returns": {
          "_0": "The contract for the NFT descriptor"
        }
      },
      "nonces": {
        "params": {
          "_user": "The address of the user"
        },
        "return": "_nonce The next nonce to use",
        "returns": {
          "_0": "_nonce The next nonce to use"
        }
      }
    },
    "version": 1
  },
  "userdoc": {
    "errors": {
      "ExpiredDeadline()": [
        {
          "notice": "Thrown when a user tries to execute a permit with an expired deadline"
        }
      ],
      "HubAlreadySet()": [
        {
          "notice": "Thrown when a user tries to set the hub, once it was already set"
        }
      ],
      "InvalidSignature()": [
        {
          "notice": "Thrown when a user tries to execute a permit with an invalid signature"
        }
      ],
      "NotOwner()": [
        {
          "notice": "Thrown when a user tries to modify permissions for a token they do not own"
        }
      ],
      "OnlyHubCanExecute()": [
        {
          "notice": "Thrown when a user calls a method that can only be executed by the hub"
        }
      ],
      "ZeroAddress()": [
        {
          "notice": "Thrown when a user provides a zero address when they shouldn't"
        }
      ]
    },
    "events": {
      "Modified(uint256,(address,uint8[])[])": {
        "notice": "Emitted when permissions for a token are modified"
      },
      "NFTDescriptorSet(address)": {
        "notice": "Emitted when the address for a new descritor is set"
      }
    },
    "kind": "user",
    "methods": {
      "DOMAIN_SEPARATOR()": {
        "notice": "The domain separator used in the permit signature"
      },
      "PERMISSION_PERMIT_TYPEHASH()": {
        "notice": "The permit typehash used in the permission permit signature"
      },
      "PERMISSION_SET_TYPEHASH()": {
        "notice": "The permit typehash used in the permission permit signature"
      },
      "PERMIT_TYPEHASH()": {
        "notice": "The permit typehash used in the permit signature"
      },
      "burn(uint256)": {
        "notice": "Burns the NFT with the given id, and clears all permissions"
      },
      "hasPermission(uint256,address,uint8)": {
        "notice": "Returns whether the given address has the permission for the given token"
      },
      "hasPermissions(uint256,address,uint8[])": {
        "notice": "Returns whether the given address has the permissions for the given token"
      },
      "hub()": {
        "notice": "Returns the address of the DCA Hub"
      },
      "mint(uint256,address,(address,uint8[])[])": {
        "notice": "Mints a new NFT with the given id, and sets the permissions for it"
      },
      "modify(uint256,(address,uint8[])[])": {
        "notice": "Sets new permissions for the given tokens"
      },
      "nftDescriptor()": {
        "notice": "Returns the NFT descriptor contract"
      },
      "nonces(address)": {
        "notice": "Returns the next nonce to use for a given user"
      },
      "permissionPermit((address,uint8[])[],uint256,uint256,uint8,bytes32,bytes32)": {
        "notice": "Sets permissions via signature"
      },
      "permit(address,uint256,uint256,uint8,bytes32,bytes32)": {
        "notice": "Approves spending of a specific token ID by spender via signature"
      },
      "setHub(address)": {
        "notice": "Sets the address for the hub"
      },
      "setNFTDescriptor(address)": {
        "notice": "Sets a new NFT descriptor"
      }
    },
    "version": 1
  },
  "storageLayout": {
    "storage": [
      {
        "astId": 1941,
        "contract": "contracts/DCAPermissionsManager/DCAPermissionsManager.sol:DCAPermissionsManager",
        "label": "_name",
        "offset": 0,
        "slot": "0",
        "type": "t_string_storage"
      },
      {
        "astId": 1943,
        "contract": "contracts/DCAPermissionsManager/DCAPermissionsManager.sol:DCAPermissionsManager",
        "label": "_symbol",
        "offset": 0,
        "slot": "1",
        "type": "t_string_storage"
      },
      {
        "astId": 1947,
        "contract": "contracts/DCAPermissionsManager/DCAPermissionsManager.sol:DCAPermissionsManager",
        "label": "_owners",
        "offset": 0,
        "slot": "2",
        "type": "t_mapping(t_uint256,t_address)"
      },
      {
        "astId": 1951,
        "contract": "contracts/DCAPermissionsManager/DCAPermissionsManager.sol:DCAPermissionsManager",
        "label": "_balances",
        "offset": 0,
        "slot": "3",
        "type": "t_mapping(t_address,t_uint256)"
      },
      {
        "astId": 1955,
        "contract": "contracts/DCAPermissionsManager/DCAPermissionsManager.sol:DCAPermissionsManager",
        "label": "_tokenApprovals",
        "offset": 0,
        "slot": "4",
        "type": "t_mapping(t_uint256,t_address)"
      },
      {
        "astId": 1961,
        "contract": "contracts/DCAPermissionsManager/DCAPermissionsManager.sol:DCAPermissionsManager",
        "label": "_operatorApprovals",
        "offset": 0,
        "slot": "5",
        "type": "t_mapping(t_address,t_mapping(t_address,t_bool))"
      },
      {
        "astId": 16135,
        "contract": "contracts/DCAPermissionsManager/DCAPermissionsManager.sol:DCAPermissionsManager",
        "label": "_governor",
        "offset": 0,
        "slot": "6",
        "type": "t_address"
      },
      {
        "astId": 16137,
        "contract": "contracts/DCAPermissionsManager/DCAPermissionsManager.sol:DCAPermissionsManager",
        "label": "_pendingGovernor",
        "offset": 0,
        "slot": "7",
        "type": "t_address"
      },
      {
        "astId": 8747,
        "contract": "contracts/DCAPermissionsManager/DCAPermissionsManager.sol:DCAPermissionsManager",
        "label": "nftDescriptor",
        "offset": 0,
        "slot": "8",
        "type": "t_contract(IDCATokenDescriptor)10548"
      },
      {
        "astId": 8750,
        "contract": "contracts/DCAPermissionsManager/DCAPermissionsManager.sol:DCAPermissionsManager",
        "label": "hub",
        "offset": 0,
        "slot": "9",
        "type": "t_address"
      },
      {
        "astId": 8755,
        "contract": "contracts/DCAPermissionsManager/DCAPermissionsManager.sol:DCAPermissionsManager",
        "label": "nonces",
        "offset": 0,
        "slot": "10",
        "type": "t_mapping(t_address,t_uint256)"
      },
      {
        "astId": 8759,
        "contract": "contracts/DCAPermissionsManager/DCAPermissionsManager.sol:DCAPermissionsManager",
        "label": "lastOwnershipChange",
        "offset": 0,
        "slot": "11",
        "type": "t_mapping(t_uint256,t_uint256)"
      },
      {
        "astId": 8766,
        "contract": "contracts/DCAPermissionsManager/DCAPermissionsManager.sol:DCAPermissionsManager",
        "label": "tokenPermissions",
        "offset": 0,
        "slot": "12",
        "type": "t_mapping(t_uint256,t_mapping(t_address,t_struct(TokenPermission)8717_storage))"
      }
    ],
    "types": {
      "t_address": {
        "encoding": "inplace",
        "label": "address",
        "numberOfBytes": "20"
      },
      "t_bool": {
        "encoding": "inplace",
        "label": "bool",
        "numberOfBytes": "1"
      },
      "t_contract(IDCATokenDescriptor)10548": {
        "encoding": "inplace",
        "label": "contract IDCATokenDescriptor",
        "numberOfBytes": "20"
      },
      "t_mapping(t_address,t_bool)": {
        "encoding": "mapping",
        "key": "t_address",
        "label": "mapping(address => bool)",
        "numberOfBytes": "32",
        "value": "t_bool"
      },
      "t_mapping(t_address,t_mapping(t_address,t_bool))": {
        "encoding": "mapping",
        "key": "t_address",
        "label": "mapping(address => mapping(address => bool))",
        "numberOfBytes": "32",
        "value": "t_mapping(t_address,t_bool)"
      },
      "t_mapping(t_address,t_struct(TokenPermission)8717_storage)": {
        "encoding": "mapping",
        "key": "t_address",
        "label": "mapping(address => struct DCAPermissionsManager.TokenPermission)",
        "numberOfBytes": "32",
        "value": "t_struct(TokenPermission)8717_storage"
      },
      "t_mapping(t_address,t_uint256)": {
        "encoding": "mapping",
        "key": "t_address",
        "label": "mapping(address => uint256)",
        "numberOfBytes": "32",
        "value": "t_uint256"
      },
      "t_mapping(t_uint256,t_address)": {
        "encoding": "mapping",
        "key": "t_uint256",
        "label": "mapping(uint256 => address)",
        "numberOfBytes": "32",
        "value": "t_address"
      },
      "t_mapping(t_uint256,t_mapping(t_address,t_struct(TokenPermission)8717_storage))": {
        "encoding": "mapping",
        "key": "t_uint256",
        "label": "mapping(uint256 => mapping(address => struct DCAPermissionsManager.TokenPermission))",
        "numberOfBytes": "32",
        "value": "t_mapping(t_address,t_struct(TokenPermission)8717_storage)"
      },
      "t_mapping(t_uint256,t_uint256)": {
        "encoding": "mapping",
        "key": "t_uint256",
        "label": "mapping(uint256 => uint256)",
        "numberOfBytes": "32",
        "value": "t_uint256"
      },
      "t_string_storage": {
        "encoding": "bytes",
        "label": "string",
        "numberOfBytes": "32"
      },
      "t_struct(TokenPermission)8717_storage": {
        "encoding": "inplace",
        "label": "struct DCAPermissionsManager.TokenPermission",
        "members": [
          {
            "astId": 8714,
            "contract": "contracts/DCAPermissionsManager/DCAPermissionsManager.sol:DCAPermissionsManager",
            "label": "permissions",
            "offset": 0,
            "slot": "0",
            "type": "t_uint8"
          },
          {
            "astId": 8716,
            "contract": "contracts/DCAPermissionsManager/DCAPermissionsManager.sol:DCAPermissionsManager",
            "label": "lastUpdated",
            "offset": 1,
            "slot": "0",
            "type": "t_uint248"
          }
        ],
        "numberOfBytes": "32"
      },
      "t_uint248": {
        "encoding": "inplace",
        "label": "uint248",
        "numberOfBytes": "31"
      },
      "t_uint256": {
        "encoding": "inplace",
        "label": "uint256",
        "numberOfBytes": "32"
      },
      "t_uint8": {
        "encoding": "inplace",
        "label": "uint8",
        "numberOfBytes": "1"
      }
    }
  }
}