{
  "address": "0x4f8cc084436Eb5de497DD812871b316ca04ADC57",
  "abi": [
    {
      "inputs": [],
      "name": "InvalidInterval",
      "type": "error"
    },
    {
      "inputs": [
        {
          "internalType": "uint32",
          "name": "_swapInterval",
          "type": "uint32"
        }
      ],
      "name": "intervalToDescription",
      "outputs": [
        {
          "internalType": "string",
          "name": "",
          "type": "string"
        }
      ],
      "stateMutability": "pure",
      "type": "function"
    },
    {
      "inputs": [
        {
          "internalType": "address",
          "name": "_hub",
          "type": "address"
        },
        {
          "internalType": "uint256",
          "name": "_tokenId",
          "type": "uint256"
        }
      ],
      "name": "tokenURI",
      "outputs": [
        {
          "internalType": "string",
          "name": "",
          "type": "string"
        }
      ],
      "stateMutability": "view",
      "type": "function"
    }
  ],
  "transactionHash": "0x34a2b166d04fa48925c5bcfa081c2ce016b3efff6e7d5a7f7dfa2cfa7d7f329f",
  "args": [],
  "solcInputHash": "c05c06b1a5e910552d4718935471de1d",
  "bytecode": "0x608060405234801561001057600080fd5b50615ee5806100206000396000f3fe608060405234801561001057600080fd5b50600436106100365760003560e01c8063b3a496eb1461003b578063e9dc637514610064575b600080fd5b61004e6100493660046115b4565b610077565b60405161005b9190611608565b60405180910390f35b61004e610072366004611650565b61024c565b60608163ffffffff16603c14156100b057505060408051808201909152600c81526b4576657279206d696e75746560a01b602082015290565b8163ffffffff1661012c14156100eb57505060408051808201909152600f81526e45766572792035206d696e7574657360881b602082015290565b8163ffffffff16610384141561012757505060408051808201909152601081526f4576657279203135206d696e7574657360801b602082015290565b8163ffffffff16610708141561016357505060408051808201909152601081526f4576657279203330206d696e7574657360801b602082015290565b8163ffffffff16610e101415610195575050604080518082019091526006815265486f75726c7960d01b602082015290565b8163ffffffff1661384014156101ce57505060408051808201909152600d81526c4576657279203420686f75727360981b602082015290565b8163ffffffff166201518014156102005750506040805180820190915260058152644461696c7960d81b602082015290565b8163ffffffff1662093a8014156102335750506040805180820190915260068152655765656b6c7960d01b602082015290565b6040516305fabb6160e41b815260040160405180910390fd5b604051635b6fd01d60e01b8152600481018290526060906000906001600160a01b03851690635b6fd01d9060240161010060405180830381865afa158015610298573d6000803e3d6000fd5b505050506040513d601f19601f820116820180604052508101906102bc91906116bf565b9050610518604051806101a0016040528085815260200183600001516001600160a01b0316815260200183602001516001600160a01b0316815260200183600001516001600160a01b031663313ce5676040518163ffffffff1660e01b8152600401602060405180830381865afa15801561033b573d6000803e3d6000fd5b505050506040513d601f19601f8201168201806040525081019061035f919061177b565b60ff16815260200183602001516001600160a01b031663313ce5676040518163ffffffff1660e01b8152600401602060405180830381865afa1580156103a9573d6000803e3d6000fd5b505050506040513d601f19601f820116820180604052508101906103cd919061177b565b60ff16815260200183600001516001600160a01b03166395d89b416040518163ffffffff1660e01b8152600401600060405180830381865afa158015610417573d6000803e3d6000fd5b505050506040513d6000823e601f3d908101601f1916820160405261043f919081019061179e565b815260200183602001516001600160a01b03166395d89b416040518163ffffffff1660e01b8152600401600060405180830381865afa158015610486573d6000803e3d6000fd5b505050506040513d6000823e601f3d908101601f191682016040526104ae919081019061179e565b81526020016104c08460400151610077565b8152602001836060015163ffffffff1681526020018360a0015163ffffffff168152602001836080015181526020018360c0015181526020018360e001516001600160781b03166001600160a01b0316815250610522565b9150505b92915050565b6060600061052f836105d2565b905060006105668460a001518560c0015161054d876020015161060b565b61055a886040015161060b565b60e08901518951610774565b9050600061057b61057686610802565b6109b9565b90506105a983838360405160200161059593929190611867565b6040516020818303038152906040526109b9565b6040516020016105b99190611928565b6040516020818303038152906040529350505050919050565b60608160e001518260a001518360c001516040516020016105f59392919061196d565b6040516020818303038152906040529050919050565b60408051602880825260608281019093526000919060208201818036833701905050905060005b601481101561074b576000610648826013611a07565b610653906008611a1e565b61065e906002611b21565b610671906001600160a01b038716611b43565b60f81b9050600060108260f81c6106889190611b57565b60f81b905060008160f81c601061069f9190611b79565b8360f81c6106ad9190611b9a565b60f81b90506106bb82610b21565b856106c7866002611a1e565b815181106106d7576106d7611bbd565b60200101906001600160f81b031916908160001a9053506106f781610b21565b85610703866002611a1e565b61070e906001611bd3565b8151811061071e5761071e611bbd565b60200101906001600160f81b031916908160001a905350505050808061074390611beb565b915050610632565b508060405160200161075d9190611c06565b604051602081830303815290604052915050919050565b6060600087878960405160200161078d93929190611c30565b60405160208183030381529060405290506000868887876107ad88610b5c565b6040516020016107c1959493929190611d34565b604051602081830303815290604052905081816040516020016107e5929190611ed6565b604051602081830303815290604052925050509695505050505050565b606060008260a00151905060008360c0015190506000604051806101800160405280610831876020015161060b565b8152602001610843876040015161060b565b81526020018481526020018381526020018660e00151815260200186610100015163ffffffff16815260200186610120015163ffffffff1681526020018660000151815260200161089d8761014001518860800151610c62565b846040516020016108af929190611f05565b6040516020818303038152906040528152602001610906600088610100015163ffffffff16116108e05760006108fc565b87610100015163ffffffff168861014001516108fc9190611b43565b8860800151610c62565b84604051602001610918929190611f05565b604051602081830303815290604052815260200161093f8761016001518860600151610c62565b85604051602001610951929190611f05565b60405160208183030381529060405281526020016109818761018001516001600160a01b03168860600151610c62565b85604051602001610993929190611f05565b60405160208183030381529060405281525090506109b081610e5d565b95945050505050565b60608151600014156109d957505060408051602081019091526000815290565b6000604051806060016040528060408152602001613bff6040913990506000600384516002610a089190611bd3565b610a129190611b43565b610a1d906004611a1e565b90506000610a2c826020611bd3565b67ffffffffffffffff811115610a4457610a4461167c565b6040519080825280601f01601f191660200182016040528015610a6e576020820181803683370190505b509050818152600183018586518101602084015b81831015610adc5760039283018051603f601282901c811687015160f890811b8552600c83901c8216880151811b6001860152600683901c8216880151811b60028601529116860151901b93820193909352600401610a82565b600389510660018114610af65760028114610b0757610b13565b613d3d60f01b600119830152610b13565b603d60f81b6000198301525b509398975050505050505050565b6000600a60f883901c1015610b4857610b3f60f883901c6030611f41565b60f81b92915050565b610b3f60f883901c6057611f41565b919050565b606081610b805750506040805180820190915260018152600360fc1b602082015290565b8160005b8115610baa5780610b9481611beb565b9150610ba39050600a83611b43565b9150610b84565b60008167ffffffffffffffff811115610bc557610bc561167c565b6040519080825280601f01601f191660200182016040528015610bef576020820181803683370190505b5090505b8415610c5a57610c04600183611a07565b9150610c11600a86611f66565b610c1c906030611bd3565b60f81b818381518110610c3157610c31611bbd565b60200101906001600160f81b031916908160001a905350610c53600a86611b43565b9450610bf3565b949350505050565b606082610c8c57506040805180820190915260068152650302e303030360d41b602082015261051c565b6000610c9983600a611f7a565b841090508360005b8115610cc75780610cb181611f89565b9150610cc09050600a83611b43565b9150610ca1565b610cd2600182611b9a565b9050600080610ce18884610f5b565b915091508015610cf95782610cf581611f89565b9350505b6040805160e081018252600080825260208201819052918101829052606081018290526080810182905260a0810182905260c08101919091528515610db35760058460ff161015610d5457610d4f886002611f41565b610d69565b610d5e8489611b9a565b610d69906006611f41565b60ff16602082015260026080820152610d828489611b9a565b610d8d906001611f41565b60ff1660a08201526020810151610da690600190611b9a565b60ff166040820152610e3c565b610dbe886004611f41565b60ff168460ff1610610e1057610dd48885611b9a565b610ddf906001611f41565b60ff166020820181905260056080830152610dfc90600190611b9a565b60ff1660a082015260046040820152610e3c565b6006602082015260056040820152610e288885611b9a565b610e33906001611f41565b60ff1660608201525b82815285151560c0820152610e5081610fe8565b9998505050505050505050565b60606000808360c001518460a00151610e769190611fa9565b63ffffffff1611610e88576064610eb6565b8260c001518360a00151610e9c9190611fa9565b60a0840151610eac906064611fc8565b610eb69190611ff4565b9050610ec18161120f565b610ec9611254565b610ed1611277565b610ee886604001518760600151886080015161129a565b610f0d8760e001518861010001518961012001518a61014001518b61016001516112c9565b610f29886000015189602001518a604001518b60600151611306565b610f328761140d565b610f448a60a001518b60c0015161149c565b60405160200161075d989796959493929190612017565b600080600060058460ff161115610f8f57610f77600585611b9a565b610f8290600a611f7a565b610f8c9086611b43565b94505b60006004610f9e600a88611f66565b119050610fac600a87611b43565b95508015610fc257610fbf866001611bd3565b95505b85620186a01415610fdf57610fd8600a87611b43565b9550600191505b50939492505050565b60606000826020015160ff1667ffffffffffffffff81111561100c5761100c61167c565b6040519080825280601f01601f191660200182016040528015611036576020820181803683370190505b5090508260c00151156110a257600360fc1b8160008151811061105b5761105b611bbd565b60200101906001600160f81b031916908160001a905350601760f91b8160018151811061108a5761108a611bbd565b60200101906001600160f81b031916908160001a9053505b608083015160ff165b60a08401516110bb906001611f41565b60ff1681101561110557603060f81b8282815181106110dc576110dc611bbd565b60200101906001600160f81b031916908160001a905350806110fd81611beb565b9150506110ab565b505b82511561051c576000836060015160ff161180156111325750826060015160ff16836040015160ff16145b1561118357601760f91b8184604001805180919061114f90612169565b60ff1660ff1681525060ff168151811061116b5761116b611bbd565b60200101906001600160f81b031916908160001a9053505b825160009061119490600a90611f66565b61119f906030611bd3565b90508060f81b82856040015160ff16815181106111be576111be611bbd565b60200101906001600160f81b031916908160001a905350600a846000018181516111e89190611b43565b905250835115611209576040840180519061120282612169565b60ff169052505b50611107565b6060611244612710611222846064612186565b61122f906201254c611fc8565b6112399190611ff4565b63ffffffff16610b5c565b6040516020016105f591906121ab565b606060405180610640016040528061061e81526020016135e161061e9139905090565b6060604051806122a001604052806122718152602001613c3f6122719139905090565b60608383836040516020016112b19392919061258a565b60405160208183030381529060405290509392505050565b60606112d486610b5c565b858585856040516020016112ec9594939291906126fc565b604051602081830303815290604052905095945050505050565b60606000858460405160200161131d9291906129ca565b6040516020818303038152906040529050600085846040516020016113439291906129ca565b60408051601f19818403018152828201909152600482526302d3130360e41b60208301529150611373908361158a565b611396604051806040016040528060018152602001600360fc1b8152508461158a565b6113ba60405180604001604052806002815260200161035360f41b8152508461158a565b6113df6040518060400160405280600381526020016202d35360ec1b8152508561158a565b6040516020016113f29493929190612a08565b60405160208183030381529060405292505050949350505050565b60608163ffffffff1660641461143d5760405180604001604052806002815260200161181760f11b815250611458565b604051806040016040528060018152602001603160f81b8152505b8263ffffffff1660641461147a576114758363ffffffff16610b5c565b61148b565b604051806020016040528060008152505b6040516020016105f5929190612a5f565b60606114ad8363ffffffff16610b5c565b8363ffffffff16600114156114df5760405180604001604052806005815260200164020737761760dc1b8152506114ff565b6040518060400160405280600681526020016520737761707360d01b8152505b61150e8463ffffffff16610b5c565b8463ffffffff16600114156115405760405180604001604052806005815260200164020737761760dc1b815250611560565b6040518060400160405280600681526020016520737761707360d01b8152505b6040516020016115739493929190613226565b604051602081830303815290604052905092915050565b60608282604051602001611573929190613480565b63ffffffff811681146115b157600080fd5b50565b6000602082840312156115c657600080fd5b81356115d18161159f565b9392505050565b60005b838110156115f35781810151838201526020016115db565b83811115611602576000848401525b50505050565b60208152600082518060208401526116278160408501602087016115d8565b601f01601f19169190910160400192915050565b6001600160a01b03811681146115b157600080fd5b6000806040838503121561166357600080fd5b823561166e8161163b565b946020939093013593505050565b634e487b7160e01b600052604160045260246000fd5b8051610b578161163b565b8051610b578161159f565b80516001600160781b0381168114610b5757600080fd5b60006101008083850312156116d357600080fd5b6040519081019067ffffffffffffffff821181831017156116f6576116f661167c565b81604052835191506117078261163b565b81815261171660208501611692565b60208201526117276040850161169d565b60408201526117386060850161169d565b60608201526080840151608082015261175360a0850161169d565b60a082015260c084015160c082015261176e60e085016116a8565b60e0820152949350505050565b60006020828403121561178d57600080fd5b815160ff811681146115d157600080fd5b6000602082840312156117b057600080fd5b815167ffffffffffffffff808211156117c857600080fd5b818401915084601f8301126117dc57600080fd5b8151818111156117ee576117ee61167c565b604051601f8201601f19908116603f011681019083821181831017156118165761181661167c565b8160405282815287602084870101111561182f57600080fd5b6118408360208301602088016115d8565b979650505050505050565b6000815161185d8185602086016115d8565b9290920192915050565b683d913730b6b2911d1160b91b8152835160009061188c8160098501602089016115d8565b71111610113232b9b1b934b83a34b7b7111d1160711b60099184019182015284516118be81601b8401602089016115d8565b7f222c2022696d616765223a2022646174613a696d6167652f7376672b786d6c3b601b92909101918201526618985cd94d8d0b60ca1b603b820152835161190c8160428401602088016115d8565b61227d60f01b6042929091019182015260440195945050505050565b7f646174613a6170706c69636174696f6e2f6a736f6e3b6261736536342c00000081526000825161196081601d8501602087016115d8565b91909101601d0192915050565b72026b2b0b7102334b730b731b2902221a090169606d1b81526000845161199b8160138501602089016115d8565b6201016960ed1b60139184019182015284516119be8160168401602089016115d8565b64010714f4a160dd1b6016929091019182015283516119e481601b8401602088016115d8565b01601b0195945050505050565b634e487b7160e01b600052601160045260246000fd5b600082821015611a1957611a196119f1565b500390565b6000816000190483118215151615611a3857611a386119f1565b500290565b600181815b80851115611a78578160001904821115611a5e57611a5e6119f1565b80851615611a6b57918102915b93841c9390800290611a42565b509250929050565b600082611a8f5750600161051c565b81611a9c5750600061051c565b8160018114611ab25760028114611abc57611ad8565b600191505061051c565b60ff841115611acd57611acd6119f1565b50506001821b61051c565b5060208310610133831016604e8410600b8410161715611afb575081810a61051c565b611b058383611a3d565b8060001904821115611b1957611b196119f1565b029392505050565b60006115d18383611a80565b634e487b7160e01b600052601260045260246000fd5b600082611b5257611b52611b2d565b500490565b600060ff831680611b6a57611b6a611b2d565b8060ff84160491505092915050565b600060ff821660ff84168160ff0481118215151615611b1957611b196119f1565b600060ff821660ff841680821015611bb457611bb46119f1565b90039392505050565b634e487b7160e01b600052603260045260246000fd5b60008219821115611be657611be66119f1565b500190565b6000600019821415611bff57611bff6119f1565b5060010190565b61060f60f31b815260008251611c238160028501602087016115d8565b9190910160020192915050565b7f54686973204e465420726570726573656e747320612044434120706f7369746981527f6f6e20696e204d65616e2046696e616e63652c20776865726520000000000000602082015260008451611c8e81603a8501602089016115d8565b740103bb4b6361031329039bbb0b83832b2103337b91605d1b603a918401918201528451611cc381604f8401602089016115d8565b7f2e20546865206f776e6572206f662074686973204e46542063616e206d6f6469604f92909101918201527f6679206f722072656465656d2074686520706f736974696f6e2e5c6e5c6e0000606f8201528351611d2781608d8401602088016115d8565b01608d0195945050505050565b60006901020b2323932b9b99d160b51b8083528751611d5a81600a860160208c016115d8565b612e3760f11b600a918501918201528751611d7c81600c840160208c016115d8565b01600c810191909152855190611d99826016830160208a016115d8565b8181019150507002e3729bbb0b81034b73a32b93b30b61d1607d1b60168201528451611dcc8160278401602089016115d8565b6b02e372a37b5b2b71024a21d160a51b602792909101918201528351611df98160338401602088016115d8565b610e50611e15603383850101632e372e3760e11b815260040190565b7fe29aa0efb88f20444953434c41494d45523a204475652064696c6967656e636581527f20697320696d7065726174697665207768656e20617373657373696e6720746860208201527f6973204e46542e204d616b65207375726520746f6b656e20616464726573736560408201527f73206d617463682074686520657870656374656420746f6b656e732c2061732060608201527f746f6b656e2073796d626f6c73206d617920626520696d6974617465642e00006080820152609e0190565b60008351611ee88184602088016115d8565b835190830190611efc8183602088016115d8565b01949350505050565b60008351611f178184602088016115d8565b600160fd1b9083019081528351611f358160018401602088016115d8565b01600101949350505050565b600060ff821660ff84168060ff03821115611f5e57611f5e6119f1565b019392505050565b600082611f7557611f75611b2d565b500690565b60006115d160ff841683611a80565b600060ff821660ff811415611fa057611fa06119f1565b60010192915050565b600063ffffffff808316818516808303821115611efc57611efc6119f1565b600063ffffffff80831681851681830481118215151615611feb57611feb6119f1565b02949350505050565b600063ffffffff8084168061200b5761200b611b2d565b92169190910492915050565b7f3c7376672076657273696f6e3d22312e312220786d6c6e733d22687474703a2f81527f2f7777772e77332e6f72672f323030302f7376672220786d6c6e733a786c696e60208201527f6b3d22687474703a2f2f7777772e77332e6f72672f313939392f786c696e6b2260408201527f2076696577426f783d22302030203538302e373120313131382e373122203e0060608201526000607f8a516120c28183860160208f016115d8565b8a51908401906120d88184840160208f016115d8565b8a519101906120ed8184840160208e016115d8565b89519101906121028184840160208d016115d8565b88519101906121178184840160208c016115d8565b875191019061212c8184840160208b016115d8565b61215861214661214085848601018a61184b565b8861184b565b651e17b9bb339f60d11b815260060190565b9d9c50505050505050505050505050565b600060ff82168061217c5761217c6119f1565b6000190192915050565b600063ffffffff838116908316818110156121a3576121a36119f1565b039392505050565b7f3c7374796c6520747970653d22746578742f637373223e2e7374307b66696c6c81527f3a75726c282353564749445f31297d2e7374317b66696c6c3a6e6f6e653b737460208201527f726f6b653a236666663b7374726f6b652d6d697465726c696d69743a31307d2e60408201527f7374327b6f7061636974793a2e357d2e7374337b66696c6c3a6e6f6e653b737460608201527f726f6b653a236235626162613b7374726f6b652d6d697465726c696d69743a3160808201527f307d2e737433367b66696c6c3a236666667d2e737433377b66696c6c3a23343860a08201527f613764657d2e737433387b666f6e742d66616d696c793a2256657264616e612260c08201527f7d2e737433397b666f6e742d73697a653a363070787d2e737434307b6c65747460e08201527f65722d73706163696e673a2d347d2e737434347b666f6e742d73697a653a32356101008201527f70787d2e737434367b66696c6c3a236336633663367d2e737434377b666f6e746101208201527f2d73697a653a313870787d2e737434387b666f6e742d73697a653a31392e37326101408201527f363670787d2e737434397b666f6e742d66616d696c793a2256657264616e61226101608201527f3b666f6e742d7765696768743a626f6c647d2e737435307b666f6e742d73697a6101808201527f653a333870787d2e737435327b7374726f6b653a233834383438343b6d69782d6101a08201527f626c656e642d6d6f64653a6d756c7469706c797d2e737435357b6f70616369746101c08201527f793a2e323b66696c6c3a236666667d2e737435377b66696c6c3a2334386137646101e08201527f653b7374726f6b653a236666663b7374726f6b652d77696474683a322e3833346102008201527f373b7374726f6b652d6d697465726c696d69743a31307d2e737435387b666f6e6102208201527f742d73697a653a313870787d2e636c732d37397b7374726f6b653a23643164626102408201527f65303b7472616e73666f726d3a726f74617465282d3930646567293b7472616e6102608201527f73666f726d2d6f726967696e3a3239302e33357078203438382e303470783b616102808201527f6e696d6174696f6e3a64617368203273206c696e65617220616c7465726e61746102a08201527f6520666f7277617264737d406b65796672616d657320646173687b66726f6d7b6102c08201527f7374726f6b652d646173686f66667365743a3735302e38347d746f7b7374726f6102e08201526d35b296b230b9b437b33339b2ba1d60911b61030082015260006115d161257361030e84018561184b565b6a1dbebe9e17b9ba3cb6329f60a91b8152600b0190565b7f3c746578743e3c747370616e20783d2236382e333534392220793d223134362e81527f323431342220636c6173733d2273743336207374333820737433392073743430602082015261111f60f11b6040820152600084516125f38160428501602089016115d8565b7f3c747370616e207374796c653d22666f6e742d73697a653a20343070783b22206042918401918201527f64793d222d35223e20e29e94203c2f747370616e3e3c747370616e20793d22316062820152681a1b17191a189a111f60b91b6082820152845161266881608b8401602089016115d8565b7f3c2f747370616e3e3c2f747370616e3e3c2f746578743e3c7465787420783d22608b92909101918201527f36382e333534392220793d223232352e393638332220636c6173733d2273743360ab8201526c1b1039ba1a1c9039ba1a98111f60991b60cb8201526126f26126df60d883018661184b565b661e17ba32bc3a1f60c91b815260070190565b9695505050505050565b7f3c74657874207472616e73666f726d3d226d617472697828312030203020312081527f36382e33353439203737352e3838353329223e3c747370616e20783d2230222060208201527f793d22302220636c6173733d227374333620737433382073743434223e49643a6040820152600160fd1b60608201526000865161278a816061850160208b016115d8565b7f3c2f747370616e3e3c747370616e20783d22302220793d2235322e33372220636061918401918201527f6c6173733d227374333620737433382073743434223e537761707065642a3a20608182015286516127ed8160a1840160208b016115d8565b7f3c2f747370616e3e3c747370616e20783d22302220793d223130342e3733222060a192909101918201527f636c6173733d227374333620737433382073743434223e41766720507269636560c18201526101d160f51b60e18201526129be6129196129136128c46128be61286560e387018c61184b565b7f3c2f747370616e3e3c747370616e20783d22302220793d223135372e3122206381527f6c6173733d227374333620737433382073743434223e52656d61696e696e673a6020820152600160fd1b604082015260410190565b8961184b565b7f3c2f747370616e3e3c747370616e20783d22302220793d223230392e3437222081527f636c6173733d227374333620737433382073743434223e526174653a200000006020820152603d0190565b8661184b565b7f3c2f747370616e3e3c2f746578743e3c746578743e3c747370616e20783d223681527f382e333535342220793d22313035302e353038392220636c6173733d2273743360208201527f3620737433382073743438223e2a2073696e6365207374617274206f72206c6160408201527f73742065646974202f2077697468647261773c2f747370616e3e3c2f746578746060820152601f60f91b608082015260810190565b98975050505050505050565b600083516129dc8184602088016115d8565b6201016960ed1b90830190815283516129fc8160038401602088016115d8565b01600301949350505050565b60008551612a1a818460208a016115d8565b855190830190612a2e818360208a016115d8565b8551910190612a418183602089016115d8565b8451910190612a548183602088016115d8565b019695505050505050565b7f3c7061746820636c6173733d227374312220643d224d36382e3335203137352e81527f3239683434302e31324d36382e3335203234392e3338683434302e31324d363860208201527f2e3335203733372e3538683434302e31324d36382e3335203739322e3131683460408201527f34302e31324d36382e3335203834342e3437683434302e31324d36382e33352060608201527f3839362e3832683434302e31324d36382e3335203934392e3137683434302e3160808201527f324d36382e333520313030312e3533683434302e3132222f3e3c636972636c6560a08201527f2063783d223239302e3335222063793d223438382e30342220723d223136342e60c08201527f3537222066696c6c3d2275726c282353564749445f3329222f3e3c636972636c60e08201527f65207472616e73666f726d3d22726f74617465282d34352e303031203239302e6101008201527f333439203438382e303436292220636c6173733d22737431222063783d2232396101208201527f302e3335222063793d223438382e30342220723d223137372e3232222f3e3c636101408201527f6972636c6520636c6173733d2273743532222063783d223239302e33352220636101608201527f793d223438382e30342220723d223131392e3522207374726f6b652d776964746101808201527f683d223231222066696c6c3d226e6f6e6522207374726f6b652d6c696e6563616101a08201527f703d22726f756e64222f3e3c7061746820636c6173733d22737435352220643d6101c08201527f224d3335392e3932203530382e3633632d332e39372d2e31332d382e37312d316101e08201527f352e38342d31312e32362d32342e332d352e31362d31372e31322d31302e30346102008201527f2d33332e332d32332e34342d33332e332d31312e393520302d31372e303820316102208201527f332e30322d32312e33312032362e33362d2e343820312e352d312e343120342e6102408201527f35352d332e39342031332e30352d2e333220312e30372d2e363220322e31332d6102608201527f2e393220332e31382d322e313520372e35352d342e30312031342e30382d382e6102808201527f37332031342e30382d342e353420302d362e38352d372e30392d382e38332d316102a08201527f342e33352d2e38312d322e39392d342e31312d31342e31322d342e35312d31356102c08201527f2e342d342e32392d31332e36322d392e34372d32362e39332d32312e34392d326102e08201527f362e39332d31332e3420302d31382e32382031362e31382d32332e34342033336103008201527f2e33312d322e353520382e34342d372e32382032342e31362d31312e313920326103208201527f342e32396c2d342e35322d2e31317631322e36396c342e32312e316331332e366103408201527f20302031382e34382d31362e31382032332e36342d33332e33312e36362d322e6103608201527f3220312e32352d342e353420312e38322d362e3820322e31352d382e353220346103808201527f2e31382d31362e353620392e34372d31362e353620352e3033203020372e34206103a08201527f382e393320392e34392031362e38312e312e333820332e35312031312e3932206103c08201527f342e33352031342e353220332e39352031322e323620392e31352032352e33346103e08201527f2032302e39382032352e33342031312e393520302031372e30362d31322e39356104008201527f2032312e32372d32362e32322e37342d322e333320342e32372d31342e3132206104208201527f342e35352d31352e313520322e31362d382e303720342e34392d31352e3320396104408201527f2e30382d31352e3320352e3239203020372e333220382e303420392e343720316104608201527f362e35362e353720322e323620312e313620342e3620312e383220362e3820356104808201527f2e31372031372e31332031302e30352033332e33312032332e36382033332e336104a08201527f6c342e31372d2e31563530382e356c2d342e34322e31337a222f3e3c636972636104c08201527f6c6520636c6173733d22636c732d3739222063783d223239302e3335222063796104e08201527f3d223438382e30342220723d223131392e3522207374726f6b652d77696474686105008201527f3d22323122207374726f6b652d6461736861727261793d223735302e383422206105208201527f7374726f6b652d646173686f66667365743d22353632222066696c6c3d226e6f6105408201527f6e6522207374726f6b652d6c696e656361703d22726f756e64222f3e3c6369726105608201527f636c6520636c6173733d22737435372220723d2231332e3739223e3c616e696d6105808201527f6174654d6f74696f6e20706174683d224d3239302e33352c3336382e373720616105a08201527f203131392e352c3131392e35203020312c3120302c3233392061203131392e356105c08201527f2c3131392e35203020312c3120302c2d323339222063616c634d6f64653d226c6105e08201527f696e656172222066696c6c3d22667265657a6522206475723d22327322206b656106008201527f7954696d65733d22303b3122206b6579506f696e74733d22303b0000000000006106208201526000610c5a61320e61320861063a85018761184b565b8561184b565b6b11179f1e17b1b4b931b6329f60a11b8152600c0190565b7f3c7465787420746578742d72656e646572696e673d226f7074696d697a65537081527f656564223e3c746578745061746820786c696e6b3a687265663d22237465787460208201527f2d706174682d6578656375746564223e3c747370616e20636c6173733d22737460408201527f33382073743538222066696c6c3d222364316462653022207374796c653d227460608201527f6578742d736861646f773a23323134633634203070782030707820357078223e60808201526a022bc32b1baba32b2151d160ad1b60a08201526000855161330a8160ab850160208a016115d8565b8551908301906133218160ab840160208a016115d8565b7f3c2f747370616e3e3c2f74657874506174683e3c2f746578743e3c746578742060ab92909101918201527f746578742d72656e646572696e673d226f7074696d697a655370656564223e3c60cb8201527f746578745061746820786c696e6b3a687265663d2223746578742d706174682d60eb8201527f6c656674222073746172744f66667365743d2233302522203e3c747370616e2061010b8201527f636c6173733d227374333820737435382220616c69676e6d656e742d6261736561012b8201527f6c696e653d2268616e67696e67222066696c6c3d22233135333034312220737461014b8201527f726f6b653d222330303022207374726f6b652d77696474683d22302e35223e4c61016b82015264032b33a1d160dd1b61018b82015261184061345761291361019084018861184b565b7f3c2f747370616e3e3c2f74657874506174683e3c2f746578743e0000000000008152601a0190565b7f3c7465787420746578742d72656e646572696e673d226f7074696d697a65537081527f656564223e3c74657874506174682073746172744f66667365743d22000000006020820152600083516134de81603c8501602088016115d8565b7f252220786c696e6b3a687265663d2223746578742d706174682d612220636c61603c918401918201527339b99e9139ba1a1b1039ba199c1039ba1a1b911f60611b605c82015283516135388160708401602088016115d8565b7f3c616e696d6174652061646469746976653d2273756d22206174747269627574607092909101918201527f654e616d653d2273746172744f6666736574222066726f6d3d2230252220746f60908201527f3d223130302522206475723d223630732220726570656174436f756e743d226960b08201527f6e646566696e69746522202f3e3c2f74657874506174683e3c2f746578743e0060d082015260ef0194935050505056fe3c646566733e3c706174682069643d2253564749445f302220636c6173733d227374322220643d224d3538302e373120313034322e313763302034322e30392d33342e34342037362e35342d37362e35342037362e35344837362e3534632d34322e303920302d37362e35342d33342e34342d37362e35342d37362e35345637362e353443302033342e34342033342e343420302037362e35342030683432372e36346334322e303920302037362e35342033342e34342037362e35342037362e3534763936352e36337a222f3e3c706174682069643d22746578742d706174682d612220643d224d38312e353420313039352e3939356135372e3430352035372e3430352030203020312d35372e3430352d35372e3430355638312e35344135372e3430352035372e3430352030203020312038312e35342032342e313335683431372e36346135372e3430352035372e3430352030203020312035372e3430352035372e343035763935352e36346135372e3430352035372e3430352030203020312d35372e3430352035372e3430357a222f3e3c706174682069643d22746578742d706174682d65786563757465642220643d224d3239302e3335203334382e3737613133392e35203133392e35203020312031203020323739203133392e35203133392e3520302031203120302d323739222f3e3c706174682069643d22746578742d706174682d6c6566742220643d224d3239302e3335203334382e3737612d3133392e352d3133392e35203020312030203020323739203133392e35203133392e3520302031203020302d323739222f3e3c72616469616c4772616469656e742069643d2253564749445f33222063783d223333342e383331222063793d223539322e3837382220723d223432382e323734222066783d223533352e343934222066793d223738322e34383522206772616469656e74556e6974733d227573657253706163654f6e557365223e3c73746f70206f66667365743d2230222f3e3c73746f70206f66667365743d222e3131222073746f702d636f6c6f723d2223306431663239222f3e3c73746f70206f66667365743d222e3238222073746f702d636f6c6f723d2223316634383630222f3e3c73746f70206f66667365743d222e3435222073746f702d636f6c6f723d2223326536613864222f3e3c73746f70206f66667365743d222e3631222073746f702d636f6c6f723d2223333938356230222f3e3c73746f70206f66667365743d222e3736222073746f702d636f6c6f723d2223343139386339222f3e3c73746f70206f66667365743d222e3839222073746f702d636f6c6f723d2223343661336439222f3e3c73746f70206f66667365743d2231222073746f702d636f6c6f723d2223343861376465222f3e2667743b3c2f72616469616c4772616469656e743e3c6c696e6561724772616469656e742069643d2253564749445f3122206772616469656e74556e6974733d227573657253706163654f6e557365222078313d223239302e333533222079313d2230222078323d223239302e333533222079323d22313131382e373036223e3c73746f70206f66667365743d2230222073746f702d636f6c6f723d2223343861376465222f3e3c73746f70206f66667365743d222e313035222073746f702d636f6c6f723d2223336538316136222f3e3c73746f70206f66667365743d222e323932222073746f702d636f6c6f723d2223326534653564222f3e3c73746f70206f66667365743d222e3437222073746f702d636f6c6f723d2223316632633330222f3e3c73746f70206f66667365743d222e363335222073746f702d636f6c6f723d2223313231363132222f3e3c73746f70206f66667365743d222e373833222073746f702d636f6c6f723d2223303630363030222f3e3c73746f70206f66667365743d222e3931222073746f702d636f6c6f723d2223303130313030222f3e3c73746f70206f66667365743d2231222f3e3c2f6c696e6561724772616469656e743e3c636c6970506174682069643d2253564749445f32223e3c75736520786c696e6b3a687265663d222353564749445f3022206f766572666c6f773d2276697369626c65222f3e3c2f636c6970506174683e3c2f646566733e4142434445464748494a4b4c4d4e4f505152535455565758595a6162636465666768696a6b6c6d6e6f707172737475767778797a303132333435363738392b2f3c7061746820643d224d3538302e373120313034322e313763302034322e30392d33342e34342037362e35342d37362e35342037362e35344837362e3534632d34322e303920302d37362e35342d33342e34342d37362e35342d37362e35345637362e353443302033342e34342033342e343420302037362e35342030683432372e36346334322e303920302037362e35342033342e34342037362e35342037362e3534763936352e36337a222066696c6c3d2275726c282353564749445f3129222f3e3c7061746820643d224d37362e353420313038312e3836632d32312e383820302d33392e36382d31372e382d33392e36382d33392e36385637362e353463302d32312e38382031372e382d33392e36392033392e36382d33392e3639683432372e36346332312e383820302033392e36382031372e382033392e36382033392e3639763936352e363463302032312e38382d31372e382033392e36382d33392e36382033392e36384837362e35347a222066696c6c3d226e6f6e6522207374726f6b653d222366666622207374726f6b652d6d697465726c696d69743d223130222f3e3c672069643d22584d4c49445f32395f2220636c69702d706174683d2275726c282353564749445f322922206f7061636974793d222e35223e3c706174682069643d22584d4c49445f30303030303130363130363934343937373733303232383332303030303031313331353034393131373733353834333736345f2220636c6173733d227374332220643d224d2d3435362e3831203836332e3138532d3233302e373220313034322032302e3733203933302e3935733237332e31392d3630322e3032203437302e36352d3638392e3233203330372e3937203132332e3031203735362e33322d37352e303122207374726f6b652d77696474683d222e3134222f3e3c7061746820636c6173733d227374332220643d224d2d3435382e3539203835392e3135733232302e3139203136362e3133203437302e39342035352e3339203238302e36372d3537372e3239203438302e39392d3636352e3736203330322e37322039372e3734203734372e30392d39382e353322207374726f6b652d77696474683d222e313732222f3e3c7061746820636c6173733d227374332220643d224d2d3436302e3337203835352e3133733231342e3239203135332e3434203436342e33342034332e3031203238382e31342d3535322e3536203439312e33332d3634322e33203239372e34362037322e3436203733372e38362d3132322e303522207374726f6b652d77696474683d222e323034222f3e3c7061746820636c6173733d227374332220643d224d2d3436322e3135203835312e31733230382e3338203134302e3736203435372e37342033302e3632533239312e3231203335332e3931203439372e3237203236322e39733239322e322034372e3139203732382e36332d3134352e353622207374726f6b652d77696474683d222e323335222f3e3c7061746820636c6173733d227374332220643d224d2d3436332e3932203834372e3038733230322e3438203132382e3037203435312e31352031382e3234203330332e30392d3530332e3038203531322e30312d3539352e3335203238362e39352032312e3931203731392e342d3136392e303822207374726f6b652d77696474683d222e323637222f3e3c7061746820636c6173733d227374332220643d224d2d3436352e37203834332e3035733139362e3538203131352e3338203434342e353520352e3836533238392e3431203337302e3537203530312e32203237372e3033733238312e36392d332e3336203731302e31362d3139322e3622207374726f6b652d77696474683d222e323939222f3e3c7061746820636c6173733d227374332220643d224d2d3436372e3438203833392e3032733139302e3637203130322e3639203433372e39352d362e3532203331382e30342d3435332e36203533322e36392d3534382e34203237362e34332d32382e3634203730302e39332d3231362e313222207374726f6b652d77696474683d222e3333222f3e3c7061746820636c6173733d227374332220643d224d2d3436392e323620383335733138342e3737203930203433312e33352d31382e39533238372e36203338372e3233203530352e3132203239312e3136733237312e31382d35332e3931203639312e372d3233392e363422207374726f6b652d77696474683d222e333632222f3e3c7061746820636c6173733d227374332220643d224d2d3437312e3033203833302e3937733137382e38372037372e3332203432342e37352d33312e3238533238362e37203339352e3536203530372e3039203239382e3233733236352e39322d37392e3139203638322e34372d3236332e313622207374726f6b652d77696474683d222e333934222f3e3c7061746820636c6173733d227374332220643d224d2d3437322e3831203832362e3935733137322e39372036342e3633203431382e31362d34332e3636203334302e34352d3337392e34203536332e372d343738203236302e36362d3130342e3436203637332e32342d3238362e363822207374726f6b652d77696474683d222e343235222f3e3c7061746820636c6173733d227374332220643d224d2d3437342e3539203832322e3932733136372e30362035312e3934203431312e35362d35362e3034533238342e39203431322e3232203531312e3032203331322e3336733235352e34312d3132392e3734203636342e30312d3331302e3222207374726f6b652d77696474683d222e343537222f3e3c7061746820636c6173733d227374332220643d224d2d3437362e3337203831382e39733136312e31362033392e3235203430342e39362d36382e343253323834203432302e3535203531322e3938203331392e3432203736332e3133203136342e343120313136372e37362d31342e3322207374726f6b652d77696474683d222e343839222f3e3c7061746820636c6173733d227374332220643d224d2d3437382e3135203831342e3837733135352e32362032362e3537203339382e33362d38302e38203336322e38382d3330352e3138203539342e37332d3430372e3538203234342e392d3138302e3239203634352e35352d3335372e323422207374726f6b652d77696474683d222e3532222f3e3c7061746820636c6173733d227374332220643d224d2d3437392e3932203831302e3835733134392e33352031332e3838203339312e37372d39332e3139533238322e32203433372e3231203531362e3932203333332e3535733233392e36342d3230352e3536203633362e33312d3338302e373622207374726f6b652d77696474683d222e353532222f3e3c7061746820636c6173733d227374332220643d224d2d3438312e37203830362e3832733134332e343520312e3139203338352e31372d3130352e3537203337372e38322d3235352e3731203631352e34312d3336302e3634203233342e33382d3233302e3834203632372e30382d3430342e323722207374726f6b652d77696474683d222e353834222f3e3c7061746820636c6173733d227374332220643d224d2d3438332e3438203830322e38733133372e35352d31312e35203337382e35372d3131372e3935203338352e332d3233302e3937203632352e37352d3333372e3137533734392e39362039312e353720313133382e36392d38302e313122207374726f6b652d77696474683d222e363136222f3e3c7061746820636c6173733d227374332220643d224d2d3438352e3236203739382e3737733133312e36342d32342e3139203337312e39372d3133302e3333433132372e3034203536322e33203237392e3439203436322e3231203532322e38203335342e3734533734362e36372037332e333620313133312e34322d39362e353722207374726f6b652d77696474683d222e363437222f3e3c7061746820636c6173733d227374332220643d224d2d3438372e3034203739342e3734733132352e37342d33362e3837203336352e33372d3134322e3731203430302e32342d3138312e35203634362e34332d3239302e3233203231382e36312d3330362e3636203539392e33392d3437342e383322207374726f6b652d77696474683d222e363739222f3e3c7061746820636c6173733d227374332220643d224d2d3438382e3831203739302e3732733131392e38342d34392e3536203335382e37382d3135352e3039203430372e37322d3135362e3736203635362e37362d3236362e3736203231332e33352d3333312e3933203539302e31362d3439382e333522207374726f6b652d77696474683d222e373131222f3e3c7061746820636c6173733d227374332220643d224d2d3439302e3539203738362e3639733131332e39332d36322e3235203335322e31382d3136372e34374339392e383320353134203237362e3738203438372e32203532382e3639203337352e3934733230382e312d3335372e3231203538302e39322d3532312e383722207374726f6b652d77696474683d222e373432222f3e3c7061746820636c6173733d227374332220643d224d2d3439322e3337203738322e3637733130382e30332d37342e3934203334352e35382d3137392e3835533237352e3838203439352e3533203533302e363620333833203733332e352e353220313130322e33352d3136322e333922207374726f6b652d77696474683d222e373734222f3e3c7061746820636c6173733d227374332220643d224d2d3439342e3135203737382e3634733130322e31332d38372e3632203333382e39382d3139322e3233203433302e31342d38322e3535203638372e37382d3139362e3334533733302e322d31372e363920313039352e30382d3137382e383422207374726f6b652d77696474683d222e383036222f3e3c7061746820636c6173733d227374332220643d224d2d3439352e3932203737342e36327339362e32332d3130302e3331203333322e33392d3230342e3631203433372e36312d35372e3831203639382e31322d3137322e3837533732362e39312d33352e3920313038372e38322d3139352e3322207374726f6b652d77696474683d222e383337222f3e3c7061746820636c6173733d227374332220643d224d2d3439372e37203737302e35397339302e33322d313133203332352e37392d323137203434352e30382d33332e3038203730382e34362d3134392e34203138372e30372d3435382e3331203534342d3631352e393522207374726f6b652d77696474683d222e383639222f3e3c7061746820636c6173733d227374332220643d224d2d3439392e3438203736362e35377338342e34322d3132352e3639203331392e31392d3232392e3338203435322e35362d382e3334203731382e382d3132352e3933203138312e38312d3438332e3538203533342e37372d3633392e343722207374726f6b652d77696474683d222e393031222f3e3c7061746820636c6173733d227374332220643d224d2d3530312e3236203736322e35347337382e35322d3133382e3338203331322e35392d3234312e3736203436302e30332031362e34203732392e31342d3130322e3436203137362e35362d3530382e3836203532352e35342d3636322e393922207374726f6b652d77696474683d222e393332222f3e3c7061746820636c6173733d227374332220643d224d2d3530332e3034203735382e35327337322e36312d3135312e3036203330362d3235342e3134203436372e352034312e3133203733392e34382d37382e3939203137312e332d3533342e3133203531362e332d3638362e353122207374726f6b652d77696474683d222e393634222f3e3c7061746820636c6173733d227374332220643d224d2d3530342e3831203735342e34397336362e37312d3136332e3735203239392e342d3236362e3532203437342e39382036352e3837203734392e38322d35352e3532203136362e30342d3535392e3431203530372e30372d3731302e303222207374726f6b652d77696474683d222e393936222f3e3c7061746820636c6173733d227374332220643d224d2d3530362e3539203735302e34377336302e38312d3137362e3434203239322e382d3237382e39203438322e34352039302e3631203736302e31362d33322e3035203136302e37392d3538342e3638203439372e38342d3733332e353422207374726f6b652d77696474683d22312e303238222f3e3c7061746820636c6173733d227374332220643d224d2d3530382e3337203734362e34347335342e392d3138392e3133203238362e322d3239312e3238203438392e3932203131352e3334203737302e352d382e3537203135352e35332d3630392e3935203438382e36312d3735372e303622207374726f6b652d77696474683d22312e303539222f3e3c7061746820636c6173733d227374332220643d224d2d3531302e3135203734322e34317334392d3230312e3832203237392e362d3330332e3636633233302e362d3130312e3835203439372e34203134302e3038203738302e38342031342e39733135302e32372d3633352e3233203437392e33382d3738302e353822207374726f6b652d77696474683d22312e303931222f3e3c7061746820636c6173733d227374332220643d224d2d3531312e3932203733382e33397334332e312d3231342e35203237332e30312d3331362e3034633232392e392d3130312e3535203530342e3836203136342e3831203739312e31372033382e3336733134352e30322d3636302e35203437302e31352d3830342e3122207374726f6b652d77696474683d22312e313233222f3e3c2f673e3c7061746820636c6173733d22737433362220643d224d3530362e3535203639312e32682d372e3039762d312e3632682e39632d2e37332d2e34312d312e31312d312e332d312e31312d322e3120302d2e39332e34322d312e373520312e32352d322e31332d2e39332d2e35352d312e32352d312e33382d312e32352d322e3320302d312e32382e38322d322e3520322e36392d322e3568342e3676312e3633682d342e3332632d2e383320302d312e34362e34322d312e343620312e33372030202e38392e3720312e343720312e353720312e343768342e323176312e3636682d342e3332632d2e383220302d312e34362e34312d312e343620312e33372030202e392e363720312e343720312e353720312e343768342e323176312e36387a4d3530342e3533203637322e3863312e32342e333820322e323420312e3520322e323420332e32203020312e39322d312e3420332e36332d332e3820332e36332d322e323420302d332e37332d312e36362d332e37332d332e343520302d322e313820312e34342d332e343720332e36382d332e34372e32382030202e35312e30332e35342e303476352e313863312e30382d2e303420312e38352d2e383920312e38352d312e393420302d312e30322d2e35342d312e35342d312e32342d312e37386c2e34362d312e34317a6d2d322e3320312e3632632d2e38332e30332d312e35372e35382d312e353720312e3735203020312e30362e383220312e363720312e353720312e3733762d332e34387a4d3530322e3439203636392e39386c2d2e32382d312e3832632d2e30362d2e34312d2e32362d2e35322d2e35312d2e35322d2e3620302d312e30382e34312d312e303820312e33342030202e38392e353720312e333820312e323820312e34366c2d2e333520312e3534632d312e32322d2e31332d322e33322d312e32342d322e33322d322e393920302d322e313820312e32342d332e303120322e36352d332e303168332e3532632e3634203020312e30362d2e303720312e31342d2e303976312e3537632d2e30342e30312d2e33332e30372d2e392e30372e35342e333420312e313220312e303320312e313220322e3138203020312e34392d312e303220322e342d322e313420322e342d312e32362e30312d312e39352d2e39322d322e31332d322e31337a6d312e31322d322e3335682d2e33326c2e323820312e3835632e30392e35322e33382e39352e39362e39352e34382030202e39322d2e33362e39322d312e303320302d2e39352d2e34362d312e37372d312e38342d312e37377a4d3530362e3535203636322e383376312e3639682d372e3039762d312e3635682e3935632d2e38322d2e34372d312e31352d312e33312d312e31352d322e3120302d312e373320312e32352d322e353620322e38312d322e353668342e343876312e3639682d342e3139632d2e383720302d312e35372e33392d312e353720312e34362030202e39362e373420312e343720312e363720312e343768342e30397a4d3439362e3038203635322e393968312e3434632d2e30332e312d2e30372e32392d2e30372e36312030202e34342e3220312e303520312e303820312e3035682e3933762d342e373268372e303976312e3636682d352e363276332e303668352e363276312e37682d352e363276312e3234682d312e3437762d312e3234682d2e3938632d312e353920302d322e35352d312e30322d322e35352d322e34382e30312d2e34322e312d2e37372e31352d2e38387a6d2d2e32332d322e323363302d2e36312e352d312e313120312e31312d312e31312e36203020312e30392e3520312e303920312e31312030202e36312d2e3520312e30392d312e303920312e30392d2e363120302d312e31312d2e34382d312e31312d312e30397a4d3530362e3535203634362e363376312e3639682d372e3039762d312e3635682e3935632d2e38322d2e34372d312e31352d312e33312d312e31352d322e3120302d312e373320312e32352d322e353620322e38312d322e353668342e343876312e3639682d342e3139632d2e383720302d312e35372e33392d312e353720312e34362030202e39362e373420312e343720312e363720312e343768342e30397a4d3530322e3439203633382e38346c2d2e32382d312e3832632d2e30362d2e34312d2e32362d2e35322d2e35312d2e35322d2e3620302d312e30382e34312d312e303820312e33342030202e38392e353720312e333820312e323820312e34366c2d2e333520312e3534632d312e32322d2e31332d322e33322d312e32342d322e33322d322e393920302d322e313820312e32342d332e303120322e36352d332e303168332e3532632e3634203020312e30362d2e303720312e31342d2e303976312e3537632d2e30342e30312d2e33332e30372d2e392e30372e35342e333320312e313220312e303320312e313220322e3138203020312e34392d312e303220322e342d322e313420322e342d312e32362e30312d312e39352d2e39322d322e31332d322e31337a6d312e31322d322e3335682d2e33326c2e323820312e3835632e30392e35322e33382e39352e39362e39352e34382030202e39322d2e33362e39322d312e303320302d2e39352d2e34362d312e37372d312e38342d312e37377a4d3530362e3535203633312e363976312e3639682d372e3039762d312e3635682e3935632d2e38322d2e34372d312e31352d312e33312d312e31352d322e3120302d312e373320312e32352d322e353620322e38312d322e353668342e343876312e3639682d342e3139632d2e383720302d312e35372e33392d312e353720312e34362030202e39362e373420312e343720312e363720312e343768342e30397a4d353033203632342e343763312e3433203020322e32332d2e393220322e32332d312e393820302d312e31312d2e37372d312e36322d312e33312d312e37386c2e35342d312e343963312e31312e333320322e333220312e3420322e333220332e3236203020322e30382d312e363220332e36372d332e373720332e36372d322e313820302d332e37362d312e35392d332e37362d332e363320302d312e393120312e31392d322e393620322e33332d332e32356c2e353520312e3531632d2e36332e31362d312e33322e36342d312e333220312e37322d2e303120312e30352e373620312e393720322e313920312e39377a4d3530342e3533203631322e313163312e32342e333820322e323420312e3520322e323420332e32203020312e39322d312e3420332e36332d332e3820332e36332d322e323420302d332e37332d312e36362d332e37332d332e343520302d322e313820312e34342d332e343720332e36382d332e34372e32382030202e35312e30332e35342e303476352e313863312e30382d2e303420312e38352d2e383920312e38352d312e393420302d312e30322d2e35342d312e35342d312e32342d312e37386c2e34362d312e34317a6d2d322e3320312e3631632d2e38332e30332d312e35372e35382d312e353720312e3735203020312e30362e383220312e363720312e353720312e3733762d332e34387a4d3530312e3032203631302e39316330202e30322d2e30312e30332d2e30332e3033682d312e3537632d2e303120302d2e30322e30312d2e30322e3032762e33366330202e30322d2e30312e30332d2e30332e3033682d2e3037632d2e303220302d2e30332d2e30312d2e30332d2e3033762d2e393263302d2e30322e30312d2e30332e30332d2e3033682e3037632e30322030202e30332e30312e30332e3033762e33366330202e30312e30312e30322e30322e303248353031632e30322030202e30332e30312e30332e3033762e317a4d3439392e3332203631302e3131632d2e303220302d2e30332d2e30312d2e30332d2e3033762d2e3163302d2e30322e30312d2e30332e30332d2e30346c312e31362d2e3431762d2e30316c2d312e31362d2e3431632d2e30322d2e30312d2e30332d2e30322d2e30332d2e3034762d2e3163302d2e30322e30312d2e30332e30332d2e303348353031632e30322030202e30332e30312e30332e3033762e30396330202e30322d2e30312e30332d2e30332e3033682d312e3333762e30316c312e30322e3336632e30322e30312e30332e30322e30332e3033762e30366330202e30322d2e30312e30332d2e30332e30336c2d312e30322e3336762e303148353031632e30322030202e30332e30312e30332e3033762e30396330202e30322d2e30312e30332d2e30332e3033682d312e36387a222f3e3c7061746820643d224d3530342e37203639352e3331632d2e30322e35382d322e333120312e32372d332e353520312e36352d322e352e37352d342e383620312e34372d342e383620332e3432203020312e373520312e3920322e343920332e383520332e31312e32322e30372e36362e323120312e39312e35382e31362e30352e33312e30392e34372e313320312e312e333120322e30362e353920322e303620312e32372030202e36362d312e303420312d322e3120312e32392d2e34342e31322d322e30362e362d322e32352e36362d312e39392e36332d332e393320312e33382d332e393320332e3134203020312e393620322e333620322e363720342e383720332e343220312e32332e333720332e353320312e303620332e353520312e36336c2d2e30322e363668312e38356c2e30312d2e363163302d312e39392d322e33362d322e372d342e38362d332e34352d2e33322d2e312d2e36362d2e31382d2e39392d2e32372d312e32342d2e33312d322e34322d2e36312d322e34322d312e333820302d2e373320312e332d312e303820322e34362d312e33392e30362d2e303120312e37342d2e353120322e31322d2e363320312e37392d2e353820332e372d312e333420332e372d332e303720302d312e37342d312e38392d322e34392d332e38332d332e31312d2e33342d2e31312d322e30362d2e36322d322e32312d2e36362d312e31382d2e33322d322e32342d2e36362d322e32342d312e333320302d2e373720312e31372d312e303720322e34322d312e33382e33332d2e30382e36372d2e31372e39392d2e323720322e352d2e373520342e38362d312e343720342e38362d332e34366c2d2e30312d2e3631682d312e3835762e36367a222066696c6c3d2223343861376465222f3ea2646970667358221220d1d4c0dabbce5e80047fcde11844652bf448b90cf5eddcb1ec0c12a23d7d54fb64736f6c634300080a0033",
  "devdoc": {
    "kind": "dev",
    "methods": {
      "intervalToDescription(uint32)": {
        "details": "Will revert with InvalidInterval if the function receives a unsupported interval",
        "params": {
          "_swapInterval": "The swap interval"
        },
        "returns": {
          "_0": "The description"
        }
      },
      "tokenURI(address,uint256)": {
        "params": {
          "_hub": "The address of the DCA Hub",
          "_tokenId": "The token/position id"
        },
        "returns": {
          "_0": "The position's description"
        }
      }
    },
    "title": "Describes NFT token positions",
    "version": 1
  },
  "userdoc": {
    "errors": {
      "InvalidInterval()": [
        {
          "notice": "Thrown when a user tries get the description of an unsupported interval"
        }
      ]
    },
    "kind": "user",
    "methods": {
      "intervalToDescription(uint32)": {
        "notice": "Returns a text description for the given swap interval. For example for 3600, returns 'Hourly'"
      },
      "tokenURI(address,uint256)": {
        "notice": "Generates a token's description, both the JSON and the image inside"
      }
    },
    "notice": "Produces a string containing the data URI for a JSON metadata string",
    "version": 1
  },
  "storageLayout": {
    "storage": [],
    "types": null
  }
}