{
  "address": "0x3325AE99D0A492521Ef5671181C0c30a352D61A3",
  "abi": [
    {
      "inputs": [
        {
          "internalType": "address",
          "name": "_governor",
          "type": "address"
        },
        {
          "internalType": "contract IUniswapV3Factory",
          "name": "_factory",
          "type": "address"
        }
      ],
      "stateMutability": "nonpayable",
      "type": "constructor"
    },
    {
      "anonymous": false,
      "inputs": [
        {
          "indexed": false,
          "internalType": "uint24",
          "name": "feeTier",
          "type": "uint24"
        }
      ],
      "name": "AddedFeeTier",
      "type": "event"
    },
    {
      "anonymous": false,
      "inputs": [
        {
          "indexed": false,
          "internalType": "address",
          "name": "tokenA",
          "type": "address"
        },
        {
          "indexed": false,
          "internalType": "address",
          "name": "tokenB",
          "type": "address"
        }
      ],
      "name": "AddedSupportForPairInUniswapOracle",
      "type": "event"
    },
    {
      "anonymous": false,
      "inputs": [],
      "name": "PendingGovernorAccepted",
      "type": "event"
    },
    {
      "anonymous": false,
      "inputs": [
        {
          "indexed": false,
          "internalType": "address",
          "name": "pendingGovernor",
          "type": "address"
        }
      ],
      "name": "PendingGovernorSet",
      "type": "event"
    },
    {
      "anonymous": false,
      "inputs": [
        {
          "indexed": false,
          "internalType": "uint32",
          "name": "period",
          "type": "uint32"
        }
      ],
      "name": "PeriodChanged",
      "type": "event"
    },
    {
      "inputs": [],
      "name": "MAXIMUM_PERIOD",
      "outputs": [
        {
          "internalType": "uint16",
          "name": "",
          "type": "uint16"
        }
      ],
      "stateMutability": "view",
      "type": "function"
    },
    {
      "inputs": [],
      "name": "MINIMUM_LIQUIDITY_THRESHOLD",
      "outputs": [
        {
          "internalType": "uint16",
          "name": "",
          "type": "uint16"
        }
      ],
      "stateMutability": "view",
      "type": "function"
    },
    {
      "inputs": [],
      "name": "MINIMUM_PERIOD",
      "outputs": [
        {
          "internalType": "uint16",
          "name": "",
          "type": "uint16"
        }
      ],
      "stateMutability": "view",
      "type": "function"
    },
    {
      "inputs": [],
      "name": "acceptPendingGovernor",
      "outputs": [],
      "stateMutability": "nonpayable",
      "type": "function"
    },
    {
      "inputs": [
        {
          "internalType": "uint24",
          "name": "_feeTier",
          "type": "uint24"
        }
      ],
      "name": "addFeeTier",
      "outputs": [],
      "stateMutability": "nonpayable",
      "type": "function"
    },
    {
      "inputs": [
        {
          "internalType": "address",
          "name": "_tokenA",
          "type": "address"
        },
        {
          "internalType": "address",
          "name": "_tokenB",
          "type": "address"
        }
      ],
      "name": "addSupportForPairIfNeeded",
      "outputs": [],
      "stateMutability": "nonpayable",
      "type": "function"
    },
    {
      "inputs": [
        {
          "internalType": "address",
          "name": "_tokenA",
          "type": "address"
        },
        {
          "internalType": "address",
          "name": "_tokenB",
          "type": "address"
        }
      ],
      "name": "canSupportPair",
      "outputs": [
        {
          "internalType": "bool",
          "name": "",
          "type": "bool"
        }
      ],
      "stateMutability": "view",
      "type": "function"
    },
    {
      "inputs": [],
      "name": "factory",
      "outputs": [
        {
          "internalType": "contract IUniswapV3Factory",
          "name": "",
          "type": "address"
        }
      ],
      "stateMutability": "view",
      "type": "function"
    },
    {
      "inputs": [],
      "name": "governor",
      "outputs": [
        {
          "internalType": "address",
          "name": "",
          "type": "address"
        }
      ],
      "stateMutability": "view",
      "type": "function"
    },
    {
      "inputs": [
        {
          "internalType": "address",
          "name": "_account",
          "type": "address"
        }
      ],
      "name": "isGovernor",
      "outputs": [
        {
          "internalType": "bool",
          "name": "_isGovernor",
          "type": "bool"
        }
      ],
      "stateMutability": "view",
      "type": "function"
    },
    {
      "inputs": [
        {
          "internalType": "address",
          "name": "_account",
          "type": "address"
        }
      ],
      "name": "isPendingGovernor",
      "outputs": [
        {
          "internalType": "bool",
          "name": "_isPendingGovernor",
          "type": "bool"
        }
      ],
      "stateMutability": "view",
      "type": "function"
    },
    {
      "inputs": [],
      "name": "pendingGovernor",
      "outputs": [
        {
          "internalType": "address",
          "name": "",
          "type": "address"
        }
      ],
      "stateMutability": "view",
      "type": "function"
    },
    {
      "inputs": [],
      "name": "period",
      "outputs": [
        {
          "internalType": "uint16",
          "name": "",
          "type": "uint16"
        }
      ],
      "stateMutability": "view",
      "type": "function"
    },
    {
      "inputs": [
        {
          "internalType": "address",
          "name": "_tokenA",
          "type": "address"
        },
        {
          "internalType": "address",
          "name": "_tokenB",
          "type": "address"
        }
      ],
      "name": "poolsUsedForPair",
      "outputs": [
        {
          "internalType": "address[]",
          "name": "_usedPools",
          "type": "address[]"
        }
      ],
      "stateMutability": "view",
      "type": "function"
    },
    {
      "inputs": [
        {
          "internalType": "address",
          "name": "_tokenIn",
          "type": "address"
        },
        {
          "internalType": "uint128",
          "name": "_amountIn",
          "type": "uint128"
        },
        {
          "internalType": "address",
          "name": "_tokenOut",
          "type": "address"
        }
      ],
      "name": "quote",
      "outputs": [
        {
          "internalType": "uint256",
          "name": "_amountOut",
          "type": "uint256"
        }
      ],
      "stateMutability": "view",
      "type": "function"
    },
    {
      "inputs": [
        {
          "internalType": "address",
          "name": "_tokenA",
          "type": "address"
        },
        {
          "internalType": "address",
          "name": "_tokenB",
          "type": "address"
        }
      ],
      "name": "reconfigureSupportForPair",
      "outputs": [],
      "stateMutability": "nonpayable",
      "type": "function"
    },
    {
      "inputs": [
        {
          "internalType": "address",
          "name": "__pendingGovernor",
          "type": "address"
        }
      ],
      "name": "setPendingGovernor",
      "outputs": [],
      "stateMutability": "nonpayable",
      "type": "function"
    },
    {
      "inputs": [
        {
          "internalType": "uint16",
          "name": "_period",
          "type": "uint16"
        }
      ],
      "name": "setPeriod",
      "outputs": [],
      "stateMutability": "nonpayable",
      "type": "function"
    },
    {
      "inputs": [],
      "name": "supportedFeeTiers",
      "outputs": [
        {
          "internalType": "uint24[]",
          "name": "_feeTiers",
          "type": "uint24[]"
        }
      ],
      "stateMutability": "view",
      "type": "function"
    }
  ],
  "transactionHash": "0x32878757c11ec3c08d648e6941ad0cdfb453f79a5f711eeead541f9cf78db91b",
  "args": [
    "0x1a00e1E311009E56e3b0B9Ed6F86f5Ce128a1C01",
    "0x1F98431c8aD98523631AE4a59f267346ea31F984"
  ],
  "solcInputHash": "d968e3d160d83fd5f11c917cdc8cac16",
  "bytecode": "0x6001805461ffff60a01b1916604b60a21b1790556101006040526101f460a0908152610bb860c05261271060e0526200003d9060029060036200014c565b503480156200004b57600080fd5b5060405162001f0b38038062001f0b833981810160405260408110156200007157600080fd5b508051602090910151816001600160a01b038116620000d7576040805162461bcd60e51b815260206004820152601860248201527f476f7665726e61626c653a207a65726f20616464726573730000000000000000604482015290519081900360640190fd5b600080546001600160a01b0319166001600160a01b03928316179055811662000135576040805162461bcd60e51b815260206004820152600b60248201526a5a65726f4164647265737360a81b604482015290519081900360640190fd5b60601b6001600160601b0319166080525062000215565b82805482825590600052602060002090600901600a90048101928215620001ec5791602002820160005b83821115620001b957835183826101000a81548162ffffff021916908361ffff160217905550926020019260030160208160020104928301926001030262000176565b8015620001ea5782816101000a81549062ffffff0219169055600301602081600201049283019260010302620001b9565b505b50620001fa929150620001fe565b5090565b5b80821115620001fa5760008155600101620001ff565b60805160601c611cc9620002426000398061041f528061086c5280610b915280610f605250611cc96000f3fe608060405234801561001057600080fd5b50600436106101215760003560e01c80638dcc50c8116100ad578063e3056a3411610071578063e3056a3414610348578063e43581b814610350578063ef78d4fd14610376578063f235757f1461037e578063fba2a2d2146103a457610121565b80638dcc50c8146102b9578063a513355f146102c1578063bc4389f714610312578063c45a01551461031a578063df08aed51461032257610121565b8063421465bf116100f4578063421465bf146101f457806351cd41e81461021357806372c12c871461021b578063734273fd146102495780637f55db3a1461028b57610121565b8063065420ae146101265780630c340a241461014a57806313f6986d1461016e57806332c1b8eb14610176575b600080fd5b6101486004803603602081101561013c57600080fd5b503562ffffff166103c5565b005b610152610687565b604080516001600160a01b039092168252519081900360200190f35b610148610696565b6101a46004803603604081101561018c57600080fd5b506001600160a01b03813581169160200135166106e4565b60408051602080825283518183015283519192839290830191858101910280838360005b838110156101e05781810151838201526020016101c8565b505050509050019250505060405180910390f35b6101fc61077d565b6040805161ffff9092168252519081900360200190f35b6101fc610783565b6101486004803603604081101561023157600080fd5b506001600160a01b0381358116916020013516610788565b6102776004803603604081101561025f57600080fd5b506001600160a01b03813581169160200135166107dc565b604080519115158252519081900360200190f35b610148600480360360408110156102a157600080fd5b506001600160a01b03813581169160200135166109e7565b6101fc610a2d565b610300600480360360608110156102d757600080fd5b506001600160a01b0381358116916001600160801b036020820135169160409091013516610a32565b60408051918252519081900360200190f35b6101a4610b0d565b610152610b8f565b6102776004803603602081101561033857600080fd5b50356001600160a01b0316610bb3565b610152610bc7565b6102776004803603602081101561036657600080fd5b50356001600160a01b0316610bd6565b6101fc610bea565b6101486004803603602081101561039457600080fd5b50356001600160a01b0316610bfb565b610148600480360360208110156103ba57600080fd5b503561ffff16610c5d565b6103ce33610bd6565b61041b576040805162461bcd60e51b815260206004820152601960248201527823b7bb32b93730b136329d1037b7363c9033b7bb32b93737b960391b604482015290519081900360640190fd5b60007f00000000000000000000000000000000000000000000000000000000000000006001600160a01b03166322afcccb836040518263ffffffff1660e01b8152600401808262ffffff16815260200191505060206040518083038186803b15801561048657600080fd5b505afa15801561049a573d6000803e3d6000fd5b505050506040513d60208110156104b057600080fd5b505160020b136104f8576040805162461bcd60e51b815260206004820152600e60248201526d24b73b30b634b22332b2aa34b2b960911b604482015290519081900360640190fd5b6000600280548060200260200160405190810160405280929190818152602001828054801561057057602002820191906000526020600020906000905b82829054906101000a900462ffffff1662ffffff16815260200190600301906020826002010492830192600103820291508084116105355790505b5050505050905060005b81518110156105f5578262ffffff1682828151811061059557fe5b602002602001015162ffffff1614156105ed576040805162461bcd60e51b8152602060048201526015602482015274119959551a595c905b1c9958591e541c995cd95b9d605a1b604482015290519081900360640190fd5b60010161057a565b5060028054600181018255600091909152600a8082047f405787fa12a823e0f2b7631cc41b3ba8828b3321ca811111fa75cd3aa3bb5ace01805462ffffff808716600394909506939093026101000a8481029302191691909117905560408051918252517f7df2566cb73ced3e8f322263ff49373328d4946b7a5672113aef3f8e647b710c9181900360200190a15050565b6000546001600160a01b031690565b61069f33610bb3565b6106da5760405162461bcd60e51b8152600401808060200182810382526021815260200180611c736021913960400191505060405180910390fd5b6106e2610db6565b565b60606000806106f38585610e63565b6001600160a01b038083166000908152600360209081526040808320938516835292815290829020805483518184028101840190945280845294965092945090929083018282801561076e57602002820191906000526020600020905b81546001600160a01b03168152600190910190602001808311610750575b50505050509250505092915050565b6104b081565b603c81565b6000806107958484610e63565b6001600160a01b03808316600090815260036020908152604080832093851683529290529081209294509092506107cc9190611c24565b6107d68282610e94565b50505050565b600080600280548060200260200160405190810160405280929190818152602001828054801561085557602002820191906000526020600020906000905b82829054906101000a900462ffffff1662ffffff168152602001906003019060208260020104928301926001038202915080841161081a5790505b5050505050905060005b81518110156109da5760007f00000000000000000000000000000000000000000000000000000000000000006001600160a01b0316631698ee8287878686815181106108a757fe5b60200260200101516040518463ffffffff1660e01b815260040180846001600160a01b03168152602001836001600160a01b031681526020018262ffffff168152602001935050505060206040518083038186803b15801561090857600080fd5b505afa15801561091c573d6000803e3d6000fd5b505050506040513d602081101561093257600080fd5b505190506001600160a01b038116158015906109c05750600161ffff16816001600160a01b0316631a6865026040518163ffffffff1660e01b815260040160206040518083038186803b15801561098857600080fd5b505afa15801561099c573d6000803e3d6000fd5b505050506040513d60208110156109b257600080fd5b50516001600160801b031610155b156109d157600193505050506109e1565b5060010161085f565b5060009150505b92915050565b6000806109f48484610e63565b6001600160a01b0380831660009081526003602090815260408083209385168352929052205491935091506107d6576107d68282610e94565b600181565b6000806000610a418685610e63565b6001600160a01b03808316600090815260036020908152604080832093851683529281528282208054845181840281018401909552808552959750939550909391929190830182828015610abe57602002820191906000526020600020905b81546001600160a01b03168152600190910190602001808311610aa0575b505050505090506000610ae582600160149054906101000a900461ffff1661ffff166111db565b90506000610af282611309565b9050610b0081898b8a6113c5565b9998505050505050505050565b60606002805480602002602001604051908101604052809291908181526020018280548015610b8557602002820191906000526020600020906000905b82829054906101000a900462ffffff1662ffffff1681526020019060030190602082600201049283019260010382029150808411610b4a5790505b5050505050905090565b7f000000000000000000000000000000000000000000000000000000000000000081565b6001546001600160a01b0390811691161490565b6001546001600160a01b031690565b6000546001600160a01b0390811691161490565b600154600160a01b900461ffff1681565b610c0433610bd6565b610c51576040805162461bcd60e51b815260206004820152601960248201527823b7bb32b93730b136329d1037b7363c9033b7bb32b93737b960391b604482015290519081900360640190fd5b610c5a816114bc565b50565b610c6633610bd6565b610cb3576040805162461bcd60e51b815260206004820152601960248201527823b7bb32b93730b136329d1037b7363c9033b7bb32b93737b960391b604482015290519081900360640190fd5b6104b061ffff82161115610d0e576040805162461bcd60e51b815260206004820152601860248201527f477265617465725468616e4d6178696d756d506572696f640000000000000000604482015290519081900360640190fd5b603c61ffff82161015610d60576040805162461bcd60e51b815260206004820152601560248201527413195cdcd51a185b935a5b9a5b5d5b54195c9a5bd9605a1b604482015290519081900360640190fd5b6001805461ffff8316600160a01b810261ffff60a01b199092169190911790915560408051918252517ff822214854e5620527e54c8a9293eb963df052efebe733964f7dea0be73f2c8a9181900360200190a150565b6001546001600160a01b0316610e13576040805162461bcd60e51b815260206004820152601f60248201527f476f7665726e61626c653a206e6f2070656e64696e6720676f7665726e6f7200604482015290519081900360640190fd5b60018054600080546001600160a01b03199081166001600160a01b0384161782559091169091556040517fdc57ca23c46d823853915ed5a090ca0ee9db5eb6a46f5c58e1c9158de861fd769190a1565b600080826001600160a01b0316846001600160a01b031610610e86578284610e89565b83835b909590945092505050565b600154600090600f90600160a01b900461ffff166001600160a01b03858116600090815260036020908152604080832093881683529281528282206002805485518185028101850190965280865296909504600a0196509491939190830182828015610f4957602002820191906000526020600020906000905b82829054906101000a900462ffffff1662ffffff1681526020019060030190602082600201049283019260010382029150808411610f0e5790505b5050505050905060005b81518110156111485760007f00000000000000000000000000000000000000000000000000000000000000006001600160a01b0316631698ee828888868681518110610f9b57fe5b60200260200101516040518463ffffffff1660e01b815260040180846001600160a01b03168152602001836001600160a01b031681526020018262ffffff168152602001935050505060206040518083038186803b158015610ffc57600080fd5b505afa158015611010573d6000803e3d6000fd5b505050506040513d602081101561102657600080fd5b505190506001600160a01b038116158015906110b45750600161ffff16816001600160a01b0316631a6865026040518163ffffffff1660e01b815260040160206040518083038186803b15801561107c57600080fd5b505afa158015611090573d6000803e3d6000fd5b505050506040513d60208110156110a657600080fd5b50516001600160801b031610155b1561113f57835460018101855560008581526020812090910180546001600160a01b0319166001600160a01b038416908117909155604080516332148f6760e01b815261ffff89166004820152905191926332148f679260248084019382900301818387803b15801561112657600080fd5b505af115801561113a573d6000803e3d6000fd5b505050505b50600101610f53565b50815461118f576040805162461bcd60e51b815260206004820152601060248201526f14185a5c939bdd14dd5c1c1bdc9d195960821b604482015290519081900360640190fd5b604080516001600160a01b0380881682528616602082015281517f3ab7d717750c4c1a6f7db914185d58220f53ee512fccd7eeab9e9a1e8019822b929181900390910190a15050505050565b6060825167ffffffffffffffff811180156111f557600080fd5b5060405190808252806020026020018201604052801561122f57816020015b61121c611c42565b8152602001906001900390816112145790505b5060408051600280825260608201835292935063ffffffff85166001600160a01b030292600092602083019080368337019050509050838160008151811061127357fe5b602002602001019063ffffffff16908163ffffffff168152505060008160018151811061129c57fe5b602002602001019063ffffffff16908163ffffffff168152505060005b8551811015611300576112e18682815181106112d157fe5b602002602001015186858561156b565b8482815181106112ed57fe5b60209081029190910101526001016112b9565b50505092915050565b6000806000805b845181101561138c5784818151811061132557fe5b60200260200101516000015160020b85828151811061134057fe5b6020026020010151602001516001600160801b0316028301925084818151811061136657fe5b6020026020010151602001516001600160801b0316820191508080600101915050611310565b5080828161139657fe5b0592506000821280156113b157508082816113ad57fe5b0715155b156113be57600019909201915b5050919050565b6000806113d186611842565b90506001600160801b036001600160a01b03821611611440576001600160a01b03808216800290848116908616106114205761141b600160c01b876001600160801b031683611b74565b611438565b61143881876001600160801b0316600160c01b611b74565b9250506114b3565b600061145f6001600160a01b0383168068010000000000000000611b74565b9050836001600160a01b0316856001600160a01b03161061149757611492600160801b876001600160801b031683611b74565b6114af565b6114af81876001600160801b0316600160801b611b74565b9250505b50949350505050565b6001600160a01b038116611517576040805162461bcd60e51b815260206004820152601860248201527f476f7665726e61626c653a207a65726f20616464726573730000000000000000604482015290519081900360640190fd5b600180546001600160a01b0383166001600160a01b0319909116811790915560408051918252517f56bddfa0cee9697cebddf9acd7f23dc6583663b05e007b877056d05017994def9181900360200190a150565b611573611c42565b60405163883bdbfd60e01b815260206004820181815284516024840152845160009384936001600160a01b038b169363883bdbfd938993919283926044019181860191028083838b5b838110156115d45781810151838201526020016115bc565b505050509050019250505060006040518083038186803b1580156115f757600080fd5b505afa15801561160b573d6000803e3d6000fd5b505050506040513d6000823e601f3d908101601f19168201604090815281101561163457600080fd5b810190808051604051939291908464010000000082111561165457600080fd5b90830190602082018581111561166957600080fd5b825186602082028301116401000000008211171561168657600080fd5b82525081516020918201928201910280838360005b838110156116b357818101518382015260200161169b565b50505050905001604052602001805160405193929190846401000000008211156116dc57600080fd5b9083019060208201858111156116f157600080fd5b825186602082028301116401000000008211171561170e57600080fd5b82525081516020918201928201910280838360005b8381101561173b578181015183820152602001611723565b505050509050016040525050509150915060008260008151811061175b57fe5b60200260200101518360018151811061177057fe5b602002602001015103905060008260008151811061178a57fe5b60200260200101518360018151811061179f57fe5b60200260200101510390508763ffffffff168260060b816117bc57fe5b05600290810b900b85526000600683900b1280156117ee57508763ffffffff168260060b816117e757fe5b0760060b15155b1561180357845160001901600290810b900b85525b640100000000600160c01b03602082901b166001600160c01b0388168161182657fe5b046001600160801b031660208601525092979650505050505050565b60008060008360020b12611859578260020b611861565b8260020b6000035b9050620d89e881111561189f576040805162461bcd60e51b81526020600482015260016024820152601560fa1b604482015290519081900360640190fd5b6000600182166118b357600160801b6118c5565b6ffffcb933bd6fad37aa2d162d1a5940015b70ffffffffffffffffffffffffffffffffff16905060028216156118f9576ffff97272373d413259a46990580e213a0260801c5b6004821615611918576ffff2e50f5f656932ef12357cf3c7fdcc0260801c5b6008821615611937576fffe5caca7e10e4e61c3624eaa0941cd00260801c5b6010821615611956576fffcb9843d60f6159c9db58835c9266440260801c5b6020821615611975576fff973b41fa98c081472e6896dfb254c00260801c5b6040821615611994576fff2ea16466c96a3843ec78b326b528610260801c5b60808216156119b3576ffe5dee046a99a2a811c461f1969c30530260801c5b6101008216156119d3576ffcbe86c7900a88aedcffc83b479aa3a40260801c5b6102008216156119f3576ff987a7253ac413176f2b074cf7815e540260801c5b610400821615611a13576ff3392b0822b70005940c7a398e4b70f30260801c5b610800821615611a33576fe7159475a2c29b7443b29c7fa6e889d90260801c5b611000821615611a53576fd097f3bdfd2022b8845ad8f792aa58250260801c5b612000821615611a73576fa9f746462d870fdf8a65dc1f90e061e50260801c5b614000821615611a93576f70d869a156d2a1b890bb3df62baf32f70260801c5b618000821615611ab3576f31be135f97d08fd981231505542fcfa60260801c5b62010000821615611ad4576f09aa508b5b7a84e1c677de54f3e99bc90260801c5b62020000821615611af4576e5d6af8dedb81196699c329225ee6040260801c5b62040000821615611b13576d2216e584f5fa1ea926041bedfe980260801c5b62080000821615611b30576b048a170391f7dc42444e8fa20260801c5b60008460020b1315611b4b578060001981611b4757fe5b0490505b640100000000810615611b5f576001611b62565b60005b60ff16602082901c0192505050919050565b6000808060001985870986860292508281109083900303905080611baa5760008411611b9f57600080fd5b508290049050611c1d565b808411611bb657600080fd5b6000848688096000868103871696879004966002600389028118808a02820302808a02820302808a02820302808a02820302808a02820302808a02909103029181900381900460010186841190950394909402919094039290920491909117919091029150505b9392505050565b5080546000825590600052602060002090810190610c5a9190611c59565b604080518082019091526000808252602082015290565b5b80821115611c6e5760008155600101611c5a565b509056fe476f7665726e61626c653a206f6e6c792070656e64696e6720676f7665726e6f72a2646970667358221220f131965f05bbd015e07d16e337bb8bf6ddfe29ba5e7276d408fa792a864e0bfd64736f6c63430007060033",
  "devdoc": {
    "kind": "dev",
    "methods": {
      "addFeeTier(uint24)": {
        "details": "Will revert if the provided fee tier is not supported by Uniswap V3",
        "params": {
          "_feeTier": "The new fee tier"
        }
      },
      "addSupportForPairIfNeeded(address,address)": {
        "details": "Will revert if pair cannot be supported. _tokenA and _tokenB may be passed in either tokenA/tokenB or tokenB/tokenA order",
        "params": {
          "_tokenA": "One of the pair's tokens",
          "_tokenB": "The other of the pair's tokens"
        }
      },
      "canSupportPair(address,address)": {
        "details": "_tokenA and _tokenB may be passed in either tokenA/tokenB or tokenB/tokenA order",
        "params": {
          "_tokenA": "One of the pair's tokens",
          "_tokenB": "The other of the pair's tokens"
        },
        "returns": {
          "_0": "Whether the given pair of tokens can be supported by the oracle"
        }
      },
      "poolsUsedForPair(address,address)": {
        "details": "_tokenA and _tokenB may be passed in either tokenA/tokenB or tokenB/tokenA order",
        "returns": {
          "_usedPools": "An array with all pools used for quoting the given pair"
        }
      },
      "quote(address,uint128,address)": {
        "params": {
          "_amountIn": "The amount that will be provided",
          "_tokenIn": "The token that will be provided",
          "_tokenOut": "The token we would like to quote"
        },
        "returns": {
          "_amountOut": "How much _tokenOut will be returned in exchange for _amountIn amount of _tokenIn"
        }
      },
      "reconfigureSupportForPair(address,address)": {
        "details": "Will revert if pair cannot be supported. _tokenA and _tokenB may be passed in either tokenA/tokenB or tokenB/tokenA order",
        "params": {
          "_tokenA": "One of the pair's tokens",
          "_tokenB": "The other of the pair's tokens"
        }
      },
      "setPeriod(uint16)": {
        "details": "Will revert it is lower than MINIMUM_PERIOD or greater than MAXIMUM_PERIOD WARNING: increasing the period could cause big problems, because Uniswap V3 pools might not support a TWAP so old.",
        "params": {
          "_period": "The new period"
        }
      },
      "supportedFeeTiers()": {
        "returns": {
          "_feeTiers": "An array of all supported fee tiers"
        }
      }
    },
    "stateVariables": {
      "MAXIMUM_PERIOD": {
        "details": "Cannot be modified",
        "return": "The maximum possible period"
      },
      "MINIMUM_LIQUIDITY_THRESHOLD": {
        "details": "This check is only performed when adding support for a pair. If the pool's liquidity then goes below the threshold, then it will still be used for the quote calculation",
        "return": "The minimum liquidity threshold"
      },
      "MINIMUM_PERIOD": {
        "details": "Cannot be modified",
        "return": "The minimum possible period"
      },
      "factory": {
        "return": "_factory The Uniswap V3 Factory"
      },
      "period": {
        "return": "_period The period used for the TWAP"
      }
    },
    "version": 1
  },
  "userdoc": {
    "events": {
      "AddedFeeTier(uint24)": {
        "notice": "Emitted when a new fee tier is added"
      },
      "AddedSupportForPairInUniswapOracle(address,address)": {
        "notice": "Emitted when the oracle add supports for a new pair"
      },
      "PeriodChanged(uint32)": {
        "notice": "Emitted when a new period is set"
      }
    },
    "kind": "user",
    "methods": {
      "MAXIMUM_PERIOD()": {
        "notice": "Returns maximum possible period"
      },
      "MINIMUM_LIQUIDITY_THRESHOLD()": {
        "notice": "Returns the minimum liquidity that a pool needs to have in order to be used for a pair's quote"
      },
      "MINIMUM_PERIOD()": {
        "notice": "Returns minimum possible period"
      },
      "addFeeTier(uint24)": {
        "notice": "Adds support for a new Uniswap V3 fee tier"
      },
      "addSupportForPairIfNeeded(address,address)": {
        "notice": "Adds support for a given pair if the oracle didn't support it already. If called for a pair that is already supported, then nothing will happen. This function will let the oracle take some actions to configure the pair, in preparation for future quotes."
      },
      "canSupportPair(address,address)": {
        "notice": "Returns whether this oracle can support this pair of tokens"
      },
      "factory()": {
        "notice": "Returns the Uniswap V3 Factory"
      },
      "period()": {
        "notice": "Returns the period used for the TWAP calculation"
      },
      "poolsUsedForPair(address,address)": {
        "notice": "Returns a list of all Uniswap V3 pools used for a given pair"
      },
      "quote(address,uint128,address)": {
        "notice": "Returns a quote, based on the given tokens and amount"
      },
      "reconfigureSupportForPair(address,address)": {
        "notice": "Reconfigures support for a given pair. This function will let the oracle take some actions to configure the pair, in preparation for future quotes. Can be called many times in order to let the oracle re-configure for a new context."
      },
      "setPeriod(uint16)": {
        "notice": "Sets the period to be used for the TWAP calculation"
      },
      "supportedFeeTiers()": {
        "notice": "Returns a list of all supported Uniswap V3 fee tiers"
      }
    },
    "version": 1
  },
  "storageLayout": {
    "storage": [
      {
        "astId": 2906,
        "contract": "contracts/oracles/UniswapV3Oracle.sol:UniswapV3Oracle",
        "label": "_governor",
        "offset": 0,
        "slot": "0",
        "type": "t_address"
      },
      {
        "astId": 2908,
        "contract": "contracts/oracles/UniswapV3Oracle.sol:UniswapV3Oracle",
        "label": "_pendingGovernor",
        "offset": 0,
        "slot": "1",
        "type": "t_address"
      },
      {
        "astId": 2390,
        "contract": "contracts/oracles/UniswapV3Oracle.sol:UniswapV3Oracle",
        "label": "period",
        "offset": 20,
        "slot": "1",
        "type": "t_uint16"
      },
      {
        "astId": 2397,
        "contract": "contracts/oracles/UniswapV3Oracle.sol:UniswapV3Oracle",
        "label": "_supportedFeeTiers",
        "offset": 0,
        "slot": "2",
        "type": "t_array(t_uint24)dyn_storage"
      },
      {
        "astId": 2404,
        "contract": "contracts/oracles/UniswapV3Oracle.sol:UniswapV3Oracle",
        "label": "_poolsForPair",
        "offset": 0,
        "slot": "3",
        "type": "t_mapping(t_address,t_mapping(t_address,t_array(t_address)dyn_storage))"
      }
    ],
    "types": {
      "t_address": {
        "encoding": "inplace",
        "label": "address",
        "numberOfBytes": "20"
      },
      "t_array(t_address)dyn_storage": {
        "base": "t_address",
        "encoding": "dynamic_array",
        "label": "address[]",
        "numberOfBytes": "32"
      },
      "t_array(t_uint24)dyn_storage": {
        "base": "t_uint24",
        "encoding": "dynamic_array",
        "label": "uint24[]",
        "numberOfBytes": "32"
      },
      "t_mapping(t_address,t_array(t_address)dyn_storage)": {
        "encoding": "mapping",
        "key": "t_address",
        "label": "mapping(address => address[])",
        "numberOfBytes": "32",
        "value": "t_array(t_address)dyn_storage"
      },
      "t_mapping(t_address,t_mapping(t_address,t_array(t_address)dyn_storage))": {
        "encoding": "mapping",
        "key": "t_address",
        "label": "mapping(address => mapping(address => address[]))",
        "numberOfBytes": "32",
        "value": "t_mapping(t_address,t_array(t_address)dyn_storage)"
      },
      "t_uint16": {
        "encoding": "inplace",
        "label": "uint16",
        "numberOfBytes": "2"
      },
      "t_uint24": {
        "encoding": "inplace",
        "label": "uint24",
        "numberOfBytes": "3"
      }
    }
  }
}