{
  "address": "0x0EE0E687eac115b45aac9930e7D76A77A9dfDb57",
  "abi": [
    {
      "inputs": [
        {
          "internalType": "address",
          "name": "_immediateGovernor",
          "type": "address"
        },
        {
          "internalType": "address",
          "name": "_timeLockedGovernor",
          "type": "address"
        },
        {
          "internalType": "address",
          "name": "_feeRecipient",
          "type": "address"
        },
        {
          "internalType": "contract IDCATokenDescriptor",
          "name": "_nftDescriptor",
          "type": "address"
        },
        {
          "internalType": "contract ITimeWeightedOracle",
          "name": "_oracle",
          "type": "address"
        }
      ],
      "stateMutability": "nonpayable",
      "type": "constructor"
    },
    {
      "inputs": [],
      "name": "EmptyDescription",
      "type": "error"
    },
    {
      "inputs": [],
      "name": "HighFee",
      "type": "error"
    },
    {
      "inputs": [],
      "name": "InvalidParams",
      "type": "error"
    },
    {
      "inputs": [],
      "name": "ZeroAddress",
      "type": "error"
    },
    {
      "inputs": [],
      "name": "ZeroInterval",
      "type": "error"
    },
    {
      "anonymous": false,
      "inputs": [
        {
          "indexed": false,
          "internalType": "address",
          "name": "_feeRecipient",
          "type": "address"
        }
      ],
      "name": "FeeRecipientSet",
      "type": "event"
    },
    {
      "anonymous": false,
      "inputs": [
        {
          "indexed": false,
          "internalType": "uint32",
          "name": "_feeSet",
          "type": "uint32"
        }
      ],
      "name": "LoanFeeSet",
      "type": "event"
    },
    {
      "anonymous": false,
      "inputs": [
        {
          "indexed": false,
          "internalType": "contract IDCATokenDescriptor",
          "name": "_descriptor",
          "type": "address"
        }
      ],
      "name": "NFTDescriptorSet",
      "type": "event"
    },
    {
      "anonymous": false,
      "inputs": [
        {
          "indexed": false,
          "internalType": "contract ITimeWeightedOracle",
          "name": "_oracle",
          "type": "address"
        }
      ],
      "name": "OracleSet",
      "type": "event"
    },
    {
      "anonymous": false,
      "inputs": [
        {
          "indexed": false,
          "internalType": "address",
          "name": "account",
          "type": "address"
        }
      ],
      "name": "Paused",
      "type": "event"
    },
    {
      "anonymous": false,
      "inputs": [
        {
          "indexed": true,
          "internalType": "bytes32",
          "name": "role",
          "type": "bytes32"
        },
        {
          "indexed": true,
          "internalType": "bytes32",
          "name": "previousAdminRole",
          "type": "bytes32"
        },
        {
          "indexed": true,
          "internalType": "bytes32",
          "name": "newAdminRole",
          "type": "bytes32"
        }
      ],
      "name": "RoleAdminChanged",
      "type": "event"
    },
    {
      "anonymous": false,
      "inputs": [
        {
          "indexed": true,
          "internalType": "bytes32",
          "name": "role",
          "type": "bytes32"
        },
        {
          "indexed": true,
          "internalType": "address",
          "name": "account",
          "type": "address"
        },
        {
          "indexed": true,
          "internalType": "address",
          "name": "sender",
          "type": "address"
        }
      ],
      "name": "RoleGranted",
      "type": "event"
    },
    {
      "anonymous": false,
      "inputs": [
        {
          "indexed": true,
          "internalType": "bytes32",
          "name": "role",
          "type": "bytes32"
        },
        {
          "indexed": true,
          "internalType": "address",
          "name": "account",
          "type": "address"
        },
        {
          "indexed": true,
          "internalType": "address",
          "name": "sender",
          "type": "address"
        }
      ],
      "name": "RoleRevoked",
      "type": "event"
    },
    {
      "anonymous": false,
      "inputs": [
        {
          "indexed": false,
          "internalType": "uint32",
          "name": "_feeSet",
          "type": "uint32"
        }
      ],
      "name": "SwapFeeSet",
      "type": "event"
    },
    {
      "anonymous": false,
      "inputs": [
        {
          "indexed": false,
          "internalType": "uint32[]",
          "name": "_swapIntervals",
          "type": "uint32[]"
        },
        {
          "indexed": false,
          "internalType": "string[]",
          "name": "_descriptions",
          "type": "string[]"
        }
      ],
      "name": "SwapIntervalsAllowed",
      "type": "event"
    },
    {
      "anonymous": false,
      "inputs": [
        {
          "indexed": false,
          "internalType": "uint32[]",
          "name": "_swapIntervals",
          "type": "uint32[]"
        }
      ],
      "name": "SwapIntervalsForbidden",
      "type": "event"
    },
    {
      "anonymous": false,
      "inputs": [
        {
          "indexed": false,
          "internalType": "address",
          "name": "account",
          "type": "address"
        }
      ],
      "name": "Unpaused",
      "type": "event"
    },
    {
      "inputs": [],
      "name": "DEFAULT_ADMIN_ROLE",
      "outputs": [
        {
          "internalType": "bytes32",
          "name": "",
          "type": "bytes32"
        }
      ],
      "stateMutability": "view",
      "type": "function"
    },
    {
      "inputs": [],
      "name": "FEE_PRECISION",
      "outputs": [
        {
          "internalType": "uint24",
          "name": "",
          "type": "uint24"
        }
      ],
      "stateMutability": "view",
      "type": "function"
    },
    {
      "inputs": [],
      "name": "IMMEDIATE_ROLE",
      "outputs": [
        {
          "internalType": "bytes32",
          "name": "",
          "type": "bytes32"
        }
      ],
      "stateMutability": "view",
      "type": "function"
    },
    {
      "inputs": [],
      "name": "MAX_FEE",
      "outputs": [
        {
          "internalType": "uint32",
          "name": "",
          "type": "uint32"
        }
      ],
      "stateMutability": "view",
      "type": "function"
    },
    {
      "inputs": [],
      "name": "TIME_LOCKED_ROLE",
      "outputs": [
        {
          "internalType": "bytes32",
          "name": "",
          "type": "bytes32"
        }
      ],
      "stateMutability": "view",
      "type": "function"
    },
    {
      "inputs": [
        {
          "internalType": "uint32[]",
          "name": "_swapIntervals",
          "type": "uint32[]"
        },
        {
          "internalType": "string[]",
          "name": "_descriptions",
          "type": "string[]"
        }
      ],
      "name": "addSwapIntervalsToAllowedList",
      "outputs": [],
      "stateMutability": "nonpayable",
      "type": "function"
    },
    {
      "inputs": [],
      "name": "allowedSwapIntervals",
      "outputs": [
        {
          "internalType": "uint32[]",
          "name": "__allowedSwapIntervals",
          "type": "uint32[]"
        }
      ],
      "stateMutability": "view",
      "type": "function"
    },
    {
      "inputs": [],
      "name": "feeRecipient",
      "outputs": [
        {
          "internalType": "address",
          "name": "",
          "type": "address"
        }
      ],
      "stateMutability": "view",
      "type": "function"
    },
    {
      "inputs": [
        {
          "internalType": "bytes32",
          "name": "role",
          "type": "bytes32"
        }
      ],
      "name": "getRoleAdmin",
      "outputs": [
        {
          "internalType": "bytes32",
          "name": "",
          "type": "bytes32"
        }
      ],
      "stateMutability": "view",
      "type": "function"
    },
    {
      "inputs": [
        {
          "internalType": "bytes32",
          "name": "role",
          "type": "bytes32"
        },
        {
          "internalType": "address",
          "name": "account",
          "type": "address"
        }
      ],
      "name": "grantRole",
      "outputs": [],
      "stateMutability": "nonpayable",
      "type": "function"
    },
    {
      "inputs": [
        {
          "internalType": "bytes32",
          "name": "role",
          "type": "bytes32"
        },
        {
          "internalType": "address",
          "name": "account",
          "type": "address"
        }
      ],
      "name": "hasRole",
      "outputs": [
        {
          "internalType": "bool",
          "name": "",
          "type": "bool"
        }
      ],
      "stateMutability": "view",
      "type": "function"
    },
    {
      "inputs": [
        {
          "internalType": "uint32",
          "name": "",
          "type": "uint32"
        }
      ],
      "name": "intervalDescription",
      "outputs": [
        {
          "internalType": "string",
          "name": "",
          "type": "string"
        }
      ],
      "stateMutability": "view",
      "type": "function"
    },
    {
      "inputs": [
        {
          "internalType": "uint32",
          "name": "_swapInterval",
          "type": "uint32"
        }
      ],
      "name": "isSwapIntervalAllowed",
      "outputs": [
        {
          "internalType": "bool",
          "name": "",
          "type": "bool"
        }
      ],
      "stateMutability": "view",
      "type": "function"
    },
    {
      "inputs": [],
      "name": "loanFee",
      "outputs": [
        {
          "internalType": "uint32",
          "name": "",
          "type": "uint32"
        }
      ],
      "stateMutability": "view",
      "type": "function"
    },
    {
      "inputs": [],
      "name": "loanParameters",
      "outputs": [
        {
          "components": [
            {
              "internalType": "address",
              "name": "feeRecipient",
              "type": "address"
            },
            {
              "internalType": "bool",
              "name": "isPaused",
              "type": "bool"
            },
            {
              "internalType": "uint32",
              "name": "loanFee",
              "type": "uint32"
            }
          ],
          "internalType": "struct IDCAGlobalParameters.LoanParameters",
          "name": "_loanParameters",
          "type": "tuple"
        }
      ],
      "stateMutability": "view",
      "type": "function"
    },
    {
      "inputs": [],
      "name": "nftDescriptor",
      "outputs": [
        {
          "internalType": "contract IDCATokenDescriptor",
          "name": "",
          "type": "address"
        }
      ],
      "stateMutability": "view",
      "type": "function"
    },
    {
      "inputs": [],
      "name": "oracle",
      "outputs": [
        {
          "internalType": "contract ITimeWeightedOracle",
          "name": "",
          "type": "address"
        }
      ],
      "stateMutability": "view",
      "type": "function"
    },
    {
      "inputs": [],
      "name": "pause",
      "outputs": [],
      "stateMutability": "nonpayable",
      "type": "function"
    },
    {
      "inputs": [],
      "name": "paused",
      "outputs": [
        {
          "internalType": "bool",
          "name": "",
          "type": "bool"
        }
      ],
      "stateMutability": "view",
      "type": "function"
    },
    {
      "inputs": [
        {
          "internalType": "uint32[]",
          "name": "_swapIntervals",
          "type": "uint32[]"
        }
      ],
      "name": "removeSwapIntervalsFromAllowedList",
      "outputs": [],
      "stateMutability": "nonpayable",
      "type": "function"
    },
    {
      "inputs": [
        {
          "internalType": "bytes32",
          "name": "role",
          "type": "bytes32"
        },
        {
          "internalType": "address",
          "name": "account",
          "type": "address"
        }
      ],
      "name": "renounceRole",
      "outputs": [],
      "stateMutability": "nonpayable",
      "type": "function"
    },
    {
      "inputs": [
        {
          "internalType": "bytes32",
          "name": "role",
          "type": "bytes32"
        },
        {
          "internalType": "address",
          "name": "account",
          "type": "address"
        }
      ],
      "name": "revokeRole",
      "outputs": [],
      "stateMutability": "nonpayable",
      "type": "function"
    },
    {
      "inputs": [
        {
          "internalType": "address",
          "name": "_feeRecipient",
          "type": "address"
        }
      ],
      "name": "setFeeRecipient",
      "outputs": [],
      "stateMutability": "nonpayable",
      "type": "function"
    },
    {
      "inputs": [
        {
          "internalType": "uint32",
          "name": "_loanFee",
          "type": "uint32"
        }
      ],
      "name": "setLoanFee",
      "outputs": [],
      "stateMutability": "nonpayable",
      "type": "function"
    },
    {
      "inputs": [
        {
          "internalType": "contract IDCATokenDescriptor",
          "name": "_descriptor",
          "type": "address"
        }
      ],
      "name": "setNFTDescriptor",
      "outputs": [],
      "stateMutability": "nonpayable",
      "type": "function"
    },
    {
      "inputs": [
        {
          "internalType": "contract ITimeWeightedOracle",
          "name": "_oracle",
          "type": "address"
        }
      ],
      "name": "setOracle",
      "outputs": [],
      "stateMutability": "nonpayable",
      "type": "function"
    },
    {
      "inputs": [
        {
          "internalType": "uint32",
          "name": "_swapFee",
          "type": "uint32"
        }
      ],
      "name": "setSwapFee",
      "outputs": [],
      "stateMutability": "nonpayable",
      "type": "function"
    },
    {
      "inputs": [
        {
          "internalType": "bytes4",
          "name": "interfaceId",
          "type": "bytes4"
        }
      ],
      "name": "supportsInterface",
      "outputs": [
        {
          "internalType": "bool",
          "name": "",
          "type": "bool"
        }
      ],
      "stateMutability": "view",
      "type": "function"
    },
    {
      "inputs": [],
      "name": "swapFee",
      "outputs": [
        {
          "internalType": "uint32",
          "name": "",
          "type": "uint32"
        }
      ],
      "stateMutability": "view",
      "type": "function"
    },
    {
      "inputs": [],
      "name": "swapParameters",
      "outputs": [
        {
          "components": [
            {
              "internalType": "address",
              "name": "feeRecipient",
              "type": "address"
            },
            {
              "internalType": "bool",
              "name": "isPaused",
              "type": "bool"
            },
            {
              "internalType": "uint32",
              "name": "swapFee",
              "type": "uint32"
            },
            {
              "internalType": "contract ITimeWeightedOracle",
              "name": "oracle",
              "type": "address"
            }
          ],
          "internalType": "struct IDCAGlobalParameters.SwapParameters",
          "name": "_swapParameters",
          "type": "tuple"
        }
      ],
      "stateMutability": "view",
      "type": "function"
    },
    {
      "inputs": [],
      "name": "unpause",
      "outputs": [],
      "stateMutability": "nonpayable",
      "type": "function"
    }
  ],
  "transactionHash": "0x45733ef3851568e187b791c562fe948338a0a1934a3af752d4eac0d6ec70b84c",
  "args": [
    "0x9012D9bbFdcEe42c618f9464b4632568e6385dCa",
    "0x9012D9bbFdcEe42c618f9464b4632568e6385dCa",
    "0x0daABaB6f7E7Bb6befA07F88cAE10E5113aF11Cc",
    "0x3d380a68092A1CF38F4b860ffA07c96713fa1665",
    "0xeD9fdeeF1826132F88F015D2c782Ad6F370dF001"
  ],
  "solcInputHash": "51b0b3deca141669d4c731cee74238f4",
  "bytecode": "0x608060405260038054600160a01b600160e01b031916647d0000017760a31b1790553480156200002e57600080fd5b5060405162001fb338038062001fb38339810160408190526200005191620002b2565b6001805460ff191690556001600160a01b03851615806200007957506001600160a01b038416155b806200008c57506001600160a01b038316155b806200009f57506001600160a01b038216155b80620000b257506001600160a01b038116155b15620000d15760405163d92e233d60e01b815260040160405180910390fd5b620000ec60008051602062001f9383398151915286620001ae565b620001187ffb63867dc303889c4e19b6276d834e066500dd4210f4434d34089a246beec82a85620001ae565b6200013360008051602062001f9383398151915280620001be565b6200015f7ffb63867dc303889c4e19b6276d834e066500dd4210f4434d34089a246beec82a80620001be565b600180546001600160a01b0394851661010002610100600160a81b0319909116179055600280549284166001600160a01b031993841617905560038054919093169116179055506200034a9050565b620001ba828262000212565b5050565b600082815260208190526040902060010154819060405184907fbd79b86ffe0ab8e8776151514217cd7cacd52c909f66475c3af44e129f0b00ff90600090a460009182526020829052604090912060010155565b6000828152602081815260408083206001600160a01b038516845290915290205460ff16620001ba576000828152602081815260408083206001600160a01b03851684529091529020805460ff191660011790556200026e3390565b6001600160a01b0316816001600160a01b0316837f2f8788117e7eff1d82e926ec794901d17c78024a50270940304540a733656f0d60405160405180910390a45050565b600080600080600060a08688031215620002ca578081fd5b8551620002d78162000331565b6020870151909550620002ea8162000331565b6040870151909450620002fd8162000331565b6060870151909350620003108162000331565b6080870151909250620003238162000331565b809150509295509295909350565b6001600160a01b03811681146200034757600080fd5b50565b611c39806200035a6000396000f3fe608060405234801561001057600080fd5b50600436106101e55760003560e01c80637d361dd31161010f578063b1d0a337116100a2578063d6d788c311610071578063d6d788c31461049a578063da90b03a146104ad578063e63a391f146104c0578063e74b981b146104dd57600080fd5b8063b1d0a33714610431578063bc063e1a1461046c578063caeb93d914610474578063d547741f1461048757600080fd5b806391d14854116100de57806391d14854146103ec5780639bcb5572146103ff5780639eceefe114610416578063a217fddf1461042957600080fd5b80637d361dd3146103a95780637d8e8603146103be5780637dc0d1d0146103d15780638456cb59146103e457600080fd5b806346904840116101875780635c975abb116101565780635c975abb1461035b57806375c890b8146103635780637adbf973146103835780637cad6cd11461039657600080fd5b806346904840146102ed578063480e5da1146103055780634eeeb3eb1461031a57806354cf2aeb1461032f57600080fd5b80632f2ff15d116101c35780632f2ff15d1461029257806336568abe146102a75780633f4ba83a146102ba57806344267570146102c257600080fd5b806301ffc9a7146101ea5780630e55bd1c14610212578063248a9ca314610261575b600080fd5b6101fd6101f83660046117d4565b6104f0565b60405190151581526020015b60405180910390f35b61021a610527565b604051610209919081516001600160a01b03908116825260208084015115159083015260408084015163ffffffff1690830152606092830151169181019190915260800190565b61028461026f36600461178d565b60009081526020819052604090206001015490565b604051908152602001610209565b6102a56102a03660046117a5565b610590565b005b6102a56102b53660046117a5565b6105bb565b6102a561063e565b6002546102d5906001600160a01b031681565b6040516001600160a01b039091168152602001610209565b6001546102d59061010090046001600160a01b031681565b61030d610662565b60405161020991906119c0565b610284600080516020611bc483398151915281565b60035461034690600160a01b900463ffffffff1681565b60405163ffffffff9091168152602001610209565b6101fd610727565b6103766103713660046117fc565b61073a565b6040516102099190611a0a565b6102a56103913660046116c8565b6107d4565b6102a56103a43660046116c8565b61086a565b610284600080516020611be483398151915281565b6102a56103cc3660046116e4565b6108f8565b6003546102d5906001600160a01b031681565b6102a5610a1b565b6101fd6103fa3660046117a5565b610a3c565b60035461034690600160c01b900463ffffffff1681565b6101fd6104243660046117fc565b610a65565b610284600081565b610439610a7b565b6040805182516001600160a01b031681526020808401511515908201529181015163ffffffff1690820152606001610209565b610346610acf565b6102a5610482366004611724565b610ae4565b6102a56104953660046117a5565b610d06565b6102a56104a83660046117fc565b610d2c565b6102a56104bb3660046117fc565b610dd1565b6104c961271081565b60405162ffffff9091168152602001610209565b6102a56104eb3660046116c8565b610e76565b60006001600160e01b03198216637965db0b60e01b148061052157506301ffc9a760e01b6001600160e01b03198316145b92915050565b60408051608081018252600060208201819052918101829052606081019190915260015461010090046001600160a01b03168152610563610727565b1515602082015260035463ffffffff600160a01b82041660408301526001600160a01b0316606082015290565b6000828152602081905260409020600101546105ac8133610f0c565b6105b68383610f70565b505050565b6001600160a01b03811633146106305760405162461bcd60e51b815260206004820152602f60248201527f416363657373436f6e74726f6c3a2063616e206f6e6c792072656e6f756e636560448201526e103937b632b9903337b91039b2b63360891b60648201526084015b60405180910390fd5b61063a8282610ff4565b5050565b600080516020611be48339815191526106578133610f0c565b61065f611059565b50565b6060600061067060056110ee565b90508067ffffffffffffffff81111561069957634e487b7160e01b600052604160045260246000fd5b6040519080825280602002602001820160405280156106c2578160200160208202803683370190505b50915060005b81811015610722576106db6005826110f8565b8382815181106106fb57634e487b7160e01b600052603260045260246000fd5b63ffffffff909216602092830291909101909101528061071a81611b7d565b9150506106c8565b505090565b600061073560015460ff1690565b905090565b6004602052600090815260409020805461075390611b42565b80601f016020809104026020016040519081016040528092919081815260200182805461077f90611b42565b80156107cc5780601f106107a1576101008083540402835291602001916107cc565b820191906000526020600020905b8154815290600101906020018083116107af57829003601f168201915b505050505081565b600080516020611bc48339815191526107ed8133610f0c565b6001600160a01b0382166108145760405163d92e233d60e01b815260040160405180910390fd5b600380546001600160a01b0319166001600160a01b0384169081179091556040519081527f3f32684a32a11dabdbb8c0177de80aa3ae36a004d75210335b49e544e48cd0aa906020015b60405180910390a15050565b600080516020611be48339815191526108838133610f0c565b6001600160a01b0382166108aa5760405163d92e233d60e01b815260040160405180910390fd5b600280546001600160a01b0319166001600160a01b0384169081179091556040519081527f58a2b9171063c6d38177053178bc1844b920884b05d7c9126c480d86b0716bce9060200161085e565b600080516020611be48339815191526109118133610f0c565b60005b828110156109dc5761096a84848381811061093f57634e487b7160e01b600052603260045260246000fd5b905060200201602081019061095491906117fc565b63ffffffff16600561110b90919063ffffffff16565b506004600085858481811061098f57634e487b7160e01b600052603260045260246000fd5b90506020020160208101906109a491906117fc565b63ffffffff1663ffffffff16815260200190815260200160002060006109ca9190611592565b806109d481611b7d565b915050610914565b507fd0359552feffede26fee29bd110dd8e1a3237acd35c7e17a9d3b7330b02f88258383604051610a0e9291906118f7565b60405180910390a1505050565b600080516020611be4833981519152610a348133610f0c565b61065f611117565b6000918252602082815260408084206001600160a01b0393909316845291905290205460ff1690565b6000610521600563ffffffff8085169061119216565b604080516060810182526000602082018190529181019190915260015461010090046001600160a01b03168152610ab0610727565b15156020820152600354600160c01b900463ffffffff16604082015290565b610adc612710600a611a9a565b62ffffff1681565b600080516020611be4833981519152610afd8133610f0c565b838214610b1d57604051635435b28960e11b815260040160405180910390fd5b60005b84811015610cc157858582818110610b4857634e487b7160e01b600052603260045260246000fd5b9050602002016020810190610b5d91906117fc565b63ffffffff16610b805760405163346ff60760e01b815260040160405180910390fd5b838382818110610ba057634e487b7160e01b600052603260045260246000fd5b9050602002810190610bb29190611a3d565b15159050610bd35760405163d937d5df60e01b815260040160405180910390fd5b610c21868683818110610bf657634e487b7160e01b600052603260045260246000fd5b9050602002016020810190610c0b91906117fc565b63ffffffff1660056111aa90919063ffffffff16565b50838382818110610c4257634e487b7160e01b600052603260045260246000fd5b9050602002810190610c549190611a3d565b60046000898986818110610c7857634e487b7160e01b600052603260045260246000fd5b9050602002016020810190610c8d91906117fc565b63ffffffff1681526020810191909152604001600020610cae9290916115cc565b5080610cb981611b7d565b915050610b20565b507fbedbd17c0fc434b767574d7b78c5b856984fbdd13b02606fb750dd37020ddaa385858585604051610cf79493929190611913565b60405180910390a15050505050565b600082815260208190526040902060010154610d228133610f0c565b6105b68383610ff4565b600080516020611bc4833981519152610d458133610f0c565b610d52612710600a611a9a565b62ffffff1663ffffffff83161115610d7d576040516314041af760e31b815260040160405180910390fd5b6003805463ffffffff60a01b1916600160a01b63ffffffff8516908102919091179091556040519081527f5658872a8436367e842f76c14ffbbf8e67a2e70f47b28b3c4154134f72e902d69060200161085e565b600080516020611bc4833981519152610dea8133610f0c565b610df7612710600a611a9a565b62ffffff1663ffffffff83161115610e22576040516314041af760e31b815260040160405180910390fd5b6003805463ffffffff60c01b1916600160c01b63ffffffff8516908102919091179091556040519081527f6d0851a3fe66369a96f833703a09a7cb561e2eea7bc56bb8f247ac599814150f9060200161085e565b600080516020611be4833981519152610e8f8133610f0c565b6001600160a01b038216610eb65760405163d92e233d60e01b815260040160405180910390fd5b60018054610100600160a81b0319166101006001600160a01b038516908102919091179091556040519081527fbf9a9534339a9d6b81696e05dcfb614b7dc518a31d48be3cfb757988381fb3239060200161085e565b610f168282610a3c565b61063a57610f2e816001600160a01b031660146111b6565b610f398360206111b6565b604051602001610f4a929190611882565b60408051601f198184030181529082905262461bcd60e51b825261062791600401611a0a565b610f7a8282610a3c565b61063a576000828152602081815260408083206001600160a01b03851684529091529020805460ff19166001179055610fb03390565b6001600160a01b0316816001600160a01b0316837f2f8788117e7eff1d82e926ec794901d17c78024a50270940304540a733656f0d60405160405180910390a45050565b610ffe8282610a3c565b1561063a576000828152602081815260408083206001600160a01b0385168085529252808320805460ff1916905551339285917ff6391f5c32d9c69d2a47ea670b442974b53935d1edc7fd64eb21e047a839171b9190a45050565b611061610727565b6110a45760405162461bcd60e51b815260206004820152601460248201527314185d5cd8589b194e881b9bdd081c185d5cd95960621b6044820152606401610627565b6001805460ff191690557f5db9ee0a495bf2e6ff9c91a7834c1ba4fdd244a5e8aa4e537bd38aeae4b073aa335b6040516001600160a01b03909116815260200160405180910390a1565b6000610521825490565b60006111048383611398565b9392505050565b6000611104838361142c565b61111f610727565b1561115f5760405162461bcd60e51b815260206004820152601060248201526f14185d5cd8589b194e881c185d5cd95960821b6044820152606401610627565b6001805460ff1916811790557f62e78cea01bee320cd4e420270b5ea74000d11b0c9f74754ebdbfc544b05a258336110d1565b60008181526001830160205260408120541515611104565b60006111048383611543565b606060006111c5836002611ac5565b6111d0906002611a82565b67ffffffffffffffff8111156111f657634e487b7160e01b600052604160045260246000fd5b6040519080825280601f01601f191660200182016040528015611220576020820181803683370190505b509050600360fc1b8160008151811061124957634e487b7160e01b600052603260045260246000fd5b60200101906001600160f81b031916908160001a905350600f60fb1b8160018151811061128657634e487b7160e01b600052603260045260246000fd5b60200101906001600160f81b031916908160001a90535060006112aa846002611ac5565b6112b5906001611a82565b90505b6001811115611349576f181899199a1a9b1b9c1cb0b131b232b360811b85600f16601081106112f757634e487b7160e01b600052603260045260246000fd5b1a60f81b82828151811061131b57634e487b7160e01b600052603260045260246000fd5b60200101906001600160f81b031916908160001a90535060049490941c9361134281611b2b565b90506112b8565b5083156111045760405162461bcd60e51b815260206004820181905260248201527f537472696e67733a20686578206c656e67746820696e73756666696369656e746044820152606401610627565b815460009082106113f65760405162461bcd60e51b815260206004820152602260248201527f456e756d657261626c655365743a20696e646578206f7574206f6620626f756e604482015261647360f01b6064820152608401610627565b82600001828154811061141957634e487b7160e01b600052603260045260246000fd5b9060005260206000200154905092915050565b60008181526001830160205260408120548015611539576000611450600183611ae4565b855490915060009061146490600190611ae4565b9050600086600001828154811061148b57634e487b7160e01b600052603260045260246000fd5b90600052602060002001549050808760000184815481106114bc57634e487b7160e01b600052603260045260246000fd5b6000918252602080832090910192909255828152600189019091526040902084905586548790806114fd57634e487b7160e01b600052603160045260246000fd5b60019003818190600052602060002001600090559055866001016000878152602001908152602001600020600090556001945050505050610521565b6000915050610521565b600081815260018301602052604081205461158a57508154600181810184556000848152602080822090930184905584548482528286019093526040902091909155610521565b506000610521565b50805461159e90611b42565b6000825580601f106115ae575050565b601f01602090049060005260206000209081019061065f9190611650565b8280546115d890611b42565b90600052602060002090601f0160209004810192826115fa5760008555611640565b82601f106116135782800160ff19823516178555611640565b82800160010185558215611640579182015b82811115611640578235825591602001919060010190611625565b5061164c929150611650565b5090565b5b8082111561164c5760008155600101611651565b60008083601f840112611676578182fd5b50813567ffffffffffffffff81111561168d578182fd5b6020830191508360208260051b85010111156116a857600080fd5b9250929050565b803563ffffffff811681146116c357600080fd5b919050565b6000602082840312156116d9578081fd5b813561110481611bae565b600080602083850312156116f6578081fd5b823567ffffffffffffffff81111561170c578182fd5b61171885828601611665565b90969095509350505050565b60008060008060408587031215611739578182fd5b843567ffffffffffffffff80821115611750578384fd5b61175c88838901611665565b90965094506020870135915080821115611774578384fd5b5061178187828801611665565b95989497509550505050565b60006020828403121561179e578081fd5b5035919050565b600080604083850312156117b7578182fd5b8235915060208301356117c981611bae565b809150509250929050565b6000602082840312156117e5578081fd5b81356001600160e01b031981168114611104578182fd5b60006020828403121561180d578081fd5b611104826116af565b81835260006020808501945082825b8581101561184e5763ffffffff61183b836116af565b1687529582019590820190600101611825565b509495945050505050565b81835281816020850137506000828201602090810191909152601f909101601f19169091010190565b7f416363657373436f6e74726f6c3a206163636f756e74200000000000000000008152600083516118ba816017850160208801611afb565b7001034b99036b4b9b9b4b733903937b6329607d1b60179184019182015283516118eb816028840160208801611afb565b01602801949350505050565b60208152600061190b602083018486611816565b949350505050565b604081526000611927604083018688611816565b602083820381850152818583528183019050818660051b84010187855b888110156119b057858303601f190184528135368b9003601e19018112611969578788fd5b8a01803567ffffffffffffffff811115611981578889fd5b8036038c131561198f578889fd5b61199c8582898501611859565b958701959450505090840190600101611944565b50909a9950505050505050505050565b6020808252825182820181905260009190848201906040850190845b818110156119fe57835163ffffffff16835292840192918401916001016119dc565b50909695505050505050565b6020815260008251806020840152611a29816040850160208701611afb565b601f01601f19169190910160400192915050565b6000808335601e19843603018112611a53578283fd5b83018035915067ffffffffffffffff821115611a6d578283fd5b6020019150368190038213156116a857600080fd5b60008219821115611a9557611a95611b98565b500190565b600062ffffff80831681851681830481118215151615611abc57611abc611b98565b02949350505050565b6000816000190483118215151615611adf57611adf611b98565b500290565b600082821015611af657611af6611b98565b500390565b60005b83811015611b16578181015183820152602001611afe565b83811115611b25576000848401525b50505050565b600081611b3a57611b3a611b98565b506000190190565b600181811c90821680611b5657607f821691505b60208210811415611b7757634e487b7160e01b600052602260045260246000fd5b50919050565b6000600019821415611b9157611b91611b98565b5060010190565b634e487b7160e01b600052601160045260246000fd5b6001600160a01b038116811461065f57600080fdfefb63867dc303889c4e19b6276d834e066500dd4210f4434d34089a246beec82a313f8c5ec4103e5607b5d8b3519ab06a512037396eaf72a07527d8b838012ed4a264697066735822122004bfec9661c72a215fc8527967004f955aeb59b1c0ef246b2cf28727b9f162d864736f6c63430008040033313f8c5ec4103e5607b5d8b3519ab06a512037396eaf72a07527d8b838012ed4",
  "devdoc": {
    "kind": "dev",
    "methods": {
      "getRoleAdmin(bytes32)": {
        "details": "Returns the admin role that controls `role`. See {grantRole} and {revokeRole}. To change a role's admin, use {_setRoleAdmin}."
      },
      "grantRole(bytes32,address)": {
        "details": "Grants `role` to `account`. If `account` had not been already granted `role`, emits a {RoleGranted} event. Requirements: - the caller must have ``role``'s admin role."
      },
      "hasRole(bytes32,address)": {
        "details": "Returns `true` if `account` has been granted `role`."
      },
      "renounceRole(bytes32,address)": {
        "details": "Revokes `role` from the calling account. Roles are often managed via {grantRole} and {revokeRole}: this function's purpose is to provide a mechanism for accounts to lose their privileges if they are compromised (such as when a trusted device is misplaced). If the calling account had been granted `role`, emits a {RoleRevoked} event. Requirements: - the caller must be `account`."
      },
      "revokeRole(bytes32,address)": {
        "details": "Revokes `role` from `account`. If `account` had been granted `role`, emits a {RoleRevoked} event. Requirements: - the caller must have ``role``'s admin role."
      },
      "supportsInterface(bytes4)": {
        "details": "See {IERC165-supportsInterface}."
      }
    },
    "version": 1
  },
  "userdoc": {
    "kind": "user",
    "methods": {},
    "version": 1
  },
  "storageLayout": {
    "storage": [
      {
        "astId": 62,
        "contract": "contracts/DCAGlobalParameters/DCAGlobalParameters.sol:DCAGlobalParameters",
        "label": "_roles",
        "offset": 0,
        "slot": "0",
        "type": "t_mapping(t_bytes32,t_struct(RoleData)57_storage)"
      },
      {
        "astId": 385,
        "contract": "contracts/DCAGlobalParameters/DCAGlobalParameters.sol:DCAGlobalParameters",
        "label": "_paused",
        "offset": 0,
        "slot": "1",
        "type": "t_bool"
      },
      {
        "astId": 4787,
        "contract": "contracts/DCAGlobalParameters/DCAGlobalParameters.sol:DCAGlobalParameters",
        "label": "feeRecipient",
        "offset": 1,
        "slot": "1",
        "type": "t_address"
      },
      {
        "astId": 4791,
        "contract": "contracts/DCAGlobalParameters/DCAGlobalParameters.sol:DCAGlobalParameters",
        "label": "nftDescriptor",
        "offset": 0,
        "slot": "2",
        "type": "t_contract(IDCATokenDescriptor)9682"
      },
      {
        "astId": 4795,
        "contract": "contracts/DCAGlobalParameters/DCAGlobalParameters.sol:DCAGlobalParameters",
        "label": "oracle",
        "offset": 0,
        "slot": "3",
        "type": "t_contract(ITimeWeightedOracle)9743"
      },
      {
        "astId": 4799,
        "contract": "contracts/DCAGlobalParameters/DCAGlobalParameters.sol:DCAGlobalParameters",
        "label": "swapFee",
        "offset": 20,
        "slot": "3",
        "type": "t_uint32"
      },
      {
        "astId": 4803,
        "contract": "contracts/DCAGlobalParameters/DCAGlobalParameters.sol:DCAGlobalParameters",
        "label": "loanFee",
        "offset": 24,
        "slot": "3",
        "type": "t_uint32"
      },
      {
        "astId": 4818,
        "contract": "contracts/DCAGlobalParameters/DCAGlobalParameters.sol:DCAGlobalParameters",
        "label": "intervalDescription",
        "offset": 0,
        "slot": "4",
        "type": "t_mapping(t_uint32,t_string_storage)"
      },
      {
        "astId": 4821,
        "contract": "contracts/DCAGlobalParameters/DCAGlobalParameters.sol:DCAGlobalParameters",
        "label": "_allowedSwapIntervals",
        "offset": 0,
        "slot": "5",
        "type": "t_struct(UintSet)3283_storage"
      }
    ],
    "types": {
      "t_address": {
        "encoding": "inplace",
        "label": "address",
        "numberOfBytes": "20"
      },
      "t_array(t_bytes32)dyn_storage": {
        "base": "t_bytes32",
        "encoding": "dynamic_array",
        "label": "bytes32[]",
        "numberOfBytes": "32"
      },
      "t_bool": {
        "encoding": "inplace",
        "label": "bool",
        "numberOfBytes": "1"
      },
      "t_bytes32": {
        "encoding": "inplace",
        "label": "bytes32",
        "numberOfBytes": "32"
      },
      "t_contract(IDCATokenDescriptor)9682": {
        "encoding": "inplace",
        "label": "contract IDCATokenDescriptor",
        "numberOfBytes": "20"
      },
      "t_contract(ITimeWeightedOracle)9743": {
        "encoding": "inplace",
        "label": "contract ITimeWeightedOracle",
        "numberOfBytes": "20"
      },
      "t_mapping(t_address,t_bool)": {
        "encoding": "mapping",
        "key": "t_address",
        "label": "mapping(address => bool)",
        "numberOfBytes": "32",
        "value": "t_bool"
      },
      "t_mapping(t_bytes32,t_struct(RoleData)57_storage)": {
        "encoding": "mapping",
        "key": "t_bytes32",
        "label": "mapping(bytes32 => struct AccessControl.RoleData)",
        "numberOfBytes": "32",
        "value": "t_struct(RoleData)57_storage"
      },
      "t_mapping(t_bytes32,t_uint256)": {
        "encoding": "mapping",
        "key": "t_bytes32",
        "label": "mapping(bytes32 => uint256)",
        "numberOfBytes": "32",
        "value": "t_uint256"
      },
      "t_mapping(t_uint32,t_string_storage)": {
        "encoding": "mapping",
        "key": "t_uint32",
        "label": "mapping(uint32 => string)",
        "numberOfBytes": "32",
        "value": "t_string_storage"
      },
      "t_string_storage": {
        "encoding": "bytes",
        "label": "string",
        "numberOfBytes": "32"
      },
      "t_struct(RoleData)57_storage": {
        "encoding": "inplace",
        "label": "struct AccessControl.RoleData",
        "members": [
          {
            "astId": 54,
            "contract": "contracts/DCAGlobalParameters/DCAGlobalParameters.sol:DCAGlobalParameters",
            "label": "members",
            "offset": 0,
            "slot": "0",
            "type": "t_mapping(t_address,t_bool)"
          },
          {
            "astId": 56,
            "contract": "contracts/DCAGlobalParameters/DCAGlobalParameters.sol:DCAGlobalParameters",
            "label": "adminRole",
            "offset": 0,
            "slot": "1",
            "type": "t_bytes32"
          }
        ],
        "numberOfBytes": "64"
      },
      "t_struct(Set)2881_storage": {
        "encoding": "inplace",
        "label": "struct EnumerableSet.Set",
        "members": [
          {
            "astId": 2876,
            "contract": "contracts/DCAGlobalParameters/DCAGlobalParameters.sol:DCAGlobalParameters",
            "label": "_values",
            "offset": 0,
            "slot": "0",
            "type": "t_array(t_bytes32)dyn_storage"
          },
          {
            "astId": 2880,
            "contract": "contracts/DCAGlobalParameters/DCAGlobalParameters.sol:DCAGlobalParameters",
            "label": "_indexes",
            "offset": 0,
            "slot": "1",
            "type": "t_mapping(t_bytes32,t_uint256)"
          }
        ],
        "numberOfBytes": "64"
      },
      "t_struct(UintSet)3283_storage": {
        "encoding": "inplace",
        "label": "struct EnumerableSet.UintSet",
        "members": [
          {
            "astId": 3282,
            "contract": "contracts/DCAGlobalParameters/DCAGlobalParameters.sol:DCAGlobalParameters",
            "label": "_inner",
            "offset": 0,
            "slot": "0",
            "type": "t_struct(Set)2881_storage"
          }
        ],
        "numberOfBytes": "64"
      },
      "t_uint256": {
        "encoding": "inplace",
        "label": "uint256",
        "numberOfBytes": "32"
      },
      "t_uint32": {
        "encoding": "inplace",
        "label": "uint32",
        "numberOfBytes": "4"
      }
    }
  }
}