{
  "address": "0xbeB86E729d2742461386a7C42d735F1Cf8Ce5202",
  "abi": [
    {
      "inputs": [
        {
          "internalType": "address",
          "name": "_governor",
          "type": "address"
        },
        {
          "internalType": "contract IDCAFactory",
          "name": "_factory",
          "type": "address"
        },
        {
          "internalType": "contract ISwapRouter",
          "name": "_swapRouter",
          "type": "address"
        },
        {
          "internalType": "contract ICustomQuoter",
          "name": "_quoter",
          "type": "address"
        }
      ],
      "stateMutability": "nonpayable",
      "type": "constructor"
    },
    {
      "inputs": [],
      "name": "InvalidPairAddress",
      "type": "error"
    },
    {
      "inputs": [],
      "name": "ZeroAddress",
      "type": "error"
    },
    {
      "inputs": [],
      "name": "ZeroPairsToSwap",
      "type": "error"
    },
    {
      "anonymous": false,
      "inputs": [],
      "name": "PendingGovernorAccepted",
      "type": "event"
    },
    {
      "anonymous": false,
      "inputs": [
        {
          "indexed": false,
          "internalType": "address",
          "name": "_pendingGovernor",
          "type": "address"
        }
      ],
      "name": "PendingGovernorSet",
      "type": "event"
    },
    {
      "anonymous": false,
      "inputs": [
        {
          "indexed": false,
          "internalType": "address[]",
          "name": "_pairs",
          "type": "address[]"
        }
      ],
      "name": "StoppedWatchingPairs",
      "type": "event"
    },
    {
      "anonymous": false,
      "inputs": [
        {
          "components": [
            {
              "internalType": "contract IDCAPair",
              "name": "pair",
              "type": "address"
            },
            {
              "internalType": "uint24",
              "name": "bestFeeTier",
              "type": "uint24"
            }
          ],
          "indexed": false,
          "internalType": "struct IDCASwapper.PairToSwap[]",
          "name": "_pairsToSwap",
          "type": "tuple[]"
        },
        {
          "indexed": false,
          "internalType": "uint256",
          "name": "_amountSwapped",
          "type": "uint256"
        }
      ],
      "name": "Swapped",
      "type": "event"
    },
    {
      "anonymous": false,
      "inputs": [
        {
          "indexed": false,
          "internalType": "address[]",
          "name": "_pairs",
          "type": "address[]"
        }
      ],
      "name": "WatchingNewPairs",
      "type": "event"
    },
    {
      "inputs": [
        {
          "internalType": "address",
          "name": "",
          "type": "address"
        },
        {
          "internalType": "contract IERC20Detailed",
          "name": "_tokenA",
          "type": "address"
        },
        {
          "internalType": "contract IERC20Detailed",
          "name": "_tokenB",
          "type": "address"
        },
        {
          "internalType": "uint256",
          "name": "",
          "type": "uint256"
        },
        {
          "internalType": "uint256",
          "name": "",
          "type": "uint256"
        },
        {
          "internalType": "bool",
          "name": "_isRewardTokenA",
          "type": "bool"
        },
        {
          "internalType": "uint256",
          "name": "_rewardAmount",
          "type": "uint256"
        },
        {
          "internalType": "uint256",
          "name": "_amountToProvide",
          "type": "uint256"
        },
        {
          "internalType": "bytes",
          "name": "_bytes",
          "type": "bytes"
        }
      ],
      "name": "DCAPairSwapCall",
      "outputs": [],
      "stateMutability": "nonpayable",
      "type": "function"
    },
    {
      "inputs": [],
      "name": "acceptPendingGovernor",
      "outputs": [],
      "stateMutability": "nonpayable",
      "type": "function"
    },
    {
      "inputs": [
        {
          "internalType": "address",
          "name": "_to",
          "type": "address"
        }
      ],
      "name": "die",
      "outputs": [],
      "stateMutability": "nonpayable",
      "type": "function"
    },
    {
      "inputs": [],
      "name": "factory",
      "outputs": [
        {
          "internalType": "contract IDCAFactory",
          "name": "",
          "type": "address"
        }
      ],
      "stateMutability": "view",
      "type": "function"
    },
    {
      "inputs": [],
      "name": "getPairsToSwap",
      "outputs": [
        {
          "components": [
            {
              "internalType": "contract IDCAPair",
              "name": "pair",
              "type": "address"
            },
            {
              "internalType": "uint24",
              "name": "bestFeeTier",
              "type": "uint24"
            }
          ],
          "internalType": "struct IDCASwapper.PairToSwap[]",
          "name": "_pairs",
          "type": "tuple[]"
        }
      ],
      "stateMutability": "nonpayable",
      "type": "function"
    },
    {
      "inputs": [],
      "name": "governor",
      "outputs": [
        {
          "internalType": "address",
          "name": "",
          "type": "address"
        }
      ],
      "stateMutability": "view",
      "type": "function"
    },
    {
      "inputs": [
        {
          "internalType": "address",
          "name": "_account",
          "type": "address"
        }
      ],
      "name": "isGovernor",
      "outputs": [
        {
          "internalType": "bool",
          "name": "_isGovernor",
          "type": "bool"
        }
      ],
      "stateMutability": "view",
      "type": "function"
    },
    {
      "inputs": [
        {
          "internalType": "address",
          "name": "_account",
          "type": "address"
        }
      ],
      "name": "isPendingGovernor",
      "outputs": [
        {
          "internalType": "bool",
          "name": "_isPendingGovernor",
          "type": "bool"
        }
      ],
      "stateMutability": "view",
      "type": "function"
    },
    {
      "inputs": [],
      "name": "pendingGovernor",
      "outputs": [
        {
          "internalType": "address",
          "name": "",
          "type": "address"
        }
      ],
      "stateMutability": "view",
      "type": "function"
    },
    {
      "inputs": [],
      "name": "quoter",
      "outputs": [
        {
          "internalType": "contract ICustomQuoter",
          "name": "",
          "type": "address"
        }
      ],
      "stateMutability": "view",
      "type": "function"
    },
    {
      "inputs": [
        {
          "internalType": "address",
          "name": "__pendingGovernor",
          "type": "address"
        }
      ],
      "name": "setPendingGovernor",
      "outputs": [],
      "stateMutability": "nonpayable",
      "type": "function"
    },
    {
      "inputs": [
        {
          "internalType": "address[]",
          "name": "_pairs",
          "type": "address[]"
        }
      ],
      "name": "startWatchingPairs",
      "outputs": [],
      "stateMutability": "nonpayable",
      "type": "function"
    },
    {
      "inputs": [
        {
          "internalType": "address[]",
          "name": "_pairs",
          "type": "address[]"
        }
      ],
      "name": "stopWatchingPairs",
      "outputs": [],
      "stateMutability": "nonpayable",
      "type": "function"
    },
    {
      "inputs": [
        {
          "components": [
            {
              "internalType": "contract IDCAPair",
              "name": "pair",
              "type": "address"
            },
            {
              "internalType": "uint24",
              "name": "bestFeeTier",
              "type": "uint24"
            }
          ],
          "internalType": "struct IDCASwapper.PairToSwap[]",
          "name": "_pairsToSwap",
          "type": "tuple[]"
        }
      ],
      "name": "swapPairs",
      "outputs": [
        {
          "internalType": "uint256",
          "name": "_amountSwapped",
          "type": "uint256"
        }
      ],
      "stateMutability": "nonpayable",
      "type": "function"
    },
    {
      "inputs": [],
      "name": "swapRouter",
      "outputs": [
        {
          "internalType": "contract ISwapRouter",
          "name": "",
          "type": "address"
        }
      ],
      "stateMutability": "view",
      "type": "function"
    },
    {
      "inputs": [],
      "name": "watchedPairs",
      "outputs": [
        {
          "internalType": "address[]",
          "name": "_pairs",
          "type": "address[]"
        }
      ],
      "stateMutability": "view",
      "type": "function"
    }
  ],
  "transactionHash": "0x506b9cb0387fdadd653853953ff2651cc4df88a9401fcd8ac5e3d880be55d674",
  "args": [
    "0x9012D9bbFdcEe42c618f9464b4632568e6385dCa",
    "0x5f6AD3A83088188e81ff80295F7686e868400C29",
    "0xE592427A0AEce92De3Edee1F18E0157C05861564",
    "0xb27308f9F90D607463bb33eA1BeBb41C27CE5AB6"
  ],
  "solcInputHash": "622328babecd71f99f3f1fbcedd1b8b4",
  "bytecode": "0x6101406040526101f460e0908152610bb861010052612710610120526200002b90600290600362000145565b503480156200003957600080fd5b50604051620020ab380380620020ab8339810160408190526200005c916200020e565b836001600160a01b038116620000b85760405162461bcd60e51b815260206004820152601860248201527f476f7665726e61626c653a207a65726f20616464726573730000000000000000604482015260640160405180910390fd5b600080546001600160a01b0319166001600160a01b0392831617905583161580620000ea57506001600160a01b038216155b80620000fd57506001600160a01b038116155b156200011c5760405163d92e233d60e01b815260040160405180910390fd5b6001600160601b0319606093841b811660805291831b821660a05290911b1660c052506200028e565b82805482825590600052602060002090600901600a90048101928215620001e55791602002820160005b83821115620001b257835183826101000a81548162ffffff021916908361ffff16021790555092602001926003016020816002010492830192600103026200016f565b8015620001e35782816101000a81549062ffffff0219169055600301602081600201049283019260010302620001b2565b505b50620001f3929150620001f7565b5090565b5b80821115620001f35760008155600101620001f8565b6000806000806080858703121562000224578384fd5b8451620002318162000275565b6020860151909450620002448162000275565b6040860151909350620002578162000275565b60608601519092506200026a8162000275565b939692955090935050565b6001600160a01b03811681146200028b57600080fd5b50565b60805160601c60a05160601c60c05160601c611dba620002f16000396000818161020101528181610ee2015261106f0152600081816101b3015281816105ec015281816106e501526107720152600081816101da01526103c90152611dba6000f3fe608060405234801561001057600080fd5b50600436106101005760003560e01c8063c45a015511610097578063e3056a3411610066578063e3056a3414610268578063e43581b814610279578063f235757f1461029b578063fd080b8c146102ae57600080fd5b8063c45a0155146101d5578063c6bbd5a7146101fc578063c9353cb514610223578063df08aed51461023657600080fd5b80633d33803c116100d35780633d33803c146101655780633e9e35e51461017857806391373dab1461018d578063c31c9c07146101ae57600080fd5b806304830ae7146101055780630c340a24146101235780630fd249101461014857806313f6986d1461015d575b600080fd5b61010d6102c1565b60405161011a9190611a60565b60405180910390f35b6000546001600160a01b03165b6040516001600160a01b03909116815260200161011a565b61015b610156366004611783565b610389565b005b61015b610550565b61015b6101733660046116a3565b6105be565b6101806107bd565b60405161011a9190611b1b565b6101a061019b3660046117f3565b61092e565b60405190815260200161011a565b6101307f000000000000000000000000000000000000000000000000000000000000000081565b6101307f000000000000000000000000000000000000000000000000000000000000000081565b6101307f000000000000000000000000000000000000000000000000000000000000000081565b61015b61023136600461166b565b610a27565b61025861024436600461166b565b6001546001600160a01b0391821691161490565b604051901515815260200161011a565b6001546001600160a01b0316610130565b61025861028736600461166b565b6000546001600160a01b0391821691161490565b61015b6102a936600461166b565b610a5d565b61015b6102bc366004611783565b610a93565b606060006102cf6003610b4d565b90508067ffffffffffffffff8111156102f857634e487b7160e01b600052604160045260246000fd5b604051908082528060200260200182016040528015610321578160200160208202803683370190505b50915060005b818110156103845761033a600382610b5d565b83828151811061035a57634e487b7160e01b600052603260045260246000fd5b6001600160a01b03909216602092830291909101909101528061037c81611d1a565b915050610327565b505090565b6000546001600160a01b031633146103bc5760405162461bcd60e51b81526004016103b390611bc8565b60405180910390fd5b60005b81811015610512577f00000000000000000000000000000000000000000000000000000000000000006001600160a01b031663e5e31b1384848481811061041657634e487b7160e01b600052603260045260246000fd5b905060200201602081019061042b919061166b565b6040516001600160e01b031960e084901b1681526001600160a01b03909116600482015260240160206040518083038186803b15801561046a57600080fd5b505afa15801561047e573d6000803e3d6000fd5b505050506040513d601f19601f820116820180604052508101906104a29190611851565b6104bf5760405163157a7c9760e11b815260040160405180910390fd5b6104ff8383838181106104e257634e487b7160e01b600052603260045260246000fd5b90506020020160208101906104f7919061166b565b600390610b70565b508061050a81611d1a565b9150506103bf565b507fe9b4f02df663d875b1341e4104eeb7dd675ebfa4d7bbc039f83d6fe3347ab4758282604051610544929190611a12565b60405180910390a15050565b6001546001600160a01b031633146105b45760405162461bcd60e51b815260206004820152602160248201527f476f7665726e61626c653a206f6e6c792070656e64696e6720676f7665726e6f6044820152603960f91b60648201526084016103b3565b6105bc610b85565b565b82156107b1576000856105d157886105d3565b895b90506000866105e2578a6105e4565b895b9050610611827f000000000000000000000000000000000000000000000000000000000000000088610c2d565b60408051610100810182526001600160a01b038085168252831660208201526000918101610641868801886119c4565b62ffffff9081168252336020808401919091524260408085019190915260608085018c905260808086018e9052600060a09687018190528351631b67c43360e31b815288516001600160a01b0390811660048301529589015186166024820152938801519095166044840152908601518316606483015285015160848201529284015160a484015260c084015160c484015260e0840151811660e4840152929350917f0000000000000000000000000000000000000000000000000000000000000000169063db3e21989061010401602060405180830381600087803b15801561072a57600080fd5b505af115801561073e573d6000803e3d6000fd5b505050506040513d601f19601f8201168201806040525081019061076291906119de565b9050878110156107ac57610798847f00000000000000000000000000000000000000000000000000000000000000006000610c2d565b6107ac84336107a7848c611cbc565b610d2d565b505050505b50505050505050505050565b60606000806107cc6003610b4d565b905060005b818110156108195760006107ee6107e9600384610b5d565b610e26565b62ffffff161115610807578261080381611d1a565b9350505b8061081181611d1a565b9150506107d1565b508167ffffffffffffffff81111561084157634e487b7160e01b600052604160045260246000fd5b60405190808252806020026020018201604052801561088657816020015b604080518082019091526000808252602082015281526020019060019003908161085f5790505b50925060005b818110156109285760006108a1600383610b5d565b905060006108ae82610e26565b905062ffffff81161561091357604080518082019091526001600160a01b038316815262ffffff82166020820152866108e687611d03565b9650868151811061090757634e487b7160e01b600052603260045260246000fd5b60200260200101819052505b5050808061092090611d1a565b91505061088c565b50505090565b60008161094e57604051635088761560e01b815260040160405180910390fd5b60005b60005a905061099f85858561096581611d1a565b965081811061098457634e487b7160e01b600052603260045260246000fd5b90506040020180360381019061099a9190611968565b61120f565b60005a6109ac9083611cbc565b9050828111156109ba578092505b505082821080156109e1575060026109d3826003611c9d565b6109dd9190611c7d565b5a10155b610951577f146495b33789c0d6d20a4163b06f2d9aa062b248e00538d5ae49054bf20b492a848484604051610a1893929190611aad565b60405180910390a15092915050565b6000546001600160a01b03163314610a515760405162461bcd60e51b81526004016103b390611bc8565b806001600160a01b0316ff5b6000546001600160a01b03163314610a875760405162461bcd60e51b81526004016103b390611bc8565b610a90816112a2565b50565b6000546001600160a01b03163314610abd5760405162461bcd60e51b81526004016103b390611bc8565b60005b81811015610b1b57610b08838383818110610aeb57634e487b7160e01b600052603260045260246000fd5b9050602002016020810190610b00919061166b565b60039061134c565b5080610b1381611d1a565b915050610ac0565b507f7128e431a215a0d3757c5985db974624eabad7abd7fb2a005e87502cc0f5047c8282604051610544929190611a12565b6000610b57825490565b92915050565b6000610b698383611361565b9392505050565b6000610b69836001600160a01b0384166113f5565b6001546001600160a01b0316610bdd5760405162461bcd60e51b815260206004820152601f60248201527f476f7665726e61626c653a206e6f2070656e64696e6720676f7665726e6f720060448201526064016103b3565b60018054600080546001600160a01b03199081166001600160a01b0384161782559091169091556040517fdc57ca23c46d823853915ed5a090ca0ee9db5eb6a46f5c58e1c9158de861fd769190a1565b604080516001600160a01b038481166024830152604480830185905283518084039091018152606490920183526020820180516001600160e01b031663095ea7b360e01b1790529151600092839290871691610c8991906119f6565b6000604051808303816000865af19150503d8060008114610cc6576040519150601f19603f3d011682016040523d82523d6000602084013e610ccb565b606091505b5091509150818015610cf5575080511580610cf5575080806020019051810190610cf59190611851565b610d265760405162461bcd60e51b8152602060048201526002602482015261534160f01b60448201526064016103b3565b5050505050565b604080516001600160a01b038481166024830152604480830185905283518084039091018152606490920183526020820180516001600160e01b031663a9059cbb60e01b1790529151600092839290871691610d8991906119f6565b6000604051808303816000865af19150503d8060008114610dc6576040519150601f19603f3d011682016040523d82523d6000602084013e610dcb565b606091505b5091509150818015610df5575080511580610df5575080806020019051810190610df59190611851565b610d265760405162461bcd60e51b815260206004820152600260248201526114d560f21b60448201526064016103b3565b600080826001600160a01b0316632f84cbf56040518163ffffffff1660e01b815260040160006040518083038186803b158015610e6257600080fd5b505afa158015610e76573d6000803e3d6000fd5b505050506040513d6000823e601f3d908101601f19168201604052610e9e919081019061186d565b9050806020015160ff1660001415610eb95750600092915050565b610100810151610ece575062ffffff92915050565b60001960005b6002548110156112075760007f00000000000000000000000000000000000000000000000000000000000000006001600160a01b031663c45a01556040518163ffffffff1660e01b815260040160206040518083038186803b158015610f3957600080fd5b505afa158015610f4d573d6000803e3d6000fd5b505050506040513d601f19601f82011682018060405250810190610f719190611687565b90506000816001600160a01b0316631698ee8286610160015187610140015160028781548110610fb157634e487b7160e01b600052603260045260246000fd5b60009182526020909120600a8083049091015460405160e087901b6001600160e01b03191681526001600160a01b03958616600482015293909416602484015290066003026101000a90910462ffffff16604482015260640160206040518083038186803b15801561102257600080fd5b505afa158015611036573d6000803e3d6000fd5b505050506040513d601f19601f8201168201806040525081019061105a9190611687565b90506001600160a01b038116156111f25760007f00000000000000000000000000000000000000000000000000000000000000006001600160a01b03166330d07f21876101600151886101400151600288815481106110c957634e487b7160e01b600052603260045260246000fd5b600091825260208220600a808304909101546101008e81015160405160e08a901b6001600160e01b03191681526001600160a01b03988916600482015296909716602487015291909206600302900a900462ffffff1660448301526064820192909252608481019190915260a401602060405180830381600087803b15801561115157600080fd5b505af1158015611165573d6000803e3d6000fd5b505050506040513d601f19601f8201168201806040525081019061118991906119de565b9050808661012001511015801561119f57508481105b156111f057809450600284815481106111c857634e487b7160e01b600052603260045260246000fd5b90600052602060002090600a91828204019190066003029054906101000a900462ffffff1696505b505b505080806111ff90611d1a565b915050610ed4565b505050919050565b80600001516001600160a01b031663022c0d9f600080308560200151604051602001611246919062ffffff91909116815260200190565b6040516020818303038152906040526040518563ffffffff1660e01b81526004016112749493929190611b78565b600060405180830381600087803b15801561128e57600080fd5b505af1158015610d26573d6000803e3d6000fd5b6001600160a01b0381166112f85760405162461bcd60e51b815260206004820152601860248201527f476f7665726e61626c653a207a65726f2061646472657373000000000000000060448201526064016103b3565b600180546001600160a01b0319166001600160a01b0383169081179091556040519081527f56bddfa0cee9697cebddf9acd7f23dc6583663b05e007b877056d05017994def9060200160405180910390a150565b6000610b69836001600160a01b038416611444565b815460009082106113bf5760405162461bcd60e51b815260206004820152602260248201527f456e756d657261626c655365743a20696e646578206f7574206f6620626f756e604482015261647360f01b60648201526084016103b3565b8260000182815481106113e257634e487b7160e01b600052603260045260246000fd5b9060005260206000200154905092915050565b600081815260018301602052604081205461143c57508154600181810184556000848152602080822090930184905584548482528286019093526040902091909155610b57565b506000610b57565b60008181526001830160205260408120548015611551576000611468600183611cbc565b855490915060009061147c90600190611cbc565b905060008660000182815481106114a357634e487b7160e01b600052603260045260246000fd5b90600052602060002001549050808760000184815481106114d457634e487b7160e01b600052603260045260246000fd5b60009182526020808320909101929092558281526001890190915260409020849055865487908061151557634e487b7160e01b600052603160045260246000fd5b60019003818190600052602060002001600090559055866001016000878152602001908152602001600020600090556001945050505050610b57565b6000915050610b57565b600082601f83011261156b578081fd5b8151602067ffffffffffffffff82111561158757611587611d4b565b611595818360051b01611c4c565b80838252828201915082860187848660071b89010111156115b4578586fd5b855b8581101561161657608080838b0312156115ce578788fd5b6115d6611bff565b6115df84611646565b81526115ec878501611646565b818801526040848101519082015260608085015190820152855293850193909101906001016115b6565b5090979650505050505050565b805161162e81611d61565b919050565b803562ffffff8116811461162e57600080fd5b805163ffffffff8116811461162e57600080fd5b805160ff8116811461162e57600080fd5b60006020828403121561167c578081fd5b8135610b6981611d61565b600060208284031215611698578081fd5b8151610b6981611d61565b6000806000806000806000806000806101208b8d0312156116c2578586fd5b8a356116cd81611d61565b995060208b01356116dd81611d61565b985060408b01356116ed81611d61565b975060608b0135965060808b0135955060a08b013561170b81611d76565b945060c08b0135935060e08b013592506101008b013567ffffffffffffffff80821115611736578384fd5b818d0191508d601f830112611749578384fd5b813581811115611757578485fd5b8e6020828501011115611768578485fd5b6020830194508093505050509295989b9194979a5092959850565b60008060208385031215611795578182fd5b823567ffffffffffffffff808211156117ac578384fd5b818501915085601f8301126117bf578384fd5b8135818111156117cd578485fd5b8660208260051b85010111156117e1578485fd5b60209290920196919550909350505050565b60008060208385031215611805578182fd5b823567ffffffffffffffff8082111561181c578384fd5b818501915085601f83011261182f578384fd5b81358181111561183d578485fd5b8660208260061b85010111156117e1578485fd5b600060208284031215611862578081fd5b8151610b6981611d76565b60006020828403121561187e578081fd5b815167ffffffffffffffff80821115611895578283fd5b9083019061018082860312156118a9578283fd5b6118b1611c28565b8251828111156118bf578485fd5b6118cb8782860161155b565b8252506118da6020840161165a565b602082015260408301516040820152606083015160608201526080830151608082015260a083015160a082015260c083015160c082015260e083015160e082015261010091508183015182820152610120915081830151828201526101409150611945828401611623565b828201526101609150611959828401611623565b91810191909152949350505050565b600060408284031215611979578081fd5b6040516040810181811067ffffffffffffffff8211171561199c5761199c611d4b565b60405282356119aa81611d61565b81526119b860208401611633565b60208201529392505050565b6000602082840312156119d5578081fd5b610b6982611633565b6000602082840312156119ef578081fd5b5051919050565b60008251611a08818460208701611cd3565b9190910192915050565b60208082528181018390526000908460408401835b86811015611a55578235611a3a81611d61565b6001600160a01b031682529183019190830190600101611a27565b509695505050505050565b6020808252825182820181905260009190848201906040850190845b81811015611aa15783516001600160a01b031683529284019291840191600101611a7c565b50909695505050505050565b60408082528181018490526000908560608401835b87811015611b06578235611ad581611d61565b6001600160a01b03168252602062ffffff611af1858301611633565b16908301529183019190830190600101611ac2565b50809350505050826020830152949350505050565b602080825282518282018190526000919060409081850190868401855b82811015611b6b57815180516001600160a01b0316855286015162ffffff16868501529284019290850190600101611b38565b5091979650505050505050565b84815283602082015260018060a01b03831660408201526080606082015260008251806080840152611bb18160a0850160208701611cd3565b601f01601f19169190910160a00195945050505050565b60208082526019908201527f476f7665726e61626c653a206f6e6c7920676f7665726e6f7200000000000000604082015260600190565b6040516080810167ffffffffffffffff81118282101715611c2257611c22611d4b565b60405290565b604051610180810167ffffffffffffffff81118282101715611c2257611c22611d4b565b604051601f8201601f1916810167ffffffffffffffff81118282101715611c7557611c75611d4b565b604052919050565b600082611c9857634e487b7160e01b81526012600452602481fd5b500490565b6000816000190483118215151615611cb757611cb7611d35565b500290565b600082821015611cce57611cce611d35565b500390565b60005b83811015611cee578181015183820152602001611cd6565b83811115611cfd576000848401525b50505050565b600081611d1257611d12611d35565b506000190190565b6000600019821415611d2e57611d2e611d35565b5060010190565b634e487b7160e01b600052601160045260246000fd5b634e487b7160e01b600052604160045260246000fd5b6001600160a01b0381168114610a9057600080fd5b8015158114610a9057600080fdfea26469706673582212201194be58e9ccfe6edd39d694cc4f6a247b88bf3a7d9a68edb5cbb8c7c4a3437864736f6c63430008040033",
  "devdoc": {
    "kind": "dev",
    "methods": {},
    "version": 1
  },
  "userdoc": {
    "kind": "user",
    "methods": {
      "getPairsToSwap()": {
        "notice": "This method isn't a view and it is extremelly expensive and inefficient. DO NOT call this method on-chain, it is for off-chain purposes only."
      },
      "swapPairs((address,uint24)[])": {
        "notice": "Takes an array of swaps, and executes as many as possible, returning the amount that was swapped"
      }
    },
    "version": 1
  },
  "storageLayout": {
    "storage": [
      {
        "astId": 13730,
        "contract": "contracts/DCASwapper/DCASwapper.sol:DCASwapper",
        "label": "_governor",
        "offset": 0,
        "slot": "0",
        "type": "t_address"
      },
      {
        "astId": 13732,
        "contract": "contracts/DCASwapper/DCASwapper.sol:DCASwapper",
        "label": "_pendingGovernor",
        "offset": 0,
        "slot": "1",
        "type": "t_address"
      },
      {
        "astId": 8379,
        "contract": "contracts/DCASwapper/DCASwapper.sol:DCASwapper",
        "label": "_FEE_TIERS",
        "offset": 0,
        "slot": "2",
        "type": "t_array(t_uint24)dyn_storage"
      },
      {
        "astId": 8394,
        "contract": "contracts/DCASwapper/DCASwapper.sol:DCASwapper",
        "label": "_watchedPairs",
        "offset": 0,
        "slot": "3",
        "type": "t_struct(AddressSet)3156_storage"
      }
    ],
    "types": {
      "t_address": {
        "encoding": "inplace",
        "label": "address",
        "numberOfBytes": "20"
      },
      "t_array(t_bytes32)dyn_storage": {
        "base": "t_bytes32",
        "encoding": "dynamic_array",
        "label": "bytes32[]",
        "numberOfBytes": "32"
      },
      "t_array(t_uint24)dyn_storage": {
        "base": "t_uint24",
        "encoding": "dynamic_array",
        "label": "uint24[]",
        "numberOfBytes": "32"
      },
      "t_bytes32": {
        "encoding": "inplace",
        "label": "bytes32",
        "numberOfBytes": "32"
      },
      "t_mapping(t_bytes32,t_uint256)": {
        "encoding": "mapping",
        "key": "t_bytes32",
        "label": "mapping(bytes32 => uint256)",
        "numberOfBytes": "32",
        "value": "t_uint256"
      },
      "t_struct(AddressSet)3156_storage": {
        "encoding": "inplace",
        "label": "struct EnumerableSet.AddressSet",
        "members": [
          {
            "astId": 3155,
            "contract": "contracts/DCASwapper/DCASwapper.sol:DCASwapper",
            "label": "_inner",
            "offset": 0,
            "slot": "0",
            "type": "t_struct(Set)2881_storage"
          }
        ],
        "numberOfBytes": "64"
      },
      "t_struct(Set)2881_storage": {
        "encoding": "inplace",
        "label": "struct EnumerableSet.Set",
        "members": [
          {
            "astId": 2876,
            "contract": "contracts/DCASwapper/DCASwapper.sol:DCASwapper",
            "label": "_values",
            "offset": 0,
            "slot": "0",
            "type": "t_array(t_bytes32)dyn_storage"
          },
          {
            "astId": 2880,
            "contract": "contracts/DCASwapper/DCASwapper.sol:DCASwapper",
            "label": "_indexes",
            "offset": 0,
            "slot": "1",
            "type": "t_mapping(t_bytes32,t_uint256)"
          }
        ],
        "numberOfBytes": "64"
      },
      "t_uint24": {
        "encoding": "inplace",
        "label": "uint24",
        "numberOfBytes": "3"
      },
      "t_uint256": {
        "encoding": "inplace",
        "label": "uint256",
        "numberOfBytes": "32"
      }
    }
  }
}