{
  "address": "0xE9f8f9E3e561a702557E0BE5103ee4BA6A895136",
  "abi": [
    {
      "inputs": [
        {
          "internalType": "address",
          "name": "_governor",
          "type": "address"
        },
        {
          "internalType": "contract IDCAFactory",
          "name": "_factory",
          "type": "address"
        },
        {
          "internalType": "contract ISwapRouter",
          "name": "_swapRouter",
          "type": "address"
        },
        {
          "internalType": "contract ICustomQuoter",
          "name": "_quoter",
          "type": "address"
        }
      ],
      "stateMutability": "nonpayable",
      "type": "constructor"
    },
    {
      "inputs": [],
      "name": "InvalidPairAddress",
      "type": "error"
    },
    {
      "inputs": [],
      "name": "ZeroAddress",
      "type": "error"
    },
    {
      "inputs": [],
      "name": "ZeroPairsToSwap",
      "type": "error"
    },
    {
      "anonymous": false,
      "inputs": [],
      "name": "PendingGovernorAccepted",
      "type": "event"
    },
    {
      "anonymous": false,
      "inputs": [
        {
          "indexed": false,
          "internalType": "address",
          "name": "_pendingGovernor",
          "type": "address"
        }
      ],
      "name": "PendingGovernorSet",
      "type": "event"
    },
    {
      "anonymous": false,
      "inputs": [
        {
          "indexed": false,
          "internalType": "address[]",
          "name": "_pairs",
          "type": "address[]"
        }
      ],
      "name": "StoppedWatchingPairs",
      "type": "event"
    },
    {
      "anonymous": false,
      "inputs": [
        {
          "components": [
            {
              "internalType": "contract IDCAPair",
              "name": "pair",
              "type": "address"
            },
            {
              "internalType": "uint24",
              "name": "bestFeeTier",
              "type": "uint24"
            }
          ],
          "indexed": false,
          "internalType": "struct IDCASwapper.PairToSwap[]",
          "name": "_pairsToSwap",
          "type": "tuple[]"
        },
        {
          "indexed": false,
          "internalType": "uint256",
          "name": "_amountSwapped",
          "type": "uint256"
        }
      ],
      "name": "Swapped",
      "type": "event"
    },
    {
      "anonymous": false,
      "inputs": [
        {
          "indexed": false,
          "internalType": "address[]",
          "name": "_pairs",
          "type": "address[]"
        }
      ],
      "name": "WatchingNewPairs",
      "type": "event"
    },
    {
      "inputs": [
        {
          "internalType": "address",
          "name": "",
          "type": "address"
        },
        {
          "internalType": "contract IERC20Detailed",
          "name": "_tokenA",
          "type": "address"
        },
        {
          "internalType": "contract IERC20Detailed",
          "name": "_tokenB",
          "type": "address"
        },
        {
          "internalType": "uint256",
          "name": "",
          "type": "uint256"
        },
        {
          "internalType": "uint256",
          "name": "",
          "type": "uint256"
        },
        {
          "internalType": "bool",
          "name": "_isRewardTokenA",
          "type": "bool"
        },
        {
          "internalType": "uint256",
          "name": "_rewardAmount",
          "type": "uint256"
        },
        {
          "internalType": "uint256",
          "name": "_amountToProvide",
          "type": "uint256"
        },
        {
          "internalType": "bytes",
          "name": "_bytes",
          "type": "bytes"
        }
      ],
      "name": "DCAPairSwapCall",
      "outputs": [],
      "stateMutability": "nonpayable",
      "type": "function"
    },
    {
      "inputs": [],
      "name": "acceptPendingGovernor",
      "outputs": [],
      "stateMutability": "nonpayable",
      "type": "function"
    },
    {
      "inputs": [
        {
          "internalType": "contract IDCAPair",
          "name": "_pair",
          "type": "address"
        }
      ],
      "name": "bestFeeTierForSwap",
      "outputs": [
        {
          "internalType": "uint24",
          "name": "_feeTier",
          "type": "uint24"
        }
      ],
      "stateMutability": "nonpayable",
      "type": "function"
    },
    {
      "inputs": [
        {
          "internalType": "address",
          "name": "_to",
          "type": "address"
        }
      ],
      "name": "die",
      "outputs": [],
      "stateMutability": "nonpayable",
      "type": "function"
    },
    {
      "inputs": [],
      "name": "factory",
      "outputs": [
        {
          "internalType": "contract IDCAFactory",
          "name": "",
          "type": "address"
        }
      ],
      "stateMutability": "view",
      "type": "function"
    },
    {
      "inputs": [],
      "name": "getPairsToSwap",
      "outputs": [
        {
          "components": [
            {
              "internalType": "contract IDCAPair",
              "name": "pair",
              "type": "address"
            },
            {
              "internalType": "uint24",
              "name": "bestFeeTier",
              "type": "uint24"
            }
          ],
          "internalType": "struct IDCASwapper.PairToSwap[]",
          "name": "_pairs",
          "type": "tuple[]"
        }
      ],
      "stateMutability": "nonpayable",
      "type": "function"
    },
    {
      "inputs": [],
      "name": "governor",
      "outputs": [
        {
          "internalType": "address",
          "name": "",
          "type": "address"
        }
      ],
      "stateMutability": "view",
      "type": "function"
    },
    {
      "inputs": [
        {
          "internalType": "address",
          "name": "_account",
          "type": "address"
        }
      ],
      "name": "isGovernor",
      "outputs": [
        {
          "internalType": "bool",
          "name": "_isGovernor",
          "type": "bool"
        }
      ],
      "stateMutability": "view",
      "type": "function"
    },
    {
      "inputs": [
        {
          "internalType": "address",
          "name": "_account",
          "type": "address"
        }
      ],
      "name": "isPendingGovernor",
      "outputs": [
        {
          "internalType": "bool",
          "name": "_isPendingGovernor",
          "type": "bool"
        }
      ],
      "stateMutability": "view",
      "type": "function"
    },
    {
      "inputs": [],
      "name": "pendingGovernor",
      "outputs": [
        {
          "internalType": "address",
          "name": "",
          "type": "address"
        }
      ],
      "stateMutability": "view",
      "type": "function"
    },
    {
      "inputs": [],
      "name": "quoter",
      "outputs": [
        {
          "internalType": "contract ICustomQuoter",
          "name": "",
          "type": "address"
        }
      ],
      "stateMutability": "view",
      "type": "function"
    },
    {
      "inputs": [
        {
          "internalType": "address",
          "name": "__pendingGovernor",
          "type": "address"
        }
      ],
      "name": "setPendingGovernor",
      "outputs": [],
      "stateMutability": "nonpayable",
      "type": "function"
    },
    {
      "inputs": [
        {
          "internalType": "address[]",
          "name": "_pairs",
          "type": "address[]"
        }
      ],
      "name": "startWatchingPairs",
      "outputs": [],
      "stateMutability": "nonpayable",
      "type": "function"
    },
    {
      "inputs": [
        {
          "internalType": "address[]",
          "name": "_pairs",
          "type": "address[]"
        }
      ],
      "name": "stopWatchingPairs",
      "outputs": [],
      "stateMutability": "nonpayable",
      "type": "function"
    },
    {
      "inputs": [
        {
          "components": [
            {
              "internalType": "contract IDCAPair",
              "name": "pair",
              "type": "address"
            },
            {
              "internalType": "uint24",
              "name": "bestFeeTier",
              "type": "uint24"
            }
          ],
          "internalType": "struct IDCASwapper.PairToSwap[]",
          "name": "_pairsToSwap",
          "type": "tuple[]"
        }
      ],
      "name": "swapPairs",
      "outputs": [
        {
          "internalType": "uint256",
          "name": "_amountSwapped",
          "type": "uint256"
        }
      ],
      "stateMutability": "nonpayable",
      "type": "function"
    },
    {
      "inputs": [],
      "name": "swapRouter",
      "outputs": [
        {
          "internalType": "contract ISwapRouter",
          "name": "",
          "type": "address"
        }
      ],
      "stateMutability": "view",
      "type": "function"
    },
    {
      "inputs": [],
      "name": "watchedPairs",
      "outputs": [
        {
          "internalType": "address[]",
          "name": "_pairs",
          "type": "address[]"
        }
      ],
      "stateMutability": "view",
      "type": "function"
    }
  ],
  "transactionHash": "0x5c95dc2c8eb67f047eb7757ffbdd97a3bc83d651a2fa6a8a18595c497793848e",
  "args": [
    "0x9012D9bbFdcEe42c618f9464b4632568e6385dCa",
    "0x5f6AD3A83088188e81ff80295F7686e868400C29",
    "0xE592427A0AEce92De3Edee1F18E0157C05861564",
    "0xb27308f9F90D607463bb33eA1BeBb41C27CE5AB6"
  ],
  "solcInputHash": "7738dab0e662549184454713cc940fcb",
  "bytecode": "0x6101406040526101f460e0908152610bb861010052612710610120526200002b90600290600362000145565b503480156200003957600080fd5b50604051620020db380380620020db8339810160408190526200005c916200020e565b836001600160a01b038116620000b85760405162461bcd60e51b815260206004820152601860248201527f476f7665726e61626c653a207a65726f20616464726573730000000000000000604482015260640160405180910390fd5b600080546001600160a01b0319166001600160a01b0392831617905583161580620000ea57506001600160a01b038216155b80620000fd57506001600160a01b038116155b156200011c5760405163d92e233d60e01b815260040160405180910390fd5b6001600160601b0319606093841b811660805291831b821660a05290911b1660c052506200028e565b82805482825590600052602060002090600901600a90048101928215620001e55791602002820160005b83821115620001b257835183826101000a81548162ffffff021916908361ffff16021790555092602001926003016020816002010492830192600103026200016f565b8015620001e35782816101000a81549062ffffff0219169055600301602081600201049283019260010302620001b2565b505b50620001f3929150620001f7565b5090565b5b80821115620001f35760008155600101620001f8565b6000806000806080858703121562000224578384fd5b8451620002318162000275565b6020860151909450620002448162000275565b6040860151909350620002578162000275565b60608601519092506200026a8162000275565b939692955090935050565b6001600160a01b03811681146200028b57600080fd5b50565b60805160601c60a05160601c60c05160601c611dea620002f16000396000818161023301528181610a150152610ba00152600081816101e50152818161061e0152818161071701526107a401526000818161020c01526103fb0152611dea6000f3fe608060405234801561001057600080fd5b506004361061010b5760003560e01c8063c31c9c07116100a2578063df08aed511610071578063df08aed514610268578063e3056a341461029a578063e43581b8146102ab578063f235757f146102cd578063fd080b8c146102e057600080fd5b8063c31c9c07146101e0578063c45a015514610207578063c6bbd5a71461022e578063c9353cb51461025557600080fd5b80633d33803c116100de5780633d33803c146101705780633e9e35e5146101835780636dd2fa761461019857806391373dab146101bf57600080fd5b806304830ae7146101105780630c340a241461012e5780630fd249101461015357806313f6986d14610168575b600080fd5b6101186102f3565b6040516101259190611a90565b60405180910390f35b6000546001600160a01b03165b6040516001600160a01b039091168152602001610125565b6101666101613660046117b3565b6103bb565b005b610166610582565b61016661017e3660046116d3565b6105f0565b61018b6107ef565b6040516101259190611b4b565b6101ab6101a636600461169b565b61095b565b60405162ffffff9091168152602001610125565b6101d26101cd366004611823565b610d47565b604051908152602001610125565b61013b7f000000000000000000000000000000000000000000000000000000000000000081565b61013b7f000000000000000000000000000000000000000000000000000000000000000081565b61013b7f000000000000000000000000000000000000000000000000000000000000000081565b61016661026336600461169b565b610e40565b61028a61027636600461169b565b6001546001600160a01b0391821691161490565b6040519015158152602001610125565b6001546001600160a01b031661013b565b61028a6102b936600461169b565b6000546001600160a01b0391821691161490565b6101666102db36600461169b565b610e76565b6101666102ee3660046117b3565b610eac565b606060006103016003610f66565b90508067ffffffffffffffff81111561032a57634e487b7160e01b600052604160045260246000fd5b604051908082528060200260200182016040528015610353578160200160208202803683370190505b50915060005b818110156103b65761036c600382610f76565b83828151811061038c57634e487b7160e01b600052603260045260246000fd5b6001600160a01b0390921660209283029190910190910152806103ae81611d4a565b915050610359565b505090565b6000546001600160a01b031633146103ee5760405162461bcd60e51b81526004016103e590611bf8565b60405180910390fd5b60005b81811015610544577f00000000000000000000000000000000000000000000000000000000000000006001600160a01b031663e5e31b1384848481811061044857634e487b7160e01b600052603260045260246000fd5b905060200201602081019061045d919061169b565b6040516001600160e01b031960e084901b1681526001600160a01b03909116600482015260240160206040518083038186803b15801561049c57600080fd5b505afa1580156104b0573d6000803e3d6000fd5b505050506040513d601f19601f820116820180604052508101906104d49190611881565b6104f15760405163157a7c9760e11b815260040160405180910390fd5b61053183838381811061051457634e487b7160e01b600052603260045260246000fd5b9050602002016020810190610529919061169b565b600390610f89565b508061053c81611d4a565b9150506103f1565b507fe9b4f02df663d875b1341e4104eeb7dd675ebfa4d7bbc039f83d6fe3347ab4758282604051610576929190611a42565b60405180910390a15050565b6001546001600160a01b031633146105e65760405162461bcd60e51b815260206004820152602160248201527f476f7665726e61626c653a206f6e6c792070656e64696e6720676f7665726e6f6044820152603960f91b60648201526084016103e5565b6105ee610f9e565b565b82156107e3576000856106035788610605565b895b9050600086610614578a610616565b895b9050610643827f000000000000000000000000000000000000000000000000000000000000000088611046565b60408051610100810182526001600160a01b038085168252831660208201526000918101610673868801886119f4565b62ffffff9081168252336020808401919091524260408085019190915260608085018c905260808086018e9052600060a09687018190528351631b67c43360e31b815288516001600160a01b0390811660048301529589015186166024820152938801519095166044840152908601518316606483015285015160848201529284015160a484015260c084015160c484015260e0840151811660e4840152929350917f0000000000000000000000000000000000000000000000000000000000000000169063db3e21989061010401602060405180830381600087803b15801561075c57600080fd5b505af1158015610770573d6000803e3d6000fd5b505050506040513d601f19601f820116820180604052508101906107949190611a0e565b9050878110156107de576107ca847f00000000000000000000000000000000000000000000000000000000000000006000611046565b6107de84336107d9848c611cec565b611146565b505050505b50505050505050505050565b60606000806107fe6003610f66565b905060005b8181101561084657600061081b6101a6600384610f76565b62ffffff161115610834578261083081611d4a565b9350505b8061083e81611d4a565b915050610803565b508167ffffffffffffffff81111561086e57634e487b7160e01b600052604160045260246000fd5b6040519080825280602002602001820160405280156108b357816020015b604080518082019091526000808252602082015281526020019060019003908161088c5790505b50925060005b818110156109555760006108ce600383610f76565b905060006108db8261095b565b905062ffffff81161561094057604080518082019091526001600160a01b038316815262ffffff821660208201528661091387611d33565b9650868151811061093457634e487b7160e01b600052603260045260246000fd5b60200260200101819052505b5050808061094d90611d4a565b9150506108b9565b50505090565b600080826001600160a01b0316632f84cbf56040518163ffffffff1660e01b815260040160006040518083038186803b15801561099757600080fd5b505afa1580156109ab573d6000803e3d6000fd5b505050506040513d6000823e601f3d908101601f191682016040526109d3919081019061189d565b9050806020015160ff16600014156109ee5750600092915050565b610100810151610a03575062ffffff92915050565b6000805b600254811015610d3f5760007f00000000000000000000000000000000000000000000000000000000000000006001600160a01b031663c45a01556040518163ffffffff1660e01b815260040160206040518083038186803b158015610a6c57600080fd5b505afa158015610a80573d6000803e3d6000fd5b505050506040513d601f19601f82011682018060405250810190610aa491906116b7565b90506000816001600160a01b0316631698ee8286610160015187610140015160028781548110610ae457634e487b7160e01b600052603260045260246000fd5b60009182526020909120600a8083049091015460405160e087901b6001600160e01b03191681526001600160a01b03958616600482015293909416602484015290066003026101000a90910462ffffff16604482015260640160206040518083038186803b158015610b5557600080fd5b505afa158015610b69573d6000803e3d6000fd5b505050506040513d601f19601f82011682018060405250810190610b8d91906116b7565b90506001600160a01b03811615610d2a577f00000000000000000000000000000000000000000000000000000000000000006001600160a01b03166330d07f2186610160015187610140015160028781548110610bfa57634e487b7160e01b600052603260045260246000fd5b600091825260208220600a808304909101546101008d81015160405160e08a901b6001600160e01b03191681526001600160a01b03988916600482015296909716602487015291909206600302900a900462ffffff1660448301526064820192909252608481019190915260a401602060405180830381600087803b158015610c8257600080fd5b505af1925050508015610cb2575060408051601f3d908101601f19168201909252610caf91810190611a0e565b60015b610cbb57610d2a565b8086610120015110158015610cd75750841580610cd757508481105b15610d285780945060028481548110610d0057634e487b7160e01b600052603260045260246000fd5b90600052602060002090600a91828204019190066003029054906101000a900462ffffff1696505b505b50508080610d3790611d4a565b915050610a07565b505050919050565b600081610d6757604051635088761560e01b815260040160405180910390fd5b60005b60005a9050610db8858585610d7e81611d4a565b9650818110610d9d57634e487b7160e01b600052603260045260246000fd5b905060400201803603810190610db39190611998565b61123f565b60005a610dc59083611cec565b905082811115610dd3578092505b50508282108015610dfa57506002610dec826003611ccd565b610df69190611cad565b5a10155b610d6a577f146495b33789c0d6d20a4163b06f2d9aa062b248e00538d5ae49054bf20b492a848484604051610e3193929190611add565b60405180910390a15092915050565b6000546001600160a01b03163314610e6a5760405162461bcd60e51b81526004016103e590611bf8565b806001600160a01b0316ff5b6000546001600160a01b03163314610ea05760405162461bcd60e51b81526004016103e590611bf8565b610ea9816112d2565b50565b6000546001600160a01b03163314610ed65760405162461bcd60e51b81526004016103e590611bf8565b60005b81811015610f3457610f21838383818110610f0457634e487b7160e01b600052603260045260246000fd5b9050602002016020810190610f19919061169b565b60039061137c565b5080610f2c81611d4a565b915050610ed9565b507f7128e431a215a0d3757c5985db974624eabad7abd7fb2a005e87502cc0f5047c8282604051610576929190611a42565b6000610f70825490565b92915050565b6000610f828383611391565b9392505050565b6000610f82836001600160a01b038416611425565b6001546001600160a01b0316610ff65760405162461bcd60e51b815260206004820152601f60248201527f476f7665726e61626c653a206e6f2070656e64696e6720676f7665726e6f720060448201526064016103e5565b60018054600080546001600160a01b03199081166001600160a01b0384161782559091169091556040517fdc57ca23c46d823853915ed5a090ca0ee9db5eb6a46f5c58e1c9158de861fd769190a1565b604080516001600160a01b038481166024830152604480830185905283518084039091018152606490920183526020820180516001600160e01b031663095ea7b360e01b17905291516000928392908716916110a29190611a26565b6000604051808303816000865af19150503d80600081146110df576040519150601f19603f3d011682016040523d82523d6000602084013e6110e4565b606091505b509150915081801561110e57508051158061110e57508080602001905181019061110e9190611881565b61113f5760405162461bcd60e51b8152602060048201526002602482015261534160f01b60448201526064016103e5565b5050505050565b604080516001600160a01b038481166024830152604480830185905283518084039091018152606490920183526020820180516001600160e01b031663a9059cbb60e01b17905291516000928392908716916111a29190611a26565b6000604051808303816000865af19150503d80600081146111df576040519150601f19603f3d011682016040523d82523d6000602084013e6111e4565b606091505b509150915081801561120e57508051158061120e57508080602001905181019061120e9190611881565b61113f5760405162461bcd60e51b815260206004820152600260248201526114d560f21b60448201526064016103e5565b80600001516001600160a01b031663022c0d9f600080308560200151604051602001611276919062ffffff91909116815260200190565b6040516020818303038152906040526040518563ffffffff1660e01b81526004016112a49493929190611ba8565b600060405180830381600087803b1580156112be57600080fd5b505af115801561113f573d6000803e3d6000fd5b6001600160a01b0381166113285760405162461bcd60e51b815260206004820152601860248201527f476f7665726e61626c653a207a65726f2061646472657373000000000000000060448201526064016103e5565b600180546001600160a01b0319166001600160a01b0383169081179091556040519081527f56bddfa0cee9697cebddf9acd7f23dc6583663b05e007b877056d05017994def9060200160405180910390a150565b6000610f82836001600160a01b038416611474565b815460009082106113ef5760405162461bcd60e51b815260206004820152602260248201527f456e756d657261626c655365743a20696e646578206f7574206f6620626f756e604482015261647360f01b60648201526084016103e5565b82600001828154811061141257634e487b7160e01b600052603260045260246000fd5b9060005260206000200154905092915050565b600081815260018301602052604081205461146c57508154600181810184556000848152602080822090930184905584548482528286019093526040902091909155610f70565b506000610f70565b60008181526001830160205260408120548015611581576000611498600183611cec565b85549091506000906114ac90600190611cec565b905060008660000182815481106114d357634e487b7160e01b600052603260045260246000fd5b906000526020600020015490508087600001848154811061150457634e487b7160e01b600052603260045260246000fd5b60009182526020808320909101929092558281526001890190915260409020849055865487908061154557634e487b7160e01b600052603160045260246000fd5b60019003818190600052602060002001600090559055866001016000878152602001908152602001600020600090556001945050505050610f70565b6000915050610f70565b600082601f83011261159b578081fd5b8151602067ffffffffffffffff8211156115b7576115b7611d7b565b6115c5818360051b01611c7c565b80838252828201915082860187848660071b89010111156115e4578586fd5b855b8581101561164657608080838b0312156115fe578788fd5b611606611c2f565b61160f84611676565b815261161c878501611676565b818801526040848101519082015260608085015190820152855293850193909101906001016115e6565b5090979650505050505050565b805161165e81611d91565b919050565b803562ffffff8116811461165e57600080fd5b805163ffffffff8116811461165e57600080fd5b805160ff8116811461165e57600080fd5b6000602082840312156116ac578081fd5b8135610f8281611d91565b6000602082840312156116c8578081fd5b8151610f8281611d91565b6000806000806000806000806000806101208b8d0312156116f2578586fd5b8a356116fd81611d91565b995060208b013561170d81611d91565b985060408b013561171d81611d91565b975060608b0135965060808b0135955060a08b013561173b81611da6565b945060c08b0135935060e08b013592506101008b013567ffffffffffffffff80821115611766578384fd5b818d0191508d601f830112611779578384fd5b813581811115611787578485fd5b8e6020828501011115611798578485fd5b6020830194508093505050509295989b9194979a5092959850565b600080602083850312156117c5578182fd5b823567ffffffffffffffff808211156117dc578384fd5b818501915085601f8301126117ef578384fd5b8135818111156117fd578485fd5b8660208260051b8501011115611811578485fd5b60209290920196919550909350505050565b60008060208385031215611835578182fd5b823567ffffffffffffffff8082111561184c578384fd5b818501915085601f83011261185f578384fd5b81358181111561186d578485fd5b8660208260061b8501011115611811578485fd5b600060208284031215611892578081fd5b8151610f8281611da6565b6000602082840312156118ae578081fd5b815167ffffffffffffffff808211156118c5578283fd5b9083019061018082860312156118d9578283fd5b6118e1611c58565b8251828111156118ef578485fd5b6118fb8782860161158b565b82525061190a6020840161168a565b602082015260408301516040820152606083015160608201526080830151608082015260a083015160a082015260c083015160c082015260e083015160e082015261010091508183015182820152610120915081830151828201526101409150611975828401611653565b828201526101609150611989828401611653565b91810191909152949350505050565b6000604082840312156119a9578081fd5b6040516040810181811067ffffffffffffffff821117156119cc576119cc611d7b565b60405282356119da81611d91565b81526119e860208401611663565b60208201529392505050565b600060208284031215611a05578081fd5b610f8282611663565b600060208284031215611a1f578081fd5b5051919050565b60008251611a38818460208701611d03565b9190910192915050565b60208082528181018390526000908460408401835b86811015611a85578235611a6a81611d91565b6001600160a01b031682529183019190830190600101611a57565b509695505050505050565b6020808252825182820181905260009190848201906040850190845b81811015611ad15783516001600160a01b031683529284019291840191600101611aac565b50909695505050505050565b60408082528181018490526000908560608401835b87811015611b36578235611b0581611d91565b6001600160a01b03168252602062ffffff611b21858301611663565b16908301529183019190830190600101611af2565b50809350505050826020830152949350505050565b602080825282518282018190526000919060409081850190868401855b82811015611b9b57815180516001600160a01b0316855286015162ffffff16868501529284019290850190600101611b68565b5091979650505050505050565b84815283602082015260018060a01b03831660408201526080606082015260008251806080840152611be18160a0850160208701611d03565b601f01601f19169190910160a00195945050505050565b60208082526019908201527f476f7665726e61626c653a206f6e6c7920676f7665726e6f7200000000000000604082015260600190565b6040516080810167ffffffffffffffff81118282101715611c5257611c52611d7b565b60405290565b604051610180810167ffffffffffffffff81118282101715611c5257611c52611d7b565b604051601f8201601f1916810167ffffffffffffffff81118282101715611ca557611ca5611d7b565b604052919050565b600082611cc857634e487b7160e01b81526012600452602481fd5b500490565b6000816000190483118215151615611ce757611ce7611d65565b500290565b600082821015611cfe57611cfe611d65565b500390565b60005b83811015611d1e578181015183820152602001611d06565b83811115611d2d576000848401525b50505050565b600081611d4257611d42611d65565b506000190190565b6000600019821415611d5e57611d5e611d65565b5060010190565b634e487b7160e01b600052601160045260246000fd5b634e487b7160e01b600052604160045260246000fd5b6001600160a01b0381168114610ea957600080fd5b8015158114610ea957600080fdfea26469706673582212205cde22d55fce9ff268b6c84e1e369a33b158e8c28ada44d9d3ff107b0d2ba15864736f6c63430008040033",
  "devdoc": {
    "kind": "dev",
    "methods": {},
    "version": 1
  },
  "userdoc": {
    "kind": "user",
    "methods": {
      "bestFeeTierForSwap(address)": {
        "notice": "This method isn't a view because the Uniswap quoter doesn't support view quotes. Therefore, we highly recommend that this method is not called on-chain. This method will return 0 if the pair should not be swapped, and max(uint24) if there is no need to go to Uniswap"
      },
      "getPairsToSwap()": {
        "notice": "This method isn't a view and it is extremelly expensive and inefficient. DO NOT call this method on-chain, it is for off-chain purposes only."
      },
      "swapPairs((address,uint24)[])": {
        "notice": "Takes an array of swaps, and executes as many as possible, returning the amount that was swapped"
      }
    },
    "version": 1
  },
  "storageLayout": {
    "storage": [
      {
        "astId": 13754,
        "contract": "contracts/DCASwapper/DCASwapper.sol:DCASwapper",
        "label": "_governor",
        "offset": 0,
        "slot": "0",
        "type": "t_address"
      },
      {
        "astId": 13756,
        "contract": "contracts/DCASwapper/DCASwapper.sol:DCASwapper",
        "label": "_pendingGovernor",
        "offset": 0,
        "slot": "1",
        "type": "t_address"
      },
      {
        "astId": 8379,
        "contract": "contracts/DCASwapper/DCASwapper.sol:DCASwapper",
        "label": "_FEE_TIERS",
        "offset": 0,
        "slot": "2",
        "type": "t_array(t_uint24)dyn_storage"
      },
      {
        "astId": 8394,
        "contract": "contracts/DCASwapper/DCASwapper.sol:DCASwapper",
        "label": "_watchedPairs",
        "offset": 0,
        "slot": "3",
        "type": "t_struct(AddressSet)3156_storage"
      }
    ],
    "types": {
      "t_address": {
        "encoding": "inplace",
        "label": "address",
        "numberOfBytes": "20"
      },
      "t_array(t_bytes32)dyn_storage": {
        "base": "t_bytes32",
        "encoding": "dynamic_array",
        "label": "bytes32[]",
        "numberOfBytes": "32"
      },
      "t_array(t_uint24)dyn_storage": {
        "base": "t_uint24",
        "encoding": "dynamic_array",
        "label": "uint24[]",
        "numberOfBytes": "32"
      },
      "t_bytes32": {
        "encoding": "inplace",
        "label": "bytes32",
        "numberOfBytes": "32"
      },
      "t_mapping(t_bytes32,t_uint256)": {
        "encoding": "mapping",
        "key": "t_bytes32",
        "label": "mapping(bytes32 => uint256)",
        "numberOfBytes": "32",
        "value": "t_uint256"
      },
      "t_struct(AddressSet)3156_storage": {
        "encoding": "inplace",
        "label": "struct EnumerableSet.AddressSet",
        "members": [
          {
            "astId": 3155,
            "contract": "contracts/DCASwapper/DCASwapper.sol:DCASwapper",
            "label": "_inner",
            "offset": 0,
            "slot": "0",
            "type": "t_struct(Set)2881_storage"
          }
        ],
        "numberOfBytes": "64"
      },
      "t_struct(Set)2881_storage": {
        "encoding": "inplace",
        "label": "struct EnumerableSet.Set",
        "members": [
          {
            "astId": 2876,
            "contract": "contracts/DCASwapper/DCASwapper.sol:DCASwapper",
            "label": "_values",
            "offset": 0,
            "slot": "0",
            "type": "t_array(t_bytes32)dyn_storage"
          },
          {
            "astId": 2880,
            "contract": "contracts/DCASwapper/DCASwapper.sol:DCASwapper",
            "label": "_indexes",
            "offset": 0,
            "slot": "1",
            "type": "t_mapping(t_bytes32,t_uint256)"
          }
        ],
        "numberOfBytes": "64"
      },
      "t_uint24": {
        "encoding": "inplace",
        "label": "uint24",
        "numberOfBytes": "3"
      },
      "t_uint256": {
        "encoding": "inplace",
        "label": "uint256",
        "numberOfBytes": "32"
      }
    }
  }
}