{
  "address": "0xcB5f850d37582215Ac94A1cC971b1d8F37806692",
  "abi": [
    {
      "inputs": [
        {
          "internalType": "address",
          "name": "_governor",
          "type": "address"
        },
        {
          "internalType": "contract IDCAFactory",
          "name": "_factory",
          "type": "address"
        },
        {
          "internalType": "contract ISwapRouter",
          "name": "_swapRouter",
          "type": "address"
        },
        {
          "internalType": "contract IQuoterV2",
          "name": "_quoter",
          "type": "address"
        }
      ],
      "stateMutability": "nonpayable",
      "type": "constructor"
    },
    {
      "inputs": [],
      "name": "InvalidPairAddress",
      "type": "error"
    },
    {
      "inputs": [],
      "name": "ZeroAddress",
      "type": "error"
    },
    {
      "inputs": [],
      "name": "ZeroPairsToSwap",
      "type": "error"
    },
    {
      "anonymous": false,
      "inputs": [],
      "name": "PendingGovernorAccepted",
      "type": "event"
    },
    {
      "anonymous": false,
      "inputs": [
        {
          "indexed": false,
          "internalType": "address",
          "name": "_pendingGovernor",
          "type": "address"
        }
      ],
      "name": "PendingGovernorSet",
      "type": "event"
    },
    {
      "anonymous": false,
      "inputs": [
        {
          "indexed": false,
          "internalType": "address[]",
          "name": "_pairs",
          "type": "address[]"
        }
      ],
      "name": "StoppedWatchingPairs",
      "type": "event"
    },
    {
      "anonymous": false,
      "inputs": [
        {
          "indexed": false,
          "internalType": "contract IDCAPair[]",
          "name": "_pairsToSwap",
          "type": "address[]"
        },
        {
          "indexed": false,
          "internalType": "uint256",
          "name": "_amountSwapped",
          "type": "uint256"
        }
      ],
      "name": "Swapped",
      "type": "event"
    },
    {
      "anonymous": false,
      "inputs": [
        {
          "indexed": false,
          "internalType": "address[]",
          "name": "_pairs",
          "type": "address[]"
        }
      ],
      "name": "WatchingNewPairs",
      "type": "event"
    },
    {
      "inputs": [
        {
          "internalType": "address",
          "name": "",
          "type": "address"
        },
        {
          "internalType": "contract IERC20Detailed",
          "name": "_tokenA",
          "type": "address"
        },
        {
          "internalType": "contract IERC20Detailed",
          "name": "_tokenB",
          "type": "address"
        },
        {
          "internalType": "uint256",
          "name": "",
          "type": "uint256"
        },
        {
          "internalType": "uint256",
          "name": "",
          "type": "uint256"
        },
        {
          "internalType": "bool",
          "name": "_isRewardTokenA",
          "type": "bool"
        },
        {
          "internalType": "uint256",
          "name": "_rewardAmount",
          "type": "uint256"
        },
        {
          "internalType": "uint256",
          "name": "_amountToProvide",
          "type": "uint256"
        },
        {
          "internalType": "bytes",
          "name": "",
          "type": "bytes"
        }
      ],
      "name": "DCAPairSwapCall",
      "outputs": [],
      "stateMutability": "nonpayable",
      "type": "function"
    },
    {
      "inputs": [],
      "name": "acceptPendingGovernor",
      "outputs": [],
      "stateMutability": "nonpayable",
      "type": "function"
    },
    {
      "inputs": [],
      "name": "factory",
      "outputs": [
        {
          "internalType": "contract IDCAFactory",
          "name": "",
          "type": "address"
        }
      ],
      "stateMutability": "view",
      "type": "function"
    },
    {
      "inputs": [],
      "name": "getPairsToSwap",
      "outputs": [
        {
          "internalType": "contract IDCAPair[]",
          "name": "_pairs",
          "type": "address[]"
        }
      ],
      "stateMutability": "nonpayable",
      "type": "function"
    },
    {
      "inputs": [],
      "name": "governor",
      "outputs": [
        {
          "internalType": "address",
          "name": "",
          "type": "address"
        }
      ],
      "stateMutability": "view",
      "type": "function"
    },
    {
      "inputs": [
        {
          "internalType": "address",
          "name": "_account",
          "type": "address"
        }
      ],
      "name": "isGovernor",
      "outputs": [
        {
          "internalType": "bool",
          "name": "_isGovernor",
          "type": "bool"
        }
      ],
      "stateMutability": "view",
      "type": "function"
    },
    {
      "inputs": [
        {
          "internalType": "address",
          "name": "_account",
          "type": "address"
        }
      ],
      "name": "isPendingGovernor",
      "outputs": [
        {
          "internalType": "bool",
          "name": "_isPendingGovernor",
          "type": "bool"
        }
      ],
      "stateMutability": "view",
      "type": "function"
    },
    {
      "inputs": [],
      "name": "pendingGovernor",
      "outputs": [
        {
          "internalType": "address",
          "name": "",
          "type": "address"
        }
      ],
      "stateMutability": "view",
      "type": "function"
    },
    {
      "inputs": [],
      "name": "quoter",
      "outputs": [
        {
          "internalType": "contract IQuoterV2",
          "name": "",
          "type": "address"
        }
      ],
      "stateMutability": "view",
      "type": "function"
    },
    {
      "inputs": [
        {
          "internalType": "address",
          "name": "__pendingGovernor",
          "type": "address"
        }
      ],
      "name": "setPendingGovernor",
      "outputs": [],
      "stateMutability": "nonpayable",
      "type": "function"
    },
    {
      "inputs": [
        {
          "internalType": "address[]",
          "name": "_pairs",
          "type": "address[]"
        }
      ],
      "name": "startWatchingPairs",
      "outputs": [],
      "stateMutability": "nonpayable",
      "type": "function"
    },
    {
      "inputs": [
        {
          "internalType": "address[]",
          "name": "_pairs",
          "type": "address[]"
        }
      ],
      "name": "stopWatchingPairs",
      "outputs": [],
      "stateMutability": "nonpayable",
      "type": "function"
    },
    {
      "inputs": [
        {
          "internalType": "contract IDCAPair[]",
          "name": "_pairsToSwap",
          "type": "address[]"
        }
      ],
      "name": "swapPairs",
      "outputs": [
        {
          "internalType": "uint256",
          "name": "_amountSwapped",
          "type": "uint256"
        }
      ],
      "stateMutability": "nonpayable",
      "type": "function"
    },
    {
      "inputs": [],
      "name": "swapRouter",
      "outputs": [
        {
          "internalType": "contract ISwapRouter",
          "name": "",
          "type": "address"
        }
      ],
      "stateMutability": "view",
      "type": "function"
    },
    {
      "inputs": [],
      "name": "watchedPairs",
      "outputs": [
        {
          "internalType": "address[]",
          "name": "_pairs",
          "type": "address[]"
        }
      ],
      "stateMutability": "view",
      "type": "function"
    }
  ],
  "transactionHash": "0xed5b2ac2c1bd019e647740c9112a6f400ed5f918e22ec11f3945b843c11db6fc",
  "args": [
    "0x9012D9bbFdcEe42c618f9464b4632568e6385dCa",
    "0x5f6AD3A83088188e81ff80295F7686e868400C29",
    "0xE592427A0AEce92De3Edee1F18E0157C05861564",
    "0xb27308f9F90D607463bb33eA1BeBb41C27CE5AB6"
  ],
  "solcInputHash": "d392bc89274cb27025074d3e3e3f4973",
  "bytecode": "0x60e06040523480156200001157600080fd5b5060405162001b3138038062001b3183398101604081905262000034916200011d565b836001600160a01b038116620000905760405162461bcd60e51b815260206004820152601860248201527f476f7665726e61626c653a207a65726f20616464726573730000000000000000604482015260640160405180910390fd5b600080546001600160a01b0319166001600160a01b0392831617905583161580620000c257506001600160a01b038216155b80620000d557506001600160a01b038116155b15620000f45760405163d92e233d60e01b815260040160405180910390fd5b6001600160601b0319606093841b811660805291831b821660a05290911b1660c052506200019d565b6000806000806080858703121562000133578384fd5b8451620001408162000184565b6020860151909450620001538162000184565b6040860151909350620001668162000184565b6060860151909250620001798162000184565b939692955090935050565b6001600160a01b03811681146200019a57600080fd5b50565b60805160601c60a05160601c60c05160601c611938620001f9600039600081816101e90152610e8c01526000818161019b015281816105c10152818161068c015261071b0152600081816101c2015261039e01526119386000f3fe608060405234801561001057600080fd5b50600436106100f55760003560e01c8063c31c9c0711610097578063e3056a3411610066578063e3056a341461023d578063e43581b81461024e578063f235757f14610270578063fd080b8c1461028357600080fd5b8063c31c9c0714610196578063c45a0155146101bd578063c6bbd5a7146101e4578063df08aed51461020b57600080fd5b806313f6986d116100d357806313f6986d146101525780633d33803c1461015a5780633e9e35e51461016d578063bbc3d60d1461017557600080fd5b806304830ae7146100fa5780630c340a24146101185780630fd249101461013d575b600080fd5b610102610296565b60405161010f91906116d3565b60405180910390f35b6000546001600160a01b03165b6040516001600160a01b03909116815260200161010f565b61015061014b366004611498565b61035e565b005b610150610525565b6101506101683660046113b8565b610593565b610102610766565b610188610183366004611498565b61089c565b60405190815260200161010f565b6101257f000000000000000000000000000000000000000000000000000000000000000081565b6101257f000000000000000000000000000000000000000000000000000000000000000081565b6101257f000000000000000000000000000000000000000000000000000000000000000081565b61022d61021936600461139c565b6001546001600160a01b0391821691161490565b604051901515815260200161010f565b6001546001600160a01b0316610125565b61022d61025c36600461139c565b6000546001600160a01b0391821691161490565b61015061027e36600461139c565b610994565b610150610291366004611498565b6109ca565b606060006102a46002610a84565b90508067ffffffffffffffff8111156102cd57634e487b7160e01b600052604160045260246000fd5b6040519080825280602002602001820160405280156102f6578160200160208202803683370190505b50915060005b818110156103595761030f600282610a94565b83828151811061032f57634e487b7160e01b600052603260045260246000fd5b6001600160a01b03909216602092830291909101909101528061035181611898565b9150506102fc565b505090565b6000546001600160a01b031633146103915760405162461bcd60e51b815260040161038890611776565b60405180910390fd5b60005b818110156104e7577f00000000000000000000000000000000000000000000000000000000000000006001600160a01b031663e5e31b138484848181106103eb57634e487b7160e01b600052603260045260246000fd5b9050602002016020810190610400919061139c565b6040516001600160e01b031960e084901b1681526001600160a01b03909116600482015260240160206040518083038186803b15801561043f57600080fd5b505afa158015610453573d6000803e3d6000fd5b505050506040513d601f19601f8201168201806040525081019061047791906114d8565b6104945760405163157a7c9760e11b815260040160405180910390fd5b6104d48383838181106104b757634e487b7160e01b600052603260045260246000fd5b90506020020160208101906104cc919061139c565b600290610aa7565b50806104df81611898565b915050610394565b507fe9b4f02df663d875b1341e4104eeb7dd675ebfa4d7bbc039f83d6fe3347ab4758282604051610519929190611685565b60405180910390a15050565b6001546001600160a01b031633146105895760405162461bcd60e51b815260206004820152602160248201527f476f7665726e61626c653a206f6e6c792070656e64696e6720676f7665726e6f6044820152603960f91b6064820152608401610388565b610591610abc565b565b821561075a576000856105a657886105a8565b895b90506000866105b7578a6105b9565b895b90506105e6827f000000000000000000000000000000000000000000000000000000000000000088610b64565b60408051610100810182526001600160a01b03848116825283811660208301908152610bb88385019081523360608501908152426080860190815260a086018c815260c087018e8152600060e089018181529951631b67c43360e31b8152895189166004820152965188166024880152945162ffffff166044870152925186166064860152905160848501525160a48401525160c48301529351821660e48201529192917f00000000000000000000000000000000000000000000000000000000000000009091169063db3e21989061010401602060405180830381600087803b1580156106d357600080fd5b505af11580156106e7573d6000803e3d6000fd5b505050506040513d601f19601f8201168201806040525081019061070b91906115ef565b90508781101561075557610741847f00000000000000000000000000000000000000000000000000000000000000006000610b64565b6107558433610750848c61186a565b610c64565b505050505b50505050505050505050565b60606000806107756002610a84565b905060005b818110156107ba57610795610790600283610a94565b610d5d565b156107a857826107a481611898565b9350505b806107b281611898565b91505061077a565b508167ffffffffffffffff8111156107e257634e487b7160e01b600052604160045260246000fd5b60405190808252806020026020018201604052801561080b578160200160208202803683370190505b50925060005b81811015610896576000610826600283610a94565b905061083181610d5d565b1561088357808561084186611881565b9550858151811061086257634e487b7160e01b600052603260045260246000fd5b60200260200101906001600160a01b031690816001600160a01b0316815250505b508061088e81611898565b915050610811565b50505090565b6000816108bc57604051635088761560e01b815260040160405180910390fd5b60005b60005a905061090c8585856108d381611898565b96508181106108f257634e487b7160e01b600052603260045260246000fd5b9050602002016020810190610907919061139c565b610f21565b60005a610919908361186a565b905082811115610927578092505b5050828210801561094e5750600261094082600361184b565b61094a919061182b565b5a10155b6108bf577f4d5b890940c072753124125e8b6badf4f1901253f9b8496f832662116bf0df5884848460405161098593929190611720565b60405180910390a15092915050565b6000546001600160a01b031633146109be5760405162461bcd60e51b815260040161038890611776565b6109c781610f9c565b50565b6000546001600160a01b031633146109f45760405162461bcd60e51b815260040161038890611776565b60005b81811015610a5257610a3f838383818110610a2257634e487b7160e01b600052603260045260246000fd5b9050602002016020810190610a37919061139c565b600290611046565b5080610a4a81611898565b9150506109f7565b507f7128e431a215a0d3757c5985db974624eabad7abd7fb2a005e87502cc0f5047c8282604051610519929190611685565b6000610a8e825490565b92915050565b6000610aa0838361105b565b9392505050565b6000610aa0836001600160a01b0384166110ef565b6001546001600160a01b0316610b145760405162461bcd60e51b815260206004820152601f60248201527f476f7665726e61626c653a206e6f2070656e64696e6720676f7665726e6f72006044820152606401610388565b60018054600080546001600160a01b03199081166001600160a01b0384161782559091169091556040517fdc57ca23c46d823853915ed5a090ca0ee9db5eb6a46f5c58e1c9158de861fd769190a1565b604080516001600160a01b038481166024830152604480830185905283518084039091018152606490920183526020820180516001600160e01b031663095ea7b360e01b1790529151600092839290871691610bc0919061164c565b6000604051808303816000865af19150503d8060008114610bfd576040519150601f19603f3d011682016040523d82523d6000602084013e610c02565b606091505b5091509150818015610c2c575080511580610c2c575080806020019051810190610c2c91906114d8565b610c5d5760405162461bcd60e51b8152602060048201526002602482015261534160f01b6044820152606401610388565b5050505050565b604080516001600160a01b038481166024830152604480830185905283518084039091018152606490920183526020820180516001600160e01b031663a9059cbb60e01b1790529151600092839290871691610cc0919061164c565b6000604051808303816000865af19150503d8060008114610cfd576040519150601f19603f3d011682016040523d82523d6000602084013e610d02565b606091505b5091509150818015610d2c575080511580610d2c575080806020019051810190610d2c91906114d8565b610c5d5760405162461bcd60e51b815260206004820152600260248201526114d560f21b6044820152606401610388565b600080826001600160a01b0316632f84cbf56040518163ffffffff1660e01b815260040160006040518083038186803b158015610d9957600080fd5b505afa158015610dad573d6000803e3d6000fd5b505050506040513d6000823e601f3d908101601f19168201604052610dd591908101906114f4565b9050806020015160ff1660001415610df05750600092915050565b610100810151610e035750600192915050565b6040805160a0810182526101608301516001600160a01b039081168252610140840151811660208301908152610100850151838501908152610bb8606085019081526000608086018181529651635e90b82560e11b8152865186166004820152935185166024850152915160448401525162ffffff1660648301529351821660848201529192917f00000000000000000000000000000000000000000000000000000000000000009091169063bd21704a9060a401608060405180830381600087803b158015610ed257600080fd5b505af1158015610ee6573d6000803e3d6000fd5b505050506040513d601f19601f82011682018060405250810190610f0a9190611607565b505050610120909301519290921015949350505050565b60405163022c0d9f60e01b815260006004820181905260248201523060448201526080606482015260016084820152602d60f81b60a48201526001600160a01b0382169063022c0d9f9060c401600060405180830381600087803b158015610f8857600080fd5b505af1158015610c5d573d6000803e3d6000fd5b6001600160a01b038116610ff25760405162461bcd60e51b815260206004820152601860248201527f476f7665726e61626c653a207a65726f206164647265737300000000000000006044820152606401610388565b600180546001600160a01b0319166001600160a01b0383169081179091556040519081527f56bddfa0cee9697cebddf9acd7f23dc6583663b05e007b877056d05017994def9060200160405180910390a150565b6000610aa0836001600160a01b03841661113e565b815460009082106110b95760405162461bcd60e51b815260206004820152602260248201527f456e756d657261626c655365743a20696e646578206f7574206f6620626f756e604482015261647360f01b6064820152608401610388565b8260000182815481106110dc57634e487b7160e01b600052603260045260246000fd5b9060005260206000200154905092915050565b600081815260018301602052604081205461113657508154600181810184556000848152602080822090930184905584548482528286019093526040902091909155610a8e565b506000610a8e565b6000818152600183016020526040812054801561124b57600061116260018361186a565b85549091506000906111769060019061186a565b9050600086600001828154811061119d57634e487b7160e01b600052603260045260246000fd5b90600052602060002001549050808760000184815481106111ce57634e487b7160e01b600052603260045260246000fd5b60009182526020808320909101929092558281526001890190915260409020849055865487908061120f57634e487b7160e01b600052603160045260246000fd5b60019003818190600052602060002001600090559055866001016000878152602001908152602001600020600090556001945050505050610a8e565b6000915050610a8e565b60008083601f840112611266578081fd5b50813567ffffffffffffffff81111561127d578182fd5b6020830191508360208260051b850101111561129857600080fd5b9250929050565b600082601f8301126112af578081fd5b8151602067ffffffffffffffff8211156112cb576112cb6118c9565b6112d9818360051b016117fa565b80838252828201915082860187848660071b89010111156112f8578586fd5b855b8581101561135a57608080838b031215611312578788fd5b61131a6117ad565b61132384611377565b8152611330878501611377565b818801526040848101519082015260608085015190820152855293850193909101906001016112fa565b5090979650505050505050565b8051611372816118df565b919050565b805163ffffffff8116811461137257600080fd5b805160ff8116811461137257600080fd5b6000602082840312156113ad578081fd5b8135610aa0816118df565b6000806000806000806000806000806101208b8d0312156113d7578586fd5b8a356113e2816118df565b995060208b01356113f2816118df565b985060408b0135611402816118df565b975060608b0135965060808b0135955060a08b0135611420816118f4565b945060c08b0135935060e08b013592506101008b013567ffffffffffffffff8082111561144b578384fd5b818d0191508d601f83011261145e578384fd5b81358181111561146c578485fd5b8e602082850101111561147d578485fd5b6020830194508093505050509295989b9194979a5092959850565b600080602083850312156114aa578182fd5b823567ffffffffffffffff8111156114c0578283fd5b6114cc85828601611255565b90969095509350505050565b6000602082840312156114e9578081fd5b8151610aa0816118f4565b600060208284031215611505578081fd5b815167ffffffffffffffff8082111561151c578283fd5b908301906101808286031215611530578283fd5b6115386117d6565b825182811115611546578485fd5b6115528782860161129f565b8252506115616020840161138b565b602082015260408301516040820152606083015160608201526080830151608082015260a083015160a082015260c083015160c082015260e083015160e0820152610100915081830151828201526101209150818301518282015261014091506115cc828401611367565b8282015261016091506115e0828401611367565b91810191909152949350505050565b600060208284031215611600578081fd5b5051919050565b6000806000806080858703121561161c578182fd5b84519350602085015161162e816118df565b925061163c60408601611377565b6060959095015193969295505050565b60008251815b8181101561166c5760208186018101518583015201611652565b8181111561167a5782828501525b509190910192915050565b60208082528181018390526000908460408401835b868110156116c85782356116ad816118df565b6001600160a01b03168252918301919083019060010161169a565b509695505050505050565b6020808252825182820181905260009190848201906040850190845b818110156117145783516001600160a01b0316835292840192918401916001016116ef565b50909695505050505050565b6040808252810183905260008460608301825b86811015611763578235611746816118df565b6001600160a01b0316825260209283019290910190600101611733565b5060209390930193909352509392505050565b60208082526019908201527f476f7665726e61626c653a206f6e6c7920676f7665726e6f7200000000000000604082015260600190565b6040516080810167ffffffffffffffff811182821017156117d0576117d06118c9565b60405290565b604051610180810167ffffffffffffffff811182821017156117d0576117d06118c9565b604051601f8201601f1916810167ffffffffffffffff81118282101715611823576118236118c9565b604052919050565b60008261184657634e487b7160e01b81526012600452602481fd5b500490565b6000816000190483118215151615611865576118656118b3565b500290565b60008282101561187c5761187c6118b3565b500390565b600081611890576118906118b3565b506000190190565b60006000198214156118ac576118ac6118b3565b5060010190565b634e487b7160e01b600052601160045260246000fd5b634e487b7160e01b600052604160045260246000fd5b6001600160a01b03811681146109c757600080fd5b80151581146109c757600080fdfea2646970667358221220c77c86d3f156afa85b0a35d7c837106b449524ef069c12f0b3922e66147e345164736f6c63430008040033",
  "devdoc": {
    "kind": "dev",
    "methods": {},
    "version": 1
  },
  "userdoc": {
    "kind": "user",
    "methods": {
      "getPairsToSwap()": {
        "notice": "This method isn't a view and it is extremelly expensive and inefficient. DO NOT call this method on-chain, it is for off-chain purposes only."
      },
      "swapPairs(address[])": {
        "notice": "Takes an array of swaps, and executes as many as possible, returning the amount that was swapped"
      }
    },
    "version": 1
  },
  "storageLayout": {
    "storage": [
      {
        "astId": 13377,
        "contract": "contracts/DCASwapper/DCASwapper.sol:DCASwapper",
        "label": "_governor",
        "offset": 0,
        "slot": "0",
        "type": "t_address"
      },
      {
        "astId": 13379,
        "contract": "contracts/DCASwapper/DCASwapper.sol:DCASwapper",
        "label": "_pendingGovernor",
        "offset": 0,
        "slot": "1",
        "type": "t_address"
      },
      {
        "astId": 8313,
        "contract": "contracts/DCASwapper/DCASwapper.sol:DCASwapper",
        "label": "_watchedPairs",
        "offset": 0,
        "slot": "2",
        "type": "t_struct(AddressSet)3156_storage"
      }
    ],
    "types": {
      "t_address": {
        "encoding": "inplace",
        "label": "address",
        "numberOfBytes": "20"
      },
      "t_array(t_bytes32)dyn_storage": {
        "base": "t_bytes32",
        "encoding": "dynamic_array",
        "label": "bytes32[]",
        "numberOfBytes": "32"
      },
      "t_bytes32": {
        "encoding": "inplace",
        "label": "bytes32",
        "numberOfBytes": "32"
      },
      "t_mapping(t_bytes32,t_uint256)": {
        "encoding": "mapping",
        "key": "t_bytes32",
        "label": "mapping(bytes32 => uint256)",
        "numberOfBytes": "32",
        "value": "t_uint256"
      },
      "t_struct(AddressSet)3156_storage": {
        "encoding": "inplace",
        "label": "struct EnumerableSet.AddressSet",
        "members": [
          {
            "astId": 3155,
            "contract": "contracts/DCASwapper/DCASwapper.sol:DCASwapper",
            "label": "_inner",
            "offset": 0,
            "slot": "0",
            "type": "t_struct(Set)2881_storage"
          }
        ],
        "numberOfBytes": "64"
      },
      "t_struct(Set)2881_storage": {
        "encoding": "inplace",
        "label": "struct EnumerableSet.Set",
        "members": [
          {
            "astId": 2876,
            "contract": "contracts/DCASwapper/DCASwapper.sol:DCASwapper",
            "label": "_values",
            "offset": 0,
            "slot": "0",
            "type": "t_array(t_bytes32)dyn_storage"
          },
          {
            "astId": 2880,
            "contract": "contracts/DCASwapper/DCASwapper.sol:DCASwapper",
            "label": "_indexes",
            "offset": 0,
            "slot": "1",
            "type": "t_mapping(t_bytes32,t_uint256)"
          }
        ],
        "numberOfBytes": "64"
      },
      "t_uint256": {
        "encoding": "inplace",
        "label": "uint256",
        "numberOfBytes": "32"
      }
    }
  }
}