{
  "address": "0x3d380a68092A1CF38F4b860ffA07c96713fa1665",
  "abi": [
    {
      "inputs": [
        {
          "internalType": "contract IDCAPairPositionHandler",
          "name": "_positionHandler",
          "type": "address"
        },
        {
          "internalType": "uint256",
          "name": "_tokenId",
          "type": "uint256"
        }
      ],
      "name": "tokenURI",
      "outputs": [
        {
          "internalType": "string",
          "name": "",
          "type": "string"
        }
      ],
      "stateMutability": "view",
      "type": "function"
    }
  ],
  "transactionHash": "0x70fe73497fc13a78300c57c7304a0c5bd56e53f0a8e58e855c928942bbb80657",
  "args": [],
  "solcInputHash": "486e204ff99612f30e6fa3cccc207409",
  "bytecode": "0x608060405234801561001057600080fd5b50613d85806100206000396000f3fe608060405234801561001057600080fd5b506004361061002b5760003560e01c8063e9dc637514610030575b600080fd5b61004361003e366004611865565b610059565b6040516100509190613910565b60405180910390f35b60606000836001600160a01b0316630fc63d106040518163ffffffff1660e01b815260040160206040518083038186803b15801561009657600080fd5b505afa1580156100aa573d6000803e3d6000fd5b505050506040513d601f19601f820116820180604052508101906100ce9190611842565b90506000846001600160a01b0316635f64b55b6040518163ffffffff1660e01b815260040160206040518083038186803b15801561010b57600080fd5b505afa15801561011f573d6000803e3d6000fd5b505050506040513d601f19601f820116820180604052508101906101439190611842565b90506000856001600160a01b0316630ad82b2f6040518163ffffffff1660e01b815260040160206040518083038186803b15801561018057600080fd5b505afa158015610194573d6000803e3d6000fd5b505050506040513d601f19601f820116820180604052508101906101b89190611842565b604051635b6fd01d60e01b8152600481018790529091506000906001600160a01b03881690635b6fd01d906024016101006040518083038186803b1580156101ff57600080fd5b505afa158015610213573d6000803e3d6000fd5b505050506040513d601f19601f82011682018060405250810190610237919061192e565b905061055a604051806101e00160405280896001600160a01b03168152602001866001600160a01b03168152602001856001600160a01b03168152602001866001600160a01b031663313ce5676040518163ffffffff1660e01b815260040160206040518083038186803b1580156102ae57600080fd5b505afa1580156102c2573d6000803e3d6000fd5b505050506040513d601f19601f820116820180604052508101906102e691906119e9565b60ff168152602001856001600160a01b031663313ce5676040518163ffffffff1660e01b815260040160206040518083038186803b15801561032757600080fd5b505afa15801561033b573d6000803e3d6000fd5b505050506040513d601f19601f8201168201806040525081019061035f91906119e9565b60ff168152602001866001600160a01b03166395d89b416040518163ffffffff1660e01b815260040160006040518083038186803b1580156103a057600080fd5b505afa1580156103b4573d6000803e3d6000fd5b505050506040513d6000823e601f3d908101601f191682016040526103dc9190810190611890565b8152602001856001600160a01b03166395d89b416040518163ffffffff1660e01b815260040160006040518083038186803b15801561041a57600080fd5b505afa15801561042e573d6000803e3d6000fd5b505050506040513d6000823e601f3d908101601f191682016040526104569190810190611890565b81526040808501519051630eb9121760e31b815263ffffffff90911660048201526020909101906001600160a01b038616906375c890b89060240160006040518083038186803b1580156104a957600080fd5b505afa1580156104bd573d6000803e3d6000fd5b505050506040513d6000823e601f3d908101601f191682016040526104e59190810190611890565b8152602001836060015163ffffffff1681526020018360a0015163ffffffff168152602001888152602001836080015181526020018360c0015181526020018360e001516001600160a01b03168152602001866001600160a01b031684600001516001600160a01b0316141515815250610567565b9450505050505b92915050565b6060600061057483610628565b905060006105bc8460a001518560c001516105928760000151610671565b61059f8860200151610671565b6105ac8960400151610671565b8960e001518a61014001516107f6565b905060006105d16105cc866108a7565b610ac6565b90506105ff8383836040516020016105eb93929190611ce8565b604051602081830303815290604052610ac6565b60405160200161060f91906138cb565b6040516020818303038152906040529350505050919050565b60608160e0015161063c8360a00151610c3c565b6106498460c00151610c3c565b60405160200161065b93929190612be0565b6040516020818303038152906040529050919050565b60408051602880825260608281019093526000919060208201818036833701905050905060005b60148110156107cd5760006106ae826013613b5f565b6106b9906008613af3565b6106c4906002613a3b565b6106d7906001600160a01b03871661399f565b60f81b9050600060108260f81c6106ee91906139d6565b60f81b905060008160f81c60106107059190613b3e565b8360f81c6107139190613b76565b60f81b905061072182610e4b565b8561072d866002613af3565b8151811061074b57634e487b7160e01b600052603260045260246000fd5b60200101906001600160f81b031916908160001a90535061076b81610e4b565b85610777866002613af3565b610782906001613943565b815181106107a057634e487b7160e01b600052603260045260246000fd5b60200101906001600160f81b031916908160001a90535050505080806107c590613be6565b915050610698565b50806040516020016107df9190611daf565b604051602081830303815290604052915050919050565b6060600061080389610c3c565b61080c89610c3c565b886108168c610c3c565b6040516020016108299493929190612ffe565b60405160208183030381529060405290506000866108468a610c3c565b878761085188610e86565b604051602001610865959493929190612e5c565b60405160208183030381529060405290508181604051602001610889929190611a26565b60405160208183030381529060405292505050979650505050505050565b6060806060600080856101c00151156108eb576108c78660a00151610c3c565b9350856060015191506108dd8660c00151610c3c565b925085608001519050610918565b6108f88660c00151610c3c565b93508560800151915061090e8660a00151610c3c565b9250856060015190505b60006040518061018001604052806109338960200151610671565b81526020016109458960400151610671565b81526020016109578960a00151610c3c565b81526020016109698960c00151610c3c565b81526020018860e00151815260200188610100015163ffffffff16815260200188610120015163ffffffff16815260200188610140015181526020016109b489610160015185610fa8565b866040516020016109c6929190611c6c565b6040516020818303038152906040528152602001610a1960008a610100015163ffffffff16116109f7576000610a13565b89610100015163ffffffff168a6101600151610a13919061399f565b85610fa8565b86604051602001610a2b929190611c6c565b6040516020818303038152906040528152602001610a4e89610180015186610fa8565b87604051602001610a60929190611c6c565b6040516020818303038152906040528152602001610a8c896101a001516001600160a01b031686610fa8565b87604051602001610a9e929190611c6c565b6040516020818303038152906040528152509050610abb816111a3565b979650505050505050565b6060815160001415610ae657505060408051602081019091526000815290565b6000604051806060016040528060408152602001613cd06040913990506000600384516002610b159190613943565b610b1f919061399f565b610b2a906004613af3565b90506000610b39826020613943565b67ffffffffffffffff811115610b5f57634e487b7160e01b600052604160045260246000fd5b6040519080825280601f01601f191660200182016040528015610b89576020820181803683370190505b509050818152600183018586518101602084015b81831015610bf75760039283018051603f601282901c811687015160f890811b8552600c83901c8216880151811b6001860152600683901c8216880151811b60028601529116860151901b93820193909352600401610b9d565b600389510660018114610c115760028114610c2257610c2e565b613d3d60f01b600119830152610c2e565b603d60f81b6000198301525b509398975050505050505050565b6060816000805b82518160ff161015610cad57828160ff1681518110610c7257634e487b7160e01b600052603260045260246000fd5b6020910101516001600160f81b031916601160f91b1415610c9b5781610c9781613c01565b9250505b80610ca581613c01565b915050610c43565b5060ff811615610e435760008160ff168351610cc99190613943565b67ffffffffffffffff811115610cef57634e487b7160e01b600052604160045260246000fd5b6040519080825280601f01601f191660200182016040528015610d19576020820181803683370190505b5090506000805b84518160ff161015610e3857848160ff1681518110610d4f57634e487b7160e01b600052603260045260246000fd5b6020910101516001600160f81b031916601160f91b1415610db257601760fa1b8383610d7a81613be6565b945081518110610d9a57634e487b7160e01b600052603260045260246000fd5b60200101906001600160f81b031916908160001a9053505b848160ff1681518110610dd557634e487b7160e01b600052603260045260246000fd5b01602001516001600160f81b0319168383610def81613be6565b945081518110610e0f57634e487b7160e01b600052603260045260246000fd5b60200101906001600160f81b031916908160001a90535080610e3081613c01565b915050610d20565b509095945050505050565b509192915050565b6000600a60f883901c1015610e7257610e6960f883901c603061397a565b60f81b92915050565b610e6960f883901c605761397a565b919050565b606081610eaa5750506040805180820190915260018152600360fc1b602082015290565b8160005b8115610ed45780610ebe81613be6565b9150610ecd9050600a8361399f565b9150610eae565b60008167ffffffffffffffff811115610efd57634e487b7160e01b600052604160045260246000fd5b6040519080825280601f01601f191660200182016040528015610f27576020820181803683370190505b5090505b8415610fa057610f3c600183613b5f565b9150610f49600a86613c21565b610f54906030613943565b60f81b818381518110610f7757634e487b7160e01b600052603260045260246000fd5b60200101906001600160f81b031916908160001a905350610f99600a8661399f565b9450610f2b565b949350505050565b606082610fd257506040805180820190915260068152650302e303030360d41b6020820152610561565b6000610fdf83600a613a47565b841090508360005b811561100d5780610ff781613c01565b91506110069050600a8361399f565b9150610fe7565b611018600182613b76565b9050600080611027888461122b565b91509150801561103f578261103b81613c01565b9350505b6040805160e081018252600080825260208201819052918101829052606081018290526080810182905260a0810182905260c081019190915285156110f95760058460ff16101561109a5761109588600261397a565b6110af565b6110a48489613b76565b6110af90600661397a565b60ff166020820152600260808201526110c88489613b76565b6110d390600161397a565b60ff1660a082015260208101516110ec90600190613b76565b60ff166040820152611182565b61110488600461397a565b60ff168460ff16106111565761111a8885613b76565b61112590600161397a565b60ff16602082018190526005608083015261114290600190613b76565b60ff1660a082015260046040820152611182565b600660208201526005604082015261116e8885613b76565b61117990600161397a565b60ff1660608201525b82815285151560c0820152611196816112b8565b9998505050505050505050565b60606111ad611533565b6111c98360000151846020015185604001518660600151611558565b6111e08460400151856060015186608001516115d8565b6111f28560a001518660c00151611607565b6112178660e001518761010001518861012001518961014001518a61016001516116a3565b60405160200161065b959493929190611bf0565b600080600060058460ff16111561125f57611247600585613b76565b61125290600a613a47565b61125c908661399f565b94505b6000600461126e600a88613c21565b11905061127c600a8761399f565b955080156112925761128f866001613943565b95505b85620186a014156112af576112a8600a8761399f565b9550600191505b50939492505050565b60606000826020015160ff1667ffffffffffffffff8111156112ea57634e487b7160e01b600052604160045260246000fd5b6040519080825280601f01601f191660200182016040528015611314576020820181803683370190505b5090508260c001511561139c57600360fc1b8160008151811061134757634e487b7160e01b600052603260045260246000fd5b60200101906001600160f81b031916908160001a905350601760f91b8160018151811061138457634e487b7160e01b600052603260045260246000fd5b60200101906001600160f81b031916908160001a9053505b608083015160ff165b60a08401516113b590600161397a565b60ff1681101561140d57603060f81b8282815181106113e457634e487b7160e01b600052603260045260246000fd5b60200101906001600160f81b031916908160001a9053508061140581613be6565b9150506113a5565b505b825115610561576000836060015160ff1611801561143a5750826060015160ff16836040015160ff16145b1561149957601760f91b8184604001805180919061145790613bc9565b60ff1660ff1681525060ff168151811061148157634e487b7160e01b600052603260045260246000fd5b60200101906001600160f81b031916908160001a9053505b82516000906114aa90600a90613c21565b6114b5906030613943565b90508060f81b82856040015160ff16815181106114e257634e487b7160e01b600052603260045260246000fd5b60200101906001600160f81b031916908160001a905350600a8460000181815161150c919061399f565b90525083511561152d576040840180519061152682613bc9565b60ff169052505b5061140f565b606060405160200161154490611dd9565b604051602081830303815290604052905090565b60606000858460405160200161156f929190611ca8565b604051602081830303815290604052905060008584604051602001611595929190611ca8565b6040516020818303038152906040529050818282836040516020016115bd94939291906127af565b60405160208183030381529060405292505050949350505050565b60608383836040516020016115ef93929190612c60565b60405160208183030381529060405290509392505050565b6060600083611616848261395b565b6116219060906139b3565b61162b9190613b12565b6116369060aa61395b565b63ffffffff16905061164781610e86565b6116568563ffffffff16610e86565b611669611664846004613943565b610e86565b6116788663ffffffff16610e86565b60405160200161168b94939291906132d7565b60405160208183030381529060405291505092915050565b60606116d460405180604001604052806002815260200161125960f21b8152506116cc88610e86565b61016c6117b4565b6117016040518060400160405280600881526020016729bbb0b83832b21560c11b8152508761018a6117b4565b61172f6040518060400160405280600981526020016841766720507269636560b81b815250876101a86117b4565b61175d6040518060400160405280600981526020016852656d61696e696e6760b81b815250876101c66117b4565b611786604051806040016040528060048152602001635261746560e01b815250876101e46117b4565b60405160200161179a959493929190611a55565b604051602081830303815290604052905095945050505050565b60606000835185516117c69190613943565b6117d1906002613943565b90506117dc83610e86565b6117f56117ea836004613943565b611664906007613af3565b868660405160200161180a949392919061311f565b6040516020818303038152906040529150509392505050565b8051610e8181613c77565b805163ffffffff81168114610e8157600080fd5b600060208284031215611853578081fd5b815161185e81613c77565b9392505050565b60008060408385031215611877578081fd5b823561188281613c77565b946020939093013593505050565b6000602082840312156118a1578081fd5b815167ffffffffffffffff808211156118b8578283fd5b818401915084601f8301126118cb578283fd5b8151818111156118dd576118dd613c61565b604051601f8201601f19908116603f0116810190838211818310171561190557611905613c61565b8160405282815287602084870101111561191d578586fd5b610abb836020830160208801613b99565b6000610100808385031215611941578182fd5b6040519081019067ffffffffffffffff8211818310171561196457611964613c61565b816040528351915061197582613c77565b81815261198460208501611823565b60208201526119956040850161182e565b60408201526119a66060850161182e565b6060820152608084015160808201526119c160a0850161182e565b60a082015260c084015160c08201526119dc60e08501611823565b60e0820152949350505050565b6000602082840312156119fa578081fd5b815160ff8116811461185e578182fd5b60008151611a1c818560208601613b99565b9290920192915050565b60008351611a38818460208801613b99565b835190830190611a4c818360208801613b99565b01949350505050565b600086516020611a688285838c01613b99565b875191840191611a7b8184848c01613b99565b8751920191611a8d8184848b01613b99565b8651920191611a9f8184848a01613b99565b8551920191611ab18184848901613b99565b7f3c67207374796c653d227472616e73666f726d3a7472616e736c61746528323592019182526b383c16101a989a383c14911f60a11b908201527f3c7465787420783d22313270782220793d22313770782220666f6e742d66616d602c8201527f696c793d2227436f7572696572204e6577272c206d6f6e6f7370616365222066604c8201527f6f6e742d73697a653d2231317078222066696c6c3d227768697465223e000000606c8201527f3c747370616e2066696c6c3d2272676261283235352c3235352c3235352c302e60898201527f3829223e2a2073696e6365207374617274206f72206c6173742077697468647260a98201526930bb9e17ba39b830b71f60b11b60c9820152661e17ba32bc3a1f60c91b60d3820152611be460da82015b631e17b39f60e11b815260040190565b98975050505050505050565b60008651611c02818460208b01613b99565b865190830190611c16818360208b01613b99565b8651910190611c29818360208a01613b99565b8551910190611c3c818360208901613b99565b8451910190611c4f818360208801613b99565b651e17b9bb339f60d11b9101908152600601979650505050505050565b60008351611c7e818460208801613b99565b600160fd1b9083019081528351611c9c816001840160208801613b99565b01600101949350505050565b60008351611cba818460208801613b99565b64010714051160dd1b9083019081528351611cdc816005840160208801613b99565b01600501949350505050565b683d913730b6b2911d1160b91b81528351600090611d0d816009850160208901613b99565b71111610113232b9b1b934b83a34b7b7111d1160711b6009918401918201528451611d3f81601b840160208901613b99565b6c1116101134b6b0b3b2911d101160991b601b92909101918201527f646174613a696d6167652f7376672b786d6c3b6261736536342c00000000000060288201528351611d93816042840160208801613b99565b61227d60f01b6042929091019182015260440195945050505050565b61060f60f31b815260008251611dcc816002850160208701613b99565b9190910160020192915050565b7f3c7376672077696474683d2232393022206865696768743d223536302220766981527f6577426f783d2230203020323930203536302220786d6c6e733d22687474703a60208201527f2f2f7777772e77332e6f72672f323030302f7376672220786d6c6e733a786c6960408201527f6e6b3d22687474703a2f2f7777772e77332e6f72672f313939392f786c696e6b606082015261111f60f11b60808201527f3c646566733e3c6c696e6561724772616469656e742078313d223131382e312560828201527f222079313d2231302e3525222078323d222d31382e3125222079323d2238392e60a28201527f352522206772616469656e74556e6974733d227573657253706163654f6e557360c28201527f65222069643d224c696e6561724772616469656e74223e3c73746f702073746f60e28201527f702d636f6c6f723d22726762612831332c20352c2032302c20312922206f66666101028201527f7365743d2230223e3c2f73746f703e3c73746f702073746f702d636f6c6f723d6101228201527f22726762612834372c2031392c2036362c20312922206f66667365743d22302e6101428201527f37223e3c2f73746f703e3c73746f702073746f702d636f6c6f723d22726762616101628201527f2833352c2031372c2035312c20312922206f66667365743d2231223e3c2f73746101828201527f6f703e3c2f6c696e6561724772616469656e743e3c636c6970506174682069646101a28201527f3d22636f726e657273223e3c726563742077696474683d2232393022206865696101c28201527f6768743d22353630222072783d223430222072793d22343022202f3e3c2f636c6101e28201527f6970506174683e3c706174682069643d22746578742d706174682d612220643d6102028201527f224d3430203132204832353020413238203238203020302031203237382034306102228201527f20563532302041323820323820302030203120323530203534382048343020416102428201527f32382032382030203020312031322035323020563430204132382032382030206102628201527f302031203430203132207a22202f3e3c6d61736b2069643d226e6f6e6522206d6102828201527f61736b436f6e74656e74556e6974733d226f626a656374426f756e64696e67426102a28201527f6f78223e3c726563742077696474683d223122206865696768743d22312220666102c28201527f696c6c3d22776869746522202f3e3c2f6d61736b3e3c6c696e656172477261646102e28201527f69656e742069643d22677261642d73796d626f6c223e3c73746f70206f6666736103028201527f65743d22302e38222073746f702d636f6c6f723d227768697465222073746f706103228201527f2d6f7061636974793d223122202f3e3c73746f70206f66667365743d222e39356103428201527f222073746f702d636f6c6f723d227768697465222073746f702d6f70616369746103628201527f793d223022202f3e3c2f6c696e6561724772616469656e743e3c6d61736b20696103828201527f643d22666164652d73796d626f6c22206d61736b436f6e74656e74556e6974736103a28201527f3d227573657253706163654f6e557365223e3c726563742077696474683d22326103c28201527f3930707822206865696768743d223230307078222066696c6c3d2275726c28236103e28201527f677261642d73796d626f6c2922202f3e3c2f6d61736b3e3c2f646566733e00006104028201527f3c6720636c69702d706174683d2275726c2823636f726e65727329223e0000006104208201527f3c726563742077696474683d2232393022206865696768743d2235363022207861043d8201527f3d22302220793d2230222066696c6c3d2275726c28234c696e6561724772616461045d8201526d34b2b73a14911f1e17b932b1ba1f60911b61047d8201527f3c7061746820643d224d32393020304c3234382e363120304c3239302036312e61048b8201527f34387a222066696c6c3d2272676261283235352c203235352c203235352c202e6104ab8201526a1894911f1e17b830ba341f60a91b6104cb8201527f3c7061746820643d224d3234382e363120304c3239302036312e34384c3239306104d68201527f203138392e33353939393939393939393939394c3230302e373520307a2220666104f68201527f696c6c3d2272676261283235352c203235352c203235352c202e30373529223e610516820152661e17b830ba341f60c91b6105368201527f3c7061746820643d224d3230302e373520304c323930203138392e333539393961053d8201527f3939393939393939394c323930203239342e393139393939393939393939393661055d8201527f4c3131322e353220307a222066696c6c3d2272676261283235352c203235352c61057d8201527210191a9a961017181a94911f1e17b830ba341f60691b61059d8201527f3c7061746820643d224d3131322e353139393939393939393939393820304c326105b08201527f3930203239342e39313939393939393939393939364c323930203335372e37396105d08201527f3939393939393939393939354c33322e373839393939393939393939393820306105f08201527f7a222066696c6c3d2272676261283235352c203235352c203235352c202e30326106108201526a1a94911f1e17b830ba341f60a91b6106308201527f3c7061746820643d224d30203536304c34302e3237203536304c30203430322e61063b8201527f33357a222066696c6c3d227267626128302c20302c20302c202e3129223e3c2f61065b820152643830ba341f60d91b61067b8201527f3c7061746820643d224d30203430322e33354c34302e3237203536304c3133376106808201527f2e3936203536304c30203232312e38393030303030303030303030317a2220666106a08201527f696c6c3d227267626128302c20302c20302c202e30373529223e3c2f706174686106c0820152601f60f91b6106e08201526000610561611bd46127056106e185017f3c7061746820643d224d30203232312e38394c3133372e3936203536304c313581527f332e3835363030303030303030303032203536304c30203138332e39327a222060208201527f66696c6c3d227267626128302c20302c20302c202e303529223e3c2f706174686040820152601f60f91b606082015260610190565b7f3c7061746820643d224d30203138332e39313939393939393939393939364c3181527f35332e3835303030303030303030303032203536304c3135362e36363030303060208201527f3030303030303033203536304c30203135312e3631393939393939393939393960408201527f357a222066696c6c3d227267626128302c20302c20302c202e30323529223e3c60608201526517b830ba341f60d11b608082015260860190565b7f3c7465787420746578742d72656e646572696e673d226f7074696d697a65537081527f656564223e3c74657874506174682073746172744f66667365743d222d31303060208201527f25222066696c6c3d2277686974652220666f6e742d66616d696c793d2227436f60408201527f7572696572204e6577272c206d6f6e6f73706163652220666f6e742d73697a6560608201527f3d22313070782220786c696e6b3a687265663d2223746578742d706174682d61608082015261111f60f11b60a08201526000855161288a8160a2850160208a01613b99565b600080516020613cb083398151915260a291840191820152600080516020613d1083398151915260c2820152600080516020613c9083398151915260e2820152600080516020613d308339815191526101028201527f74683e3c74657874506174682073746172744f66667365743d223025222066696101228201527f6c6c3d2277686974652220666f6e742d66616d696c793d2227436f75726965726101428201527f204e6577272c206d6f6e6f73706163652220666f6e742d73697a653d223130706101628201527f782220786c696e6b3a687265663d2223746578742d706174682d61223e000000610182820152610abb612b7a612b74612a89612a8361299861019f87018c611a0a565b600080516020613cb08339815191528152600080516020613d108339815191526020820152600080516020613c908339815191526040820152600080516020613d3083398151915260608201527f74683e3c74657874506174682073746172744f66667365743d2235302522206660808201527f696c6c3d2277686974652220666f6e742d66616d696c793d2227436f7572696560a08201527f72204e6577272c206d6f6e6f73706163652220666f6e742d73697a653d22313060c08201527f70782220786c696e6b3a687265663d2223746578742d706174682d61223e000060e082015260fe0190565b89611a0a565b600080516020613cb08339815191528152600080516020613d108339815191526020820152600080516020613c908339815191526040820152600080516020613d3083398151915260608201527f74683e3c74657874506174682073746172744f66667365743d222d353025222060808201527f66696c6c3d2277686974652220666f6e742d66616d696c793d2227436f75726960a08201527f6572204e6577272c206d6f6e6f73706163652220666f6e742d73697a653d223160c08201527f3070782220786c696e6b3a687265663d2223746578742d706174682d61223e0060e082015260ff0190565b86611a0a565b600080516020613cb08339815191528152600080516020613d108339815191526020820152600080516020613c908339815191526040820152600080516020613d308339815191526060820152693a341f1e17ba32bc3a1f60b11b6080820152608a0190565b72026b2b0b7102334b730b731b2902221a090169606d1b815260008451612c0e816013850160208901613b99565b6201016960ed1b6013918401918201528451612c31816016840160208901613b99565b602f60f81b601692909101918201528351612c53816017840160208801613b99565b0160170195945050505050565b7f3c67206d61736b3d2275726c2823666164652d73796d626f6c29223e3c72656381527f742066696c6c3d226e6f6e652220783d223070782220793d223070782220776960208201527f6474683d22323930707822206865696768743d22323030707822202f3e3c746560408201527f787420793d22373070782220783d2233327078222066696c6c3d22776869746560608201527f2220666f6e742d66616d696c793d2227436f7572696572204e6577272c206d6f60808201527f6e6f73706163652220666f6e742d7765696768743d223230302220666f6e742d60a08201526b39b4bd329e91199ab83c111f60a11b60c082015260008451612d6b8160cc850160208901613b99565b602f60f81b60cc918401918201528451612d8c8160cd840160208901613b99565b610abb612e45612e3f612db160cd85870101661e17ba32bc3a1f60c91b815260070190565b7f3c7465787420793d2231313570782220783d2233327078222066696c6c3d227781527f686974652220666f6e742d66616d696c793d2227436f7572696572204e65772760208201527f2c206d6f6e6f73706163652220666f6e742d7765696768743d2232303022206660408201526f37b73a16b9b4bd329e91191c383c111f60811b606082015260700190565b87611a0a565b6a1e17ba32bc3a1f1e17b39f60a91b8152600b0190565b60006901020b2323932b9b99d160b51b8083528751612e8281600a860160208c01613b99565b612e3760f11b600a918501918201528751612ea481600c840160208c01613b99565b01600c810191909152855190612ec1826016830160208a01613b99565b8181019150507002e3729bbb0b81034b73a32b93b30b61d1607d1b60168201528451612ef4816027840160208901613b99565b6b02e372a37b5b2b71024a21d160a51b602792909101918201528351612f21816033840160208801613b99565b611196612f3d603383850101632e372e3760e11b815260040190565b7fe29aa0efb88f20444953434c41494d45523a204475652064696c6967656e636581527f20697320696d7065726174697665207768656e20617373657373696e6720746860208201527f6973204e46542e204d616b65207375726520746f6b656e20616464726573736560408201527f73206d617463682074686520657870656374656420746f6b656e732c2061732060608201527f746f6b656e2073796d626f6c73206d617920626520696d6974617465642e00006080820152609e0190565b7f54686973204e465420726570726573656e7473206120706f736974696f6e206981527403710309026b2b0b7102334b730b731b2902221a09605d1b602082015260008551613054816035850160208a01613b99565b602d60f81b6035918401918201528551613075816036840160208a01613b99565b660103830b4b917160cd1b603692909101918201527f546865206f776e6572206f662074686973204e46542063616e206d6f64696679603d8201527f206f722072656465656d2074686520706f736974696f6e2e5c6e000000000000605d8201526f02e372830b4b91020b2323932b9b99d160851b60778201528451613102816087840160208901613b99565b612e3760f11b60879290910191820152610abb6089820185611a0a565b7f3c67207374796c653d227472616e73666f726d3a7472616e736c6174652832398152630383c16160e51b602082015260008551613164816024850160208a01613b99565b64383c14911f60d91b6024918401918201526c1e3932b1ba103bb4b23a341e9160991b6029820152855161319f816036840160208a01613b99565b7f707822206865696768743d2232367078222072783d22387078222072793d2238910160368101919091527f7078222066696c6c3d227267626128302c302c302c302e362922202f3e00000060568201527f3c7465787420783d22313270782220793d22313770782220666f6e742d66616d60738201527f696c793d2227436f7572696572204e6577272c206d6f6e6f737061636522206660938201527f6f6e742d73697a653d2231327078222066696c6c3d227768697465223e00000060b38201527f3c747370616e2066696c6c3d2272676261283235352c3235352c3235352c302e60d0820152631b14911f60e11b60f0820152610abb611bd46132c4612e3f6132ae60f486018a611a0a565b691d101e17ba39b830b71f60b11b8152600a0190565b661e17ba32bc3a1f60c91b815260070190565b7f3c7265637420783d2231362220793d223136222077696474683d22323538222081527f6865696768743d22353238222072783d223236222072793d223236222066696c60208201527f6c3d227267626128302c302c302c302922207374726f6b653d227267626128326040820152721a9a96191a9a96191a9a96181719149110179f60691b60608201527f3c67206d61736b3d2275726c28236e6f6e652922207374796c653d227472616e60738201527f73666f726d3a7472616e736c61746528383070782c313639707829223e3c726560938201527f637420783d222d313670782220793d222d31367078222077696474683d22313860b38201527f30707822206865696768743d223138307078222066696c6c3d226e6f6e65222060d38201527f2f3e3c7061746820643d224d312031204c312031343522207374726f6b653d2260f38201527f7267626128302c302c302c302e332922207374726f6b652d77696474683d22336101138201527f327078222066696c6c3d226e6f6e6522207374726f6b652d6c696e656361703d6101338201526d113937bab7321110179f1e17b39f60911b61015382015260006138c16138a86138a261378861378261375961375361365761362e6136286136066135be6101618e017f3c67206d61736b3d2275726c28236e6f6e652922207374796c653d227472616e81527f73666f726d3a7472616e736c61746528383070782c313639707829223e3c726560208201527f637420783d222d313670782220793d222d31367078222077696474683d22313860408201527f30707822206865696768743d223138307078222066696c6c3d226e6f6e65222060608201527f2f3e3c7061746820643d224d312031204c312031343522207374726f6b653d2260808201527f72676261283235352c3235352c3235352c3129222066696c6c3d226e6f6e652260a08201527f207374726f6b652d6c696e656361703d22726f756e6422202f3e3c2f673e000060c082015260de0190565b7f3c636972636c652063783d2238317078222063793d2231373070782220723d228152751a383c11103334b6361e9111b232323232321110179f60511b602082015260360190565b751e31b4b931b6329031bc1e911c18b83c111031bc9e9160511b815260160190565b8f611a0a565b7f70782220723d22357078222066696c6c3d22776869746522202f3e00000000008152601b0190565b7f3c636972636c652063783d2238317078222063793d2233313470782220723d2281527f347078222066696c6c3d222364646464646422202f3e3c7465787420783d223160208201527f303070782220793d2231373470782220666f6e742d66616d696c793d2227436f60408201527f7572696572204e6577272c206d6f6e6f73706163652220666f6e742d73697a6560608201527f3d2231327078222066696c6c3d227768697465223e3c747370616e2066696c6c60808201527f3d2272676261283235352c3235352c3235352c302e3629223e4578656375746560a08201526b32151d101e17ba39b830b71f60a11b60c082015260cc0190565b8b611a0a565b7f2073776170733c2f746578743e3c7465787420783d22343070782220793d22008152601f0190565b88611a0a565b7f70782220666f6e742d66616d696c793d2227436f7572696572204e6577272c2081527f6d6f6e6f73706163652220666f6e742d73697a653d2231327078222066696c6c60208201527f3d227768697465223e4e6f773c2f746578743e3c7465787420783d223130307060408201527f782220793d2233313870782220666f6e742d66616d696c793d2227436f75726960608201527f6572204e6577272c206d6f6e6f73706163652220666f6e742d73697a653d223160808201527f327078222066696c6c3d227768697465223e3c747370616e2066696c6c3d227260a08201527f676261283235352c3235352c3235352c302e3629223e4c6566743a203c2f747360c0820152633830b71f60e11b60e082015260e40190565b85611a0a565b6c1039bbb0b8399e17ba32bc3a1f60991b8152600d0190565b9695505050505050565b7f646174613a6170706c69636174696f6e2f6a736f6e3b6261736536342c00000081526000825161390381601d850160208701613b99565b91909101601d0192915050565b602081526000825180602084015261392f816040850160208701613b99565b601f01601f19169190910160400192915050565b6000821982111561395657613956613c35565b500190565b600063ffffffff808316818516808303821115611a4c57611a4c613c35565b600060ff821660ff84168060ff0382111561399757613997613c35565b019392505050565b6000826139ae576139ae613c4b565b500490565b600063ffffffff808416806139ca576139ca613c4b565b92169190910492915050565b600060ff8316806139e9576139e9613c4b565b8060ff84160491505092915050565b600181815b80851115613a33578160001904821115613a1957613a19613c35565b80851615613a2657918102915b93841c93908002906139fd565b509250929050565b600061185e8383613a52565b600061185e60ff8416835b600082613a6157506001610561565b81613a6e57506000610561565b8160018114613a845760028114613a8e57613aaa565b6001915050610561565b60ff841115613a9f57613a9f613c35565b50506001821b610561565b5060208310610133831016604e8410600b8410161715613acd575081810a610561565b613ad783836139f8565b8060001904821115613aeb57613aeb613c35565b029392505050565b6000816000190483118215151615613b0d57613b0d613c35565b500290565b600063ffffffff80831681851681830481118215151615613b3557613b35613c35565b02949350505050565b600060ff821660ff84168160ff0481118215151615613aeb57613aeb613c35565b600082821015613b7157613b71613c35565b500390565b600060ff821660ff841680821015613b9057613b90613c35565b90039392505050565b60005b83811015613bb4578181015183820152602001613b9c565b83811115613bc3576000848401525b50505050565b600060ff821680613bdc57613bdc613c35565b6000190192915050565b6000600019821415613bfa57613bfa613c35565b5060010190565b600060ff821660ff811415613c1857613c18613c35565b60010192915050565b600082613c3057613c30613c4b565b500690565b634e487b7160e01b600052601160045260246000fd5b634e487b7160e01b600052601260045260246000fd5b634e487b7160e01b600052604160045260246000fd5b6001600160a01b0381168114613c8c57600080fd5b5056fe3d22313030252220626567696e3d22307322206475723d2233307322207265703c616e696d6174652061646469746976653d2273756d222061747472696275744142434445464748494a4b4c4d4e4f505152535455565758595a6162636465666768696a6b6c6d6e6f707172737475767778797a303132333435363738392b2f654e616d653d2273746172744f6666736574222066726f6d3d2230252220746f656174436f756e743d22696e646566696e69746522202f3e3c2f746578745061a2646970667358221220ad4b9ce15ffbfad168dc70c1aa1e673cbf37ae81b2b27a2796f357245fce926764736f6c63430008040033",
  "devdoc": {
    "kind": "dev",
    "methods": {},
    "title": "Describes NFT token positions",
    "version": 1
  },
  "userdoc": {
    "kind": "user",
    "methods": {},
    "notice": "Produces a string containing the data URI for a JSON metadata string",
    "version": 1
  },
  "storageLayout": {
    "storage": [],
    "types": null
  }
}