{
  "address": "0xE51EB42A53B042fb4f75cb1b49b8b9651E54d6cf",
  "abi": [
    {
      "inputs": [
        {
          "internalType": "address",
          "name": "_governor",
          "type": "address"
        },
        {
          "internalType": "contract IUniswapV3Factory",
          "name": "_factory",
          "type": "address"
        }
      ],
      "stateMutability": "nonpayable",
      "type": "constructor"
    },
    {
      "anonymous": false,
      "inputs": [
        {
          "indexed": false,
          "internalType": "uint24",
          "name": "_feeTier",
          "type": "uint24"
        }
      ],
      "name": "AddedFeeTier",
      "type": "event"
    },
    {
      "anonymous": false,
      "inputs": [
        {
          "indexed": false,
          "internalType": "address",
          "name": "_tokenA",
          "type": "address"
        },
        {
          "indexed": false,
          "internalType": "address",
          "name": "_tokenB",
          "type": "address"
        }
      ],
      "name": "AddedSupportForPair",
      "type": "event"
    },
    {
      "anonymous": false,
      "inputs": [],
      "name": "PendingGovernorAccepted",
      "type": "event"
    },
    {
      "anonymous": false,
      "inputs": [
        {
          "indexed": false,
          "internalType": "address",
          "name": "_pendingGovernor",
          "type": "address"
        }
      ],
      "name": "PendingGovernorSet",
      "type": "event"
    },
    {
      "anonymous": false,
      "inputs": [
        {
          "indexed": false,
          "internalType": "uint32",
          "name": "_period",
          "type": "uint32"
        }
      ],
      "name": "PeriodChanged",
      "type": "event"
    },
    {
      "inputs": [],
      "name": "MAXIMUM_PERIOD",
      "outputs": [
        {
          "internalType": "uint16",
          "name": "",
          "type": "uint16"
        }
      ],
      "stateMutability": "view",
      "type": "function"
    },
    {
      "inputs": [],
      "name": "MINIMUM_PERIOD",
      "outputs": [
        {
          "internalType": "uint16",
          "name": "",
          "type": "uint16"
        }
      ],
      "stateMutability": "view",
      "type": "function"
    },
    {
      "inputs": [],
      "name": "acceptPendingGovernor",
      "outputs": [],
      "stateMutability": "nonpayable",
      "type": "function"
    },
    {
      "inputs": [
        {
          "internalType": "uint24",
          "name": "_feeTier",
          "type": "uint24"
        }
      ],
      "name": "addFeeTier",
      "outputs": [],
      "stateMutability": "nonpayable",
      "type": "function"
    },
    {
      "inputs": [
        {
          "internalType": "address",
          "name": "_tokenA",
          "type": "address"
        },
        {
          "internalType": "address",
          "name": "_tokenB",
          "type": "address"
        }
      ],
      "name": "addSupportForPair",
      "outputs": [],
      "stateMutability": "nonpayable",
      "type": "function"
    },
    {
      "inputs": [
        {
          "internalType": "address",
          "name": "_tokenA",
          "type": "address"
        },
        {
          "internalType": "address",
          "name": "_tokenB",
          "type": "address"
        }
      ],
      "name": "canSupportPair",
      "outputs": [
        {
          "internalType": "bool",
          "name": "",
          "type": "bool"
        }
      ],
      "stateMutability": "view",
      "type": "function"
    },
    {
      "inputs": [],
      "name": "factory",
      "outputs": [
        {
          "internalType": "contract IUniswapV3Factory",
          "name": "",
          "type": "address"
        }
      ],
      "stateMutability": "view",
      "type": "function"
    },
    {
      "inputs": [],
      "name": "governor",
      "outputs": [
        {
          "internalType": "address",
          "name": "",
          "type": "address"
        }
      ],
      "stateMutability": "view",
      "type": "function"
    },
    {
      "inputs": [
        {
          "internalType": "address",
          "name": "_account",
          "type": "address"
        }
      ],
      "name": "isGovernor",
      "outputs": [
        {
          "internalType": "bool",
          "name": "_isGovernor",
          "type": "bool"
        }
      ],
      "stateMutability": "view",
      "type": "function"
    },
    {
      "inputs": [
        {
          "internalType": "address",
          "name": "_account",
          "type": "address"
        }
      ],
      "name": "isPendingGovernor",
      "outputs": [
        {
          "internalType": "bool",
          "name": "_isPendingGovernor",
          "type": "bool"
        }
      ],
      "stateMutability": "view",
      "type": "function"
    },
    {
      "inputs": [],
      "name": "pendingGovernor",
      "outputs": [
        {
          "internalType": "address",
          "name": "",
          "type": "address"
        }
      ],
      "stateMutability": "view",
      "type": "function"
    },
    {
      "inputs": [],
      "name": "period",
      "outputs": [
        {
          "internalType": "uint16",
          "name": "",
          "type": "uint16"
        }
      ],
      "stateMutability": "view",
      "type": "function"
    },
    {
      "inputs": [
        {
          "internalType": "address",
          "name": "_tokenA",
          "type": "address"
        },
        {
          "internalType": "address",
          "name": "_tokenB",
          "type": "address"
        }
      ],
      "name": "poolsUsedForPair",
      "outputs": [
        {
          "internalType": "address[]",
          "name": "_usedPools",
          "type": "address[]"
        }
      ],
      "stateMutability": "view",
      "type": "function"
    },
    {
      "inputs": [
        {
          "internalType": "address",
          "name": "_tokenIn",
          "type": "address"
        },
        {
          "internalType": "uint128",
          "name": "_amountIn",
          "type": "uint128"
        },
        {
          "internalType": "address",
          "name": "_tokenOut",
          "type": "address"
        }
      ],
      "name": "quote",
      "outputs": [
        {
          "internalType": "uint256",
          "name": "_amountOut",
          "type": "uint256"
        }
      ],
      "stateMutability": "view",
      "type": "function"
    },
    {
      "inputs": [
        {
          "internalType": "address",
          "name": "__pendingGovernor",
          "type": "address"
        }
      ],
      "name": "setPendingGovernor",
      "outputs": [],
      "stateMutability": "nonpayable",
      "type": "function"
    },
    {
      "inputs": [
        {
          "internalType": "uint16",
          "name": "_period",
          "type": "uint16"
        }
      ],
      "name": "setPeriod",
      "outputs": [],
      "stateMutability": "nonpayable",
      "type": "function"
    },
    {
      "inputs": [],
      "name": "supportedFeeTiers",
      "outputs": [
        {
          "internalType": "uint24[]",
          "name": "_feeTiers",
          "type": "uint24[]"
        }
      ],
      "stateMutability": "view",
      "type": "function"
    }
  ],
  "transactionHash": "0x0f0e97de0c2a4b09d0261836e7fb4f39826cd899da40306868a6420248729a51",
  "args": [
    "0x9012D9bbFdcEe42c618f9464b4632568e6385dCa",
    "0x1F98431c8aD98523631AE4a59f267346ea31F984"
  ],
  "solcInputHash": "6d67db017cdaf02beff647310f5a3452",
  "bytecode": "0x60a06040526001805461ffff60a01b1916604b60a21b17905534801561002457600080fd5b50604051611b28380380611b288339818101604052604081101561004757600080fd5b508051602090910151816001600160a01b0381166100ac576040805162461bcd60e51b815260206004820152601860248201527f476f7665726e61626c653a207a65726f20616464726573730000000000000000604482015290519081900360640190fd5b600080546001600160a01b0319166001600160a01b039283161790558116610109576040805162461bcd60e51b815260206004820152600b60248201526a5a65726f4164647265737360a81b604482015290519081900360640190fd5b606081901b6001600160601b0319166080526001600160a01b031690506119dc61014c600039806103d352806106af52806108c05280610b5552506119dc6000f3fe608060405234801561001057600080fd5b506004361061010b5760003560e01c8063a513355f116100a2578063e3056a3411610071578063e3056a34146102fc578063e43581b814610304578063ef78d4fd1461032a578063f235757f14610332578063fba2a2d2146103585761010b565b8063a513355f14610275578063bc4389f7146102c6578063c45a0155146102ce578063df08aed5146102d65761010b565b8063421465bf116100de578063421465bf146101de57806351cd41e8146101fd5780637332a43714610205578063734273fd146102335761010b565b8063065420ae146101105780630c340a241461013457806313f6986d1461015857806332c1b8eb14610160575b600080fd5b6101326004803603602081101561012657600080fd5b503562ffffff16610379565b005b61013c6104f8565b604080516001600160a01b039092168252519081900360200190f35b610132610507565b61018e6004803603604081101561017657600080fd5b506001600160a01b0381358116916020013516610555565b60408051602080825283518183015283519192839290830191858101910280838360005b838110156101ca5781810151838201526020016101b2565b505050509050019250505060405180910390f35b6101e661062c565b6040805161ffff9092168252519081900360200190f35b6101e6610632565b6101326004803603604081101561021b57600080fd5b506001600160a01b0381358116916020013516610637565b6102616004803603604081101561024957600080fd5b506001600160a01b03813581169160200135166108a2565b604080519115158252519081900360200190f35b6102b46004803603606081101561028b57600080fd5b506001600160a01b0381358116916001600160801b0360208201351691604090910135166109ad565b60408051918252519081900360200190f35b61018e610abc565b61013c610b53565b610261600480360360208110156102ec57600080fd5b50356001600160a01b0316610b77565b61013c610b8b565b6102616004803603602081101561031a57600080fd5b50356001600160a01b0316610b9a565b6101e6610bae565b6101326004803603602081101561034857600080fd5b50356001600160a01b0316610bbf565b6101326004803603602081101561036e57600080fd5b503561ffff16610c21565b61038233610b9a565b6103cf576040805162461bcd60e51b815260206004820152601960248201527823b7bb32b93730b136329d1037b7363c9033b7bb32b93737b960391b604482015290519081900360640190fd5b60007f00000000000000000000000000000000000000000000000000000000000000006001600160a01b03166322afcccb836040518263ffffffff1660e01b8152600401808262ffffff16815260200191505060206040518083038186803b15801561043a57600080fd5b505afa15801561044e573d6000803e3d6000fd5b505050506040513d602081101561046457600080fd5b505160020b136104ac576040805162461bcd60e51b815260206004820152600e60248201526d24b73b30b634b22332b2aa34b2b960911b604482015290519081900360640190fd5b6104bc600262ffffff8316610d7a565b506040805162ffffff8316815290517f7df2566cb73ced3e8f322263ff49373328d4946b7a5672113aef3f8e647b710c9181900360200190a150565b6000546001600160a01b031690565b61051033610b77565b61054b5760405162461bcd60e51b81526004018080602001828103825260218152602001806119866021913960400191505060405180910390fd5b610553610d8d565b565b60606000806105648585610e3a565b6001600160a01b038083166000908152600460209081526040808320938516835292905290812092945090925061059a82610e6b565b90508067ffffffffffffffff811180156105b357600080fd5b506040519080825280602002602001820160405280156105dd578160200160208202803683370190505b50945060005b81811015610621576105f58382610e76565b86828151811061060157fe5b6001600160a01b03909216602092830291909101909101526001016105e3565b505050505092915050565b6104b081565b603c81565b60006106436002610e6b565b90506000806106528585610e3a565b6001600160a01b03828116600090815260046020908152604080832093851683529290529081206001549395509193509091600f90600160a01b900461ffff1604600a01905060005b858110156108035760006001600160a01b037f000000000000000000000000000000000000000000000000000000000000000016631698ee8287876106e1600287610e76565b6040518463ffffffff1660e01b815260040180846001600160a01b03168152602001836001600160a01b031681526020018262ffffff168152602001935050505060206040518083038186803b15801561073a57600080fd5b505afa15801561074e573d6000803e3d6000fd5b505050506040513d602081101561076457600080fd5b505190506001600160a01b0381161580159061078757506107858482610e82565b155b156107fa576107968482610e97565b50806001600160a01b03166332148f67846040518263ffffffff1660e01b8152600401808261ffff168152602001915050600060405180830381600087803b1580156107e157600080fd5b505af11580156107f5573d6000803e3d6000fd5b505050505b5060010161069b565b50600061080f83610e6b565b11610854576040805162461bcd60e51b815260206004820152601060248201526f14185a5c939bdd14dd5c1c1bdc9d195960821b604482015290519081900360640190fd5b604080516001600160a01b0380871682528516602082015281517fcba1b1976104fe0292ee0cdd58c29ac7229ae0c170982e01b270c71ec0a2c7e0929181900390910190a150505050505050565b6000806108af6002610e6b565b905060005b818110156109a05760007f00000000000000000000000000000000000000000000000000000000000000006001600160a01b0316631698ee8287876108fa600287610e76565b6040518463ffffffff1660e01b815260040180846001600160a01b03168152602001836001600160a01b031681526020018262ffffff168152602001935050505060206040518083038186803b15801561095357600080fd5b505afa158015610967573d6000803e3d6000fd5b505050506040513d602081101561097d57600080fd5b50516001600160a01b031614610998576001925050506109a7565b6001016108b4565b5060009150505b92915050565b60008060006109bc8685610e3a565b6001600160a01b03808316600090815260046020908152604080832093851683529290529081209294509092506109f282610e6b565b905060008167ffffffffffffffff81118015610a0d57600080fd5b50604051908082528060200260200182016040528015610a4757816020015b610a3461194c565b815260200190600190039081610a2c5790505b50905060005b82811015610a9457610a75610a628583610e76565b600154600160a01b900461ffff16610eac565b828281518110610a8157fe5b6020908102919091010152600101610a4d565b506000610aa08261123f565b9050610aae818a8c8b6112fb565b9a9950505050505050505050565b60606000610aca6002610e6b565b90508067ffffffffffffffff81118015610ae357600080fd5b50604051908082528060200260200182016040528015610b0d578160200160208202803683370190505b50915060005b81811015610b4e57610b26600282610e76565b838281518110610b3257fe5b62ffffff90921660209283029190910190910152600101610b13565b505090565b7f000000000000000000000000000000000000000000000000000000000000000081565b6001546001600160a01b0390811691161490565b6001546001600160a01b031690565b6000546001600160a01b0390811691161490565b600154600160a01b900461ffff1681565b610bc833610b9a565b610c15576040805162461bcd60e51b815260206004820152601960248201527823b7bb32b93730b136329d1037b7363c9033b7bb32b93737b960391b604482015290519081900360640190fd5b610c1e816113f2565b50565b610c2a33610b9a565b610c77576040805162461bcd60e51b815260206004820152601960248201527823b7bb32b93730b136329d1037b7363c9033b7bb32b93737b960391b604482015290519081900360640190fd5b6104b061ffff82161115610cd2576040805162461bcd60e51b815260206004820152601860248201527f477265617465725468616e4d6178696d756d506572696f640000000000000000604482015290519081900360640190fd5b603c61ffff82161015610d24576040805162461bcd60e51b815260206004820152601560248201527413195cdcd51a185b935a5b9a5b5d5b54195c9a5bd9605a1b604482015290519081900360640190fd5b6001805461ffff8316600160a01b810261ffff60a01b199092169190911790915560408051918252517ff822214854e5620527e54c8a9293eb963df052efebe733964f7dea0be73f2c8a9181900360200190a150565b6000610d8683836114a1565b9392505050565b6001546001600160a01b0316610dea576040805162461bcd60e51b815260206004820152601f60248201527f476f7665726e61626c653a206e6f2070656e64696e6720676f7665726e6f7200604482015290519081900360640190fd5b60018054600080546001600160a01b03199081166001600160a01b0384161782559091169091556040517fdc57ca23c46d823853915ed5a090ca0ee9db5eb6a46f5c58e1c9158de861fd769190a1565b600080826001600160a01b0316846001600160a01b031610610e5d578284610e60565b83835b909590945092505050565b60006109a7826114eb565b6000610d8683836114ef565b6000610d86836001600160a01b038416611553565b6000610d86836001600160a01b0384166114a1565b610eb461194c565b63ffffffff8216610ef1576040805162461bcd60e51b8152602060048201526002602482015261042560f41b604482015290519081900360640190fd5b60408051600280825260608201835263ffffffff85166001600160a01b03029260009291906020830190803683370190505090508381600081518110610f3357fe5b602002602001019063ffffffff16908163ffffffff1681525050600081600181518110610f5c57fe5b63ffffffff90921660209283029190910182015260405163883bdbfd60e01b81526004810182815283516024830152835160009384936001600160a01b038b169363883bdbfd9388939192839260449091019185820191028083838b5b83811015610fd1578181015183820152602001610fb9565b505050509050019250505060006040518083038186803b158015610ff457600080fd5b505afa158015611008573d6000803e3d6000fd5b505050506040513d6000823e601f3d908101601f19168201604090815281101561103157600080fd5b810190808051604051939291908464010000000082111561105157600080fd5b90830190602082018581111561106657600080fd5b825186602082028301116401000000008211171561108357600080fd5b82525081516020918201928201910280838360005b838110156110b0578181015183820152602001611098565b50505050905001604052602001805160405193929190846401000000008211156110d957600080fd5b9083019060208201858111156110ee57600080fd5b825186602082028301116401000000008211171561110b57600080fd5b82525081516020918201928201910280838360005b83811015611138578181015183820152602001611120565b505050509050016040525050509150915060008260008151811061115857fe5b60200260200101518360018151811061116d57fe5b602002602001015103905060008260008151811061118757fe5b60200260200101518360018151811061119c57fe5b60200260200101510390508763ffffffff168260060b816111b957fe5b05600290810b900b87526000600683900b1280156111eb57508763ffffffff168260060b816111e457fe5b0760060b15155b1561120057865160001901600290810b900b87525b640100000000600160c01b03602082901b166001600160c01b0387168161122357fe5b046001600160801b031660208801525094979650505050505050565b6000806000805b84518110156112c25784818151811061125b57fe5b60200260200101516000015160020b85828151811061127657fe5b6020026020010151602001516001600160801b0316028301925084818151811061129c57fe5b6020026020010151602001516001600160801b0316820191508080600101915050611246565b508082816112cc57fe5b0592506000821280156112e757508082816112e357fe5b0715155b156112f457600019909201915b5050919050565b6000806113078661156b565b90506001600160801b036001600160a01b03821611611376576001600160a01b038082168002908481169086161061135657611351600160c01b876001600160801b03168361189d565b61136e565b61136e81876001600160801b0316600160c01b61189d565b9250506113e9565b60006113956001600160a01b038316806801000000000000000061189d565b9050836001600160a01b0316856001600160a01b0316106113cd576113c8600160801b876001600160801b03168361189d565b6113e5565b6113e581876001600160801b0316600160801b61189d565b9250505b50949350505050565b6001600160a01b03811661144d576040805162461bcd60e51b815260206004820152601860248201527f476f7665726e61626c653a207a65726f20616464726573730000000000000000604482015290519081900360640190fd5b600180546001600160a01b0383166001600160a01b0319909116811790915560408051918252517f56bddfa0cee9697cebddf9acd7f23dc6583663b05e007b877056d05017994def9181900360200190a150565b60006114ad8383611553565b6114e3575081546001818101845560008481526020808220909301849055845484825282860190935260409020919091556109a7565b5060006109a7565b5490565b815460009082106115315760405162461bcd60e51b81526004018080602001828103825260228152602001806119646022913960400191505060405180910390fd5b82600001828154811061154057fe5b9060005260206000200154905092915050565b60009081526001919091016020526040902054151590565b60008060008360020b12611582578260020b61158a565b8260020b6000035b9050620d89e88111156115c8576040805162461bcd60e51b81526020600482015260016024820152601560fa1b604482015290519081900360640190fd5b6000600182166115dc57600160801b6115ee565b6ffffcb933bd6fad37aa2d162d1a5940015b70ffffffffffffffffffffffffffffffffff1690506002821615611622576ffff97272373d413259a46990580e213a0260801c5b6004821615611641576ffff2e50f5f656932ef12357cf3c7fdcc0260801c5b6008821615611660576fffe5caca7e10e4e61c3624eaa0941cd00260801c5b601082161561167f576fffcb9843d60f6159c9db58835c9266440260801c5b602082161561169e576fff973b41fa98c081472e6896dfb254c00260801c5b60408216156116bd576fff2ea16466c96a3843ec78b326b528610260801c5b60808216156116dc576ffe5dee046a99a2a811c461f1969c30530260801c5b6101008216156116fc576ffcbe86c7900a88aedcffc83b479aa3a40260801c5b61020082161561171c576ff987a7253ac413176f2b074cf7815e540260801c5b61040082161561173c576ff3392b0822b70005940c7a398e4b70f30260801c5b61080082161561175c576fe7159475a2c29b7443b29c7fa6e889d90260801c5b61100082161561177c576fd097f3bdfd2022b8845ad8f792aa58250260801c5b61200082161561179c576fa9f746462d870fdf8a65dc1f90e061e50260801c5b6140008216156117bc576f70d869a156d2a1b890bb3df62baf32f70260801c5b6180008216156117dc576f31be135f97d08fd981231505542fcfa60260801c5b620100008216156117fd576f09aa508b5b7a84e1c677de54f3e99bc90260801c5b6202000082161561181d576e5d6af8dedb81196699c329225ee6040260801c5b6204000082161561183c576d2216e584f5fa1ea926041bedfe980260801c5b62080000821615611859576b048a170391f7dc42444e8fa20260801c5b60008460020b131561187457806000198161187057fe5b0490505b64010000000081061561188857600161188b565b60005b60ff16602082901c0192505050919050565b60008080600019858709868602925082811090839003039050806118d357600084116118c857600080fd5b508290049050610d86565b8084116118df57600080fd5b6000848688096000868103871696879004966002600389028118808a02820302808a02820302808a02820302808a02820302808a02820302808a02909103029181900381900460010186841190950394909402919094039290920491909117919091029150509392505050565b60408051808201909152600080825260208201529056fe456e756d657261626c655365743a20696e646578206f7574206f6620626f756e6473476f7665726e61626c653a206f6e6c792070656e64696e6720676f7665726e6f72a2646970667358221220ffafe2893ec039da6deb963d6b8bb58180f0792219f5a09c1005ca59e2ac612164736f6c63430007060033",
  "devdoc": {
    "kind": "dev",
    "methods": {},
    "version": 1
  },
  "userdoc": {
    "kind": "user",
    "methods": {
      "addSupportForPair(address,address)": {
        "notice": "This function will take a pair and make sure that all Uniswap V3 pools for the pair are properly initialized for future use. It will also add all available pools to an internal list, to avoid future queries to the factory. It can be called multiple times for the same pair of tokens, to include and re-configure new pools that might appear in the future. Will revert if there are no pools available for the given pair of tokens."
      },
      "canSupportPair(address,address)": {
        "notice": "Returns whether this oracle can support this pair of tokens "
      },
      "quote(address,uint128,address)": {
        "notice": "Returns a quote, based on the given tokens and amount "
      }
    },
    "version": 1
  },
  "storageLayout": {
    "storage": [
      {
        "astId": 3045,
        "contract": "contracts/UniswapV3Oracle/UniswapV3Oracle.sol:UniswapV3Oracle",
        "label": "_governor",
        "offset": 0,
        "slot": "0",
        "type": "t_address"
      },
      {
        "astId": 3047,
        "contract": "contracts/UniswapV3Oracle/UniswapV3Oracle.sol:UniswapV3Oracle",
        "label": "_pendingGovernor",
        "offset": 0,
        "slot": "1",
        "type": "t_address"
      },
      {
        "astId": 1683,
        "contract": "contracts/UniswapV3Oracle/UniswapV3Oracle.sol:UniswapV3Oracle",
        "label": "period",
        "offset": 20,
        "slot": "1",
        "type": "t_uint16"
      },
      {
        "astId": 1685,
        "contract": "contracts/UniswapV3Oracle/UniswapV3Oracle.sol:UniswapV3Oracle",
        "label": "_supportedFeeTiers",
        "offset": 0,
        "slot": "2",
        "type": "t_struct(UintSet)2665_storage"
      },
      {
        "astId": 1691,
        "contract": "contracts/UniswapV3Oracle/UniswapV3Oracle.sol:UniswapV3Oracle",
        "label": "_poolsForPair",
        "offset": 0,
        "slot": "4",
        "type": "t_mapping(t_address,t_mapping(t_address,t_struct(AddressSet)2544_storage))"
      }
    ],
    "types": {
      "t_address": {
        "encoding": "inplace",
        "label": "address",
        "numberOfBytes": "20"
      },
      "t_array(t_bytes32)dyn_storage": {
        "base": "t_bytes32",
        "encoding": "dynamic_array",
        "label": "bytes32[]",
        "numberOfBytes": "32"
      },
      "t_bytes32": {
        "encoding": "inplace",
        "label": "bytes32",
        "numberOfBytes": "32"
      },
      "t_mapping(t_address,t_mapping(t_address,t_struct(AddressSet)2544_storage))": {
        "encoding": "mapping",
        "key": "t_address",
        "label": "mapping(address => mapping(address => struct EnumerableSet.AddressSet))",
        "numberOfBytes": "32",
        "value": "t_mapping(t_address,t_struct(AddressSet)2544_storage)"
      },
      "t_mapping(t_address,t_struct(AddressSet)2544_storage)": {
        "encoding": "mapping",
        "key": "t_address",
        "label": "mapping(address => struct EnumerableSet.AddressSet)",
        "numberOfBytes": "32",
        "value": "t_struct(AddressSet)2544_storage"
      },
      "t_mapping(t_bytes32,t_uint256)": {
        "encoding": "mapping",
        "key": "t_bytes32",
        "label": "mapping(bytes32 => uint256)",
        "numberOfBytes": "32",
        "value": "t_uint256"
      },
      "t_struct(AddressSet)2544_storage": {
        "encoding": "inplace",
        "label": "struct EnumerableSet.AddressSet",
        "members": [
          {
            "astId": 2543,
            "contract": "contracts/UniswapV3Oracle/UniswapV3Oracle.sol:UniswapV3Oracle",
            "label": "_inner",
            "offset": 0,
            "slot": "0",
            "type": "t_struct(Set)2279_storage"
          }
        ],
        "numberOfBytes": "64"
      },
      "t_struct(Set)2279_storage": {
        "encoding": "inplace",
        "label": "struct EnumerableSet.Set",
        "members": [
          {
            "astId": 2274,
            "contract": "contracts/UniswapV3Oracle/UniswapV3Oracle.sol:UniswapV3Oracle",
            "label": "_values",
            "offset": 0,
            "slot": "0",
            "type": "t_array(t_bytes32)dyn_storage"
          },
          {
            "astId": 2278,
            "contract": "contracts/UniswapV3Oracle/UniswapV3Oracle.sol:UniswapV3Oracle",
            "label": "_indexes",
            "offset": 0,
            "slot": "1",
            "type": "t_mapping(t_bytes32,t_uint256)"
          }
        ],
        "numberOfBytes": "64"
      },
      "t_struct(UintSet)2665_storage": {
        "encoding": "inplace",
        "label": "struct EnumerableSet.UintSet",
        "members": [
          {
            "astId": 2664,
            "contract": "contracts/UniswapV3Oracle/UniswapV3Oracle.sol:UniswapV3Oracle",
            "label": "_inner",
            "offset": 0,
            "slot": "0",
            "type": "t_struct(Set)2279_storage"
          }
        ],
        "numberOfBytes": "64"
      },
      "t_uint16": {
        "encoding": "inplace",
        "label": "uint16",
        "numberOfBytes": "2"
      },
      "t_uint256": {
        "encoding": "inplace",
        "label": "uint256",
        "numberOfBytes": "32"
      }
    }
  }
}