{
  "address": "0x5985B9a914bCd6A46d72690Df78c1640064c499e",
  "abi": [
    {
      "inputs": [
        {
          "internalType": "address",
          "name": "_governor",
          "type": "address"
        },
        {
          "internalType": "contract ISwapRouter",
          "name": "_swapRouter",
          "type": "address"
        },
        {
          "internalType": "contract ICustomQuoter",
          "name": "_quoter",
          "type": "address"
        }
      ],
      "stateMutability": "nonpayable",
      "type": "constructor"
    },
    {
      "inputs": [],
      "name": "ZeroAddress",
      "type": "error"
    },
    {
      "inputs": [],
      "name": "ZeroPairsToSwap",
      "type": "error"
    },
    {
      "anonymous": false,
      "inputs": [
        {
          "indexed": false,
          "internalType": "address",
          "name": "_to",
          "type": "address"
        },
        {
          "indexed": false,
          "internalType": "address",
          "name": "token",
          "type": "address"
        },
        {
          "indexed": false,
          "internalType": "uint256",
          "name": "amount",
          "type": "uint256"
        }
      ],
      "name": "DustSent",
      "type": "event"
    },
    {
      "anonymous": false,
      "inputs": [
        {
          "indexed": false,
          "internalType": "address",
          "name": "account",
          "type": "address"
        }
      ],
      "name": "Paused",
      "type": "event"
    },
    {
      "anonymous": false,
      "inputs": [],
      "name": "PendingGovernorAccepted",
      "type": "event"
    },
    {
      "anonymous": false,
      "inputs": [
        {
          "indexed": false,
          "internalType": "address",
          "name": "_pendingGovernor",
          "type": "address"
        }
      ],
      "name": "PendingGovernorSet",
      "type": "event"
    },
    {
      "anonymous": false,
      "inputs": [
        {
          "components": [
            {
              "internalType": "contract IDCAPair",
              "name": "pair",
              "type": "address"
            },
            {
              "internalType": "bytes",
              "name": "swapPath",
              "type": "bytes"
            }
          ],
          "indexed": false,
          "internalType": "struct IDCASwapper.PairToSwap[]",
          "name": "_pairsToSwap",
          "type": "tuple[]"
        },
        {
          "indexed": false,
          "internalType": "uint256",
          "name": "_amountSwapped",
          "type": "uint256"
        }
      ],
      "name": "Swapped",
      "type": "event"
    },
    {
      "anonymous": false,
      "inputs": [
        {
          "indexed": false,
          "internalType": "address",
          "name": "account",
          "type": "address"
        }
      ],
      "name": "Unpaused",
      "type": "event"
    },
    {
      "inputs": [
        {
          "internalType": "address",
          "name": "",
          "type": "address"
        },
        {
          "internalType": "contract IERC20Metadata",
          "name": "_tokenA",
          "type": "address"
        },
        {
          "internalType": "contract IERC20Metadata",
          "name": "_tokenB",
          "type": "address"
        },
        {
          "internalType": "uint256",
          "name": "",
          "type": "uint256"
        },
        {
          "internalType": "uint256",
          "name": "",
          "type": "uint256"
        },
        {
          "internalType": "bool",
          "name": "_isRewardTokenA",
          "type": "bool"
        },
        {
          "internalType": "uint256",
          "name": "_rewardAmount",
          "type": "uint256"
        },
        {
          "internalType": "uint256",
          "name": "_amountToProvide",
          "type": "uint256"
        },
        {
          "internalType": "bytes",
          "name": "_bytes",
          "type": "bytes"
        }
      ],
      "name": "DCAPairSwapCall",
      "outputs": [],
      "stateMutability": "nonpayable",
      "type": "function"
    },
    {
      "inputs": [],
      "name": "ETH",
      "outputs": [
        {
          "internalType": "address",
          "name": "",
          "type": "address"
        }
      ],
      "stateMutability": "view",
      "type": "function"
    },
    {
      "inputs": [],
      "name": "acceptPendingGovernor",
      "outputs": [],
      "stateMutability": "nonpayable",
      "type": "function"
    },
    {
      "inputs": [
        {
          "internalType": "contract IDCAPair",
          "name": "_pair",
          "type": "address"
        }
      ],
      "name": "findBestSwap",
      "outputs": [
        {
          "internalType": "bytes",
          "name": "_swapPath",
          "type": "bytes"
        }
      ],
      "stateMutability": "nonpayable",
      "type": "function"
    },
    {
      "inputs": [],
      "name": "governor",
      "outputs": [
        {
          "internalType": "address",
          "name": "",
          "type": "address"
        }
      ],
      "stateMutability": "view",
      "type": "function"
    },
    {
      "inputs": [
        {
          "internalType": "address",
          "name": "_account",
          "type": "address"
        }
      ],
      "name": "isGovernor",
      "outputs": [
        {
          "internalType": "bool",
          "name": "_isGovernor",
          "type": "bool"
        }
      ],
      "stateMutability": "view",
      "type": "function"
    },
    {
      "inputs": [
        {
          "internalType": "address",
          "name": "_account",
          "type": "address"
        }
      ],
      "name": "isPendingGovernor",
      "outputs": [
        {
          "internalType": "bool",
          "name": "_isPendingGovernor",
          "type": "bool"
        }
      ],
      "stateMutability": "view",
      "type": "function"
    },
    {
      "inputs": [],
      "name": "pause",
      "outputs": [],
      "stateMutability": "nonpayable",
      "type": "function"
    },
    {
      "inputs": [],
      "name": "paused",
      "outputs": [
        {
          "internalType": "bool",
          "name": "",
          "type": "bool"
        }
      ],
      "stateMutability": "view",
      "type": "function"
    },
    {
      "inputs": [],
      "name": "pendingGovernor",
      "outputs": [
        {
          "internalType": "address",
          "name": "",
          "type": "address"
        }
      ],
      "stateMutability": "view",
      "type": "function"
    },
    {
      "inputs": [],
      "name": "quoter",
      "outputs": [
        {
          "internalType": "contract ICustomQuoter",
          "name": "",
          "type": "address"
        }
      ],
      "stateMutability": "view",
      "type": "function"
    },
    {
      "inputs": [
        {
          "internalType": "address",
          "name": "_to",
          "type": "address"
        },
        {
          "internalType": "address",
          "name": "_token",
          "type": "address"
        },
        {
          "internalType": "uint256",
          "name": "_amount",
          "type": "uint256"
        }
      ],
      "name": "sendDust",
      "outputs": [],
      "stateMutability": "nonpayable",
      "type": "function"
    },
    {
      "inputs": [
        {
          "internalType": "address",
          "name": "__pendingGovernor",
          "type": "address"
        }
      ],
      "name": "setPendingGovernor",
      "outputs": [],
      "stateMutability": "nonpayable",
      "type": "function"
    },
    {
      "inputs": [
        {
          "components": [
            {
              "internalType": "contract IDCAPair",
              "name": "pair",
              "type": "address"
            },
            {
              "internalType": "bytes",
              "name": "swapPath",
              "type": "bytes"
            }
          ],
          "internalType": "struct IDCASwapper.PairToSwap[]",
          "name": "_pairsToSwap",
          "type": "tuple[]"
        }
      ],
      "name": "swapPairs",
      "outputs": [
        {
          "internalType": "uint256",
          "name": "_amountSwapped",
          "type": "uint256"
        }
      ],
      "stateMutability": "nonpayable",
      "type": "function"
    },
    {
      "inputs": [],
      "name": "swapRouter",
      "outputs": [
        {
          "internalType": "contract ISwapRouter",
          "name": "",
          "type": "address"
        }
      ],
      "stateMutability": "view",
      "type": "function"
    },
    {
      "inputs": [],
      "name": "unpause",
      "outputs": [],
      "stateMutability": "nonpayable",
      "type": "function"
    }
  ],
  "transactionHash": "0x38ee2240d2972ba4f680c474f5bb1496250889d5a84261283550c8b194ac7943",
  "args": [
    "0xaEF6B153e3f59D4010DBcBCA04a25058417de695",
    "0xE592427A0AEce92De3Edee1F18E0157C05861564",
    "0xb27308f9F90D607463bb33eA1BeBb41C27CE5AB6"
  ],
  "solcInputHash": "9cff5268f386a73e6ed0a9853e23ca90",
  "bytecode": "0x6101206040526101f460c0908152610bb860e052612710610100526200002a90600590600362000132565b503480156200003857600080fd5b5060405162001f6538038062001f658339810160408190526200005b91620001fb565b826001600160a01b038116620000b75760405162461bcd60e51b815260206004820152601860248201527f476f7665726e61626c653a207a65726f20616464726573730000000000000000604482015260640160405180910390fd5b600080546001600160a01b0319166001600160a01b039283161790556004805460ff1916905582161580620000f357506001600160a01b038116155b15620001125760405163d92e233d60e01b815260040160405180910390fd5b6001600160601b0319606092831b8116608052911b1660a0525062000268565b82805482825590600052602060002090600901600a90048101928215620001d25791602002820160005b838211156200019f57835183826101000a81548162ffffff021916908361ffff16021790555092602001926003016020816002010492830192600103026200015c565b8015620001d05782816101000a81549062ffffff02191690556003016020816002010492830192600103026200019f565b505b50620001e0929150620001e4565b5090565b5b80821115620001e05760008155600101620001e5565b6000806000606084860312156200021157600080fd5b83516200021e816200024f565b602085015190935062000231816200024f565b604085015190925062000244816200024f565b809150509250925092565b6001600160a01b03811681146200026557600080fd5b50565b60805160601c60a05160601c611cae620002b76000396000818161020f015281816107c0015261093d0152600081816101e8015281816103740152818161046d01526104fa0152611cae6000f3fe608060405234801561001057600080fd5b50600436106101005760003560e01c80638456cb5911610097578063df08aed511610066578063df08aed514610231578063e3056a3414610253578063e43581b814610264578063f235757f1461028657600080fd5b80638456cb59146101bb5780638f3dd473146101c3578063c31c9c07146101e3578063c6bbd5a71461020a57600080fd5b80633f4ba83a116100d35780633f4ba83a1461015f57806351b49e22146101675780635c975abb146101885780638322fff2146101a057600080fd5b80630c340a241461010557806313f6986d1461012f5780632db8c129146101395780633d33803c1461014c575b600080fd5b6000546001600160a01b03165b6040516001600160a01b0390911681526020015b60405180910390f35b610137610299565b005b61013761014736600461155e565b61030c565b61013761015a36600461159f565b610346565b610137610545565b61017a610175366004611684565b610577565b604051908152602001610126565b6101906106af565b6040519015158152602001610126565b61011273eeeeeeeeeeeeeeeeeeeeeeeeeeeeeeeeeeeeeeee81565b6101376106c2565b6101d66101d1366004611524565b6106f4565b604051610126919061198a565b6101127f000000000000000000000000000000000000000000000000000000000000000081565b6101127f000000000000000000000000000000000000000000000000000000000000000081565b61019061023f366004611524565b6001546001600160a01b0391821691161490565b6001546001600160a01b0316610112565b610190610272366004611524565b6000546001600160a01b0391821691161490565b610137610294366004611524565b610af7565b6001546001600160a01b031633146103025760405162461bcd60e51b815260206004820152602160248201527f476f7665726e61626c653a206f6e6c792070656e64696e6720676f7665726e6f6044820152603960f91b60648201526084015b60405180910390fd5b61030a610b2d565b565b6000546001600160a01b031633146103365760405162461bcd60e51b81526004016102f9906119d4565b610341838383610bd5565b505050565b821561053957600085610359578861035b565b895b905060008661036a578a61036c565b895b9050610399827f000000000000000000000000000000000000000000000000000000000000000088610d5b565b60408051610100810182526001600160a01b0380851682528316602082015260009181016103c986880188611815565b62ffffff9081168252336020808401919091524260408085019190915260608085018c905260808086018e9052600060a09687018190528351631b67c43360e31b815288516001600160a01b0390811660048301529589015186166024820152938801519095166044840152908601518316606483015285015160848201529284015160a484015260c084015160c484015260e0840151811660e4840152929350917f0000000000000000000000000000000000000000000000000000000000000000169063db3e21989061010401602060405180830381600087803b1580156104b257600080fd5b505af11580156104c6573d6000803e3d6000fd5b505050506040513d601f19601f820116820180604052508101906104ea919061183a565b90508781101561053457610520847f00000000000000000000000000000000000000000000000000000000000000006000610d5b565b610534843361052f848c611b03565b610e5b565b505050505b50505050505050505050565b6000546001600160a01b0316331461056f5760405162461bcd60e51b81526004016102f9906119d4565b61030a610f54565b60006105816106af565b156105c15760405162461bcd60e51b815260206004820152601060248201526f14185d5cd8589b194e881c185d5cd95960821b60448201526064016102f9565b816105df57604051635088761560e01b815260040160405180910390fd5b60005b60005a90506106278585856105f681611bf8565b965081811061060757610607611c29565b90506020028101906106199190611a0b565b61062290611b1a565b610fe9565b60005a6106349083611b03565b905082811115610642578092505b505082821080156106695750600261065b826003611ae4565b6106659190611ac2565b5a10155b6105e2577fec7c17e9404eca949b68d645b1c4d22b19b602f0926d6f28a708fb8b0785d0b68484846040516106a09392919061189b565b60405180910390a15092915050565b60006106bd60045460ff1690565b905090565b6000546001600160a01b031633146106ec5760405162461bcd60e51b81526004016102f9906119d4565b61030a611051565b60606000826001600160a01b0316632f84cbf56040518163ffffffff1660e01b815260040160006040518083038186803b15801561073157600080fd5b505afa158015610745573d6000803e3d6000fd5b505050506040513d6000823e601f3d908101601f1916820160405261076d9190810190611716565b602081015190915060ff1615610af1576101008101516107ac576040805162ffffff602082015201604051602081830303815290604052915050919050565b60008060005b600554811015610ac05760007f00000000000000000000000000000000000000000000000000000000000000006001600160a01b031663c45a01556040518163ffffffff1660e01b815260040160206040518083038186803b15801561081757600080fd5b505afa15801561082b573d6000803e3d6000fd5b505050506040513d601f19601f8201168201806040525081019061084f9190611541565b90506000816001600160a01b0316631698ee828761016001518861014001516005878154811061088157610881611c29565b60009182526020909120600a8083049091015460405160e087901b6001600160e01b03191681526001600160a01b03958616600482015293909416602484015290066003026101000a90910462ffffff16604482015260640160206040518083038186803b1580156108f257600080fd5b505afa158015610906573d6000803e3d6000fd5b505050506040513d601f19601f8201168201806040525081019061092a9190611541565b90506001600160a01b03811615610aab577f00000000000000000000000000000000000000000000000000000000000000006001600160a01b03166330d07f218761016001518861014001516005878154811061098957610989611c29565b600091825260208220600a808304909101546101008e81015160405160e08a901b6001600160e01b03191681526001600160a01b03988916600482015296909716602487015291909206600302900a900462ffffff1660448301526064820192909252608481019190915260a401602060405180830381600087803b158015610a1157600080fd5b505af1925050508015610a41575060408051601f3d908101601f19168201909252610a3e9181019061183a565b60015b610a4a57610aab565b8087610120015110158015610a665750851580610a6657508581105b15610aa95780955060058481548110610a8157610a81611c29565b90600052602060002090600a91828204019190066003029054906101000a900462ffffff1694505b505b50508080610ab890611bf8565b9150506107b2565b5062ffffff811615610aee576040805162ffffff831660208201520160405160208183030381529060405293505b50505b50919050565b6000546001600160a01b03163314610b215760405162461bcd60e51b81526004016102f9906119d4565b610b2a816110ce565b50565b6001546001600160a01b0316610b855760405162461bcd60e51b815260206004820152601f60248201527f476f7665726e61626c653a206e6f2070656e64696e6720676f7665726e6f720060448201526064016102f9565b60018054600080546001600160a01b03199081166001600160a01b0384161782559091169091556040517fdc57ca23c46d823853915ed5a090ca0ee9db5eb6a46f5c58e1c9158de861fd769190a1565b6001600160a01b038316610c2b5760405162461bcd60e51b815260206004820152601d60248201527f436f6c6c65637461626c65447573743a207a65726f206164647265737300000060448201526064016102f9565b610c36600283611178565b15610c965760405162461bcd60e51b815260206004820152602a60248201527f436f6c6c65637461626c65447573743a20746f6b656e2069732070617274206f60448201526919881c1c9bdd1bd8dbdb60b21b60648201526084016102f9565b6001600160a01b03821673eeeeeeeeeeeeeeeeeeeeeeeeeeeeeeeeeeeeeeee1415610cf7576040516001600160a01b0384169082156108fc029083906000818181858888f19350505050158015610cf1573d6000803e3d6000fd5b50610d0b565b610d0b6001600160a01b038316848361119d565b604080516001600160a01b038086168252841660208201529081018290527f1e34c1aee8e83c2dcc14c21bb4bfeea7f46c0c998cb797ac7cc4d7a18f5c656b9060600160405180910390a1505050565b604080516001600160a01b038481166024830152604480830185905283518084039091018152606490920183526020820180516001600160e01b031663095ea7b360e01b1790529151600092839290871691610db7919061187f565b6000604051808303816000865af19150503d8060008114610df4576040519150601f19603f3d011682016040523d82523d6000602084013e610df9565b606091505b5091509150818015610e23575080511580610e23575080806020019051810190610e2391906116f9565b610e545760405162461bcd60e51b8152602060048201526002602482015261534160f01b60448201526064016102f9565b5050505050565b604080516001600160a01b038481166024830152604480830185905283518084039091018152606490920183526020820180516001600160e01b031663a9059cbb60e01b1790529151600092839290871691610eb7919061187f565b6000604051808303816000865af19150503d8060008114610ef4576040519150601f19603f3d011682016040523d82523d6000602084013e610ef9565b606091505b5091509150818015610f23575080511580610f23575080806020019051810190610f2391906116f9565b610e545760405162461bcd60e51b815260206004820152600260248201526114d560f21b60448201526064016102f9565b610f5c6106af565b610f9f5760405162461bcd60e51b815260206004820152601460248201527314185d5cd8589b194e881b9bdd081c185d5cd95960621b60448201526064016102f9565b6004805460ff191690557f5db9ee0a495bf2e6ff9c91a7834c1ba4fdd244a5e8aa4e537bd38aeae4b073aa335b6040516001600160a01b03909116815260200160405180910390a1565b8051602082015160405163022c0d9f60e01b81526001600160a01b039092169163022c0d9f9161102391600091829130919060040161199d565b600060405180830381600087803b15801561103d57600080fd5b505af1158015610e54573d6000803e3d6000fd5b6110596106af565b156110995760405162461bcd60e51b815260206004820152601060248201526f14185d5cd8589b194e881c185d5cd95960821b60448201526064016102f9565b6004805460ff191660011790557f62e78cea01bee320cd4e420270b5ea74000d11b0c9f74754ebdbfc544b05a258610fcc3390565b6001600160a01b0381166111245760405162461bcd60e51b815260206004820152601860248201527f476f7665726e61626c653a207a65726f2061646472657373000000000000000060448201526064016102f9565b600180546001600160a01b0319166001600160a01b0383169081179091556040519081527f56bddfa0cee9697cebddf9acd7f23dc6583663b05e007b877056d05017994def9060200160405180910390a150565b6001600160a01b038116600090815260018301602052604081205415155b9392505050565b604080516001600160a01b03848116602483015260448083018590528351808403909101815260649092018352602080830180516001600160e01b031663a9059cbb60e01b17905283518085019094528084527f5361666545524332303a206c6f772d6c6576656c2063616c6c206661696c6564908401526103419286929160009161122d9185169084906112aa565b805190915015610341578080602001905181019061124b91906116f9565b6103415760405162461bcd60e51b815260206004820152602a60248201527f5361666545524332303a204552433230206f7065726174696f6e20646964206e6044820152691bdd081cdd58d8d9595960b21b60648201526084016102f9565b60606112b984846000856112c1565b949350505050565b6060824710156113225760405162461bcd60e51b815260206004820152602660248201527f416464726573733a20696e73756666696369656e742062616c616e636520666f6044820152651c8818d85b1b60d21b60648201526084016102f9565b843b6113705760405162461bcd60e51b815260206004820152601d60248201527f416464726573733a2063616c6c20746f206e6f6e2d636f6e747261637400000060448201526064016102f9565b600080866001600160a01b0316858760405161138c919061187f565b60006040518083038185875af1925050503d80600081146113c9576040519150601f19603f3d011682016040523d82523d6000602084013e6113ce565b606091505b50915091506113de8282866113e9565b979650505050505050565b606083156113f8575081611196565b8251156114085782518084602001fd5b8160405162461bcd60e51b81526004016102f9919061198a565b600082601f83011261143357600080fd5b8151602067ffffffffffffffff82111561144f5761144f611c3f565b61145d818360051b01611a91565b80838252828201915082860187848660071b890101111561147d57600080fd5b6000805b868110156114e157608080848c031215611499578283fd5b6114a1611a21565b6114aa856114ff565b81526114b78886016114ff565b81890152604085810151908201526060808601519082015286529486019490920191600101611481565b509198975050505050505050565b80516114fa81611c55565b919050565b805163ffffffff811681146114fa57600080fd5b805160ff811681146114fa57600080fd5b60006020828403121561153657600080fd5b813561119681611c55565b60006020828403121561155357600080fd5b815161119681611c55565b60008060006060848603121561157357600080fd5b833561157e81611c55565b9250602084013561158e81611c55565b929592945050506040919091013590565b6000806000806000806000806000806101208b8d0312156115bf57600080fd5b8a356115ca81611c55565b995060208b01356115da81611c55565b985060408b01356115ea81611c55565b975060608b0135965060808b0135955060a08b013561160881611c6a565b945060c08b0135935060e08b013592506101008b013567ffffffffffffffff8082111561163457600080fd5b818d0191508d601f83011261164857600080fd5b81358181111561165757600080fd5b8e602082850101111561166957600080fd5b6020830194508093505050509295989b9194979a5092959850565b6000806020838503121561169757600080fd5b823567ffffffffffffffff808211156116af57600080fd5b818501915085601f8301126116c357600080fd5b8135818111156116d257600080fd5b8660208260051b85010111156116e757600080fd5b60209290920196919550909350505050565b60006020828403121561170b57600080fd5b815161119681611c6a565b60006020828403121561172857600080fd5b815167ffffffffffffffff8082111561174057600080fd5b90830190610180828603121561175557600080fd5b61175d611a4a565b82518281111561176c57600080fd5b61177887828601611422565b82525061178760208401611513565b602082015260408301516040820152606083015160608201526080830151608082015260a083015160a082015260c083015160c082015260e083015160e0820152610100915081830151828201526101209150818301518282015261014091506117f28284016114ef565b8282015261016091506118068284016114ef565b91810191909152949350505050565b60006020828403121561182757600080fd5b813562ffffff8116811461119657600080fd5b60006020828403121561184c57600080fd5b5051919050565b6000815180845261186b816020860160208601611bc8565b601f01601f19169290920160200192915050565b60008251611891818460208701611bc8565b9190910192915050565b60408082528181018490526000906060808401600587901b8501820188855b8981101561197357878303605f190184528135368c9003603e190181126118e057600080fd5b8b0180356118ed81611c55565b6001600160a01b0316845260208181013536839003601e1901811261191157600080fd5b8201803567ffffffffffffffff81111561192a57600080fd5b80360384131561193957600080fd5b8983880152808a880152808383018a89013760008782018a015296820196601f01601f1916909501870194509290920191506001016118ba565b505080945050505050826020830152949350505050565b6020815260006111966020830184611853565b84815283602082015260018060a01b03831660408201526080606082015260006119ca6080830184611853565b9695505050505050565b60208082526019908201527f476f7665726e61626c653a206f6e6c7920676f7665726e6f7200000000000000604082015260600190565b60008235603e1983360301811261189157600080fd5b6040516080810167ffffffffffffffff81118282101715611a4457611a44611c3f565b60405290565b604051610180810167ffffffffffffffff81118282101715611a4457611a44611c3f565b6040805190810167ffffffffffffffff81118282101715611a4457611a44611c3f565b604051601f8201601f1916810167ffffffffffffffff81118282101715611aba57611aba611c3f565b604052919050565b600082611adf57634e487b7160e01b600052601260045260246000fd5b500490565b6000816000190483118215151615611afe57611afe611c13565b500290565b600082821015611b1557611b15611c13565b500390565b600060408236031215611b2c57600080fd5b611b34611a6e565b8235611b3f81611c55565b815260208381013567ffffffffffffffff80821115611b5d57600080fd5b9085019036601f830112611b7057600080fd5b813581811115611b8257611b82611c3f565b611b94601f8201601f19168501611a91565b91508082523684828501011115611baa57600080fd5b80848401858401376000908201840152918301919091525092915050565b60005b83811015611be3578181015183820152602001611bcb565b83811115611bf2576000848401525b50505050565b6000600019821415611c0c57611c0c611c13565b5060010190565b634e487b7160e01b600052601160045260246000fd5b634e487b7160e01b600052603260045260246000fd5b634e487b7160e01b600052604160045260246000fd5b6001600160a01b0381168114610b2a57600080fd5b8015158114610b2a57600080fdfea2646970667358221220ec88a9c6af611c521dc6ffc92086fd1597d679778adfc30872e31ec667fcab5264736f6c63430008060033",
  "devdoc": {
    "kind": "dev",
    "methods": {
      "swapPairs((address,bytes)[])": {
        "details": "The method checks how much gas is left, and stops before reaching the limit. So the last pairs in the array are less likely to be swapped. Will revert with ZeroPairsToSwap if _pairsToSwap is empty Will revert if called when paused",
        "params": {
          "_pairsToSwap": "The list of pairs so swap"
        },
        "returns": {
          "_amountSwapped": "How many pairs were actually swapped"
        }
      }
    },
    "version": 1
  },
  "userdoc": {
    "errors": {
      "ZeroPairsToSwap()": [
        {
          "notice": "Emitted when trying to swap an empty list of pairs"
        }
      ]
    },
    "events": {
      "Swapped((address,bytes)[],uint256)": {
        "notice": "Emitted when a list of pairs is swapped correctly"
      }
    },
    "kind": "user",
    "methods": {
      "findBestSwap(address)": {
        "notice": "This method isn't a view because the Uniswap quoter doesn't support view quotes. Therefore, we highly recommend that this method is not called on-chain. This method will return an empty set of bytes if the pair should not be swapped, and encode(max(uint24)) if there is no need to go to Uniswap"
      },
      "pause()": {
        "notice": "Pauses the swapper"
      },
      "swapPairs((address,bytes)[])": {
        "notice": "Takes a list of pairs to swap, and tries to swap as many as possible"
      },
      "unpause()": {
        "notice": "Unpauses the swapper"
      }
    },
    "version": 1
  },
  "storageLayout": {
    "storage": [
      {
        "astId": 14844,
        "contract": "contracts/DCASwapper/DCAUniswapV3Swapper.sol:DCAUniswapV3Swapper",
        "label": "_governor",
        "offset": 0,
        "slot": "0",
        "type": "t_address"
      },
      {
        "astId": 14846,
        "contract": "contracts/DCASwapper/DCAUniswapV3Swapper.sol:DCAUniswapV3Swapper",
        "label": "_pendingGovernor",
        "offset": 0,
        "slot": "1",
        "type": "t_address"
      },
      {
        "astId": 14700,
        "contract": "contracts/DCASwapper/DCAUniswapV3Swapper.sol:DCAUniswapV3Swapper",
        "label": "_protocolTokens",
        "offset": 0,
        "slot": "2",
        "type": "t_struct(AddressSet)3189_storage"
      },
      {
        "astId": 385,
        "contract": "contracts/DCASwapper/DCAUniswapV3Swapper.sol:DCAUniswapV3Swapper",
        "label": "_paused",
        "offset": 0,
        "slot": "4",
        "type": "t_bool"
      },
      {
        "astId": 9032,
        "contract": "contracts/DCASwapper/DCAUniswapV3Swapper.sol:DCAUniswapV3Swapper",
        "label": "_FEE_TIERS",
        "offset": 0,
        "slot": "5",
        "type": "t_array(t_uint24)dyn_storage"
      }
    ],
    "types": {
      "t_address": {
        "encoding": "inplace",
        "label": "address",
        "numberOfBytes": "20"
      },
      "t_array(t_bytes32)dyn_storage": {
        "base": "t_bytes32",
        "encoding": "dynamic_array",
        "label": "bytes32[]",
        "numberOfBytes": "32"
      },
      "t_array(t_uint24)dyn_storage": {
        "base": "t_uint24",
        "encoding": "dynamic_array",
        "label": "uint24[]",
        "numberOfBytes": "32"
      },
      "t_bool": {
        "encoding": "inplace",
        "label": "bool",
        "numberOfBytes": "1"
      },
      "t_bytes32": {
        "encoding": "inplace",
        "label": "bytes32",
        "numberOfBytes": "32"
      },
      "t_mapping(t_bytes32,t_uint256)": {
        "encoding": "mapping",
        "key": "t_bytes32",
        "label": "mapping(bytes32 => uint256)",
        "numberOfBytes": "32",
        "value": "t_uint256"
      },
      "t_struct(AddressSet)3189_storage": {
        "encoding": "inplace",
        "label": "struct EnumerableSet.AddressSet",
        "members": [
          {
            "astId": 3188,
            "contract": "contracts/DCASwapper/DCAUniswapV3Swapper.sol:DCAUniswapV3Swapper",
            "label": "_inner",
            "offset": 0,
            "slot": "0",
            "type": "t_struct(Set)2918_storage"
          }
        ],
        "numberOfBytes": "64"
      },
      "t_struct(Set)2918_storage": {
        "encoding": "inplace",
        "label": "struct EnumerableSet.Set",
        "members": [
          {
            "astId": 2913,
            "contract": "contracts/DCASwapper/DCAUniswapV3Swapper.sol:DCAUniswapV3Swapper",
            "label": "_values",
            "offset": 0,
            "slot": "0",
            "type": "t_array(t_bytes32)dyn_storage"
          },
          {
            "astId": 2917,
            "contract": "contracts/DCASwapper/DCAUniswapV3Swapper.sol:DCAUniswapV3Swapper",
            "label": "_indexes",
            "offset": 0,
            "slot": "1",
            "type": "t_mapping(t_bytes32,t_uint256)"
          }
        ],
        "numberOfBytes": "64"
      },
      "t_uint24": {
        "encoding": "inplace",
        "label": "uint24",
        "numberOfBytes": "3"
      },
      "t_uint256": {
        "encoding": "inplace",
        "label": "uint256",
        "numberOfBytes": "32"
      }
    }
  }
}