{
  "address": "0xEcbA21E26466727d705d48cb0a8DE42B11767Bf7",
  "abi": [
    {
      "inputs": [
        {
          "internalType": "address",
          "name": "_governor",
          "type": "address"
        },
        {
          "internalType": "contract IDCAFactory",
          "name": "_factory",
          "type": "address"
        },
        {
          "internalType": "contract IKeep3rV1",
          "name": "_keep3rV1",
          "type": "address"
        },
        {
          "internalType": "contract IDCASwapper",
          "name": "_swapper",
          "type": "address"
        }
      ],
      "stateMutability": "nonpayable",
      "type": "constructor"
    },
    {
      "inputs": [],
      "name": "InvalidPairAddress",
      "type": "error"
    },
    {
      "inputs": [],
      "name": "MustWaitDelay",
      "type": "error"
    },
    {
      "inputs": [],
      "name": "NotAKeeper",
      "type": "error"
    },
    {
      "inputs": [],
      "name": "NotWorked",
      "type": "error"
    },
    {
      "inputs": [],
      "name": "PairNotSubsidized",
      "type": "error"
    },
    {
      "inputs": [],
      "name": "ZeroAddress",
      "type": "error"
    },
    {
      "anonymous": false,
      "inputs": [
        {
          "indexed": false,
          "internalType": "uint32",
          "name": "_swapInterval",
          "type": "uint32"
        },
        {
          "indexed": false,
          "internalType": "uint32",
          "name": "_delay",
          "type": "uint32"
        }
      ],
      "name": "DelaySet",
      "type": "event"
    },
    {
      "anonymous": false,
      "inputs": [
        {
          "indexed": false,
          "internalType": "contract IKeep3rV1",
          "name": "_keep3rV1",
          "type": "address"
        }
      ],
      "name": "Keep3rV1Set",
      "type": "event"
    },
    {
      "anonymous": false,
      "inputs": [],
      "name": "PendingGovernorAccepted",
      "type": "event"
    },
    {
      "anonymous": false,
      "inputs": [
        {
          "indexed": false,
          "internalType": "address",
          "name": "_pendingGovernor",
          "type": "address"
        }
      ],
      "name": "PendingGovernorSet",
      "type": "event"
    },
    {
      "anonymous": false,
      "inputs": [
        {
          "indexed": false,
          "internalType": "address[]",
          "name": "_pairs",
          "type": "address[]"
        }
      ],
      "name": "StoppedSubsidizingPairs",
      "type": "event"
    },
    {
      "anonymous": false,
      "inputs": [
        {
          "indexed": false,
          "internalType": "address[]",
          "name": "_pairs",
          "type": "address[]"
        }
      ],
      "name": "SubsidizingNewPairs",
      "type": "event"
    },
    {
      "anonymous": false,
      "inputs": [
        {
          "indexed": false,
          "internalType": "contract IDCASwapper",
          "name": "_swapper",
          "type": "address"
        }
      ],
      "name": "SwapperSet",
      "type": "event"
    },
    {
      "anonymous": false,
      "inputs": [
        {
          "indexed": false,
          "internalType": "uint256",
          "name": "_amountSwapped",
          "type": "uint256"
        }
      ],
      "name": "Worked",
      "type": "event"
    },
    {
      "inputs": [],
      "name": "acceptPendingGovernor",
      "outputs": [],
      "stateMutability": "nonpayable",
      "type": "function"
    },
    {
      "inputs": [
        {
          "internalType": "uint32",
          "name": "_swapInterval",
          "type": "uint32"
        }
      ],
      "name": "delay",
      "outputs": [
        {
          "internalType": "uint32",
          "name": "__delay",
          "type": "uint32"
        }
      ],
      "stateMutability": "view",
      "type": "function"
    },
    {
      "inputs": [],
      "name": "factory",
      "outputs": [
        {
          "internalType": "contract IDCAFactory",
          "name": "",
          "type": "address"
        }
      ],
      "stateMutability": "view",
      "type": "function"
    },
    {
      "inputs": [],
      "name": "governor",
      "outputs": [
        {
          "internalType": "address",
          "name": "",
          "type": "address"
        }
      ],
      "stateMutability": "view",
      "type": "function"
    },
    {
      "inputs": [
        {
          "internalType": "address",
          "name": "_account",
          "type": "address"
        }
      ],
      "name": "isGovernor",
      "outputs": [
        {
          "internalType": "bool",
          "name": "_isGovernor",
          "type": "bool"
        }
      ],
      "stateMutability": "view",
      "type": "function"
    },
    {
      "inputs": [
        {
          "internalType": "address",
          "name": "_account",
          "type": "address"
        }
      ],
      "name": "isPendingGovernor",
      "outputs": [
        {
          "internalType": "bool",
          "name": "_isPendingGovernor",
          "type": "bool"
        }
      ],
      "stateMutability": "view",
      "type": "function"
    },
    {
      "inputs": [],
      "name": "keep3rV1",
      "outputs": [
        {
          "internalType": "contract IKeep3rV1",
          "name": "",
          "type": "address"
        }
      ],
      "stateMutability": "view",
      "type": "function"
    },
    {
      "inputs": [],
      "name": "pendingGovernor",
      "outputs": [
        {
          "internalType": "address",
          "name": "",
          "type": "address"
        }
      ],
      "stateMutability": "view",
      "type": "function"
    },
    {
      "inputs": [
        {
          "internalType": "uint32",
          "name": "_swapInterval",
          "type": "uint32"
        },
        {
          "internalType": "uint32",
          "name": "__delay",
          "type": "uint32"
        }
      ],
      "name": "setDelay",
      "outputs": [],
      "stateMutability": "nonpayable",
      "type": "function"
    },
    {
      "inputs": [
        {
          "internalType": "contract IKeep3rV1",
          "name": "_keep3rV1",
          "type": "address"
        }
      ],
      "name": "setKeep3rV1",
      "outputs": [],
      "stateMutability": "nonpayable",
      "type": "function"
    },
    {
      "inputs": [
        {
          "internalType": "address",
          "name": "__pendingGovernor",
          "type": "address"
        }
      ],
      "name": "setPendingGovernor",
      "outputs": [],
      "stateMutability": "nonpayable",
      "type": "function"
    },
    {
      "inputs": [
        {
          "internalType": "contract IDCASwapper",
          "name": "_swapper",
          "type": "address"
        }
      ],
      "name": "setSwapper",
      "outputs": [],
      "stateMutability": "nonpayable",
      "type": "function"
    },
    {
      "inputs": [
        {
          "internalType": "address[]",
          "name": "_pairs",
          "type": "address[]"
        }
      ],
      "name": "startSubsidizingPairs",
      "outputs": [],
      "stateMutability": "nonpayable",
      "type": "function"
    },
    {
      "inputs": [
        {
          "internalType": "address[]",
          "name": "_pairs",
          "type": "address[]"
        }
      ],
      "name": "stopSubsidizingPairs",
      "outputs": [],
      "stateMutability": "nonpayable",
      "type": "function"
    },
    {
      "inputs": [],
      "name": "subsidizedPairs",
      "outputs": [
        {
          "internalType": "address[]",
          "name": "_pairs",
          "type": "address[]"
        }
      ],
      "stateMutability": "view",
      "type": "function"
    },
    {
      "inputs": [],
      "name": "swapper",
      "outputs": [
        {
          "internalType": "contract IDCASwapper",
          "name": "",
          "type": "address"
        }
      ],
      "stateMutability": "view",
      "type": "function"
    },
    {
      "inputs": [
        {
          "components": [
            {
              "internalType": "contract IDCAPair",
              "name": "pair",
              "type": "address"
            },
            {
              "internalType": "bytes",
              "name": "swapPath",
              "type": "bytes"
            }
          ],
          "internalType": "struct IDCASwapper.PairToSwap[]",
          "name": "_pairsToSwap",
          "type": "tuple[]"
        },
        {
          "internalType": "uint32[]",
          "name": "_smallestIntervals",
          "type": "uint32[]"
        }
      ],
      "name": "work",
      "outputs": [
        {
          "internalType": "uint256",
          "name": "_amountSwapped",
          "type": "uint256"
        }
      ],
      "stateMutability": "nonpayable",
      "type": "function"
    },
    {
      "inputs": [],
      "name": "workable",
      "outputs": [
        {
          "components": [
            {
              "internalType": "contract IDCAPair",
              "name": "pair",
              "type": "address"
            },
            {
              "internalType": "bytes",
              "name": "swapPath",
              "type": "bytes"
            }
          ],
          "internalType": "struct IDCASwapper.PairToSwap[]",
          "name": "_pairs",
          "type": "tuple[]"
        },
        {
          "internalType": "uint32[]",
          "name": "_smallestIntervals",
          "type": "uint32[]"
        }
      ],
      "stateMutability": "nonpayable",
      "type": "function"
    }
  ],
  "transactionHash": "0x8039368e206cd5871b52b0bd14463aefb99fbbbaade3db05d6f58087513c6bb9",
  "args": [
    "0xaEF6B153e3f59D4010DBcBCA04a25058417de695",
    "0xaC4a40a995f236E081424D966F1dFE014Fe0e98A",
    "0x1ceb5cb57c4d4e2b2433641b95dd330a33185a44",
    "0x5985B9a914bCd6A46d72690Df78c1640064c499e"
  ],
  "solcInputHash": "9cff5268f386a73e6ed0a9853e23ca90",
  "bytecode": "0x60a06040523480156200001157600080fd5b5060405162001e6338038062001e6383398101604081905262000034916200013b565b836001600160a01b038116620000905760405162461bcd60e51b815260206004820152601860248201527f476f7665726e61626c653a207a65726f20616464726573730000000000000000604482015260640160405180910390fd5b600080546001600160a01b0319166001600160a01b0392831617905583161580620000c257506001600160a01b038216155b80620000d557506001600160a01b038116155b15620000f45760405163d92e233d60e01b815260040160405180910390fd5b60609290921b6001600160601b031916608052600380546001600160a01b03199081166001600160a01b0393841617909155600280549091169190921617905550620001bc565b600080600080608085870312156200015257600080fd5b84516200015f81620001a3565b60208601519094506200017281620001a3565b60408601519093506200018581620001a3565b60608601519092506200019881620001a3565b939692955090935050565b6001600160a01b0381168114620001b957600080fd5b50565b60805160601c611c81620001e26000396000818161023a01526105ce0152611c816000f3fe608060405234801561001057600080fd5b50600436106101165760003560e01c8063932b9848116100a2578063df08aed511610071578063df08aed51461025c578063e3056a341461028e578063e43581b81461029f578063ec00cdfc146102c1578063f235757f146102d457600080fd5b8063932b9848146101e75780639c82f2a4146101fa578063b3e333021461020d578063c45a01551461023557600080fd5b80631ef94b91116100e95780631ef94b91146101835780632b3297f9146101965780635269fb22146101a957806370d84493146101bc57806380bb2bac146101d157600080fd5b806309167ac31461011b5780630c0206c1146101415780630c340a241461015657806313f6986d1461017b575b600080fd5b61012e610129366004611516565b6102e7565b6040519081526020015b60405180910390f35b61015461014f3660046114d5565b61058e565b005b6000546001600160a01b03165b6040516001600160a01b039091168152602001610138565b610154610739565b600354610163906001600160a01b031681565b600254610163906001600160a01b031681565b6101546101b7366004611787565b6107a7565b6101c461082f565b604051610138919061184f565b6101d96108da565b604051610138929190611980565b6101546101f53660046114d5565b610bde565b6101546102083660046114b1565b610c8a565b61022061021b36600461174d565b610d30565b60405163ffffffff9091168152602001610138565b6101637f000000000000000000000000000000000000000000000000000000000000000081565b61027e61026a3660046114b1565b6001546001600160a01b0391821691161490565b6040519015158152602001610138565b6001546001600160a01b0316610163565b61027e6102ad3660046114b1565b6000546001600160a01b0391821691161490565b6101546102cf3660046114b1565b610d60565b6101546102e23660046114b1565b610dff565b6003546040516335d2155560e11b81523360048201526000916001600160a01b031690636ba42aaa90602401602060405180830381600087803b15801561032d57600080fd5b505af1158015610341573d6000803e3d6000fd5b505050506040513d601f19601f820116820180604052508101906103659190611581565b610382576040516318f8148560e11b815260040160405180910390fd5b60005b8481101561044b5760008686838181106103a1576103a1611bf8565b90506020028101906103b39190611a5f565b6103c19060208101906114b1565b90506103ce600582610e35565b6103eb576040516364f5b57960e01b815260040160405180910390fd5b61041b8186868581811061040157610401611bf8565b9050602002016020810190610416919061174d565b610e5c565b6104385760405163c57aa8bb60e01b815260040160405180910390fd5b508061044381611bb1565b915050610385565b506002546040516328da4f1160e11b81526001600160a01b03909116906351b49e229061047e908890889060040161189c565b602060405180830381600087803b15801561049857600080fd5b505af11580156104ac573d6000803e3d6000fd5b505050506040513d601f19601f820116820180604052508101906104d09190611734565b9050806104f05760405163021cba9f60e01b815260040160405180910390fd5b6003546040516317fbade560e21b81523360048201526001600160a01b0390911690635feeb79490602401600060405180830381600087803b15801561053557600080fd5b505af1158015610549573d6000803e3d6000fd5b505050507f3b461cbe53de95c0bdba809bec2fc886c81db1f73bb09b5e440c4574a65814948160405161057e91815260200190565b60405180910390a1949350505050565b6000546001600160a01b031633146105c15760405162461bcd60e51b81526004016105b890611a28565b60405180910390fd5b60005b818110156106fb577f00000000000000000000000000000000000000000000000000000000000000006001600160a01b031663e5e31b1384848481811061060d5761060d611bf8565b905060200201602081019061062291906114b1565b6040516001600160e01b031960e084901b1681526001600160a01b03909116600482015260240160206040518083038186803b15801561066157600080fd5b505afa158015610675573d6000803e3d6000fd5b505050506040513d601f19601f820116820180604052508101906106999190611581565b6106b65760405163157a7c9760e11b815260040160405180910390fd5b6106e88383838181106106cb576106cb611bf8565b90506020020160208101906106e091906114b1565b600590610f76565b50806106f381611bb1565b9150506105c4565b507f1bd67299505a4483b89b72b10a7ec17ae1c45b42143a0c21f970c01cb3d3976b828260405161072d929190611801565b60405180910390a15050565b6001546001600160a01b0316331461079d5760405162461bcd60e51b815260206004820152602160248201527f476f7665726e61626c653a206f6e6c792070656e64696e6720676f7665726e6f6044820152603960f91b60648201526084016105b8565b6107a5610f8b565b565b6000546001600160a01b031633146107d15760405162461bcd60e51b81526004016105b890611a28565b63ffffffff828116600081815260046020908152604091829020805463ffffffff1916948616948517905581519283528201929092527f96d3f2e3f1c6a977ec715a110b69be9f86cc0eccb8e260ccc653c577000760e8910161072d565b6060600061083d6005611033565b9050806001600160401b0381111561085757610857611c0e565b604051908082528060200260200182016040528015610880578160200160208202803683370190505b50915060005b818110156108d55761089960058261103d565b8382815181106108ab576108ab611bf8565b6001600160a01b0390921660209283029190910190910152806108cd81611bb1565b915050610886565b505090565b6060806000806108ea6005611033565b905060005b818110156109db57600061090460058361103d565b600254604051638f3dd47360e01b81526001600160a01b03808416600483015292935060009290911690638f3dd47390602401600060405180830381600087803b15801561095157600080fd5b505af1158015610965573d6000803e3d6000fd5b505050506040513d6000823e601f3d908101601f1916820160405261098d91908101906115a3565b9050600061099a83611049565b9050600082511180156109b257506109b28382610e5c565b156109c557856109c181611bb1565b9650505b50505080806109d390611bb1565b9150506108ef565b50816001600160401b038111156109f4576109f4611c0e565b604051908082528060200260200182016040528015610a3a57816020015b604080518082019091526000815260606020820152815260200190600190039081610a125790505b509350816001600160401b03811115610a5557610a55611c0e565b604051908082528060200260200182016040528015610a7e578160200160208202803683370190505b50925060005b81811015610bd7576000610a9960058361103d565b600254604051638f3dd47360e01b81526001600160a01b03808416600483015292935060009290911690638f3dd47390602401600060405180830381600087803b158015610ae657600080fd5b505af1158015610afa573d6000803e3d6000fd5b505050506040513d6000823e601f3d908101601f19168201604052610b2291908101906115a3565b90506000610b2f83611049565b905060008251118015610b475750610b478382610e5c565b15610bc1576040518060400160405280846001600160a01b03168152602001838152508887610b7590611b9a565b97508781518110610b8857610b88611bf8565b602002602001018190525080878781518110610ba657610ba6611bf8565b602002602001019063ffffffff16908163ffffffff16815250505b5050508080610bcf90611bb1565b915050610a84565b5050509091565b6000546001600160a01b03163314610c085760405162461bcd60e51b81526004016105b890611a28565b60005b81811015610c5857610c45838383818110610c2857610c28611bf8565b9050602002016020810190610c3d91906114b1565b600590611155565b5080610c5081611bb1565b915050610c0b565b507f4df1c604b7f323920540ec69ae0f523513b08dad189205bdaab3982bdb57028d828260405161072d929190611801565b6000546001600160a01b03163314610cb45760405162461bcd60e51b81526004016105b890611a28565b6001600160a01b038116610cdb5760405163d92e233d60e01b815260040160405180910390fd5b600280546001600160a01b0319166001600160a01b0383169081179091556040519081527f673779832598d6a388768ee342f8de96fdd5c39a468a6955377cf1405b9652b9906020015b60405180910390a150565b63ffffffff8082166000908152600460205260409020541680610d5b57610d58600283611b22565b90505b919050565b6000546001600160a01b03163314610d8a5760405162461bcd60e51b81526004016105b890611a28565b6001600160a01b038116610db15760405163d92e233d60e01b815260040160405180910390fd5b600380546001600160a01b0319166001600160a01b0383169081179091556040519081527fe293822acf7304fef3f55e503ea48c3a719fefa8c882cd1575032e83be952f7f90602001610d25565b6000546001600160a01b03163314610e295760405162461bcd60e51b81526004016105b890611a28565b610e328161116a565b50565b6001600160a01b038116600090815260018301602052604081205415155b90505b92915050565b604051631529401f60e11b815263ffffffff8216600482015260009081906001600160a01b03851690632a52803e9060240160206040518083038186803b158015610ea657600080fd5b505afa158015610eba573d6000803e3d6000fd5b505050506040513d601f19601f82011682018060405250810190610ede919061176a565b6040516359f1998160e11b815263ffffffff85166004820152909150309063b3e333029060240160206040518083038186803b158015610f1d57600080fd5b505afa158015610f31573d6000803e3d6000fd5b505050506040513d601f19601f82011682018060405250810190610f55919061176a565b610f5f9082611afa565b63ffffffff164263ffffffff161015949350505050565b6000610e53836001600160a01b03841661120e565b6001546001600160a01b0316610fe35760405162461bcd60e51b815260206004820152601f60248201527f476f7665726e61626c653a206e6f2070656e64696e6720676f7665726e6f720060448201526064016105b8565b60018054600080546001600160a01b03199081166001600160a01b0384161782559091169091556040517fdc57ca23c46d823853915ed5a090ca0ee9db5eb6a46f5c58e1c9158de861fd769190a1565b6000610d58825490565b6000610e53838361125d565b600080826001600160a01b0316632f84cbf56040518163ffffffff1660e01b815260040160006040518083038186803b15801561108557600080fd5b505afa158015611099573d6000803e3d6000fd5b505050506040513d6000823e601f3d908101601f191682016040526110c19190810190611636565b905060005b816020015160ff1681101561114e5763ffffffff8316158061111457508263ffffffff168260000151828151811061110057611100611bf8565b60200260200101516000015163ffffffff16105b1561113c57815180518290811061112d5761112d611bf8565b60200260200101516000015192505b8061114681611bb1565b9150506110c6565b5050919050565b6000610e53836001600160a01b038416611287565b6001600160a01b0381166111c05760405162461bcd60e51b815260206004820152601860248201527f476f7665726e61626c653a207a65726f2061646472657373000000000000000060448201526064016105b8565b600180546001600160a01b0319166001600160a01b0383169081179091556040519081527f56bddfa0cee9697cebddf9acd7f23dc6583663b05e007b877056d05017994def90602001610d25565b600081815260018301602052604081205461125557508154600181810184556000848152602080822090930184905584548482528286019093526040902091909155610e56565b506000610e56565b600082600001828154811061127457611274611bf8565b9060005260206000200154905092915050565b600081815260018301602052604081205480156113705760006112ab600183611b53565b85549091506000906112bf90600190611b53565b90508181146113245760008660000182815481106112df576112df611bf8565b906000526020600020015490508087600001848154811061130257611302611bf8565b6000918252602080832090910192909255918252600188019052604090208390555b855486908061133557611335611be2565b600190038181906000526020600020016000905590558560010160008681526020019081526020016000206000905560019350505050610e56565b6000915050610e56565b60008083601f84011261138c57600080fd5b5081356001600160401b038111156113a357600080fd5b6020830191508360208260051b85010111156113be57600080fd5b9250929050565b600082601f8301126113d657600080fd5b815160206001600160401b038211156113f1576113f1611c0e565b6113ff818360051b01611aca565b80838252828201915082860187848660071b890101111561141f57600080fd5b6000805b8681101561148757608080848c03121561143b578283fd5b611443611a7f565b845161144e81611c39565b81528488015161145d81611c39565b81890152604085810151908201526060808601519082015286529486019490920191600101611423565b509198975050505050505050565b8051610d5b81611c24565b805160ff81168114610d5b57600080fd5b6000602082840312156114c357600080fd5b81356114ce81611c24565b9392505050565b600080602083850312156114e857600080fd5b82356001600160401b038111156114fe57600080fd5b61150a8582860161137a565b90969095509350505050565b6000806000806040858703121561152c57600080fd5b84356001600160401b038082111561154357600080fd5b61154f8883890161137a565b9096509450602087013591508082111561156857600080fd5b506115758782880161137a565b95989497509550505050565b60006020828403121561159357600080fd5b815180151581146114ce57600080fd5b6000602082840312156115b557600080fd5b81516001600160401b03808211156115cc57600080fd5b818401915084601f8301126115e057600080fd5b8151818111156115f2576115f2611c0e565b611605601f8201601f1916602001611aca565b915080825285602082850101111561161c57600080fd5b61162d816020840160208601611b6a565b50949350505050565b60006020828403121561164857600080fd5b81516001600160401b038082111561165f57600080fd5b90830190610180828603121561167457600080fd5b61167c611aa7565b82518281111561168b57600080fd5b611697878286016113c5565b8252506116a6602084016114a0565b602082015260408301516040820152606083015160608201526080830151608082015260a083015160a082015260c083015160c082015260e083015160e082015261010091508183015182820152610120915081830151828201526101409150611711828401611495565b828201526101609150611725828401611495565b91810191909152949350505050565b60006020828403121561174657600080fd5b5051919050565b60006020828403121561175f57600080fd5b81356114ce81611c39565b60006020828403121561177c57600080fd5b81516114ce81611c39565b6000806040838503121561179a57600080fd5b82356117a581611c39565b915060208301356117b581611c39565b809150509250929050565b600081518084526020808501945080840160005b838110156117f657815163ffffffff16875295820195908201906001016117d4565b509495945050505050565b60208082528181018390526000908460408401835b8681101561184457823561182981611c24565b6001600160a01b031682529183019190830190600101611816565b509695505050505050565b6020808252825182820181905260009190848201906040850190845b818110156118905783516001600160a01b03168352928401929184019160010161186b565b50909695505050505050565b60208082528181018390526000906040808401600586901b8501820187855b8881101561197257878303603f190184528135368b9003603e190181126118e157600080fd5b8a0180356118ee81611c24565b6001600160a01b031684528087013536829003601e1901811261191057600080fd5b810180356001600160401b0381111561192857600080fd5b80360383131561193757600080fd5b87898701528088870152606092508089830184880137600086820184015295880195601f01601f1916909401019250908501906001016118bb565b509098975050505050505050565b60006040808301818452808651808352606092508286019150828160051b8701016020808a0160005b84811015611a0857898403605f19018652815180516001600160a01b0316855283015183850189905280518986018190526119e9818a8801848801611b6a565b96840196601f01601f19169490940187019350908201906001016119a9565b505087820390880152611a1b81896117c0565b9998505050505050505050565b60208082526019908201527f476f7665726e61626c653a206f6e6c7920676f7665726e6f7200000000000000604082015260600190565b60008235603e19833603018112611a7557600080fd5b9190910192915050565b604051608081016001600160401b0381118282101715611aa157611aa1611c0e565b60405290565b60405161018081016001600160401b0381118282101715611aa157611aa1611c0e565b604051601f8201601f191681016001600160401b0381118282101715611af257611af2611c0e565b604052919050565b600063ffffffff808316818516808303821115611b1957611b19611bcc565b01949350505050565b600063ffffffff80841680611b4757634e487b7160e01b600052601260045260246000fd5b92169190910492915050565b600082821015611b6557611b65611bcc565b500390565b60005b83811015611b85578181015183820152602001611b6d565b83811115611b94576000848401525b50505050565b600081611ba957611ba9611bcc565b506000190190565b6000600019821415611bc557611bc5611bcc565b5060010190565b634e487b7160e01b600052601160045260246000fd5b634e487b7160e01b600052603160045260246000fd5b634e487b7160e01b600052603260045260246000fd5b634e487b7160e01b600052604160045260246000fd5b6001600160a01b0381168114610e3257600080fd5b63ffffffff81168114610e3257600080fdfea2646970667358221220099d771f2cc3217cf25087bc59c2a6231501e0ad07a622401654a3c6c936dc1e64736f6c63430008060033",
  "devdoc": {
    "kind": "dev",
    "methods": {
      "delay(uint32)": {
        "details": "If none was configured, then it will return half the given swap interval",
        "params": {
          "_swapInterval": "The swap interval to check"
        },
        "returns": {
          "__delay": "The configured delay"
        }
      },
      "setKeep3rV1(address)": {
        "details": "Will throw ZeroAddress if the zero address is passed",
        "params": {
          "_keep3rV1": "The Keep3r contract"
        }
      },
      "setSwapper(address)": {
        "details": "Will throw ZeroAddress if the zero address is passed",
        "params": {
          "_swapper": "The swapper contract"
        }
      },
      "startSubsidizingPairs(address[])": {
        "details": "Will throw InvalidPairAddress if any of the given addresses is not a valid DCA pair",
        "params": {
          "_pairs": "The new pairs to add"
        }
      },
      "stopSubsidizingPairs(address[])": {
        "params": {
          "_pairs": "The pairs to remove"
        }
      },
      "subsidizedPairs()": {
        "returns": {
          "_pairs": "An array with all the subsidized pairs"
        }
      }
    },
    "stateVariables": {
      "factory": {
        "return": "_factory The DCA Factory",
        "returns": {
          "_0": "_factory The DCA Factory"
        }
      },
      "keep3rV1": {
        "return": "_keeper The Keep3r contract",
        "returns": {
          "_0": "_keeper The Keep3r contract"
        }
      },
      "swapper": {
        "return": "_swapper The DCA swapper",
        "returns": {
          "_0": "_swapper The DCA swapper"
        }
      }
    },
    "version": 1
  },
  "userdoc": {
    "errors": {
      "InvalidPairAddress()": [
        {
          "notice": "Thrown when trying to subsidize an address that isn't a DCA pair"
        }
      ],
      "MustWaitDelay()": [
        {
          "notice": "Thrown when a pair can technically be swapped, but the delay doesn't allow it"
        }
      ],
      "NotAKeeper()": [
        {
          "notice": "Thrown when the caller executing work is not a keeper"
        }
      ],
      "NotWorked()": [
        {
          "notice": "Thrown when the caller tries to execute work with no pairs"
        }
      ],
      "PairNotSubsidized()": [
        {
          "notice": "Thrown when trying to work on a pair that is not being subsidized"
        }
      ]
    },
    "events": {
      "DelaySet(uint32,uint32)": {
        "notice": "Emitted when a new delay is configured"
      },
      "Keep3rV1Set(address)": {
        "notice": "Emitted when a keep3r is used"
      },
      "StoppedSubsidizingPairs(address[])": {
        "notice": "Emitted when some pairs stop being subsidized"
      },
      "SubsidizingNewPairs(address[])": {
        "notice": "Emitted when new pairs are subsidized"
      },
      "SwapperSet(address)": {
        "notice": "Emitted when a new swapper is used"
      },
      "Worked(uint256)": {
        "notice": "Emitted when swaps are executed"
      }
    },
    "kind": "user",
    "methods": {
      "delay(uint32)": {
        "notice": "Returns the configured delay for a given swap interval"
      },
      "factory()": {
        "notice": "Returns the DCA factory"
      },
      "keep3rV1()": {
        "notice": "Returns the Keep3r contract"
      },
      "setKeep3rV1(address)": {
        "notice": "Sets a new address for the Keep3r contract"
      },
      "setSwapper(address)": {
        "notice": "Sets a new address for the swapper contract"
      },
      "startSubsidizingPairs(address[])": {
        "notice": "Adds some new pairs to the list of subsidized pairs"
      },
      "stopSubsidizingPairs(address[])": {
        "notice": "Removes some pairs from the list of subsidized pairs"
      },
      "subsidizedPairs()": {
        "notice": "Returns a list of all the pairs that are currently subsidized"
      },
      "swapper()": {
        "notice": "Returns the DCA swapper"
      },
      "work((address,bytes)[],uint32[])": {
        "notice": "Takes an array of swaps, and executes as many as possible, returning the amount that was swapped"
      },
      "workable()": {
        "notice": "This method isn't a view and it is extremelly expensive and inefficient. DO NOT call this method on-chain, it is for off-chain purposes only."
      }
    },
    "version": 1
  },
  "storageLayout": {
    "storage": [
      {
        "astId": 14844,
        "contract": "contracts/DCAKeep3rJob/DCAKeep3rJob.sol:DCAKeep3rJob",
        "label": "_governor",
        "offset": 0,
        "slot": "0",
        "type": "t_address"
      },
      {
        "astId": 14846,
        "contract": "contracts/DCAKeep3rJob/DCAKeep3rJob.sol:DCAKeep3rJob",
        "label": "_pendingGovernor",
        "offset": 0,
        "slot": "1",
        "type": "t_address"
      },
      {
        "astId": 5377,
        "contract": "contracts/DCAKeep3rJob/DCAKeep3rJob.sol:DCAKeep3rJob",
        "label": "swapper",
        "offset": 0,
        "slot": "2",
        "type": "t_contract(IDCASwapper)10584"
      },
      {
        "astId": 5381,
        "contract": "contracts/DCAKeep3rJob/DCAKeep3rJob.sol:DCAKeep3rJob",
        "label": "keep3rV1",
        "offset": 0,
        "slot": "3",
        "type": "t_contract(IKeep3rV1)10895"
      },
      {
        "astId": 5385,
        "contract": "contracts/DCAKeep3rJob/DCAKeep3rJob.sol:DCAKeep3rJob",
        "label": "_delay",
        "offset": 0,
        "slot": "4",
        "type": "t_mapping(t_uint32,t_uint32)"
      },
      {
        "astId": 5388,
        "contract": "contracts/DCAKeep3rJob/DCAKeep3rJob.sol:DCAKeep3rJob",
        "label": "_subsidizedPairs",
        "offset": 0,
        "slot": "5",
        "type": "t_struct(AddressSet)3189_storage"
      }
    ],
    "types": {
      "t_address": {
        "encoding": "inplace",
        "label": "address",
        "numberOfBytes": "20"
      },
      "t_array(t_bytes32)dyn_storage": {
        "base": "t_bytes32",
        "encoding": "dynamic_array",
        "label": "bytes32[]",
        "numberOfBytes": "32"
      },
      "t_bytes32": {
        "encoding": "inplace",
        "label": "bytes32",
        "numberOfBytes": "32"
      },
      "t_contract(IDCASwapper)10584": {
        "encoding": "inplace",
        "label": "contract IDCASwapper",
        "numberOfBytes": "20"
      },
      "t_contract(IKeep3rV1)10895": {
        "encoding": "inplace",
        "label": "contract IKeep3rV1",
        "numberOfBytes": "20"
      },
      "t_mapping(t_bytes32,t_uint256)": {
        "encoding": "mapping",
        "key": "t_bytes32",
        "label": "mapping(bytes32 => uint256)",
        "numberOfBytes": "32",
        "value": "t_uint256"
      },
      "t_mapping(t_uint32,t_uint32)": {
        "encoding": "mapping",
        "key": "t_uint32",
        "label": "mapping(uint32 => uint32)",
        "numberOfBytes": "32",
        "value": "t_uint32"
      },
      "t_struct(AddressSet)3189_storage": {
        "encoding": "inplace",
        "label": "struct EnumerableSet.AddressSet",
        "members": [
          {
            "astId": 3188,
            "contract": "contracts/DCAKeep3rJob/DCAKeep3rJob.sol:DCAKeep3rJob",
            "label": "_inner",
            "offset": 0,
            "slot": "0",
            "type": "t_struct(Set)2918_storage"
          }
        ],
        "numberOfBytes": "64"
      },
      "t_struct(Set)2918_storage": {
        "encoding": "inplace",
        "label": "struct EnumerableSet.Set",
        "members": [
          {
            "astId": 2913,
            "contract": "contracts/DCAKeep3rJob/DCAKeep3rJob.sol:DCAKeep3rJob",
            "label": "_values",
            "offset": 0,
            "slot": "0",
            "type": "t_array(t_bytes32)dyn_storage"
          },
          {
            "astId": 2917,
            "contract": "contracts/DCAKeep3rJob/DCAKeep3rJob.sol:DCAKeep3rJob",
            "label": "_indexes",
            "offset": 0,
            "slot": "1",
            "type": "t_mapping(t_bytes32,t_uint256)"
          }
        ],
        "numberOfBytes": "64"
      },
      "t_uint256": {
        "encoding": "inplace",
        "label": "uint256",
        "numberOfBytes": "32"
      },
      "t_uint32": {
        "encoding": "inplace",
        "label": "uint32",
        "numberOfBytes": "4"
      }
    }
  }
}