{
  "address": "0x14AF365e0825B835C60867C985724e1DF11449ad",
  "abi": [
    {
      "inputs": [
        {
          "internalType": "address",
          "name": "_governor",
          "type": "address"
        },
        {
          "internalType": "contract IUniswapV3Factory",
          "name": "_factory",
          "type": "address"
        },
        {
          "internalType": "uint8",
          "name": "_cardinalityPerMinute",
          "type": "uint8"
        },
        {
          "internalType": "uint16",
          "name": "_period",
          "type": "uint16"
        },
        {
          "internalType": "uint16",
          "name": "_minimumPeriod",
          "type": "uint16"
        },
        {
          "internalType": "uint16",
          "name": "_maximumPeriod",
          "type": "uint16"
        }
      ],
      "stateMutability": "nonpayable",
      "type": "constructor"
    },
    {
      "anonymous": false,
      "inputs": [
        {
          "indexed": false,
          "internalType": "uint24",
          "name": "feeTier",
          "type": "uint24"
        }
      ],
      "name": "AddedFeeTier",
      "type": "event"
    },
    {
      "anonymous": false,
      "inputs": [
        {
          "indexed": false,
          "internalType": "address",
          "name": "tokenA",
          "type": "address"
        },
        {
          "indexed": false,
          "internalType": "address",
          "name": "tokenB",
          "type": "address"
        }
      ],
      "name": "AddedSupportForPairInUniswapOracle",
      "type": "event"
    },
    {
      "anonymous": false,
      "inputs": [
        {
          "indexed": false,
          "internalType": "uint8",
          "name": "cardinalityPerMinute",
          "type": "uint8"
        }
      ],
      "name": "CardinalityPerMinuteChanged",
      "type": "event"
    },
    {
      "anonymous": false,
      "inputs": [],
      "name": "PendingGovernorAccepted",
      "type": "event"
    },
    {
      "anonymous": false,
      "inputs": [
        {
          "indexed": false,
          "internalType": "address",
          "name": "pendingGovernor",
          "type": "address"
        }
      ],
      "name": "PendingGovernorSet",
      "type": "event"
    },
    {
      "anonymous": false,
      "inputs": [
        {
          "indexed": false,
          "internalType": "uint32",
          "name": "period",
          "type": "uint32"
        }
      ],
      "name": "PeriodChanged",
      "type": "event"
    },
    {
      "inputs": [],
      "name": "MINIMUM_LIQUIDITY_THRESHOLD",
      "outputs": [
        {
          "internalType": "uint16",
          "name": "",
          "type": "uint16"
        }
      ],
      "stateMutability": "view",
      "type": "function"
    },
    {
      "inputs": [],
      "name": "acceptPendingGovernor",
      "outputs": [],
      "stateMutability": "nonpayable",
      "type": "function"
    },
    {
      "inputs": [
        {
          "internalType": "uint24",
          "name": "_feeTier",
          "type": "uint24"
        }
      ],
      "name": "addFeeTier",
      "outputs": [],
      "stateMutability": "nonpayable",
      "type": "function"
    },
    {
      "inputs": [
        {
          "internalType": "address",
          "name": "_tokenA",
          "type": "address"
        },
        {
          "internalType": "address",
          "name": "_tokenB",
          "type": "address"
        }
      ],
      "name": "addSupportForPairIfNeeded",
      "outputs": [],
      "stateMutability": "nonpayable",
      "type": "function"
    },
    {
      "inputs": [
        {
          "internalType": "address",
          "name": "_tokenA",
          "type": "address"
        },
        {
          "internalType": "address",
          "name": "_tokenB",
          "type": "address"
        }
      ],
      "name": "canSupportPair",
      "outputs": [
        {
          "internalType": "bool",
          "name": "",
          "type": "bool"
        }
      ],
      "stateMutability": "view",
      "type": "function"
    },
    {
      "inputs": [],
      "name": "cardinalityPerMinute",
      "outputs": [
        {
          "internalType": "uint8",
          "name": "",
          "type": "uint8"
        }
      ],
      "stateMutability": "view",
      "type": "function"
    },
    {
      "inputs": [],
      "name": "factory",
      "outputs": [
        {
          "internalType": "contract IUniswapV3Factory",
          "name": "",
          "type": "address"
        }
      ],
      "stateMutability": "view",
      "type": "function"
    },
    {
      "inputs": [],
      "name": "governor",
      "outputs": [
        {
          "internalType": "address",
          "name": "",
          "type": "address"
        }
      ],
      "stateMutability": "view",
      "type": "function"
    },
    {
      "inputs": [
        {
          "internalType": "address",
          "name": "_account",
          "type": "address"
        }
      ],
      "name": "isGovernor",
      "outputs": [
        {
          "internalType": "bool",
          "name": "_isGovernor",
          "type": "bool"
        }
      ],
      "stateMutability": "view",
      "type": "function"
    },
    {
      "inputs": [
        {
          "internalType": "address",
          "name": "_account",
          "type": "address"
        }
      ],
      "name": "isPendingGovernor",
      "outputs": [
        {
          "internalType": "bool",
          "name": "_isPendingGovernor",
          "type": "bool"
        }
      ],
      "stateMutability": "view",
      "type": "function"
    },
    {
      "inputs": [],
      "name": "maximumPeriod",
      "outputs": [
        {
          "internalType": "uint16",
          "name": "",
          "type": "uint16"
        }
      ],
      "stateMutability": "view",
      "type": "function"
    },
    {
      "inputs": [],
      "name": "minimumPeriod",
      "outputs": [
        {
          "internalType": "uint16",
          "name": "",
          "type": "uint16"
        }
      ],
      "stateMutability": "view",
      "type": "function"
    },
    {
      "inputs": [],
      "name": "pendingGovernor",
      "outputs": [
        {
          "internalType": "address",
          "name": "",
          "type": "address"
        }
      ],
      "stateMutability": "view",
      "type": "function"
    },
    {
      "inputs": [],
      "name": "period",
      "outputs": [
        {
          "internalType": "uint16",
          "name": "",
          "type": "uint16"
        }
      ],
      "stateMutability": "view",
      "type": "function"
    },
    {
      "inputs": [
        {
          "internalType": "address",
          "name": "_tokenA",
          "type": "address"
        },
        {
          "internalType": "address",
          "name": "_tokenB",
          "type": "address"
        }
      ],
      "name": "poolsUsedForPair",
      "outputs": [
        {
          "internalType": "address[]",
          "name": "_usedPools",
          "type": "address[]"
        }
      ],
      "stateMutability": "view",
      "type": "function"
    },
    {
      "inputs": [
        {
          "internalType": "address",
          "name": "_tokenIn",
          "type": "address"
        },
        {
          "internalType": "uint128",
          "name": "_amountIn",
          "type": "uint128"
        },
        {
          "internalType": "address",
          "name": "_tokenOut",
          "type": "address"
        }
      ],
      "name": "quote",
      "outputs": [
        {
          "internalType": "uint256",
          "name": "_amountOut",
          "type": "uint256"
        }
      ],
      "stateMutability": "view",
      "type": "function"
    },
    {
      "inputs": [
        {
          "internalType": "address",
          "name": "_tokenA",
          "type": "address"
        },
        {
          "internalType": "address",
          "name": "_tokenB",
          "type": "address"
        }
      ],
      "name": "reconfigureSupportForPair",
      "outputs": [],
      "stateMutability": "nonpayable",
      "type": "function"
    },
    {
      "inputs": [
        {
          "internalType": "uint8",
          "name": "_cardinalityPerMinute",
          "type": "uint8"
        }
      ],
      "name": "setCardinalityPerMinute",
      "outputs": [],
      "stateMutability": "nonpayable",
      "type": "function"
    },
    {
      "inputs": [
        {
          "internalType": "address",
          "name": "__pendingGovernor",
          "type": "address"
        }
      ],
      "name": "setPendingGovernor",
      "outputs": [],
      "stateMutability": "nonpayable",
      "type": "function"
    },
    {
      "inputs": [
        {
          "internalType": "uint16",
          "name": "_period",
          "type": "uint16"
        }
      ],
      "name": "setPeriod",
      "outputs": [],
      "stateMutability": "nonpayable",
      "type": "function"
    },
    {
      "inputs": [],
      "name": "supportedFeeTiers",
      "outputs": [
        {
          "internalType": "uint24[]",
          "name": "_feeTiers",
          "type": "uint24[]"
        }
      ],
      "stateMutability": "view",
      "type": "function"
    }
  ],
  "transactionHash": "0xd4feb46c1f39bbd37ec6520c8518b40fd89097d6ff55fa75579c9ee41cc0bfc6",
  "args": [
    "0x84F4836e8022765Af9FBCE3Bb2887fD826c668f1",
    "0x1F98431c8aD98523631AE4a59f267346ea31F984",
    30,
    600,
    300,
    2700
  ],
  "numDeployments": 1,
  "bytecode": "0x6101406040526101f460e0908152610bb861010052612710610120526200002b906002906003620002c7565b503480156200003957600080fd5b506040516200281338038062002813833981810160405260c08110156200005f57600080fd5b508051602082015160408301516060840151608085015160a0909501519394929391929091856001600160a01b038116620000e1576040805162461bcd60e51b815260206004820152601860248201527f476f7665726e61626c653a207a65726f20616464726573730000000000000000604482015290519081900360640190fd5b600080546001600160a01b0319166001600160a01b0392831617905585166200013f576040805162461bcd60e51b815260206004820152600b60248201526a5a65726f4164647265737360a81b604482015290519081900360640190fd5b60008460ff161162000182576040805162461bcd60e51b81526020600482015260076024820152665a65726f43504d60c81b604482015290519081900360640190fd5b60008261ffff161180156200019e57508061ffff168261ffff16105b620001f0576040805162461bcd60e51b815260206004820152601660248201527f496e76616c6964506572696f645468726573686f6c6400000000000000000000604482015290519081900360640190fd5b8061ffff168361ffff16111580156200021157508161ffff168361ffff1610155b62000256576040805162461bcd60e51b815260206004820152601060248201526f506572696f644f75744f6652616e676560801b604482015290519081900360640190fd5b6001600160601b031960609590951b949094166080526001805461ffff909316600160a01b0261ffff60a01b1960ff909516600160b01b0260ff60b01b199094169390931793909316919091179091556001600160f01b031960f091821b811660a05291901b1660c0525062000390565b82805482825590600052602060002090600901600a90048101928215620003675791602002820160005b838211156200033457835183826101000a81548162ffffff021916908361ffff1602179055509260200192600301602081600201049283019260010302620002f1565b8015620003655782816101000a81549062ffffff021916905560030160208160020104928301926001030262000334565b505b506200037592915062000379565b5090565b5b808211156200037557600081556001016200037a565b60805160601c60a05160f01c60c05160f01c612434620003df600039806108e0528061106852508061090452806110e55250806105355280610a3a5280610dd0528061141a52506124346000f3fe608060405234801561001057600080fd5b50600436106101775760003560e01c80638dcc50c8116100d8578063df08aed51161008c578063ef78d4fd11610066578063ef78d4fd1461047b578063f235757f14610483578063fba2a2d2146104b657610177565b8063df08aed51461040d578063e3056a3414610440578063e43581b81461044857610177565b8063bc4389f7116100bd578063bc4389f7146103dd578063c45a0155146103e5578063da601e20146103ed57610177565b80638dcc50c81461036e578063a513355f1461037657610177565b8063457c85eb1161012f57806372c12c871161011457806372c12c87146102a9578063734273fd146102e45780637f55db3a1461033357610177565b8063457c85eb1461028357806362998c391461028b57610177565b806313f6986d1161016057806313f6986d146101d157806332c1b8eb146101d95780634358b89b1461026457610177565b8063065420ae1461017c5780630c340a24146101a0575b600080fd5b61019e6004803603602081101561019257600080fd5b503562ffffff166104d7565b005b6101a86107c1565b6040805173ffffffffffffffffffffffffffffffffffffffff9092168252519081900360200190f35b61019e6107dd565b610214600480360360408110156101ef57600080fd5b5073ffffffffffffffffffffffffffffffffffffffff8135811691602001351661082b565b60408051602080825283518183015283519192839290830191858101910280838360005b83811015610250578181015183820152602001610238565b505050509050019250505060405180910390f35b61026c6108de565b6040805161ffff9092168252519081900360200190f35b61026c610902565b610293610926565b6040805160ff9092168252519081900360200190f35b61019e600480360360408110156102bf57600080fd5b5073ffffffffffffffffffffffffffffffffffffffff81358116916020013516610949565b61031f600480360360408110156102fa57600080fd5b5073ffffffffffffffffffffffffffffffffffffffff813581169160200135166109aa565b604080519115158252519081900360200190f35b61019e6004803603604081101561034957600080fd5b5073ffffffffffffffffffffffffffffffffffffffff81358116916020013516610bff565b61026c610c52565b6103cb6004803603606081101561038c57600080fd5b5073ffffffffffffffffffffffffffffffffffffffff81358116916fffffffffffffffffffffffffffffffff6020820135169160409091013516610c57565b60408051918252519081900360200190f35b610214610d4c565b6101a8610dce565b61019e6004803603602081101561040357600080fd5b503560ff16610df2565b61031f6004803603602081101561042357600080fd5b503573ffffffffffffffffffffffffffffffffffffffff16610f26565b6101a8610f47565b61031f6004803603602081101561045e57600080fd5b503573ffffffffffffffffffffffffffffffffffffffff16610f63565b61026c610f84565b61019e6004803603602081101561049957600080fd5b503573ffffffffffffffffffffffffffffffffffffffff16610fa6565b61019e600480360360208110156104cc57600080fd5b503561ffff1661100c565b6104e033610f63565b610531576040805162461bcd60e51b815260206004820152601960248201527f476f7665726e61626c653a206f6e6c7920676f7665726e6f7200000000000000604482015290519081900360640190fd5b60007f000000000000000000000000000000000000000000000000000000000000000073ffffffffffffffffffffffffffffffffffffffff166322afcccb836040518263ffffffff1660e01b8152600401808262ffffff16815260200191505060206040518083038186803b1580156105a957600080fd5b505afa1580156105bd573d6000803e3d6000fd5b505050506040513d60208110156105d357600080fd5b505160020b1361062a576040805162461bcd60e51b815260206004820152600e60248201527f496e76616c696446656554696572000000000000000000000000000000000000604482015290519081900360640190fd5b600060028054806020026020016040519081016040528092919081815260200182805480156106a257602002820191906000526020600020906000905b82829054906101000a900462ffffff1662ffffff16815260200190600301906020826002010492830192600103820291508084116106675790505b5050505050905060005b815181101561072f578262ffffff168282815181106106c757fe5b602002602001015162ffffff161415610727576040805162461bcd60e51b815260206004820152601560248201527f46656554696572416c726561647950726573656e740000000000000000000000604482015290519081900360640190fd5b6001016106ac565b5060028054600181018255600091909152600a8082047f405787fa12a823e0f2b7631cc41b3ba8828b3321ca811111fa75cd3aa3bb5ace01805462ffffff808716600394909506939093026101000a8481029302191691909117905560408051918252517f7df2566cb73ced3e8f322263ff49373328d4946b7a5672113aef3f8e647b710c9181900360200190a15050565b60005473ffffffffffffffffffffffffffffffffffffffff1690565b6107e633610f26565b6108215760405162461bcd60e51b81526004018080602001828103825260218152602001806123de6021913960400191505060405180910390fd5b6108296111e1565b565b606060008061083a85856112c0565b73ffffffffffffffffffffffffffffffffffffffff808316600090815260036020908152604080832093851683529281529082902080548351818402810184019094528084529496509294509092908301828280156108cf57602002820191906000526020600020905b815473ffffffffffffffffffffffffffffffffffffffff1681526001909101906020018083116108a4575b50505050509250505092915050565b7f000000000000000000000000000000000000000000000000000000000000000081565b7f000000000000000000000000000000000000000000000000000000000000000081565b600154760100000000000000000000000000000000000000000000900460ff1681565b60008061095684846112c0565b73ffffffffffffffffffffffffffffffffffffffff8083166000908152600360209081526040808320938516835292905290812092945090925061099a919061238f565b6109a4828261130b565b50505050565b6000806002805480602002602001604051908101604052809291908181526020018280548015610a2357602002820191906000526020600020906000905b82829054906101000a900462ffffff1662ffffff16815260200190600301906020826002010492830192600103820291508084116109e85790505b5050505050905060005b8151811015610bf25760007f000000000000000000000000000000000000000000000000000000000000000073ffffffffffffffffffffffffffffffffffffffff16631698ee828787868681518110610a8257fe5b60200260200101516040518463ffffffff1660e01b8152600401808473ffffffffffffffffffffffffffffffffffffffff1681526020018373ffffffffffffffffffffffffffffffffffffffff1681526020018262ffffff168152602001935050505060206040518083038186803b158015610afd57600080fd5b505afa158015610b11573d6000803e3d6000fd5b505050506040513d6020811015610b2757600080fd5b5051905073ffffffffffffffffffffffffffffffffffffffff811615801590610bd85750600161ffff168173ffffffffffffffffffffffffffffffffffffffff16631a6865026040518163ffffffff1660e01b815260040160206040518083038186803b158015610b9757600080fd5b505afa158015610bab573d6000803e3d6000fd5b505050506040513d6020811015610bc157600080fd5b50516fffffffffffffffffffffffffffffffff1610155b15610be95760019350505050610bf9565b50600101610a2d565b5060009150505b92915050565b600080610c0c84846112c0565b73ffffffffffffffffffffffffffffffffffffffff80831660009081526003602090815260408083209385168352929052205491935091506109a4576109a4828261130b565b600181565b6000806000610c6686856112c0565b73ffffffffffffffffffffffffffffffffffffffff808316600090815260036020908152604080832093851683529281528282208054845181840281018401909552808552959750939550909391929190830182828015610cfd57602002820191906000526020600020905b815473ffffffffffffffffffffffffffffffffffffffff168152600190910190602001808311610cd2575b505050505090506000610d2482600160149054906101000a900461ffff1661ffff16611737565b90506000610d3182611872565b9050610d3f81898b8a61195e565b9998505050505050505050565b60606002805480602002602001604051908101604052809291908181526020018280548015610dc457602002820191906000526020600020906000905b82829054906101000a900462ffffff1662ffffff1681526020019060030190602082600201049283019260010382029150808411610d895790505b5050505050905090565b7f000000000000000000000000000000000000000000000000000000000000000081565b610dfb33610f63565b610e4c576040805162461bcd60e51b815260206004820152601960248201527f476f7665726e61626c653a206f6e6c7920676f7665726e6f7200000000000000604482015290519081900360640190fd5b60008160ff1611610ea4576040805162461bcd60e51b815260206004820152600760248201527f5a65726f43504d00000000000000000000000000000000000000000000000000604482015290519081900360640190fd5b6001805460ff831676010000000000000000000000000000000000000000000081027fffffffffffffffffff00ffffffffffffffffffffffffffffffffffffffffffff9092169190911790915560408051918252517f0dfaaf3cfeb17bc2ce4be3c02afaeaab84c2778f74e4a9eacb553ae4a7ec1b089181900360200190a150565b60015473ffffffffffffffffffffffffffffffffffffffff90811691161490565b60015473ffffffffffffffffffffffffffffffffffffffff1690565b60005473ffffffffffffffffffffffffffffffffffffffff90811691161490565b60015474010000000000000000000000000000000000000000900461ffff1681565b610faf33610f63565b611000576040805162461bcd60e51b815260206004820152601960248201527f476f7665726e61626c653a206f6e6c7920676f7665726e6f7200000000000000604482015290519081900360640190fd5b61100981611b07565b50565b61101533610f63565b611066576040805162461bcd60e51b815260206004820152601960248201527f476f7665726e61626c653a206f6e6c7920676f7665726e6f7200000000000000604482015290519081900360640190fd5b7f000000000000000000000000000000000000000000000000000000000000000061ffff168161ffff1611156110e3576040805162461bcd60e51b815260206004820152601860248201527f477265617465725468616e4d6178696d756d506572696f640000000000000000604482015290519081900360640190fd5b7f000000000000000000000000000000000000000000000000000000000000000061ffff168161ffff161015611160576040805162461bcd60e51b815260206004820152601560248201527f4c6573735468616e4d696e696d756d506572696f640000000000000000000000604482015290519081900360640190fd5b6001805461ffff83167401000000000000000000000000000000000000000081027fffffffffffffffffffff0000ffffffffffffffffffffffffffffffffffffffff9092169190911790915560408051918252517ff822214854e5620527e54c8a9293eb963df052efebe733964f7dea0be73f2c8a9181900360200190a150565b60015473ffffffffffffffffffffffffffffffffffffffff1661124b576040805162461bcd60e51b815260206004820152601f60248201527f476f7665726e61626c653a206e6f2070656e64696e6720676f7665726e6f7200604482015290519081900360640190fd5b60018054600080547fffffffffffffffffffffffff000000000000000000000000000000000000000090811673ffffffffffffffffffffffffffffffffffffffff84161782559091169091556040517fdc57ca23c46d823853915ed5a090ca0ee9db5eb6a46f5c58e1c9158de861fd769190a1565b6000808273ffffffffffffffffffffffffffffffffffffffff168473ffffffffffffffffffffffffffffffffffffffff16106112fd578284611300565b83835b909590945092505050565b600154600090603c90760100000000000000000000000000000000000000000000810460ff167401000000000000000000000000000000000000000090910461ffff908116919091021673ffffffffffffffffffffffffffffffffffffffff858116600090815260036020908152604080832093881683529281528282206002805485518185028101850190965280865296909504600a019650949193919083018282801561140357602002820191906000526020600020906000905b82829054906101000a900462ffffff1662ffffff16815260200190600301906020826002010492830192600103820291508084116113c85790505b5050505050905060005b815181101561168a5760007f000000000000000000000000000000000000000000000000000000000000000073ffffffffffffffffffffffffffffffffffffffff16631698ee82888886868151811061146257fe5b60200260200101516040518463ffffffff1660e01b8152600401808473ffffffffffffffffffffffffffffffffffffffff1681526020018373ffffffffffffffffffffffffffffffffffffffff1681526020018262ffffff168152602001935050505060206040518083038186803b1580156114dd57600080fd5b505afa1580156114f1573d6000803e3d6000fd5b505050506040513d602081101561150757600080fd5b5051905073ffffffffffffffffffffffffffffffffffffffff8116158015906115b85750600161ffff168173ffffffffffffffffffffffffffffffffffffffff16631a6865026040518163ffffffff1660e01b815260040160206040518083038186803b15801561157757600080fd5b505afa15801561158b573d6000803e3d6000fd5b505050506040513d60208110156115a157600080fd5b50516fffffffffffffffffffffffffffffffff1610155b1561168157835460018101855560008581526020812090910180547fffffffffffffffffffffffff00000000000000000000000000000000000000001673ffffffffffffffffffffffffffffffffffffffff8416908117909155604080517f32148f6700000000000000000000000000000000000000000000000000000000815261ffff89166004820152905191926332148f679260248084019382900301818387803b15801561166857600080fd5b505af115801561167c573d6000803e3d6000fd5b505050505b5060010161140d565b5081546116de576040805162461bcd60e51b815260206004820152601060248201527f506169724e6f74537570706f7274656400000000000000000000000000000000604482015290519081900360640190fd5b6040805173ffffffffffffffffffffffffffffffffffffffff80881682528616602082015281517f3ab7d717750c4c1a6f7db914185d58220f53ee512fccd7eeab9e9a1e8019822b929181900390910190a15050505050565b6060825167ffffffffffffffff8111801561175157600080fd5b5060405190808252806020026020018201604052801561178b57816020015b6117786123ad565b8152602001906001900390816117705790505b5060408051600280825260608201835292935063ffffffff851673ffffffffffffffffffffffffffffffffffffffff029260009260208301908036833701905050905083816000815181106117dc57fe5b602002602001019063ffffffff16908163ffffffff168152505060008160018151811061180557fe5b602002602001019063ffffffff16908163ffffffff168152505060005b85518110156118695761184a86828151811061183a57fe5b6020026020010151868585611be8565b84828151811061185657fe5b6020908102919091010152600101611822565b50505092915050565b6000806000805b84518110156119075784818151811061188e57fe5b60200260200101516000015160020b8582815181106118a957fe5b6020026020010151602001516fffffffffffffffffffffffffffffffff1602830192508481815181106118d857fe5b6020026020010151602001516fffffffffffffffffffffffffffffffff16820191508080600101915050611879565b5080828161191157fe5b05925060008212801561192c575080828161192857fe5b0715155b15611957577fffffffffffffffffffffffffffffffffffffffffffffffffffffffffffffffff909201915b5050919050565b60008061196a86611f48565b90506fffffffffffffffffffffffffffffffff73ffffffffffffffffffffffffffffffffffffffff821611611a385773ffffffffffffffffffffffffffffffffffffffff808216800290848116908616106119fa576119f57801000000000000000000000000000000000000000000000000876fffffffffffffffffffffffffffffffff16836122c1565b611a30565b611a3081876fffffffffffffffffffffffffffffffff1678010000000000000000000000000000000000000000000000006122c1565b925050611afe565b6000611a6473ffffffffffffffffffffffffffffffffffffffff831680680100000000000000006122c1565b90508373ffffffffffffffffffffffffffffffffffffffff168573ffffffffffffffffffffffffffffffffffffffff1610611acc57611ac7700100000000000000000000000000000000876fffffffffffffffffffffffffffffffff16836122c1565b611afa565b611afa81876fffffffffffffffffffffffffffffffff167001000000000000000000000000000000006122c1565b9250505b50949350505050565b73ffffffffffffffffffffffffffffffffffffffff8116611b6f576040805162461bcd60e51b815260206004820152601860248201527f476f7665726e61626c653a207a65726f20616464726573730000000000000000604482015290519081900360640190fd5b6001805473ffffffffffffffffffffffffffffffffffffffff83167fffffffffffffffffffffffff0000000000000000000000000000000000000000909116811790915560408051918252517f56bddfa0cee9697cebddf9acd7f23dc6583663b05e007b877056d05017994def9181900360200190a150565b611bf06123ad565b6040517f883bdbfd000000000000000000000000000000000000000000000000000000008152602060048201818152845160248401528451600093849373ffffffffffffffffffffffffffffffffffffffff8b169363883bdbfd938993919283926044019181860191028083838b5b83811015611c77578181015183820152602001611c5f565b505050509050019250505060006040518083038186803b158015611c9a57600080fd5b505afa158015611cae573d6000803e3d6000fd5b505050506040513d6000823e601f3d9081017fffffffffffffffffffffffffffffffffffffffffffffffffffffffffffffffe01682016040908152811015611cf557600080fd5b8101908080516040519392919084640100000000821115611d1557600080fd5b908301906020820185811115611d2a57600080fd5b8251866020820283011164010000000082111715611d4757600080fd5b82525081516020918201928201910280838360005b83811015611d74578181015183820152602001611d5c565b5050505090500160405260200180516040519392919084640100000000821115611d9d57600080fd5b908301906020820185811115611db257600080fd5b8251866020820283011164010000000082111715611dcf57600080fd5b82525081516020918201928201910280838360005b83811015611dfc578181015183820152602001611de4565b5050505090500160405250505091509150600082600081518110611e1c57fe5b602002602001015183600181518110611e3157fe5b6020026020010151039050600082600081518110611e4b57fe5b602002602001015183600181518110611e6057fe5b60200260200101510390508763ffffffff168260060b81611e7d57fe5b05600290810b900b85526000600683900b128015611eaf57508763ffffffff168260060b81611ea857fe5b0760060b15155b15611ee25784517fffffffffffffffffffffffffffffffffffffffffffffffffffffffffffffffff01600290810b900b85525b77ffffffffffffffffffffffffffffffffffffffff00000000602082901b1677ffffffffffffffffffffffffffffffffffffffffffffffff881681611f2357fe5b046fffffffffffffffffffffffffffffffff1660208601525092979650505050505050565b60008060008360020b12611f5f578260020b611f67565b8260020b6000035b9050620d89e8811115611fc1576040805162461bcd60e51b815260206004820152600160248201527f5400000000000000000000000000000000000000000000000000000000000000604482015290519081900360640190fd5b600060018216611fe257700100000000000000000000000000000000611ff4565b6ffffcb933bd6fad37aa2d162d1a5940015b70ffffffffffffffffffffffffffffffffff1690506002821615612028576ffff97272373d413259a46990580e213a0260801c5b6004821615612047576ffff2e50f5f656932ef12357cf3c7fdcc0260801c5b6008821615612066576fffe5caca7e10e4e61c3624eaa0941cd00260801c5b6010821615612085576fffcb9843d60f6159c9db58835c9266440260801c5b60208216156120a4576fff973b41fa98c081472e6896dfb254c00260801c5b60408216156120c3576fff2ea16466c96a3843ec78b326b528610260801c5b60808216156120e2576ffe5dee046a99a2a811c461f1969c30530260801c5b610100821615612102576ffcbe86c7900a88aedcffc83b479aa3a40260801c5b610200821615612122576ff987a7253ac413176f2b074cf7815e540260801c5b610400821615612142576ff3392b0822b70005940c7a398e4b70f30260801c5b610800821615612162576fe7159475a2c29b7443b29c7fa6e889d90260801c5b611000821615612182576fd097f3bdfd2022b8845ad8f792aa58250260801c5b6120008216156121a2576fa9f746462d870fdf8a65dc1f90e061e50260801c5b6140008216156121c2576f70d869a156d2a1b890bb3df62baf32f70260801c5b6180008216156121e2576f31be135f97d08fd981231505542fcfa60260801c5b62010000821615612203576f09aa508b5b7a84e1c677de54f3e99bc90260801c5b62020000821615612223576e5d6af8dedb81196699c329225ee6040260801c5b62040000821615612242576d2216e584f5fa1ea926041bedfe980260801c5b6208000082161561225f576b048a170391f7dc42444e8fa20260801c5b60008460020b131561229857807fffffffffffffffffffffffffffffffffffffffffffffffffffffffffffffffff8161229457fe5b0490505b6401000000008106156122ac5760016122af565b60005b60ff16602082901c0192505050919050565b600080807fffffffffffffffffffffffffffffffffffffffffffffffffffffffffffffffff85870986860292508281109083900303905080612315576000841161230a57600080fd5b508290049050612388565b80841161232157600080fd5b6000848688096000868103871696879004966002600389028118808a02820302808a02820302808a02820302808a02820302808a02820302808a02909103029181900381900460010186841190950394909402919094039290920491909117919091029150505b9392505050565b508054600082559060005260206000209081019061100991906123c4565b604080518082019091526000808252602082015290565b5b808211156123d957600081556001016123c5565b509056fe476f7665726e61626c653a206f6e6c792070656e64696e6720676f7665726e6f72a2646970667358221220612da9b67a205767122df1756fc1cb7bf5dddd58683cb8a947021512ce86c0f664736f6c63430007060033"
}