{
  "address": "0x0dBCcA406b622ed1f455abC9560d51Aa0C81560F",
  "abi": [
    {
      "inputs": [
        {
          "internalType": "address",
          "name": "_immediateGovernor",
          "type": "address"
        },
        {
          "internalType": "address",
          "name": "_timeLockedGovernor",
          "type": "address"
        },
        {
          "internalType": "address",
          "name": "_feeRecipient",
          "type": "address"
        },
        {
          "internalType": "contract IDCATokenDescriptor",
          "name": "_nftDescriptor",
          "type": "address"
        },
        {
          "internalType": "contract ITimeWeightedOracle",
          "name": "_oracle",
          "type": "address"
        }
      ],
      "stateMutability": "nonpayable",
      "type": "constructor"
    },
    {
      "inputs": [],
      "name": "EmptyDescription",
      "type": "error"
    },
    {
      "inputs": [],
      "name": "HighFee",
      "type": "error"
    },
    {
      "inputs": [],
      "name": "InvalidParams",
      "type": "error"
    },
    {
      "inputs": [],
      "name": "ZeroAddress",
      "type": "error"
    },
    {
      "inputs": [],
      "name": "ZeroInterval",
      "type": "error"
    },
    {
      "anonymous": false,
      "inputs": [
        {
          "indexed": false,
          "internalType": "address",
          "name": "_feeRecipient",
          "type": "address"
        }
      ],
      "name": "FeeRecipientSet",
      "type": "event"
    },
    {
      "anonymous": false,
      "inputs": [
        {
          "indexed": false,
          "internalType": "uint32",
          "name": "_feeSet",
          "type": "uint32"
        }
      ],
      "name": "LoanFeeSet",
      "type": "event"
    },
    {
      "anonymous": false,
      "inputs": [
        {
          "indexed": false,
          "internalType": "contract IDCATokenDescriptor",
          "name": "_descriptor",
          "type": "address"
        }
      ],
      "name": "NFTDescriptorSet",
      "type": "event"
    },
    {
      "anonymous": false,
      "inputs": [
        {
          "indexed": false,
          "internalType": "contract ITimeWeightedOracle",
          "name": "_oracle",
          "type": "address"
        }
      ],
      "name": "OracleSet",
      "type": "event"
    },
    {
      "anonymous": false,
      "inputs": [
        {
          "indexed": false,
          "internalType": "address",
          "name": "account",
          "type": "address"
        }
      ],
      "name": "Paused",
      "type": "event"
    },
    {
      "anonymous": false,
      "inputs": [
        {
          "indexed": true,
          "internalType": "bytes32",
          "name": "role",
          "type": "bytes32"
        },
        {
          "indexed": true,
          "internalType": "bytes32",
          "name": "previousAdminRole",
          "type": "bytes32"
        },
        {
          "indexed": true,
          "internalType": "bytes32",
          "name": "newAdminRole",
          "type": "bytes32"
        }
      ],
      "name": "RoleAdminChanged",
      "type": "event"
    },
    {
      "anonymous": false,
      "inputs": [
        {
          "indexed": true,
          "internalType": "bytes32",
          "name": "role",
          "type": "bytes32"
        },
        {
          "indexed": true,
          "internalType": "address",
          "name": "account",
          "type": "address"
        },
        {
          "indexed": true,
          "internalType": "address",
          "name": "sender",
          "type": "address"
        }
      ],
      "name": "RoleGranted",
      "type": "event"
    },
    {
      "anonymous": false,
      "inputs": [
        {
          "indexed": true,
          "internalType": "bytes32",
          "name": "role",
          "type": "bytes32"
        },
        {
          "indexed": true,
          "internalType": "address",
          "name": "account",
          "type": "address"
        },
        {
          "indexed": true,
          "internalType": "address",
          "name": "sender",
          "type": "address"
        }
      ],
      "name": "RoleRevoked",
      "type": "event"
    },
    {
      "anonymous": false,
      "inputs": [
        {
          "indexed": false,
          "internalType": "uint32",
          "name": "_feeSet",
          "type": "uint32"
        }
      ],
      "name": "SwapFeeSet",
      "type": "event"
    },
    {
      "anonymous": false,
      "inputs": [
        {
          "indexed": false,
          "internalType": "uint32[]",
          "name": "_swapIntervals",
          "type": "uint32[]"
        },
        {
          "indexed": false,
          "internalType": "string[]",
          "name": "_descriptions",
          "type": "string[]"
        }
      ],
      "name": "SwapIntervalsAllowed",
      "type": "event"
    },
    {
      "anonymous": false,
      "inputs": [
        {
          "indexed": false,
          "internalType": "uint32[]",
          "name": "_swapIntervals",
          "type": "uint32[]"
        }
      ],
      "name": "SwapIntervalsForbidden",
      "type": "event"
    },
    {
      "anonymous": false,
      "inputs": [
        {
          "indexed": false,
          "internalType": "address",
          "name": "account",
          "type": "address"
        }
      ],
      "name": "Unpaused",
      "type": "event"
    },
    {
      "inputs": [],
      "name": "DEFAULT_ADMIN_ROLE",
      "outputs": [
        {
          "internalType": "bytes32",
          "name": "",
          "type": "bytes32"
        }
      ],
      "stateMutability": "view",
      "type": "function"
    },
    {
      "inputs": [],
      "name": "FEE_PRECISION",
      "outputs": [
        {
          "internalType": "uint24",
          "name": "",
          "type": "uint24"
        }
      ],
      "stateMutability": "view",
      "type": "function"
    },
    {
      "inputs": [],
      "name": "IMMEDIATE_ROLE",
      "outputs": [
        {
          "internalType": "bytes32",
          "name": "",
          "type": "bytes32"
        }
      ],
      "stateMutability": "view",
      "type": "function"
    },
    {
      "inputs": [],
      "name": "MAX_FEE",
      "outputs": [
        {
          "internalType": "uint32",
          "name": "",
          "type": "uint32"
        }
      ],
      "stateMutability": "view",
      "type": "function"
    },
    {
      "inputs": [],
      "name": "TIME_LOCKED_ROLE",
      "outputs": [
        {
          "internalType": "bytes32",
          "name": "",
          "type": "bytes32"
        }
      ],
      "stateMutability": "view",
      "type": "function"
    },
    {
      "inputs": [
        {
          "internalType": "uint32[]",
          "name": "_swapIntervals",
          "type": "uint32[]"
        },
        {
          "internalType": "string[]",
          "name": "_descriptions",
          "type": "string[]"
        }
      ],
      "name": "addSwapIntervalsToAllowedList",
      "outputs": [],
      "stateMutability": "nonpayable",
      "type": "function"
    },
    {
      "inputs": [],
      "name": "allowedSwapIntervals",
      "outputs": [
        {
          "internalType": "uint32[]",
          "name": "__allowedSwapIntervals",
          "type": "uint32[]"
        }
      ],
      "stateMutability": "view",
      "type": "function"
    },
    {
      "inputs": [],
      "name": "feeRecipient",
      "outputs": [
        {
          "internalType": "address",
          "name": "",
          "type": "address"
        }
      ],
      "stateMutability": "view",
      "type": "function"
    },
    {
      "inputs": [
        {
          "internalType": "bytes32",
          "name": "role",
          "type": "bytes32"
        }
      ],
      "name": "getRoleAdmin",
      "outputs": [
        {
          "internalType": "bytes32",
          "name": "",
          "type": "bytes32"
        }
      ],
      "stateMutability": "view",
      "type": "function"
    },
    {
      "inputs": [
        {
          "internalType": "bytes32",
          "name": "role",
          "type": "bytes32"
        },
        {
          "internalType": "address",
          "name": "account",
          "type": "address"
        }
      ],
      "name": "grantRole",
      "outputs": [],
      "stateMutability": "nonpayable",
      "type": "function"
    },
    {
      "inputs": [
        {
          "internalType": "bytes32",
          "name": "role",
          "type": "bytes32"
        },
        {
          "internalType": "address",
          "name": "account",
          "type": "address"
        }
      ],
      "name": "hasRole",
      "outputs": [
        {
          "internalType": "bool",
          "name": "",
          "type": "bool"
        }
      ],
      "stateMutability": "view",
      "type": "function"
    },
    {
      "inputs": [
        {
          "internalType": "uint32",
          "name": "",
          "type": "uint32"
        }
      ],
      "name": "intervalDescription",
      "outputs": [
        {
          "internalType": "string",
          "name": "",
          "type": "string"
        }
      ],
      "stateMutability": "view",
      "type": "function"
    },
    {
      "inputs": [
        {
          "internalType": "uint32",
          "name": "_swapInterval",
          "type": "uint32"
        }
      ],
      "name": "isSwapIntervalAllowed",
      "outputs": [
        {
          "internalType": "bool",
          "name": "",
          "type": "bool"
        }
      ],
      "stateMutability": "view",
      "type": "function"
    },
    {
      "inputs": [],
      "name": "loanFee",
      "outputs": [
        {
          "internalType": "uint32",
          "name": "",
          "type": "uint32"
        }
      ],
      "stateMutability": "view",
      "type": "function"
    },
    {
      "inputs": [],
      "name": "loanParameters",
      "outputs": [
        {
          "components": [
            {
              "internalType": "address",
              "name": "feeRecipient",
              "type": "address"
            },
            {
              "internalType": "bool",
              "name": "isPaused",
              "type": "bool"
            },
            {
              "internalType": "uint32",
              "name": "loanFee",
              "type": "uint32"
            }
          ],
          "internalType": "struct IDCAGlobalParameters.LoanParameters",
          "name": "_loanParameters",
          "type": "tuple"
        }
      ],
      "stateMutability": "view",
      "type": "function"
    },
    {
      "inputs": [],
      "name": "nftDescriptor",
      "outputs": [
        {
          "internalType": "contract IDCATokenDescriptor",
          "name": "",
          "type": "address"
        }
      ],
      "stateMutability": "view",
      "type": "function"
    },
    {
      "inputs": [],
      "name": "oracle",
      "outputs": [
        {
          "internalType": "contract ITimeWeightedOracle",
          "name": "",
          "type": "address"
        }
      ],
      "stateMutability": "view",
      "type": "function"
    },
    {
      "inputs": [],
      "name": "pause",
      "outputs": [],
      "stateMutability": "nonpayable",
      "type": "function"
    },
    {
      "inputs": [],
      "name": "paused",
      "outputs": [
        {
          "internalType": "bool",
          "name": "",
          "type": "bool"
        }
      ],
      "stateMutability": "view",
      "type": "function"
    },
    {
      "inputs": [
        {
          "internalType": "uint32[]",
          "name": "_swapIntervals",
          "type": "uint32[]"
        }
      ],
      "name": "removeSwapIntervalsFromAllowedList",
      "outputs": [],
      "stateMutability": "nonpayable",
      "type": "function"
    },
    {
      "inputs": [
        {
          "internalType": "bytes32",
          "name": "role",
          "type": "bytes32"
        },
        {
          "internalType": "address",
          "name": "account",
          "type": "address"
        }
      ],
      "name": "renounceRole",
      "outputs": [],
      "stateMutability": "nonpayable",
      "type": "function"
    },
    {
      "inputs": [
        {
          "internalType": "bytes32",
          "name": "role",
          "type": "bytes32"
        },
        {
          "internalType": "address",
          "name": "account",
          "type": "address"
        }
      ],
      "name": "revokeRole",
      "outputs": [],
      "stateMutability": "nonpayable",
      "type": "function"
    },
    {
      "inputs": [
        {
          "internalType": "address",
          "name": "_feeRecipient",
          "type": "address"
        }
      ],
      "name": "setFeeRecipient",
      "outputs": [],
      "stateMutability": "nonpayable",
      "type": "function"
    },
    {
      "inputs": [
        {
          "internalType": "uint32",
          "name": "_loanFee",
          "type": "uint32"
        }
      ],
      "name": "setLoanFee",
      "outputs": [],
      "stateMutability": "nonpayable",
      "type": "function"
    },
    {
      "inputs": [
        {
          "internalType": "contract IDCATokenDescriptor",
          "name": "_descriptor",
          "type": "address"
        }
      ],
      "name": "setNFTDescriptor",
      "outputs": [],
      "stateMutability": "nonpayable",
      "type": "function"
    },
    {
      "inputs": [
        {
          "internalType": "contract ITimeWeightedOracle",
          "name": "_oracle",
          "type": "address"
        }
      ],
      "name": "setOracle",
      "outputs": [],
      "stateMutability": "nonpayable",
      "type": "function"
    },
    {
      "inputs": [
        {
          "internalType": "uint32",
          "name": "_swapFee",
          "type": "uint32"
        }
      ],
      "name": "setSwapFee",
      "outputs": [],
      "stateMutability": "nonpayable",
      "type": "function"
    },
    {
      "inputs": [
        {
          "internalType": "bytes4",
          "name": "interfaceId",
          "type": "bytes4"
        }
      ],
      "name": "supportsInterface",
      "outputs": [
        {
          "internalType": "bool",
          "name": "",
          "type": "bool"
        }
      ],
      "stateMutability": "view",
      "type": "function"
    },
    {
      "inputs": [],
      "name": "swapFee",
      "outputs": [
        {
          "internalType": "uint32",
          "name": "",
          "type": "uint32"
        }
      ],
      "stateMutability": "view",
      "type": "function"
    },
    {
      "inputs": [],
      "name": "swapParameters",
      "outputs": [
        {
          "components": [
            {
              "internalType": "address",
              "name": "feeRecipient",
              "type": "address"
            },
            {
              "internalType": "bool",
              "name": "isPaused",
              "type": "bool"
            },
            {
              "internalType": "uint32",
              "name": "swapFee",
              "type": "uint32"
            },
            {
              "internalType": "contract ITimeWeightedOracle",
              "name": "oracle",
              "type": "address"
            }
          ],
          "internalType": "struct IDCAGlobalParameters.SwapParameters",
          "name": "_swapParameters",
          "type": "tuple"
        }
      ],
      "stateMutability": "view",
      "type": "function"
    },
    {
      "inputs": [],
      "name": "unpause",
      "outputs": [],
      "stateMutability": "nonpayable",
      "type": "function"
    }
  ],
  "transactionHash": "0xdac0e64c2fc1860310b3f9fb5694bb9e2742cebad70eda734acfa40e21eeae8b",
  "args": [
    "0xaEF6B153e3f59D4010DBcBCA04a25058417de695",
    "0x763BB5611A7e748f8434Ca69EDabE128bEcF9578",
    "0xa6B761A4F524DeB484E8322B54063a7a399d8CDD",
    "0x51B2f9a89cB8033262CE0F7BA8618cafE11cA679",
    "0xF79ad166c7EC3a8d49c0FB3903b8c26f46FF0EE0"
  ],
  "solcInputHash": "9cff5268f386a73e6ed0a9853e23ca90",
  "bytecode": "0x608060405260038054600160a01b600160e01b031916643e8000017760a41b1790553480156200002e57600080fd5b5060405162001eb838038062001eb88339810160408190526200005191620002b2565b6001805460ff191690556001600160a01b03851615806200007957506001600160a01b038416155b806200008c57506001600160a01b038316155b806200009f57506001600160a01b038216155b80620000b257506001600160a01b038116155b15620000d15760405163d92e233d60e01b815260040160405180910390fd5b620000ec60008051602062001e9883398151915286620001ae565b620001187ffb63867dc303889c4e19b6276d834e066500dd4210f4434d34089a246beec82a85620001ae565b6200013360008051602062001e9883398151915280620001be565b6200015f7ffb63867dc303889c4e19b6276d834e066500dd4210f4434d34089a246beec82a80620001be565b600180546001600160a01b0394851661010002610100600160a81b0319909116179055600280549284166001600160a01b031993841617905560038054919093169116179055506200034b9050565b620001ba828262000212565b5050565b600082815260208190526040902060010154819060405184907fbd79b86ffe0ab8e8776151514217cd7cacd52c909f66475c3af44e129f0b00ff90600090a460009182526020829052604090912060010155565b6000828152602081815260408083206001600160a01b038516845290915290205460ff16620001ba576000828152602081815260408083206001600160a01b03851684529091529020805460ff191660011790556200026e3390565b6001600160a01b0316816001600160a01b0316837f2f8788117e7eff1d82e926ec794901d17c78024a50270940304540a733656f0d60405160405180910390a45050565b600080600080600060a08688031215620002cb57600080fd5b8551620002d88162000332565b6020870151909550620002eb8162000332565b6040870151909450620002fe8162000332565b6060870151909350620003118162000332565b6080870151909250620003248162000332565b809150509295509295909350565b6001600160a01b03811681146200034857600080fd5b50565b611b3d806200035b6000396000f3fe608060405234801561001057600080fd5b50600436106101e55760003560e01c80637d361dd31161010f578063b1d0a337116100a2578063d6d788c311610071578063d6d788c31461049a578063da90b03a146104ad578063e63a391f146104c0578063e74b981b146104dd57600080fd5b8063b1d0a33714610431578063bc063e1a1461046c578063caeb93d914610474578063d547741f1461048757600080fd5b806391d14854116100de57806391d14854146103ec5780639bcb5572146103ff5780639eceefe114610416578063a217fddf1461042957600080fd5b80637d361dd3146103a95780637d8e8603146103be5780637dc0d1d0146103d15780638456cb59146103e457600080fd5b806346904840116101875780635c975abb116101565780635c975abb1461035b57806375c890b8146103635780637adbf973146103835780637cad6cd11461039657600080fd5b806346904840146102ed578063480e5da1146103055780634eeeb3eb1461031a57806354cf2aeb1461032f57600080fd5b80632f2ff15d116101c35780632f2ff15d1461029257806336568abe146102a75780633f4ba83a146102ba57806344267570146102c257600080fd5b806301ffc9a7146101ea5780630e55bd1c14610212578063248a9ca314610261575b600080fd5b6101fd6101f836600461168c565b6104f0565b60405190151581526020015b60405180910390f35b61021a610527565b604051610209919081516001600160a01b03908116825260208084015115159083015260408084015163ffffffff1690830152606092830151169181019190915260800190565b61028461026f366004611643565b60009081526020819052604090206001015490565b604051908152602001610209565b6102a56102a036600461165c565b610590565b005b6102a56102b536600461165c565b6105bb565b6102a561063e565b6002546102d5906001600160a01b031681565b6040516001600160a01b039091168152602001610209565b6001546102d59061010090046001600160a01b031681565b61030d610662565b6040516102099190611880565b610284600080516020611ac883398151915281565b60035461034690600160a01b900463ffffffff1681565b60405163ffffffff9091168152602001610209565b6101fd61070b565b6103766103713660046116b6565b61071e565b60405161020991906118ca565b6102a5610391366004611578565b6107b8565b6102a56103a4366004611578565b61084e565b610284600080516020611ae883398151915281565b6102a56103cc366004611595565b6108dc565b6003546102d5906001600160a01b031681565b6102a56109e3565b6101fd6103fa36600461165c565b610a04565b60035461034690600160c01b900463ffffffff1681565b6101fd6104243660046116b6565b610a2d565b610284600081565b610439610a43565b6040805182516001600160a01b031681526020808401511515908201529181015163ffffffff1690820152606001610209565b610346610a97565b6102a56104823660046115d7565b610aac565b6102a561049536600461165c565b610c88565b6102a56104a83660046116b6565b610cae565b6102a56104bb3660046116b6565b610d53565b6104c961271081565b60405162ffffff9091168152602001610209565b6102a56104eb366004611578565b610df8565b60006001600160e01b03198216637965db0b60e01b148061052157506301ffc9a760e01b6001600160e01b03198316145b92915050565b60408051608081018252600060208201819052918101829052606081019190915260015461010090046001600160a01b0316815261056361070b565b1515602082015260035463ffffffff600160a01b82041660408301526001600160a01b0316606082015290565b6000828152602081905260409020600101546105ac8133610e8e565b6105b68383610ef2565b505050565b6001600160a01b03811633146106305760405162461bcd60e51b815260206004820152602f60248201527f416363657373436f6e74726f6c3a2063616e206f6e6c792072656e6f756e636560448201526e103937b632b9903337b91039b2b63360891b60648201526084015b60405180910390fd5b61063a8282610f76565b5050565b600080516020611ae88339815191526106578133610e8e565b61065f610fdb565b50565b606060006106706005611070565b90508067ffffffffffffffff81111561068b5761068b611a9c565b6040519080825280602002602001820160405280156106b4578160200160208202803683370190505b50915060005b81811015610706576106cd60058261107a565b8382815181106106df576106df611a86565b63ffffffff90921660209283029190910190910152806106fe81611a3f565b9150506106ba565b505090565b600061071960015460ff1690565b905090565b6004602052600090815260409020805461073790611a04565b80601f016020809104026020016040519081016040528092919081815260200182805461076390611a04565b80156107b05780601f10610785576101008083540402835291602001916107b0565b820191906000526020600020905b81548152906001019060200180831161079357829003601f168201915b505050505081565b600080516020611ac88339815191526107d18133610e8e565b6001600160a01b0382166107f85760405163d92e233d60e01b815260040160405180910390fd5b600380546001600160a01b0319166001600160a01b0384169081179091556040519081527f3f32684a32a11dabdbb8c0177de80aa3ae36a004d75210335b49e544e48cd0aa906020015b60405180910390a15050565b600080516020611ae88339815191526108678133610e8e565b6001600160a01b03821661088e5760405163d92e233d60e01b815260040160405180910390fd5b600280546001600160a01b0319166001600160a01b0384169081179091556040519081527f58a2b9171063c6d38177053178bc1844b920884b05d7c9126c480d86b0716bce90602001610842565b600080516020611ae88339815191526108f58133610e8e565b60005b828110156109a45761094084848381811061091557610915611a86565b905060200201602081019061092a91906116b6565b63ffffffff16600561108d90919063ffffffff16565b506004600085858481811061095757610957611a86565b905060200201602081019061096c91906116b6565b63ffffffff1663ffffffff16815260200190815260200160002060006109929190611440565b8061099c81611a3f565b9150506108f8565b507fd0359552feffede26fee29bd110dd8e1a3237acd35c7e17a9d3b7330b02f882583836040516109d69291906117b3565b60405180910390a1505050565b600080516020611ae88339815191526109fc8133610e8e565b61065f611099565b6000918252602082815260408084206001600160a01b0393909316845291905290205460ff1690565b6000610521600563ffffffff8085169061111416565b604080516060810182526000602082018190529181019190915260015461010090046001600160a01b03168152610a7861070b565b15156020820152600354600160c01b900463ffffffff16604082015290565b610aa4612710600a61195c565b62ffffff1681565b600080516020611ae8833981519152610ac58133610e8e565b838214610ae557604051635435b28960e11b815260040160405180910390fd5b60005b84811015610c4357858582818110610b0257610b02611a86565b9050602002016020810190610b1791906116b6565b63ffffffff16610b3a5760405163346ff60760e01b815260040160405180910390fd5b838382818110610b4c57610b4c611a86565b9050602002810190610b5e91906118fd565b15159050610b7f5760405163d937d5df60e01b815260040160405180910390fd5b610bbf868683818110610b9457610b94611a86565b9050602002016020810190610ba991906116b6565b63ffffffff16600561112c90919063ffffffff16565b50838382818110610bd257610bd2611a86565b9050602002810190610be491906118fd565b60046000898986818110610bfa57610bfa611a86565b9050602002016020810190610c0f91906116b6565b63ffffffff1681526020810191909152604001600020610c3092909161147a565b5080610c3b81611a3f565b915050610ae8565b507fbedbd17c0fc434b767574d7b78c5b856984fbdd13b02606fb750dd37020ddaa385858585604051610c7994939291906117cf565b60405180910390a15050505050565b600082815260208190526040902060010154610ca48133610e8e565b6105b68383610f76565b600080516020611ac8833981519152610cc78133610e8e565b610cd4612710600a61195c565b62ffffff1663ffffffff83161115610cff576040516314041af760e31b815260040160405180910390fd5b6003805463ffffffff60a01b1916600160a01b63ffffffff8516908102919091179091556040519081527f5658872a8436367e842f76c14ffbbf8e67a2e70f47b28b3c4154134f72e902d690602001610842565b600080516020611ac8833981519152610d6c8133610e8e565b610d79612710600a61195c565b62ffffff1663ffffffff83161115610da4576040516314041af760e31b815260040160405180910390fd5b6003805463ffffffff60c01b1916600160c01b63ffffffff8516908102919091179091556040519081527f6d0851a3fe66369a96f833703a09a7cb561e2eea7bc56bb8f247ac599814150f90602001610842565b600080516020611ae8833981519152610e118133610e8e565b6001600160a01b038216610e385760405163d92e233d60e01b815260040160405180910390fd5b60018054610100600160a81b0319166101006001600160a01b038516908102919091179091556040519081527fbf9a9534339a9d6b81696e05dcfb614b7dc518a31d48be3cfb757988381fb32390602001610842565b610e988282610a04565b61063a57610eb0816001600160a01b03166014611138565b610ebb836020611138565b604051602001610ecc92919061173e565b60408051601f198184030181529082905262461bcd60e51b8252610627916004016118ca565b610efc8282610a04565b61063a576000828152602081815260408083206001600160a01b03851684529091529020805460ff19166001179055610f323390565b6001600160a01b0316816001600160a01b0316837f2f8788117e7eff1d82e926ec794901d17c78024a50270940304540a733656f0d60405160405180910390a45050565b610f808282610a04565b1561063a576000828152602081815260408083206001600160a01b0385168085529252808320805460ff1916905551339285917ff6391f5c32d9c69d2a47ea670b442974b53935d1edc7fd64eb21e047a839171b9190a45050565b610fe361070b565b6110265760405162461bcd60e51b815260206004820152601460248201527314185d5cd8589b194e881b9bdd081c185d5cd95960621b6044820152606401610627565b6001805460ff191690557f5db9ee0a495bf2e6ff9c91a7834c1ba4fdd244a5e8aa4e537bd38aeae4b073aa335b6040516001600160a01b03909116815260200160405180910390a1565b6000610521825490565b600061108683836112d4565b9392505050565b600061108683836112fe565b6110a161070b565b156110e15760405162461bcd60e51b815260206004820152601060248201526f14185d5cd8589b194e881c185d5cd95960821b6044820152606401610627565b6001805460ff1916811790557f62e78cea01bee320cd4e420270b5ea74000d11b0c9f74754ebdbfc544b05a25833611053565b60008181526001830160205260408120541515611086565b600061108683836113f1565b60606000611147836002611987565b611152906002611944565b67ffffffffffffffff81111561116a5761116a611a9c565b6040519080825280601f01601f191660200182016040528015611194576020820181803683370190505b509050600360fc1b816000815181106111af576111af611a86565b60200101906001600160f81b031916908160001a905350600f60fb1b816001815181106111de576111de611a86565b60200101906001600160f81b031916908160001a9053506000611202846002611987565b61120d906001611944565b90505b6001811115611285576f181899199a1a9b1b9c1cb0b131b232b360811b85600f166010811061124157611241611a86565b1a60f81b82828151811061125757611257611a86565b60200101906001600160f81b031916908160001a90535060049490941c9361127e816119ed565b9050611210565b5083156110865760405162461bcd60e51b815260206004820181905260248201527f537472696e67733a20686578206c656e67746820696e73756666696369656e746044820152606401610627565b60008260000182815481106112eb576112eb611a86565b9060005260206000200154905092915050565b600081815260018301602052604081205480156113e75760006113226001836119a6565b8554909150600090611336906001906119a6565b905081811461139b57600086600001828154811061135657611356611a86565b906000526020600020015490508087600001848154811061137957611379611a86565b6000918252602080832090910192909255918252600188019052604090208390555b85548690806113ac576113ac611a70565b600190038181906000526020600020016000905590558560010160008681526020019081526020016000206000905560019350505050610521565b6000915050610521565b600081815260018301602052604081205461143857508154600181810184556000848152602080822090930184905584548482528286019093526040902091909155610521565b506000610521565b50805461144c90611a04565b6000825580601f1061145c575050565b601f01602090049060005260206000209081019061065f91906114fe565b82805461148690611a04565b90600052602060002090601f0160209004810192826114a857600085556114ee565b82601f106114c15782800160ff198235161785556114ee565b828001600101855582156114ee579182015b828111156114ee5782358255916020019190600101906114d3565b506114fa9291506114fe565b5090565b5b808211156114fa57600081556001016114ff565b60008083601f84011261152557600080fd5b50813567ffffffffffffffff81111561153d57600080fd5b6020830191508360208260051b850101111561155857600080fd5b9250929050565b803563ffffffff8116811461157357600080fd5b919050565b60006020828403121561158a57600080fd5b813561108681611ab2565b600080602083850312156115a857600080fd5b823567ffffffffffffffff8111156115bf57600080fd5b6115cb85828601611513565b90969095509350505050565b600080600080604085870312156115ed57600080fd5b843567ffffffffffffffff8082111561160557600080fd5b61161188838901611513565b9096509450602087013591508082111561162a57600080fd5b5061163787828801611513565b95989497509550505050565b60006020828403121561165557600080fd5b5035919050565b6000806040838503121561166f57600080fd5b82359150602083013561168181611ab2565b809150509250929050565b60006020828403121561169e57600080fd5b81356001600160e01b03198116811461108657600080fd5b6000602082840312156116c857600080fd5b6110868261155f565b8183526000602080850194508260005b8581101561170a5763ffffffff6116f78361155f565b16875295820195908201906001016116e1565b509495945050505050565b81835281816020850137506000828201602090810191909152601f909101601f19169091010190565b7f416363657373436f6e74726f6c3a206163636f756e74200000000000000000008152600083516117768160178501602088016119bd565b7001034b99036b4b9b9b4b733903937b6329607d1b60179184019182015283516117a78160288401602088016119bd565b01602801949350505050565b6020815260006117c76020830184866116d1565b949350505050565b6040815260006117e36040830186886116d1565b602083820381850152818583528183019050818660051b8401018760005b8881101561187057858303601f190184528135368b9003601e1901811261182757600080fd5b8a01803567ffffffffffffffff81111561184057600080fd5b8036038c131561184f57600080fd5b61185c8582898501611715565b958701959450505090840190600101611801565b50909a9950505050505050505050565b6020808252825182820181905260009190848201906040850190845b818110156118be57835163ffffffff168352928401929184019160010161189c565b50909695505050505050565b60208152600082518060208401526118e98160408501602087016119bd565b601f01601f19169190910160400192915050565b6000808335601e1984360301811261191457600080fd5b83018035915067ffffffffffffffff82111561192f57600080fd5b60200191503681900382131561155857600080fd5b6000821982111561195757611957611a5a565b500190565b600062ffffff8083168185168183048111821515161561197e5761197e611a5a565b02949350505050565b60008160001904831182151516156119a1576119a1611a5a565b500290565b6000828210156119b8576119b8611a5a565b500390565b60005b838110156119d85781810151838201526020016119c0565b838111156119e7576000848401525b50505050565b6000816119fc576119fc611a5a565b506000190190565b600181811c90821680611a1857607f821691505b60208210811415611a3957634e487b7160e01b600052602260045260246000fd5b50919050565b6000600019821415611a5357611a53611a5a565b5060010190565b634e487b7160e01b600052601160045260246000fd5b634e487b7160e01b600052603160045260246000fd5b634e487b7160e01b600052603260045260246000fd5b634e487b7160e01b600052604160045260246000fd5b6001600160a01b038116811461065f57600080fdfefb63867dc303889c4e19b6276d834e066500dd4210f4434d34089a246beec82a313f8c5ec4103e5607b5d8b3519ab06a512037396eaf72a07527d8b838012ed4a2646970667358221220387a599c319ad234de2f8e5dae0dd194b8c38b8ff8bb312993766f399fc4fac564736f6c63430008060033313f8c5ec4103e5607b5d8b3519ab06a512037396eaf72a07527d8b838012ed4",
  "devdoc": {
    "kind": "dev",
    "methods": {
      "addSwapIntervalsToAllowedList(uint32[],string[])": {
        "details": "Will revert with: InvalidParams if the amount of swap intervals is different from the amount of descriptions passed ZeroInterval if any of the swap intervals is zero EmptyDescription if any of the descriptions is empty",
        "params": {
          "_descriptions": "Their descriptions",
          "_swapIntervals": "The new swap intervals"
        }
      },
      "allowedSwapIntervals()": {
        "returns": {
          "__allowedSwapIntervals": "An array with all allowed swap intervals"
        }
      },
      "getRoleAdmin(bytes32)": {
        "details": "Returns the admin role that controls `role`. See {grantRole} and {revokeRole}. To change a role's admin, use {_setRoleAdmin}."
      },
      "grantRole(bytes32,address)": {
        "details": "Grants `role` to `account`. If `account` had not been already granted `role`, emits a {RoleGranted} event. Requirements: - the caller must have ``role``'s admin role."
      },
      "hasRole(bytes32,address)": {
        "details": "Returns `true` if `account` has been granted `role`."
      },
      "isSwapIntervalAllowed(uint32)": {
        "returns": {
          "_0": "Whether the given swap interval is currently allowed"
        }
      },
      "loanParameters()": {
        "returns": {
          "_loanParameters": "All parameters that affect a loan"
        }
      },
      "removeSwapIntervalsFromAllowedList(uint32[])": {
        "params": {
          "_swapIntervals": "The swap intervals to remove"
        }
      },
      "renounceRole(bytes32,address)": {
        "details": "Revokes `role` from the calling account. Roles are often managed via {grantRole} and {revokeRole}: this function's purpose is to provide a mechanism for accounts to lose their privileges if they are compromised (such as when a trusted device is misplaced). If the calling account had been granted `role`, emits a {RoleRevoked} event. Requirements: - the caller must be `account`."
      },
      "revokeRole(bytes32,address)": {
        "details": "Revokes `role` from `account`. If `account` had been granted `role`, emits a {RoleRevoked} event. Requirements: - the caller must have ``role``'s admin role."
      },
      "setFeeRecipient(address)": {
        "details": "Will revert with ZeroAddress if the zero address is passed",
        "params": {
          "_feeRecipient": "The new fee recipient address"
        }
      },
      "setNFTDescriptor(address)": {
        "details": "Will revert with ZeroAddress if the zero address is passed",
        "params": {
          "_descriptor": "The new descriptor contract"
        }
      },
      "setOracle(address)": {
        "details": "Will revert with ZeroAddress if the zero address is passed",
        "params": {
          "_oracle": "The new oracle contract"
        }
      },
      "supportsInterface(bytes4)": {
        "details": "See {IERC165-supportsInterface}."
      },
      "swapParameters()": {
        "returns": {
          "_swapParameters": "All parameters that affect a swap"
        }
      }
    },
    "stateVariables": {
      "FEE_PRECISION": {
        "details": "Cannot be modified",
        "return": "_precision The precision used for fees",
        "returns": {
          "_0": "_precision The precision used for fees"
        }
      },
      "MAX_FEE": {
        "details": "Cannot be modified",
        "return": "_maxFee The maximum possible fee",
        "returns": {
          "_0": "_maxFee The maximum possible fee"
        }
      },
      "feeRecipient": {
        "return": "_feeRecipient The address of the fee recipient",
        "returns": {
          "_0": "_feeRecipient The address of the fee recipient"
        }
      },
      "intervalDescription": {
        "return": "_description The swap interval's description",
        "returns": {
          "_0": "_description The swap interval's description"
        }
      },
      "loanFee": {
        "return": "_loanFee The fee itself",
        "returns": {
          "_0": "_loanFee The fee itself"
        }
      },
      "nftDescriptor": {
        "return": "_nftDescriptor The contract itself",
        "returns": {
          "_0": "_nftDescriptor The contract itself"
        }
      },
      "oracle": {
        "return": "_oracle The contract itself",
        "returns": {
          "_0": "_oracle The contract itself"
        }
      },
      "swapFee": {
        "return": "_swapFee The fee itself",
        "returns": {
          "_0": "_swapFee The fee itself"
        }
      }
    },
    "version": 1
  },
  "userdoc": {
    "errors": {
      "EmptyDescription()": [
        {
          "notice": "Thrown when trying a description for a new swap interval is empty"
        }
      ],
      "HighFee()": [
        {
          "notice": "Thrown when trying to set a fee higher than the maximum allowed"
        }
      ],
      "InvalidParams()": [
        {
          "notice": "Thrown when trying to support new swap intervals, but the amount of descriptions doesn't match"
        }
      ],
      "ZeroInterval()": [
        {
          "notice": "Thrown when trying to support a new swap interval of value zero"
        }
      ]
    },
    "events": {
      "FeeRecipientSet(address)": {
        "notice": "Emitted when a new fee recipient is set"
      },
      "LoanFeeSet(uint32)": {
        "notice": "Emitted when a new loan fee is set"
      },
      "NFTDescriptorSet(address)": {
        "notice": "Emitted when a new NFT descriptor is set"
      },
      "OracleSet(address)": {
        "notice": "Emitted when a new oracle is set"
      },
      "SwapFeeSet(uint32)": {
        "notice": "Emitted when a new swap fee is set"
      },
      "SwapIntervalsAllowed(uint32[],string[])": {
        "notice": "Emitted when new swap intervals are allowed"
      },
      "SwapIntervalsForbidden(uint32[])": {
        "notice": "Emitted when some swap intervals are no longer allowed"
      }
    },
    "kind": "user",
    "methods": {
      "FEE_PRECISION()": {
        "notice": "Returns the precision used for fees"
      },
      "MAX_FEE()": {
        "notice": "Returns the max fee that can be set for either swap or loans"
      },
      "addSwapIntervalsToAllowedList(uint32[],string[])": {
        "notice": "Adds new swap intervals to the allowed list"
      },
      "allowedSwapIntervals()": {
        "notice": "Returns a list of all the allowed swap intervals"
      },
      "feeRecipient()": {
        "notice": "Returns the address of the fee recipient"
      },
      "intervalDescription(uint32)": {
        "notice": "Returns the description for a given swap interval"
      },
      "isSwapIntervalAllowed(uint32)": {
        "notice": "Returns whether a swap interval is currently allowed"
      },
      "loanFee()": {
        "notice": "Returns fee charged on loans"
      },
      "loanParameters()": {
        "notice": "Returns a compilation of all parameters that affect a loan"
      },
      "nftDescriptor()": {
        "notice": "Returns the NFT descriptor contract"
      },
      "oracle()": {
        "notice": "Returns the time-weighted oracle contract"
      },
      "pause()": {
        "notice": "Pauses all swaps and loans"
      },
      "removeSwapIntervalsFromAllowedList(uint32[])": {
        "notice": "Removes some swap intervals from the allowed list"
      },
      "setFeeRecipient(address)": {
        "notice": "Sets a new fee recipient address"
      },
      "setNFTDescriptor(address)": {
        "notice": "Sets a new NFT descriptor"
      },
      "setOracle(address)": {
        "notice": "Sets a new time-weighted oracle"
      },
      "swapFee()": {
        "notice": "Returns fee charged on swaps"
      },
      "swapParameters()": {
        "notice": "Returns a compilation of all parameters that affect a swap"
      },
      "unpause()": {
        "notice": "Unpauses all swaps and loans"
      }
    },
    "version": 1
  },
  "storageLayout": {
    "storage": [
      {
        "astId": 62,
        "contract": "contracts/DCAGlobalParameters/DCAGlobalParameters.sol:DCAGlobalParameters",
        "label": "_roles",
        "offset": 0,
        "slot": "0",
        "type": "t_mapping(t_bytes32,t_struct(RoleData)57_storage)"
      },
      {
        "astId": 385,
        "contract": "contracts/DCAGlobalParameters/DCAGlobalParameters.sol:DCAGlobalParameters",
        "label": "_paused",
        "offset": 0,
        "slot": "1",
        "type": "t_bool"
      },
      {
        "astId": 4800,
        "contract": "contracts/DCAGlobalParameters/DCAGlobalParameters.sol:DCAGlobalParameters",
        "label": "feeRecipient",
        "offset": 1,
        "slot": "1",
        "type": "t_address"
      },
      {
        "astId": 4804,
        "contract": "contracts/DCAGlobalParameters/DCAGlobalParameters.sol:DCAGlobalParameters",
        "label": "nftDescriptor",
        "offset": 0,
        "slot": "2",
        "type": "t_contract(IDCATokenDescriptor)10600"
      },
      {
        "astId": 4808,
        "contract": "contracts/DCAGlobalParameters/DCAGlobalParameters.sol:DCAGlobalParameters",
        "label": "oracle",
        "offset": 0,
        "slot": "3",
        "type": "t_contract(ITimeWeightedOracle)10937"
      },
      {
        "astId": 4812,
        "contract": "contracts/DCAGlobalParameters/DCAGlobalParameters.sol:DCAGlobalParameters",
        "label": "swapFee",
        "offset": 20,
        "slot": "3",
        "type": "t_uint32"
      },
      {
        "astId": 4816,
        "contract": "contracts/DCAGlobalParameters/DCAGlobalParameters.sol:DCAGlobalParameters",
        "label": "loanFee",
        "offset": 24,
        "slot": "3",
        "type": "t_uint32"
      },
      {
        "astId": 4831,
        "contract": "contracts/DCAGlobalParameters/DCAGlobalParameters.sol:DCAGlobalParameters",
        "label": "intervalDescription",
        "offset": 0,
        "slot": "4",
        "type": "t_mapping(t_uint32,t_string_storage)"
      },
      {
        "astId": 4834,
        "contract": "contracts/DCAGlobalParameters/DCAGlobalParameters.sol:DCAGlobalParameters",
        "label": "_allowedSwapIntervals",
        "offset": 0,
        "slot": "5",
        "type": "t_struct(UintSet)3316_storage"
      }
    ],
    "types": {
      "t_address": {
        "encoding": "inplace",
        "label": "address",
        "numberOfBytes": "20"
      },
      "t_array(t_bytes32)dyn_storage": {
        "base": "t_bytes32",
        "encoding": "dynamic_array",
        "label": "bytes32[]",
        "numberOfBytes": "32"
      },
      "t_bool": {
        "encoding": "inplace",
        "label": "bool",
        "numberOfBytes": "1"
      },
      "t_bytes32": {
        "encoding": "inplace",
        "label": "bytes32",
        "numberOfBytes": "32"
      },
      "t_contract(IDCATokenDescriptor)10600": {
        "encoding": "inplace",
        "label": "contract IDCATokenDescriptor",
        "numberOfBytes": "20"
      },
      "t_contract(ITimeWeightedOracle)10937": {
        "encoding": "inplace",
        "label": "contract ITimeWeightedOracle",
        "numberOfBytes": "20"
      },
      "t_mapping(t_address,t_bool)": {
        "encoding": "mapping",
        "key": "t_address",
        "label": "mapping(address => bool)",
        "numberOfBytes": "32",
        "value": "t_bool"
      },
      "t_mapping(t_bytes32,t_struct(RoleData)57_storage)": {
        "encoding": "mapping",
        "key": "t_bytes32",
        "label": "mapping(bytes32 => struct AccessControl.RoleData)",
        "numberOfBytes": "32",
        "value": "t_struct(RoleData)57_storage"
      },
      "t_mapping(t_bytes32,t_uint256)": {
        "encoding": "mapping",
        "key": "t_bytes32",
        "label": "mapping(bytes32 => uint256)",
        "numberOfBytes": "32",
        "value": "t_uint256"
      },
      "t_mapping(t_uint32,t_string_storage)": {
        "encoding": "mapping",
        "key": "t_uint32",
        "label": "mapping(uint32 => string)",
        "numberOfBytes": "32",
        "value": "t_string_storage"
      },
      "t_string_storage": {
        "encoding": "bytes",
        "label": "string",
        "numberOfBytes": "32"
      },
      "t_struct(RoleData)57_storage": {
        "encoding": "inplace",
        "label": "struct AccessControl.RoleData",
        "members": [
          {
            "astId": 54,
            "contract": "contracts/DCAGlobalParameters/DCAGlobalParameters.sol:DCAGlobalParameters",
            "label": "members",
            "offset": 0,
            "slot": "0",
            "type": "t_mapping(t_address,t_bool)"
          },
          {
            "astId": 56,
            "contract": "contracts/DCAGlobalParameters/DCAGlobalParameters.sol:DCAGlobalParameters",
            "label": "adminRole",
            "offset": 0,
            "slot": "1",
            "type": "t_bytes32"
          }
        ],
        "numberOfBytes": "64"
      },
      "t_struct(Set)2918_storage": {
        "encoding": "inplace",
        "label": "struct EnumerableSet.Set",
        "members": [
          {
            "astId": 2913,
            "contract": "contracts/DCAGlobalParameters/DCAGlobalParameters.sol:DCAGlobalParameters",
            "label": "_values",
            "offset": 0,
            "slot": "0",
            "type": "t_array(t_bytes32)dyn_storage"
          },
          {
            "astId": 2917,
            "contract": "contracts/DCAGlobalParameters/DCAGlobalParameters.sol:DCAGlobalParameters",
            "label": "_indexes",
            "offset": 0,
            "slot": "1",
            "type": "t_mapping(t_bytes32,t_uint256)"
          }
        ],
        "numberOfBytes": "64"
      },
      "t_struct(UintSet)3316_storage": {
        "encoding": "inplace",
        "label": "struct EnumerableSet.UintSet",
        "members": [
          {
            "astId": 3315,
            "contract": "contracts/DCAGlobalParameters/DCAGlobalParameters.sol:DCAGlobalParameters",
            "label": "_inner",
            "offset": 0,
            "slot": "0",
            "type": "t_struct(Set)2918_storage"
          }
        ],
        "numberOfBytes": "64"
      },
      "t_uint256": {
        "encoding": "inplace",
        "label": "uint256",
        "numberOfBytes": "32"
      },
      "t_uint32": {
        "encoding": "inplace",
        "label": "uint32",
        "numberOfBytes": "4"
      }
    }
  }
}