{
  "address": "0xF79ad166c7EC3a8d49c0FB3903b8c26f46FF0EE0",
  "abi": [
    {
      "inputs": [
        {
          "internalType": "address",
          "name": "_governor",
          "type": "address"
        },
        {
          "internalType": "contract IUniswapV3Factory",
          "name": "_factory",
          "type": "address"
        }
      ],
      "stateMutability": "nonpayable",
      "type": "constructor"
    },
    {
      "anonymous": false,
      "inputs": [
        {
          "indexed": false,
          "internalType": "uint24",
          "name": "_feeTier",
          "type": "uint24"
        }
      ],
      "name": "AddedFeeTier",
      "type": "event"
    },
    {
      "anonymous": false,
      "inputs": [
        {
          "indexed": false,
          "internalType": "address",
          "name": "_tokenA",
          "type": "address"
        },
        {
          "indexed": false,
          "internalType": "address",
          "name": "_tokenB",
          "type": "address"
        }
      ],
      "name": "AddedSupportForPair",
      "type": "event"
    },
    {
      "anonymous": false,
      "inputs": [],
      "name": "PendingGovernorAccepted",
      "type": "event"
    },
    {
      "anonymous": false,
      "inputs": [
        {
          "indexed": false,
          "internalType": "address",
          "name": "_pendingGovernor",
          "type": "address"
        }
      ],
      "name": "PendingGovernorSet",
      "type": "event"
    },
    {
      "anonymous": false,
      "inputs": [
        {
          "indexed": false,
          "internalType": "uint32",
          "name": "_period",
          "type": "uint32"
        }
      ],
      "name": "PeriodChanged",
      "type": "event"
    },
    {
      "inputs": [],
      "name": "MAXIMUM_PERIOD",
      "outputs": [
        {
          "internalType": "uint16",
          "name": "",
          "type": "uint16"
        }
      ],
      "stateMutability": "view",
      "type": "function"
    },
    {
      "inputs": [],
      "name": "MINIMUM_LIQUIDITY_THRESHOLD",
      "outputs": [
        {
          "internalType": "uint16",
          "name": "",
          "type": "uint16"
        }
      ],
      "stateMutability": "view",
      "type": "function"
    },
    {
      "inputs": [],
      "name": "MINIMUM_PERIOD",
      "outputs": [
        {
          "internalType": "uint16",
          "name": "",
          "type": "uint16"
        }
      ],
      "stateMutability": "view",
      "type": "function"
    },
    {
      "inputs": [],
      "name": "acceptPendingGovernor",
      "outputs": [],
      "stateMutability": "nonpayable",
      "type": "function"
    },
    {
      "inputs": [
        {
          "internalType": "uint24",
          "name": "_feeTier",
          "type": "uint24"
        }
      ],
      "name": "addFeeTier",
      "outputs": [],
      "stateMutability": "nonpayable",
      "type": "function"
    },
    {
      "inputs": [
        {
          "internalType": "address",
          "name": "_tokenA",
          "type": "address"
        },
        {
          "internalType": "address",
          "name": "_tokenB",
          "type": "address"
        }
      ],
      "name": "addSupportForPair",
      "outputs": [],
      "stateMutability": "nonpayable",
      "type": "function"
    },
    {
      "inputs": [
        {
          "internalType": "address",
          "name": "_tokenA",
          "type": "address"
        },
        {
          "internalType": "address",
          "name": "_tokenB",
          "type": "address"
        }
      ],
      "name": "canSupportPair",
      "outputs": [
        {
          "internalType": "bool",
          "name": "",
          "type": "bool"
        }
      ],
      "stateMutability": "view",
      "type": "function"
    },
    {
      "inputs": [],
      "name": "factory",
      "outputs": [
        {
          "internalType": "contract IUniswapV3Factory",
          "name": "",
          "type": "address"
        }
      ],
      "stateMutability": "view",
      "type": "function"
    },
    {
      "inputs": [],
      "name": "governor",
      "outputs": [
        {
          "internalType": "address",
          "name": "",
          "type": "address"
        }
      ],
      "stateMutability": "view",
      "type": "function"
    },
    {
      "inputs": [
        {
          "internalType": "address",
          "name": "_account",
          "type": "address"
        }
      ],
      "name": "isGovernor",
      "outputs": [
        {
          "internalType": "bool",
          "name": "_isGovernor",
          "type": "bool"
        }
      ],
      "stateMutability": "view",
      "type": "function"
    },
    {
      "inputs": [
        {
          "internalType": "address",
          "name": "_account",
          "type": "address"
        }
      ],
      "name": "isPendingGovernor",
      "outputs": [
        {
          "internalType": "bool",
          "name": "_isPendingGovernor",
          "type": "bool"
        }
      ],
      "stateMutability": "view",
      "type": "function"
    },
    {
      "inputs": [],
      "name": "pendingGovernor",
      "outputs": [
        {
          "internalType": "address",
          "name": "",
          "type": "address"
        }
      ],
      "stateMutability": "view",
      "type": "function"
    },
    {
      "inputs": [],
      "name": "period",
      "outputs": [
        {
          "internalType": "uint16",
          "name": "",
          "type": "uint16"
        }
      ],
      "stateMutability": "view",
      "type": "function"
    },
    {
      "inputs": [
        {
          "internalType": "address",
          "name": "_tokenA",
          "type": "address"
        },
        {
          "internalType": "address",
          "name": "_tokenB",
          "type": "address"
        }
      ],
      "name": "poolsUsedForPair",
      "outputs": [
        {
          "internalType": "address[]",
          "name": "_usedPools",
          "type": "address[]"
        }
      ],
      "stateMutability": "view",
      "type": "function"
    },
    {
      "inputs": [
        {
          "internalType": "address",
          "name": "_tokenIn",
          "type": "address"
        },
        {
          "internalType": "uint128",
          "name": "_amountIn",
          "type": "uint128"
        },
        {
          "internalType": "address",
          "name": "_tokenOut",
          "type": "address"
        }
      ],
      "name": "quote",
      "outputs": [
        {
          "internalType": "uint256",
          "name": "_amountOut",
          "type": "uint256"
        }
      ],
      "stateMutability": "view",
      "type": "function"
    },
    {
      "inputs": [
        {
          "internalType": "address",
          "name": "__pendingGovernor",
          "type": "address"
        }
      ],
      "name": "setPendingGovernor",
      "outputs": [],
      "stateMutability": "nonpayable",
      "type": "function"
    },
    {
      "inputs": [
        {
          "internalType": "uint16",
          "name": "_period",
          "type": "uint16"
        }
      ],
      "name": "setPeriod",
      "outputs": [],
      "stateMutability": "nonpayable",
      "type": "function"
    },
    {
      "inputs": [],
      "name": "supportedFeeTiers",
      "outputs": [
        {
          "internalType": "uint24[]",
          "name": "_feeTiers",
          "type": "uint24[]"
        }
      ],
      "stateMutability": "view",
      "type": "function"
    }
  ],
  "transactionHash": "0x612db6eb2ca25f688d8a18c9a5d6216f633147d5c39538533bd456c092e70cbe",
  "args": [
    "0xaEF6B153e3f59D4010DBcBCA04a25058417de695",
    "0x1F98431c8aD98523631AE4a59f267346ea31F984"
  ],
  "solcInputHash": "2f6f22f65d13c53e3a48ac5ac1cb8b9e",
  "bytecode": "0x60a06040526001805461ffff60a01b1916604b60a21b17905534801561002457600080fd5b50604051611c38380380611c388339818101604052604081101561004757600080fd5b508051602090910151816001600160a01b0381166100ac576040805162461bcd60e51b815260206004820152601860248201527f476f7665726e61626c653a207a65726f20616464726573730000000000000000604482015290519081900360640190fd5b600080546001600160a01b0319166001600160a01b039283161790558116610109576040805162461bcd60e51b815260206004820152600b60248201526a5a65726f4164647265737360a81b604482015290519081900360640190fd5b606081901b6001600160601b0319166080526001600160a01b03169050611aec61014c600039806103e652806106c252806109595280610c655250611aec6000f3fe608060405234801561001057600080fd5b50600436106101165760003560e01c8063a513355f116100a2578063e3056a3411610071578063e3056a341461030f578063e43581b814610317578063ef78d4fd1461033d578063f235757f14610345578063fba2a2d21461036b57610116565b8063a513355f14610288578063bc4389f7146102d9578063c45a0155146102e1578063df08aed5146102e957610116565b8063421465bf116100e9578063421465bf146101e957806351cd41e8146102085780637332a43714610210578063734273fd1461023e5780638dcc50c81461028057610116565b8063065420ae1461011b5780630c340a241461013f57806313f6986d1461016357806332c1b8eb1461016b575b600080fd5b61013d6004803603602081101561013157600080fd5b503562ffffff1661038c565b005b61014761050b565b604080516001600160a01b039092168252519081900360200190f35b61013d61051a565b6101996004803603604081101561018157600080fd5b506001600160a01b0381358116916020013516610568565b60408051602080825283518183015283519192839290830191858101910280838360005b838110156101d55781810151838201526020016101bd565b505050509050019250505060405180910390f35b6101f161063f565b6040805161ffff9092168252519081900360200190f35b6101f1610645565b61013d6004803603604081101561022657600080fd5b506001600160a01b038135811691602001351661064a565b61026c6004803603604081101561025457600080fd5b506001600160a01b0381358116916020013516610933565b604080519115158252519081900360200190f35b6101f1610ab8565b6102c76004803603606081101561029e57600080fd5b506001600160a01b0381358116916001600160801b036020820135169160409091013516610abd565b60408051918252519081900360200190f35b610199610bcc565b610147610c63565b61026c600480360360208110156102ff57600080fd5b50356001600160a01b0316610c87565b610147610c9b565b61026c6004803603602081101561032d57600080fd5b50356001600160a01b0316610caa565b6101f1610cbe565b61013d6004803603602081101561035b57600080fd5b50356001600160a01b0316610ccf565b61013d6004803603602081101561038157600080fd5b503561ffff16610d31565b61039533610caa565b6103e2576040805162461bcd60e51b815260206004820152601960248201527823b7bb32b93730b136329d1037b7363c9033b7bb32b93737b960391b604482015290519081900360640190fd5b60007f00000000000000000000000000000000000000000000000000000000000000006001600160a01b03166322afcccb836040518263ffffffff1660e01b8152600401808262ffffff16815260200191505060206040518083038186803b15801561044d57600080fd5b505afa158015610461573d6000803e3d6000fd5b505050506040513d602081101561047757600080fd5b505160020b136104bf576040805162461bcd60e51b815260206004820152600e60248201526d24b73b30b634b22332b2aa34b2b960911b604482015290519081900360640190fd5b6104cf600262ffffff8316610e8a565b506040805162ffffff8316815290517f7df2566cb73ced3e8f322263ff49373328d4946b7a5672113aef3f8e647b710c9181900360200190a150565b6000546001600160a01b031690565b61052333610c87565b61055e5760405162461bcd60e51b8152600401808060200182810382526021815260200180611a966021913960400191505060405180910390fd5b610566610e9d565b565b60606000806105778585610f4a565b6001600160a01b03808316600090815260046020908152604080832093851683529290529081209294509092506105ad82610f7b565b90508067ffffffffffffffff811180156105c657600080fd5b506040519080825280602002602001820160405280156105f0578160200160208202803683370190505b50945060005b81811015610634576106088382610f86565b86828151811061061457fe5b6001600160a01b03909216602092830291909101909101526001016105f6565b505050505092915050565b6104b081565b603c81565b60006106566002610f7b565b90506000806106658585610f4a565b6001600160a01b03828116600090815260046020908152604080832093851683529290529081206001549395509193509091600f90600160a01b900461ffff1604600a01905060005b858110156108945760006001600160a01b037f000000000000000000000000000000000000000000000000000000000000000016631698ee8287876106f4600287610f86565b6040518463ffffffff1660e01b815260040180846001600160a01b03168152602001836001600160a01b031681526020018262ffffff168152602001935050505060206040518083038186803b15801561074d57600080fd5b505afa158015610761573d6000803e3d6000fd5b505050506040513d602081101561077757600080fd5b505190506001600160a01b0381161580159061079a57506107988482610f92565b155b80156108185750600161ffff16816001600160a01b0316631a6865026040518163ffffffff1660e01b815260040160206040518083038186803b1580156107e057600080fd5b505afa1580156107f4573d6000803e3d6000fd5b505050506040513d602081101561080a57600080fd5b50516001600160801b031610155b1561088b576108278482610fa7565b50806001600160a01b03166332148f67846040518263ffffffff1660e01b8152600401808261ffff168152602001915050600060405180830381600087803b15801561087257600080fd5b505af1158015610886573d6000803e3d6000fd5b505050505b506001016106ae565b5060006108a083610f7b565b116108e5576040805162461bcd60e51b815260206004820152601060248201526f14185a5c939bdd14dd5c1c1bdc9d195960821b604482015290519081900360640190fd5b604080516001600160a01b0380871682528516602082015281517fcba1b1976104fe0292ee0cdd58c29ac7229ae0c170982e01b270c71ec0a2c7e0929181900390910190a150505050505050565b6000806109406002610f7b565b905060005b81811015610aab5760006001600160a01b037f000000000000000000000000000000000000000000000000000000000000000016631698ee82878761098b600287610f86565b6040518463ffffffff1660e01b815260040180846001600160a01b03168152602001836001600160a01b031681526020018262ffffff168152602001935050505060206040518083038186803b1580156109e457600080fd5b505afa1580156109f8573d6000803e3d6000fd5b505050506040513d6020811015610a0e57600080fd5b505190506001600160a01b03811615610aa257600161ffff16816001600160a01b0316631a6865026040518163ffffffff1660e01b815260040160206040518083038186803b158015610a6057600080fd5b505afa158015610a74573d6000803e3d6000fd5b505050506040513d6020811015610a8a57600080fd5b50516001600160801b031610159350610ab292505050565b50600101610945565b5060009150505b92915050565b600181565b6000806000610acc8685610f4a565b6001600160a01b0380831660009081526004602090815260408083209385168352929052908120929450909250610b0282610f7b565b905060008167ffffffffffffffff81118015610b1d57600080fd5b50604051908082528060200260200182016040528015610b5757816020015b610b44611a5c565b815260200190600190039081610b3c5790505b50905060005b82811015610ba457610b85610b728583610f86565b600154600160a01b900461ffff16610fbc565b828281518110610b9157fe5b6020908102919091010152600101610b5d565b506000610bb08261134f565b9050610bbe818a8c8b61140b565b9a9950505050505050505050565b60606000610bda6002610f7b565b90508067ffffffffffffffff81118015610bf357600080fd5b50604051908082528060200260200182016040528015610c1d578160200160208202803683370190505b50915060005b81811015610c5e57610c36600282610f86565b838281518110610c4257fe5b62ffffff90921660209283029190910190910152600101610c23565b505090565b7f000000000000000000000000000000000000000000000000000000000000000081565b6001546001600160a01b0390811691161490565b6001546001600160a01b031690565b6000546001600160a01b0390811691161490565b600154600160a01b900461ffff1681565b610cd833610caa565b610d25576040805162461bcd60e51b815260206004820152601960248201527823b7bb32b93730b136329d1037b7363c9033b7bb32b93737b960391b604482015290519081900360640190fd5b610d2e81611502565b50565b610d3a33610caa565b610d87576040805162461bcd60e51b815260206004820152601960248201527823b7bb32b93730b136329d1037b7363c9033b7bb32b93737b960391b604482015290519081900360640190fd5b6104b061ffff82161115610de2576040805162461bcd60e51b815260206004820152601860248201527f477265617465725468616e4d6178696d756d506572696f640000000000000000604482015290519081900360640190fd5b603c61ffff82161015610e34576040805162461bcd60e51b815260206004820152601560248201527413195cdcd51a185b935a5b9a5b5d5b54195c9a5bd9605a1b604482015290519081900360640190fd5b6001805461ffff8316600160a01b810261ffff60a01b199092169190911790915560408051918252517ff822214854e5620527e54c8a9293eb963df052efebe733964f7dea0be73f2c8a9181900360200190a150565b6000610e9683836115b1565b9392505050565b6001546001600160a01b0316610efa576040805162461bcd60e51b815260206004820152601f60248201527f476f7665726e61626c653a206e6f2070656e64696e6720676f7665726e6f7200604482015290519081900360640190fd5b60018054600080546001600160a01b03199081166001600160a01b0384161782559091169091556040517fdc57ca23c46d823853915ed5a090ca0ee9db5eb6a46f5c58e1c9158de861fd769190a1565b600080826001600160a01b0316846001600160a01b031610610f6d578284610f70565b83835b909590945092505050565b6000610ab2826115fb565b6000610e9683836115ff565b6000610e96836001600160a01b038416611663565b6000610e96836001600160a01b0384166115b1565b610fc4611a5c565b63ffffffff8216611001576040805162461bcd60e51b8152602060048201526002602482015261042560f41b604482015290519081900360640190fd5b60408051600280825260608201835263ffffffff85166001600160a01b0302926000929190602083019080368337019050509050838160008151811061104357fe5b602002602001019063ffffffff16908163ffffffff168152505060008160018151811061106c57fe5b63ffffffff90921660209283029190910182015260405163883bdbfd60e01b81526004810182815283516024830152835160009384936001600160a01b038b169363883bdbfd9388939192839260449091019185820191028083838b5b838110156110e15781810151838201526020016110c9565b505050509050019250505060006040518083038186803b15801561110457600080fd5b505afa158015611118573d6000803e3d6000fd5b505050506040513d6000823e601f3d908101601f19168201604090815281101561114157600080fd5b810190808051604051939291908464010000000082111561116157600080fd5b90830190602082018581111561117657600080fd5b825186602082028301116401000000008211171561119357600080fd5b82525081516020918201928201910280838360005b838110156111c05781810151838201526020016111a8565b50505050905001604052602001805160405193929190846401000000008211156111e957600080fd5b9083019060208201858111156111fe57600080fd5b825186602082028301116401000000008211171561121b57600080fd5b82525081516020918201928201910280838360005b83811015611248578181015183820152602001611230565b505050509050016040525050509150915060008260008151811061126857fe5b60200260200101518360018151811061127d57fe5b602002602001015103905060008260008151811061129757fe5b6020026020010151836001815181106112ac57fe5b60200260200101510390508763ffffffff168260060b816112c957fe5b05600290810b900b87526000600683900b1280156112fb57508763ffffffff168260060b816112f457fe5b0760060b15155b1561131057865160001901600290810b900b87525b640100000000600160c01b03602082901b166001600160c01b0387168161133357fe5b046001600160801b031660208801525094979650505050505050565b6000806000805b84518110156113d25784818151811061136b57fe5b60200260200101516000015160020b85828151811061138657fe5b6020026020010151602001516001600160801b031602830192508481815181106113ac57fe5b6020026020010151602001516001600160801b0316820191508080600101915050611356565b508082816113dc57fe5b0592506000821280156113f757508082816113f357fe5b0715155b1561140457600019909201915b5050919050565b6000806114178661167b565b90506001600160801b036001600160a01b03821611611486576001600160a01b038082168002908481169086161061146657611461600160c01b876001600160801b0316836119ad565b61147e565b61147e81876001600160801b0316600160c01b6119ad565b9250506114f9565b60006114a56001600160a01b03831680680100000000000000006119ad565b9050836001600160a01b0316856001600160a01b0316106114dd576114d8600160801b876001600160801b0316836119ad565b6114f5565b6114f581876001600160801b0316600160801b6119ad565b9250505b50949350505050565b6001600160a01b03811661155d576040805162461bcd60e51b815260206004820152601860248201527f476f7665726e61626c653a207a65726f20616464726573730000000000000000604482015290519081900360640190fd5b600180546001600160a01b0383166001600160a01b0319909116811790915560408051918252517f56bddfa0cee9697cebddf9acd7f23dc6583663b05e007b877056d05017994def9181900360200190a150565b60006115bd8383611663565b6115f357508154600181810184556000848152602080822090930184905584548482528286019093526040902091909155610ab2565b506000610ab2565b5490565b815460009082106116415760405162461bcd60e51b8152600401808060200182810382526022815260200180611a746022913960400191505060405180910390fd5b82600001828154811061165057fe5b9060005260206000200154905092915050565b60009081526001919091016020526040902054151590565b60008060008360020b12611692578260020b61169a565b8260020b6000035b9050620d89e88111156116d8576040805162461bcd60e51b81526020600482015260016024820152601560fa1b604482015290519081900360640190fd5b6000600182166116ec57600160801b6116fe565b6ffffcb933bd6fad37aa2d162d1a5940015b70ffffffffffffffffffffffffffffffffff1690506002821615611732576ffff97272373d413259a46990580e213a0260801c5b6004821615611751576ffff2e50f5f656932ef12357cf3c7fdcc0260801c5b6008821615611770576fffe5caca7e10e4e61c3624eaa0941cd00260801c5b601082161561178f576fffcb9843d60f6159c9db58835c9266440260801c5b60208216156117ae576fff973b41fa98c081472e6896dfb254c00260801c5b60408216156117cd576fff2ea16466c96a3843ec78b326b528610260801c5b60808216156117ec576ffe5dee046a99a2a811c461f1969c30530260801c5b61010082161561180c576ffcbe86c7900a88aedcffc83b479aa3a40260801c5b61020082161561182c576ff987a7253ac413176f2b074cf7815e540260801c5b61040082161561184c576ff3392b0822b70005940c7a398e4b70f30260801c5b61080082161561186c576fe7159475a2c29b7443b29c7fa6e889d90260801c5b61100082161561188c576fd097f3bdfd2022b8845ad8f792aa58250260801c5b6120008216156118ac576fa9f746462d870fdf8a65dc1f90e061e50260801c5b6140008216156118cc576f70d869a156d2a1b890bb3df62baf32f70260801c5b6180008216156118ec576f31be135f97d08fd981231505542fcfa60260801c5b6201000082161561190d576f09aa508b5b7a84e1c677de54f3e99bc90260801c5b6202000082161561192d576e5d6af8dedb81196699c329225ee6040260801c5b6204000082161561194c576d2216e584f5fa1ea926041bedfe980260801c5b62080000821615611969576b048a170391f7dc42444e8fa20260801c5b60008460020b131561198457806000198161198057fe5b0490505b64010000000081061561199857600161199b565b60005b60ff16602082901c0192505050919050565b60008080600019858709868602925082811090839003039050806119e357600084116119d857600080fd5b508290049050610e96565b8084116119ef57600080fd5b6000848688096000868103871696879004966002600389028118808a02820302808a02820302808a02820302808a02820302808a02820302808a02909103029181900381900460010186841190950394909402919094039290920491909117919091029150509392505050565b60408051808201909152600080825260208201529056fe456e756d657261626c655365743a20696e646578206f7574206f6620626f756e6473476f7665726e61626c653a206f6e6c792070656e64696e6720676f7665726e6f72a2646970667358221220a16a3362946fa0c85ed84b5f561f3109f185f6a90362957ed2981b144407399064736f6c63430007060033",
  "devdoc": {
    "kind": "dev",
    "methods": {
      "addFeeTier(uint24)": {
        "details": "Will revert if the provided fee tier is not supported by Uniswap V3",
        "params": {
          "_feeTier": "The new fee tier"
        }
      },
      "canSupportPair(address,address)": {
        "details": "_tokenA and _tokenB may be passed in either tokenA/tokenB or tokenB/tokenA order",
        "params": {
          "_tokenA": "One of the pair's tokens",
          "_tokenB": "The other of the pair's tokens"
        },
        "returns": {
          "_0": "Whether the given pair of tokens can be supported by the oracle"
        }
      },
      "poolsUsedForPair(address,address)": {
        "details": "_tokenA and _tokenB may be passed in either tokenA/tokenB or tokenB/tokenA order",
        "returns": {
          "_usedPools": "An array with all pools used for quoting the given pair"
        }
      },
      "quote(address,uint128,address)": {
        "params": {
          "_amountIn": "The amount that will be provided",
          "_tokenIn": "The token that will be provided",
          "_tokenOut": "The token we would like to quote"
        },
        "returns": {
          "_amountOut": "How much _tokenOut will be returned in exchange for _amountIn amount of _tokenIn"
        }
      },
      "setPeriod(uint16)": {
        "details": "Will revert it is lower than MINIMUM_PERIOD or greater than MAXIMUM_PERIOD WARNING: increasing the period could cause big problems, because Uniswap V3 pools might not support a TWAP so old.",
        "params": {
          "_period": "The new period"
        }
      },
      "supportedFeeTiers()": {
        "returns": {
          "_feeTiers": "An array of all supported fee tiers"
        }
      }
    },
    "stateVariables": {
      "MAXIMUM_PERIOD": {
        "details": "Cannot be modified",
        "return": "The maximum possible period"
      },
      "MINIMUM_LIQUIDITY_THRESHOLD": {
        "details": "This check is only performed when adding support for a pair. If the pool's liquidity then goes below the threshold, then it will still be used for the quote calculation",
        "return": "The minimum liquidity threshold"
      },
      "MINIMUM_PERIOD": {
        "details": "Cannot be modified",
        "return": "The minimum possible period"
      },
      "factory": {
        "return": "_factory The Uniswap V3 Factory"
      },
      "period": {
        "return": "_period The period used for the TWAP"
      }
    },
    "version": 1
  },
  "userdoc": {
    "events": {
      "AddedFeeTier(uint24)": {
        "notice": "Emitted when a new fee tier is added"
      },
      "AddedSupportForPair(address,address)": {
        "notice": "Emitted when the oracle add supports for a new pair"
      },
      "PeriodChanged(uint32)": {
        "notice": "Emitted when a new period is set"
      }
    },
    "kind": "user",
    "methods": {
      "MAXIMUM_PERIOD()": {
        "notice": "Returns maximum possible period"
      },
      "MINIMUM_LIQUIDITY_THRESHOLD()": {
        "notice": "Returns the minimum liquidity that a pool needs to have in order to be used for a pair's quote"
      },
      "MINIMUM_PERIOD()": {
        "notice": "Returns minimum possible period"
      },
      "addFeeTier(uint24)": {
        "notice": "Adds support for a new Uniswap V3 fee tier"
      },
      "addSupportForPair(address,address)": {
        "notice": "This function will take a pair and make sure that all Uniswap V3 pools for the pair are properly initialized for future use. It will also add all available pools to an internal list, to avoid future queries to the factory. It can be called multiple times for the same pair of tokens, to include and re-configure new pools that might appear in the future. Will revert if there are no pools available for the given pair of tokens."
      },
      "canSupportPair(address,address)": {
        "notice": "Returns whether this oracle can support this pair of tokens"
      },
      "factory()": {
        "notice": "Returns the Uniswap V3 Factory"
      },
      "period()": {
        "notice": "Returns the period used for the TWAP calculation"
      },
      "poolsUsedForPair(address,address)": {
        "notice": "Returns a list of all Uniswap V3 pools used for a given pair"
      },
      "quote(address,uint128,address)": {
        "notice": "Returns a quote, based on the given tokens and amount"
      },
      "setPeriod(uint16)": {
        "notice": "Sets the period to be used for the TWAP calculation"
      },
      "supportedFeeTiers()": {
        "notice": "Returns a list of all supported Uniswap V3 fee tiers"
      }
    },
    "version": 1
  },
  "storageLayout": {
    "storage": [
      {
        "astId": 3086,
        "contract": "contracts/UniswapV3Oracle/UniswapV3Oracle.sol:UniswapV3Oracle",
        "label": "_governor",
        "offset": 0,
        "slot": "0",
        "type": "t_address"
      },
      {
        "astId": 3088,
        "contract": "contracts/UniswapV3Oracle/UniswapV3Oracle.sol:UniswapV3Oracle",
        "label": "_pendingGovernor",
        "offset": 0,
        "slot": "1",
        "type": "t_address"
      },
      {
        "astId": 1687,
        "contract": "contracts/UniswapV3Oracle/UniswapV3Oracle.sol:UniswapV3Oracle",
        "label": "period",
        "offset": 20,
        "slot": "1",
        "type": "t_uint16"
      },
      {
        "astId": 1689,
        "contract": "contracts/UniswapV3Oracle/UniswapV3Oracle.sol:UniswapV3Oracle",
        "label": "_supportedFeeTiers",
        "offset": 0,
        "slot": "2",
        "type": "t_struct(UintSet)2706_storage"
      },
      {
        "astId": 1695,
        "contract": "contracts/UniswapV3Oracle/UniswapV3Oracle.sol:UniswapV3Oracle",
        "label": "_poolsForPair",
        "offset": 0,
        "slot": "4",
        "type": "t_mapping(t_address,t_mapping(t_address,t_struct(AddressSet)2585_storage))"
      }
    ],
    "types": {
      "t_address": {
        "encoding": "inplace",
        "label": "address",
        "numberOfBytes": "20"
      },
      "t_array(t_bytes32)dyn_storage": {
        "base": "t_bytes32",
        "encoding": "dynamic_array",
        "label": "bytes32[]",
        "numberOfBytes": "32"
      },
      "t_bytes32": {
        "encoding": "inplace",
        "label": "bytes32",
        "numberOfBytes": "32"
      },
      "t_mapping(t_address,t_mapping(t_address,t_struct(AddressSet)2585_storage))": {
        "encoding": "mapping",
        "key": "t_address",
        "label": "mapping(address => mapping(address => struct EnumerableSet.AddressSet))",
        "numberOfBytes": "32",
        "value": "t_mapping(t_address,t_struct(AddressSet)2585_storage)"
      },
      "t_mapping(t_address,t_struct(AddressSet)2585_storage)": {
        "encoding": "mapping",
        "key": "t_address",
        "label": "mapping(address => struct EnumerableSet.AddressSet)",
        "numberOfBytes": "32",
        "value": "t_struct(AddressSet)2585_storage"
      },
      "t_mapping(t_bytes32,t_uint256)": {
        "encoding": "mapping",
        "key": "t_bytes32",
        "label": "mapping(bytes32 => uint256)",
        "numberOfBytes": "32",
        "value": "t_uint256"
      },
      "t_struct(AddressSet)2585_storage": {
        "encoding": "inplace",
        "label": "struct EnumerableSet.AddressSet",
        "members": [
          {
            "astId": 2584,
            "contract": "contracts/UniswapV3Oracle/UniswapV3Oracle.sol:UniswapV3Oracle",
            "label": "_inner",
            "offset": 0,
            "slot": "0",
            "type": "t_struct(Set)2320_storage"
          }
        ],
        "numberOfBytes": "64"
      },
      "t_struct(Set)2320_storage": {
        "encoding": "inplace",
        "label": "struct EnumerableSet.Set",
        "members": [
          {
            "astId": 2315,
            "contract": "contracts/UniswapV3Oracle/UniswapV3Oracle.sol:UniswapV3Oracle",
            "label": "_values",
            "offset": 0,
            "slot": "0",
            "type": "t_array(t_bytes32)dyn_storage"
          },
          {
            "astId": 2319,
            "contract": "contracts/UniswapV3Oracle/UniswapV3Oracle.sol:UniswapV3Oracle",
            "label": "_indexes",
            "offset": 0,
            "slot": "1",
            "type": "t_mapping(t_bytes32,t_uint256)"
          }
        ],
        "numberOfBytes": "64"
      },
      "t_struct(UintSet)2706_storage": {
        "encoding": "inplace",
        "label": "struct EnumerableSet.UintSet",
        "members": [
          {
            "astId": 2705,
            "contract": "contracts/UniswapV3Oracle/UniswapV3Oracle.sol:UniswapV3Oracle",
            "label": "_inner",
            "offset": 0,
            "slot": "0",
            "type": "t_struct(Set)2320_storage"
          }
        ],
        "numberOfBytes": "64"
      },
      "t_uint16": {
        "encoding": "inplace",
        "label": "uint16",
        "numberOfBytes": "2"
      },
      "t_uint256": {
        "encoding": "inplace",
        "label": "uint256",
        "numberOfBytes": "32"
      }
    }
  }
}