{
  "address": "0x83D0e7265cAB5C14d9306322262CdC477FF10Db1",
  "abi": [
    {
      "inputs": [
        {
          "internalType": "address",
          "name": "_WETH",
          "type": "address"
        },
        {
          "internalType": "contract FeedRegistryInterface",
          "name": "_registry",
          "type": "address"
        },
        {
          "internalType": "uint32",
          "name": "_maxDelay",
          "type": "uint32"
        },
        {
          "internalType": "address",
          "name": "_governor",
          "type": "address"
        }
      ],
      "stateMutability": "nonpayable",
      "type": "constructor"
    },
    {
      "inputs": [],
      "name": "InvalidMappingsInput",
      "type": "error"
    },
    {
      "inputs": [],
      "name": "InvalidPrice",
      "type": "error"
    },
    {
      "inputs": [],
      "name": "LastUpdateIsTooOld",
      "type": "error"
    },
    {
      "inputs": [],
      "name": "PairNotSupported",
      "type": "error"
    },
    {
      "inputs": [],
      "name": "ZeroAddress",
      "type": "error"
    },
    {
      "inputs": [],
      "name": "ZeroMaxDelay",
      "type": "error"
    },
    {
      "anonymous": false,
      "inputs": [
        {
          "indexed": false,
          "internalType": "address",
          "name": "tokenA",
          "type": "address"
        },
        {
          "indexed": false,
          "internalType": "address",
          "name": "tokenB",
          "type": "address"
        }
      ],
      "name": "AddedSupportForPairInChainlinkOracle",
      "type": "event"
    },
    {
      "anonymous": false,
      "inputs": [
        {
          "indexed": false,
          "internalType": "address[]",
          "name": "tokens",
          "type": "address[]"
        },
        {
          "indexed": false,
          "internalType": "address[]",
          "name": "mappings",
          "type": "address[]"
        }
      ],
      "name": "MappingsAdded",
      "type": "event"
    },
    {
      "anonymous": false,
      "inputs": [
        {
          "indexed": false,
          "internalType": "uint32",
          "name": "newMaxDelay",
          "type": "uint32"
        }
      ],
      "name": "MaxDelaySet",
      "type": "event"
    },
    {
      "anonymous": false,
      "inputs": [],
      "name": "PendingGovernorAccepted",
      "type": "event"
    },
    {
      "anonymous": false,
      "inputs": [
        {
          "indexed": false,
          "internalType": "address",
          "name": "pendingGovernor",
          "type": "address"
        }
      ],
      "name": "PendingGovernorSet",
      "type": "event"
    },
    {
      "anonymous": false,
      "inputs": [
        {
          "indexed": false,
          "internalType": "address[]",
          "name": "tokens",
          "type": "address[]"
        }
      ],
      "name": "TokensConsideredUSD",
      "type": "event"
    },
    {
      "inputs": [],
      "name": "WETH",
      "outputs": [
        {
          "internalType": "address",
          "name": "",
          "type": "address"
        }
      ],
      "stateMutability": "view",
      "type": "function"
    },
    {
      "inputs": [],
      "name": "acceptPendingGovernor",
      "outputs": [],
      "stateMutability": "nonpayable",
      "type": "function"
    },
    {
      "inputs": [
        {
          "internalType": "address[]",
          "name": "_addresses",
          "type": "address[]"
        },
        {
          "internalType": "address[]",
          "name": "_mappings",
          "type": "address[]"
        }
      ],
      "name": "addMappings",
      "outputs": [],
      "stateMutability": "nonpayable",
      "type": "function"
    },
    {
      "inputs": [
        {
          "internalType": "address",
          "name": "_tokenA",
          "type": "address"
        },
        {
          "internalType": "address",
          "name": "_tokenB",
          "type": "address"
        }
      ],
      "name": "addSupportForPairIfNeeded",
      "outputs": [],
      "stateMutability": "nonpayable",
      "type": "function"
    },
    {
      "inputs": [
        {
          "internalType": "address[]",
          "name": "_addresses",
          "type": "address[]"
        }
      ],
      "name": "addUSDStablecoins",
      "outputs": [],
      "stateMutability": "nonpayable",
      "type": "function"
    },
    {
      "inputs": [
        {
          "internalType": "address",
          "name": "_tokenA",
          "type": "address"
        },
        {
          "internalType": "address",
          "name": "_tokenB",
          "type": "address"
        }
      ],
      "name": "canSupportPair",
      "outputs": [
        {
          "internalType": "bool",
          "name": "",
          "type": "bool"
        }
      ],
      "stateMutability": "view",
      "type": "function"
    },
    {
      "inputs": [],
      "name": "governor",
      "outputs": [
        {
          "internalType": "address",
          "name": "",
          "type": "address"
        }
      ],
      "stateMutability": "view",
      "type": "function"
    },
    {
      "inputs": [
        {
          "internalType": "address",
          "name": "_account",
          "type": "address"
        }
      ],
      "name": "isGovernor",
      "outputs": [
        {
          "internalType": "bool",
          "name": "_isGovernor",
          "type": "bool"
        }
      ],
      "stateMutability": "view",
      "type": "function"
    },
    {
      "inputs": [
        {
          "internalType": "address",
          "name": "_account",
          "type": "address"
        }
      ],
      "name": "isPendingGovernor",
      "outputs": [
        {
          "internalType": "bool",
          "name": "_isPendingGovernor",
          "type": "bool"
        }
      ],
      "stateMutability": "view",
      "type": "function"
    },
    {
      "inputs": [
        {
          "internalType": "address",
          "name": "_token",
          "type": "address"
        }
      ],
      "name": "mappedToken",
      "outputs": [
        {
          "internalType": "address",
          "name": "",
          "type": "address"
        }
      ],
      "stateMutability": "view",
      "type": "function"
    },
    {
      "inputs": [],
      "name": "maxDelay",
      "outputs": [
        {
          "internalType": "uint32",
          "name": "",
          "type": "uint32"
        }
      ],
      "stateMutability": "view",
      "type": "function"
    },
    {
      "inputs": [],
      "name": "pendingGovernor",
      "outputs": [
        {
          "internalType": "address",
          "name": "",
          "type": "address"
        }
      ],
      "stateMutability": "view",
      "type": "function"
    },
    {
      "inputs": [
        {
          "internalType": "address",
          "name": "",
          "type": "address"
        },
        {
          "internalType": "address",
          "name": "",
          "type": "address"
        }
      ],
      "name": "planForPair",
      "outputs": [
        {
          "internalType": "enum IChainlinkOracle.PricingPlan",
          "name": "",
          "type": "uint8"
        }
      ],
      "stateMutability": "view",
      "type": "function"
    },
    {
      "inputs": [
        {
          "internalType": "address",
          "name": "_tokenIn",
          "type": "address"
        },
        {
          "internalType": "uint128",
          "name": "_amountIn",
          "type": "uint128"
        },
        {
          "internalType": "address",
          "name": "_tokenOut",
          "type": "address"
        }
      ],
      "name": "quote",
      "outputs": [
        {
          "internalType": "uint256",
          "name": "_amountOut",
          "type": "uint256"
        }
      ],
      "stateMutability": "view",
      "type": "function"
    },
    {
      "inputs": [
        {
          "internalType": "address",
          "name": "_tokenA",
          "type": "address"
        },
        {
          "internalType": "address",
          "name": "_tokenB",
          "type": "address"
        }
      ],
      "name": "reconfigureSupportForPair",
      "outputs": [],
      "stateMutability": "nonpayable",
      "type": "function"
    },
    {
      "inputs": [],
      "name": "registry",
      "outputs": [
        {
          "internalType": "contract FeedRegistryInterface",
          "name": "",
          "type": "address"
        }
      ],
      "stateMutability": "view",
      "type": "function"
    },
    {
      "inputs": [
        {
          "internalType": "uint32",
          "name": "_maxDelay",
          "type": "uint32"
        }
      ],
      "name": "setMaxDelay",
      "outputs": [],
      "stateMutability": "nonpayable",
      "type": "function"
    },
    {
      "inputs": [
        {
          "internalType": "address",
          "name": "__pendingGovernor",
          "type": "address"
        }
      ],
      "name": "setPendingGovernor",
      "outputs": [],
      "stateMutability": "nonpayable",
      "type": "function"
    }
  ],
  "transactionHash": "0x18e8354de39ad364e45600ba1e19d821d5cf32735e66196d904480cd2216c366",
  "args": [
    "0xd0a1e359811322d97991e03f863a0c30c2cf029c",
    "0xAa7F6f7f507457a1EE157fE97F6c7DB2BEec5cD0",
    "4294967295",
    "0x1a00e1E311009E56e3b0B9Ed6F86f5Ce128a1C01"
  ],
  "solcInputHash": "61e98d040eb2c52ba21769fe2381ebf1",
  "bytecode": "0x60c06040523480156200001157600080fd5b506040516200234838038062002348833981016040819052620000349162000155565b806001600160a01b038116620000905760405162461bcd60e51b815260206004820152601860248201527f476f7665726e61626c653a207a65726f20616464726573730000000000000000604482015260640160405180910390fd5b600080546001600160a01b0319166001600160a01b0392831617905584161580620000c257506001600160a01b038316155b15620000e15760405163d92e233d60e01b815260040160405180910390fd5b8163ffffffff166000036200010957604051632c4f52fb60e21b815260040160405180910390fd5b506001600160a01b039182166080526003805463ffffffff191663ffffffff929092169190911790551660a052620001c5565b6001600160a01b03811681146200015257600080fd5b50565b600080600080608085870312156200016c57600080fd5b845162000179816200013c565b60208601519094506200018c816200013c565b604086015190935063ffffffff81168114620001a757600080fd5b6060860151909250620001ba816200013c565b939692955090935050565b60805160a051612133620002156000396000818161026b01528181610e5101528181611034015281816110ff01526117b40152600081816102100152818161164c01526118d201526121336000f3fe608060405234801561001057600080fd5b50600436106101365760003560e01c80637f55db3a116100b2578063e3056a3411610081578063e82138cd11610066578063e82138cd14610309578063ed49d2f814610344578063f235757f1461036957600080fd5b8063e3056a34146102bc578063e43581b8146102da57600080fd5b80637f55db3a14610232578063a513355f14610245578063ad5c464814610266578063df08aed51461028d57600080fd5b80634df3cad61161010957806372c12c87116100ee57806372c12c87146101d5578063734273fd146101e85780637b1039991461020b57600080fd5b80634df3cad6146101af5780636edc6632146101c257600080fd5b80630c340a241461013b57806313f6986d1461017f5780631d4ef30a14610189578063310301621461019c575b600080fd5b60005473ffffffffffffffffffffffffffffffffffffffff165b60405173ffffffffffffffffffffffffffffffffffffffff90911681526020015b60405180910390f35b61018761037c565b005b610187610197366004611a34565b610432565b6101876101aa366004611aa0565b6105f5565b6101556101bd366004611aea565b6106e0565b6101876101d0366004611b05565b6107af565b6101876101e3366004611b47565b61090b565b6101fb6101f6366004611b47565b610919565b6040519015158152602001610176565b6101557f000000000000000000000000000000000000000000000000000000000000000081565b610187610240366004611b47565b61095c565b610258610253366004611b7a565b6109cc565b604051908152602001610176565b6101557f000000000000000000000000000000000000000000000000000000000000000081565b6101fb61029b366004611aea565b60015473ffffffffffffffffffffffffffffffffffffffff91821691161490565b60015473ffffffffffffffffffffffffffffffffffffffff16610155565b6101fb6102e8366004611aea565b60005473ffffffffffffffffffffffffffffffffffffffff91821691161490565b610337610317366004611b47565b600260209081526000928352604080842090915290825290205460ff1681565b6040516101769190611c03565b6003546103549063ffffffff1681565b60405163ffffffff9091168152602001610176565b610187610377366004611aea565b610b1d565b60015473ffffffffffffffffffffffffffffffffffffffff163314610428576040517f08c379a000000000000000000000000000000000000000000000000000000000815260206004820152602160248201527f476f7665726e61626c653a206f6e6c792070656e64696e6720676f7665726e6f60448201527f720000000000000000000000000000000000000000000000000000000000000060648201526084015b60405180910390fd5b610430610baa565b565b60005473ffffffffffffffffffffffffffffffffffffffff1633146104b3576040517f08c379a000000000000000000000000000000000000000000000000000000000815260206004820152601960248201527f476f7665726e61626c653a206f6e6c7920676f7665726e6f7200000000000000604482015260640161041f565b8281146104ec576040517f0dc7722a00000000000000000000000000000000000000000000000000000000815260040160405180910390fd5b60005b838110156105b15782828281811061050957610509611c44565b905060200201602081019061051e9190611aea565b6005600087878581811061053457610534611c44565b90506020020160208101906105499190611aea565b73ffffffffffffffffffffffffffffffffffffffff9081168252602082019290925260400160002080547fffffffffffffffffffffffff00000000000000000000000000000000000000001692909116919091179055806105a981611ca2565b9150506104ef565b507f25967af46669513d9b32b10bce9dc8b094f9638e01d68bd4253fb634873b3d17848484846040516105e79493929190611d2e565b60405180910390a150505050565b60005473ffffffffffffffffffffffffffffffffffffffff163314610676576040517f08c379a000000000000000000000000000000000000000000000000000000000815260206004820152601960248201527f476f7665726e61626c653a206f6e6c7920676f7665726e6f7200000000000000604482015260640161041f565b600380547fffffffffffffffffffffffffffffffffffffffffffffffffffffffff000000001663ffffffff83169081179091556040519081527f55ab0355f542386898a10e20731ebdfe9303c36ea9cbc480909adb8beaf4a7c0906020015b60405180910390a150565b600046600114801561074e575073ffffffffffffffffffffffffffffffffffffffff821673eb4c2781e4eba804ce9a9803c67d0893436bb27d148061074e575073ffffffffffffffffffffffffffffffffffffffff8216732260fac5e5542a773aa44fbcfedf7c193bc2c599145b1561076e575073bbbbbbbbbbbbbbbbbbbbbbbbbbbbbbbbbbbbbbbb919050565b73ffffffffffffffffffffffffffffffffffffffff80831660009081526005602052604090205416806107a157826107a3565b805b9392505050565b919050565b60005473ffffffffffffffffffffffffffffffffffffffff163314610830576040517f08c379a000000000000000000000000000000000000000000000000000000000815260206004820152601960248201527f476f7665726e61626c653a206f6e6c7920676f7665726e6f7200000000000000604482015260640161041f565b60005b818110156108cd5760016004600085858581811061085357610853611c44565b90506020020160208101906108689190611aea565b73ffffffffffffffffffffffffffffffffffffffff168152602081019190915260400160002080547fffffffffffffffffffffffffffffffffffffffffffffffffffffffffffffff0016911515919091179055806108c581611ca2565b915050610833565b507f0e1316bdb62d8b87b8c288a81e4bc638fbf187056521cd5f525a3c70dd812abf82826040516108ff929190611d60565b60405180910390a15050565b6109158282610c9e565b5050565b60008060006109288585610dd1565b9150915060006109388383610e1c565b9050600081600781111561094e5761094e611bd4565b141593505050505b92915050565b6000806109698484610dd1565b9092509050600073ffffffffffffffffffffffffffffffffffffffff80841660009081526002602090815260408083209386168352929052205460ff1660078111156109b7576109b7611bd4565b036109c6576109c68484610c9e565b50505050565b60008060006109db8685610dd1565b73ffffffffffffffffffffffffffffffffffffffff808316600090815260026020908152604080832093851683529290529081205492945090925060ff90911690816007811115610a2e57610a2e611bd4565b03610a65576040517f65db466f00000000000000000000000000000000000000000000000000000000815260040160405180910390fd5b6000610a7088610f6b565b90506000610a7d87610f6b565b90506003836007811115610a9357610a93611bd4565b11610ac457610ab8898884848c6fffffffffffffffffffffffffffffffff1688610fdc565b955050505050506107a3565b6005836007811115610ad857610ad8611bd4565b11610afd57610ab8898884848c6fffffffffffffffffffffffffffffffff16886111c7565b610ab8898884848c6fffffffffffffffffffffffffffffffff168861125f565b60005473ffffffffffffffffffffffffffffffffffffffff163314610b9e576040517f08c379a000000000000000000000000000000000000000000000000000000000815260206004820152601960248201527f476f7665726e61626c653a206f6e6c7920676f7665726e6f7200000000000000604482015260640161041f565b610ba7816113ca565b50565b60015473ffffffffffffffffffffffffffffffffffffffff16610c29576040517f08c379a000000000000000000000000000000000000000000000000000000000815260206004820152601f60248201527f476f7665726e61626c653a206e6f2070656e64696e6720676f7665726e6f7200604482015260640161041f565b60018054600080547fffffffffffffffffffffffff000000000000000000000000000000000000000090811673ffffffffffffffffffffffffffffffffffffffff84161782559091169091556040517fdc57ca23c46d823853915ed5a090ca0ee9db5eb6a46f5c58e1c9158de861fd769190a1565b600080610cab8484610dd1565b915091506000610cbb8383610e1c565b90506000816007811115610cd157610cd1611bd4565b03610d08576040517f65db466f00000000000000000000000000000000000000000000000000000000815260040160405180910390fd5b73ffffffffffffffffffffffffffffffffffffffff808416600090815260026020908152604080832093861683529290522080548291907fffffffffffffffffffffffffffffffffffffffffffffffffffffffffffffff00166001836007811115610d7557610d75611bd4565b02179055506040805173ffffffffffffffffffffffffffffffffffffffff8086168252841660208201527fa0f87b02ca47ea06fb7d8fd30abf826222301c4e0cc359211c4254d49b4736ad910160405180910390a15050505050565b6000808273ffffffffffffffffffffffffffffffffffffffff168473ffffffffffffffffffffffffffffffffffffffff1610610e0e578284610e11565b83835b909590945092505050565b600080610e28846114ba565b90506000610e35846114ba565b905073ffffffffffffffffffffffffffffffffffffffff8581167f0000000000000000000000000000000000000000000000000000000000000000821690811491861614818015610e835750825b80610e935750838015610e935750805b15610ea5576001945050505050610956565b828015610eb0575083155b15610ecd57610ec28760026007611593565b945050505050610956565b838015610ed8575082155b15610eea57610ec28660026006611593565b8015610efd57610ec28760066003611593565b8115610f1057610ec28660076003611593565b610f1c87610348611648565b15610f2e57610ec28660046006611593565b610f4c8773eeeeeeeeeeeeeeeeeeeeeeeeeeeeeeeeeeeeeeee611648565b15610f5e57610ec28660076005611593565b5060009695505050505050565b60008173ffffffffffffffffffffffffffffffffffffffff1663313ce5676040518163ffffffff1660e01b8152600401602060405180830381865afa158015610fb8573d6000803e3d6000fd5b505050506040513d601f19601f820116820180604052508101906109569190611d7c565b600080806003846007811115610ff457610ff4611bd4565b14611000576008611003565b60125b905060006110108a6114ba565b806110825750600385600781111561102a5761102a611bd4565b14801561108257507f000000000000000000000000000000000000000000000000000000000000000073ffffffffffffffffffffffffffffffffffffffff168a73ffffffffffffffffffffffffffffffffffffffff16145b9050600185600781111561109857611098611bd4565b036110ac576110a5611756565b925061115f565b60028560078111156110c0576110c0611bd4565b036110e1576110a56110d18a6114ba565b6110db578961177d565b8a61177d565b60038560078111156110f5576110f5611bd4565b0361115f5761115c7f000000000000000000000000000000000000000000000000000000000000000073ffffffffffffffffffffffffffffffffffffffff168a73ffffffffffffffffffffffffffffffffffffffff161461115657896117b0565b8a6117b0565b92505b806111985761118e6111718785611d9f565b8961117c858b611ddc565b6111869190611ddc565b60000b61183a565b93505050506111bd565b61118e836111aa886111868b87611e3e565b6111b49190611e9f565b6111868a611eda565b9695505050505050565b60008060048360078111156111de576111de611bd4565b146111fd5773eeeeeeeeeeeeeeeeeeeeeeeeeeeeeeeeeeeeeeee611201565b6103485b905060006112176112118a6106e0565b8361187e565b9050600061122d6112278a6106e0565b8461187e565b90506112518161123d8489611d9f565b6112479190611e9f565b6111868a8a611ddc565b9a9950505050505050505050565b600080600683600781111561127657611276611bd4565b1480156112ae57508673ffffffffffffffffffffffffffffffffffffffff168873ffffffffffffffffffffffffffffffffffffffff16105b80611300575060078360078111156112c8576112c8611bd4565b14801561130057508673ffffffffffffffffffffffffffffffffffffffff168873ffffffffffffffffffffffffffffffffffffffff16115b9050600061130c611756565b9050811561137657600061131f8a61177d565b9050600061132c8a6117b0565b9050600061135361133d848a611d9f565b60126113498d8d611ddc565b6111869190611e3e565b9050816113608583611e9f565b61136a9190611e9f565b955050505050506111bd565b60006113818a6117b0565b9050600061138e8a61177d565b90506113bf818461139f858b611d9f565b6113a99190611d9f565b6113b39190611e9f565b601261117c8c8c611ddc565b9450505050506111bd565b73ffffffffffffffffffffffffffffffffffffffff8116611447576040517f08c379a000000000000000000000000000000000000000000000000000000000815260206004820152601860248201527f476f7665726e61626c653a207a65726f20616464726573730000000000000000604482015260640161041f565b600180547fffffffffffffffffffffffff00000000000000000000000000000000000000001673ffffffffffffffffffffffffffffffffffffffff83169081179091556040519081527f56bddfa0cee9697cebddf9acd7f23dc6583663b05e007b877056d05017994def906020016106d5565b60008046600114801561155d575073ffffffffffffffffffffffffffffffffffffffff8316736b175474e89094c44da98b954eedeac495271d0f1480611529575073ffffffffffffffffffffffffffffffffffffffff831673a0b86991c6218b36c1d19d4a2e9eb0ce3606eb48145b8061155d575073ffffffffffffffffffffffffffffffffffffffff831673dac17f958d2ee523a2206206994597c13d831ec7145b905080806107a35750505073ffffffffffffffffffffffffffffffffffffffff1660009081526004602052604090205460ff1690565b60008060008060008560078111156115ad576115ad611bd4565b8760078111156115bf576115bf611bd4565b106115e35773eeeeeeeeeeeeeeeeeeeeeeeeeeeeeeeeeeeeeeee86610348896115fe565b6103488773eeeeeeeeeeeeeeeeeeeeeeeeeeeeeeeeeeeeeeee885b93509350935093506116108885611648565b1561162157829450505050506107a3565b61162b8883611648565b1561163b5793506107a392505050565b60009450505050506107a3565b60007f000000000000000000000000000000000000000000000000000000000000000073ffffffffffffffffffffffffffffffffffffffff1663bcfd032d61168f856106e0565b6040517fffffffff0000000000000000000000000000000000000000000000000000000060e084901b16815273ffffffffffffffffffffffffffffffffffffffff9182166004820152908516602482015260440160a060405180830381865afa92505050801561173a575060408051601f3d9081017fffffffffffffffffffffffffffffffffffffffffffffffffffffffffffffffe016820190925261173791810190611f32565b60015b61174657506000610956565b6000841395505050505050610956565b600061177873eeeeeeeeeeeeeeeeeeeeeeeeeeeeeeeeeeeeeeee61034861187e565b905090565b6000611788826114ba565b6117a5576117a0611798836106e0565b61034861187e565b610956565b6305f5e10092915050565b60007f000000000000000000000000000000000000000000000000000000000000000073ffffffffffffffffffffffffffffffffffffffff168273ffffffffffffffffffffffffffffffffffffffff161461182b576117a0611811836106e0565b73eeeeeeeeeeeeeeeeeeeeeeeeeeeeeeeeeeeeeeee61187e565b670de0b6b3a764000092915050565b6000808212156118695761184d82611f82565b61185890600a6120da565b6118629084611e9f565b9050610956565b61187482600a6120da565b6118629084611d9f565b6040517fbcfd032d00000000000000000000000000000000000000000000000000000000815273ffffffffffffffffffffffffffffffffffffffff83811660048301528281166024830152600091829182917f00000000000000000000000000000000000000000000000000000000000000009091169063bcfd032d9060440160a060405180830381865afa15801561191b573d6000803e3d6000fd5b505050506040513d601f19601f8201168201806040525081019061193f9190611f32565b509350509250506000821361197f576040517ebfc92100000000000000000000000000000000000000000000000000000000815260040160405180910390fd5b6003544263ffffffff9091161080156119a957506003546119a69063ffffffff16426120e6565b81105b156119e0576040517f46ea729300000000000000000000000000000000000000000000000000000000815260040160405180910390fd5b509392505050565b60008083601f8401126119fa57600080fd5b50813567ffffffffffffffff811115611a1257600080fd5b6020830191508360208260051b8501011115611a2d57600080fd5b9250929050565b60008060008060408587031215611a4a57600080fd5b843567ffffffffffffffff80821115611a6257600080fd5b611a6e888389016119e8565b90965094506020870135915080821115611a8757600080fd5b50611a94878288016119e8565b95989497509550505050565b600060208284031215611ab257600080fd5b813563ffffffff811681146107a357600080fd5b803573ffffffffffffffffffffffffffffffffffffffff811681146107aa57600080fd5b600060208284031215611afc57600080fd5b6107a382611ac6565b60008060208385031215611b1857600080fd5b823567ffffffffffffffff811115611b2f57600080fd5b611b3b858286016119e8565b90969095509350505050565b60008060408385031215611b5a57600080fd5b611b6383611ac6565b9150611b7160208401611ac6565b90509250929050565b600080600060608486031215611b8f57600080fd5b611b9884611ac6565b925060208401356fffffffffffffffffffffffffffffffff81168114611bbd57600080fd5b9150611bcb60408501611ac6565b90509250925092565b7f4e487b7100000000000000000000000000000000000000000000000000000000600052602160045260246000fd5b6020810160088310611c3e577f4e487b7100000000000000000000000000000000000000000000000000000000600052602160045260246000fd5b91905290565b7f4e487b7100000000000000000000000000000000000000000000000000000000600052603260045260246000fd5b7f4e487b7100000000000000000000000000000000000000000000000000000000600052601160045260246000fd5b60007fffffffffffffffffffffffffffffffffffffffffffffffffffffffffffffffff8203611cd357611cd3611c73565b5060010190565b8183526000602080850194508260005b85811015611d235773ffffffffffffffffffffffffffffffffffffffff611d1083611ac6565b1687529582019590820190600101611cea565b509495945050505050565b604081526000611d42604083018688611cda565b8281036020840152611d55818587611cda565b979650505050505050565b602081526000611d74602083018486611cda565b949350505050565b600060208284031215611d8e57600080fd5b815160ff811681146107a357600080fd5b6000817fffffffffffffffffffffffffffffffffffffffffffffffffffffffffffffffff0483118215151615611dd757611dd7611c73565b500290565b60008160000b8360000b60008112817fffffffffffffffffffffffffffffffffffffffffffffffffffffffffffffff8001831281151615611e1f57611e1f611c73565b81607f018313811615611e3457611e34611c73565b5090039392505050565b60008160000b8360000b6000821282607f03821381151615611e6257611e62611c73565b827fffffffffffffffffffffffffffffffffffffffffffffffffffffffffffffff80038212811615611e9657611e96611c73565b50019392505050565b600082611ed5577f4e487b7100000000000000000000000000000000000000000000000000000000600052601260045260246000fd5b500490565b60008160000b7fffffffffffffffffffffffffffffffffffffffffffffffffffffffffffffff808103611f0f57611f0f611c73565b60000392915050565b805169ffffffffffffffffffff811681146107aa57600080fd5b600080600080600060a08688031215611f4a57600080fd5b611f5386611f18565b9450602086015193506040860151925060608601519150611f7660808701611f18565b90509295509295909350565b60007f80000000000000000000000000000000000000000000000000000000000000008203611fb357611fb3611c73565b5060000390565b600181815b8085111561201357817fffffffffffffffffffffffffffffffffffffffffffffffffffffffffffffffff04821115611ff957611ff9611c73565b8085161561200657918102915b93841c9390800290611fbf565b509250929050565b60008261202a57506001610956565b8161203757506000610956565b816001811461204d576002811461205757612073565b6001915050610956565b60ff84111561206857612068611c73565b50506001821b610956565b5060208310610133831016604e8410600b8410161715612096575081810a610956565b6120a08383611fba565b807fffffffffffffffffffffffffffffffffffffffffffffffffffffffffffffffff048211156120d2576120d2611c73565b029392505050565b60006107a3838361201b565b6000828210156120f8576120f8611c73565b50039056fea2646970667358221220f410abe8f5617b408fe7ed2c8d15c8a3662699fd6d42a9e9ce9fdcfa3846bf9164736f6c634300080d0033",
  "devdoc": {
    "kind": "dev",
    "methods": {
      "addMappings(address[],address[])": {
        "params": {
          "_addresses": "The addresses of the tokens",
          "_mappings": "The addresses of their mappings"
        }
      },
      "addSupportForPairIfNeeded(address,address)": {
        "details": "Will revert if pair cannot be supported. _tokenA and _tokenB may be passed in either tokenA/tokenB or tokenB/tokenA order",
        "params": {
          "_tokenA": "One of the pair's tokens",
          "_tokenB": "The other of the pair's tokens"
        }
      },
      "addUSDStablecoins(address[])": {
        "params": {
          "_addresses": "The addresses of the tokens"
        }
      },
      "canSupportPair(address,address)": {
        "details": "_tokenA and _tokenB may be passed in either tokenA/tokenB or tokenB/tokenA order",
        "params": {
          "_tokenA": "One of the pair's tokens",
          "_tokenB": "The other of the pair's tokens"
        },
        "returns": {
          "_0": "Whether the given pair of tokens can be supported by the oracle"
        }
      },
      "mappedToken(address)": {
        "returns": {
          "_0": "If it exists, the mapping is returned. Otherwise, the original token is returned"
        }
      },
      "quote(address,uint128,address)": {
        "params": {
          "_amountIn": "The amount that will be provided",
          "_tokenIn": "The token that will be provided",
          "_tokenOut": "The token we would like to quote"
        },
        "returns": {
          "_amountOut": "How much _tokenOut will be returned in exchange for _amountIn amount of _tokenIn"
        }
      },
      "reconfigureSupportForPair(address,address)": {
        "details": "Will revert if pair cannot be supported. _tokenA and _tokenB may be passed in either tokenA/tokenB or tokenB/tokenA order",
        "params": {
          "_tokenA": "One of the pair's tokens",
          "_tokenB": "The other of the pair's tokens"
        }
      },
      "setMaxDelay(uint32)": {
        "params": {
          "_maxDelay": "The new max delay"
        }
      }
    },
    "stateVariables": {
      "WETH": {
        "return": "The address of the token",
        "returns": {
          "_0": "The address of the token"
        }
      },
      "maxDelay": {
        "return": "How old the last price update can be in seconds",
        "returns": {
          "_0": "How old the last price update can be in seconds"
        }
      },
      "planForPair": {
        "details": "It is expected that _tokenA < _tokenB",
        "return": "The pricing plan that will be used",
        "returns": {
          "_0": "The pricing plan that will be used"
        }
      },
      "registry": {
        "return": "The Chainlink registry",
        "returns": {
          "_0": "The Chainlink registry"
        }
      }
    },
    "version": 1
  },
  "userdoc": {
    "errors": {
      "InvalidMappingsInput()": [
        {
          "notice": "Thrown when the input for adding mappings in invalid"
        }
      ],
      "InvalidPrice()": [
        {
          "notice": "Thrown when the price is non-positive"
        }
      ],
      "LastUpdateIsTooOld()": [
        {
          "notice": "Thrown when the last price update was too long ago"
        }
      ],
      "PairNotSupported()": [
        {
          "notice": "Thrown when trying to configure a pair that is not supported"
        }
      ],
      "ZeroAddress()": [
        {
          "notice": "Thrown when one of the parameters is a zero address"
        }
      ],
      "ZeroMaxDelay()": [
        {
          "notice": "Thrown when the given max delay is zero"
        }
      ]
    },
    "events": {
      "AddedSupportForPairInChainlinkOracle(address,address)": {
        "notice": "Emitted when the oracle add supports for a new pair"
      },
      "MappingsAdded(address[],address[])": {
        "notice": "Emitted when new mappings are added"
      },
      "MaxDelaySet(uint32)": {
        "notice": "Emitted when a new max delay is set"
      },
      "TokensConsideredUSD(address[])": {
        "notice": "Emitted when new tokens are considered USD"
      }
    },
    "kind": "user",
    "methods": {
      "WETH()": {
        "notice": "Returns the address of the WETH ERC-20 token"
      },
      "addMappings(address[],address[])": {
        "notice": "Adds new token mappings"
      },
      "addSupportForPairIfNeeded(address,address)": {
        "notice": "Adds support for a given pair if the oracle didn't support it already. If called for a pair that is already supported, then nothing will happen. This function will let the oracle take some actions to configure the pair, in preparation for future quotes."
      },
      "addUSDStablecoins(address[])": {
        "notice": "Adds new tokens that should be considered USD stablecoins"
      },
      "canSupportPair(address,address)": {
        "notice": "Returns whether this oracle can support this pair of tokens"
      },
      "mappedToken(address)": {
        "notice": "Returns the mapping of the given token, if it exists. If it doesn't, then the original token is returned"
      },
      "maxDelay()": {
        "notice": "Returns how old the last price update can be before the oracle reverts by considering it too old"
      },
      "planForPair(address,address)": {
        "notice": "Returns the pricing plan that will be used when quoting the given pair"
      },
      "quote(address,uint128,address)": {
        "notice": "Returns a quote, based on the given tokens and amount"
      },
      "reconfigureSupportForPair(address,address)": {
        "notice": "Reconfigures support for a given pair. This function will let the oracle take some actions to configure the pair, in preparation for future quotes. Can be called many times in order to let the oracle re-configure for a new context."
      },
      "registry()": {
        "notice": "Returns the Chainlink feed registry"
      },
      "setMaxDelay(uint32)": {
        "notice": "Sets a new max delay"
      }
    },
    "version": 1
  },
  "storageLayout": {
    "storage": [
      {
        "astId": 15608,
        "contract": "contracts/oracles/ChainlinkOracle.sol:ChainlinkOracle",
        "label": "_governor",
        "offset": 0,
        "slot": "0",
        "type": "t_address"
      },
      {
        "astId": 15610,
        "contract": "contracts/oracles/ChainlinkOracle.sol:ChainlinkOracle",
        "label": "_pendingGovernor",
        "offset": 0,
        "slot": "1",
        "type": "t_address"
      },
      {
        "astId": 14011,
        "contract": "contracts/oracles/ChainlinkOracle.sol:ChainlinkOracle",
        "label": "planForPair",
        "offset": 0,
        "slot": "2",
        "type": "t_mapping(t_address,t_mapping(t_address,t_enum(PricingPlan)10287))"
      },
      {
        "astId": 14021,
        "contract": "contracts/oracles/ChainlinkOracle.sol:ChainlinkOracle",
        "label": "maxDelay",
        "offset": 0,
        "slot": "3",
        "type": "t_uint32"
      },
      {
        "astId": 14046,
        "contract": "contracts/oracles/ChainlinkOracle.sol:ChainlinkOracle",
        "label": "_shouldBeConsideredUSD",
        "offset": 0,
        "slot": "4",
        "type": "t_mapping(t_address,t_bool)"
      },
      {
        "astId": 14050,
        "contract": "contracts/oracles/ChainlinkOracle.sol:ChainlinkOracle",
        "label": "_tokenMappings",
        "offset": 0,
        "slot": "5",
        "type": "t_mapping(t_address,t_address)"
      }
    ],
    "types": {
      "t_address": {
        "encoding": "inplace",
        "label": "address",
        "numberOfBytes": "20"
      },
      "t_bool": {
        "encoding": "inplace",
        "label": "bool",
        "numberOfBytes": "1"
      },
      "t_enum(PricingPlan)10287": {
        "encoding": "inplace",
        "label": "enum IChainlinkOracle.PricingPlan",
        "numberOfBytes": "1"
      },
      "t_mapping(t_address,t_address)": {
        "encoding": "mapping",
        "key": "t_address",
        "label": "mapping(address => address)",
        "numberOfBytes": "32",
        "value": "t_address"
      },
      "t_mapping(t_address,t_bool)": {
        "encoding": "mapping",
        "key": "t_address",
        "label": "mapping(address => bool)",
        "numberOfBytes": "32",
        "value": "t_bool"
      },
      "t_mapping(t_address,t_enum(PricingPlan)10287)": {
        "encoding": "mapping",
        "key": "t_address",
        "label": "mapping(address => enum IChainlinkOracle.PricingPlan)",
        "numberOfBytes": "32",
        "value": "t_enum(PricingPlan)10287"
      },
      "t_mapping(t_address,t_mapping(t_address,t_enum(PricingPlan)10287))": {
        "encoding": "mapping",
        "key": "t_address",
        "label": "mapping(address => mapping(address => enum IChainlinkOracle.PricingPlan))",
        "numberOfBytes": "32",
        "value": "t_mapping(t_address,t_enum(PricingPlan)10287)"
      },
      "t_uint32": {
        "encoding": "inplace",
        "label": "uint32",
        "numberOfBytes": "4"
      }
    }
  }
}