{
  "address": "0x09AdE44D2E60fCa2270fF32Af5a189f40D29837b",
  "abi": [
    {
      "inputs": [
        {
          "internalType": "address",
          "name": "_immediateGovernor",
          "type": "address"
        },
        {
          "internalType": "address",
          "name": "_timeLockedGovernor",
          "type": "address"
        },
        {
          "internalType": "contract IPriceOracle",
          "name": "_oracle",
          "type": "address"
        },
        {
          "internalType": "contract IDCAPermissionManager",
          "name": "_permissionManager",
          "type": "address"
        }
      ],
      "stateMutability": "nonpayable",
      "type": "constructor"
    },
    {
      "inputs": [],
      "name": "AmountTooBig",
      "type": "error"
    },
    {
      "inputs": [],
      "name": "HighFee",
      "type": "error"
    },
    {
      "inputs": [],
      "name": "HighPlatformFeeRatio",
      "type": "error"
    },
    {
      "inputs": [],
      "name": "IntervalNotAllowed",
      "type": "error"
    },
    {
      "inputs": [],
      "name": "InvalidFee",
      "type": "error"
    },
    {
      "inputs": [],
      "name": "InvalidInterval",
      "type": "error"
    },
    {
      "inputs": [],
      "name": "InvalidMask",
      "type": "error"
    },
    {
      "inputs": [],
      "name": "InvalidPairs",
      "type": "error"
    },
    {
      "inputs": [],
      "name": "InvalidPosition",
      "type": "error"
    },
    {
      "inputs": [],
      "name": "InvalidToken",
      "type": "error"
    },
    {
      "inputs": [],
      "name": "InvalidTokens",
      "type": "error"
    },
    {
      "inputs": [],
      "name": "LiquidityNotReturned",
      "type": "error"
    },
    {
      "inputs": [],
      "name": "NoSwapsToExecute",
      "type": "error"
    },
    {
      "inputs": [],
      "name": "PositionDoesNotMatchToken",
      "type": "error"
    },
    {
      "inputs": [],
      "name": "UnauthorizedCaller",
      "type": "error"
    },
    {
      "inputs": [],
      "name": "ZeroAddress",
      "type": "error"
    },
    {
      "inputs": [],
      "name": "ZeroAmount",
      "type": "error"
    },
    {
      "inputs": [],
      "name": "ZeroSwaps",
      "type": "error"
    },
    {
      "anonymous": false,
      "inputs": [
        {
          "indexed": true,
          "internalType": "address",
          "name": "depositor",
          "type": "address"
        },
        {
          "indexed": true,
          "internalType": "address",
          "name": "owner",
          "type": "address"
        },
        {
          "indexed": false,
          "internalType": "uint256",
          "name": "positionId",
          "type": "uint256"
        },
        {
          "indexed": false,
          "internalType": "address",
          "name": "fromToken",
          "type": "address"
        },
        {
          "indexed": false,
          "internalType": "address",
          "name": "toToken",
          "type": "address"
        },
        {
          "indexed": false,
          "internalType": "uint32",
          "name": "swapInterval",
          "type": "uint32"
        },
        {
          "indexed": false,
          "internalType": "uint120",
          "name": "rate",
          "type": "uint120"
        },
        {
          "indexed": false,
          "internalType": "uint32",
          "name": "startingSwap",
          "type": "uint32"
        },
        {
          "indexed": false,
          "internalType": "uint32",
          "name": "lastSwap",
          "type": "uint32"
        }
      ],
      "name": "Deposited",
      "type": "event"
    },
    {
      "anonymous": false,
      "inputs": [
        {
          "indexed": false,
          "internalType": "uint32",
          "name": "_feeSet",
          "type": "uint32"
        }
      ],
      "name": "LoanFeeSet",
      "type": "event"
    },
    {
      "anonymous": false,
      "inputs": [
        {
          "indexed": true,
          "internalType": "address",
          "name": "sender",
          "type": "address"
        },
        {
          "indexed": true,
          "internalType": "address",
          "name": "to",
          "type": "address"
        },
        {
          "components": [
            {
              "internalType": "address",
              "name": "token",
              "type": "address"
            },
            {
              "internalType": "uint256",
              "name": "amount",
              "type": "uint256"
            }
          ],
          "indexed": false,
          "internalType": "struct IDCAHub.AmountOfToken[]",
          "name": "loan",
          "type": "tuple[]"
        },
        {
          "indexed": false,
          "internalType": "uint32",
          "name": "fee",
          "type": "uint32"
        }
      ],
      "name": "Loaned",
      "type": "event"
    },
    {
      "anonymous": false,
      "inputs": [
        {
          "indexed": true,
          "internalType": "address",
          "name": "user",
          "type": "address"
        },
        {
          "indexed": false,
          "internalType": "uint256",
          "name": "positionId",
          "type": "uint256"
        },
        {
          "indexed": false,
          "internalType": "uint120",
          "name": "rate",
          "type": "uint120"
        },
        {
          "indexed": false,
          "internalType": "uint32",
          "name": "startingSwap",
          "type": "uint32"
        },
        {
          "indexed": false,
          "internalType": "uint32",
          "name": "lastSwap",
          "type": "uint32"
        }
      ],
      "name": "Modified",
      "type": "event"
    },
    {
      "anonymous": false,
      "inputs": [
        {
          "indexed": false,
          "internalType": "contract IPriceOracle",
          "name": "_oracle",
          "type": "address"
        }
      ],
      "name": "OracleSet",
      "type": "event"
    },
    {
      "anonymous": false,
      "inputs": [
        {
          "indexed": false,
          "internalType": "address",
          "name": "account",
          "type": "address"
        }
      ],
      "name": "Paused",
      "type": "event"
    },
    {
      "anonymous": false,
      "inputs": [
        {
          "indexed": false,
          "internalType": "uint16",
          "name": "_platformFeeRatio",
          "type": "uint16"
        }
      ],
      "name": "PlatformFeeRatioSet",
      "type": "event"
    },
    {
      "anonymous": false,
      "inputs": [
        {
          "indexed": true,
          "internalType": "bytes32",
          "name": "role",
          "type": "bytes32"
        },
        {
          "indexed": true,
          "internalType": "bytes32",
          "name": "previousAdminRole",
          "type": "bytes32"
        },
        {
          "indexed": true,
          "internalType": "bytes32",
          "name": "newAdminRole",
          "type": "bytes32"
        }
      ],
      "name": "RoleAdminChanged",
      "type": "event"
    },
    {
      "anonymous": false,
      "inputs": [
        {
          "indexed": true,
          "internalType": "bytes32",
          "name": "role",
          "type": "bytes32"
        },
        {
          "indexed": true,
          "internalType": "address",
          "name": "account",
          "type": "address"
        },
        {
          "indexed": true,
          "internalType": "address",
          "name": "sender",
          "type": "address"
        }
      ],
      "name": "RoleGranted",
      "type": "event"
    },
    {
      "anonymous": false,
      "inputs": [
        {
          "indexed": true,
          "internalType": "bytes32",
          "name": "role",
          "type": "bytes32"
        },
        {
          "indexed": true,
          "internalType": "address",
          "name": "account",
          "type": "address"
        },
        {
          "indexed": true,
          "internalType": "address",
          "name": "sender",
          "type": "address"
        }
      ],
      "name": "RoleRevoked",
      "type": "event"
    },
    {
      "anonymous": false,
      "inputs": [
        {
          "indexed": false,
          "internalType": "uint32",
          "name": "_feeSet",
          "type": "uint32"
        }
      ],
      "name": "SwapFeeSet",
      "type": "event"
    },
    {
      "anonymous": false,
      "inputs": [
        {
          "indexed": false,
          "internalType": "uint32[]",
          "name": "_swapIntervals",
          "type": "uint32[]"
        }
      ],
      "name": "SwapIntervalsAllowed",
      "type": "event"
    },
    {
      "anonymous": false,
      "inputs": [
        {
          "indexed": false,
          "internalType": "uint32[]",
          "name": "_swapIntervals",
          "type": "uint32[]"
        }
      ],
      "name": "SwapIntervalsForbidden",
      "type": "event"
    },
    {
      "anonymous": false,
      "inputs": [
        {
          "indexed": true,
          "internalType": "address",
          "name": "sender",
          "type": "address"
        },
        {
          "indexed": true,
          "internalType": "address",
          "name": "to",
          "type": "address"
        },
        {
          "components": [
            {
              "components": [
                {
                  "internalType": "address",
                  "name": "token",
                  "type": "address"
                },
                {
                  "internalType": "uint256",
                  "name": "reward",
                  "type": "uint256"
                },
                {
                  "internalType": "uint256",
                  "name": "toProvide",
                  "type": "uint256"
                },
                {
                  "internalType": "uint256",
                  "name": "platformFee",
                  "type": "uint256"
                }
              ],
              "internalType": "struct IDCAHubSwapHandler.TokenInSwap[]",
              "name": "tokens",
              "type": "tuple[]"
            },
            {
              "components": [
                {
                  "internalType": "address",
                  "name": "tokenA",
                  "type": "address"
                },
                {
                  "internalType": "address",
                  "name": "tokenB",
                  "type": "address"
                },
                {
                  "internalType": "uint256",
                  "name": "ratioAToB",
                  "type": "uint256"
                },
                {
                  "internalType": "uint256",
                  "name": "ratioBToA",
                  "type": "uint256"
                },
                {
                  "internalType": "bytes1",
                  "name": "intervalsInSwap",
                  "type": "bytes1"
                }
              ],
              "internalType": "struct IDCAHubSwapHandler.PairInSwap[]",
              "name": "pairs",
              "type": "tuple[]"
            }
          ],
          "indexed": false,
          "internalType": "struct IDCAHubSwapHandler.SwapInfo",
          "name": "swapInformation",
          "type": "tuple"
        },
        {
          "indexed": false,
          "internalType": "uint256[]",
          "name": "borrowed",
          "type": "uint256[]"
        },
        {
          "indexed": false,
          "internalType": "uint32",
          "name": "fee",
          "type": "uint32"
        }
      ],
      "name": "Swapped",
      "type": "event"
    },
    {
      "anonymous": false,
      "inputs": [
        {
          "indexed": true,
          "internalType": "address",
          "name": "user",
          "type": "address"
        },
        {
          "indexed": true,
          "internalType": "address",
          "name": "recipientUnswapped",
          "type": "address"
        },
        {
          "indexed": true,
          "internalType": "address",
          "name": "recipientSwapped",
          "type": "address"
        },
        {
          "indexed": false,
          "internalType": "uint256",
          "name": "positionId",
          "type": "uint256"
        },
        {
          "indexed": false,
          "internalType": "uint256",
          "name": "returnedUnswapped",
          "type": "uint256"
        },
        {
          "indexed": false,
          "internalType": "uint256",
          "name": "returnedSwapped",
          "type": "uint256"
        }
      ],
      "name": "Terminated",
      "type": "event"
    },
    {
      "anonymous": false,
      "inputs": [
        {
          "indexed": false,
          "internalType": "address",
          "name": "account",
          "type": "address"
        }
      ],
      "name": "Unpaused",
      "type": "event"
    },
    {
      "anonymous": false,
      "inputs": [
        {
          "indexed": true,
          "internalType": "address",
          "name": "withdrawer",
          "type": "address"
        },
        {
          "indexed": true,
          "internalType": "address",
          "name": "recipient",
          "type": "address"
        },
        {
          "indexed": false,
          "internalType": "uint256",
          "name": "positionId",
          "type": "uint256"
        },
        {
          "indexed": false,
          "internalType": "address",
          "name": "token",
          "type": "address"
        },
        {
          "indexed": false,
          "internalType": "uint256",
          "name": "amount",
          "type": "uint256"
        }
      ],
      "name": "Withdrew",
      "type": "event"
    },
    {
      "anonymous": false,
      "inputs": [
        {
          "indexed": true,
          "internalType": "address",
          "name": "sender",
          "type": "address"
        },
        {
          "indexed": true,
          "internalType": "address",
          "name": "recipient",
          "type": "address"
        },
        {
          "components": [
            {
              "internalType": "address",
              "name": "token",
              "type": "address"
            },
            {
              "internalType": "uint256",
              "name": "amount",
              "type": "uint256"
            }
          ],
          "indexed": false,
          "internalType": "struct IDCAHub.AmountOfToken[]",
          "name": "amounts",
          "type": "tuple[]"
        }
      ],
      "name": "WithdrewFromPlatform",
      "type": "event"
    },
    {
      "anonymous": false,
      "inputs": [
        {
          "indexed": true,
          "internalType": "address",
          "name": "withdrawer",
          "type": "address"
        },
        {
          "indexed": true,
          "internalType": "address",
          "name": "recipient",
          "type": "address"
        },
        {
          "components": [
            {
              "internalType": "address",
              "name": "token",
              "type": "address"
            },
            {
              "internalType": "uint256[]",
              "name": "positionIds",
              "type": "uint256[]"
            }
          ],
          "indexed": false,
          "internalType": "struct IDCAHubPositionHandler.PositionSet[]",
          "name": "positions",
          "type": "tuple[]"
        },
        {
          "indexed": false,
          "internalType": "uint256[]",
          "name": "withdrew",
          "type": "uint256[]"
        }
      ],
      "name": "WithdrewMany",
      "type": "event"
    },
    {
      "inputs": [],
      "name": "DEFAULT_ADMIN_ROLE",
      "outputs": [
        {
          "internalType": "bytes32",
          "name": "",
          "type": "bytes32"
        }
      ],
      "stateMutability": "view",
      "type": "function"
    },
    {
      "inputs": [],
      "name": "FEE_PRECISION",
      "outputs": [
        {
          "internalType": "uint32",
          "name": "",
          "type": "uint32"
        }
      ],
      "stateMutability": "pure",
      "type": "function"
    },
    {
      "inputs": [],
      "name": "IMMEDIATE_ROLE",
      "outputs": [
        {
          "internalType": "bytes32",
          "name": "",
          "type": "bytes32"
        }
      ],
      "stateMutability": "view",
      "type": "function"
    },
    {
      "inputs": [],
      "name": "MAX_FEE",
      "outputs": [
        {
          "internalType": "uint32",
          "name": "",
          "type": "uint32"
        }
      ],
      "stateMutability": "view",
      "type": "function"
    },
    {
      "inputs": [],
      "name": "MAX_PLATFORM_FEE_RATIO",
      "outputs": [
        {
          "internalType": "uint16",
          "name": "",
          "type": "uint16"
        }
      ],
      "stateMutability": "view",
      "type": "function"
    },
    {
      "inputs": [],
      "name": "PLATFORM_WITHDRAW_ROLE",
      "outputs": [
        {
          "internalType": "bytes32",
          "name": "",
          "type": "bytes32"
        }
      ],
      "stateMutability": "view",
      "type": "function"
    },
    {
      "inputs": [],
      "name": "TIME_LOCKED_ROLE",
      "outputs": [
        {
          "internalType": "bytes32",
          "name": "",
          "type": "bytes32"
        }
      ],
      "stateMutability": "view",
      "type": "function"
    },
    {
      "inputs": [
        {
          "internalType": "address",
          "name": "_tokenA",
          "type": "address"
        },
        {
          "internalType": "address",
          "name": "_tokenB",
          "type": "address"
        },
        {
          "internalType": "bytes1",
          "name": "_swapIntervalMask",
          "type": "bytes1"
        },
        {
          "internalType": "uint32",
          "name": "_swapNumber",
          "type": "uint32"
        }
      ],
      "name": "accumRatio",
      "outputs": [
        {
          "components": [
            {
              "internalType": "uint256",
              "name": "accumRatioAToB",
              "type": "uint256"
            },
            {
              "internalType": "uint256",
              "name": "accumRatioBToA",
              "type": "uint256"
            }
          ],
          "internalType": "struct IDCAHubParameters.AccumRatio",
          "name": "",
          "type": "tuple"
        }
      ],
      "stateMutability": "view",
      "type": "function"
    },
    {
      "inputs": [
        {
          "internalType": "address",
          "name": "",
          "type": "address"
        },
        {
          "internalType": "address",
          "name": "",
          "type": "address"
        }
      ],
      "name": "activeSwapIntervals",
      "outputs": [
        {
          "internalType": "bytes1",
          "name": "",
          "type": "bytes1"
        }
      ],
      "stateMutability": "view",
      "type": "function"
    },
    {
      "inputs": [
        {
          "internalType": "uint32[]",
          "name": "_swapIntervals",
          "type": "uint32[]"
        }
      ],
      "name": "addSwapIntervalsToAllowedList",
      "outputs": [],
      "stateMutability": "nonpayable",
      "type": "function"
    },
    {
      "inputs": [],
      "name": "allowedSwapIntervals",
      "outputs": [
        {
          "internalType": "bytes1",
          "name": "",
          "type": "bytes1"
        }
      ],
      "stateMutability": "view",
      "type": "function"
    },
    {
      "inputs": [
        {
          "internalType": "address",
          "name": "_from",
          "type": "address"
        },
        {
          "internalType": "address",
          "name": "_to",
          "type": "address"
        },
        {
          "internalType": "uint256",
          "name": "_amount",
          "type": "uint256"
        },
        {
          "internalType": "uint32",
          "name": "_amountOfSwaps",
          "type": "uint32"
        },
        {
          "internalType": "uint32",
          "name": "_swapInterval",
          "type": "uint32"
        },
        {
          "internalType": "address",
          "name": "_owner",
          "type": "address"
        },
        {
          "components": [
            {
              "internalType": "address",
              "name": "operator",
              "type": "address"
            },
            {
              "internalType": "enum IDCAPermissionManager.Permission[]",
              "name": "permissions",
              "type": "uint8[]"
            }
          ],
          "internalType": "struct IDCAPermissionManager.PermissionSet[]",
          "name": "_permissions",
          "type": "tuple[]"
        }
      ],
      "name": "deposit",
      "outputs": [
        {
          "internalType": "uint256",
          "name": "",
          "type": "uint256"
        }
      ],
      "stateMutability": "nonpayable",
      "type": "function"
    },
    {
      "inputs": [
        {
          "internalType": "address[]",
          "name": "_tokens",
          "type": "address[]"
        },
        {
          "components": [
            {
              "internalType": "uint8",
              "name": "indexTokenA",
              "type": "uint8"
            },
            {
              "internalType": "uint8",
              "name": "indexTokenB",
              "type": "uint8"
            }
          ],
          "internalType": "struct IDCAHubSwapHandler.PairIndexes[]",
          "name": "_pairs",
          "type": "tuple[]"
        }
      ],
      "name": "getNextSwapInfo",
      "outputs": [
        {
          "components": [
            {
              "components": [
                {
                  "internalType": "address",
                  "name": "token",
                  "type": "address"
                },
                {
                  "internalType": "uint256",
                  "name": "reward",
                  "type": "uint256"
                },
                {
                  "internalType": "uint256",
                  "name": "toProvide",
                  "type": "uint256"
                },
                {
                  "internalType": "uint256",
                  "name": "platformFee",
                  "type": "uint256"
                }
              ],
              "internalType": "struct IDCAHubSwapHandler.TokenInSwap[]",
              "name": "tokens",
              "type": "tuple[]"
            },
            {
              "components": [
                {
                  "internalType": "address",
                  "name": "tokenA",
                  "type": "address"
                },
                {
                  "internalType": "address",
                  "name": "tokenB",
                  "type": "address"
                },
                {
                  "internalType": "uint256",
                  "name": "ratioAToB",
                  "type": "uint256"
                },
                {
                  "internalType": "uint256",
                  "name": "ratioBToA",
                  "type": "uint256"
                },
                {
                  "internalType": "bytes1",
                  "name": "intervalsInSwap",
                  "type": "bytes1"
                }
              ],
              "internalType": "struct IDCAHubSwapHandler.PairInSwap[]",
              "name": "pairs",
              "type": "tuple[]"
            }
          ],
          "internalType": "struct IDCAHubSwapHandler.SwapInfo",
          "name": "_swapInformation",
          "type": "tuple"
        }
      ],
      "stateMutability": "view",
      "type": "function"
    },
    {
      "inputs": [
        {
          "internalType": "bytes32",
          "name": "role",
          "type": "bytes32"
        }
      ],
      "name": "getRoleAdmin",
      "outputs": [
        {
          "internalType": "bytes32",
          "name": "",
          "type": "bytes32"
        }
      ],
      "stateMutability": "view",
      "type": "function"
    },
    {
      "inputs": [
        {
          "internalType": "bytes32",
          "name": "role",
          "type": "bytes32"
        },
        {
          "internalType": "address",
          "name": "account",
          "type": "address"
        }
      ],
      "name": "grantRole",
      "outputs": [],
      "stateMutability": "nonpayable",
      "type": "function"
    },
    {
      "inputs": [
        {
          "internalType": "bytes32",
          "name": "role",
          "type": "bytes32"
        },
        {
          "internalType": "address",
          "name": "account",
          "type": "address"
        }
      ],
      "name": "hasRole",
      "outputs": [
        {
          "internalType": "bool",
          "name": "",
          "type": "bool"
        }
      ],
      "stateMutability": "view",
      "type": "function"
    },
    {
      "inputs": [
        {
          "internalType": "uint256",
          "name": "_positionId",
          "type": "uint256"
        },
        {
          "internalType": "uint256",
          "name": "_amount",
          "type": "uint256"
        },
        {
          "internalType": "uint32",
          "name": "_newAmountOfSwaps",
          "type": "uint32"
        }
      ],
      "name": "increasePosition",
      "outputs": [],
      "stateMutability": "nonpayable",
      "type": "function"
    },
    {
      "inputs": [
        {
          "components": [
            {
              "internalType": "address",
              "name": "token",
              "type": "address"
            },
            {
              "internalType": "uint256",
              "name": "amount",
              "type": "uint256"
            }
          ],
          "internalType": "struct IDCAHub.AmountOfToken[]",
          "name": "_loan",
          "type": "tuple[]"
        },
        {
          "internalType": "address",
          "name": "_to",
          "type": "address"
        },
        {
          "internalType": "bytes",
          "name": "_data",
          "type": "bytes"
        }
      ],
      "name": "loan",
      "outputs": [],
      "stateMutability": "nonpayable",
      "type": "function"
    },
    {
      "inputs": [],
      "name": "loanFee",
      "outputs": [
        {
          "internalType": "uint32",
          "name": "",
          "type": "uint32"
        }
      ],
      "stateMutability": "view",
      "type": "function"
    },
    {
      "inputs": [],
      "name": "oracle",
      "outputs": [
        {
          "internalType": "contract IPriceOracle",
          "name": "",
          "type": "address"
        }
      ],
      "stateMutability": "view",
      "type": "function"
    },
    {
      "inputs": [],
      "name": "pause",
      "outputs": [],
      "stateMutability": "nonpayable",
      "type": "function"
    },
    {
      "inputs": [],
      "name": "paused",
      "outputs": [
        {
          "internalType": "bool",
          "name": "",
          "type": "bool"
        }
      ],
      "stateMutability": "view",
      "type": "function"
    },
    {
      "inputs": [],
      "name": "permissionManager",
      "outputs": [
        {
          "internalType": "contract IDCAPermissionManager",
          "name": "",
          "type": "address"
        }
      ],
      "stateMutability": "view",
      "type": "function"
    },
    {
      "inputs": [
        {
          "internalType": "address",
          "name": "",
          "type": "address"
        }
      ],
      "name": "platformBalance",
      "outputs": [
        {
          "internalType": "uint256",
          "name": "",
          "type": "uint256"
        }
      ],
      "stateMutability": "view",
      "type": "function"
    },
    {
      "inputs": [],
      "name": "platformFeeRatio",
      "outputs": [
        {
          "internalType": "uint16",
          "name": "",
          "type": "uint16"
        }
      ],
      "stateMutability": "view",
      "type": "function"
    },
    {
      "inputs": [
        {
          "internalType": "uint256",
          "name": "_positionId",
          "type": "uint256"
        },
        {
          "internalType": "uint256",
          "name": "_amount",
          "type": "uint256"
        },
        {
          "internalType": "uint32",
          "name": "_newAmountOfSwaps",
          "type": "uint32"
        },
        {
          "internalType": "address",
          "name": "_recipient",
          "type": "address"
        }
      ],
      "name": "reducePosition",
      "outputs": [],
      "stateMutability": "nonpayable",
      "type": "function"
    },
    {
      "inputs": [
        {
          "internalType": "uint32[]",
          "name": "_swapIntervals",
          "type": "uint32[]"
        }
      ],
      "name": "removeSwapIntervalsFromAllowedList",
      "outputs": [],
      "stateMutability": "nonpayable",
      "type": "function"
    },
    {
      "inputs": [
        {
          "internalType": "bytes32",
          "name": "role",
          "type": "bytes32"
        },
        {
          "internalType": "address",
          "name": "account",
          "type": "address"
        }
      ],
      "name": "renounceRole",
      "outputs": [],
      "stateMutability": "nonpayable",
      "type": "function"
    },
    {
      "inputs": [
        {
          "internalType": "bytes32",
          "name": "role",
          "type": "bytes32"
        },
        {
          "internalType": "address",
          "name": "account",
          "type": "address"
        }
      ],
      "name": "revokeRole",
      "outputs": [],
      "stateMutability": "nonpayable",
      "type": "function"
    },
    {
      "inputs": [
        {
          "internalType": "uint32",
          "name": "_loanFee",
          "type": "uint32"
        }
      ],
      "name": "setLoanFee",
      "outputs": [],
      "stateMutability": "nonpayable",
      "type": "function"
    },
    {
      "inputs": [
        {
          "internalType": "contract IPriceOracle",
          "name": "_oracle",
          "type": "address"
        }
      ],
      "name": "setOracle",
      "outputs": [],
      "stateMutability": "nonpayable",
      "type": "function"
    },
    {
      "inputs": [
        {
          "internalType": "uint16",
          "name": "_platformFeeRatio",
          "type": "uint16"
        }
      ],
      "name": "setPlatformFeeRatio",
      "outputs": [],
      "stateMutability": "nonpayable",
      "type": "function"
    },
    {
      "inputs": [
        {
          "internalType": "uint32",
          "name": "_swapFee",
          "type": "uint32"
        }
      ],
      "name": "setSwapFee",
      "outputs": [],
      "stateMutability": "nonpayable",
      "type": "function"
    },
    {
      "inputs": [
        {
          "internalType": "bytes4",
          "name": "interfaceId",
          "type": "bytes4"
        }
      ],
      "name": "supportsInterface",
      "outputs": [
        {
          "internalType": "bool",
          "name": "",
          "type": "bool"
        }
      ],
      "stateMutability": "view",
      "type": "function"
    },
    {
      "inputs": [
        {
          "internalType": "address[]",
          "name": "_tokens",
          "type": "address[]"
        },
        {
          "components": [
            {
              "internalType": "uint8",
              "name": "indexTokenA",
              "type": "uint8"
            },
            {
              "internalType": "uint8",
              "name": "indexTokenB",
              "type": "uint8"
            }
          ],
          "internalType": "struct IDCAHubSwapHandler.PairIndexes[]",
          "name": "_pairsToSwap",
          "type": "tuple[]"
        },
        {
          "internalType": "uint256[]",
          "name": "_borrow",
          "type": "uint256[]"
        },
        {
          "internalType": "address",
          "name": "_to",
          "type": "address"
        },
        {
          "internalType": "bytes",
          "name": "_data",
          "type": "bytes"
        }
      ],
      "name": "swap",
      "outputs": [],
      "stateMutability": "nonpayable",
      "type": "function"
    },
    {
      "inputs": [
        {
          "internalType": "address",
          "name": "_tokenA",
          "type": "address"
        },
        {
          "internalType": "address",
          "name": "_tokenB",
          "type": "address"
        },
        {
          "internalType": "bytes1",
          "name": "_swapIntervalMask",
          "type": "bytes1"
        },
        {
          "internalType": "uint32",
          "name": "_swapNumber",
          "type": "uint32"
        }
      ],
      "name": "swapAmountDelta",
      "outputs": [
        {
          "components": [
            {
              "internalType": "int128",
              "name": "swapDeltaAToB",
              "type": "int128"
            },
            {
              "internalType": "int128",
              "name": "swapDeltaBToA",
              "type": "int128"
            }
          ],
          "internalType": "struct IDCAHubParameters.SwapDelta",
          "name": "",
          "type": "tuple"
        }
      ],
      "stateMutability": "view",
      "type": "function"
    },
    {
      "inputs": [
        {
          "internalType": "address",
          "name": "_tokenA",
          "type": "address"
        },
        {
          "internalType": "address",
          "name": "_tokenB",
          "type": "address"
        },
        {
          "internalType": "bytes1",
          "name": "_swapIntervalMask",
          "type": "bytes1"
        }
      ],
      "name": "swapData",
      "outputs": [
        {
          "components": [
            {
              "internalType": "uint32",
              "name": "performedSwaps",
              "type": "uint32"
            },
            {
              "internalType": "uint224",
              "name": "nextAmountToSwapAToB",
              "type": "uint224"
            },
            {
              "internalType": "uint32",
              "name": "lastSwappedAt",
              "type": "uint32"
            },
            {
              "internalType": "uint224",
              "name": "nextAmountToSwapBToA",
              "type": "uint224"
            }
          ],
          "internalType": "struct IDCAHubParameters.SwapData",
          "name": "",
          "type": "tuple"
        }
      ],
      "stateMutability": "view",
      "type": "function"
    },
    {
      "inputs": [],
      "name": "swapFee",
      "outputs": [
        {
          "internalType": "uint32",
          "name": "",
          "type": "uint32"
        }
      ],
      "stateMutability": "view",
      "type": "function"
    },
    {
      "inputs": [
        {
          "internalType": "uint256",
          "name": "_positionId",
          "type": "uint256"
        },
        {
          "internalType": "address",
          "name": "_recipientUnswapped",
          "type": "address"
        },
        {
          "internalType": "address",
          "name": "_recipientSwapped",
          "type": "address"
        }
      ],
      "name": "terminate",
      "outputs": [],
      "stateMutability": "nonpayable",
      "type": "function"
    },
    {
      "inputs": [],
      "name": "unpause",
      "outputs": [],
      "stateMutability": "nonpayable",
      "type": "function"
    },
    {
      "inputs": [
        {
          "internalType": "uint256",
          "name": "_positionId",
          "type": "uint256"
        }
      ],
      "name": "userPosition",
      "outputs": [
        {
          "components": [
            {
              "internalType": "contract IERC20Metadata",
              "name": "from",
              "type": "address"
            },
            {
              "internalType": "contract IERC20Metadata",
              "name": "to",
              "type": "address"
            },
            {
              "internalType": "uint32",
              "name": "swapInterval",
              "type": "uint32"
            },
            {
              "internalType": "uint32",
              "name": "swapsExecuted",
              "type": "uint32"
            },
            {
              "internalType": "uint256",
              "name": "swapped",
              "type": "uint256"
            },
            {
              "internalType": "uint32",
              "name": "swapsLeft",
              "type": "uint32"
            },
            {
              "internalType": "uint256",
              "name": "remaining",
              "type": "uint256"
            },
            {
              "internalType": "uint120",
              "name": "rate",
              "type": "uint120"
            }
          ],
          "internalType": "struct IDCAHubPositionHandler.UserPosition",
          "name": "_userPosition",
          "type": "tuple"
        }
      ],
      "stateMutability": "view",
      "type": "function"
    },
    {
      "inputs": [
        {
          "components": [
            {
              "internalType": "address",
              "name": "token",
              "type": "address"
            },
            {
              "internalType": "uint256",
              "name": "amount",
              "type": "uint256"
            }
          ],
          "internalType": "struct IDCAHub.AmountOfToken[]",
          "name": "_amounts",
          "type": "tuple[]"
        },
        {
          "internalType": "address",
          "name": "_recipient",
          "type": "address"
        }
      ],
      "name": "withdrawFromPlatformBalance",
      "outputs": [],
      "stateMutability": "nonpayable",
      "type": "function"
    },
    {
      "inputs": [
        {
          "internalType": "uint256",
          "name": "_positionId",
          "type": "uint256"
        },
        {
          "internalType": "address",
          "name": "_recipient",
          "type": "address"
        }
      ],
      "name": "withdrawSwapped",
      "outputs": [
        {
          "internalType": "uint256",
          "name": "",
          "type": "uint256"
        }
      ],
      "stateMutability": "nonpayable",
      "type": "function"
    },
    {
      "inputs": [
        {
          "components": [
            {
              "internalType": "address",
              "name": "token",
              "type": "address"
            },
            {
              "internalType": "uint256[]",
              "name": "positionIds",
              "type": "uint256[]"
            }
          ],
          "internalType": "struct IDCAHubPositionHandler.PositionSet[]",
          "name": "_positions",
          "type": "tuple[]"
        },
        {
          "internalType": "address",
          "name": "_recipient",
          "type": "address"
        }
      ],
      "name": "withdrawSwappedMany",
      "outputs": [],
      "stateMutability": "nonpayable",
      "type": "function"
    }
  ],
  "transactionHash": "0xdc65c4357c2cc52ecccc7e5c779eefbc1de7084bfa764971ca668df639a380ff",
  "args": [
    "0xeeAE844d04ee45c37636D8Db8C9482200177DC93",
    "0x763BB5611A7e748f8434Ca69EDabE128bEcF9578",
    "0x4aFd06674E0701F3bfd6f026e4Ec785f5eC3E29f",
    "0x0100a1c3020fE97051cBB18636C0f91abCc603cE"
  ],
  "solcInputHash": "d9e3e0d972cd005803d4bc4d5690665e",
  "bytecode": "0x60806040527f313f8c5ec4103e5607b5d8b3519ab06a512037396eaf72a07527d8b838012ed460085562000037612710600a6200033c565b6009805462ffffff9290921663ffffffff63ffffffff60c01b01199092169190911761017760c41b176001600160e01b0316607d60e31b179055600a805462ffffff1916621388f01790553480156200008f57600080fd5b50604051620063ea380380620063ea833981016040819052620000b2916200038c565b60016000556007805460ff19169055808484846001600160a01b0383161580620000e357506001600160a01b038216155b80620000f657506001600160a01b038116155b15620001155760405163d92e233d60e01b815260040160405180910390fd5b60085462000124908462000212565b6200013f600080516020620063ca8339815191528362000212565b6200017a7f73c06b41830ea810d4e9dd3dfb0309555fbff1642391fb7644bc4a0b0f7a77fd600080516020620063ca83398151915262000222565b60085462000189908062000222565b620001a4600080516020620063ca8339815191528062000222565b600980546001600160a01b0390921664010000000002600160201b600160c01b031990921691909117905550620001dd9050816200026d565b600a80546001600160a01b039092166301000000026301000000600160b81b031990921691909117905550620003f492505050565b6200021e828262000298565b5050565b600082815260066020526040808220600101805490849055905190918391839186917fbd79b86ffe0ab8e8776151514217cd7cacd52c909f66475c3af44e129f0b00ff9190a4505050565b6001600160a01b038116620002955760405163d92e233d60e01b815260040160405180910390fd5b50565b60008281526006602090815260408083206001600160a01b038516845290915290205460ff166200021e5760008281526006602090815260408083206001600160a01b03851684529091529020805460ff19166001179055620002f83390565b6001600160a01b0316816001600160a01b0316837f2f8788117e7eff1d82e926ec794901d17c78024a50270940304540a733656f0d60405160405180910390a45050565b600062ffffff808316818516818304811182151516156200036d57634e487b7160e01b600052601160045260246000fd5b02949350505050565b6001600160a01b03811681146200029557600080fd5b60008060008060808587031215620003a357600080fd5b8451620003b08162000376565b6020860151909450620003c38162000376565b6040860151909350620003d68162000376565b6060860151909250620003e98162000376565b939692955090935050565b615fc680620004046000396000f3fe608060405234801561001057600080fd5b50600436106102745760003560e01c806372ada4c511610151578063c67e32e9116100c3578063d6d788c311610087578063d6d788c314610675578063da90b03a14610688578063ded700a61461069b578063e63a391f146106ae578063f1accf39146106b6578063fc448158146106c957600080fd5b8063c67e32e9146105f5578063cc7a204914610615578063d2d95b2d1461062f578063d460c2111461064f578063d547741f1461066257600080fd5b8063808ba8e011610115578063808ba8e01461054a5780638456cb59146105ab57806391d14854146105b35780639bcb5572146105c6578063a217fddf146105dd578063bc063e1a146105e557600080fd5b806372ada4c5146104d65780637adbf973146104e95780637d361dd3146104fc5780637d8e8603146105055780637dc0d1d01461051857600080fd5b80634aa91aee116101ea578063582cf84b116101ae578063582cf84b146104475780635b6fd01d146104755780635c975abb146104955780636b29e1bd1461049d5780636eefd134146104b057806371651aa9146104c357600080fd5b80634aa91aee146103ab5780634eeeb3eb146103e057806354cf2aeb146103f5578063560c64991461042157806357ae1cec1461043457600080fd5b80632f2ff15d1161023c5780632f2ff15d1461032f57806336568abe146103445780633f4ba83a146103575780633feb14931461035f578063480b379614610372578063480e5da11461038557600080fd5b806301ffc9a7146102795780630b1aa984146102a157806317621890146102cf5780631b8b8c34146102f0578063248a9ca31461030c575b600080fd5b61028c610287366004614c74565b6106f0565b60405190151581526020015b60405180910390f35b6102b46102af366004614ce4565b610727565b60408051825181526020928301519281019290925201610298565b6102e26102dd366004614d3c565b6107b1565b604051908152602001610298565b6102f961271081565b60405161ffff9091168152602001610298565b6102e261031a366004614d6c565b60009081526006602052604090206001015490565b61034261033d366004614d3c565b61086f565b005b610342610352366004614d3c565b61089a565b610342610918565b61034261036d366004614dc9565b610930565b610342610380366004614e0a565b6109e2565b600a546103929060f81b81565b6040516001600160f81b03199091168152602001610298565b6103be6103b9366004614ce4565b610c48565b604080518251600f90810b8252602093840151900b9281019290925201610298565b6102e2600080516020615f7183398151915281565b60095461040c90600160c01b900463ffffffff1681565b60405163ffffffff9091168152602001610298565b61034261042f366004614ea4565b610cde565b600a546102f990610100900461ffff1681565b610392610455366004614edb565b600160209081526000928352604080842090915290825290205460f81b81565b610488610483366004614d6c565b610e69565b6040516102989190614f09565b61028c611027565b6102e26104ab366004614f8d565b611036565b6103426104be366004615032565b611451565b6103426104d1366004615097565b6114e5565b6103426104e436600461511b565b6119c6565b6103426104f7366004615152565b611c36565b6102e260085481565b610342610513366004614dc9565b611cb3565b60095461053290600160201b90046001600160a01b031681565b6040516001600160a01b039091168152602001610298565b61055d61055836600461516f565b611d3d565b60408051825163ffffffff90811682526020808501516001600160e01b0390811691840191909152848401519091169282019290925260609283015190911691810191909152608001610298565b610342611df9565b61028c6105c1366004614d3c565b611e0e565b60095461040c90600160e01b900463ffffffff1681565b6102e2600081565b60095461040c9063ffffffff1681565b6102e2610603366004615152565b60026020526000908152604090205481565b600a5461053290630100000090046001600160a01b031681565b61064261063d3660046151b6565b611e39565b6040516102989190615312565b61034261065d366004615325565b6125af565b610342610670366004614d3c565b612b5a565b6103426106833660046153ff565b612b80565b6103426106963660046153ff565b612bf6565b6103426106a936600461541a565b612c6b565b61271061040c565b6103426106c4366004615446565b612ccf565b6102e27f73c06b41830ea810d4e9dd3dfb0309555fbff1642391fb7644bc4a0b0f7a77fd81565b60006001600160e01b03198216637965db0b60e01b148061072157506301ffc9a760e01b6001600160e01b03198316145b92915050565b60408051808201909152600080825260208201526000806107488787612d17565b6001600160a01b0391821660009081526004602090815260408083209390941682529182528281206001600160f81b031989168252825282812063ffffffff8816825282528290208251808401909352805483526001015490820152925050505b949350505050565b6000600260005414156107df5760405162461bcd60e51b81526004016107d69061548e565b60405180910390fd5b60026000556107ed82612d48565b6000806107f985612d6f565b90925090506108126001600160a01b0382168584612e7f565b604080518681526001600160a01b0383811660208301529181018490529085169033907fcade65431cead780eb2b14b84a6594e1b235278a02e31abf3fc04c7c3e8ab4ee9060600160405180910390a35060016000559392505050565b60008281526006602052604090206001015461088b8133612ee2565b6108958383612f46565b505050565b6001600160a01b038116331461090a5760405162461bcd60e51b815260206004820152602f60248201527f416363657373436f6e74726f6c3a2063616e206f6e6c792072656e6f756e636560448201526e103937b632b9903337b91039b2b63360891b60648201526084016107d6565b6109148282612fcc565b5050565b6008546109258133612ee2565b61092d613033565b50565b60085461093d8133612ee2565b60005b828110156109a35761097784848381811061095d5761095d6154c5565b905060200201602081019061097291906153ff565b6130c8565b600a805460ff19811660f891821b93909317901c9190911790558061099b816154f1565b915050610940565b507fd691741464555eddf67afe8f82b0cbe92f8859926856aec4a48a106ceb1b1bee83836040516109d592919061550c565b60405180910390a1505050565b60026000541415610a055760405162461bcd60e51b81526004016107d69061548e565b6002600055610a1381612d48565b6000826001600160401b03811115610a2d57610a2d615555565b604051908082528060200260200182016040528015610a56578160200160208202803683370190505b50905060005b83811015610bed576000858583818110610a7857610a786154c5565b9050602002810190610a8a919061556b565b610a98906020810190615152565b905060005b868684818110610aaf57610aaf6154c5565b9050602002810190610ac1919061556b565b610acf90602081019061558b565b9050811015610ba257600080610b2c898987818110610af057610af06154c5565b9050602002810190610b02919061556b565b610b1090602081019061558b565b85818110610b2057610b206154c5565b90506020020135612d6f565b91509150836001600160a01b0316816001600160a01b031614610b625760405163305663b560e11b815260040160405180910390fd5b81868681518110610b7557610b756154c5565b60200260200101818151610b8991906155d4565b905250829150610b9a9050816154f1565b915050610a9d565b50610bda84848481518110610bb957610bb96154c5565b6020026020010151836001600160a01b0316612e7f9092919063ffffffff16565b5080610be5816154f1565b915050610a5c565b50816001600160a01b0316336001600160a01b03167fdc1e0c1e1b707ce83f3d3a8c66a6abc1d23d95f81a61fc1f578355e0d968fd2d868685604051610c35939291906156c4565b60405180910390a3505060016000555050565b6040805180820190915260008082526020820152600080610c698787612d17565b6001600160a01b0391821660009081526003602090815260408083209490931682529283528181206001600160f81b031989168252835281812063ffffffff881682528352819020815180830190925254600f81810b8352600160801b909104900b9181019190915292505050949350505050565b60026000541415610d015760405162461bcd60e51b81526004016107d69061548e565b60026000557f73c06b41830ea810d4e9dd3dfb0309555fbff1642391fb7644bc4a0b0f7a77fd610d318133612ee2565b60005b83811015610e2357848482818110610d4e57610d4e6154c5565b9050604002016020013560026000878785818110610d6e57610d6e6154c5565b610d849260206040909202019081019150615152565b6001600160a01b03166001600160a01b031681526020019081526020016000206000828254610db39190615760565b90915550610e11905083868684818110610dcf57610dcf6154c5565b90506040020160200135878785818110610deb57610deb6154c5565b610e019260206040909202019081019150615152565b6001600160a01b03169190612e7f565b80610e1b816154f1565b915050610d34565b50816001600160a01b0316336001600160a01b03167fc372140441ddd3b3a7319bbc36cbc33b5600b15c211eda1d1fc9d35bb7ebb3a88686604051610c359291906157bf565b6040805161010081018252600080825260208201819052918101829052606081018290526080810182905260a0810182905260c0810182905260e08101919091526000828152600b60209081526040808320815160e081018352815463ffffffff8082168352600160201b82041694820194909452600160401b840460f81b6001600160f81b031916928101839052600160481b84046001600160a01b0390811660608301819052600160e81b90950462ffffff1660808301526001909201546001600160601b03811660a0830152600160601b900490911660c08201819052909392610f58929091906131bc565b90506000610f6a828460200151613217565b60608401516001600160a01b03908116865260c08501511660208601528351909150610f97908290613238565b63ffffffff1660608501526020830151610fb19083613238565b63ffffffff1660a0850152610fc6838361325e565b60c0850152610fd483613290565b6001600160781b031660e085015260408301516001600160f81b0319161561101f5761100383604001516132c1565b63ffffffff1660408501526110198584846133d5565b60808501525b505050919050565b6000611031613633565b905090565b60006002600054141561105b5760405162461bcd60e51b81526004016107d69061548e565b6002600055611068611027565b156110855760405162461bcd60e51b81526004016107d6906157d3565b6001600160a01b03891615806110a257506001600160a01b038816155b806110b457506001600160a01b038416155b156110d25760405163d92e233d60e01b815260040160405180910390fd5b876001600160a01b0316896001600160a01b031614156111055760405163c1ab6dc160e01b815260040160405180910390fd5b8661112357604051631f2a200560e01b815260040160405180910390fd5b63ffffffff861661114757604051633c92196b60e11b815260040160405180910390fd5b60006111538888613641565b905061116a6001600160a01b038b1633308b61367e565b6000600d6000815461117b906154f1565b9182905550905060006111998c8c8b6111938c6130c8565b876136bc565b6040810151600a549192506001600160f81b031960f89290921b16166111d257604051638b52594f60e01b815260040160405180910390fd5b600a546040516306d66a1360e31b815263010000009091046001600160a01b0316906336b350989061120e9085908b908b908b9060040161581f565b600060405180830381600087803b15801561122857600080fd5b505af115801561123c573d6000803e3d6000fd5b5050505061124f8c8c8360400151613795565b6112648c8c836040015184602001518761389d565b80600b600084815260200190815260200160002060008201518160000160006101000a81548163ffffffff021916908363ffffffff16021790555060208201518160000160046101000a81548163ffffffff021916908363ffffffff16021790555060408201518160000160086101000a81548160ff021916908360f81c021790555060608201518160000160096101000a8154816001600160a01b0302191690836001600160a01b03160217905550608082015181600001601d6101000a81548162ffffff021916908362ffffff16021790555060a08201518160010160006101000a8154816001600160601b0302191690836001600160601b0316021790555060c082015181600101600c6101000a8154816001600160a01b0302191690836001600160a01b03160217905550905050866001600160a01b0316336001600160a01b03167fa4fa2c0474200cf8021e38722891b55354b00a6dfb06a5beae0cdf2fc7dd3578848f8f8d89886000015160016113e19190615900565b60208a810151604080519889526001600160a01b0397881692890192909252949095168686015263ffffffff92831660608701526001600160781b03919091166080860152811660a08501521660c0830152519081900360e00190a35060016000559a9950505050505050505050565b600080516020615f7183398151915261146a8133612ee2565b61271061ffff83161115611491576040516314bc5e9d60e21b815260040160405180910390fd5b600a805462ffff00191661010061ffff8516908102919091179091556040519081527f6c234431526967795ada65665e195191d4b2fc63c9f564d1ea626478325ae9d9906020015b60405180910390a15050565b600260005414156115085760405162461bcd60e51b81526004016107d69061548e565b6002600055611515611027565b156115325760405162461bcd60e51b81526004016107d6906157d3565b600954600160e01b900463ffffffff166000856001600160401b0381111561155c5761155c615555565b604051908082528060200260200182016040528015611585578160200160208202803683370190505b50905060005b8151811015611664578787828181106115a6576115a66154c5565b6115bc9260206040909202019081019150615152565b6040516370a0823160e01b81523060048201526001600160a01b0391909116906370a082319060240160206040518083038186803b1580156115fd57600080fd5b505afa158015611611573d6000803e3d6000fd5b505050506040513d601f19601f820116820180604052508101906116359190615928565b828281518110611647576116476154c5565b60209081029190910101528061165c816154f1565b91505061158b565b5060005b8681101561174c576000811180156116ea57508787611688600184615760565b818110611697576116976154c5565b6116ad9260206040909202019081019150615152565b6001600160a01b03168888838181106116c8576116c86154c5565b6116de9260206040909202019081019150615152565b6001600160a01b031611155b15611708576040516333910aef60e11b815260040160405180910390fd5b61173a8689898481811061171e5761171e6154c5565b905060400201602001358a8a85818110610deb57610deb6154c5565b80611744816154f1565b915050611668565b5060405163c5dd4f9960e01b81526001600160a01b0386169063c5dd4f99906117839033908b908b9088908b908b9060040161596a565b600060405180830381600087803b15801561179d57600080fd5b505af11580156117b1573d6000803e3d6000fd5b5050505060005b868110156119685760008888838181106117d4576117d46154c5565b6117ea9260206040909202019081019150615152565b6040516370a0823160e01b81523060048201526001600160a01b0391909116906370a082319060240160206040518083038186803b15801561182b57600080fd5b505afa15801561183f573d6000803e3d6000fd5b505050506040513d601f19601f820116820180604052508101906118639190615928565b905061188a848a8a8581811061187b5761187b6154c5565b905060400201602001356138b3565b83838151811061189c5761189c6154c5565b60200260200101516118ae91906155d4565b8110156118ce5760405163d562e29f60e01b815260040160405180910390fd5b8282815181106118e0576118e06154c5565b6020026020010151816118f39190615760565b600260008b8b86818110611909576119096154c5565b61191f9260206040909202019081019150615152565b6001600160a01b03166001600160a01b03168152602001908152602001600020600082825461194e91906155d4565b909155508291506119609050816154f1565b9150506117b8565b50846001600160a01b0316336001600160a01b03167ffe7a45edbfa15e95f7bb4e9f70a63c167ef12768b9ab360f861497e3bbbbaa088989866040516119b0939291906159bb565b60405180910390a3505060016000555050505050565b600260005414156119e95760405162461bcd60e51b81526004016107d69061548e565b60026000556001600160a01b0382161580611a0b57506001600160a01b038116155b15611a295760405163d92e233d60e01b815260040160405180910390fd5b6000838152600b6020908152604091829020825160e081018452815463ffffffff8082168352600160201b82041693820193909352600160401b830460f81b6001600160f81b03191693810193909352600160481b82046001600160a01b039081166060850152600160e81b90920462ffffff166080840152600101546001600160601b03811660a0840152600160601b90041660c0820152611ace848260036138de565b6000611ae782606001518360c0015184604001516131bc565b90506000611af68684846133d5565b90506000611b04848461325e565b9050611b1084846139b1565b6000878152600b602052604080822082815560010191909155600a549051630852cd8d60e31b815263010000009091046001600160a01b0316906342966c6890611b62908a9060040190815260200190565b600060405180830381600087803b158015611b7c57600080fd5b505af1158015611b90573d6000803e3d6000fd5b505050506000821115611bb65760c0840151611bb6906001600160a01b03168684612e7f565b8015611bd5576060840151611bd5906001600160a01b03168783612e7f565b60408051888152602081018390529081018390526001600160a01b03808716919088169033907f2577f709b454c4d5c1118a01186dd48d4a6bacf43fe4c26aad2f66a51bf5290d9060600160405180910390a4505060016000555050505050565b600080516020615f71833981519152611c4f8133612ee2565b611c5882612d48565b60098054640100000000600160c01b031916600160201b6001600160a01b038516908102919091179091556040519081527f3f32684a32a11dabdbb8c0177de80aa3ae36a004d75210335b49e544e48cd0aa906020016114d9565b600854611cc08133612ee2565b60005b82811015611d0b57611ce084848381811061095d5761095d6154c5565b600a805460ff198116921960f891821b16901c91909117905580611d03816154f1565b915050611cc3565b507fd0359552feffede26fee29bd110dd8e1a3237acd35c7e17a9d3b7330b02f882583836040516109d592919061550c565b60408051608081018252600080825260208201819052918101829052606081018290529080611d6c8686612d17565b6001600160a01b0391821660009081526005602090815260408083209390941682529182528281206001600160f81b03198816825282528290208251608081018452815463ffffffff80821683526001600160e01b03600160201b9283900481169584019590955260019093015492831694820194909452929004166060820152925050505b9392505050565b600854611e068133612ee2565b61092d6139f0565b60009182526006602090815260408084206001600160a01b0393909316845291905290205460ff1690565b6040805180820190915260608082526020820152600954600160c01b810463ffffffff1690600160201b90046001600160a01b03166000866001600160401b03811115611e8857611e88615555565b604051908082528060200260200182016040528015611eb1578160200160208202803683370190505b5090506000876001600160401b03811115611ece57611ece615555565b604051908082528060200260200182016040528015611ef7578160200160208202803683370190505b509050856001600160401b03811115611f1257611f12615555565b604051908082528060200260200182016040528015611f6b57816020015b6040805160a081018252600080825260208083018290529282018190526060820181905260808201528252600019909201910181611f305790505b50602086015260005b86811015612309576000888883818110611f9057611f906154c5565b611fa692602060409092020190810191506159f4565b90506000898984818110611fbc57611fbc6154c5565b9050604002016020016020810190611fd491906159f4565b90508060ff168260ff161015806120b057506000831180156120b057508989611ffe600186615760565b81811061200d5761200d6154c5565b61202392602060409092020190810191506159f4565b60ff168260ff1610806120b05750898961203e600186615760565b81811061204d5761204d6154c5565b61206392602060409092020190810191506159f4565b60ff168260ff161480156120b05750898961207f600186615760565b81811061208e5761208e6154c5565b90506040020160200160208101906120a691906159f4565b60ff168160ff1611155b156120ce57604051635dd49b5d60e01b815260040160405180910390fd5b6040805160a0810182526000808252602082018190529181018290526060810182905260808101919091528c8c8460ff1681811061210e5761210e6154c5565b90506020020160208101906121239190615152565b6001600160a01b031681528c8c60ff8416818110612143576121436154c5565b90506020020160208101906121589190615152565b6001600160a01b03166020820152805160009061217490613a4a565b905060006121858360200151613a4a565b905060008061219c85600001518660200151613ac8565b6001600160f81b03191660808801528b51919350915082908b9060ff8a169081106121c9576121c96154c5565b602002602001018181516121dd91906155d4565b905250895181908b9060ff89169081106121f9576121f96154c5565b6020026020010181815161220d91906155d4565b9052508451602086015161223091906001600160781b038088169087168f613c7c565b606087018190526040870191909152612256906001600160781b0385169083908f613d34565b898860ff168151811061226b5761226b6154c5565b6020026020010181815161227f91906155d4565b905250604085015161229e906001600160781b0386169084908f613d34565b898760ff16815181106122b3576122b36154c5565b602002602001018181516122c791906155d4565b90525060208d015180518691908a9081106122e4576122e46154c5565b6020026020010181905250505050505050508080612301906154f1565b915050611f74565b50600a54610100900461ffff16886001600160401b0381111561232e5761232e615555565b60405190808252806020026020018201604052801561239357816020015b612380604051806080016040528060006001600160a01b031681526020016000815260200160008152602001600081525090565b81526020019060019003908161234c5790505b50865260005b8651518110156125a15760008111801561241b57508a8a6123bb600184615760565b8181106123ca576123ca6154c5565b90506020020160208101906123df9190615152565b6001600160a01b03168b8b838181106123fa576123fa6154c5565b905060200201602081019061240f9190615152565b6001600160a01b031611155b15612439576040516333910aef60e11b815260040160405180910390fd5b61246d604051806080016040528060006001600160a01b031681526020016000815260200160008152602001600081525090565b8b8b8381811061247f5761247f6154c5565b90506020020160208101906124949190615152565b6001600160a01b0316815283516000908590849081106124b6576124b66154c5565b6020026020010151905060008684815181106124d4576124d46154c5565b6020026020010151905060008211806124ed5750600081115b156125695760006124fe8a84613d7f565b9050600061271061251361ffff891684615a11565b61251d9190615a46565b9050600061252b8585615a5a565b9050818113156125495761253f8282615a5a565b6020870152612561565b818112156125615761255b8183615a5a565b60408701525b506060850152505b828a600001518581518110612580576125806154c5565b60200260200101819052505050508080612599906154f1565b915050612399565b505050505050949350505050565b600260005414156125d25760405162461bcd60e51b81526004016107d69061548e565b60026000556125df611027565b156125fc5760405162461bcd60e51b81526004016107d6906157d3565b6040805180820190915260608082526020820152600954600160c01b900463ffffffff1661262c8b8b8b8b611e39565b9150426000805b84602001515181101561272557600085602001518281518110612658576126586154c5565b60209081029190910101516080810151909150600160f81b5b6001600160f81b03198082169083161080159061269757506001600160f81b0319811615155b156126f857806001600160f81b0319168183166001600160f81b03191614156126ea576126ea83600001518460200151836126d68b8860400151613db6565b6126e48c8960600151613db6565b8b613de2565b60011b607f60f91b16612671565b848061270d57506001600160f81b0319821615155b9450505050808061271d906154f1565b915050612633565b5080612744576040516346f8d7b160e11b815260040160405180910390fd5b50508151516000906001600160401b0381111561276357612763615555565b60405190808252806020026020018201604052801561278c578160200160208202803683370190505b50905060005b8351518110156128e4576000846000015182815181106127b4576127b46154c5565b602002602001015190506000816040015111806127e9575060008a8a848181106127e0576127e06154c5565b90506020020135115b156128875780516040516370a0823160e01b81523060048201526001600160a01b03909116906370a082319060240160206040518083038186803b15801561283057600080fd5b505afa158015612844573d6000803e3d6000fd5b505050506040513d601f19601f820116820180604052508101906128689190615928565b83838151811061287a5761287a6154c5565b6020026020010181815250505b60008a8a8481811061289b5761289b6154c5565b9050602002013582602001516128b191906155d4565b905080156128cf5781516128cf906001600160a01b03168a83612e7f565b505080806128dc906154f1565b915050612792565b508251604051632c0be4cf60e11b81526001600160a01b03881691635817c99e9161291b9133918d908d908c908c90600401615a99565b600060405180830381600087803b15801561293557600080fd5b505af1158015612949573d6000803e3d6000fd5b5050505060005b835151811015612af557600084600001518281518110612972576129726154c5565b602002602001015190506000816060015190506000826040015111806129b0575060008b8b858181106129a7576129a76154c5565b90506020020135115b15612aab576000826020015183604001518686815181106129d3576129d36154c5565b60200260200101516129e591906155d4565b6129ef9190615760565b83516040516370a0823160e01b81523060048201529192506000916001600160a01b03909116906370a082319060240160206040518083038186803b158015612a3757600080fd5b505afa158015612a4b573d6000803e3d6000fd5b505050506040513d601f19601f82011682018060405250810190612a6f9190615928565b905081811015612a925760405163d562e29f60e01b815260040160405180910390fd5b612a9c8282615760565b612aa690846155d4565b925050505b8015612ae05781516001600160a01b031660009081526002602052604081208054839290612ada9084906155d4565b90915550505b50508080612aed906154f1565b915050612950565b50856001600160a01b0316336001600160a01b03167f4d2f3ad1415b82ab1459f211ae7c021fd13ee4960ca72715e8ab3de921da7026858b8b87604051612b3f9493929190615b39565b60405180910390a35050600160005550505050505050505050565b600082815260066020526040902060010154612b768133612ee2565b6108958383612fcc565b600080516020615f71833981519152612b998133612ee2565b612ba28261417d565b6009805463ffffffff60c01b1916600160c01b63ffffffff8516908102919091179091556040519081527f5658872a8436367e842f76c14ffbbf8e67a2e70f47b28b3c4154134f72e902d6906020016114d9565b600080516020615f71833981519152612c0f8133612ee2565b612c188261417d565b600980546001600160e01b0316600160e01b63ffffffff8516908102919091179091556040519081527f6d0851a3fe66369a96f833703a09a7cb561e2eea7bc56bb8f247ac599814150f906020016114d9565b60026000541415612c8e5760405162461bcd60e51b81526004016107d69061548e565b6002600055612c9b611027565b15612cb85760405162461bcd60e51b81526004016107d6906157d3565b612cc583838360006141d9565b5050600160005550565b60026000541415612cf25760405162461bcd60e51b81526004016107d69061548e565b6002600055612d0081612d48565b612d0c848484846141d9565b505060016000555050565b600080826001600160a01b0316846001600160a01b031610612d3a578284612d3d565b83835b909590945092505050565b6001600160a01b03811661092d5760405163d92e233d60e01b815260040160405180910390fd5b6000818152600b60209081526040808320815160e081018352815463ffffffff8082168352600160201b82041694820194909452600160401b840460f81b6001600160f81b03191692810192909252600160481b83046001600160a01b039081166060840152600160e81b90930462ffffff166080830152600101546001600160601b03811660a0830152600160601b900490911660c08201528190612e17848260026138de565b6000612e3082606001518360c0015184604001516131bc565b9050612e3d8583836133d5565b60c0909201516000958652600b60209081526040808820805463ffffffff90951663ffffffff1990951694909417909355600c90529085209490945593915050565b6040516001600160a01b03831660248201526044810182905261089590849063a9059cbb60e01b906064015b60408051601f198184030181529190526020810180516001600160e01b03166001600160e01b0319909316929092179091526144c3565b612eec8282611e0e565b61091457612f04816001600160a01b03166014614595565b612f0f836020614595565b604051602001612f20929190615ba3565b60408051601f198184030181529082905262461bcd60e51b82526107d691600401615c18565b612f508282611e0e565b6109145760008281526006602090815260408083206001600160a01b03851684529091529020805460ff19166001179055612f883390565b6001600160a01b0316816001600160a01b0316837f2f8788117e7eff1d82e926ec794901d17c78024a50270940304540a733656f0d60405160405180910390a45050565b612fd68282611e0e565b156109145760008281526006602090815260408083206001600160a01b0385168085529252808320805460ff1916905551339285917ff6391f5c32d9c69d2a47ea670b442974b53935d1edc7fd64eb21e047a839171b9190a45050565b61303b611027565b61307e5760405162461bcd60e51b815260206004820152601460248201527314185d5cd8589b194e881b9bdd081c185d5cd95960621b60448201526064016107d6565b6007805460ff191690557f5db9ee0a495bf2e6ff9c91a7834c1ba4fdd244a5e8aa4e537bd38aeae4b073aa335b6040516001600160a01b03909116815260200160405180910390a1565b60008163ffffffff16603c14156130e45750600160f81b919050565b8163ffffffff1661012c14156130ff5750600160f91b919050565b8163ffffffff16610384141561311a5750600160fa1b919050565b8163ffffffff1661070814156131355750600160fb1b919050565b8163ffffffff16610e1014156131505750600160fc1b919050565b8163ffffffff16613840141561316b5750600160fd1b919050565b8163ffffffff166201518014156131875750600160fe1b919050565b8163ffffffff1662093a8014156131a35750600160ff1b919050565b6040516305fabb6160e41b815260040160405180910390fd5b60008060006131cb8686612d17565b6001600160a01b0391821660009081526005602090815260408083209490931682529283528181206001600160f81b03198816825290925290205463ffffffff16925050509392505050565b60008163ffffffff168363ffffffff16116132325782611df2565b50919050565b60008163ffffffff168363ffffffff1611613254576000611df2565b611df28284615c4b565b600061326983613290565b6001600160781b0316613280846020015184613238565b63ffffffff16611df29190615a11565b6000816080015162ffffff1660188360a001516001600160601b03166001600160781b0316901b6107219190615c70565b6000600160f81b6001600160f81b0319831614156132e15750603c919050565b600160f91b6001600160f81b031983161415613300575061012c919050565b600160fa1b6001600160f81b03198316141561331f5750610384919050565b600160fb1b6001600160f81b03198316141561333e5750610708919050565b600160fc1b6001600160f81b03198316141561335d5750610e10919050565b600160fd1b6001600160f81b03198316141561337c5750613840919050565b600160fe1b6001600160f81b03198316141561339c575062015180919050565b600160ff1b6001600160f81b0319831614156133bc575062093a80919050565b60405163bf3cad0b60e01b815260040160405180910390fd5b6000806133e6838560200151613217565b90508063ffffffff16846000015163ffffffff16111561340a576000915050611df2565b8063ffffffff16846000015163ffffffff1614156134385750506000838152600c6020526040902054611df2565b60008460c001516001600160a01b031685606001516001600160a01b0316106134fd5760c0850180516001600160a01b03908116600090815260046020818152604080842060608c01805187168652908352818520828d0180516001600160f81b031990811688529185528387208e5163ffffffff90811689529086528488206001908101549a518a1689529686528488209351909816875291845282862091511685528252808420948816845293905291902001546134f89190615760565b613591565b6060850180516001600160a01b03908116600090815260046020818152604080842060c08c01805187168652908352818520828d0180516001600160f81b031990811688529185528387208e5163ffffffff90811689529086528488205499518916885295855283872092519097168652908352818520955116845293815283832091871683525220546135919190615760565b905060006135a28660600151613a4a565b6001600160781b0316905060006135b887613290565b90506000806135d085846001600160781b0316614730565b915091506000826135fe576001600160781b0384166135ef8688615a46565b6135f99190615a11565b613608565b6136088583615a46565b60008c8152600c602052604090205490915061362490826155d4565b9b9a5050505050505050505050565b600061103160075460ff1690565b60008061365463ffffffff841685615a46565b90506001600160781b03811115611df257604051636b2f218360e01b815260040160405180910390fd5b6040516001600160a01b03808516602483015283166044820152606481018290526136b69085906323b872dd60e01b90608401612eab565b50505050565b6040805160e081018252600080825260208201819052918101829052606081018290526080810182905260a0810182905260c08101829052906137008787866131bc565b6040805160e0810190915263ffffffff8216815290915083906001600160601b03601883901c1690602081016137368986615900565b63ffffffff168152602001876001600160f81b03191681526020018a6001600160a01b031681526020018362ffffff168152602001826001600160601b03168152602001896001600160a01b0316815250935050505095945050505050565b6000806137a28585612d17565b6001600160a01b03808316600090815260016020908152604080832093851683529290522054919350915060f81b6001600160f81b031984821616613895576001600160f81b0319811661386057600954604051633faaed9d60e11b81526001600160a01b0385811660048301528481166024830152600160201b90920490911690637f55db3a90604401600060405180830381600087803b15801561384757600080fd5b505af115801561385b573d6000803e3d6000fd5b505050505b6001600160a01b038381166000908152600160209081526040808320938616835292905220805460ff191685831760f81c1790555b505050505050565b6138ac85858585856001614778565b5050505050565b600060646127106138ca63ffffffff861685615a11565b6138d49190615a46565b611df29190615a46565b60408201516001600160f81b03191661390a5760405163673f032f60e11b815260040160405180910390fd5b600a5460405163823abfd960e01b815263010000009091046001600160a01b03169063823abfd99061394490869033908690600401615c92565b60206040518083038186803b15801561395c57600080fd5b505afa158015613970573d6000803e3d6000fd5b505050506040513d601f19601f820116820180604052508101906139949190615cb5565b61089557604051635c427cd960e01b815260040160405180910390fd5b8063ffffffff16826020015163ffffffff1611156109145761091482606001518360c00151846040015185602001516139e987613290565b6000614778565b6139f8611027565b15613a155760405162461bcd60e51b81526004016107d6906157d3565b6007805460ff191660011790557f62e78cea01bee320cd4e420270b5ea74000d11b0c9f74754ebdbfc544b05a2586130ab3390565b6000816001600160a01b031663313ce5676040518163ffffffff1660e01b815260040160206040518083038186803b158015613a8557600080fd5b505afa158015613a99573d6000803e3d6000fd5b505050506040513d601f19601f82011682018060405250810190613abd9190615cd7565b61072190600a615dd8565b6001600160a01b0382811660009081526001602090815260408083209385168352929052908120548190819060f81b42600160f81b5b6001600160f81b031980821690841610801590613b2457506001600160f81b0319811615155b15613c5c57806001600160f81b0319168184166001600160f81b0319161415613c4e576001600160a01b038089166000908152600560209081526040808320938b1683529281528282206001600160f81b03198516835281528282208351608081018552815463ffffffff80821683526001600160e01b03600160201b9283900481169584019590955260019093015492831695820195909552939004166060830152613bd0836132c1565b90508363ffffffff1681828460400151613bea9190615de7565b613bf5906001615900565b613bff9190615e0a565b63ffffffff161115613c12575050613c5c565b602082015195831795613c2e906001600160e01b0316896155d4565b975081606001516001600160e01b031687613c4991906155d4565b965050505b60011b607f60f91b16613afe565b85158015613c68575084155b15613c7257600093505b5050509250925092565b60405163a513355f60e01b81526001600160a01b0385811660048301526001600160801b03841660248301528681166044830152600091829184169063a513355f9060640160206040518083038186803b158015613cd957600080fd5b505afa158015613ced573d6000803e3d6000fd5b505050506040513d601f19601f82011682018060405250810190613d119190615928565b905080613d1e8686615a11565b613d289190615a46565b91509550959350505050565b600080613d418385613db6565b613d4b9086615a11565b9050613d578682615a46565b9150613d638682615e36565b15613d765781613d72816154f1565b9250505b50949350505050565b600082613d8f6127106064615e4a565b62ffffff16613d9e9190615c4b565b63ffffffff168363ffffffff16836138d49190615a11565b6000612710613dc6606485615de7565b613dd290612710615c4b565b6138d49063ffffffff1684615a11565b6001600160a01b03808716600090815260056020908152604080832093891683529281528282206001600160f81b0319881683528152908290208251608081018452815463ffffffff80821683526001600160e01b03600160201b92839004811695840186905260019094015490811695830195909552909304166060830152151580613e7c5750600081606001516001600160e01b0316115b15614139576001600160a01b038088166000908152600460209081526040808320938a1683529281528282206001600160f81b0319891683528152828220845163ffffffff168352815290829020825180840184528154815260019091015491810191909152815180830190925280519091908190613efc9088906155d4565b8152602001858360200151613f1191906155d4565b90526001600160a01b03808a166000908152600460209081526040808320938c1683529281528282206001600160f81b03198b16835290529081208451909190613f5c906001615900565b63ffffffff1681526020808201929092526040908101600090812084518155938301516001909401939093556001600160a01b03808c16845260038352818420908b16845282528083206001600160f81b03198a168452909152812083518290613fc7906002615900565b63ffffffff1681526020808201929092526040908101600020815180830183529054600f81810b8352600160801b909104900b92810192909252805160808101909152845191925090819061401d906001615900565b63ffffffff16815260200161403a85602001518460000151614b39565b6001600160e01b031681526020018563ffffffff16815260200161406685606001518460200151614b39565b6001600160e01b039081169091526001600160a01b03808c166000818152600560209081526040808320948f168084529482528083206001600160f81b03198f168085529083528184208851898501518916600160201b90810263ffffffff9283161783558a8501516060909b01519099169098029890971697909717600190960195909555918152600382528381209281529181528282209382529290925281208451909190614118906002615900565b63ffffffff1681526020810191909152604001600090812055506141749050565b6001600160a01b038088166000908152600160209081526040808320938a16835292905220805460f881811b881916901c60ff199091161790555b50505050505050565b60095463ffffffff90811690821611156141aa576040516314041af760e31b815260040160405180910390fd5b6141b5606482615e6c565b63ffffffff161561092d576040516358d620b360e01b815260040160405180910390fd5b6000848152600b6020908152604091829020825160e081018452815463ffffffff8082168352600160201b82041693820193909352600160401b830460f81b6001600160f81b03191693810193909352600160481b82046001600160a01b039081166060850152600160e81b90920462ffffff166080840152600101546001600160601b03811660a0840152600160601b9004811660c083015282161561428e8683836142875760016138de565b60006138de565b60006142a783606001518460c0015185604001516131bc565b905060006142b5848361325e565b90506000836142cd576142c88883615760565b6142d7565b6142d788836155d4565b905080158015906142ec575063ffffffff8716155b1561430a57604051633c92196b60e11b815260040160405180910390fd5b8015801561431e575060008763ffffffff16115b1561432857600096505b600063ffffffff881615614345576143408289613641565b614348565b60005b60008b8152600b602052604081206001810180546bffffffffffffffffffffffff19166001600160601b03601886901c1617905580546001600160e81b0316600160e81b62ffffff8516021790559091506143a38986615900565b60008c8152600b60205260409020805463ffffffff808416600160201b0267ffffffffffffffff199092169089161717905590506143e28b88876133d5565b60008c8152600c60205260409020556143fb87866139b1565b61441487606001518860c001518960400151848661389d565b8515614439576060870151614434906001600160a01b031633308d61367e565b614452565b6060870151614452906001600160a01b0316898c612e7f565b337f1e52a79a98c3fbf6230e862913323047a9c0ec511d2c289b1eeeeb9cc97c5bea8c84614481896001615900565b604080519384526001600160781b0392909216602084015263ffffffff9081168383015285166060830152519081900360800190a25050505050505050505050565b6000614518826040518060400160405280602081526020017f5361666545524332303a206c6f772d6c6576656c2063616c6c206661696c6564815250856001600160a01b0316614b799092919063ffffffff16565b80519091501561089557808060200190518101906145369190615cb5565b6108955760405162461bcd60e51b815260206004820152602a60248201527f5361666545524332303a204552433230206f7065726174696f6e20646964206e6044820152691bdd081cdd58d8d9595960b21b60648201526084016107d6565b606060006145a4836002615a11565b6145af9060026155d4565b6001600160401b038111156145c6576145c6615555565b6040519080825280601f01601f1916602001820160405280156145f0576020820181803683370190505b509050600360fc1b8160008151811061460b5761460b6154c5565b60200101906001600160f81b031916908160001a905350600f60fb1b8160018151811061463a5761463a6154c5565b60200101906001600160f81b031916908160001a905350600061465e846002615a11565b6146699060016155d4565b90505b60018111156146e1576f181899199a1a9b1b9c1cb0b131b232b360811b85600f166010811061469d5761469d6154c5565b1a60f81b8282815181106146b3576146b36154c5565b60200101906001600160f81b031916908160001a90535060049490941c936146da81615e8f565b905061466c565b508315611df25760405162461bcd60e51b815260206004820181905260248201527f537472696e67733a20686578206c656e67746820696e73756666696369656e7460448201526064016107d6565b600080836147445750600190506000614771565b8383028385828161475757614757615a30565b041461476a576000809250925050614771565b6001925090505b9250929050565b60008161478e57826001600160781b03166147a0565b6147a06001600160781b038416615ea6565b9050856001600160a01b0316876001600160a01b0316101561497357811561484e576001600160a01b038781166000908152600560209081526040808320938a1683529281528282206001600160f81b03198916835290522080546001600160781b0385169190600490614825908490600160201b90046001600160e01b0316615ecd565b92506101000a8154816001600160e01b0302191690836001600160e01b031602179055506148d6565b6001600160a01b038781166000908152600560209081526040808320938a1683529281528282206001600160f81b03198916835290522080546001600160781b03851691906004906148b1908490600160201b90046001600160e01b0316615eef565b92506101000a8154816001600160e01b0302191690836001600160e01b031602179055505b6001600160a01b038088166000908152600360209081526040808320938a1683529281528282206001600160f81b0319891683529052908120829161491c876001615900565b63ffffffff168152602081019190915260400160009081208054909190614947908490600f0b615f0f565b92506101000a8154816001600160801b030219169083600f0b6001600160801b03160217905550614174565b8115614a08576001600160a01b038681166000908152600560209081526040808320938b1683529281528282206001600160f81b03198916835290522060010180546001600160781b03851691906004906149df908490600160201b90046001600160e01b0316615ecd565b92506101000a8154816001600160e01b0302191690836001600160e01b03160217905550614a93565b6001600160a01b038681166000908152600560209081526040808320938b1683529281528282206001600160f81b03198916835290522060010180546001600160781b0385169190600490614a6e908490600160201b90046001600160e01b0316615eef565b92506101000a8154816001600160e01b0302191690836001600160e01b031602179055505b6001600160a01b038087166000908152600360209081526040808320938b1683529281528282206001600160f81b03198916835290529081208291614ad9876001615900565b63ffffffff16815260208101919091526040016000208054601090614b09908490600160801b9004600f0b615f0f565b92506101000a8154816001600160801b030219169083600f0b6001600160801b0316021790555050505050505050565b60008082600f0b12614b5d57614b586001600160801b03831684615ecd565b611df2565b614b6682615ea6565b611df2906001600160801b031684615eef565b60606107a9848460008585843b614bd25760405162461bcd60e51b815260206004820152601d60248201527f416464726573733a2063616c6c20746f206e6f6e2d636f6e747261637400000060448201526064016107d6565b600080866001600160a01b03168587604051614bee9190615f5e565b60006040518083038185875af1925050503d8060008114614c2b576040519150601f19603f3d011682016040523d82523d6000602084013e614c30565b606091505b5091509150613d7282828660608315614c4a575081611df2565b825115614c5a5782518084602001fd5b8160405162461bcd60e51b81526004016107d69190615c18565b600060208284031215614c8657600080fd5b81356001600160e01b031981168114611df257600080fd5b6001600160a01b038116811461092d57600080fd5b80356001600160f81b031981168114614ccb57600080fd5b919050565b803563ffffffff81168114614ccb57600080fd5b60008060008060808587031215614cfa57600080fd5b8435614d0581614c9e565b93506020850135614d1581614c9e565b9250614d2360408601614cb3565b9150614d3160608601614cd0565b905092959194509250565b60008060408385031215614d4f57600080fd5b823591506020830135614d6181614c9e565b809150509250929050565b600060208284031215614d7e57600080fd5b5035919050565b60008083601f840112614d9757600080fd5b5081356001600160401b03811115614dae57600080fd5b6020830191508360208260051b850101111561477157600080fd5b60008060208385031215614ddc57600080fd5b82356001600160401b03811115614df257600080fd5b614dfe85828601614d85565b90969095509350505050565b600080600060408486031215614e1f57600080fd5b83356001600160401b03811115614e3557600080fd5b614e4186828701614d85565b9094509250506020840135614e5581614c9e565b809150509250925092565b60008083601f840112614e7257600080fd5b5081356001600160401b03811115614e8957600080fd5b6020830191508360208260061b850101111561477157600080fd5b600080600060408486031215614eb957600080fd5b83356001600160401b03811115614ecf57600080fd5b614e4186828701614e60565b60008060408385031215614eee57600080fd5b8235614ef981614c9e565b91506020830135614d6181614c9e565b60006101008201905060018060a01b0380845116835280602085015116602084015250604083015163ffffffff8082166040850152806060860151166060850152608085015160808501528060a08601511660a0850152505060c083015160c083015260e0830151614f8660e08401826001600160781b03169052565b5092915050565b60008060008060008060008060e0898b031215614fa957600080fd5b8835614fb481614c9e565b97506020890135614fc481614c9e565b965060408901359550614fd960608a01614cd0565b9450614fe760808a01614cd0565b935060a0890135614ff781614c9e565b925060c08901356001600160401b0381111561501257600080fd5b61501e8b828c01614d85565b999c989b5096995094979396929594505050565b60006020828403121561504457600080fd5b813561ffff81168114611df257600080fd5b60008083601f84011261506857600080fd5b5081356001600160401b0381111561507f57600080fd5b60208301915083602082850101111561477157600080fd5b6000806000806000606086880312156150af57600080fd5b85356001600160401b03808211156150c657600080fd5b6150d289838a01614e60565b9097509550602088013591506150e782614c9e565b909350604087013590808211156150fd57600080fd5b5061510a88828901615056565b969995985093965092949392505050565b60008060006060848603121561513057600080fd5b83359250602084013561514281614c9e565b91506040840135614e5581614c9e565b60006020828403121561516457600080fd5b8135611df281614c9e565b60008060006060848603121561518457600080fd5b833561518f81614c9e565b9250602084013561519f81614c9e565b91506151ad60408501614cb3565b90509250925092565b600080600080604085870312156151cc57600080fd5b84356001600160401b03808211156151e357600080fd5b6151ef88838901614d85565b9096509450602087013591508082111561520857600080fd5b5061521587828801614e60565b95989497509550505050565b8051604080845281518482018190526000926060916020918201918388019190865b8281101561528a57845180516001600160a01b0316855260208082015190860152604080820151908601526060908101519085015260808401948201949350600101615243565b50878101518984038a83015280518085529082019450600093820192505b8084101561530457845180516001600160a01b039081168552838201511683850152878101518885015286810151878501526080908101516001600160f81b03191690840152938101936001939093019260a0909201916152a8565b509098975050505050505050565b602081526000611df26020830184615221565b600080600080600080600080600060a08a8c03121561534357600080fd5b89356001600160401b038082111561535a57600080fd5b6153668d838e01614d85565b909b50995060208c013591508082111561537f57600080fd5b61538b8d838e01614e60565b909950975060408c01359150808211156153a457600080fd5b6153b08d838e01614d85565b909750955060608c013591506153c582614c9e565b90935060808b013590808211156153db57600080fd5b506153e88c828d01615056565b915080935050809150509295985092959850929598565b60006020828403121561541157600080fd5b611df282614cd0565b60008060006060848603121561542f57600080fd5b83359250602084013591506151ad60408501614cd0565b6000806000806080858703121561545c57600080fd5b843593506020850135925061547360408601614cd0565b9150606085013561548381614c9e565b939692955090935050565b6020808252601f908201527f5265656e7472616e637947756172643a207265656e7472616e742063616c6c00604082015260600190565b634e487b7160e01b600052603260045260246000fd5b634e487b7160e01b600052601160045260246000fd5b6000600019821415615505576155056154db565b5060010190565b60208082528181018390526000908460408401835b8681101561554a5763ffffffff61553784614cd0565b1682529183019190830190600101615521565b509695505050505050565b634e487b7160e01b600052604160045260246000fd5b60008235603e1983360301811261558157600080fd5b9190910192915050565b6000808335601e198436030181126155a257600080fd5b8301803591506001600160401b038211156155bc57600080fd5b6020019150600581901b360382131561477157600080fd5b600082198211156155e7576155e76154db565b500190565b6000808335601e1984360301811261560357600080fd5b83016020810192503590506001600160401b0381111561562257600080fd5b8060051b360383131561477157600080fd5b81835260006001600160fb1b0383111561564d57600080fd5b8260051b8083602087013760009401602001938452509192915050565b60008235603e1983360301811261568057600080fd5b90910192915050565b600081518084526020808501945080840160005b838110156156b95781518752958201959082019060010161569d565b509495945050505050565b60408082528181018490526000906060600586901b8401810190840187845b8881101561574b57868403605f190183526156fe828b61566a565b803561570981614c9e565b6001600160a01b031685526020615722828201836155ec565b925087828801526157368888018483615634565b965050938401939290920191506001016156e3565b5050508381036020850152613d728186615689565b600082821015615772576157726154db565b500390565b8183526000602080850194508260005b858110156156b957813561579a81614c9e565b6001600160a01b03168752818301358388015260409687019690910190600101615787565b6020815260006107a9602083018486615777565b60208082526010908201526f14185d5cd8589b194e881c185d5cd95960821b604082015260600190565b6004811061581b57634e487b7160e01b600052602160045260246000fd5b9052565b60006060808301878452602060018060a01b0380891682870152604084818801528388855260808801905060808960051b89010194508960005b8a8110156158ee57898703607f19018352615874828d61566a565b848801813561588281614c9e565b87168952615892828901836155ec565b8a8a018890529182905290915060008a8a015b838210156158d9578235600481106158bc57600080fd5b6158c682826157fd565b50918901916001919091019089016158a5565b99505050928601925090850190600101615859565b50949c9b505050505050505050505050565b600063ffffffff80831681851680830382111561591f5761591f6154db565b01949350505050565b60006020828403121561593a57600080fd5b5051919050565b81835281816020850137506000828201602090810191909152601f909101601f19169091010190565b6001600160a01b038716815260806020820181905260009061598f9083018789615777565b63ffffffff8616604084015282810360608401526159ae818587615941565b9998505050505050505050565b6040815260006159cf604083018587615777565b905063ffffffff83166020830152949350505050565b60ff8116811461092d57600080fd5b600060208284031215615a0657600080fd5b8135611df2816159e5565b6000816000190483118215151615615a2b57615a2b6154db565b500290565b634e487b7160e01b600052601260045260246000fd5b600082615a5557615a55615a30565b500490565b60008083128015600160ff1b850184121615615a7857615a786154db565b6001600160ff1b0384018313811615615a9357615a936154db565b50500390565b6001600160a01b0387168152608060208083018290528751918301829052600091888201919060a0850190845b81811015615b0d57845180516001600160a01b0316845260208082015190850152604080820151908501526060908101519084015260808301948401949250600101615ac6565b50508481036040860152615b2281898b615634565b9250505082810360608401526159ae818587615941565b606081526000615b4c6060830187615221565b8281036020840152615b5f818688615634565b91505063ffffffff8316604083015295945050505050565b60005b83811015615b92578181015183820152602001615b7a565b838111156136b65750506000910152565b7f416363657373436f6e74726f6c3a206163636f756e7420000000000000000000815260008351615bdb816017850160208801615b77565b7001034b99036b4b9b9b4b733903937b6329607d1b6017918401918201528351615c0c816028840160208801615b77565b01602801949350505050565b6020815260008251806020840152615c37816040850160208701615b77565b601f01601f19169190910160400192915050565b600063ffffffff83811690831681811015615c6857615c686154db565b039392505050565b60006001600160781b0380831681851680830382111561591f5761591f6154db565b8381526001600160a01b0383166020820152606081016107a960408301846157fd565b600060208284031215615cc757600080fd5b81518015158114611df257600080fd5b600060208284031215615ce957600080fd5b8151611df2816159e5565b600181815b80851115615d2f578160001904821115615d1557615d156154db565b80851615615d2257918102915b93841c9390800290615cf9565b509250929050565b600082615d4657506001610721565b81615d5357506000610721565b8160018114615d695760028114615d7357615d8f565b6001915050610721565b60ff841115615d8457615d846154db565b50506001821b610721565b5060208310610133831016604e8410600b8410161715615db2575081810a610721565b615dbc8383615cf4565b8060001904821115615dd057615dd06154db565b029392505050565b6000611df260ff841683615d37565b600063ffffffff80841680615dfe57615dfe615a30565b92169190910492915050565b600063ffffffff80831681851681830481118215151615615e2d57615e2d6154db565b02949350505050565b600082615e4557615e45615a30565b500690565b600062ffffff80831681851681830481118215151615615e2d57615e2d6154db565b600063ffffffff80841680615e8357615e83615a30565b92169190910692915050565b600081615e9e57615e9e6154db565b506000190190565b600081600f0b60016001607f1b0319811415615ec457615ec46154db565b60000392915050565b60006001600160e01b0382811684821680830382111561591f5761591f6154db565b60006001600160e01b0383811690831681811015615c6857615c686154db565b600081600f0b83600f0b600082128260016001607f1b0303821381151615615f3957615f396154db565b8260016001607f1b0319038212811615615f5557615f556154db565b50019392505050565b60008251615581818460208701615b7756fefb63867dc303889c4e19b6276d834e066500dd4210f4434d34089a246beec82aa2646970667358221220b0b105ca682b7d5059ba2fdb216e51b6099630895bae47f847069e4571b67aaa64736f6c63430008080033fb63867dc303889c4e19b6276d834e066500dd4210f4434d34089a246beec82a",
  "devdoc": {
    "kind": "dev",
    "methods": {
      "FEE_PRECISION()": {
        "details": "Cannot be modified",
        "returns": {
          "_0": "The fee precision"
        }
      },
      "accumRatio(address,address,bytes1,uint32)": {
        "details": "_tokenA and _tokenB may be passed in either tokenA/tokenB or tokenB/tokenA order",
        "params": {
          "_swapIntervalMask": "The byte representation of the swap interval to check",
          "_swapNumber": "The swap number to check",
          "_tokenA": "One of the pair's token",
          "_tokenB": "The other of the pair's token"
        },
        "returns": {
          "_0": "The sum of the ratios"
        }
      },
      "addSwapIntervalsToAllowedList(uint32[])": {
        "params": {
          "_swapIntervals": "The new swap intervals"
        }
      },
      "deposit(address,address,uint256,uint32,uint32,address,(address,uint8[])[])": {
        "details": "Will revert: With ZeroAddress if _from, _to or _owner are zero With InvalidToken if _from == _to With ZeroAmount if _amount is zero With AmountTooBig if _amount is too big With ZeroSwaps if _amountOfSwaps is zero With IntervalNotAllowed if _swapInterval is not allowed",
        "params": {
          "_amount": "How many \"from\" tokens will be swapped in total",
          "_amountOfSwaps": "How many swaps to execute for this position",
          "_from": "The address of the \"from\" token",
          "_owner": "The address of the owner of the position being created",
          "_swapInterval": "How frequently the position's swaps should be executed",
          "_to": "The address of the \"to\" token"
        },
        "returns": {
          "_0": "The id of the created position"
        }
      },
      "getNextSwapInfo(address[],(uint8,uint8)[])": {
        "details": "Will revert with: With InvalidTokens if _tokens are not sorted, or if there are duplicates With InvalidPairs if _pairs are not sorted (first by indexTokenA and then indexTokenB), or if indexTokenA >= indexTokenB for any pair",
        "params": {
          "_pairs": "The pairs that you want to swap. Each element of the list points to the index of the token in the _tokens array",
          "_tokens": "The tokens involved in the next swap"
        },
        "returns": {
          "_swapInformation": "The information about the next swap"
        }
      },
      "getRoleAdmin(bytes32)": {
        "details": "Returns the admin role that controls `role`. See {grantRole} and {revokeRole}. To change a role's admin, use {_setRoleAdmin}."
      },
      "grantRole(bytes32,address)": {
        "details": "Grants `role` to `account`. If `account` had not been already granted `role`, emits a {RoleGranted} event. Requirements: - the caller must have ``role``'s admin role."
      },
      "hasRole(bytes32,address)": {
        "details": "Returns `true` if `account` has been granted `role`."
      },
      "loan((address,uint256)[],address,bytes)": {
        "details": "Will revert: With Paused if loans are paused by protocol With InvalidTokens if the tokens in `_loan` are not sorted",
        "params": {
          "_data": "Any data that should be passed through to the callback",
          "_loan": "The amount to borrow in each token",
          "_to": "Address that will receive the loan. This address should be a contract that implements `IDCAPairLoanCallee`"
        }
      },
      "removeSwapIntervalsFromAllowedList(uint32[])": {
        "params": {
          "_swapIntervals": "The swap intervals to remove"
        }
      },
      "renounceRole(bytes32,address)": {
        "details": "Revokes `role` from the calling account. Roles are often managed via {grantRole} and {revokeRole}: this function's purpose is to provide a mechanism for accounts to lose their privileges if they are compromised (such as when a trusted device is misplaced). If the calling account had been granted `role`, emits a {RoleRevoked} event. Requirements: - the caller must be `account`."
      },
      "revokeRole(bytes32,address)": {
        "details": "Revokes `role` from `account`. If `account` had been granted `role`, emits a {RoleRevoked} event. Requirements: - the caller must have ``role``'s admin role."
      },
      "setOracle(address)": {
        "details": "Will revert with ZeroAddress if the zero address is passed",
        "params": {
          "_oracle": "The new oracle contract"
        }
      },
      "setPlatformFeeRatio(uint16)": {
        "details": "Will revert with HighPlatformFeeRatio if given ratio is too high",
        "params": {
          "_platformFeeRatio": "The new ratio"
        }
      },
      "supportsInterface(bytes4)": {
        "details": "See {IERC165-supportsInterface}."
      },
      "swap(address[],(uint8,uint8)[],uint256[],address,bytes)": {
        "details": "Will revert with: With InvalidTokens if _tokens are not sorted, or if there are duplicates With InvalidPairs if _pairs are not sorted (first by indexTokenA and then indexTokenB), or if indexTokenA >= indexTokenB for any pair Paused if swaps are paused by protocol NoSwapsToExecute if there are no swaps to execute for the given pairs LiquidityNotReturned if the required tokens were not back during the callback",
        "params": {
          "_borrow": "How much to borrow of each of the tokens in _tokens. The amount must match the position of the token in the _tokens array",
          "_data": "Bytes to send to the caller during the callback",
          "_pairsToSwap": "The pairs that you want to swap. Each element of the list points to the index of the token in the _tokens array",
          "_to": "Address to send the reward + the borrowed tokens",
          "_tokens": "The tokens involved in the next swap"
        }
      },
      "swapAmountDelta(address,address,bytes1,uint32)": {
        "details": "_tokenA and _tokenB may be passed in either tokenA/tokenB or tokenB/tokenA order",
        "params": {
          "_swapIntervalMask": "The byte representation of the swap interval to check",
          "_swapNumber": "The swap number to check",
          "_tokenA": "One of the pair's token",
          "_tokenB": "The other of the pair's token"
        },
        "returns": {
          "_0": "How much will the amount to swap differ, when compared to the swap just before this one"
        }
      },
      "swapData(address,address,bytes1)": {
        "details": "_tokenA and _tokenB may be passed in either tokenA/tokenB or tokenB/tokenA order",
        "params": {
          "_swapIntervalMask": "The byte representation of the swap interval to check",
          "_tokenA": "One of the pair's token",
          "_tokenB": "The other of the pair's token"
        },
        "returns": {
          "_0": "The swapping information"
        }
      },
      "terminate(uint256,address,address)": {
        "details": "Will revert: With InvalidPosition if _positionId is invalid With UnauthorizedCaller if the caller doesn't have access to the position With ZeroAddress if _recipientUnswapped or _recipientSwapped is zero",
        "params": {
          "_positionId": "The position's id",
          "_recipientSwapped": "The address to withdraw swapped tokens to",
          "_recipientUnswapped": "The address to withdraw unswapped tokens to"
        }
      },
      "userPosition(uint256)": {
        "params": {
          "_positionId": "The id of the position"
        },
        "returns": {
          "_userPosition": "The position itself"
        }
      },
      "withdrawFromPlatformBalance((address,uint256)[],address)": {
        "params": {
          "_amounts": "The amounts to withdraw",
          "_recipient": "The address that will receive the tokens"
        }
      },
      "withdrawSwapped(uint256,address)": {
        "details": "Will revert: With InvalidPosition if _positionId is invalid With UnauthorizedCaller if the caller doesn't have access to the position With ZeroAddress if recipient is zero",
        "params": {
          "_positionId": "The position's id",
          "_recipient": "The address to withdraw swapped tokens to"
        },
        "returns": {
          "_0": "How much was withdrawn"
        }
      },
      "withdrawSwappedMany((address,uint256[])[],address)": {
        "details": "Will revert: With InvalidPosition if any of the position ids are invalid With UnauthorizedCaller if the caller doesn't have access to the position to any of the given positions With ZeroAddress if recipient is zero With PositionDoesNotMatchToken if any of the positions do not match the token in their position set",
        "params": {
          "_positions": "A list positions, grouped by `to` token",
          "_recipient": "The address to withdraw swapped tokens to"
        }
      }
    },
    "version": 1
  },
  "userdoc": {
    "errors": {
      "AmountTooBig()": [
        {
          "notice": "Thrown when a user tries create or modify a position with an amount too big"
        }
      ],
      "HighFee()": [
        {
          "notice": "Thrown when trying to set a fee higher than the maximum allowed"
        }
      ],
      "HighPlatformFeeRatio()": [
        {
          "notice": "Thrown when trying to set a fee ratio that is higher that the maximum allowed"
        }
      ],
      "IntervalNotAllowed()": [
        {
          "notice": "Thrown when a user tries to create a position with a swap interval that is not allowed"
        }
      ],
      "InvalidFee()": [
        {
          "notice": "Thrown when trying to set a fee that is not multiple of 100"
        }
      ],
      "InvalidInterval()": [
        {
          "notice": "Thrown when a user tries convert and invalid interval to a byte representation"
        }
      ],
      "InvalidMask()": [
        {
          "notice": "Thrown when a user tries convert and invalid byte representation to an interval"
        }
      ],
      "InvalidPairs()": [
        {
          "notice": "Thrown when pairs indexes are not sorted correctly"
        }
      ],
      "InvalidPosition()": [
        {
          "notice": "Thrown when a user tries operate on a position that doesn't exist (it might have been already terminated)"
        }
      ],
      "InvalidToken()": [
        {
          "notice": "Thrown when a user tries to create a position with the same `from` & `to`"
        }
      ],
      "InvalidTokens()": [
        {
          "notice": "Thrown when a list of token pairs is not sorted, or if there are duplicates"
        }
      ],
      "LiquidityNotReturned()": [
        {
          "notice": "Thrown when the expected liquidity is not returned, either in flash loans or swaps"
        }
      ],
      "NoSwapsToExecute()": [
        {
          "notice": "Thrown when trying to execute a swap, but there is nothing to swap"
        }
      ],
      "PositionDoesNotMatchToken()": [
        {
          "notice": "Thrown when a user tries to withdraw a position whose `to` token doesn't match the specified one"
        }
      ],
      "UnauthorizedCaller()": [
        {
          "notice": "Thrown when a user tries operate on a position that they don't have access to"
        }
      ],
      "ZeroAddress()": [
        {
          "notice": "Thrown when one of the parameters is a zero address"
        }
      ],
      "ZeroAmount()": [
        {
          "notice": "Thrown when a user tries to create a position with zero funds"
        }
      ],
      "ZeroSwaps()": [
        {
          "notice": "Thrown when a user tries to create a position with zero swaps"
        }
      ]
    },
    "events": {
      "Deposited(address,address,uint256,address,address,uint32,uint120,uint32,uint32)": {
        "notice": "Emitted when a position is created"
      },
      "LoanFeeSet(uint32)": {
        "notice": "Emitted when a new loan fee is set"
      },
      "Loaned(address,address,(address,uint256)[],uint32)": {
        "notice": "Emitted when a flash loan is executed"
      },
      "Modified(address,uint256,uint120,uint32,uint32)": {
        "notice": "Emitted when a position is modified"
      },
      "OracleSet(address)": {
        "notice": "Emitted when a new oracle is set"
      },
      "PlatformFeeRatioSet(uint16)": {
        "notice": "Emitted when a new platform fee ratio is set"
      },
      "SwapFeeSet(uint32)": {
        "notice": "Emitted when a new swap fee is set"
      },
      "SwapIntervalsAllowed(uint32[])": {
        "notice": "Emitted when new swap intervals are allowed"
      },
      "SwapIntervalsForbidden(uint32[])": {
        "notice": "Emitted when some swap intervals are no longer allowed"
      },
      "Swapped(address,address,((address,uint256,uint256,uint256)[],(address,address,uint256,uint256,bytes1)[]),uint256[],uint32)": {
        "notice": "Emitted when a swap is executed"
      },
      "Terminated(address,address,address,uint256,uint256,uint256)": {
        "notice": "Emitted when a position is terminated"
      },
      "Withdrew(address,address,uint256,address,uint256)": {
        "notice": "Emitted when a user withdraws all swapped tokens from a position"
      },
      "WithdrewFromPlatform(address,address,(address,uint256)[])": {
        "notice": "Emitted when someone withdraws from the paltform balance"
      },
      "WithdrewMany(address,address,(address,uint256[])[],uint256[])": {
        "notice": "Emitted when a user withdraws all swapped tokens from many positions"
      }
    },
    "kind": "user",
    "methods": {
      "FEE_PRECISION()": {
        "notice": "Returns the precision used for fees. In other terms, how a 1% fee would look like"
      },
      "MAX_FEE()": {
        "notice": "Returns the max fee that can be set for either swap or loans"
      },
      "MAX_PLATFORM_FEE_RATIO()": {
        "notice": "Returns the max fee ratio that can be set"
      },
      "accumRatio(address,address,bytes1,uint32)": {
        "notice": "Returns the sum of the ratios reported in all swaps executed until the given swap number"
      },
      "addSwapIntervalsToAllowedList(uint32[])": {
        "notice": "Adds new swap intervals to the allowed list"
      },
      "allowedSwapIntervals()": {
        "notice": "Returns a byte that represents allowed swap intervals"
      },
      "deposit(address,address,uint256,uint32,uint32,address,(address,uint8[])[])": {
        "notice": "Creates a new position"
      },
      "getNextSwapInfo(address[],(uint8,uint8)[])": {
        "notice": "Returns all information related to the next swap"
      },
      "loan((address,uint256)[],address,bytes)": {
        "notice": "Executes a flash loan, sending the required amounts to the specified loan recipient"
      },
      "loanFee()": {
        "notice": "Returns the fee charged on loans"
      },
      "oracle()": {
        "notice": "Returns the price oracle contract"
      },
      "pause()": {
        "notice": "Pauses all swaps and loans"
      },
      "platformFeeRatio()": {
        "notice": "Returns how much will the platform take from the fees collected in swaps"
      },
      "removeSwapIntervalsFromAllowedList(uint32[])": {
        "notice": "Removes some swap intervals from the allowed list"
      },
      "setOracle(address)": {
        "notice": "Sets a new price oracle"
      },
      "setPlatformFeeRatio(uint16)": {
        "notice": "Sets a new platform fee ratio"
      },
      "swap(address[],(uint8,uint8)[],uint256[],address,bytes)": {
        "notice": "Executes a flash swap"
      },
      "swapAmountDelta(address,address,bytes1,uint32)": {
        "notice": "Returns how much will the amount to swap differ from the previous swap. f.e. if the returned value is -100, then the amount to swap will be 100 less than the swap just before it"
      },
      "swapData(address,address,bytes1)": {
        "notice": "Returns swapping information about a specific pair"
      },
      "swapFee()": {
        "notice": "Returns the fee charged on swaps"
      },
      "terminate(uint256,address,address)": {
        "notice": "Terminates the position and sends all unswapped and swapped balance to the specified recipients"
      },
      "unpause()": {
        "notice": "Unpauses all swaps and loans"
      },
      "userPosition(uint256)": {
        "notice": "Returns a user position"
      },
      "withdrawFromPlatformBalance((address,uint256)[],address)": {
        "notice": "Withdraws tokens from the platform balance"
      },
      "withdrawSwapped(uint256,address)": {
        "notice": "Withdraws all swapped tokens from a position to a recipient"
      },
      "withdrawSwappedMany((address,uint256[])[],address)": {
        "notice": "Withdraws all swapped tokens from multiple positions"
      }
    },
    "version": 1
  },
  "storageLayout": {
    "storage": [
      {
        "astId": 1013,
        "contract": "contracts/DCAHub/DCAHub.sol:DCAHub",
        "label": "_status",
        "offset": 0,
        "slot": "0",
        "type": "t_uint256"
      },
      {
        "astId": 5687,
        "contract": "contracts/DCAHub/DCAHub.sol:DCAHub",
        "label": "activeSwapIntervals",
        "offset": 0,
        "slot": "1",
        "type": "t_mapping(t_address,t_mapping(t_address,t_bytes1))"
      },
      {
        "astId": 5691,
        "contract": "contracts/DCAHub/DCAHub.sol:DCAHub",
        "label": "platformBalance",
        "offset": 0,
        "slot": "2",
        "type": "t_mapping(t_address,t_uint256)"
      },
      {
        "astId": 5702,
        "contract": "contracts/DCAHub/DCAHub.sol:DCAHub",
        "label": "_swapAmountDelta",
        "offset": 0,
        "slot": "3",
        "type": "t_mapping(t_address,t_mapping(t_address,t_mapping(t_bytes1,t_mapping(t_uint32,t_struct(SwapDelta)9505_storage))))"
      },
      {
        "astId": 5713,
        "contract": "contracts/DCAHub/DCAHub.sol:DCAHub",
        "label": "_accumRatio",
        "offset": 0,
        "slot": "4",
        "type": "t_mapping(t_address,t_mapping(t_address,t_mapping(t_bytes1,t_mapping(t_uint32,t_struct(AccumRatio)9510_storage))))"
      },
      {
        "astId": 5722,
        "contract": "contracts/DCAHub/DCAHub.sol:DCAHub",
        "label": "_swapData",
        "offset": 0,
        "slot": "5",
        "type": "t_mapping(t_address,t_mapping(t_address,t_mapping(t_bytes1,t_struct(SwapData)9500_storage)))"
      },
      {
        "astId": 555,
        "contract": "contracts/DCAHub/DCAHub.sol:DCAHub",
        "label": "_roles",
        "offset": 0,
        "slot": "6",
        "type": "t_mapping(t_bytes32,t_struct(RoleData)550_storage)"
      },
      {
        "astId": 928,
        "contract": "contracts/DCAHub/DCAHub.sol:DCAHub",
        "label": "_paused",
        "offset": 0,
        "slot": "7",
        "type": "t_bool"
      },
      {
        "astId": 5139,
        "contract": "contracts/DCAHub/DCAHub.sol:DCAHub",
        "label": "IMMEDIATE_ROLE",
        "offset": 0,
        "slot": "8",
        "type": "t_bytes32"
      },
      {
        "astId": 5155,
        "contract": "contracts/DCAHub/DCAHub.sol:DCAHub",
        "label": "MAX_FEE",
        "offset": 0,
        "slot": "9",
        "type": "t_uint32"
      },
      {
        "astId": 5161,
        "contract": "contracts/DCAHub/DCAHub.sol:DCAHub",
        "label": "oracle",
        "offset": 4,
        "slot": "9",
        "type": "t_contract(IPriceOracle)10501"
      },
      {
        "astId": 5164,
        "contract": "contracts/DCAHub/DCAHub.sol:DCAHub",
        "label": "swapFee",
        "offset": 24,
        "slot": "9",
        "type": "t_uint32"
      },
      {
        "astId": 5167,
        "contract": "contracts/DCAHub/DCAHub.sol:DCAHub",
        "label": "loanFee",
        "offset": 28,
        "slot": "9",
        "type": "t_uint32"
      },
      {
        "astId": 5170,
        "contract": "contracts/DCAHub/DCAHub.sol:DCAHub",
        "label": "allowedSwapIntervals",
        "offset": 0,
        "slot": "10",
        "type": "t_bytes1"
      },
      {
        "astId": 5173,
        "contract": "contracts/DCAHub/DCAHub.sol:DCAHub",
        "label": "platformFeeRatio",
        "offset": 1,
        "slot": "10",
        "type": "t_uint16"
      },
      {
        "astId": 5972,
        "contract": "contracts/DCAHub/DCAHub.sol:DCAHub",
        "label": "permissionManager",
        "offset": 3,
        "slot": "10",
        "type": "t_contract(IDCAPermissionManager)10301"
      },
      {
        "astId": 5977,
        "contract": "contracts/DCAHub/DCAHub.sol:DCAHub",
        "label": "_userPositions",
        "offset": 0,
        "slot": "11",
        "type": "t_mapping(t_uint256,t_struct(DCA)5965_storage)"
      },
      {
        "astId": 5981,
        "contract": "contracts/DCAHub/DCAHub.sol:DCAHub",
        "label": "_swappedBeforeModified",
        "offset": 0,
        "slot": "12",
        "type": "t_mapping(t_uint256,t_uint256)"
      },
      {
        "astId": 5983,
        "contract": "contracts/DCAHub/DCAHub.sol:DCAHub",
        "label": "_idCounter",
        "offset": 0,
        "slot": "13",
        "type": "t_uint256"
      }
    ],
    "types": {
      "t_address": {
        "encoding": "inplace",
        "label": "address",
        "numberOfBytes": "20"
      },
      "t_bool": {
        "encoding": "inplace",
        "label": "bool",
        "numberOfBytes": "1"
      },
      "t_bytes1": {
        "encoding": "inplace",
        "label": "bytes1",
        "numberOfBytes": "1"
      },
      "t_bytes32": {
        "encoding": "inplace",
        "label": "bytes32",
        "numberOfBytes": "32"
      },
      "t_contract(IDCAPermissionManager)10301": {
        "encoding": "inplace",
        "label": "contract IDCAPermissionManager",
        "numberOfBytes": "20"
      },
      "t_contract(IPriceOracle)10501": {
        "encoding": "inplace",
        "label": "contract IPriceOracle",
        "numberOfBytes": "20"
      },
      "t_int128": {
        "encoding": "inplace",
        "label": "int128",
        "numberOfBytes": "16"
      },
      "t_mapping(t_address,t_bool)": {
        "encoding": "mapping",
        "key": "t_address",
        "label": "mapping(address => bool)",
        "numberOfBytes": "32",
        "value": "t_bool"
      },
      "t_mapping(t_address,t_bytes1)": {
        "encoding": "mapping",
        "key": "t_address",
        "label": "mapping(address => bytes1)",
        "numberOfBytes": "32",
        "value": "t_bytes1"
      },
      "t_mapping(t_address,t_mapping(t_address,t_bytes1))": {
        "encoding": "mapping",
        "key": "t_address",
        "label": "mapping(address => mapping(address => bytes1))",
        "numberOfBytes": "32",
        "value": "t_mapping(t_address,t_bytes1)"
      },
      "t_mapping(t_address,t_mapping(t_address,t_mapping(t_bytes1,t_mapping(t_uint32,t_struct(AccumRatio)9510_storage))))": {
        "encoding": "mapping",
        "key": "t_address",
        "label": "mapping(address => mapping(address => mapping(bytes1 => mapping(uint32 => struct IDCAHubParameters.AccumRatio))))",
        "numberOfBytes": "32",
        "value": "t_mapping(t_address,t_mapping(t_bytes1,t_mapping(t_uint32,t_struct(AccumRatio)9510_storage)))"
      },
      "t_mapping(t_address,t_mapping(t_address,t_mapping(t_bytes1,t_mapping(t_uint32,t_struct(SwapDelta)9505_storage))))": {
        "encoding": "mapping",
        "key": "t_address",
        "label": "mapping(address => mapping(address => mapping(bytes1 => mapping(uint32 => struct IDCAHubParameters.SwapDelta))))",
        "numberOfBytes": "32",
        "value": "t_mapping(t_address,t_mapping(t_bytes1,t_mapping(t_uint32,t_struct(SwapDelta)9505_storage)))"
      },
      "t_mapping(t_address,t_mapping(t_address,t_mapping(t_bytes1,t_struct(SwapData)9500_storage)))": {
        "encoding": "mapping",
        "key": "t_address",
        "label": "mapping(address => mapping(address => mapping(bytes1 => struct IDCAHubParameters.SwapData)))",
        "numberOfBytes": "32",
        "value": "t_mapping(t_address,t_mapping(t_bytes1,t_struct(SwapData)9500_storage))"
      },
      "t_mapping(t_address,t_mapping(t_bytes1,t_mapping(t_uint32,t_struct(AccumRatio)9510_storage)))": {
        "encoding": "mapping",
        "key": "t_address",
        "label": "mapping(address => mapping(bytes1 => mapping(uint32 => struct IDCAHubParameters.AccumRatio)))",
        "numberOfBytes": "32",
        "value": "t_mapping(t_bytes1,t_mapping(t_uint32,t_struct(AccumRatio)9510_storage))"
      },
      "t_mapping(t_address,t_mapping(t_bytes1,t_mapping(t_uint32,t_struct(SwapDelta)9505_storage)))": {
        "encoding": "mapping",
        "key": "t_address",
        "label": "mapping(address => mapping(bytes1 => mapping(uint32 => struct IDCAHubParameters.SwapDelta)))",
        "numberOfBytes": "32",
        "value": "t_mapping(t_bytes1,t_mapping(t_uint32,t_struct(SwapDelta)9505_storage))"
      },
      "t_mapping(t_address,t_mapping(t_bytes1,t_struct(SwapData)9500_storage))": {
        "encoding": "mapping",
        "key": "t_address",
        "label": "mapping(address => mapping(bytes1 => struct IDCAHubParameters.SwapData))",
        "numberOfBytes": "32",
        "value": "t_mapping(t_bytes1,t_struct(SwapData)9500_storage)"
      },
      "t_mapping(t_address,t_uint256)": {
        "encoding": "mapping",
        "key": "t_address",
        "label": "mapping(address => uint256)",
        "numberOfBytes": "32",
        "value": "t_uint256"
      },
      "t_mapping(t_bytes1,t_mapping(t_uint32,t_struct(AccumRatio)9510_storage))": {
        "encoding": "mapping",
        "key": "t_bytes1",
        "label": "mapping(bytes1 => mapping(uint32 => struct IDCAHubParameters.AccumRatio))",
        "numberOfBytes": "32",
        "value": "t_mapping(t_uint32,t_struct(AccumRatio)9510_storage)"
      },
      "t_mapping(t_bytes1,t_mapping(t_uint32,t_struct(SwapDelta)9505_storage))": {
        "encoding": "mapping",
        "key": "t_bytes1",
        "label": "mapping(bytes1 => mapping(uint32 => struct IDCAHubParameters.SwapDelta))",
        "numberOfBytes": "32",
        "value": "t_mapping(t_uint32,t_struct(SwapDelta)9505_storage)"
      },
      "t_mapping(t_bytes1,t_struct(SwapData)9500_storage)": {
        "encoding": "mapping",
        "key": "t_bytes1",
        "label": "mapping(bytes1 => struct IDCAHubParameters.SwapData)",
        "numberOfBytes": "32",
        "value": "t_struct(SwapData)9500_storage"
      },
      "t_mapping(t_bytes32,t_struct(RoleData)550_storage)": {
        "encoding": "mapping",
        "key": "t_bytes32",
        "label": "mapping(bytes32 => struct AccessControl.RoleData)",
        "numberOfBytes": "32",
        "value": "t_struct(RoleData)550_storage"
      },
      "t_mapping(t_uint256,t_struct(DCA)5965_storage)": {
        "encoding": "mapping",
        "key": "t_uint256",
        "label": "mapping(uint256 => struct DCAHubPositionHandler.DCA)",
        "numberOfBytes": "32",
        "value": "t_struct(DCA)5965_storage"
      },
      "t_mapping(t_uint256,t_uint256)": {
        "encoding": "mapping",
        "key": "t_uint256",
        "label": "mapping(uint256 => uint256)",
        "numberOfBytes": "32",
        "value": "t_uint256"
      },
      "t_mapping(t_uint32,t_struct(AccumRatio)9510_storage)": {
        "encoding": "mapping",
        "key": "t_uint32",
        "label": "mapping(uint32 => struct IDCAHubParameters.AccumRatio)",
        "numberOfBytes": "32",
        "value": "t_struct(AccumRatio)9510_storage"
      },
      "t_mapping(t_uint32,t_struct(SwapDelta)9505_storage)": {
        "encoding": "mapping",
        "key": "t_uint32",
        "label": "mapping(uint32 => struct IDCAHubParameters.SwapDelta)",
        "numberOfBytes": "32",
        "value": "t_struct(SwapDelta)9505_storage"
      },
      "t_struct(AccumRatio)9510_storage": {
        "encoding": "inplace",
        "label": "struct IDCAHubParameters.AccumRatio",
        "members": [
          {
            "astId": 9507,
            "contract": "contracts/DCAHub/DCAHub.sol:DCAHub",
            "label": "accumRatioAToB",
            "offset": 0,
            "slot": "0",
            "type": "t_uint256"
          },
          {
            "astId": 9509,
            "contract": "contracts/DCAHub/DCAHub.sol:DCAHub",
            "label": "accumRatioBToA",
            "offset": 0,
            "slot": "1",
            "type": "t_uint256"
          }
        ],
        "numberOfBytes": "64"
      },
      "t_struct(DCA)5965_storage": {
        "encoding": "inplace",
        "label": "struct DCAHubPositionHandler.DCA",
        "members": [
          {
            "astId": 5952,
            "contract": "contracts/DCAHub/DCAHub.sol:DCAHub",
            "label": "swapWhereLastUpdated",
            "offset": 0,
            "slot": "0",
            "type": "t_uint32"
          },
          {
            "astId": 5954,
            "contract": "contracts/DCAHub/DCAHub.sol:DCAHub",
            "label": "finalSwap",
            "offset": 4,
            "slot": "0",
            "type": "t_uint32"
          },
          {
            "astId": 5956,
            "contract": "contracts/DCAHub/DCAHub.sol:DCAHub",
            "label": "swapIntervalMask",
            "offset": 8,
            "slot": "0",
            "type": "t_bytes1"
          },
          {
            "astId": 5958,
            "contract": "contracts/DCAHub/DCAHub.sol:DCAHub",
            "label": "from",
            "offset": 9,
            "slot": "0",
            "type": "t_address"
          },
          {
            "astId": 5960,
            "contract": "contracts/DCAHub/DCAHub.sol:DCAHub",
            "label": "rateLower",
            "offset": 29,
            "slot": "0",
            "type": "t_uint24"
          },
          {
            "astId": 5962,
            "contract": "contracts/DCAHub/DCAHub.sol:DCAHub",
            "label": "rateHigher",
            "offset": 0,
            "slot": "1",
            "type": "t_uint96"
          },
          {
            "astId": 5964,
            "contract": "contracts/DCAHub/DCAHub.sol:DCAHub",
            "label": "to",
            "offset": 12,
            "slot": "1",
            "type": "t_address"
          }
        ],
        "numberOfBytes": "64"
      },
      "t_struct(RoleData)550_storage": {
        "encoding": "inplace",
        "label": "struct AccessControl.RoleData",
        "members": [
          {
            "astId": 547,
            "contract": "contracts/DCAHub/DCAHub.sol:DCAHub",
            "label": "members",
            "offset": 0,
            "slot": "0",
            "type": "t_mapping(t_address,t_bool)"
          },
          {
            "astId": 549,
            "contract": "contracts/DCAHub/DCAHub.sol:DCAHub",
            "label": "adminRole",
            "offset": 0,
            "slot": "1",
            "type": "t_bytes32"
          }
        ],
        "numberOfBytes": "64"
      },
      "t_struct(SwapData)9500_storage": {
        "encoding": "inplace",
        "label": "struct IDCAHubParameters.SwapData",
        "members": [
          {
            "astId": 9493,
            "contract": "contracts/DCAHub/DCAHub.sol:DCAHub",
            "label": "performedSwaps",
            "offset": 0,
            "slot": "0",
            "type": "t_uint32"
          },
          {
            "astId": 9495,
            "contract": "contracts/DCAHub/DCAHub.sol:DCAHub",
            "label": "nextAmountToSwapAToB",
            "offset": 4,
            "slot": "0",
            "type": "t_uint224"
          },
          {
            "astId": 9497,
            "contract": "contracts/DCAHub/DCAHub.sol:DCAHub",
            "label": "lastSwappedAt",
            "offset": 0,
            "slot": "1",
            "type": "t_uint32"
          },
          {
            "astId": 9499,
            "contract": "contracts/DCAHub/DCAHub.sol:DCAHub",
            "label": "nextAmountToSwapBToA",
            "offset": 4,
            "slot": "1",
            "type": "t_uint224"
          }
        ],
        "numberOfBytes": "64"
      },
      "t_struct(SwapDelta)9505_storage": {
        "encoding": "inplace",
        "label": "struct IDCAHubParameters.SwapDelta",
        "members": [
          {
            "astId": 9502,
            "contract": "contracts/DCAHub/DCAHub.sol:DCAHub",
            "label": "swapDeltaAToB",
            "offset": 0,
            "slot": "0",
            "type": "t_int128"
          },
          {
            "astId": 9504,
            "contract": "contracts/DCAHub/DCAHub.sol:DCAHub",
            "label": "swapDeltaBToA",
            "offset": 16,
            "slot": "0",
            "type": "t_int128"
          }
        ],
        "numberOfBytes": "32"
      },
      "t_uint16": {
        "encoding": "inplace",
        "label": "uint16",
        "numberOfBytes": "2"
      },
      "t_uint224": {
        "encoding": "inplace",
        "label": "uint224",
        "numberOfBytes": "28"
      },
      "t_uint24": {
        "encoding": "inplace",
        "label": "uint24",
        "numberOfBytes": "3"
      },
      "t_uint256": {
        "encoding": "inplace",
        "label": "uint256",
        "numberOfBytes": "32"
      },
      "t_uint32": {
        "encoding": "inplace",
        "label": "uint32",
        "numberOfBytes": "4"
      },
      "t_uint96": {
        "encoding": "inplace",
        "label": "uint96",
        "numberOfBytes": "12"
      }
    }
  }
}