{
  "address": "0x9BA4B15f833c70a74e0fCc18f36d3C6157dcf687",
  "abi": [
    {
      "inputs": [
        {
          "internalType": "address",
          "name": "_immediateGovernor",
          "type": "address"
        },
        {
          "internalType": "address",
          "name": "_timeLockedGovernor",
          "type": "address"
        },
        {
          "internalType": "contract IPriceOracle",
          "name": "_oracle",
          "type": "address"
        },
        {
          "internalType": "contract IDCAPermissionManager",
          "name": "_permissionManager",
          "type": "address"
        }
      ],
      "stateMutability": "nonpayable",
      "type": "constructor"
    },
    {
      "inputs": [],
      "name": "AmountTooBig",
      "type": "error"
    },
    {
      "inputs": [],
      "name": "HighFee",
      "type": "error"
    },
    {
      "inputs": [],
      "name": "HighPlatformFeeRatio",
      "type": "error"
    },
    {
      "inputs": [],
      "name": "IntervalNotAllowed",
      "type": "error"
    },
    {
      "inputs": [],
      "name": "InvalidFee",
      "type": "error"
    },
    {
      "inputs": [],
      "name": "InvalidInterval",
      "type": "error"
    },
    {
      "inputs": [],
      "name": "InvalidMask",
      "type": "error"
    },
    {
      "inputs": [],
      "name": "InvalidPairs",
      "type": "error"
    },
    {
      "inputs": [],
      "name": "InvalidPosition",
      "type": "error"
    },
    {
      "inputs": [],
      "name": "InvalidToken",
      "type": "error"
    },
    {
      "inputs": [],
      "name": "InvalidTokens",
      "type": "error"
    },
    {
      "inputs": [],
      "name": "LiquidityNotReturned",
      "type": "error"
    },
    {
      "inputs": [],
      "name": "NoSwapsToExecute",
      "type": "error"
    },
    {
      "inputs": [],
      "name": "PositionDoesNotMatchToken",
      "type": "error"
    },
    {
      "inputs": [],
      "name": "UnauthorizedCaller",
      "type": "error"
    },
    {
      "inputs": [],
      "name": "ZeroAddress",
      "type": "error"
    },
    {
      "inputs": [],
      "name": "ZeroAmount",
      "type": "error"
    },
    {
      "inputs": [],
      "name": "ZeroSwaps",
      "type": "error"
    },
    {
      "anonymous": false,
      "inputs": [
        {
          "indexed": true,
          "internalType": "address",
          "name": "depositor",
          "type": "address"
        },
        {
          "indexed": true,
          "internalType": "address",
          "name": "owner",
          "type": "address"
        },
        {
          "indexed": false,
          "internalType": "uint256",
          "name": "positionId",
          "type": "uint256"
        },
        {
          "indexed": false,
          "internalType": "address",
          "name": "fromToken",
          "type": "address"
        },
        {
          "indexed": false,
          "internalType": "address",
          "name": "toToken",
          "type": "address"
        },
        {
          "indexed": false,
          "internalType": "uint32",
          "name": "swapInterval",
          "type": "uint32"
        },
        {
          "indexed": false,
          "internalType": "uint120",
          "name": "rate",
          "type": "uint120"
        },
        {
          "indexed": false,
          "internalType": "uint32",
          "name": "startingSwap",
          "type": "uint32"
        },
        {
          "indexed": false,
          "internalType": "uint32",
          "name": "lastSwap",
          "type": "uint32"
        },
        {
          "components": [
            {
              "internalType": "address",
              "name": "operator",
              "type": "address"
            },
            {
              "internalType": "enum IDCAPermissionManager.Permission[]",
              "name": "permissions",
              "type": "uint8[]"
            }
          ],
          "indexed": false,
          "internalType": "struct IDCAPermissionManager.PermissionSet[]",
          "name": "permissions",
          "type": "tuple[]"
        }
      ],
      "name": "Deposited",
      "type": "event"
    },
    {
      "anonymous": false,
      "inputs": [
        {
          "indexed": false,
          "internalType": "uint256",
          "name": "positionId",
          "type": "uint256"
        },
        {
          "indexed": false,
          "internalType": "bytes",
          "name": "data",
          "type": "bytes"
        }
      ],
      "name": "Miscellaneous",
      "type": "event"
    },
    {
      "anonymous": false,
      "inputs": [
        {
          "indexed": true,
          "internalType": "address",
          "name": "user",
          "type": "address"
        },
        {
          "indexed": false,
          "internalType": "uint256",
          "name": "positionId",
          "type": "uint256"
        },
        {
          "indexed": false,
          "internalType": "uint120",
          "name": "rate",
          "type": "uint120"
        },
        {
          "indexed": false,
          "internalType": "uint32",
          "name": "startingSwap",
          "type": "uint32"
        },
        {
          "indexed": false,
          "internalType": "uint32",
          "name": "lastSwap",
          "type": "uint32"
        }
      ],
      "name": "Modified",
      "type": "event"
    },
    {
      "anonymous": false,
      "inputs": [
        {
          "indexed": false,
          "internalType": "contract IPriceOracle",
          "name": "_oracle",
          "type": "address"
        }
      ],
      "name": "OracleSet",
      "type": "event"
    },
    {
      "anonymous": false,
      "inputs": [
        {
          "indexed": false,
          "internalType": "address",
          "name": "account",
          "type": "address"
        }
      ],
      "name": "Paused",
      "type": "event"
    },
    {
      "anonymous": false,
      "inputs": [
        {
          "indexed": false,
          "internalType": "uint16",
          "name": "_platformFeeRatio",
          "type": "uint16"
        }
      ],
      "name": "PlatformFeeRatioSet",
      "type": "event"
    },
    {
      "anonymous": false,
      "inputs": [
        {
          "indexed": true,
          "internalType": "bytes32",
          "name": "role",
          "type": "bytes32"
        },
        {
          "indexed": true,
          "internalType": "bytes32",
          "name": "previousAdminRole",
          "type": "bytes32"
        },
        {
          "indexed": true,
          "internalType": "bytes32",
          "name": "newAdminRole",
          "type": "bytes32"
        }
      ],
      "name": "RoleAdminChanged",
      "type": "event"
    },
    {
      "anonymous": false,
      "inputs": [
        {
          "indexed": true,
          "internalType": "bytes32",
          "name": "role",
          "type": "bytes32"
        },
        {
          "indexed": true,
          "internalType": "address",
          "name": "account",
          "type": "address"
        },
        {
          "indexed": true,
          "internalType": "address",
          "name": "sender",
          "type": "address"
        }
      ],
      "name": "RoleGranted",
      "type": "event"
    },
    {
      "anonymous": false,
      "inputs": [
        {
          "indexed": true,
          "internalType": "bytes32",
          "name": "role",
          "type": "bytes32"
        },
        {
          "indexed": true,
          "internalType": "address",
          "name": "account",
          "type": "address"
        },
        {
          "indexed": true,
          "internalType": "address",
          "name": "sender",
          "type": "address"
        }
      ],
      "name": "RoleRevoked",
      "type": "event"
    },
    {
      "anonymous": false,
      "inputs": [
        {
          "indexed": false,
          "internalType": "uint32",
          "name": "_feeSet",
          "type": "uint32"
        }
      ],
      "name": "SwapFeeSet",
      "type": "event"
    },
    {
      "anonymous": false,
      "inputs": [
        {
          "indexed": false,
          "internalType": "uint32[]",
          "name": "_swapIntervals",
          "type": "uint32[]"
        }
      ],
      "name": "SwapIntervalsAllowed",
      "type": "event"
    },
    {
      "anonymous": false,
      "inputs": [
        {
          "indexed": false,
          "internalType": "uint32[]",
          "name": "_swapIntervals",
          "type": "uint32[]"
        }
      ],
      "name": "SwapIntervalsForbidden",
      "type": "event"
    },
    {
      "anonymous": false,
      "inputs": [
        {
          "indexed": true,
          "internalType": "address",
          "name": "sender",
          "type": "address"
        },
        {
          "indexed": true,
          "internalType": "address",
          "name": "rewardRecipient",
          "type": "address"
        },
        {
          "indexed": true,
          "internalType": "address",
          "name": "callbackHandler",
          "type": "address"
        },
        {
          "components": [
            {
              "components": [
                {
                  "internalType": "address",
                  "name": "token",
                  "type": "address"
                },
                {
                  "internalType": "uint256",
                  "name": "reward",
                  "type": "uint256"
                },
                {
                  "internalType": "uint256",
                  "name": "toProvide",
                  "type": "uint256"
                },
                {
                  "internalType": "uint256",
                  "name": "platformFee",
                  "type": "uint256"
                }
              ],
              "internalType": "struct IDCAHubSwapHandler.TokenInSwap[]",
              "name": "tokens",
              "type": "tuple[]"
            },
            {
              "components": [
                {
                  "internalType": "address",
                  "name": "tokenA",
                  "type": "address"
                },
                {
                  "internalType": "address",
                  "name": "tokenB",
                  "type": "address"
                },
                {
                  "internalType": "uint256",
                  "name": "ratioAToB",
                  "type": "uint256"
                },
                {
                  "internalType": "uint256",
                  "name": "ratioBToA",
                  "type": "uint256"
                },
                {
                  "internalType": "bytes1",
                  "name": "intervalsInSwap",
                  "type": "bytes1"
                }
              ],
              "internalType": "struct IDCAHubSwapHandler.PairInSwap[]",
              "name": "pairs",
              "type": "tuple[]"
            }
          ],
          "indexed": false,
          "internalType": "struct IDCAHubSwapHandler.SwapInfo",
          "name": "swapInformation",
          "type": "tuple"
        },
        {
          "indexed": false,
          "internalType": "uint256[]",
          "name": "borrowed",
          "type": "uint256[]"
        },
        {
          "indexed": false,
          "internalType": "uint32",
          "name": "fee",
          "type": "uint32"
        }
      ],
      "name": "Swapped",
      "type": "event"
    },
    {
      "anonymous": false,
      "inputs": [
        {
          "indexed": true,
          "internalType": "address",
          "name": "user",
          "type": "address"
        },
        {
          "indexed": true,
          "internalType": "address",
          "name": "recipientUnswapped",
          "type": "address"
        },
        {
          "indexed": true,
          "internalType": "address",
          "name": "recipientSwapped",
          "type": "address"
        },
        {
          "indexed": false,
          "internalType": "uint256",
          "name": "positionId",
          "type": "uint256"
        },
        {
          "indexed": false,
          "internalType": "uint256",
          "name": "returnedUnswapped",
          "type": "uint256"
        },
        {
          "indexed": false,
          "internalType": "uint256",
          "name": "returnedSwapped",
          "type": "uint256"
        }
      ],
      "name": "Terminated",
      "type": "event"
    },
    {
      "anonymous": false,
      "inputs": [
        {
          "indexed": false,
          "internalType": "address",
          "name": "account",
          "type": "address"
        }
      ],
      "name": "Unpaused",
      "type": "event"
    },
    {
      "anonymous": false,
      "inputs": [
        {
          "indexed": true,
          "internalType": "address",
          "name": "withdrawer",
          "type": "address"
        },
        {
          "indexed": true,
          "internalType": "address",
          "name": "recipient",
          "type": "address"
        },
        {
          "indexed": false,
          "internalType": "uint256",
          "name": "positionId",
          "type": "uint256"
        },
        {
          "indexed": false,
          "internalType": "address",
          "name": "token",
          "type": "address"
        },
        {
          "indexed": false,
          "internalType": "uint256",
          "name": "amount",
          "type": "uint256"
        }
      ],
      "name": "Withdrew",
      "type": "event"
    },
    {
      "anonymous": false,
      "inputs": [
        {
          "indexed": true,
          "internalType": "address",
          "name": "sender",
          "type": "address"
        },
        {
          "indexed": true,
          "internalType": "address",
          "name": "recipient",
          "type": "address"
        },
        {
          "components": [
            {
              "internalType": "address",
              "name": "token",
              "type": "address"
            },
            {
              "internalType": "uint256",
              "name": "amount",
              "type": "uint256"
            }
          ],
          "indexed": false,
          "internalType": "struct IDCAHub.AmountOfToken[]",
          "name": "amounts",
          "type": "tuple[]"
        }
      ],
      "name": "WithdrewFromPlatform",
      "type": "event"
    },
    {
      "anonymous": false,
      "inputs": [
        {
          "indexed": true,
          "internalType": "address",
          "name": "withdrawer",
          "type": "address"
        },
        {
          "indexed": true,
          "internalType": "address",
          "name": "recipient",
          "type": "address"
        },
        {
          "components": [
            {
              "internalType": "address",
              "name": "token",
              "type": "address"
            },
            {
              "internalType": "uint256[]",
              "name": "positionIds",
              "type": "uint256[]"
            }
          ],
          "indexed": false,
          "internalType": "struct IDCAHubPositionHandler.PositionSet[]",
          "name": "positions",
          "type": "tuple[]"
        },
        {
          "indexed": false,
          "internalType": "uint256[]",
          "name": "withdrew",
          "type": "uint256[]"
        }
      ],
      "name": "WithdrewMany",
      "type": "event"
    },
    {
      "inputs": [],
      "name": "DEFAULT_ADMIN_ROLE",
      "outputs": [
        {
          "internalType": "bytes32",
          "name": "",
          "type": "bytes32"
        }
      ],
      "stateMutability": "view",
      "type": "function"
    },
    {
      "inputs": [],
      "name": "IMMEDIATE_ROLE",
      "outputs": [
        {
          "internalType": "bytes32",
          "name": "",
          "type": "bytes32"
        }
      ],
      "stateMutability": "view",
      "type": "function"
    },
    {
      "inputs": [],
      "name": "MAX_FEE",
      "outputs": [
        {
          "internalType": "uint32",
          "name": "",
          "type": "uint32"
        }
      ],
      "stateMutability": "view",
      "type": "function"
    },
    {
      "inputs": [],
      "name": "MAX_PLATFORM_FEE_RATIO",
      "outputs": [
        {
          "internalType": "uint16",
          "name": "",
          "type": "uint16"
        }
      ],
      "stateMutability": "view",
      "type": "function"
    },
    {
      "inputs": [],
      "name": "PLATFORM_WITHDRAW_ROLE",
      "outputs": [
        {
          "internalType": "bytes32",
          "name": "",
          "type": "bytes32"
        }
      ],
      "stateMutability": "view",
      "type": "function"
    },
    {
      "inputs": [],
      "name": "TIME_LOCKED_ROLE",
      "outputs": [
        {
          "internalType": "bytes32",
          "name": "",
          "type": "bytes32"
        }
      ],
      "stateMutability": "view",
      "type": "function"
    },
    {
      "inputs": [
        {
          "internalType": "address",
          "name": "_tokenA",
          "type": "address"
        },
        {
          "internalType": "address",
          "name": "_tokenB",
          "type": "address"
        },
        {
          "internalType": "bytes1",
          "name": "_swapIntervalMask",
          "type": "bytes1"
        },
        {
          "internalType": "uint32",
          "name": "_swapNumber",
          "type": "uint32"
        }
      ],
      "name": "accumRatio",
      "outputs": [
        {
          "components": [
            {
              "internalType": "uint256",
              "name": "accumRatioAToB",
              "type": "uint256"
            },
            {
              "internalType": "uint256",
              "name": "accumRatioBToA",
              "type": "uint256"
            }
          ],
          "internalType": "struct IDCAHubParameters.AccumRatio",
          "name": "",
          "type": "tuple"
        }
      ],
      "stateMutability": "view",
      "type": "function"
    },
    {
      "inputs": [
        {
          "internalType": "address",
          "name": "",
          "type": "address"
        },
        {
          "internalType": "address",
          "name": "",
          "type": "address"
        }
      ],
      "name": "activeSwapIntervals",
      "outputs": [
        {
          "internalType": "bytes1",
          "name": "",
          "type": "bytes1"
        }
      ],
      "stateMutability": "view",
      "type": "function"
    },
    {
      "inputs": [
        {
          "internalType": "uint32[]",
          "name": "_swapIntervals",
          "type": "uint32[]"
        }
      ],
      "name": "addSwapIntervalsToAllowedList",
      "outputs": [],
      "stateMutability": "nonpayable",
      "type": "function"
    },
    {
      "inputs": [],
      "name": "allowedSwapIntervals",
      "outputs": [
        {
          "internalType": "bytes1",
          "name": "",
          "type": "bytes1"
        }
      ],
      "stateMutability": "view",
      "type": "function"
    },
    {
      "inputs": [
        {
          "internalType": "address",
          "name": "_from",
          "type": "address"
        },
        {
          "internalType": "address",
          "name": "_to",
          "type": "address"
        },
        {
          "internalType": "uint256",
          "name": "_amount",
          "type": "uint256"
        },
        {
          "internalType": "uint32",
          "name": "_amountOfSwaps",
          "type": "uint32"
        },
        {
          "internalType": "uint32",
          "name": "_swapInterval",
          "type": "uint32"
        },
        {
          "internalType": "address",
          "name": "_owner",
          "type": "address"
        },
        {
          "components": [
            {
              "internalType": "address",
              "name": "operator",
              "type": "address"
            },
            {
              "internalType": "enum IDCAPermissionManager.Permission[]",
              "name": "permissions",
              "type": "uint8[]"
            }
          ],
          "internalType": "struct IDCAPermissionManager.PermissionSet[]",
          "name": "_permissions",
          "type": "tuple[]"
        }
      ],
      "name": "deposit",
      "outputs": [
        {
          "internalType": "uint256",
          "name": "",
          "type": "uint256"
        }
      ],
      "stateMutability": "nonpayable",
      "type": "function"
    },
    {
      "inputs": [
        {
          "internalType": "address",
          "name": "_from",
          "type": "address"
        },
        {
          "internalType": "address",
          "name": "_to",
          "type": "address"
        },
        {
          "internalType": "uint256",
          "name": "_amount",
          "type": "uint256"
        },
        {
          "internalType": "uint32",
          "name": "_amountOfSwaps",
          "type": "uint32"
        },
        {
          "internalType": "uint32",
          "name": "_swapInterval",
          "type": "uint32"
        },
        {
          "internalType": "address",
          "name": "_owner",
          "type": "address"
        },
        {
          "components": [
            {
              "internalType": "address",
              "name": "operator",
              "type": "address"
            },
            {
              "internalType": "enum IDCAPermissionManager.Permission[]",
              "name": "permissions",
              "type": "uint8[]"
            }
          ],
          "internalType": "struct IDCAPermissionManager.PermissionSet[]",
          "name": "_permissions",
          "type": "tuple[]"
        },
        {
          "internalType": "bytes",
          "name": "_miscellaneous",
          "type": "bytes"
        }
      ],
      "name": "deposit",
      "outputs": [
        {
          "internalType": "uint256",
          "name": "_positionId",
          "type": "uint256"
        }
      ],
      "stateMutability": "nonpayable",
      "type": "function"
    },
    {
      "inputs": [
        {
          "internalType": "address[]",
          "name": "_tokens",
          "type": "address[]"
        },
        {
          "components": [
            {
              "internalType": "uint8",
              "name": "indexTokenA",
              "type": "uint8"
            },
            {
              "internalType": "uint8",
              "name": "indexTokenB",
              "type": "uint8"
            }
          ],
          "internalType": "struct IDCAHubSwapHandler.PairIndexes[]",
          "name": "_pairs",
          "type": "tuple[]"
        }
      ],
      "name": "getNextSwapInfo",
      "outputs": [
        {
          "components": [
            {
              "components": [
                {
                  "internalType": "address",
                  "name": "token",
                  "type": "address"
                },
                {
                  "internalType": "uint256",
                  "name": "reward",
                  "type": "uint256"
                },
                {
                  "internalType": "uint256",
                  "name": "toProvide",
                  "type": "uint256"
                },
                {
                  "internalType": "uint256",
                  "name": "platformFee",
                  "type": "uint256"
                }
              ],
              "internalType": "struct IDCAHubSwapHandler.TokenInSwap[]",
              "name": "tokens",
              "type": "tuple[]"
            },
            {
              "components": [
                {
                  "internalType": "address",
                  "name": "tokenA",
                  "type": "address"
                },
                {
                  "internalType": "address",
                  "name": "tokenB",
                  "type": "address"
                },
                {
                  "internalType": "uint256",
                  "name": "ratioAToB",
                  "type": "uint256"
                },
                {
                  "internalType": "uint256",
                  "name": "ratioBToA",
                  "type": "uint256"
                },
                {
                  "internalType": "bytes1",
                  "name": "intervalsInSwap",
                  "type": "bytes1"
                }
              ],
              "internalType": "struct IDCAHubSwapHandler.PairInSwap[]",
              "name": "pairs",
              "type": "tuple[]"
            }
          ],
          "internalType": "struct IDCAHubSwapHandler.SwapInfo",
          "name": "_swapInformation",
          "type": "tuple"
        }
      ],
      "stateMutability": "view",
      "type": "function"
    },
    {
      "inputs": [
        {
          "internalType": "bytes32",
          "name": "role",
          "type": "bytes32"
        }
      ],
      "name": "getRoleAdmin",
      "outputs": [
        {
          "internalType": "bytes32",
          "name": "",
          "type": "bytes32"
        }
      ],
      "stateMutability": "view",
      "type": "function"
    },
    {
      "inputs": [
        {
          "internalType": "bytes32",
          "name": "role",
          "type": "bytes32"
        },
        {
          "internalType": "address",
          "name": "account",
          "type": "address"
        }
      ],
      "name": "grantRole",
      "outputs": [],
      "stateMutability": "nonpayable",
      "type": "function"
    },
    {
      "inputs": [
        {
          "internalType": "bytes32",
          "name": "role",
          "type": "bytes32"
        },
        {
          "internalType": "address",
          "name": "account",
          "type": "address"
        }
      ],
      "name": "hasRole",
      "outputs": [
        {
          "internalType": "bool",
          "name": "",
          "type": "bool"
        }
      ],
      "stateMutability": "view",
      "type": "function"
    },
    {
      "inputs": [
        {
          "internalType": "uint256",
          "name": "_positionId",
          "type": "uint256"
        },
        {
          "internalType": "uint256",
          "name": "_amount",
          "type": "uint256"
        },
        {
          "internalType": "uint32",
          "name": "_newAmountOfSwaps",
          "type": "uint32"
        }
      ],
      "name": "increasePosition",
      "outputs": [],
      "stateMutability": "nonpayable",
      "type": "function"
    },
    {
      "inputs": [
        {
          "internalType": "address",
          "name": "",
          "type": "address"
        }
      ],
      "name": "magnitude",
      "outputs": [
        {
          "internalType": "uint256",
          "name": "",
          "type": "uint256"
        }
      ],
      "stateMutability": "view",
      "type": "function"
    },
    {
      "inputs": [],
      "name": "oracle",
      "outputs": [
        {
          "internalType": "contract IPriceOracle",
          "name": "",
          "type": "address"
        }
      ],
      "stateMutability": "view",
      "type": "function"
    },
    {
      "inputs": [],
      "name": "pause",
      "outputs": [],
      "stateMutability": "nonpayable",
      "type": "function"
    },
    {
      "inputs": [],
      "name": "paused",
      "outputs": [
        {
          "internalType": "bool",
          "name": "",
          "type": "bool"
        }
      ],
      "stateMutability": "view",
      "type": "function"
    },
    {
      "inputs": [],
      "name": "permissionManager",
      "outputs": [
        {
          "internalType": "contract IDCAPermissionManager",
          "name": "",
          "type": "address"
        }
      ],
      "stateMutability": "view",
      "type": "function"
    },
    {
      "inputs": [
        {
          "internalType": "address",
          "name": "",
          "type": "address"
        }
      ],
      "name": "platformBalance",
      "outputs": [
        {
          "internalType": "uint256",
          "name": "",
          "type": "uint256"
        }
      ],
      "stateMutability": "view",
      "type": "function"
    },
    {
      "inputs": [],
      "name": "platformFeeRatio",
      "outputs": [
        {
          "internalType": "uint16",
          "name": "",
          "type": "uint16"
        }
      ],
      "stateMutability": "view",
      "type": "function"
    },
    {
      "inputs": [
        {
          "internalType": "uint256",
          "name": "_positionId",
          "type": "uint256"
        },
        {
          "internalType": "uint256",
          "name": "_amount",
          "type": "uint256"
        },
        {
          "internalType": "uint32",
          "name": "_newAmountOfSwaps",
          "type": "uint32"
        },
        {
          "internalType": "address",
          "name": "_recipient",
          "type": "address"
        }
      ],
      "name": "reducePosition",
      "outputs": [],
      "stateMutability": "nonpayable",
      "type": "function"
    },
    {
      "inputs": [
        {
          "internalType": "uint32[]",
          "name": "_swapIntervals",
          "type": "uint32[]"
        }
      ],
      "name": "removeSwapIntervalsFromAllowedList",
      "outputs": [],
      "stateMutability": "nonpayable",
      "type": "function"
    },
    {
      "inputs": [
        {
          "internalType": "bytes32",
          "name": "role",
          "type": "bytes32"
        },
        {
          "internalType": "address",
          "name": "account",
          "type": "address"
        }
      ],
      "name": "renounceRole",
      "outputs": [],
      "stateMutability": "nonpayable",
      "type": "function"
    },
    {
      "inputs": [
        {
          "internalType": "bytes32",
          "name": "role",
          "type": "bytes32"
        },
        {
          "internalType": "address",
          "name": "account",
          "type": "address"
        }
      ],
      "name": "revokeRole",
      "outputs": [],
      "stateMutability": "nonpayable",
      "type": "function"
    },
    {
      "inputs": [
        {
          "internalType": "contract IPriceOracle",
          "name": "_oracle",
          "type": "address"
        }
      ],
      "name": "setOracle",
      "outputs": [],
      "stateMutability": "nonpayable",
      "type": "function"
    },
    {
      "inputs": [
        {
          "internalType": "uint16",
          "name": "_platformFeeRatio",
          "type": "uint16"
        }
      ],
      "name": "setPlatformFeeRatio",
      "outputs": [],
      "stateMutability": "nonpayable",
      "type": "function"
    },
    {
      "inputs": [
        {
          "internalType": "uint32",
          "name": "_swapFee",
          "type": "uint32"
        }
      ],
      "name": "setSwapFee",
      "outputs": [],
      "stateMutability": "nonpayable",
      "type": "function"
    },
    {
      "inputs": [
        {
          "internalType": "bytes4",
          "name": "interfaceId",
          "type": "bytes4"
        }
      ],
      "name": "supportsInterface",
      "outputs": [
        {
          "internalType": "bool",
          "name": "",
          "type": "bool"
        }
      ],
      "stateMutability": "view",
      "type": "function"
    },
    {
      "inputs": [
        {
          "internalType": "address[]",
          "name": "_tokens",
          "type": "address[]"
        },
        {
          "components": [
            {
              "internalType": "uint8",
              "name": "indexTokenA",
              "type": "uint8"
            },
            {
              "internalType": "uint8",
              "name": "indexTokenB",
              "type": "uint8"
            }
          ],
          "internalType": "struct IDCAHubSwapHandler.PairIndexes[]",
          "name": "_pairsToSwap",
          "type": "tuple[]"
        },
        {
          "internalType": "address",
          "name": "_rewardRecipient",
          "type": "address"
        },
        {
          "internalType": "address",
          "name": "_callbackHandler",
          "type": "address"
        },
        {
          "internalType": "uint256[]",
          "name": "_borrow",
          "type": "uint256[]"
        },
        {
          "internalType": "bytes",
          "name": "_data",
          "type": "bytes"
        }
      ],
      "name": "swap",
      "outputs": [
        {
          "components": [
            {
              "components": [
                {
                  "internalType": "address",
                  "name": "token",
                  "type": "address"
                },
                {
                  "internalType": "uint256",
                  "name": "reward",
                  "type": "uint256"
                },
                {
                  "internalType": "uint256",
                  "name": "toProvide",
                  "type": "uint256"
                },
                {
                  "internalType": "uint256",
                  "name": "platformFee",
                  "type": "uint256"
                }
              ],
              "internalType": "struct IDCAHubSwapHandler.TokenInSwap[]",
              "name": "tokens",
              "type": "tuple[]"
            },
            {
              "components": [
                {
                  "internalType": "address",
                  "name": "tokenA",
                  "type": "address"
                },
                {
                  "internalType": "address",
                  "name": "tokenB",
                  "type": "address"
                },
                {
                  "internalType": "uint256",
                  "name": "ratioAToB",
                  "type": "uint256"
                },
                {
                  "internalType": "uint256",
                  "name": "ratioBToA",
                  "type": "uint256"
                },
                {
                  "internalType": "bytes1",
                  "name": "intervalsInSwap",
                  "type": "bytes1"
                }
              ],
              "internalType": "struct IDCAHubSwapHandler.PairInSwap[]",
              "name": "pairs",
              "type": "tuple[]"
            }
          ],
          "internalType": "struct IDCAHubSwapHandler.SwapInfo",
          "name": "_swapInformation",
          "type": "tuple"
        }
      ],
      "stateMutability": "nonpayable",
      "type": "function"
    },
    {
      "inputs": [
        {
          "internalType": "address",
          "name": "_tokenA",
          "type": "address"
        },
        {
          "internalType": "address",
          "name": "_tokenB",
          "type": "address"
        },
        {
          "internalType": "bytes1",
          "name": "_swapIntervalMask",
          "type": "bytes1"
        },
        {
          "internalType": "uint32",
          "name": "_swapNumber",
          "type": "uint32"
        }
      ],
      "name": "swapAmountDelta",
      "outputs": [
        {
          "components": [
            {
              "internalType": "uint128",
              "name": "swapDeltaAToB",
              "type": "uint128"
            },
            {
              "internalType": "uint128",
              "name": "swapDeltaBToA",
              "type": "uint128"
            }
          ],
          "internalType": "struct IDCAHubParameters.SwapDelta",
          "name": "",
          "type": "tuple"
        }
      ],
      "stateMutability": "view",
      "type": "function"
    },
    {
      "inputs": [
        {
          "internalType": "address",
          "name": "_tokenA",
          "type": "address"
        },
        {
          "internalType": "address",
          "name": "_tokenB",
          "type": "address"
        },
        {
          "internalType": "bytes1",
          "name": "_swapIntervalMask",
          "type": "bytes1"
        }
      ],
      "name": "swapData",
      "outputs": [
        {
          "components": [
            {
              "internalType": "uint32",
              "name": "performedSwaps",
              "type": "uint32"
            },
            {
              "internalType": "uint224",
              "name": "nextAmountToSwapAToB",
              "type": "uint224"
            },
            {
              "internalType": "uint32",
              "name": "lastSwappedAt",
              "type": "uint32"
            },
            {
              "internalType": "uint224",
              "name": "nextAmountToSwapBToA",
              "type": "uint224"
            }
          ],
          "internalType": "struct IDCAHubParameters.SwapData",
          "name": "",
          "type": "tuple"
        }
      ],
      "stateMutability": "view",
      "type": "function"
    },
    {
      "inputs": [],
      "name": "swapFee",
      "outputs": [
        {
          "internalType": "uint32",
          "name": "",
          "type": "uint32"
        }
      ],
      "stateMutability": "view",
      "type": "function"
    },
    {
      "inputs": [
        {
          "internalType": "uint256",
          "name": "_positionId",
          "type": "uint256"
        },
        {
          "internalType": "address",
          "name": "_recipientUnswapped",
          "type": "address"
        },
        {
          "internalType": "address",
          "name": "_recipientSwapped",
          "type": "address"
        }
      ],
      "name": "terminate",
      "outputs": [
        {
          "internalType": "uint256",
          "name": "_unswapped",
          "type": "uint256"
        },
        {
          "internalType": "uint256",
          "name": "_swapped",
          "type": "uint256"
        }
      ],
      "stateMutability": "nonpayable",
      "type": "function"
    },
    {
      "inputs": [],
      "name": "totalCreatedPositions",
      "outputs": [
        {
          "internalType": "uint256",
          "name": "",
          "type": "uint256"
        }
      ],
      "stateMutability": "view",
      "type": "function"
    },
    {
      "inputs": [],
      "name": "unpause",
      "outputs": [],
      "stateMutability": "nonpayable",
      "type": "function"
    },
    {
      "inputs": [
        {
          "internalType": "uint256",
          "name": "_positionId",
          "type": "uint256"
        }
      ],
      "name": "userPosition",
      "outputs": [
        {
          "components": [
            {
              "internalType": "contract IERC20Metadata",
              "name": "from",
              "type": "address"
            },
            {
              "internalType": "contract IERC20Metadata",
              "name": "to",
              "type": "address"
            },
            {
              "internalType": "uint32",
              "name": "swapInterval",
              "type": "uint32"
            },
            {
              "internalType": "uint32",
              "name": "swapsExecuted",
              "type": "uint32"
            },
            {
              "internalType": "uint256",
              "name": "swapped",
              "type": "uint256"
            },
            {
              "internalType": "uint32",
              "name": "swapsLeft",
              "type": "uint32"
            },
            {
              "internalType": "uint256",
              "name": "remaining",
              "type": "uint256"
            },
            {
              "internalType": "uint120",
              "name": "rate",
              "type": "uint120"
            }
          ],
          "internalType": "struct IDCAHubPositionHandler.UserPosition",
          "name": "_userPosition",
          "type": "tuple"
        }
      ],
      "stateMutability": "view",
      "type": "function"
    },
    {
      "inputs": [
        {
          "components": [
            {
              "internalType": "address",
              "name": "token",
              "type": "address"
            },
            {
              "internalType": "uint256",
              "name": "amount",
              "type": "uint256"
            }
          ],
          "internalType": "struct IDCAHub.AmountOfToken[]",
          "name": "_amounts",
          "type": "tuple[]"
        },
        {
          "internalType": "address",
          "name": "_recipient",
          "type": "address"
        }
      ],
      "name": "withdrawFromPlatformBalance",
      "outputs": [],
      "stateMutability": "nonpayable",
      "type": "function"
    },
    {
      "inputs": [
        {
          "internalType": "uint256",
          "name": "_positionId",
          "type": "uint256"
        },
        {
          "internalType": "address",
          "name": "_recipient",
          "type": "address"
        }
      ],
      "name": "withdrawSwapped",
      "outputs": [
        {
          "internalType": "uint256",
          "name": "",
          "type": "uint256"
        }
      ],
      "stateMutability": "nonpayable",
      "type": "function"
    },
    {
      "inputs": [
        {
          "components": [
            {
              "internalType": "address",
              "name": "token",
              "type": "address"
            },
            {
              "internalType": "uint256[]",
              "name": "positionIds",
              "type": "uint256[]"
            }
          ],
          "internalType": "struct IDCAHubPositionHandler.PositionSet[]",
          "name": "_positions",
          "type": "tuple[]"
        },
        {
          "internalType": "address",
          "name": "_recipient",
          "type": "address"
        }
      ],
      "name": "withdrawSwappedMany",
      "outputs": [
        {
          "internalType": "uint256[]",
          "name": "_swapped",
          "type": "uint256[]"
        }
      ],
      "stateMutability": "nonpayable",
      "type": "function"
    }
  ],
  "transactionHash": "0x0c300d0565c34a6ebc33e6550cedcbf0a455b04984d28914a6dc0f9da75f3f30",
  "args": [
    "0x1a00e1E311009E56e3b0B9Ed6F86f5Ce128a1C01",
    "0x763BB5611A7e748f8434Ca69EDabE128bEcF9578",
    "0xB4Edfb45446C6A207643Ea846BFA42021cE5ae11",
    "0x230C63702D1B5034461ab2ca889a30E343D81349"
  ],
  "solcInputHash": "ca3fb414270702d3a96b36d73d940f9b",
  "bytecode": "0x60806040527f313f8c5ec4103e5607b5d8b3519ab06a512037396eaf72a07527d8b838012ed46009557ffb63867dc303889c4e19b6276d834e066500dd4210f4434d34089a246beec82a600a557f73c06b41830ea810d4e9dd3dfb0309555fbff1642391fb7644bc4a0b0f7a77fd600b55600c805466ffffffffffffff60a01b1916659c4f0000017760a41b1790553480156200009b57600080fd5b50604051620061df380380620061df833981016040819052620000be916200030c565b60016000556008805460ff19169055808484846001600160a01b0383161580620000ef57506001600160a01b038216155b806200010257506001600160a01b038116155b15620001215760405163d92e233d60e01b815260040160405180910390fd5b600954620001309084620001cc565b600a546200013f9083620001cc565b62000155600b54600a54620001dc60201b60201c565b600954620001649080620001dc565b600a54620001739080620001dc565b600c80546001600160a01b0319166001600160a01b039290921691909117905550620001a190508162000227565b600d80546001600160a01b0319166001600160a01b0392909216919091179055506200037492505050565b620001d8828262000252565b5050565b600082815260076020526040808220600101805490849055905190918391839186917fbd79b86ffe0ab8e8776151514217cd7cacd52c909f66475c3af44e129f0b00ff9190a4505050565b6001600160a01b0381166200024f5760405163d92e233d60e01b815260040160405180910390fd5b50565b60008281526007602090815260408083206001600160a01b038516845290915290205460ff16620001d85760008281526007602090815260408083206001600160a01b03851684529091529020805460ff19166001179055620002b23390565b6001600160a01b0316816001600160a01b0316837f2f8788117e7eff1d82e926ec794901d17c78024a50270940304540a733656f0d60405160405180910390a45050565b6001600160a01b03811681146200024f57600080fd5b600080600080608085870312156200032357600080fd5b84516200033081620002f6565b60208601519094506200034381620002f6565b60408601519093506200035681620002f6565b60608601519092506200036981620002f6565b939692955090935050565b615e5b80620003846000396000f3fe608060405234801561001057600080fd5b50600436106102e95760003560e01c8063638d3ba711610191578063a217fddf116100e3578063d2d95b2d11610097578063ded700a611610071578063ded700a614610748578063f1accf391461075b578063fc4481581461076e57600080fd5b8063d2d95b2d1461070f578063d547741f14610722578063d6d788c31461073557600080fd5b8063bc063e1a116100c8578063bc063e1a146106d2578063c67e32e9146106dc578063cc7a2049146106fc57600080fd5b8063a217fddf146106b7578063b2b513c1146106bf57600080fd5b80637d361dd311610145578063808ba8e01161011f578063808ba8e0146106125780638456cb591461067657806391d148541461067e57600080fd5b80637d361dd3146105cb5780637d8e8603146105d45780637dc0d1d0146105e757600080fd5b80636eefd134116101765780636eefd1341461057d57806372ada4c5146105905780637adbf973146105b857600080fd5b8063638d3ba71461054a5780636b29e1bd1461056a57600080fd5b80633feb14931161024a57806354cf2aeb116101fe578063582cf84b116101d8578063582cf84b146104f45780635b6fd01d146105225780635c975abb1461054257600080fd5b806354cf2aeb146104a0578063560c6499146104cc57806357ae1cec146104df57600080fd5b8063480e5da11161022f578063480e5da1146104305780634aa91aee1461045d5780634eeeb3eb1461049757600080fd5b80633feb1493146103fd578063480b37961461041057600080fd5b80632a2a1a74116102a157806336568abe1161028657806336568abe146103d957806336639580146103ec5780633f4ba83a146103f557600080fd5b80632a2a1a74146103a45780632f2ff15d146103c457600080fd5b806317621890116102d257806317621890146103445780631b8b8c3414610365578063248a9ca31461038157600080fd5b806301ffc9a7146102ee5780630b1aa98414610316575b600080fd5b6103016102fc366004614af0565b610777565b60405190151581526020015b60405180910390f35b610329610324366004614b6b565b6107ae565b6040805182518152602092830151928101929092520161030d565b610357610352366004614bc3565b610838565b60405190815260200161030d565b61036e61271081565b60405161ffff909116815260200161030d565b61035761038f366004614bf3565b60009081526007602052604090206001015490565b6103b76103b2366004614cd8565b610917565b60405161030d9190614eb4565b6103d76103d2366004614bc3565b610e6a565b005b6103d76103e7366004614bc3565b610e95565b61035760105481565b6103d7610f21565b6103d761040b366004614ec7565b610f39565b61042361041e366004614f09565b610ff9565b60405161030d9190614f9b565b600c5461044490600160c01b900460f81b81565b6040516001600160f81b0319909116815260200161030d565b61047061046b366004614b6b565b61127d565b6040805182516001600160801b03908116825260209384015116928101929092520161030d565b610357600a5481565b600c546104b790600160a01b900463ffffffff1681565b60405163ffffffff909116815260200161030d565b6103d76104da366004614fae565b611318565b600c5461036e90600160c81b900461ffff1681565b610444610502366004614fe6565b600160209081526000928352604080842090915290825290205460f81b81565b610535610530366004614bf3565b6114bc565b60405161030d9190615014565b610301611680565b610357610558366004615099565b60026020526000908152604090205481565b6103576105783660046150b6565b61168f565b6103d761058b36600461515c565b611ac7565b6105a361059e366004615180565b611b6d565b6040805192835260208301919091520161030d565b6103d76105c6366004615099565b611dff565b61035760095481565b6103d76105e2366004614ec7565b611e7b565b600c546105fa906001600160a01b031681565b6040516001600160a01b03909116815260200161030d565b6106256106203660046151b7565b611f15565b60405161030d9190600060808201905063ffffffff80845116835260208401516001600160e01b03808216602086015282604087015116604086015280606087015116606086015250505092915050565b6103d7611fd2565b61030161068c366004614bc3565b60009182526007602090815260408084206001600160a01b0393909316845291905290205460ff1690565b610357600081565b6103576106cd3660046151fe565b611fe7565b6104b7620186a081565b6103576106ea366004615099565b60036020526000908152604090205481565b600d546105fa906001600160a01b031681565b6103b761071d3660046152ae565b61204b565b6103d7610730366004614bc3565b6127cf565b6103d761074336600461531a565b6127f5565b6103d7610756366004615335565b612877565b6103d7610769366004615361565b61292d565b610357600b5481565b60006001600160e01b03198216637965db0b60e01b14806107a857506301ffc9a760e01b6001600160e01b03198316145b92915050565b60408051808201909152600080825260208201526000806107cf87876129a4565b6001600160a01b0391821660009081526005602090815260408083209390941682529182528281206001600160f81b031989168252825282812063ffffffff8816825282528290208251808401909352805483526001015490820152925050505b949350505050565b60006002600054036108915760405162461bcd60e51b815260206004820152601f60248201527f5265656e7472616e637947756172643a207265656e7472616e742063616c6c0060448201526064015b60405180910390fd5b600260005561089f826129d5565b6000806108ab856129fc565b915091506108ba818584612b12565b604080518681526001600160a01b0383811660208301529181018490529085169033907fcade65431cead780eb2b14b84a6594e1b235278a02e31abf3fc04c7c3e8ab4ee9060600160405180910390a35060016000559392505050565b604080518082019091526060808252602082015260026000540361097d5760405162461bcd60e51b815260206004820152601f60248201527f5265656e7472616e637947756172643a207265656e7472616e742063616c6c006044820152606401610888565b600260005561098a611680565b156109ca5760405162461bcd60e51b815260206004820152601060248201526f14185d5cd8589b194e881c185d5cd95960821b6044820152606401610888565b600c54600160a01b900463ffffffff166109e68c8c8c8c61204b565b9150426000805b846020015151811015610ad357600085602001518281518110610a1257610a126153a9565b60209081029190910101516080810151909150600160f81b5b6001600160f81b031980821690831610801590610a5157506001600160f81b0319811615155b15610aa6576001600160f81b03198282161615610a9857610a988360000151846020015183610a848b8860400151612b26565b610a928c8960600151612b26565b8b612b5c565b60011b607f60f91b16610a2b565b8480610abb57506001600160f81b0319821615155b94505050508080610acb906153d5565b9150506109ed565b5080610af2576040516346f8d7b160e11b815260040160405180910390fd5b505081515160009067ffffffffffffffff811115610b1257610b126153ee565b604051908082528060200260200182016040528015610b3b578160200160208202803683370190505b50905060005b835151811015610c5757600084600001518281518110610b6357610b636153a9565b602002602001015190506000898984818110610b8157610b816153a9565b905060200201359050600082604001511180610b9d5750600081115b15610bcc578151610bad90612f14565b848481518110610bbf57610bbf6153a9565b6020026020010181815250505b8a6001600160a01b03168c6001600160a01b031603610c12576000818360200151610bf79190615404565b90508015610c0c578251610c0c908d83612b12565b50610c42565b602082015115610c2f57610c2f82600001518d8460200151612b12565b8015610c42578151610c42908c83612b12565b50508080610c4f906153d5565b915050610b41565b508251604051632c0be4cf60e11b81526001600160a01b038a1691635817c99e91610c8e9133918c908c908c908c90600401615494565b600060405180830381600087803b158015610ca857600080fd5b505af1158015610cbc573d6000803e3d6000fd5b5050505060005b835151811015610df957600084600001518281518110610ce557610ce56153a9565b60200260200101519050600081606001519050600082604001511180610d23575060008a8a85818110610d1a57610d1a6153a9565b90506020020135115b15610daf57600082602001518360400151868681518110610d4657610d466153a9565b6020026020010151610d589190615404565b610d629190615542565b90506000610d738460000151612f14565b905081811015610d965760405163d562e29f60e01b815260040160405180910390fd5b610da08282615542565b610daa9084615404565b925050505b8015610de45781516001600160a01b031660009081526003602052604081208054839290610dde908490615404565b90915550505b50508080610df1906153d5565b915050610cc3565b50876001600160a01b0316896001600160a01b0316336001600160a01b03167fa1ec3a0d95701d84ce597ac1f6789b13a582504554c8aa7ec2be74470639c8e5868b8b88604051610e4d9493929190615559565b60405180910390a4505060016000559a9950505050505050505050565b600082815260076020526040902060010154610e868133612f7f565b610e908383612fff565b505050565b6001600160a01b0381163314610f135760405162461bcd60e51b815260206004820152602f60248201527f416363657373436f6e74726f6c3a2063616e206f6e6c792072656e6f756e636560448201527f20726f6c657320666f722073656c6600000000000000000000000000000000006064820152608401610888565b610f1d82826130a1565b5050565b600954610f2e8133612f7f565b610f36613124565b50565b600954610f468133612f7f565b60005b82811015610fba57610f80848483818110610f6657610f666153a9565b9050602002016020810190610f7b919061531a565b6131c2565b600c805460ff60c01b198116600160c01b9182900460f890811b9490941790931c0291909117905580610fb2816153d5565b915050610f49565b507fd691741464555eddf67afe8f82b0cbe92f8859926856aec4a48a106ceb1b1bee8383604051610fec929190615597565b60405180910390a1505050565b606060026000540361104d5760405162461bcd60e51b815260206004820152601f60248201527f5265656e7472616e637947756172643a207265656e7472616e742063616c6c006044820152606401610888565b600260005561105b826129d5565b8267ffffffffffffffff811115611074576110746153ee565b60405190808252806020026020018201604052801561109d578160200160208202803683370190505b50905060005b838110156112215760008585838181106110bf576110bf6153a9565b90506020028101906110d191906155e0565b6110df906020810190615099565b905060005b8686848181106110f6576110f66153a9565b905060200281019061110891906155e0565b611116906020810190615600565b90508110156111e957600080611173898987818110611137576111376153a9565b905060200281019061114991906155e0565b611157906020810190615600565b85818110611167576111676153a9565b905060200201356129fc565b91509150836001600160a01b0316816001600160a01b0316146111a95760405163305663b560e11b815260040160405180910390fd5b818686815181106111bc576111bc6153a9565b602002602001018181516111d09190615404565b9052508291506111e19050816153d5565b9150506110e4565b5061120e8185858581518110611201576112016153a9565b6020026020010151612b12565b5080611219816153d5565b9150506110a3565b50816001600160a01b0316336001600160a01b03167fdc1e0c1e1b707ce83f3d3a8c66a6abc1d23d95f81a61fc1f578355e0d968fd2d868685604051611269939291906156b2565b60405180910390a360016000559392505050565b604080518082019091526000808252602082015260008061129e87876129a4565b6001600160a01b0391821660009081526004602090815260408083209490931682529283528181206001600160f81b031989168252835281812063ffffffff8816825283528190208151808301909252546001600160801b038082168352600160801b909104169181019190915292505050949350505050565b60026000540361136a5760405162461bcd60e51b815260206004820152601f60248201527f5265656e7472616e637947756172643a207265656e7472616e742063616c6c006044820152606401610888565b6002600055600b5461137c8133612f7f565b60005b8381101561146357848482818110611399576113996153a9565b90506040020160200135600360008787858181106113b9576113b96153a9565b6113cf9260206040909202019081019150615099565b6001600160a01b03166001600160a01b0316815260200190815260200160002060008282546113fe9190615542565b909155506114519050858583818110611419576114196153a9565b61142f9260206040909202019081019150615099565b84878785818110611442576114426153a9565b90506040020160200135612b12565b8061145b816153d5565b91505061137f565b50816001600160a01b0316336001600160a01b03167fc372140441ddd3b3a7319bbc36cbc33b5600b15c211eda1d1fc9d35bb7ebb3a886866040516114a992919061574e565b60405180910390a3505060016000555050565b6040805161010081018252600080825260208201819052918101829052606081018290526080810182905260a0810182905260c0810182905260e08101919091526000828152600e60209081526040808320815160e081018352815463ffffffff808216835264010000000082041694820194909452600160401b840460f81b6001600160f81b031916928101839052600160481b84046001600160a01b0390811660608301819052600160e81b90950462ffffff1660808301526001909201546bffffffffffffffffffffffff811660a0830152600160601b900490911660c082018190529093926115b1929091906132ae565b905060006115c3828460200151613309565b60608401516001600160a01b03908116865260c085015116602086015283519091506115f090829061332a565b63ffffffff166060850152602083015161160a908361332a565b63ffffffff1660a085015261161f8383613350565b60c085015261162d83613382565b6001600160781b031660e085015260408301516001600160f81b031916156116785761165c83604001516133b8565b63ffffffff1660408501526116728584846134c4565b60808501525b505050919050565b600061168a61371d565b905090565b60006002600054036116e35760405162461bcd60e51b815260206004820152601f60248201527f5265656e7472616e637947756172643a207265656e7472616e742063616c6c006044820152606401610888565b60026000556116f0611680565b156117305760405162461bcd60e51b815260206004820152601060248201526f14185d5cd8589b194e881c185d5cd95960821b6044820152606401610888565b6001600160a01b038916158061174d57506001600160a01b038816155b8061175f57506001600160a01b038416155b1561177d5760405163d92e233d60e01b815260040160405180910390fd5b876001600160a01b0316896001600160a01b0316036117af5760405163c1ab6dc160e01b815260040160405180910390fd5b866000036117d057604051631f2a200560e01b815260040160405180910390fd5b8563ffffffff166000036117f757604051633c92196b60e11b815260040160405180910390fd5b6000611803888861372b565b90506000601060008154611816906153d5565b9182905550905060006118348c8c8b61182e8c6131c2565b87613768565b6040810151600c549192506001600160f81b0319600160c01b90920460f81b161660000361187557604051638b52594f60e01b815260040160405180910390fd5b600d546040516306d66a1360e31b81526001600160a01b03909116906336b35098906118ab9085908b908b908b90600401615881565b600060405180830381600087803b1580156118c557600080fd5b505af11580156118d9573d6000803e3d6000fd5b505050506118ec8c8c836040015161384b565b6119018c8c8360400151846020015187613957565b6000828152600e60209081526040918290208351815492850151938501516060860151608087015162ffffff16600160e81b027cffffffffffffffffffffffffffffffffffffffffffffffffffffffffff6001600160a01b03928316600160481b027fffffff0000000000000000000000000000000000000000ffffffffffffffffff60f89590951c600160401b02949094167fffffff000000000000000000000000000000000000000000ffffffffffffffff63ffffffff998a166401000000000267ffffffffffffffff199099169990961698909817969096179390931695909517179290921691909117815560a083015160c0840151909216600160601b026bffffffffffffffffffffffff90921691909117600190910155611a268c61396d565b611a2f8b61396d565b611a446001600160a01b038d1633308d613a22565b866001600160a01b0316336001600160a01b03167f1915b09a20b5793f1bd89b84dc928fe4ee36b0b9270ec217a3b2c278999f0967848f8f8d8988600001516001611a8f91906158b4565b89602001518f8f604051611aab999897969594939291906158dc565b60405180910390a35060016000559a9950505050505050505050565b600a54611ad48133612f7f565b61271061ffff83161115611afb576040516314bc5e9d60e21b815260040160405180910390fd5b600c80547fffffffffff0000ffffffffffffffffffffffffffffffffffffffffffffffffff16600160c81b61ffff8516908102919091179091556040519081527f6c234431526967795ada65665e195191d4b2fc63c9f564d1ea626478325ae9d9906020015b60405180910390a15050565b600080600260005403611bc25760405162461bcd60e51b815260206004820152601f60248201527f5265656e7472616e637947756172643a207265656e7472616e742063616c6c006044820152606401610888565b60026000556001600160a01b0384161580611be457506001600160a01b038316155b15611c025760405163d92e233d60e01b815260040160405180910390fd5b6000858152600e6020908152604091829020825160e081018452815463ffffffff808216835264010000000082041693820193909352600160401b830460f81b6001600160f81b03191693810193909352600160481b82046001600160a01b039081166060850152600160e81b90920462ffffff166080840152600101546bffffffffffffffffffffffff811660a0840152600160601b90041660c0820152611cad86826003613a93565b6000611cc682606001518360c0015184604001516132ae565b9050611cd38783836134c4565b9250611cdf8282613350565b9350611ceb8282613b54565b6000878152600e60209081526040808320838155600101839055600f90915280822091909155600d549051630852cd8d60e31b8152600481018990526001600160a01b03909116906342966c6890602401600060405180830381600087803b158015611d5657600080fd5b505af1158015611d6a573d6000803e3d6000fd5b505050506000831115611d8657611d868260c001518685612b12565b8315611d9b57611d9b82606001518786612b12565b60408051888152602081018690529081018490526001600160a01b03808716919088169033907f2577f709b454c4d5c1118a01186dd48d4a6bacf43fe4c26aad2f66a51bf5290d9060600160405180910390a4505060016000559094909350915050565b600a54611e0c8133612f7f565b611e15826129d5565b600c80547fffffffffffffffffffffffff0000000000000000000000000000000000000000166001600160a01b0384169081179091556040519081527f3f32684a32a11dabdbb8c0177de80aa3ae36a004d75210335b49e544e48cd0aa90602001611b61565b600954611e888133612f7f565b60005b82811015611ee357611ea8848483818110610f6657610f666153a9565b600c805460ff60c01b1981169219600160c01b9182900460f890811b91909116901c0291909117905580611edb816153d5565b915050611e8b565b507fd0359552feffede26fee29bd110dd8e1a3237acd35c7e17a9d3b7330b02f88258383604051610fec929190615597565b60408051608081018252600080825260208201819052918101829052606081018290529080611f4486866129a4565b6001600160a01b0391821660009081526006602090815260408083209390941682529182528281206001600160f81b03198816825282528290208251608081018452815463ffffffff80821683526001600160e01b036401000000009283900481169584019590955260019093015492831694820194909452929004166060820152925050505b9392505050565b600954611fdf8133612f7f565b610f36613b93565b6000611ff98b8b8b8b8b8b8b8b61168f565b9050811561203d577fa9c989cd063ac13a33305492ca3b3643f4bf38968e009d020c750e27b3ee287e8184846040516120349392919061594b565b60405180910390a15b9a9950505050505050505050565b6040805180820190915260608082526020820152600c5463ffffffff600160a01b820416906001600160a01b031660008667ffffffffffffffff811115612094576120946153ee565b6040519080825280602002602001820160405280156120bd578160200160208202803683370190505b50905060008767ffffffffffffffff8111156120db576120db6153ee565b604051908082528060200260200182016040528015612104578160200160208202803683370190505b5090508567ffffffffffffffff811115612120576121206153ee565b60405190808252806020026020018201604052801561217957816020015b6040805160a08101825260008082526020808301829052928201819052606082018190526080820152825260001990920191018161213e5790505b50602086015260005b8681101561252657600088888381811061219e5761219e6153a9565b6121b4926020604090920201908101915061597d565b905060008989848181106121ca576121ca6153a9565b90506040020160200160208101906121e2919061597d565b90508060ff168260ff161015806122be57506000831180156122be5750898961220c600186615542565b81811061221b5761221b6153a9565b612231926020604090920201908101915061597d565b60ff168260ff1610806122be5750898961224c600186615542565b81811061225b5761225b6153a9565b612271926020604090920201908101915061597d565b60ff168260ff161480156122be5750898961228d600186615542565b81811061229c5761229c6153a9565b90506040020160200160208101906122b4919061597d565b60ff168160ff1611155b156122dc57604051635dd49b5d60e01b815260040160405180910390fd5b6040805160a0810182526000808252602082018190529181018290526060810182905260808101919091528c8c8460ff1681811061231c5761231c6153a9565b90506020020160208101906123319190615099565b6001600160a01b031681528c8c60ff8416818110612351576123516153a9565b90506020020160208101906123669190615099565b6001600160a01b03908116602080840191825283518316600090815260029091526040808220549251909316815291909120548115806123a4575080155b156123c2576040516333910aef60e11b815260040160405180910390fd5b6000806123d785600001518660200151613c10565b6001600160f81b03191660808801528b51919350915082908b9060ff8a16908110612404576124046153a9565b602002602001018181516124189190615404565b905250895181908b9060ff8916908110612434576124346153a9565b602002602001018181516124489190615404565b9052508451602086015161245f919086868f613db9565b60608701819052604087019190915261247c90849083908f613e62565b898860ff1681518110612491576124916153a9565b602002602001018181516124a59190615404565b90525060408501516124bb90859084908f613e62565b898760ff16815181106124d0576124d06153a9565b602002602001018181516124e49190615404565b90525060208d015180518691908a908110612501576125016153a9565b602002602001018190525050505050505050808061251e906153d5565b915050612182565b50600c54600160c81b900461ffff168867ffffffffffffffff81111561254e5761254e6153ee565b6040519080825280602002602001820160405280156125b357816020015b6125a0604051806080016040528060006001600160a01b031681526020016000815260200160008152602001600081525090565b81526020019060019003908161256c5790505b50865260005b8651518110156127c15760008111801561263b57508a8a6125db600184615542565b8181106125ea576125ea6153a9565b90506020020160208101906125ff9190615099565b6001600160a01b03168b8b8381811061261a5761261a6153a9565b905060200201602081019061262f9190615099565b6001600160a01b031611155b15612659576040516333910aef60e11b815260040160405180910390fd5b61268d604051806080016040528060006001600160a01b031681526020016000815260200160008152602001600081525090565b8b8b8381811061269f5761269f6153a9565b90506020020160208101906126b49190615099565b6001600160a01b0316815283516000908590849081106126d6576126d66153a9565b6020026020010151905060008684815181106126f4576126f46153a9565b60200260200101519050600082118061270d5750600081115b1561278957600061271e8a84613ead565b9050600061271061273361ffff89168461599a565b61273d91906159cf565b9050600061274b85856159e3565b9050818113156127695761275f82826159e3565b6020870152612781565b818112156127815761277b81836159e3565b60408701525b506060850152505b828a6000015185815181106127a0576127a06153a9565b602002602001018190525050505080806127b9906153d5565b9150506125b9565b505050505050949350505050565b6000828152600760205260409020600101546127eb8133612f7f565b610e9083836130a1565b600a546128028133612f7f565b61280b82613ee4565b600c80547fffffffffffffffff00000000ffffffffffffffffffffffffffffffffffffffff16600160a01b63ffffffff8516908102919091179091556040519081527f5658872a8436367e842f76c14ffbbf8e67a2e70f47b28b3c4154134f72e902d690602001611b61565b6002600054036128c95760405162461bcd60e51b815260206004820152601f60248201527f5265656e7472616e637947756172643a207265656e7472616e742063616c6c006044820152606401610888565b60026000556128d6611680565b156129165760405162461bcd60e51b815260206004820152601060248201526f14185d5cd8589b194e881c185d5cd95960821b6044820152606401610888565b6129238383836000613f3d565b5050600160005550565b60026000540361297f5760405162461bcd60e51b815260206004820152601f60248201527f5265656e7472616e637947756172643a207265656e7472616e742063616c6c006044820152606401610888565b600260005561298d816129d5565b61299984848484613f3d565b505060016000555050565b600080826001600160a01b0316846001600160a01b0316106129c75782846129ca565b83835b909590945092505050565b6001600160a01b038116610f365760405163d92e233d60e01b815260040160405180910390fd5b6000818152600e60209081526040808320815160e081018352815463ffffffff808216835264010000000082041694820194909452600160401b840460f81b6001600160f81b03191692810192909252600160481b83046001600160a01b039081166060840152600160e81b90930462ffffff166080830152600101546bffffffffffffffffffffffff811660a0830152600160601b900490911660c08201528190612aaa84826002613a93565b6000612ac382606001518360c0015184604001516132ae565b9050612ad08583836134c4565b60c0909201516000958652600e60209081526040808820805463ffffffff90951663ffffffff1990951694909417909355600f90529085209490945593915050565b610e906001600160a01b0384168383614245565b6000612710612b36606485615a3b565b612b4290612710615a5e565b612b529063ffffffff168461599a565b611fcb91906159cf565b6001600160a01b03808716600090815260066020908152604080832093891683529281528282206001600160f81b0319881683528152908290208251608081018452815463ffffffff80821683526001600160e01b0364010000000092839004811695840186905260019094015490811695830195909552909304166060830152151580612bf75750600081606001516001600160e01b0316115b15612ed0576001600160a01b038088166000908152600560209081526040808320938a1683529281528282206001600160f81b0319891683528152828220845163ffffffff168352815290829020825180840184528154815260019091015491810191909152815180830190925280519091908190612c77908890615404565b8152602001858360200151612c8c9190615404565b90526001600160a01b03808a166000908152600560209081526040808320938c1683529281528282206001600160f81b03198b16835290529081208451909190612cd79060016158b4565b63ffffffff1681526020808201929092526040908101600090812084518155938301516001909401939093556001600160a01b03808c16845260048352818420908b16845282528083206001600160f81b03198a168452909152812083518290612d429060026158b4565b63ffffffff16815260208082019290925260409081016000208151808301835290546001600160801b038082168352600160801b90910416928101929092528051608081019091528451919250908190612d9d9060016158b4565b63ffffffff16815260200182600001516001600160801b03168560200151612dc59190615a83565b6001600160e01b031681526020018563ffffffff16815260200182602001516001600160801b03168560600151612dfc9190615a83565b6001600160e01b039081169091526001600160a01b03808c166000818152600660209081526040808320948f168084529482528083206001600160f81b03198f16808552908352818420885189850151891664010000000090810263ffffffff9283161783558a8501516060909b01519099169098029890971697909717600190960195909555918152600482528381209281529181528282209382529290925281208451909190612eaf9060026158b4565b63ffffffff168152602081019190915260400160009081205550612f0b9050565b6001600160a01b038088166000908152600160209081526040808320938a16835292905220805460f881811b881916901c60ff199091161790555b50505050505050565b6040516370a0823160e01b81523060048201526000906001600160a01b038316906370a0823190602401602060405180830381865afa158015612f5b573d6000803e3d6000fd5b505050506040513d601f19601f820116820180604052508101906107a89190615aa3565b60008281526007602090815260408083206001600160a01b038516845290915290205460ff16610f1d57612fbd816001600160a01b03166014614275565b612fc8836020614275565b604051602001612fd9929190615ae8565b60408051601f198184030181529082905262461bcd60e51b825261088891600401615b69565b60008281526007602090815260408083206001600160a01b038516845290915290205460ff16610f1d5760008281526007602090815260408083206001600160a01b03851684529091529020805460ff1916600117905561305d3390565b6001600160a01b0316816001600160a01b0316837f2f8788117e7eff1d82e926ec794901d17c78024a50270940304540a733656f0d60405160405180910390a45050565b60008281526007602090815260408083206001600160a01b038516845290915290205460ff1615610f1d5760008281526007602090815260408083206001600160a01b0385168085529252808320805460ff1916905551339285917ff6391f5c32d9c69d2a47ea670b442974b53935d1edc7fd64eb21e047a839171b9190a45050565b61312c611680565b6131785760405162461bcd60e51b815260206004820152601460248201527f5061757361626c653a206e6f74207061757365640000000000000000000000006044820152606401610888565b6008805460ff191690557f5db9ee0a495bf2e6ff9c91a7834c1ba4fdd244a5e8aa4e537bd38aeae4b073aa335b6040516001600160a01b03909116815260200160405180910390a1565b60008163ffffffff16603c036131dd5750600160f81b919050565b8163ffffffff1661012c036131f75750600160f91b919050565b8163ffffffff16610384036132115750600160fa1b919050565b8163ffffffff166107080361322b5750600160fb1b919050565b8163ffffffff16610e10036132455750600160fc1b919050565b8163ffffffff166138400361325f5750600160fd1b919050565b8163ffffffff16620151800361327a5750600160fe1b919050565b8163ffffffff1662093a80036132955750600160ff1b919050565b6040516305fabb6160e41b815260040160405180910390fd5b60008060006132bd86866129a4565b6001600160a01b0391821660009081526006602090815260408083209490931682529283528181206001600160f81b03198816825290925290205463ffffffff16925050509392505050565b60008163ffffffff168363ffffffff16116133245782611fcb565b50919050565b60008163ffffffff168363ffffffff1611613346576000611fcb565b611fcb8284615a5e565b600061335b83613382565b6001600160781b031661337284602001518461332a565b63ffffffff16611fcb919061599a565b6000816080015162ffffff1660188360a001516bffffffffffffffffffffffff166001600160781b0316901b6107a89190615b9c565b60006001600160f81b03198216600160f81b036133d75750603c919050565b6001600160f81b03198216600160f91b036133f5575061012c919050565b6001600160f81b03198216600160fa1b036134135750610384919050565b6001600160f81b03198216600160fb1b036134315750610708919050565b6001600160f81b03198216600160fc1b0361344f5750610e10919050565b6001600160f81b03198216600160fd1b0361346d5750613840919050565b6001600160f81b03198216600160fe1b0361348c575062015180919050565b6001600160f81b03198216600160ff1b036134ab575062093a80919050565b60405163bf3cad0b60e01b815260040160405180910390fd5b6000806134d5838560200151613309565b90508063ffffffff16846000015163ffffffff1611156134f9576000915050611fcb565b835163ffffffff8083169116036135205750506000838152600f6020526040902054611fcb565b60008460c001516001600160a01b031685606001516001600160a01b0316106135e55760c0850180516001600160a01b03908116600090815260056020818152604080842060608c01805187168652908352818520828d0180516001600160f81b031990811688529185528387208e5163ffffffff90811689529086528488206001908101549a518a1689529686528488209351909816875291845282862091511685528252808420948816845293905291902001546135e09190615542565b613679565b6060850180516001600160a01b03908116600090815260056020818152604080842060c08c01805187168652908352818520828d0180516001600160f81b031990811688529185528387208e5163ffffffff90811689529086528488205499518916885295855283872092519097168652908352818520955116845293815283832091871683525220546136799190615542565b60608601516001600160a01b03166000908152600260205260408120549192506136a287613382565b90506000806136ba85846001600160781b031661441e565b915091506000826136e8576001600160781b0384166136d986886159cf565b6136e3919061599a565b6136f2565b6136f285836159cf565b60008c8152600f602052604090205490915061370e9082615404565b9b9a5050505050505050505050565b600061168a60085460ff1690565b60008061373e63ffffffff8416856159cf565b90506001600160781b03811115611fcb57604051636b2f218360e01b815260040160405180910390fd5b6040805160e081018252600080825260208201819052918101829052606081018290526080810182905260a0810182905260c08101829052906137ac8787866132ae565b6040805160e0810190915263ffffffff8216815290915083906bffffffffffffffffffffffff601883901c1690602081016137e789866158b4565b63ffffffff168152602001876001600160f81b03191681526020018a6001600160a01b031681526020018362ffffff168152602001826bffffffffffffffffffffffff168152602001896001600160a01b0316815250935050505095945050505050565b60008061385885856129a4565b6001600160a01b03808316600090815260016020908152604080832093851683529290529081205492945090925060f89190911b906001600160f81b031985831616900361394f576001600160f81b0319811660000361391a57600c54604051633faaed9d60e11b81526001600160a01b038581166004830152848116602483015290911690637f55db3a90604401600060405180830381600087803b15801561390157600080fd5b505af1158015613915573d6000803e3d6000fd5b505050505b6001600160a01b038381166000908152600160209081526040808320938616835292905220805460ff191685831760f81c1790555b505050505050565b61396685858585856001614469565b5050505050565b6001600160a01b0381166000908152600260205260408120549003610f3657806001600160a01b031663313ce5676040518163ffffffff1660e01b8152600401602060405180830381865afa1580156139ca573d6000803e3d6000fd5b505050506040513d601f19601f820116820180604052508101906139ee9190615bbe565b6139f990600a615cbf565b6001600160a01b03821660009081526002602052604090206001600160781b0391909116905550565b6040516001600160a01b0380851660248301528316604482015260648101829052613a8d9085906323b872dd60e01b906084015b60408051601f198184030181529190526020810180516001600160e01b03166001600160e01b031990931692909217909152614910565b50505050565b60408201516001600160f81b031916600003613ac25760405163673f032f60e11b815260040160405180910390fd5b600d5460405163823abfd960e01b81526001600160a01b039091169063823abfd990613af690869033908690600401615cce565b602060405180830381865afa158015613b13573d6000803e3d6000fd5b505050506040513d601f19601f82011682018060405250810190613b379190615cf1565b610e9057604051635c427cd960e01b815260040160405180910390fd5b8063ffffffff16826020015163ffffffff161115610f1d57610f1d82606001518360c0015184604001518560200151613b8c87613382565b6000614469565b613b9b611680565b15613bdb5760405162461bcd60e51b815260206004820152601060248201526f14185d5cd8589b194e881c185d5cd95960821b6044820152606401610888565b6008805460ff191660011790557f62e78cea01bee320cd4e420270b5ea74000d11b0c9f74754ebdbfc544b05a2586131a53390565b6001600160a01b0382811660009081526001602090815260408083209385168352929052908120548190819060f81b42600160f81b5b6001600160f81b031980821690841610801590613c6c57506001600160f81b0319811615155b15613d99576001600160f81b03198382161615613d8b576001600160a01b038089166000908152600660209081526040808320938b1683529281528282206001600160f81b03198516835281528282208351608081018552815463ffffffff80821683526001600160e01b036401000000009283900481169584019590955260019093015492831695820195909552939004166060830152613d0d836133b8565b90508363ffffffff1681828460400151613d279190615a3b565b613d329060016158b4565b613d3c9190615d13565b63ffffffff161115613d4f575050613d99565b602082015195831795613d6b906001600160e01b031689615404565b975081606001516001600160e01b031687613d869190615404565b965050505b60011b607f60f91b16613c46565b85158015613da5575084155b15613daf57600093505b5050509250925092565b60405163a513355f60e01b81526001600160a01b0385811660048301526001600160801b03841660248301528681166044830152600091829184169063a513355f90606401602060405180830381865afa158015613e1b573d6000803e3d6000fd5b505050506040513d601f19601f82011682018060405250810190613e3f9190615aa3565b905080613e4c868661599a565b613e5691906159cf565b91509550959350505050565b600080613e6f8385612b26565b613e79908661599a565b9050613e8586826159cf565b9150613e918682615d3f565b15613ea45781613ea0816153d5565b9250505b50949350505050565b600082613ebd6127106064615d53565b62ffffff16613ecc9190615a5e565b63ffffffff168363ffffffff1683612b52919061599a565b620186a063ffffffff82161115613f0e576040516314041af760e31b815260040160405180910390fd5b613f19606482615d75565b63ffffffff1615610f36576040516358d620b360e01b815260040160405180910390fd5b6000848152600e6020908152604091829020825160e081018452815463ffffffff808216835264010000000082041693820193909352600160401b830460f81b6001600160f81b03191693810193909352600160481b82046001600160a01b039081166060850152600160e81b90920462ffffff166080840152600101546bffffffffffffffffffffffff811660a0840152600160601b9004811660c0830152821615613ff8868383613ff1576001613a93565b6000613a93565b600061401183606001518460c0015185604001516132ae565b9050600061401f8483613350565b9050600083614037576140328883615542565b614041565b6140418883615404565b90508015801590614056575063ffffffff8716155b1561407457604051633c92196b60e11b815260040160405180910390fd5b80158015614088575060008763ffffffff16115b1561409257600096505b600063ffffffff8816156140af576140aa828961372b565b6140b2565b60005b60008b8152600e602052604081206001810180546bffffffffffffffffffffffff19166bffffffffffffffffffffffff601886901c1617905580547cffffffffffffffffffffffffffffffffffffffffffffffffffffffffff16600160e81b62ffffff85160217905590915061412889866158b4565b60008c8152600e60205260409020805463ffffffff8084166401000000000267ffffffffffffffff199092169089161717905590506141688b88876134c4565b60008c8152600f60205260409020556141818786613b54565b61419a87606001518860c0015189604001518486613957565b89156141d45785156141c55760608701516141c0906001600160a01b031633308d613a22565b6141d4565b6141d48760600151898c612b12565b337f1e52a79a98c3fbf6230e862913323047a9c0ec511d2c289b1eeeeb9cc97c5bea8c846142038960016158b4565b604080519384526001600160781b0392909216602084015263ffffffff9081168383015285166060830152519081900360800190a25050505050505050505050565b6040516001600160a01b038316602482015260448101829052610e9090849063a9059cbb60e01b90606401613a56565b6060600061428483600261599a565b61428f906002615404565b67ffffffffffffffff8111156142a7576142a76153ee565b6040519080825280601f01601f1916602001820160405280156142d1576020820181803683370190505b509050600360fc1b816000815181106142ec576142ec6153a9565b60200101906001600160f81b031916908160001a905350600f60fb1b8160018151811061431b5761431b6153a9565b60200101906001600160f81b031916908160001a905350600061433f84600261599a565b61434a906001615404565b90505b60018111156143cf577f303132333435363738396162636465660000000000000000000000000000000085600f166010811061438b5761438b6153a9565b1a60f81b8282815181106143a1576143a16153a9565b60200101906001600160f81b031916908160001a90535060049490941c936143c881615d98565b905061434d565b508315611fcb5760405162461bcd60e51b815260206004820181905260248201527f537472696e67733a20686578206c656e67746820696e73756666696369656e746044820152606401610888565b600080836000036144355750600190506000614462565b83830283858281614448576144486159b9565b041461445b576000809250925050614462565b6001925090505b9250929050565b846001600160a01b0316866001600160a01b031610156146c05780156145b9576001600160a01b03868116600090815260066020908152604080832093891683529281528282206001600160f81b03198816835290522080546001600160781b03841691906004906144ed90849064010000000090046001600160e01b0316615daf565b82546001600160e01b039182166101009390930a9283029190920219909116179055506001600160a01b03808716600090815260046020908152604080832093891683529281528282206001600160f81b03198816835290529081206001600160781b0384169161455f8660016158b4565b63ffffffff1681526020810191909152604001600090812080549091906145909084906001600160801b0316615dd1565b92506101000a8154816001600160801b0302191690836001600160801b0316021790555061394f565b6001600160a01b03868116600090815260066020908152604080832093891683529281528282206001600160f81b03198816835290522080546001600160781b038416919060049061461d90849064010000000090046001600160e01b0316615a83565b82546001600160e01b039182166101009390930a9283029190920219909116179055506001600160a01b03808716600090815260046020908152604080832093891683529281528282206001600160f81b03198816835290529081206001600160781b0384169161468f8660016158b4565b63ffffffff1681526020810191909152604001600090812080549091906145909084906001600160801b0316615df3565b80156147d5576001600160a01b038581166000908152600660209081526040808320938a1683529281528282206001600160f81b03198816835290522060010180546001600160781b038416919060049061472d90849064010000000090046001600160e01b0316615daf565b82546001600160e01b039182166101009390930a9283029190920219909116179055506001600160a01b038086166000908152600460209081526040808320938a1683529281528282206001600160f81b03198816835290529081206001600160781b0384169161479f8660016158b4565b63ffffffff16815260208101919091526040016000208054601090614590908490600160801b90046001600160801b0316615dd1565b6001600160a01b038581166000908152600660209081526040808320938a1683529281528282206001600160f81b03198816835290522060010180546001600160781b038416919060049061483c90849064010000000090046001600160e01b0316615a83565b82546001600160e01b039182166101009390930a9283029190920219909116179055506001600160a01b038086166000908152600460209081526040808320938a1683529281528282206001600160f81b03198816835290529081206001600160781b038416916148ae8660016158b4565b63ffffffff168152602081019190915260400160002080546010906148e4908490600160801b90046001600160801b0316615df3565b92506101000a8154816001600160801b0302191690836001600160801b03160217905550505050505050565b6000614965826040518060400160405280602081526020017f5361666545524332303a206c6f772d6c6576656c2063616c6c206661696c6564815250856001600160a01b03166149f59092919063ffffffff16565b805190915015610e9057808060200190518101906149839190615cf1565b610e905760405162461bcd60e51b815260206004820152602a60248201527f5361666545524332303a204552433230206f7065726174696f6e20646964206e60448201527f6f742073756363656564000000000000000000000000000000000000000000006064820152608401610888565b6060610830848460008585843b614a4e5760405162461bcd60e51b815260206004820152601d60248201527f416464726573733a2063616c6c20746f206e6f6e2d636f6e74726163740000006044820152606401610888565b600080866001600160a01b03168587604051614a6a9190615e13565b60006040518083038185875af1925050503d8060008114614aa7576040519150601f19603f3d011682016040523d82523d6000602084013e614aac565b606091505b5091509150613ea082828660608315614ac6575081611fcb565b825115614ad65782518084602001fd5b8160405162461bcd60e51b81526004016108889190615b69565b600060208284031215614b0257600080fd5b81356001600160e01b031981168114611fcb57600080fd5b6001600160a01b0381168114610f3657600080fd5b8035614b3a81614b1a565b919050565b80356001600160f81b031981168114614b3a57600080fd5b803563ffffffff81168114614b3a57600080fd5b60008060008060808587031215614b8157600080fd5b8435614b8c81614b1a565b93506020850135614b9c81614b1a565b9250614baa60408601614b3f565b9150614bb860608601614b57565b905092959194509250565b60008060408385031215614bd657600080fd5b823591506020830135614be881614b1a565b809150509250929050565b600060208284031215614c0557600080fd5b5035919050565b60008083601f840112614c1e57600080fd5b50813567ffffffffffffffff811115614c3657600080fd5b6020830191508360208260051b850101111561446257600080fd5b60008083601f840112614c6357600080fd5b50813567ffffffffffffffff811115614c7b57600080fd5b6020830191508360208260061b850101111561446257600080fd5b60008083601f840112614ca857600080fd5b50813567ffffffffffffffff811115614cc057600080fd5b60208301915083602082850101111561446257600080fd5b60008060008060008060008060008060c08b8d031215614cf757600080fd5b8a3567ffffffffffffffff80821115614d0f57600080fd5b614d1b8e838f01614c0c565b909c509a5060208d0135915080821115614d3457600080fd5b614d408e838f01614c51565b909a509850889150614d5460408e01614b2f565b9750614d6260608e01614b2f565b965060808d0135915080821115614d7857600080fd5b614d848e838f01614c0c565b909650945060a08d0135915080821115614d9d57600080fd5b50614daa8d828e01614c96565b915080935050809150509295989b9194979a5092959850565b8051604080845281518482018190526000926060916020918201918388019190865b82811015614e2c57845180516001600160a01b0316855260208082015190860152604080820151908601526060908101519085015260808401948201949350600101614de5565b50878101518984038a83015280518085529082019450600093820192505b80841015614ea657845180516001600160a01b039081168552838201511683850152878101518885015286810151878501526080908101516001600160f81b03191690840152938101936001939093019260a090920191614e4a565b509098975050505050505050565b602081526000611fcb6020830184614dc3565b60008060208385031215614eda57600080fd5b823567ffffffffffffffff811115614ef157600080fd5b614efd85828601614c0c565b90969095509350505050565b600080600060408486031215614f1e57600080fd5b833567ffffffffffffffff811115614f3557600080fd5b614f4186828701614c0c565b9094509250506020840135614f5581614b1a565b809150509250925092565b600081518084526020808501945080840160005b83811015614f9057815187529582019590820190600101614f74565b509495945050505050565b602081526000611fcb6020830184614f60565b600080600060408486031215614fc357600080fd5b833567ffffffffffffffff811115614fda57600080fd5b614f4186828701614c51565b60008060408385031215614ff957600080fd5b823561500481614b1a565b91506020830135614be881614b1a565b6000610100820190506001600160a01b0380845116835280602085015116602084015250604083015163ffffffff8082166040850152806060860151166060850152608085015160808501528060a08601511660a0850152505060c083015160c083015260e083015161509260e08401826001600160781b03169052565b5092915050565b6000602082840312156150ab57600080fd5b8135611fcb81614b1a565b60008060008060008060008060e0898b0312156150d257600080fd5b88356150dd81614b1a565b975060208901356150ed81614b1a565b96506040890135955061510260608a01614b57565b945061511060808a01614b57565b935060a089013561512081614b1a565b925060c089013567ffffffffffffffff81111561513c57600080fd5b6151488b828c01614c0c565b999c989b5096995094979396929594505050565b60006020828403121561516e57600080fd5b813561ffff81168114611fcb57600080fd5b60008060006060848603121561519557600080fd5b8335925060208401356151a781614b1a565b91506040840135614f5581614b1a565b6000806000606084860312156151cc57600080fd5b83356151d781614b1a565b925060208401356151e781614b1a565b91506151f560408501614b3f565b90509250925092565b6000806000806000806000806000806101008b8d03121561521e57600080fd5b8a3561522981614b1a565b995060208b013561523981614b1a565b985060408b0135975061524e60608c01614b57565b965061525c60808c01614b57565b955060a08b013561526c81614b1a565b945060c08b013567ffffffffffffffff8082111561528957600080fd5b6152958e838f01614c0c565b909650945060e08d0135915080821115614d9d57600080fd5b600080600080604085870312156152c457600080fd5b843567ffffffffffffffff808211156152dc57600080fd5b6152e888838901614c0c565b9096509450602087013591508082111561530157600080fd5b5061530e87828801614c51565b95989497509550505050565b60006020828403121561532c57600080fd5b611fcb82614b57565b60008060006060848603121561534a57600080fd5b83359250602084013591506151f560408501614b57565b6000806000806080858703121561537757600080fd5b843593506020850135925061538e60408601614b57565b9150606085013561539e81614b1a565b939692955090935050565b634e487b7160e01b600052603260045260246000fd5b634e487b7160e01b600052601160045260246000fd5b6000600182016153e7576153e76153bf565b5060010190565b634e487b7160e01b600052604160045260246000fd5b60008219821115615417576154176153bf565b500190565b81835260007f07ffffffffffffffffffffffffffffffffffffffffffffffffffffffffffffff83111561544e57600080fd5b8260051b8083602087013760009401602001938452509192915050565b81835281816020850137506000828201602090810191909152601f909101601f19169091010190565b6000608082016001600160a01b0389168352602060808185015281895180845260a086019150828b01935060005b8181101561550957845180516001600160a01b03168452602080820151908501526040808201519085015260609081015190840152608083019484019492506001016154c2565b5050848103604086015261551e81898b61541c565b92505050828103606084015261553581858761546b565b9998505050505050505050565b600082821015615554576155546153bf565b500390565b60608152600061556c6060830187614dc3565b828103602084015261557f81868861541c565b91505063ffffffff8316604083015295945050505050565b60208082528181018390526000908460408401835b868110156155d55763ffffffff6155c284614b57565b16825291830191908301906001016155ac565b509695505050505050565b60008235603e198336030181126155f657600080fd5b9190910192915050565b6000808335601e1984360301811261561757600080fd5b83018035915067ffffffffffffffff82111561563257600080fd5b6020019150600581901b360382131561446257600080fd5b6000808335601e1984360301811261566157600080fd5b830160208101925035905067ffffffffffffffff81111561568157600080fd5b8060051b360383131561446257600080fd5b60008235603e198336030181126156a957600080fd5b90910192915050565b60408082528181018490526000906060600586901b8401810190840187845b8881101561573957868403605f190183526156ec828b615693565b80356156f781614b1a565b6001600160a01b0316855260206157108282018361564a565b92508782880152615724888801848361541c565b965050938401939290920191506001016156d1565b5050508381036020850152613ea08186614f60565b6020808252818101839052600090604080840186845b8781101561579a57813561577781614b1a565b6001600160a01b0316835281850135858401529183019190830190600101615764565b5090979650505050505050565b600481106157c557634e487b7160e01b600052602160045260246000fd5b9052565b60008383855260208086019550808560051b8301018460005b8781101561579a57848303601f190189526157fd8288615693565b6040808501823561580d81614b1a565b6001600160a01b031686526158248388018461564a565b8789019390935290829052909150606085019060005b8381101561586c5781356004811061585157600080fd5b61585b84826157a7565b50918701919087019060010161583a565b505099850199935050908301906001016157e2565b8481526001600160a01b03841660208201526060604082015260006158aa6060830184866157c9565b9695505050505050565b600063ffffffff8083168185168083038211156158d3576158d36153bf565b01949350505050565b8981526001600160a01b0389811660208301528816604082015263ffffffff87811660608301526001600160781b038716608083015285811660a0830152841660c082015261010060e0820181905260009061593b83820185876157c9565b9c9b505050505050505050505050565b83815260406020820152600061596560408301848661546b565b95945050505050565b60ff81168114610f3657600080fd5b60006020828403121561598f57600080fd5b8135611fcb8161596e565b60008160001904831182151516156159b4576159b46153bf565b500290565b634e487b7160e01b600052601260045260246000fd5b6000826159de576159de6159b9565b500490565b60008083128015600160ff1b850184121615615a0157615a016153bf565b837f7fffffffffffffffffffffffffffffffffffffffffffffffffffffffffffffff018313811615615a3557615a356153bf565b50500390565b600063ffffffff80841680615a5257615a526159b9565b92169190910492915050565b600063ffffffff83811690831681811015615a7b57615a7b6153bf565b039392505050565b60006001600160e01b0383811690831681811015615a7b57615a7b6153bf565b600060208284031215615ab557600080fd5b5051919050565b60005b83811015615ad7578181015183820152602001615abf565b83811115613a8d5750506000910152565b7f416363657373436f6e74726f6c3a206163636f756e7420000000000000000000815260008351615b20816017850160208801615abc565b7f206973206d697373696e6720726f6c65200000000000000000000000000000006017918401918201528351615b5d816028840160208801615abc565b01602801949350505050565b6020815260008251806020840152615b88816040850160208701615abc565b601f01601f19169190910160400192915050565b60006001600160781b038083168185168083038211156158d3576158d36153bf565b600060208284031215615bd057600080fd5b8151611fcb8161596e565b600181815b80851115615c16578160001904821115615bfc57615bfc6153bf565b80851615615c0957918102915b93841c9390800290615be0565b509250929050565b600082615c2d575060016107a8565b81615c3a575060006107a8565b8160018114615c505760028114615c5a57615c76565b60019150506107a8565b60ff841115615c6b57615c6b6153bf565b50506001821b6107a8565b5060208310610133831016604e8410600b8410161715615c99575081810a6107a8565b615ca38383615bdb565b8060001904821115615cb757615cb76153bf565b029392505050565b6000611fcb60ff841683615c1e565b8381526001600160a01b03831660208201526060810161083060408301846157a7565b600060208284031215615d0357600080fd5b81518015158114611fcb57600080fd5b600063ffffffff80831681851681830481118215151615615d3657615d366153bf565b02949350505050565b600082615d4e57615d4e6159b9565b500690565b600062ffffff80831681851681830481118215151615615d3657615d366153bf565b600063ffffffff80841680615d8c57615d8c6159b9565b92169190910692915050565b600081615da757615da76153bf565b506000190190565b60006001600160e01b038083168185168083038211156158d3576158d36153bf565b60006001600160801b038083168185168083038211156158d3576158d36153bf565b60006001600160801b0383811690831681811015615a7b57615a7b6153bf565b600082516155f6818460208701615abc56fea2646970667358221220dad3df269637f3d63fe5a4e75d3041a55dbbc8c189a61987781a2bcae50101b964736f6c634300080d0033"
}