{
  "address": "0xa55E3d0E2Ad549D4De687B57b8598e108D65EbA9",
  "abi": [
    {
      "inputs": [
        {
          "internalType": "contract IDCAGlobalParameters",
          "name": "_globalParameters",
          "type": "address"
        }
      ],
      "stateMutability": "nonpayable",
      "type": "constructor"
    },
    {
      "inputs": [],
      "name": "IdenticalTokens",
      "type": "error"
    },
    {
      "inputs": [],
      "name": "PairAlreadyExists",
      "type": "error"
    },
    {
      "inputs": [],
      "name": "ZeroAddress",
      "type": "error"
    },
    {
      "anonymous": false,
      "inputs": [
        {
          "indexed": true,
          "internalType": "address",
          "name": "_token0",
          "type": "address"
        },
        {
          "indexed": true,
          "internalType": "address",
          "name": "_token1",
          "type": "address"
        },
        {
          "indexed": false,
          "internalType": "address",
          "name": "_pair",
          "type": "address"
        }
      ],
      "name": "PairCreated",
      "type": "event"
    },
    {
      "inputs": [
        {
          "internalType": "uint256",
          "name": "",
          "type": "uint256"
        }
      ],
      "name": "allPairs",
      "outputs": [
        {
          "internalType": "address",
          "name": "",
          "type": "address"
        }
      ],
      "stateMutability": "view",
      "type": "function"
    },
    {
      "inputs": [
        {
          "internalType": "address",
          "name": "_tokenA",
          "type": "address"
        },
        {
          "internalType": "address",
          "name": "_tokenB",
          "type": "address"
        }
      ],
      "name": "createPair",
      "outputs": [
        {
          "internalType": "address",
          "name": "_pair",
          "type": "address"
        }
      ],
      "stateMutability": "nonpayable",
      "type": "function"
    },
    {
      "inputs": [],
      "name": "globalParameters",
      "outputs": [
        {
          "internalType": "contract IDCAGlobalParameters",
          "name": "",
          "type": "address"
        }
      ],
      "stateMutability": "view",
      "type": "function"
    },
    {
      "inputs": [
        {
          "internalType": "address",
          "name": "_tokenA",
          "type": "address"
        },
        {
          "internalType": "address",
          "name": "_tokenB",
          "type": "address"
        }
      ],
      "name": "pairByTokens",
      "outputs": [
        {
          "internalType": "address",
          "name": "_pair",
          "type": "address"
        }
      ],
      "stateMutability": "view",
      "type": "function"
    }
  ],
  "transactionHash": "0x2ec6e1f396a4c079c53cf884c23454c29383e1e7e319680cdf92d5790db58544",
  "args": [
    "0xEDA4E02E5C7c722503C2D0696613F66ce8E36d23"
  ],
  "solcInputHash": "294f853cd98a21fcc68d94d665209590",
  "bytecode": "0x608060405234801561001057600080fd5b506040516159e63803806159e683398101604081905261002f9161007d565b806001600160a01b0381166100575760405163d92e233d60e01b815260040160405180910390fd5b600280546001600160a01b0319166001600160a01b0392909216919091179055506100ab565b60006020828403121561008e578081fd5b81516001600160a01b03811681146100a4578182fd5b9392505050565b61592c806100ba6000396000f3fe60806040523480156200001157600080fd5b5060043610620000525760003560e01c80630ad82b2f14620000575780631d5aa6d814620000875780631e3dd18b146200009e578063c9c6539614620000b5575b600080fd5b6002546200006b906001600160a01b031681565b6040516001600160a01b03909116815260200160405180910390f35b6200006b620000983660046200037e565b620000cc565b6200006b620000af366004620003b5565b6200010b565b6200006b620000c63660046200037e565b62000136565b6000806000620000dd858562000320565b6001600160a01b03918216600090815260208181526040808320938516835292905220541695945050505050565b600181815481106200011c57600080fd5b6000918252602090912001546001600160a01b0316905081565b60006001600160a01b03831615806200015657506001600160a01b038216155b15620001755760405163d92e233d60e01b815260040160405180910390fd5b816001600160a01b0316836001600160a01b03161415620001a957604051635c6d7b7360e01b815260040160405180910390fd5b600080620001b8858562000320565b6001600160a01b0380831660009081526020818152604080832084861684529091529020549294509092501615620002035760405163c9bb25eb60e01b815260040160405180910390fd5b6002546040516001600160a01b0390911690600e9084908490620002279062000353565b6001600160a01b039485168152928416602084015290831660408301529091166060820152608001604051809103906000f0801580156200026c573d6000803e3d6000fd5b506001600160a01b0383811660008181526020818152604080832087861680855290835281842080546001600160a01b031990811697891697881790915560018054808201825595527fb10e2d527612073b26eecdfd717e6a320cf44b4afac2b0732d9fcbe2b7fa0cf690940180549094168617909355519384529396509290917fa92a2b95c8d8436f6ac4c673c61487364f877efb9534d4296fad8ef904546c94910160405180910390a3505092915050565b600080826001600160a01b0316846001600160a01b0316106200034557828462000348565b83835b909590945092505050565b61552880620003cf83390190565b80356001600160a01b03811681146200037957600080fd5b919050565b6000806040838503121562000391578182fd5b6200039c8362000361565b9150620003ac6020840162000361565b90509250929050565b600060208284031215620003c7578081fd5b503591905056fe60e06040523480156200001157600080fd5b5060405162005528380380620055288339810160408190526200003491620004e7565b8181816001600160a01b03166395d89b416040518163ffffffff1660e01b815260040160006040518083038186803b1580156200007057600080fd5b505afa15801562000085573d6000803e3d6000fd5b505050506040513d6000823e601f3d908101601f19168201604052620000af91908101906200054e565b816001600160a01b03166395d89b416040518163ffffffff1660e01b815260040160006040518083038186803b158015620000e957600080fd5b505afa158015620000fe573d6000803e3d6000fd5b505050506040513d6000823e601f3d908101601f191682016040526200012891908101906200054e565b6040516020016200013b92919062000651565b60408051601f19818403018152828201909152600382526244434160e81b6020830152600160005590868887876001600160a01b038316620001905760405163d92e233d60e01b815260040160405180910390fd5b6001600160a01b038216620001b85760405163d92e233d60e01b815260040160405180910390fd5b6001600160a01b038116620001e05760405163d92e233d60e01b815260040160405180910390fd5b600180546001600160a01b0319166001600160a01b0385169081179091556040805163e63a391f60e01b8152905163e63a391f91600480820192602092909190829003018186803b1580156200023557600080fd5b505afa1580156200024a573d6000803e3d6000fd5b505050506040513d601f19601f8201168201806040525081019062000270919062000602565b6001600160e81b031960e89190911b1660c052600280546001600160a01b038085166001600160a01b0319928316811790935560038054918516919092161790556040805163313ce56760e01b8152905163313ce56791600480820192602092909190829003018186803b158015620002e857600080fd5b505afa158015620002fd573d6000803e3d6000fd5b505050506040513d601f19601f820116820180604052508101906200032391906200062e565b6200033090600a620006ed565b60808181525050806001600160a01b031663313ce5676040518163ffffffff1660e01b815260040160206040518083038186803b1580156200037157600080fd5b505afa15801562000386573d6000803e3d6000fd5b505050506040513d601f19601f82011682018060405250810190620003ac91906200062e565b620003b990600a620006ed565b60a0525050506001600160a01b038116620003e75760405163d92e233d60e01b815260040160405180910390fd5b600a80546001600160a01b0319166001600160a01b039290921691909117905581516200041c90600b90602085019062000441565b5080516200043290600c90602084019062000441565b50505050505050505062000863565b8280546200044f90620007e1565b90600052602060002090601f016020900481019282620004735760008555620004be565b82601f106200048e57805160ff1916838001178555620004be565b82800160010185558215620004be579182015b82811115620004be578251825591602001919060010190620004a1565b50620004cc929150620004d0565b5090565b5b80821115620004cc5760008155600101620004d1565b60008060008060808587031215620004fd578384fd5b84516200050a816200084a565b60208601519094506200051d816200084a565b604086015190935062000530816200084a565b606086015190925062000543816200084a565b939692955090935050565b60006020828403121562000560578081fd5b81516001600160401b038082111562000577578283fd5b818401915084601f8301126200058b578283fd5b815181811115620005a057620005a062000834565b604051601f8201601f19908116603f01168101908382118183101715620005cb57620005cb62000834565b81604052828152876020848701011115620005e4578586fd5b620005f7836020830160208801620007ae565b979650505050505050565b60006020828403121562000614578081fd5b815162ffffff8116811462000627578182fd5b9392505050565b60006020828403121562000640578081fd5b815160ff8116811462000627578182fd5b6402221a09d160dd1b81526000835162000673816005850160208801620007ae565b6201016960ed1b600591840191820152835162000698816008840160208801620007ae565b01600801949350505050565b600181815b80851115620006e5578160001904821115620006c957620006c96200081e565b80851615620006d757918102915b93841c9390800290620006a9565b509250929050565b60006200062760ff8416836000826200070957506001620007a8565b816200071857506000620007a8565b81600181146200073157600281146200073c576200075c565b6001915050620007a8565b60ff8411156200075057620007506200081e565b50506001821b620007a8565b5060208310610133831016604e8410600b841016171562000781575081810a620007a8565b6200078d8383620006a4565b8060001904821115620007a457620007a46200081e565b0290505b92915050565b60005b83811015620007cb578181015183820152602001620007b1565b83811115620007db576000848401525b50505050565b600181811c90821680620007f657607f821691505b602082108114156200081857634e487b7160e01b600052602260045260246000fd5b50919050565b634e487b7160e01b600052601160045260246000fd5b634e487b7160e01b600052604160045260246000fd5b6001600160a01b03811681146200086057600080fd5b50565b60805160a05160c05160e81c614c53620008d5600039600081816129ce01528181612a0701528181612a490152612a9a015260008181612528015281816125dc0152818161261a01526138d90152600081816125bb0152818161268e015281816127a201526138ff0152614c536000f3fe608060405234801561001057600080fd5b50600436106102065760003560e01c8063658aa8fe1161011a578063b0d2847c116100ad578063c96ed6391161007c578063c96ed63914610506578063cb5faf2f14610519578063e111e3e71461052c578063e5699bf21461053f578063e985e9c51461055257600080fd5b8063b0d2847c1461048f578063b88d4fde146104ba578063c0d29594146104cd578063c87b56dd146104f357600080fd5b80637e29e8a4116100e95780637e29e8a41461042c57806395d89b41146104545780639fe8572f1461045c578063a22cb4651461047c57600080fd5b8063658aa8fe146103e057806370a08231146103f35780637a828b28146104065780637dc0d1d01461041957600080fd5b8063279dbbed1161019d5780633fcf01e61161016c5780633fcf01e61461037457806342842e0e146103875780635b6fd01d1461039a5780635f64b55b146103ba5780636352211e146103cd57600080fd5b8063279dbbed146102fc57806332e8af461461030f5780633d7837171461034e5780633f48eede1461036157600080fd5b80630ad82b2f116101d95780630ad82b2f146102885780630f7d0f2b1461029b5780630fc63d10146102d657806323b872dd146102e957600080fd5b806301ffc9a71461020b57806306fdde0314610233578063081812fc14610248578063095ea7b314610273575b600080fd5b61021e610219366004614252565b610565565b60405190151581526020015b60405180910390f35b61023b6105b7565b60405161022a919061478b565b61025b61025636600461432b565b610649565b6040516001600160a01b03909116815260200161022a565b61028661028136600461419b565b6106e3565b005b60015461025b906001600160a01b031681565b6102c16102a936600461445f565b60056020526000908152604090205463ffffffff1681565b60405163ffffffff909116815260200161022a565b60025461025b906001600160a01b031681565b6102866102f736600461406b565b6107f9565b61028661030a3660046144e3565b61082a565b61034061031d3660046144b4565b600460209081526000938452604080852082529284528284209052825290205481565b60405190815260200161022a565b61028661035c3660046143c5565b610dc8565b61028661036f36600461445f565b611231565b61028661038236600461443b565b611251565b61028661039536600461406b565b6112b2565b6103ad6103a836600461432b565b6112cd565b60405161022a9190614887565b60035461025b906001600160a01b031681565b61025b6103db36600461432b565b6114eb565b6103406103ee366004614142565b611562565b610340610401366004614017565b6117d3565b61028661041436600461432b565b61185a565b600a5461025b906001600160a01b031681565b61043f61043a3660046141c6565b6119b0565b6040805192835260208301919091520161022a565b61023b611bbd565b61046f61046a36600461445f565b611bcc565b60405161022a9190614878565b61028661048a366004614115565b611c64565b61034061049d366004614497565b600860209081526000928352604080842090915290825290205481565b6102866104c83660046140ab565b611d29565b6102c16104db36600461445f565b60096020526000908152604090205463ffffffff1681565b61023b61050136600461432b565b611d61565b61028661051436600461440e565b611e62565b61028661052736600461435b565b611ef4565b61034061053a36600461432b565b611ffb565b61028661054d366004614386565b612132565b61021e610560366004614033565b612178565b60006001600160e01b031982166380ac58cd60e01b148061059657506001600160e01b03198216635b5e139f60e01b145b806105b157506301ffc9a760e01b6001600160e01b03198316145b92915050565b6060600b80546105c690614b26565b80601f01602080910402602001604051908101604052809291908181526020018280546105f290614b26565b801561063f5780601f106106145761010080835404028352916020019161063f565b820191906000526020600020905b81548152906001019060200180831161062257829003601f168201915b5050505050905090565b6000818152600d60205260408120546001600160a01b03166106c75760405162461bcd60e51b815260206004820152602c60248201527f4552433732313a20617070726f76656420717565727920666f72206e6f6e657860448201526b34b9ba32b73a103a37b5b2b760a11b60648201526084015b60405180910390fd5b506000908152600f60205260409020546001600160a01b031690565b60006106ee826114eb565b9050806001600160a01b0316836001600160a01b0316141561075c5760405162461bcd60e51b815260206004820152602160248201527f4552433732313a20617070726f76616c20746f2063757272656e74206f776e656044820152603960f91b60648201526084016106be565b336001600160a01b038216148061077857506107788133612178565b6107ea5760405162461bcd60e51b815260206004820152603860248201527f4552433732313a20617070726f76652063616c6c6572206973206e6f74206f7760448201527f6e6572206e6f7220617070726f76656420666f7220616c6c000000000000000060648201526084016106be565b6107f483836121a6565b505050565b6108033382612214565b61081f5760405162461bcd60e51b81526004016106be906147f0565b6107f48383836122eb565b6002600054141561084d5760405162461bcd60e51b81526004016106be90614841565b60026000908155600154604080516303956f4760e21b815290516001600160a01b0390921691630e55bd1c91600480820192606092909190829003018186803b15801561089957600080fd5b505afa1580156108ad573d6000803e3d6000fd5b505050506040513d601f19601f820116820180604052508101906108d19190614310565b90508060200151156108f6576040516313d0ff5960e31b815260040160405180910390fd5b6109008642614a0e565b63ffffffff8781166000908152600960205260409020549181169161092791899116614a0e565b63ffffffff161061094b5760405163ed2628f760e01b815260040160405180910390fd5b600061095b87836040015161248b565b600254602082015160c08301518351939450610984938b936001600160a01b03169291906128ce565b600354604082015160a083015183516109ac938b936001600160a01b039091169290916128ce565b805163ffffffff8881166000908152600560209081526040808320805495851663ffffffff1996871617905560099091529020805442909216919092161790556060810151861180610a015750806080015185115b15610a1f5760405163bb55fd2760e01b815260040160405180910390fd5b60608101516080820151600254610180840151899189916001600160a01b0390811691161415610a7357610140850151610a5990836149ba565b915084610120015183610a6c91906149ba565b9250610a99565b610140850151610a8390826149ba565b905084610120015184610a9691906149ba565b93505b8115610ab657600254610ab6906001600160a01b03168984612941565b8015610ad357600354610ad3906001600160a01b03168983612941565b5050845115610bad57856001600160a01b0316633d33803c33600260009054906101000a90046001600160a01b0316600360009054906101000a90046001600160a01b03168c8c600260009054906101000a90046001600160a01b03166001600160a01b03168a61018001516001600160a01b0316148a61014001518b61012001518e6040518a63ffffffff1660e01b8152600401610b7a99989796959493929190614687565b600060405180830381600087803b158015610b9457600080fd5b505af1158015610ba8573d6000803e3d6000fd5b505050505b6002546040516370a0823160e01b81523060048201526000916001600160a01b0316906370a082319060240160206040518083038186803b158015610bf157600080fd5b505afa158015610c05573d6000803e3d6000fd5b505050506040513d601f19601f82011682018060405250810190610c299190614343565b6003546040516370a0823160e01b81523060048201529192506000916001600160a01b03909116906370a082319060240160206040518083038186803b158015610c7257600080fd5b505afa158015610c86573d6000803e3d6000fd5b505050506040513d601f19601f82011682018060405250810190610caa9190614343565b905083821080610cb957508281105b15610cd75760405163d562e29f60e01b815260040160405180910390fd5b60e0850151610ce69083614abe565b6002546001600160a01b0316600090815260076020526040902055610100850151610d119082614abe565b6003546001600160a01b03908116600090815260076020526040902091909155865160e0870151600254610d4793169190612941565b8551610100860151600354610d67926001600160a01b0390911691612941565b876001600160a01b0316336001600160a01b03167ff91ab553f2051806847bf6073591d1eec34ea156ea0b77138a155f65a8d4d8478c8c89604051610dae93929190614904565b60405180910390a350506001600055505050505050505050565b60026000541415610deb5760405162461bcd60e51b81526004016106be90614841565b600260005583158015610dfc575082155b15610e1a5760405163125f2a8360e21b815260040160405180910390fd5b6001546040805163b1d0a33760e01b815290516000926001600160a01b03169163b1d0a337916004808301926060929190829003018186803b158015610e5f57600080fd5b505afa158015610e73573d6000803e3d6000fd5b505050506040513d601f19601f82011682018060405250810190610e979190614310565b9050806020015115610ebc576040516313d0ff5960e31b815260040160405180910390fd5b6002546001600160a01b0390811660009081526007602052604080822054600354909316825290205481871180610ef257508086115b15610f105760405163bb55fd2760e01b815260040160405180910390fd5b6000808811610f20576000610f2e565b610f2e8460400151896129a4565b90506000808811610f40576000610f4e565b610f4e8560400151896129a4565b90508815610f6d57600254610f6d906001600160a01b0316888b612941565b8715610f8a57600354610f8a906001600160a01b0316888a612941565b866001600160a01b031663f62c404133600260009054906101000a90046001600160a01b0316600360009054906101000a90046001600160a01b03168d8d88888e6040518963ffffffff1660e01b8152600401610fee9897969594939291906146ec565b600060405180830381600087803b15801561100857600080fd5b505af115801561101c573d6000803e3d6000fd5b50506002546040516370a0823160e01b8152306004820152600093506001600160a01b0390911691506370a082319060240160206040518083038186803b15801561106657600080fd5b505afa15801561107a573d6000803e3d6000fd5b505050506040513d601f19601f8201168201806040525081019061109e9190614343565b6003546040516370a0823160e01b81523060048201529192506000916001600160a01b03909116906370a082319060240160206040518083038186803b1580156110e757600080fd5b505afa1580156110fb573d6000803e3d6000fd5b505050506040513d601f19601f8201168201806040525081019061111f9190614343565b905061112b84876149ba565b821080611140575061113d83866149ba565b81105b1561115e5760405163d562e29f60e01b815260040160405180910390fd5b6111688483614abe565b6002546001600160a01b031660009081526007602052604090205561118d8382614abe565b6003546001600160a01b0390811660009081526007602052604090209190915587516002546111be92169086612941565b86516003546111d9916001600160a01b039091169085612941565b60408088015181518d8152602081018d905263ffffffff909116918101919091526001600160a01b038a169033907f891529dc768bd9c3ee9afa282dfdaf4ddffed309e6dae2af016a804e1d05473390606001610dae565b61124e81600080336040518060200160405280600081525061082a565b50565b600260005414156112745760405162461bcd60e51b81526004016106be90614841565b600260005561128282612add565b6000828152601160205260409020600101546112a99083906001600160c01b031683612b3c565b50506001600055565b6107f483838360405180602001604052806000815250611d29565b6040805161010081018252600080825260208201819052918101829052606081018290526080810182905260a0810182905260c0810182905260e0810191909152600082815260116020908152604091829020825160c081018452815463ffffffff8082168352600160201b8204811694830194909452600160401b90049092169282019290925260018201546001600160c01b0381166060830152600160c01b900460ff161515608082018190526002909201546001600160f81b031660a0820152906113a6576003546001600160a01b03166113b3565b6002546001600160a01b03165b6001600160a01b0316825260808101516113d8576002546001600160a01b03166113e5565b6003546001600160a01b03165b6001600160a01b031660208301526040808201805163ffffffff908116928501929092525116611416576000611440565b805160408083015163ffffffff908116600090815260056020529190912054611440929116614ad5565b63ffffffff16606083015261145483612b7a565b608083015260408082015163ffffffff908116600090815260056020908152929020549183015191811691161161148c5760006114bb565b60408082015163ffffffff90811660009081526005602090815292902054918301516114bb9290911690614ad5565b63ffffffff1660a08301526114cf83612b87565b60c0830152606001516001600160c01b031660e0820152919050565b6000818152600d60205260408120546001600160a01b0316806105b15760405162461bcd60e51b815260206004820152602960248201527f4552433732313a206f776e657220717565727920666f72206e6f6e657869737460448201526832b73a103a37b5b2b760b91b60648201526084016106be565b6000600260005414156115875760405162461bcd60e51b81526004016106be90614841565b60026000819055546001600160a01b038681169116148015906115b857506003546001600160a01b03868116911614155b156115d65760405163c1ab6dc160e01b815260040160405180910390fd5b600154604051639eceefe160e01b815263ffffffff841660048201526001600160a01b0390911690639eceefe19060240160206040518083038186803b15801561161f57600080fd5b505afa158015611633573d6000803e3d6000fd5b505050506040513d601f19601f820116820180604052508101906116579190614236565b611674576040516305fabb6160e41b815260040160405180910390fd5b6002546000906001600160a01b0387811691161461169d576003546001600160a01b03166116aa565b6002546001600160a01b03165b905060006116be63ffffffff861687614a31565b6001600160c01b031690506116de6001600160a01b038316333084612c7e565b6001600160a01b038716600090815260076020526040812080548392906117069084906149ba565b9250508190555060016012600082825461172091906149ba565b9250508190555061173333601254612cb6565b6000806117476012548a8a8a60008b612cd4565b601254604080519182526001600160a01b038d1660208301526001600160c01b038c169082015263ffffffff8084166060830152808a166080830152821660a0820152919350915033907fa69b7b66abcf0977f983b3316e090f610c4a69a9546642178d58c1956301221b9060c00160405180910390a250506012546001600055979650505050505050565b60006001600160a01b03821661183e5760405162461bcd60e51b815260206004820152602a60248201527f4552433732313a2062616c616e636520717565727920666f7220746865207a65604482015269726f206164647265737360b01b60648201526084016106be565b506001600160a01b03166000908152600e602052604090205490565b6002600054141561187d5760405162461bcd60e51b81526004016106be90614841565b600260005561188b81612add565b600061189682612b7a565b905060006118a383612b87565b905060006118b084612f81565b905060006118bd8561302a565b90506118c8856130d3565b6118d1856132c5565b8315611919576001600160a01b038116600090815260076020526040812080548692906118ff908490614abe565b9091555061191990506001600160a01b0382163386612941565b8215611961576001600160a01b03821660009081526007602052604081208054859290611947908490614abe565b9091555061196190506001600160a01b0383163385612941565b604080518681526020810185905290810185905233907f9b863fe095959050c7ed1d85b45c0922e5667da8f82299a3eebf4cbc584f79ec9060600160405180910390a250506001600055505050565b600080600260005414156119d65760405162461bcd60e51b81526004016106be90614841565b600260009081555b83811015611acf576000858583818110611a0857634e487b7160e01b600052603260045260246000fd5b905060200201359050611a1a81612add565b6000611a2582612b7a565b600083815260116020526040902060010154909150600160c01b900460ff1615611a5a57611a5381856149ba565b9350611a67565b611a6481866149ba565b94505b5060008181526011602081815260408084208054600160401b810463ffffffff9081168752600585529286205496909552929091529290921663ffffffff1990911617815560020180546001600160f81b031916905580611ac781614b61565b9150506119de565b508115611b1c576002546001600160a01b031660009081526007602052604081208054849290611b00908490614abe565b9091555050600254611b1c906001600160a01b03163384612941565b8015611b68576003546001600160a01b031660009081526007602052604081208054839290611b4c908490614abe565b9091555050600354611b68906001600160a01b03163383612941565b336001600160a01b03167f4fd01d816751d768469443eeebd391cbef7fae3c437c75730c0e1b9a3c174eee85858585604051611ba79493929190614747565b60405180910390a2600160005590939092509050565b6060600c80546105c690614b26565b611bd4613eb3565b600154604080516354cf2aeb60e01b815290516000926001600160a01b0316916354cf2aeb916004808301926020929190829003018186803b158015611c1957600080fd5b505afa158015611c2d573d6000803e3d6000fd5b505050506040513d601f19601f82011682018060405250810190611c51919061447b565b9050611c5d838261248b565b9392505050565b6001600160a01b038216331415611cbd5760405162461bcd60e51b815260206004820152601960248201527f4552433732313a20617070726f766520746f2063616c6c65720000000000000060448201526064016106be565b3360008181526010602090815260408083206001600160a01b03871680855290835292819020805460ff191686151590811790915590519081529192917f17307eab39ab6107e8899845ad3d59bd9653f200f220920489ca2b5937696c31910160405180910390a35050565b611d333383612214565b611d4f5760405162461bcd60e51b81526004016106be906147f0565b611d5b84848484613360565b50505050565b60015460408051630442675760e41b815290516060926001600160a01b0316916344267570916004808301926020929190829003018186803b158015611da657600080fd5b505afa158015611dba573d6000803e3d6000fd5b505050506040513d601f19601f82011682018060405250810190611dde919061428a565b60405163e9dc637560e01b8152306004820152602481018490526001600160a01b03919091169063e9dc63759060440160006040518083038186803b158015611e2657600080fd5b505afa158015611e3a573d6000803e3d6000fd5b505050506040513d6000823e601f3d908101601f191682016040526105b191908101906142a6565b60026000541415611e855760405162461bcd60e51b81526004016106be90614841565b6002600055611e9383612add565b81611eb157604051631f2a200560e01b815260040160405180910390fd5b6000611ebc84612b87565b90506000611eca84836149ba565b9050611ee8858284611ee263ffffffff8816836149fa565b87613393565b50506001600055505050565b60026000541415611f175760405162461bcd60e51b81526004016106be90614841565b6002600055611f2582612add565b6000828152601160209081526040808320815160c081018352815463ffffffff8082168352600160201b82048116838701908152600160401b909204811683860181905260018501546001600160c01b0381166060860152600160c01b900460ff16151560808501526002909401546001600160f81b031660a08401529286526005909452918420549251919392611fbf92911690614ad5565b905063ffffffff8116611fe55760405163d43195c360e01b815260040160405180910390fd5b611ff0848483612b3c565b505060016000555050565b6000600260005414156120205760405162461bcd60e51b81526004016106be90614841565b600260005561202e82612add565b61203782612b7a565b60008381526011602081815260408084208054600160401b810463ffffffff9081168752600585529286205489875294909352921663ffffffff1990911617815560020180546001600160f81b03191690559091506120958361302a565b6001600160a01b0381166000908152600760205260408120805492935084929091906120c2908490614abe565b909155506120dc90506001600160a01b0382163384612941565b604080518481526001600160a01b038316602082015290810183905233907f7d3fe0088fc0b393d0c7629c8d9df3043bd33e8fc1a953dfa251ab201c6ebc389060600160405180910390a2506001600055919050565b600260005414156121555760405162461bcd60e51b81526004016106be90614841565b600260005561216383612add565b61216e838383612b3c565b5050600160005550565b6001600160a01b03918216600090815260106020908152604080832093909416825291909152205460ff1690565b6000818152600f6020526040902080546001600160a01b0319166001600160a01b03841690811790915581906121db826114eb565b6001600160a01b03167f8c5be1e5ebec7d5bd14f71427d1e84f3dd0314c0f7b2291e5b200ac8c7c3b92560405160405180910390a45050565b6000818152600d60205260408120546001600160a01b031661228d5760405162461bcd60e51b815260206004820152602c60248201527f4552433732313a206f70657261746f7220717565727920666f72206e6f6e657860448201526b34b9ba32b73a103a37b5b2b760a11b60648201526084016106be565b6000612298836114eb565b9050806001600160a01b0316846001600160a01b031614806122d35750836001600160a01b03166122c884610649565b6001600160a01b0316145b806122e357506122e38185612178565b949350505050565b826001600160a01b03166122fe826114eb565b6001600160a01b0316146123665760405162461bcd60e51b815260206004820152602960248201527f4552433732313a207472616e73666572206f6620746f6b656e2074686174206960448201526839903737ba1037bbb760b91b60648201526084016106be565b6001600160a01b0382166123c85760405162461bcd60e51b8152602060048201526024808201527f4552433732313a207472616e7366657220746f20746865207a65726f206164646044820152637265737360e01b60648201526084016106be565b6123d36000826121a6565b6001600160a01b0383166000908152600e602052604081208054600192906123fc908490614abe565b90915550506001600160a01b0382166000908152600e6020526040812080546001929061242a9084906149ba565b90915550506000818152600d602052604080822080546001600160a01b0319166001600160a01b0386811691821790925591518493918716917fddf252ad1be2c89b69c2b068fc378daa952ba7f163c4a11628f55a4df523b3ef91a4505050565b612493613eb3565b63ffffffff8084166000908152600560205260409020546124b6911660016149d2565b63ffffffff168082526002546124d79185916001600160a01b03169061353a565b602082015260035481516124f89185916001600160a01b039091169061353a565b604082810191909152600a5460035460025492516353ae9ce160e11b81526001600160a01b0391821660048201527f000000000000000000000000000000000000000000000000000000000000000060248201529281166044840152169063a75d39c29060640160206040518083038186803b15801561257757600080fd5b505afa15801561258b573d6000803e3d6000fd5b505050506040513d601f19601f820116820180604052508101906125af9190614343565b60a082018190526126007f00000000000000000000000000000000000000000000000000000000000000007f0000000000000000000000000000000000000000000000000000000000000000614a60565b61260a91906149fa565b8160c001818152505060006126487f000000000000000000000000000000000000000000000000000000000000000083604001518460a0015161358d565b90508160200151811015612753576003546001600160a01b03908116610160840152600254166101808301526020820151600090612687908390614abe565b90506126b87f0000000000000000000000000000000000000000000000000000000000000000828560c0015161358d565b6101208401526126c884826129a4565b6126d290826149ba565b6101408401526126e284836129a4565b60e084015260408301516126f79085906129a4565b6101008401526101408301516002546001600160a01b03166000908152600760205260409020546127289190614abe565b6060840152506003546001600160a01b031660009081526007602052604090205460808301526128c7565b8160200151811115612868576002546001600160a01b0390811661016084015260035416610180830152602082015161278c9082614abe565b610120830181905260c08301516000916127c8917f0000000000000000000000000000000000000000000000000000000000000000919061358d565b90506127d484826129a4565b6127de90826149ba565b61014084015260208301516127f49085906129a4565b60e0840152604083015161281490859061280f908490614abe565b6129a4565b6101008401526002546001600160a01b039081166000908152600760208181526040808420546060890152610140880151600354909516845291905290205461285d9190614abe565b6080840152506128c7565b6128768383602001516129a4565b60e0830152604082015161288b9084906129a4565b6101008301526002546001600160a01b039081166000908152600760208181526040808420546060880152600354909416835252205460808301525b5092915050565b63ffffffff851660009081526008602090815260408083206001600160a01b03881684529091529020839055612906858583856135a4565b63ffffffff94851660009081526004602090815260408083206001600160a01b03909716835295815285822092909616815294525050812055565b6040516001600160a01b0383166024820152604481018290526107f490849063a9059cbb60e01b906064015b60408051601f198184030181529190526020810180516001600160e01b03166001600160e01b031990931692909217909152613638565b60008060006129b9848663ffffffff1661370a565b915091508115612a055760646129f462ffffff7f000000000000000000000000000000000000000000000000000000000000000016836149fa565b6129fe91906149fa565b90506122e3565b7f000000000000000000000000000000000000000000000000000000000000000062ffffff168563ffffffff1610612a885763ffffffff85166064612a6f62ffffff7f000000000000000000000000000000000000000000000000000000000000000016876149fa565b612a7991906149fa565b612a839190614a60565b612ad4565b606463ffffffff8616612ac062ffffff7f000000000000000000000000000000000000000000000000000000000000000016876149fa565b612aca9190614a60565b612ad491906149fa565b95945050505050565b6000818152601160205260409020600101546001600160c01b0316612b155760405163673f032f60e11b815260040160405180910390fd5b612b1f3382612214565b61124e57604051635c427cd960e01b815260040160405180910390fd5b6000612b4784612b87565b90506000612b5b63ffffffff841685614a31565b6001600160c01b03169050612b738582848787613393565b5050505050565b60006105b1826001613760565b6000818152601160209081526040808320815160c081018352815463ffffffff8082168352600160201b82048116838701908152600160401b909204811683860181905260018501546001600160c01b0381166060860152600160c01b900460ff16151560808501526002909401546001600160f81b031660a0840152928652600590945291842054925191928116911611612c265750600092915050565b60408082015163ffffffff90811660009081526005602090815292812054928401519092612c55921690614ad5565b905081606001518163ffffffff16612c6d9190614a31565b6001600160c01b0316949350505050565b6040516001600160a01b0380851660248301528316604482015260648101829052611d5b9085906323b872dd60e01b9060840161296d565b612cd0828260405180602001604052806000815250613ac1565b5050565b6000806001600160c01b038616612cfe576040516314cee7cd60e11b815260040160405180910390fd5b63ffffffff8516612d2257604051633c92196b60e11b815260040160405180910390fd5b63ffffffff80841660009081526005602052604090205416612d458160016149d2565b9250612d5186826149d2565b63ffffffff80861660009081526004602090815260408083206001600160a01b038e16845282528083209388168352929052908120805492945060178a900b92909190612d9f908490614979565b909155505063ffffffff80851660009081526004602090815260408083206001600160a01b038d16845282528083209386168352929052908120805460178a900b9290612ded908490614a7f565b925050819055506040518060c001604052808263ffffffff1681526020018363ffffffff1681526020018563ffffffff168152602001886001600160c01b03168152602001600260009054906101000a90046001600160a01b03166001600160a01b03168a6001600160a01b03161415158152602001866001600160f81b0316815250601160008b815260200190815260200160002060008201518160000160006101000a81548163ffffffff021916908363ffffffff16021790555060208201518160000160046101000a81548163ffffffff021916908363ffffffff16021790555060408201518160000160086101000a81548163ffffffff021916908363ffffffff16021790555060608201518160010160006101000a8154816001600160c01b0302191690836001600160c01b0316021790555060808201518160010160186101000a81548160ff02191690831515021790555060a08201518160020160006101000a8154816001600160f81b0302191690836001600160f81b0316021790555090505050965096945050505050565b6000818152601160209081526040808320815160c081018352815463ffffffff8082168352600160201b8204811695830195909552600160401b90049093169183019190915260018101546001600160c01b0381166060840152600160c01b900460ff161515608083018190526002909101546001600160f81b031660a0830152613017576003546001600160a01b0316611c5d565b6002546001600160a01b03169392505050565b6000818152601160209081526040808320815160c081018352815463ffffffff8082168352600160201b8204811695830195909552600160401b90049093169183019190915260018101546001600160c01b0381166060840152600160c01b900460ff161515608083018190526002909101546001600160f81b031660a08301526130c0576002546001600160a01b0316611c5d565b6003546001600160a01b03169392505050565b6000818152601160209081526040808320815160c081018352815463ffffffff8082168352600160201b82048116838701908152600160401b909204811683860181905260018501546001600160c01b0381166060860152600160c01b900460ff16151560808501526002909401546001600160f81b031660a084015292865260059094529190932054915190929182169116111561327e5760008160800151613188576003546001600160a01b0316613195565b6002546001600160a01b03165b60608301516040808501805163ffffffff9081166000908152600460209081528482206001600160a01b03881683528152848220935183168252600590529283205494955060179390930b9390926131ef911660016149d2565b63ffffffff1663ffffffff16815260200190815260200160002060008282546132189190614a7f565b9091555050606082015160408084015163ffffffff9081166000908152600460209081528382206001600160a01b0387168352815283822081880151909316825291909152908120805460179390930b92909190613277908490614979565b9091555050505b50600090815260116020526040902080546bffffffffffffffffffffffff191681556001810180546001600160c81b031916905560020180546001600160f81b0319169055565b60006132d0826114eb565b90506132dd6000836121a6565b6001600160a01b0381166000908152600e60205260408120805460019290613306908490614abe565b90915550506000828152600d602052604080822080546001600160a01b0319169055518391906001600160a01b038416907fddf252ad1be2c89b69c2b068fc378daa952ba7f163c4a11628f55a4df523b3ef908390a45050565b61336b8484846122eb565b61337784848484613af4565b611d5b5760405162461bcd60e51b81526004016106be9061479e565b600061339e86612f81565b905060006133ad876000613760565b90506001600160f81b038111156133d757604051630930608960e11b815260040160405180910390fd5b600087815260116020526040902054600160401b900463ffffffff166133fc886130d3565b60008061340d8a8689898888612cd4565b91509150878911156134775761343a33306134288b8d614abe565b6001600160a01b038916929190612c7e565b613444888a614abe565b6001600160a01b0386166000908152600760205260408120805490919061346c9084906149ba565b909155506134d69050565b878910156134d6576134898989614abe565b6001600160a01b038616600090815260076020526040812080549091906134b1908490614abe565b909155506134d69050336134c58b8b614abe565b6001600160a01b0388169190612941565b604080518b81526001600160c01b038916602082015263ffffffff8481168284015283166060820152905133917f408c119fd9ccc2457084d1ea055d8123b7d0bd2e90f227f41c04affe17c80a11919081900360800190a250505050505050505050565b63ffffffff92831660008181526004602090815260408083206001600160a01b03909616808452958252808320949096168252928352848120549181526008835284812093815292909152919020540190565b60008361359a8385614a60565b6122e391906149fa565b63ffffffff841660009081526006602090815260408083206001600160a01b03871684529091528120816135d9600186614ad5565b63ffffffff16815260208101919091526040016000205490506135fc82826149ba565b63ffffffff95861660009081526006602090815260408083206001600160a01b0390981683529681528682209590971681529390955250502055565b600061368d826040518060400160405280602081526020017f5361666545524332303a206c6f772d6c6576656c2063616c6c206661696c6564815250856001600160a01b0316613c019092919063ffffffff16565b8051909150156107f457808060200190518101906136ab9190614236565b6107f45760405162461bcd60e51b815260206004820152602a60248201527f5361666545524332303a204552433230206f7065726174696f6e20646964206e6044820152691bdd081cdd58d8d9595960b21b60648201526084016106be565b6000808361371e5750600190506000613759565b8383028385828161373f57634e487b7160e01b600052601260045260246000fd5b0414613752576000809250925050613759565b6001925090505b9250929050565b6000828152601160209081526040808320815160c081018352815463ffffffff8082168352600160201b8204811695830195909552600160401b90049093169183019190915260018101546001600160c01b0381166060840152600160c01b900460ff161515608083018190526002909101546001600160f81b031660a083015282906137f8576003546001600160a01b0316613805565b6002546001600160a01b03165b6040808401805163ffffffff9081166000908152600660208181528583206001600160a01b0388168085529082528684208a51861685528252868420548651861685529282528684209084528152858320818a01519551851684526005909152948220549596509490939284929081169116106138865785602001516138a5565b60408087015163ffffffff908116600090815260056020529190912054165b63ffffffff168152602081019190915260400160009081205491506138ca8383614abe565b9050600085608001516138fd577f000000000000000000000000000000000000000000000000000000000000000061391f565b7f00000000000000000000000000000000000000000000000000000000000000005b905060008061393b8489606001516001600160c01b031661370a565b91509150600082156139585761395184836149fa565b90506139f5565b6000848a606001516001600160c01b0316108061399f5750848611801561399f5750848a606001516001600160c01b03166139939190614b7c565b61399d8688614b7c565b105b9050806139cf5785858b606001516001600160c01b03166139c091906149fa565b6139ca9190614a60565b6139f1565b60608a01516001600160c01b03166139e786886149fa565b6139f19190614a60565b9150505b60008960a001516001600160f81b031682613a1091906149ba565b90508b15613aad57600154604080516354cf2aeb60e01b81529051613a9c926001600160a01b0316916354cf2aeb916004808301926020929190829003018186803b158015613a5e57600080fd5b505afa158015613a72573d6000803e3d6000fd5b505050506040513d601f19601f82011682018060405250810190613a96919061447b565b826129a4565b613aa69082614abe565b9a50613ab1565b809a505b5050505050505050505092915050565b613acb8383613c10565b613ad86000848484613af4565b6107f45760405162461bcd60e51b81526004016106be9061479e565b60006001600160a01b0384163b15613bf657604051630a85bd0160e11b81526001600160a01b0385169063150b7a0290613b3890339089908890889060040161464a565b602060405180830381600087803b158015613b5257600080fd5b505af1925050508015613b82575060408051601f3d908101601f19168201909252613b7f9181019061426e565b60015b613bdc573d808015613bb0576040519150601f19603f3d011682016040523d82523d6000602084013e613bb5565b606091505b508051613bd45760405162461bcd60e51b81526004016106be9061479e565b805181602001fd5b6001600160e01b031916630a85bd0160e11b1490506122e3565b506001949350505050565b60606122e38484600085613d52565b6001600160a01b038216613c665760405162461bcd60e51b815260206004820181905260248201527f4552433732313a206d696e7420746f20746865207a65726f206164647265737360448201526064016106be565b6000818152600d60205260409020546001600160a01b031615613ccb5760405162461bcd60e51b815260206004820152601c60248201527f4552433732313a20746f6b656e20616c7265616479206d696e7465640000000060448201526064016106be565b6001600160a01b0382166000908152600e60205260408120805460019290613cf49084906149ba565b90915550506000818152600d602052604080822080546001600160a01b0319166001600160a01b03861690811790915590518392907fddf252ad1be2c89b69c2b068fc378daa952ba7f163c4a11628f55a4df523b3ef908290a45050565b606082471015613db35760405162461bcd60e51b815260206004820152602660248201527f416464726573733a20696e73756666696369656e742062616c616e636520666f6044820152651c8818d85b1b60d21b60648201526084016106be565b843b613e015760405162461bcd60e51b815260206004820152601d60248201527f416464726573733a2063616c6c20746f206e6f6e2d636f6e747261637400000060448201526064016106be565b600080866001600160a01b03168587604051613e1d919061462e565b60006040518083038185875af1925050503d8060008114613e5a576040519150601f19603f3d011682016040523d82523d6000602084013e613e5f565b606091505b5091509150613e6f828286613e7a565b979650505050505050565b60608315613e89575081611c5d565b825115613e995782518084602001fd5b8160405162461bcd60e51b81526004016106be919061478b565b604051806101a00160405280600063ffffffff1681526020016000815260200160008152602001600081526020016000815260200160008152602001600081526020016000815260200160008152602001600081526020016000815260200160006001600160a01b0316815260200160006001600160a01b031681525090565b600082601f830112613f43578081fd5b8135613f56613f5182614951565b614920565b818152846020838601011115613f6a578283fd5b816020850160208301379081016020019190915292915050565b600060608284031215613f95578081fd5b6040516060810181811067ffffffffffffffff82111715613fb857613fb8614bbc565b80604052508091508251613fcb81614bd2565b81526020830151613fdb81614be7565b60208201526040830151613fee81614c0b565b6040919091015292915050565b80356001600160c01b038116811461401257600080fd5b919050565b600060208284031215614028578081fd5b8135611c5d81614bd2565b60008060408385031215614045578081fd5b823561405081614bd2565b9150602083013561406081614bd2565b809150509250929050565b60008060006060848603121561407f578081fd5b833561408a81614bd2565b9250602084013561409a81614bd2565b929592945050506040919091013590565b600080600080608085870312156140c0578081fd5b84356140cb81614bd2565b935060208501356140db81614bd2565b925060408501359150606085013567ffffffffffffffff8111156140fd578182fd5b61410987828801613f33565b91505092959194509250565b60008060408385031215614127578182fd5b823561413281614bd2565b9150602083013561406081614be7565b60008060008060808587031215614157578384fd5b843561416281614bd2565b935061417060208601613ffb565b9250604085013561418081614c0b565b9150606085013561419081614c0b565b939692955090935050565b600080604083850312156141ad578182fd5b82356141b881614bd2565b946020939093013593505050565b600080602083850312156141d8578182fd5b823567ffffffffffffffff808211156141ef578384fd5b818501915085601f830112614202578384fd5b813581811115614210578485fd5b8660208260051b8501011115614224578485fd5b60209290920196919550909350505050565b600060208284031215614247578081fd5b8151611c5d81614be7565b600060208284031215614263578081fd5b8135611c5d81614bf5565b60006020828403121561427f578081fd5b8151611c5d81614bf5565b60006020828403121561429b578081fd5b8151611c5d81614bd2565b6000602082840312156142b7578081fd5b815167ffffffffffffffff8111156142cd578182fd5b8201601f810184136142dd578182fd5b80516142eb613f5182614951565b8181528560208385010111156142ff578384fd5b612ad4826020830160208601614afa565b600060608284031215614321578081fd5b611c5d8383613f84565b60006020828403121561433c578081fd5b5035919050565b600060208284031215614354578081fd5b5051919050565b6000806040838503121561436d578182fd5b8235915061437d60208401613ffb565b90509250929050565b60008060006060848603121561439a578081fd5b833592506143aa60208501613ffb565b915060408401356143ba81614c0b565b809150509250925092565b600080600080608085870312156143da578182fd5b843593506020850135925060408501356143f381614bd2565b9150606085013567ffffffffffffffff8111156140fd578182fd5b600080600060608486031215614422578081fd5b833592506020840135915060408401356143ba81614c0b565b6000806040838503121561444d578182fd5b82359150602083013561406081614c0b565b600060208284031215614470578081fd5b8135611c5d81614c0b565b60006020828403121561448c578081fd5b8151611c5d81614c0b565b600080604083850312156144a9578182fd5b823561405081614c0b565b6000806000606084860312156144c8578081fd5b83356144d381614c0b565b925060208401356143aa81614bd2565b600080600080600060a086880312156144fa578283fd5b853561450581614c0b565b94506020860135935060408601359250606086013561452381614bd2565b9150608086013567ffffffffffffffff81111561453e578182fd5b61454a88828901613f33565b9150509295509295909350565b6000815180845261456f816020860160208601614afa565b601f01601f19169290920160200192915050565b805163ffffffff1682526020810151602083015260408101516040830152606081015160608301526080810151608083015260a081015160a083015260c081015160c083015260e081015160e083015261010080820151818401525061012080820151818401525061014080820151818401525061016080820151614612828501826001600160a01b03169052565b5050610180818101516001600160a01b03811684830152611d5b565b60008251614640818460208701614afa565b9190910192915050565b6001600160a01b038581168252841660208201526040810183905260806060820181905260009061467d90830184614557565b9695505050505050565b600061012060018060a01b03808d168452808c166020850152808b1660408501525088606084015287608084015286151560a08401528560c08401528460e0840152806101008401526146dc81840185614557565b9c9b505050505050505050505050565b600061010060018060a01b03808c168452808b166020850152808a166040850152508760608401528660808401528560a08401528460c08401528060e084015261473881840185614557565b9b9a5050505050505050505050565b6060808252810184905260006001600160fb1b03851115614766578081fd5b8460051b80876080850137820160800190815260208201939093526040015292915050565b602081526000611c5d6020830184614557565b60208082526032908201527f4552433732313a207472616e7366657220746f206e6f6e20455243373231526560408201527131b2b4bb32b91034b6b83632b6b2b73a32b960711b606082015260800190565b60208082526031908201527f4552433732313a207472616e736665722063616c6c6572206973206e6f74206f6040820152701ddb995c881b9bdc88185c1c1c9bdd9959607a1b606082015260800190565b6020808252601f908201527f5265656e7472616e637947756172643a207265656e7472616e742063616c6c00604082015260600190565b6101a081016105b18284614583565b60006101008201905060018060a01b0380845116835280602085015116602084015250604083015163ffffffff8082166040850152806060860151166060850152608085015160808501528060a08601511660a0850152505060c083015160c083015260e08301516128c760e08401826001600160c01b03169052565b838152602081018390526101e081016122e36040830184614583565b604051601f8201601f1916810167ffffffffffffffff8111828210171561494957614949614bbc565b604052919050565b600067ffffffffffffffff82111561496b5761496b614bbc565b50601f01601f191660200190565b600080821280156001600160ff1b038490038513161561499b5761499b614b90565b600160ff1b83900384128116156149b4576149b4614b90565b50500190565b600082198211156149cd576149cd614b90565b500190565b600063ffffffff8083168185168083038211156149f1576149f1614b90565b01949350505050565b600082614a0957614a09614ba6565b500490565b600063ffffffff80841680614a2557614a25614ba6565b92169190910492915050565b60006001600160c01b0382811684821681151582840482111615614a5757614a57614b90565b02949350505050565b6000816000190483118215151615614a7a57614a7a614b90565b500290565b60008083128015600160ff1b850184121615614a9d57614a9d614b90565b6001600160ff1b0384018313811615614ab857614ab8614b90565b50500390565b600082821015614ad057614ad0614b90565b500390565b600063ffffffff83811690831681811015614af257614af2614b90565b039392505050565b60005b83811015614b15578181015183820152602001614afd565b83811115611d5b5750506000910152565b600181811c90821680614b3a57607f821691505b60208210811415614b5b57634e487b7160e01b600052602260045260246000fd5b50919050565b6000600019821415614b7557614b75614b90565b5060010190565b600082614b8b57614b8b614ba6565b500690565b634e487b7160e01b600052601160045260246000fd5b634e487b7160e01b600052601260045260246000fd5b634e487b7160e01b600052604160045260246000fd5b6001600160a01b038116811461124e57600080fd5b801515811461124e57600080fd5b6001600160e01b03198116811461124e57600080fd5b63ffffffff8116811461124e57600080fdfea26469706673582212206cff554824cebdf40b5dac5b65f789572189e32b28ad9a910fc3fb22b9fc5a5d64736f6c63430008040033a2646970667358221220be8d0d416fdcbeb2edf519d4b5f7e10ed1437662732c2083ae5254c5a3c64aef64736f6c63430008040033"
}