{
  "address": "0xEDA4E02E5C7c722503C2D0696613F66ce8E36d23",
  "abi": [
    {
      "inputs": [
        {
          "internalType": "address",
          "name": "_governor",
          "type": "address"
        },
        {
          "internalType": "address",
          "name": "_feeRecipient",
          "type": "address"
        },
        {
          "internalType": "contract IDCATokenDescriptor",
          "name": "_nftDescriptor",
          "type": "address"
        }
      ],
      "stateMutability": "nonpayable",
      "type": "constructor"
    },
    {
      "inputs": [],
      "name": "AllowedInterval",
      "type": "error"
    },
    {
      "inputs": [],
      "name": "EmptyDescription",
      "type": "error"
    },
    {
      "inputs": [],
      "name": "HighFee",
      "type": "error"
    },
    {
      "inputs": [],
      "name": "InvalidInterval",
      "type": "error"
    },
    {
      "inputs": [],
      "name": "InvalidParams",
      "type": "error"
    },
    {
      "inputs": [],
      "name": "ZeroAddress",
      "type": "error"
    },
    {
      "inputs": [],
      "name": "ZeroInterval",
      "type": "error"
    },
    {
      "anonymous": false,
      "inputs": [
        {
          "indexed": false,
          "internalType": "address",
          "name": "_feeRecipient",
          "type": "address"
        }
      ],
      "name": "FeeRecipientSet",
      "type": "event"
    },
    {
      "anonymous": false,
      "inputs": [
        {
          "indexed": false,
          "internalType": "uint32",
          "name": "_feeSet",
          "type": "uint32"
        }
      ],
      "name": "LoanFeeSet",
      "type": "event"
    },
    {
      "anonymous": false,
      "inputs": [
        {
          "indexed": false,
          "internalType": "contract IDCATokenDescriptor",
          "name": "_descriptor",
          "type": "address"
        }
      ],
      "name": "NFTDescriptorSet",
      "type": "event"
    },
    {
      "anonymous": false,
      "inputs": [
        {
          "indexed": false,
          "internalType": "address",
          "name": "account",
          "type": "address"
        }
      ],
      "name": "Paused",
      "type": "event"
    },
    {
      "anonymous": false,
      "inputs": [],
      "name": "PendingGovernorAccepted",
      "type": "event"
    },
    {
      "anonymous": false,
      "inputs": [
        {
          "indexed": false,
          "internalType": "address",
          "name": "_pendingGovernor",
          "type": "address"
        }
      ],
      "name": "PendingGovernorSet",
      "type": "event"
    },
    {
      "anonymous": false,
      "inputs": [
        {
          "indexed": false,
          "internalType": "uint32",
          "name": "_feeSet",
          "type": "uint32"
        }
      ],
      "name": "SwapFeeSet",
      "type": "event"
    },
    {
      "anonymous": false,
      "inputs": [
        {
          "indexed": false,
          "internalType": "uint32[]",
          "name": "_swapIntervals",
          "type": "uint32[]"
        },
        {
          "indexed": false,
          "internalType": "string[]",
          "name": "_descriptions",
          "type": "string[]"
        }
      ],
      "name": "SwapIntervalsAllowed",
      "type": "event"
    },
    {
      "anonymous": false,
      "inputs": [
        {
          "indexed": false,
          "internalType": "uint32[]",
          "name": "_swapIntervals",
          "type": "uint32[]"
        }
      ],
      "name": "SwapIntervalsForbidden",
      "type": "event"
    },
    {
      "anonymous": false,
      "inputs": [
        {
          "indexed": false,
          "internalType": "address",
          "name": "account",
          "type": "address"
        }
      ],
      "name": "Unpaused",
      "type": "event"
    },
    {
      "inputs": [],
      "name": "FEE_PRECISION",
      "outputs": [
        {
          "internalType": "uint24",
          "name": "",
          "type": "uint24"
        }
      ],
      "stateMutability": "view",
      "type": "function"
    },
    {
      "inputs": [],
      "name": "MAX_FEE",
      "outputs": [
        {
          "internalType": "uint32",
          "name": "",
          "type": "uint32"
        }
      ],
      "stateMutability": "view",
      "type": "function"
    },
    {
      "inputs": [],
      "name": "acceptPendingGovernor",
      "outputs": [],
      "stateMutability": "nonpayable",
      "type": "function"
    },
    {
      "inputs": [
        {
          "internalType": "uint32[]",
          "name": "_swapIntervals",
          "type": "uint32[]"
        },
        {
          "internalType": "string[]",
          "name": "_descriptions",
          "type": "string[]"
        }
      ],
      "name": "addSwapIntervalsToAllowedList",
      "outputs": [],
      "stateMutability": "nonpayable",
      "type": "function"
    },
    {
      "inputs": [],
      "name": "allowedSwapIntervals",
      "outputs": [
        {
          "internalType": "uint32[]",
          "name": "__allowedSwapIntervals",
          "type": "uint32[]"
        }
      ],
      "stateMutability": "view",
      "type": "function"
    },
    {
      "inputs": [],
      "name": "feeRecipient",
      "outputs": [
        {
          "internalType": "address",
          "name": "",
          "type": "address"
        }
      ],
      "stateMutability": "view",
      "type": "function"
    },
    {
      "inputs": [],
      "name": "governor",
      "outputs": [
        {
          "internalType": "address",
          "name": "",
          "type": "address"
        }
      ],
      "stateMutability": "view",
      "type": "function"
    },
    {
      "inputs": [
        {
          "internalType": "uint32",
          "name": "",
          "type": "uint32"
        }
      ],
      "name": "intervalDescription",
      "outputs": [
        {
          "internalType": "string",
          "name": "",
          "type": "string"
        }
      ],
      "stateMutability": "view",
      "type": "function"
    },
    {
      "inputs": [
        {
          "internalType": "address",
          "name": "_account",
          "type": "address"
        }
      ],
      "name": "isGovernor",
      "outputs": [
        {
          "internalType": "bool",
          "name": "_isGovernor",
          "type": "bool"
        }
      ],
      "stateMutability": "view",
      "type": "function"
    },
    {
      "inputs": [
        {
          "internalType": "address",
          "name": "_account",
          "type": "address"
        }
      ],
      "name": "isPendingGovernor",
      "outputs": [
        {
          "internalType": "bool",
          "name": "_isPendingGovernor",
          "type": "bool"
        }
      ],
      "stateMutability": "view",
      "type": "function"
    },
    {
      "inputs": [
        {
          "internalType": "uint32",
          "name": "_swapInterval",
          "type": "uint32"
        }
      ],
      "name": "isSwapIntervalAllowed",
      "outputs": [
        {
          "internalType": "bool",
          "name": "",
          "type": "bool"
        }
      ],
      "stateMutability": "view",
      "type": "function"
    },
    {
      "inputs": [],
      "name": "loanFee",
      "outputs": [
        {
          "internalType": "uint32",
          "name": "",
          "type": "uint32"
        }
      ],
      "stateMutability": "view",
      "type": "function"
    },
    {
      "inputs": [],
      "name": "loanParameters",
      "outputs": [
        {
          "components": [
            {
              "internalType": "address",
              "name": "feeRecipient",
              "type": "address"
            },
            {
              "internalType": "bool",
              "name": "isPaused",
              "type": "bool"
            },
            {
              "internalType": "uint32",
              "name": "loanFee",
              "type": "uint32"
            }
          ],
          "internalType": "struct IDCAGlobalParameters.LoanParameters",
          "name": "_loanParameters",
          "type": "tuple"
        }
      ],
      "stateMutability": "view",
      "type": "function"
    },
    {
      "inputs": [],
      "name": "nftDescriptor",
      "outputs": [
        {
          "internalType": "contract IDCATokenDescriptor",
          "name": "",
          "type": "address"
        }
      ],
      "stateMutability": "view",
      "type": "function"
    },
    {
      "inputs": [],
      "name": "pause",
      "outputs": [],
      "stateMutability": "nonpayable",
      "type": "function"
    },
    {
      "inputs": [],
      "name": "paused",
      "outputs": [
        {
          "internalType": "bool",
          "name": "",
          "type": "bool"
        }
      ],
      "stateMutability": "view",
      "type": "function"
    },
    {
      "inputs": [],
      "name": "pendingGovernor",
      "outputs": [
        {
          "internalType": "address",
          "name": "",
          "type": "address"
        }
      ],
      "stateMutability": "view",
      "type": "function"
    },
    {
      "inputs": [
        {
          "internalType": "uint32[]",
          "name": "_swapIntervals",
          "type": "uint32[]"
        }
      ],
      "name": "removeSwapIntervalsFromAllowedList",
      "outputs": [],
      "stateMutability": "nonpayable",
      "type": "function"
    },
    {
      "inputs": [
        {
          "internalType": "address",
          "name": "_feeRecipient",
          "type": "address"
        }
      ],
      "name": "setFeeRecipient",
      "outputs": [],
      "stateMutability": "nonpayable",
      "type": "function"
    },
    {
      "inputs": [
        {
          "internalType": "uint32",
          "name": "_loanFee",
          "type": "uint32"
        }
      ],
      "name": "setLoanFee",
      "outputs": [],
      "stateMutability": "nonpayable",
      "type": "function"
    },
    {
      "inputs": [
        {
          "internalType": "contract IDCATokenDescriptor",
          "name": "_descriptor",
          "type": "address"
        }
      ],
      "name": "setNFTDescriptor",
      "outputs": [],
      "stateMutability": "nonpayable",
      "type": "function"
    },
    {
      "inputs": [
        {
          "internalType": "address",
          "name": "__pendingGovernor",
          "type": "address"
        }
      ],
      "name": "setPendingGovernor",
      "outputs": [],
      "stateMutability": "nonpayable",
      "type": "function"
    },
    {
      "inputs": [
        {
          "internalType": "uint32",
          "name": "_swapFee",
          "type": "uint32"
        }
      ],
      "name": "setSwapFee",
      "outputs": [],
      "stateMutability": "nonpayable",
      "type": "function"
    },
    {
      "inputs": [],
      "name": "swapFee",
      "outputs": [
        {
          "internalType": "uint32",
          "name": "",
          "type": "uint32"
        }
      ],
      "stateMutability": "view",
      "type": "function"
    },
    {
      "inputs": [],
      "name": "swapParameters",
      "outputs": [
        {
          "components": [
            {
              "internalType": "address",
              "name": "feeRecipient",
              "type": "address"
            },
            {
              "internalType": "bool",
              "name": "isPaused",
              "type": "bool"
            },
            {
              "internalType": "uint32",
              "name": "swapFee",
              "type": "uint32"
            }
          ],
          "internalType": "struct IDCAGlobalParameters.SwapParameters",
          "name": "_swapParameters",
          "type": "tuple"
        }
      ],
      "stateMutability": "view",
      "type": "function"
    },
    {
      "inputs": [],
      "name": "unpause",
      "outputs": [],
      "stateMutability": "nonpayable",
      "type": "function"
    }
  ],
  "transactionHash": "0xf115fad94ca23031aeedafd08ae5916a8664e3a7ff97bea49ed1c0674e3ea2f1",
  "args": [
    "0x9012D9bbFdcEe42c618f9464b4632568e6385dCa",
    "0x0daABaB6f7E7Bb6befA07F88cAE10E5113aF11Cc",
    "0xd871743C6cdccEAd0832EBBb93Bb211F20Fb913d"
  ],
  "solcInputHash": "294f853cd98a21fcc68d94d665209590",
  "bytecode": "0x608060405260038054600160a01b600160e01b031916647d0000017760a31b1790553480156200002e57600080fd5b506040516200199638038062001996833981016040819052620000519162000151565b826001600160a01b038116620000ad5760405162461bcd60e51b815260206004820152601860248201527f476f7665726e61626c653a207a65726f20616464726573730000000000000000604482015260640160405180910390fd5b600080546001600160a01b0319166001600160a01b039283161790556001805460ff60a01b191690558216620000f65760405163d92e233d60e01b815260040160405180910390fd5b6001600160a01b0381166200011e5760405163d92e233d60e01b815260040160405180910390fd5b600280546001600160a01b039384166001600160a01b0319918216179091556003805492909316911617905550620001bd565b60008060006060848603121562000166578283fd5b83516200017381620001a4565b60208501519093506200018681620001a4565b60408501519092506200019981620001a4565b809150509250925092565b6001600160a01b0381168114620001ba57600080fd5b50565b6117c980620001cd6000396000f3fe608060405234801561001057600080fd5b506004361061018e5760003560e01c80639bcb5572116100de578063da90b03a11610097578063e43581b811610071578063e43581b8146103d5578063e63a391f146103f7578063e74b981b14610414578063f235757f1461042757600080fd5b8063da90b03a1461038f578063df08aed5146103a2578063e3056a34146103c457600080fd5b80639bcb5572146102ef5780639eceefe114610306578063b1d0a33714610319578063bc063e1a14610361578063caeb93d914610369578063d6d788c31461037c57600080fd5b8063480e5da11161014b57806375c890b81161012557806375c890b8146102a15780637cad6cd1146102c15780637d8e8603146102d45780638456cb59146102e757600080fd5b8063480e5da11461024257806354cf2aeb146102575780635c975abb1461028357600080fd5b80630c340a24146101935780630e55bd1c146101bd57806313f6986d1461020a5780633f4ba83a14610214578063442675701461021c578063469048401461022f575b600080fd5b6000546001600160a01b03165b6040516001600160a01b0390911681526020015b60405180910390f35b604080516060810182526002546001600160a01b03168152600154600160a01b9081900460ff16151560208301526003540463ffffffff16918101919091525b6040516101b49190611659565b61021261043a565b005b6102126104ad565b6003546101a0906001600160a01b031681565b6002546101a0906001600160a01b031681565b61024a6104df565b6040516101b49190611585565b60035461026e90600160a01b900463ffffffff1681565b60405163ffffffff90911681526020016101b4565b600154600160a01b900460ff165b60405190151581526020016101b4565b6102b46102af366004611436565b6105a4565b6040516101b491906115cf565b6102126102cf366004611371565b61063e565b6102126102e236600461138d565b6106e4565b61021261086c565b60035461026e90600160c01b900463ffffffff1681565b610291610314366004611436565b61089e565b604080516060810182526002546001600160a01b03168152600154600160a01b900460ff1615156020820152600354600160c01b900463ffffffff16918101919091526101fd565b61026e6108ba565b6102126103773660046113cd565b6108cf565b61021261038a366004611436565b610b42565b61021261039d366004611436565b610bf8565b6102916103b0366004611371565b6001546001600160a01b0391821691161490565b6001546001600160a01b03166101a0565b6102916103e3366004611371565b6000546001600160a01b0391821691161490565b61040061271081565b60405162ffffff90911681526020016101b4565b610212610422366004611371565b610cae565b610212610435366004611371565b610d4d565b6001546001600160a01b031633146104a35760405162461bcd60e51b815260206004820152602160248201527f476f7665726e61626c653a206f6e6c792070656e64696e6720676f7665726e6f6044820152603960f91b60648201526084015b60405180910390fd5b6104ab610d83565b565b6000546001600160a01b031633146104d75760405162461bcd60e51b815260040161049a90611622565b6104ab610e2b565b606060006104ed6005610ec8565b90508067ffffffffffffffff81111561051657634e487b7160e01b600052604160045260246000fd5b60405190808252806020026020018201604052801561053f578160200160208202803683370190505b50915060005b8181101561059f57610558600582610ed2565b83828151811061057857634e487b7160e01b600052603260045260246000fd5b63ffffffff90921660209283029190910190910152806105978161174d565b915050610545565b505090565b600460205260009081526040902080546105bd90611712565b80601f01602080910402602001604051908101604052809291908181526020018280546105e990611712565b80156106365780601f1061060b57610100808354040283529160200191610636565b820191906000526020600020905b81548152906001019060200180831161061957829003601f168201915b505050505081565b6000546001600160a01b031633146106685760405162461bcd60e51b815260040161049a90611622565b6001600160a01b03811661068f5760405163d92e233d60e01b815260040160405180910390fd5b600380546001600160a01b0319166001600160a01b0383169081179091556040519081527f58a2b9171063c6d38177053178bc1844b920884b05d7c9126c480d86b0716bce906020015b60405180910390a150565b6000546001600160a01b0316331461070e5760405162461bcd60e51b815260040161049a90611622565b60005b8181101561082e5761075183838381811061073c57634e487b7160e01b600052603260045260246000fd5b90506020020160208101906103149190611436565b61076e576040516305fabb6160e41b815260040160405180910390fd5b6107bc83838381811061079157634e487b7160e01b600052603260045260246000fd5b90506020020160208101906107a69190611436565b63ffffffff166005610ee590919063ffffffff16565b50600460008484848181106107e157634e487b7160e01b600052603260045260246000fd5b90506020020160208101906107f69190611436565b63ffffffff1663ffffffff168152602001908152602001600020600061081c919061123b565b806108268161174d565b915050610711565b507fd0359552feffede26fee29bd110dd8e1a3237acd35c7e17a9d3b7330b02f882582826040516108609291906114bc565b60405180910390a15050565b6000546001600160a01b031633146108965760405162461bcd60e51b815260040161049a90611622565b6104ab610ef1565b60006108b4600563ffffffff80851690610f7916565b92915050565b6108c7612710600a6116d0565b62ffffff1681565b6000546001600160a01b031633146108f95760405162461bcd60e51b815260040161049a90611622565b82811461091957604051635435b28960e11b815260040160405180910390fd5b60005b83811015610afe5784848281811061094457634e487b7160e01b600052603260045260246000fd5b90506020020160208101906109599190611436565b63ffffffff1661097c5760405163346ff60760e01b815260040160405180910390fd5b82828281811061099c57634e487b7160e01b600052603260045260246000fd5b90506020028101906109ae919061168b565b151590506109cf5760405163d937d5df60e01b815260040160405180910390fd5b6109f285858381811061073c57634e487b7160e01b600052603260045260246000fd5b15610a1057604051635386dfc360e01b815260040160405180910390fd5b610a5e858583818110610a3357634e487b7160e01b600052603260045260246000fd5b9050602002016020810190610a489190611436565b63ffffffff166005610f9190919063ffffffff16565b50828282818110610a7f57634e487b7160e01b600052603260045260246000fd5b9050602002810190610a91919061168b565b60046000888886818110610ab557634e487b7160e01b600052603260045260246000fd5b9050602002016020810190610aca9190611436565b63ffffffff1681526020810191909152604001600020610aeb929091611275565b5080610af68161174d565b91505061091c565b507fbedbd17c0fc434b767574d7b78c5b856984fbdd13b02606fb750dd37020ddaa384848484604051610b3494939291906114d8565b60405180910390a150505050565b6000546001600160a01b03163314610b6c5760405162461bcd60e51b815260040161049a90611622565b610b79612710600a6116d0565b62ffffff1663ffffffff82161115610ba4576040516314041af760e31b815260040160405180910390fd5b6003805463ffffffff60a01b1916600160a01b63ffffffff8416908102919091179091556040519081527f5658872a8436367e842f76c14ffbbf8e67a2e70f47b28b3c4154134f72e902d6906020016106d9565b6000546001600160a01b03163314610c225760405162461bcd60e51b815260040161049a90611622565b610c2f612710600a6116d0565b62ffffff1663ffffffff82161115610c5a576040516314041af760e31b815260040160405180910390fd5b6003805463ffffffff60c01b1916600160c01b63ffffffff8416908102919091179091556040519081527f6d0851a3fe66369a96f833703a09a7cb561e2eea7bc56bb8f247ac599814150f906020016106d9565b6000546001600160a01b03163314610cd85760405162461bcd60e51b815260040161049a90611622565b6001600160a01b038116610cff5760405163d92e233d60e01b815260040160405180910390fd5b600280546001600160a01b0319166001600160a01b0383169081179091556040519081527fbf9a9534339a9d6b81696e05dcfb614b7dc518a31d48be3cfb757988381fb323906020016106d9565b6000546001600160a01b03163314610d775760405162461bcd60e51b815260040161049a90611622565b610d8081610f9d565b50565b6001546001600160a01b0316610ddb5760405162461bcd60e51b815260206004820152601f60248201527f476f7665726e61626c653a206e6f2070656e64696e6720676f7665726e6f7200604482015260640161049a565b60018054600080546001600160a01b03199081166001600160a01b0384161782559091169091556040517fdc57ca23c46d823853915ed5a090ca0ee9db5eb6a46f5c58e1c9158de861fd769190a1565b600154600160a01b900460ff16610e7b5760405162461bcd60e51b815260206004820152601460248201527314185d5cd8589b194e881b9bdd081c185d5cd95960621b604482015260640161049a565b6001805460ff60a01b191690557f5db9ee0a495bf2e6ff9c91a7834c1ba4fdd244a5e8aa4e537bd38aeae4b073aa335b6040516001600160a01b03909116815260200160405180910390a1565b60006108b4825490565b6000610ede8383611041565b9392505050565b6000610ede83836110d5565b600154600160a01b900460ff1615610f3e5760405162461bcd60e51b815260206004820152601060248201526f14185d5cd8589b194e881c185d5cd95960821b604482015260640161049a565b6001805460ff60a01b1916600160a01b1790557f62e78cea01bee320cd4e420270b5ea74000d11b0c9f74754ebdbfc544b05a258610eab3390565b60008181526001830160205260408120541515610ede565b6000610ede83836111ec565b6001600160a01b038116610ff35760405162461bcd60e51b815260206004820152601860248201527f476f7665726e61626c653a207a65726f20616464726573730000000000000000604482015260640161049a565b600180546001600160a01b0319166001600160a01b0383169081179091556040519081527f56bddfa0cee9697cebddf9acd7f23dc6583663b05e007b877056d05017994def906020016106d9565b8154600090821061109f5760405162461bcd60e51b815260206004820152602260248201527f456e756d657261626c655365743a20696e646578206f7574206f6620626f756e604482015261647360f01b606482015260840161049a565b8260000182815481106110c257634e487b7160e01b600052603260045260246000fd5b9060005260206000200154905092915050565b600081815260018301602052604081205480156111e25760006110f96001836116fb565b855490915060009061110d906001906116fb565b9050600086600001828154811061113457634e487b7160e01b600052603260045260246000fd5b906000526020600020015490508087600001848154811061116557634e487b7160e01b600052603260045260246000fd5b6000918252602080832090910192909255828152600189019091526040902084905586548790806111a657634e487b7160e01b600052603160045260246000fd5b600190038181906000526020600020016000905590558660010160008781526020019081526020016000206000905560019450505050506108b4565b60009150506108b4565b6000818152600183016020526040812054611233575081546001818101845560008481526020808220909301849055845484825282860190935260409020919091556108b4565b5060006108b4565b50805461124790611712565b6000825580601f10611257575050565b601f016020900490600052602060002090810190610d8091906112f9565b82805461128190611712565b90600052602060002090601f0160209004810192826112a357600085556112e9565b82601f106112bc5782800160ff198235161785556112e9565b828001600101855582156112e9579182015b828111156112e95782358255916020019190600101906112ce565b506112f59291506112f9565b5090565b5b808211156112f557600081556001016112fa565b60008083601f84011261131f578182fd5b50813567ffffffffffffffff811115611336578182fd5b6020830191508360208260051b850101111561135157600080fd5b9250929050565b803563ffffffff8116811461136c57600080fd5b919050565b600060208284031215611382578081fd5b8135610ede8161177e565b6000806020838503121561139f578081fd5b823567ffffffffffffffff8111156113b5578182fd5b6113c18582860161130e565b90969095509350505050565b600080600080604085870312156113e2578182fd5b843567ffffffffffffffff808211156113f9578384fd5b6114058883890161130e565b9096509450602087013591508082111561141d578384fd5b5061142a8782880161130e565b95989497509550505050565b600060208284031215611447578081fd5b610ede82611358565b81835260006020808501945082825b858110156114885763ffffffff61147583611358565b168752958201959082019060010161145f565b509495945050505050565b81835281816020850137506000828201602090810191909152601f909101601f19169091010190565b6020815260006114d0602083018486611450565b949350505050565b6040815260006114ec604083018688611450565b602083820381850152818583528183019050818660051b84010187855b8881101561157557858303601f190184528135368b9003601e1901811261152e578788fd5b8a01803567ffffffffffffffff811115611546578889fd5b8036038c1315611554578889fd5b6115618582898501611493565b958701959450505090840190600101611509565b50909a9950505050505050505050565b6020808252825182820181905260009190848201906040850190845b818110156115c357835163ffffffff16835292840192918401916001016115a1565b50909695505050505050565b6000602080835283518082850152825b818110156115fb578581018301518582016040015282016115df565b8181111561160c5783604083870101525b50601f01601f1916929092016040019392505050565b60208082526019908201527f476f7665726e61626c653a206f6e6c7920676f7665726e6f7200000000000000604082015260600190565b81516001600160a01b0316815260208083015115159082015260408083015163ffffffff1690820152606081016108b4565b6000808335601e198436030181126116a1578283fd5b83018035915067ffffffffffffffff8211156116bb578283fd5b60200191503681900382131561135157600080fd5b600062ffffff808316818516818304811182151516156116f2576116f2611768565b02949350505050565b60008282101561170d5761170d611768565b500390565b600181811c9082168061172657607f821691505b6020821081141561174757634e487b7160e01b600052602260045260246000fd5b50919050565b600060001982141561176157611761611768565b5060010190565b634e487b7160e01b600052601160045260246000fd5b6001600160a01b0381168114610d8057600080fdfea2646970667358221220d4c5d872f8d53e1d766fcfd1ad9a9a5f70439e43abb212826107ba7b62267b1164736f6c63430008040033"
}