{
  "address": "0x4aFd06674E0701F3bfd6f026e4Ec785f5eC3E29f",
  "abi": [
    {
      "inputs": [
        {
          "internalType": "contract IPriceOracle",
          "name": "_oracle1",
          "type": "address"
        },
        {
          "internalType": "contract IPriceOracle",
          "name": "_oracle2",
          "type": "address"
        },
        {
          "internalType": "address",
          "name": "_governor",
          "type": "address"
        }
      ],
      "stateMutability": "nonpayable",
      "type": "constructor"
    },
    {
      "anonymous": false,
      "inputs": [],
      "name": "PendingGovernorAccepted",
      "type": "event"
    },
    {
      "anonymous": false,
      "inputs": [
        {
          "indexed": false,
          "internalType": "address",
          "name": "pendingGovernor",
          "type": "address"
        }
      ],
      "name": "PendingGovernorSet",
      "type": "event"
    },
    {
      "inputs": [],
      "name": "acceptPendingGovernor",
      "outputs": [],
      "stateMutability": "nonpayable",
      "type": "function"
    },
    {
      "inputs": [
        {
          "internalType": "address",
          "name": "_tokenA",
          "type": "address"
        },
        {
          "internalType": "address",
          "name": "_tokenB",
          "type": "address"
        }
      ],
      "name": "addSupportForPairIfNeeded",
      "outputs": [],
      "stateMutability": "nonpayable",
      "type": "function"
    },
    {
      "inputs": [
        {
          "internalType": "address",
          "name": "_tokenA",
          "type": "address"
        },
        {
          "internalType": "address",
          "name": "_tokenB",
          "type": "address"
        }
      ],
      "name": "canSupportPair",
      "outputs": [
        {
          "internalType": "bool",
          "name": "",
          "type": "bool"
        }
      ],
      "stateMutability": "view",
      "type": "function"
    },
    {
      "inputs": [],
      "name": "governor",
      "outputs": [
        {
          "internalType": "address",
          "name": "",
          "type": "address"
        }
      ],
      "stateMutability": "view",
      "type": "function"
    },
    {
      "inputs": [
        {
          "internalType": "address",
          "name": "_account",
          "type": "address"
        }
      ],
      "name": "isGovernor",
      "outputs": [
        {
          "internalType": "bool",
          "name": "_isGovernor",
          "type": "bool"
        }
      ],
      "stateMutability": "view",
      "type": "function"
    },
    {
      "inputs": [
        {
          "internalType": "address",
          "name": "_account",
          "type": "address"
        }
      ],
      "name": "isPendingGovernor",
      "outputs": [
        {
          "internalType": "bool",
          "name": "_isPendingGovernor",
          "type": "bool"
        }
      ],
      "stateMutability": "view",
      "type": "function"
    },
    {
      "inputs": [],
      "name": "oracle1",
      "outputs": [
        {
          "internalType": "contract IPriceOracle",
          "name": "",
          "type": "address"
        }
      ],
      "stateMutability": "view",
      "type": "function"
    },
    {
      "inputs": [],
      "name": "oracle2",
      "outputs": [
        {
          "internalType": "contract IPriceOracle",
          "name": "",
          "type": "address"
        }
      ],
      "stateMutability": "view",
      "type": "function"
    },
    {
      "inputs": [
        {
          "internalType": "address",
          "name": "",
          "type": "address"
        },
        {
          "internalType": "address",
          "name": "",
          "type": "address"
        }
      ],
      "name": "oracleInUse",
      "outputs": [
        {
          "internalType": "enum IOracleAggregator.OracleInUse",
          "name": "",
          "type": "uint8"
        }
      ],
      "stateMutability": "view",
      "type": "function"
    },
    {
      "inputs": [
        {
          "internalType": "address",
          "name": "_tokenA",
          "type": "address"
        },
        {
          "internalType": "address",
          "name": "_tokenB",
          "type": "address"
        }
      ],
      "name": "overrideDefault",
      "outputs": [],
      "stateMutability": "nonpayable",
      "type": "function"
    },
    {
      "inputs": [],
      "name": "pendingGovernor",
      "outputs": [
        {
          "internalType": "address",
          "name": "",
          "type": "address"
        }
      ],
      "stateMutability": "view",
      "type": "function"
    },
    {
      "inputs": [
        {
          "internalType": "address",
          "name": "_tokenIn",
          "type": "address"
        },
        {
          "internalType": "uint128",
          "name": "_amountIn",
          "type": "uint128"
        },
        {
          "internalType": "address",
          "name": "_tokenOut",
          "type": "address"
        }
      ],
      "name": "quote",
      "outputs": [
        {
          "internalType": "uint256",
          "name": "_amountOut",
          "type": "uint256"
        }
      ],
      "stateMutability": "view",
      "type": "function"
    },
    {
      "inputs": [
        {
          "internalType": "address",
          "name": "_tokenA",
          "type": "address"
        },
        {
          "internalType": "address",
          "name": "_tokenB",
          "type": "address"
        }
      ],
      "name": "reconfigureSupportForPair",
      "outputs": [],
      "stateMutability": "nonpayable",
      "type": "function"
    },
    {
      "inputs": [
        {
          "internalType": "address",
          "name": "__pendingGovernor",
          "type": "address"
        }
      ],
      "name": "setPendingGovernor",
      "outputs": [],
      "stateMutability": "nonpayable",
      "type": "function"
    }
  ],
  "transactionHash": "0xa78ba5d3936b033dc71d6137d7fc1ee73fe02bf25453acd2595130e9b8b2a19f",
  "args": [
    "0x2DFb2C5C013826a0728440D8036305b254Ad9cCE",
    "0xC9A965C884c43e849a46A3df4Bb28e036f6C0dB5",
    "0xeeAE844d04ee45c37636D8Db8C9482200177DC93"
  ],
  "solcInputHash": "d9e3e0d972cd005803d4bc4d5690665e",
  "bytecode": "0x60c060405234801561001057600080fd5b50604051610f0f380380610f0f83398101604081905261002f91610130565b806001600160a01b03811661008b5760405162461bcd60e51b815260206004820152601860248201527f476f7665726e61626c653a207a65726f2061646472657373000000000000000060448201526064015b60405180910390fd5b600080546001600160a01b0319166001600160a01b039283161790558316158015906100bf57506001600160a01b03821615155b6100f95760405162461bcd60e51b815260206004820152600b60248201526a5a65726f4164647265737360a81b6044820152606401610082565b506001600160601b0319606092831b8116608052911b1660a05261017d565b6001600160a01b038116811461012d57600080fd5b50565b60008060006060848603121561014557600080fd5b835161015081610118565b602085015190935061016181610118565b604085015190925061017281610118565b809150509250925092565b60805160601c60a05160601c610d2f6101e0600039600081816101e601528181610381015281816105190152818161079a0152610a8801526000818161017101528181610470015281816106df0152818161092b01526109d10152610d2f6000f3fe608060405234801561001057600080fd5b50600436106100ea5760003560e01c80637f55db3a1161008c578063df08aed511610066578063df08aed514610229578063e3056a341461024b578063e43581b81461025c578063f235757f1461027e57600080fd5b80637f55db3a146101ce578063996f7d3a146101e1578063a513355f1461020857600080fd5b806372c12c87116100c857806372c12c8714610136578063734273fd14610149578063747a0c3a1461016c5780637aa3d48d1461019357600080fd5b80630c340a24146100ef57806313f6986d14610119578063678b733514610123575b600080fd5b6000546001600160a01b03165b6040516001600160a01b0390911681526020015b60405180910390f35b610121610291565b005b610121610131366004610be1565b610304565b610121610144366004610be1565b610425565b61015c610157366004610be1565b610446565b6040519015158152602001610110565b6100fc7f000000000000000000000000000000000000000000000000000000000000000081565b6101c16101a1366004610be1565b600260209081526000928352604080842090915290825290205460ff1681565b6040516101109190610c2a565b6101216101dc366004610be1565b61059a565b6100fc7f000000000000000000000000000000000000000000000000000000000000000081565b61021b610216366004610c52565b6105f9565b604051908152602001610110565b61015c610237366004610ca3565b6001546001600160a01b0391821691161490565b6001546001600160a01b03166100fc565b61015c61026a366004610ca3565b6000546001600160a01b0391821691161490565b61012161028c366004610ca3565b6107c9565b6001546001600160a01b031633146102fa5760405162461bcd60e51b815260206004820152602160248201527f476f7665726e61626c653a206f6e6c792070656e64696e6720676f7665726e6f6044820152603960f91b60648201526084015b60405180910390fd5b61030261082b565b565b6000546001600160a01b0316331461035a5760405162461bcd60e51b815260206004820152601960248201527823b7bb32b93730b136329d1037b7363c9033b7bb32b93737b960391b60448201526064016102f1565b6040516372c12c8760e01b81526001600160a01b03838116600483015282811660248301527f000000000000000000000000000000000000000000000000000000000000000016906372c12c8790604401600060405180830381600087803b1580156103c557600080fd5b505af11580156103d9573d6000803e3d6000fd5b505050506000806103ea84846108d3565b6001600160a01b0391821660009081526002602081815260408084209490951683529290925291909120805460ff1916909117905550505050565b60008061043284846108d3565b915091506104408282610904565b50505050565b60405163734273fd60e01b81526001600160a01b03838116600483015282811660248301526000917f00000000000000000000000000000000000000000000000000000000000000009091169063734273fd9060440160206040518083038186803b1580156104b457600080fd5b505afa1580156104c8573d6000803e3d6000fd5b505050506040513d601f19601f820116820180604052508101906104ec9190610cbe565b80610593575060405163734273fd60e01b81526001600160a01b03848116600483015283811660248301527f0000000000000000000000000000000000000000000000000000000000000000169063734273fd9060440160206040518083038186803b15801561055b57600080fd5b505afa15801561056f573d6000803e3d6000fd5b505050506040513d601f19601f820116820180604052508101906105939190610cbe565b9392505050565b6000806105a784846108d3565b909250905060006001600160a01b03808416600090815260026020818152604080842094871684529390529190205460ff16908111156105e9576105e9610c14565b1415610440576104408282610904565b600080600061060886856108d3565b6001600160a01b03808316600090815260026020908152604080832093851683529290529081205492945090925060ff9091169081600281111561064e5761064e610c14565b141561068f5760405162461bcd60e51b815260206004820152601060248201526f14185a5c939bdd14dd5c1c1bdc9d195960821b60448201526064016102f1565b60018160028111156106a3576106a3610c14565b14156107645760405163a513355f60e01b81526001600160a01b0388811660048301526001600160801b038816602483015286811660448301527f0000000000000000000000000000000000000000000000000000000000000000169063a513355f906064015b60206040518083038186803b15801561072257600080fd5b505afa158015610736573d6000803e3d6000fd5b505050506040513d601f19601f8201168201806040525081019061075a9190610ce0565b9350505050610593565b60405163a513355f60e01b81526001600160a01b0388811660048301526001600160801b038816602483015286811660448301527f0000000000000000000000000000000000000000000000000000000000000000169063a513355f9060640161070a565b6000546001600160a01b0316331461081f5760405162461bcd60e51b815260206004820152601960248201527823b7bb32b93730b136329d1037b7363c9033b7bb32b93737b960391b60448201526064016102f1565b61082881610b1b565b50565b6001546001600160a01b03166108835760405162461bcd60e51b815260206004820152601f60248201527f476f7665726e61626c653a206e6f2070656e64696e6720676f7665726e6f720060448201526064016102f1565b60018054600080546001600160a01b03199081166001600160a01b0384161782559091169091556040517fdc57ca23c46d823853915ed5a090ca0ee9db5eb6a46f5c58e1c9158de861fd769190a1565b600080826001600160a01b0316846001600160a01b0316106108f65782846108f9565b83835b909590945092505050565b60405163734273fd60e01b81526001600160a01b03838116600483015282811660248301527f0000000000000000000000000000000000000000000000000000000000000000169063734273fd9060440160206040518083038186803b15801561096d57600080fd5b505afa158015610981573d6000803e3d6000fd5b505050506040513d601f19601f820116820180604052508101906109a59190610cbe565b15610a61576040516372c12c8760e01b81526001600160a01b03838116600483015282811660248301527f000000000000000000000000000000000000000000000000000000000000000016906372c12c8790604401600060405180830381600087803b158015610a1557600080fd5b505af1158015610a29573d6000803e3d6000fd5b505050506001600160a01b0391821660009081526002602090815260408083209390941682529190915220805460ff19166001179055565b6040516372c12c8760e01b81526001600160a01b03838116600483015282811660248301527f000000000000000000000000000000000000000000000000000000000000000016906372c12c8790604401600060405180830381600087803b158015610acc57600080fd5b505af1158015610ae0573d6000803e3d6000fd5b505050506001600160a01b0391821660009081526002602081815260408084209490951683529290925291909120805460ff19169091179055565b6001600160a01b038116610b715760405162461bcd60e51b815260206004820152601860248201527f476f7665726e61626c653a207a65726f2061646472657373000000000000000060448201526064016102f1565b600180546001600160a01b0319166001600160a01b0383169081179091556040519081527f56bddfa0cee9697cebddf9acd7f23dc6583663b05e007b877056d05017994def9060200160405180910390a150565b80356001600160a01b0381168114610bdc57600080fd5b919050565b60008060408385031215610bf457600080fd5b610bfd83610bc5565b9150610c0b60208401610bc5565b90509250929050565b634e487b7160e01b600052602160045260246000fd5b6020810160038310610c4c57634e487b7160e01b600052602160045260246000fd5b91905290565b600080600060608486031215610c6757600080fd5b610c7084610bc5565b925060208401356001600160801b0381168114610c8c57600080fd5b9150610c9a60408501610bc5565b90509250925092565b600060208284031215610cb557600080fd5b61059382610bc5565b600060208284031215610cd057600080fd5b8151801515811461059357600080fd5b600060208284031215610cf257600080fd5b505191905056fea2646970667358221220ae4e70d44d3903cbef959152735078cdc503c0622304e8cc7d3ef597bbfff99964736f6c63430008080033",
  "devdoc": {
    "kind": "dev",
    "methods": {
      "addSupportForPairIfNeeded(address,address)": {
        "details": "Will revert if pair cannot be supported. _tokenA and _tokenB may be passed in either tokenA/tokenB or tokenB/tokenA order",
        "params": {
          "_tokenA": "One of the pair's tokens",
          "_tokenB": "The other of the pair's tokens"
        }
      },
      "canSupportPair(address,address)": {
        "details": "_tokenA and _tokenB may be passed in either tokenA/tokenB or tokenB/tokenA order",
        "params": {
          "_tokenA": "One of the pair's tokens",
          "_tokenB": "The other of the pair's tokens"
        },
        "returns": {
          "_0": "Whether the given pair of tokens can be supported by the oracle"
        }
      },
      "overrideDefault(address,address)": {
        "details": "_tokenA and _tokenB may be passed in either tokenA/tokenB or tokenB/tokenA order",
        "params": {
          "_tokenA": "One of the pair's tokens",
          "_tokenB": "The other of the pair's tokens"
        }
      },
      "quote(address,uint128,address)": {
        "params": {
          "_amountIn": "The amount that will be provided",
          "_tokenIn": "The token that will be provided",
          "_tokenOut": "The token we would like to quote"
        },
        "returns": {
          "_amountOut": "How much _tokenOut will be returned in exchange for _amountIn amount of _tokenIn"
        }
      },
      "reconfigureSupportForPair(address,address)": {
        "details": "Will revert if pair cannot be supported. _tokenA and _tokenB may be passed in either tokenA/tokenB or tokenB/tokenA order",
        "params": {
          "_tokenA": "One of the pair's tokens",
          "_tokenB": "The other of the pair's tokens"
        }
      }
    },
    "stateVariables": {
      "oracle1": {
        "return": "The first oracle",
        "returns": {
          "_0": "The first oracle"
        }
      },
      "oracle2": {
        "return": "The second oracle",
        "returns": {
          "_0": "The second oracle"
        }
      },
      "oracleInUse": {
        "details": "It is expected that _tokenA < _tokenB",
        "return": "The oracle that is being used for the given pair",
        "returns": {
          "_0": "The oracle that is being used for the given pair"
        }
      }
    },
    "version": 1
  },
  "userdoc": {
    "kind": "user",
    "methods": {
      "addSupportForPairIfNeeded(address,address)": {
        "notice": "Adds support for a given pair if the oracle didn't support it already. If called for a pair that is already supported, then nothing will happen. This function will let the oracle take some actions to configure the pair, in preparation for future quotes."
      },
      "canSupportPair(address,address)": {
        "notice": "Returns whether this oracle can support this pair of tokens"
      },
      "oracle1()": {
        "notice": "Returns the first oracle of the two being aggregated"
      },
      "oracle2()": {
        "notice": "Returns the second oracle of the two being aggregated"
      },
      "oracleInUse(address,address)": {
        "notice": "Returns the oracle that is being used for the given pair"
      },
      "overrideDefault(address,address)": {
        "notice": "Overrides the default and sets oracle2 as the oracle for the pair (while also configuring it for use)"
      },
      "quote(address,uint128,address)": {
        "notice": "Returns a quote, based on the given tokens and amount"
      },
      "reconfigureSupportForPair(address,address)": {
        "notice": "Reconfigures support for a given pair. This function will let the oracle take some actions to configure the pair, in preparation for future quotes. Can be called many times in order to let the oracle re-configure for a new context."
      }
    },
    "version": 1
  },
  "storageLayout": {
    "storage": [
      {
        "astId": 15743,
        "contract": "contracts/oracles/OracleAggregator.sol:OracleAggregator",
        "label": "_governor",
        "offset": 0,
        "slot": "0",
        "type": "t_address"
      },
      {
        "astId": 15745,
        "contract": "contracts/oracles/OracleAggregator.sol:OracleAggregator",
        "label": "_pendingGovernor",
        "offset": 0,
        "slot": "1",
        "type": "t_address"
      },
      {
        "astId": 15429,
        "contract": "contracts/oracles/OracleAggregator.sol:OracleAggregator",
        "label": "oracleInUse",
        "offset": 0,
        "slot": "2",
        "type": "t_mapping(t_address,t_mapping(t_address,t_enum(OracleInUse)10425))"
      }
    ],
    "types": {
      "t_address": {
        "encoding": "inplace",
        "label": "address",
        "numberOfBytes": "20"
      },
      "t_enum(OracleInUse)10425": {
        "encoding": "inplace",
        "label": "enum IOracleAggregator.OracleInUse",
        "numberOfBytes": "1"
      },
      "t_mapping(t_address,t_enum(OracleInUse)10425)": {
        "encoding": "mapping",
        "key": "t_address",
        "label": "mapping(address => enum IOracleAggregator.OracleInUse)",
        "numberOfBytes": "32",
        "value": "t_enum(OracleInUse)10425"
      },
      "t_mapping(t_address,t_mapping(t_address,t_enum(OracleInUse)10425))": {
        "encoding": "mapping",
        "key": "t_address",
        "label": "mapping(address => mapping(address => enum IOracleAggregator.OracleInUse))",
        "numberOfBytes": "32",
        "value": "t_mapping(t_address,t_enum(OracleInUse)10425)"
      }
    }
  }
}