{
  "address": "0x0100a1c3020fE97051cBB18636C0f91abCc603cE",
  "abi": [
    {
      "inputs": [
        {
          "internalType": "address",
          "name": "_governor",
          "type": "address"
        },
        {
          "internalType": "contract IDCATokenDescriptor",
          "name": "_descriptor",
          "type": "address"
        }
      ],
      "stateMutability": "nonpayable",
      "type": "constructor"
    },
    {
      "inputs": [],
      "name": "ExpiredDeadline",
      "type": "error"
    },
    {
      "inputs": [],
      "name": "HubAlreadySet",
      "type": "error"
    },
    {
      "inputs": [],
      "name": "InvalidSignature",
      "type": "error"
    },
    {
      "inputs": [],
      "name": "NotOwner",
      "type": "error"
    },
    {
      "inputs": [],
      "name": "OnlyHubCanExecute",
      "type": "error"
    },
    {
      "inputs": [],
      "name": "ZeroAddress",
      "type": "error"
    },
    {
      "anonymous": false,
      "inputs": [
        {
          "indexed": true,
          "internalType": "address",
          "name": "owner",
          "type": "address"
        },
        {
          "indexed": true,
          "internalType": "address",
          "name": "approved",
          "type": "address"
        },
        {
          "indexed": true,
          "internalType": "uint256",
          "name": "tokenId",
          "type": "uint256"
        }
      ],
      "name": "Approval",
      "type": "event"
    },
    {
      "anonymous": false,
      "inputs": [
        {
          "indexed": true,
          "internalType": "address",
          "name": "owner",
          "type": "address"
        },
        {
          "indexed": true,
          "internalType": "address",
          "name": "operator",
          "type": "address"
        },
        {
          "indexed": false,
          "internalType": "bool",
          "name": "approved",
          "type": "bool"
        }
      ],
      "name": "ApprovalForAll",
      "type": "event"
    },
    {
      "anonymous": false,
      "inputs": [
        {
          "indexed": false,
          "internalType": "uint256",
          "name": "tokenId",
          "type": "uint256"
        },
        {
          "components": [
            {
              "internalType": "address",
              "name": "operator",
              "type": "address"
            },
            {
              "internalType": "enum IDCAPermissionManager.Permission[]",
              "name": "permissions",
              "type": "uint8[]"
            }
          ],
          "indexed": false,
          "internalType": "struct IDCAPermissionManager.PermissionSet[]",
          "name": "permissions",
          "type": "tuple[]"
        }
      ],
      "name": "Modified",
      "type": "event"
    },
    {
      "anonymous": false,
      "inputs": [
        {
          "indexed": false,
          "internalType": "contract IDCATokenDescriptor",
          "name": "descriptor",
          "type": "address"
        }
      ],
      "name": "NFTDescriptorSet",
      "type": "event"
    },
    {
      "anonymous": false,
      "inputs": [],
      "name": "PendingGovernorAccepted",
      "type": "event"
    },
    {
      "anonymous": false,
      "inputs": [
        {
          "indexed": false,
          "internalType": "address",
          "name": "pendingGovernor",
          "type": "address"
        }
      ],
      "name": "PendingGovernorSet",
      "type": "event"
    },
    {
      "anonymous": false,
      "inputs": [
        {
          "indexed": true,
          "internalType": "address",
          "name": "from",
          "type": "address"
        },
        {
          "indexed": true,
          "internalType": "address",
          "name": "to",
          "type": "address"
        },
        {
          "indexed": true,
          "internalType": "uint256",
          "name": "tokenId",
          "type": "uint256"
        }
      ],
      "name": "Transfer",
      "type": "event"
    },
    {
      "inputs": [],
      "name": "DOMAIN_SEPARATOR",
      "outputs": [
        {
          "internalType": "bytes32",
          "name": "",
          "type": "bytes32"
        }
      ],
      "stateMutability": "view",
      "type": "function"
    },
    {
      "inputs": [],
      "name": "PERMISSION_PERMIT_TYPEHASH",
      "outputs": [
        {
          "internalType": "bytes32",
          "name": "",
          "type": "bytes32"
        }
      ],
      "stateMutability": "view",
      "type": "function"
    },
    {
      "inputs": [],
      "name": "PERMISSION_SET_TYPEHASH",
      "outputs": [
        {
          "internalType": "bytes32",
          "name": "",
          "type": "bytes32"
        }
      ],
      "stateMutability": "view",
      "type": "function"
    },
    {
      "inputs": [],
      "name": "PERMIT_TYPEHASH",
      "outputs": [
        {
          "internalType": "bytes32",
          "name": "",
          "type": "bytes32"
        }
      ],
      "stateMutability": "view",
      "type": "function"
    },
    {
      "inputs": [],
      "name": "acceptPendingGovernor",
      "outputs": [],
      "stateMutability": "nonpayable",
      "type": "function"
    },
    {
      "inputs": [
        {
          "internalType": "address",
          "name": "to",
          "type": "address"
        },
        {
          "internalType": "uint256",
          "name": "tokenId",
          "type": "uint256"
        }
      ],
      "name": "approve",
      "outputs": [],
      "stateMutability": "nonpayable",
      "type": "function"
    },
    {
      "inputs": [
        {
          "internalType": "address",
          "name": "owner",
          "type": "address"
        }
      ],
      "name": "balanceOf",
      "outputs": [
        {
          "internalType": "uint256",
          "name": "",
          "type": "uint256"
        }
      ],
      "stateMutability": "view",
      "type": "function"
    },
    {
      "inputs": [
        {
          "internalType": "uint256",
          "name": "_id",
          "type": "uint256"
        }
      ],
      "name": "burn",
      "outputs": [],
      "stateMutability": "nonpayable",
      "type": "function"
    },
    {
      "inputs": [
        {
          "internalType": "uint256",
          "name": "tokenId",
          "type": "uint256"
        }
      ],
      "name": "getApproved",
      "outputs": [
        {
          "internalType": "address",
          "name": "",
          "type": "address"
        }
      ],
      "stateMutability": "view",
      "type": "function"
    },
    {
      "inputs": [],
      "name": "governor",
      "outputs": [
        {
          "internalType": "address",
          "name": "",
          "type": "address"
        }
      ],
      "stateMutability": "view",
      "type": "function"
    },
    {
      "inputs": [
        {
          "internalType": "uint256",
          "name": "_id",
          "type": "uint256"
        },
        {
          "internalType": "address",
          "name": "_address",
          "type": "address"
        },
        {
          "internalType": "enum IDCAPermissionManager.Permission",
          "name": "_permission",
          "type": "uint8"
        }
      ],
      "name": "hasPermission",
      "outputs": [
        {
          "internalType": "bool",
          "name": "",
          "type": "bool"
        }
      ],
      "stateMutability": "view",
      "type": "function"
    },
    {
      "inputs": [],
      "name": "hub",
      "outputs": [
        {
          "internalType": "address",
          "name": "",
          "type": "address"
        }
      ],
      "stateMutability": "view",
      "type": "function"
    },
    {
      "inputs": [
        {
          "internalType": "address",
          "name": "owner",
          "type": "address"
        },
        {
          "internalType": "address",
          "name": "operator",
          "type": "address"
        }
      ],
      "name": "isApprovedForAll",
      "outputs": [
        {
          "internalType": "bool",
          "name": "",
          "type": "bool"
        }
      ],
      "stateMutability": "view",
      "type": "function"
    },
    {
      "inputs": [
        {
          "internalType": "address",
          "name": "_account",
          "type": "address"
        }
      ],
      "name": "isGovernor",
      "outputs": [
        {
          "internalType": "bool",
          "name": "_isGovernor",
          "type": "bool"
        }
      ],
      "stateMutability": "view",
      "type": "function"
    },
    {
      "inputs": [
        {
          "internalType": "address",
          "name": "_account",
          "type": "address"
        }
      ],
      "name": "isPendingGovernor",
      "outputs": [
        {
          "internalType": "bool",
          "name": "_isPendingGovernor",
          "type": "bool"
        }
      ],
      "stateMutability": "view",
      "type": "function"
    },
    {
      "inputs": [
        {
          "internalType": "uint256",
          "name": "",
          "type": "uint256"
        }
      ],
      "name": "lastOwnershipChange",
      "outputs": [
        {
          "internalType": "uint32",
          "name": "",
          "type": "uint32"
        }
      ],
      "stateMutability": "view",
      "type": "function"
    },
    {
      "inputs": [
        {
          "internalType": "uint256",
          "name": "_id",
          "type": "uint256"
        },
        {
          "internalType": "address",
          "name": "_owner",
          "type": "address"
        },
        {
          "components": [
            {
              "internalType": "address",
              "name": "operator",
              "type": "address"
            },
            {
              "internalType": "enum IDCAPermissionManager.Permission[]",
              "name": "permissions",
              "type": "uint8[]"
            }
          ],
          "internalType": "struct IDCAPermissionManager.PermissionSet[]",
          "name": "_permissions",
          "type": "tuple[]"
        }
      ],
      "name": "mint",
      "outputs": [],
      "stateMutability": "nonpayable",
      "type": "function"
    },
    {
      "inputs": [
        {
          "internalType": "uint256",
          "name": "_id",
          "type": "uint256"
        },
        {
          "components": [
            {
              "internalType": "address",
              "name": "operator",
              "type": "address"
            },
            {
              "internalType": "enum IDCAPermissionManager.Permission[]",
              "name": "permissions",
              "type": "uint8[]"
            }
          ],
          "internalType": "struct IDCAPermissionManager.PermissionSet[]",
          "name": "_permissions",
          "type": "tuple[]"
        }
      ],
      "name": "modify",
      "outputs": [],
      "stateMutability": "nonpayable",
      "type": "function"
    },
    {
      "inputs": [],
      "name": "name",
      "outputs": [
        {
          "internalType": "string",
          "name": "",
          "type": "string"
        }
      ],
      "stateMutability": "view",
      "type": "function"
    },
    {
      "inputs": [],
      "name": "nftDescriptor",
      "outputs": [
        {
          "internalType": "contract IDCATokenDescriptor",
          "name": "",
          "type": "address"
        }
      ],
      "stateMutability": "view",
      "type": "function"
    },
    {
      "inputs": [
        {
          "internalType": "address",
          "name": "",
          "type": "address"
        }
      ],
      "name": "nonces",
      "outputs": [
        {
          "internalType": "uint256",
          "name": "",
          "type": "uint256"
        }
      ],
      "stateMutability": "view",
      "type": "function"
    },
    {
      "inputs": [
        {
          "internalType": "uint256",
          "name": "tokenId",
          "type": "uint256"
        }
      ],
      "name": "ownerOf",
      "outputs": [
        {
          "internalType": "address",
          "name": "",
          "type": "address"
        }
      ],
      "stateMutability": "view",
      "type": "function"
    },
    {
      "inputs": [],
      "name": "pendingGovernor",
      "outputs": [
        {
          "internalType": "address",
          "name": "",
          "type": "address"
        }
      ],
      "stateMutability": "view",
      "type": "function"
    },
    {
      "inputs": [
        {
          "components": [
            {
              "internalType": "address",
              "name": "operator",
              "type": "address"
            },
            {
              "internalType": "enum IDCAPermissionManager.Permission[]",
              "name": "permissions",
              "type": "uint8[]"
            }
          ],
          "internalType": "struct IDCAPermissionManager.PermissionSet[]",
          "name": "_permissions",
          "type": "tuple[]"
        },
        {
          "internalType": "uint256",
          "name": "_tokenId",
          "type": "uint256"
        },
        {
          "internalType": "uint256",
          "name": "_deadline",
          "type": "uint256"
        },
        {
          "internalType": "uint8",
          "name": "_v",
          "type": "uint8"
        },
        {
          "internalType": "bytes32",
          "name": "_r",
          "type": "bytes32"
        },
        {
          "internalType": "bytes32",
          "name": "_s",
          "type": "bytes32"
        }
      ],
      "name": "permissionPermit",
      "outputs": [],
      "stateMutability": "nonpayable",
      "type": "function"
    },
    {
      "inputs": [
        {
          "internalType": "address",
          "name": "_spender",
          "type": "address"
        },
        {
          "internalType": "uint256",
          "name": "_tokenId",
          "type": "uint256"
        },
        {
          "internalType": "uint256",
          "name": "_deadline",
          "type": "uint256"
        },
        {
          "internalType": "uint8",
          "name": "_v",
          "type": "uint8"
        },
        {
          "internalType": "bytes32",
          "name": "_r",
          "type": "bytes32"
        },
        {
          "internalType": "bytes32",
          "name": "_s",
          "type": "bytes32"
        }
      ],
      "name": "permit",
      "outputs": [],
      "stateMutability": "nonpayable",
      "type": "function"
    },
    {
      "inputs": [
        {
          "internalType": "address",
          "name": "from",
          "type": "address"
        },
        {
          "internalType": "address",
          "name": "to",
          "type": "address"
        },
        {
          "internalType": "uint256",
          "name": "tokenId",
          "type": "uint256"
        }
      ],
      "name": "safeTransferFrom",
      "outputs": [],
      "stateMutability": "nonpayable",
      "type": "function"
    },
    {
      "inputs": [
        {
          "internalType": "address",
          "name": "from",
          "type": "address"
        },
        {
          "internalType": "address",
          "name": "to",
          "type": "address"
        },
        {
          "internalType": "uint256",
          "name": "tokenId",
          "type": "uint256"
        },
        {
          "internalType": "bytes",
          "name": "_data",
          "type": "bytes"
        }
      ],
      "name": "safeTransferFrom",
      "outputs": [],
      "stateMutability": "nonpayable",
      "type": "function"
    },
    {
      "inputs": [
        {
          "internalType": "address",
          "name": "operator",
          "type": "address"
        },
        {
          "internalType": "bool",
          "name": "approved",
          "type": "bool"
        }
      ],
      "name": "setApprovalForAll",
      "outputs": [],
      "stateMutability": "nonpayable",
      "type": "function"
    },
    {
      "inputs": [
        {
          "internalType": "address",
          "name": "_hub",
          "type": "address"
        }
      ],
      "name": "setHub",
      "outputs": [],
      "stateMutability": "nonpayable",
      "type": "function"
    },
    {
      "inputs": [
        {
          "internalType": "contract IDCATokenDescriptor",
          "name": "_descriptor",
          "type": "address"
        }
      ],
      "name": "setNFTDescriptor",
      "outputs": [],
      "stateMutability": "nonpayable",
      "type": "function"
    },
    {
      "inputs": [
        {
          "internalType": "address",
          "name": "__pendingGovernor",
          "type": "address"
        }
      ],
      "name": "setPendingGovernor",
      "outputs": [],
      "stateMutability": "nonpayable",
      "type": "function"
    },
    {
      "inputs": [
        {
          "internalType": "bytes4",
          "name": "interfaceId",
          "type": "bytes4"
        }
      ],
      "name": "supportsInterface",
      "outputs": [
        {
          "internalType": "bool",
          "name": "",
          "type": "bool"
        }
      ],
      "stateMutability": "view",
      "type": "function"
    },
    {
      "inputs": [],
      "name": "symbol",
      "outputs": [
        {
          "internalType": "string",
          "name": "",
          "type": "string"
        }
      ],
      "stateMutability": "view",
      "type": "function"
    },
    {
      "inputs": [
        {
          "internalType": "uint256",
          "name": "_tokenId",
          "type": "uint256"
        }
      ],
      "name": "tokenURI",
      "outputs": [
        {
          "internalType": "string",
          "name": "",
          "type": "string"
        }
      ],
      "stateMutability": "view",
      "type": "function"
    },
    {
      "inputs": [
        {
          "internalType": "address",
          "name": "from",
          "type": "address"
        },
        {
          "internalType": "address",
          "name": "to",
          "type": "address"
        },
        {
          "internalType": "uint256",
          "name": "tokenId",
          "type": "uint256"
        }
      ],
      "name": "transferFrom",
      "outputs": [],
      "stateMutability": "nonpayable",
      "type": "function"
    }
  ],
  "transactionHash": "0xad19edae377912cf84a66f1ccc17d73c317d222bf651c67ad6b14d5c39b5074d",
  "args": [
    "0xeeAE844d04ee45c37636D8Db8C9482200177DC93",
    "0x579280AcF998A031922421a2f6C62Ba609Be44F7"
  ],
  "solcInputHash": "d9e3e0d972cd005803d4bc4d5690665e",
  "bytecode": "0x6101206040523480156200001257600080fd5b5060405162002ee038038062002ee08339810160408190526200003591620002f5565b816040518060400160405280601081526020016f4d65616e2046696e616e63652044434160801b815250604051806040016040528060018152602001603160f81b8152506040518060400160405280601081526020016f4d65616e2046696e616e63652044434160801b8152506040518060400160405280600381526020016244434160e81b8152508160009080519060200190620000d692919062000236565b508051620000ec90600190602084019062000236565b5050825160209384012082519284019290922060c083815260e08290524660a0818152604080517f8b73c3c69bb8fe3d512ecc4cf759cc79239f7b179b0ffacaa9a75d522b39400f818a0181905281830198909852606081019590955260808086019390935230858301528051808603909201825293909201909252805194019390932090925261010052506001600160a01b038116620001d35760405162461bcd60e51b815260206004820152601860248201527f476f7665726e61626c653a207a65726f20616464726573730000000000000000604482015260640160405180910390fd5b600680546001600160a01b0319166001600160a01b0392831617905581166200020f5760405163d92e233d60e01b815260040160405180910390fd5b600880546001600160a01b0319166001600160a01b03929092169190911790555062000371565b828054620002449062000334565b90600052602060002090601f016020900481019282620002685760008555620002b3565b82601f106200028357805160ff1916838001178555620002b3565b82800160010185558215620002b3579182015b82811115620002b357825182559160200191906001019062000296565b50620002c1929150620002c5565b5090565b5b80821115620002c15760008155600101620002c6565b6001600160a01b0381168114620002f257600080fd5b50565b600080604083850312156200030957600080fd5b82516200031681620002dc565b60208401519092506200032981620002dc565b809150509250929050565b600181811c908216806200034957607f821691505b602082108114156200036b57634e487b7160e01b600052602260045260246000fd5b50919050565b60805160a05160c05160e05161010051612b2a620003b660003960006115480152600061159701526000611572015260006114f60152600061151f0152612b2a6000f3fe608060405234801561001057600080fd5b50600436106102115760003560e01c80634faa388311610125578063b3d23ffc116100ad578063e1fc815d1161007c578063e1fc815d146104d8578063e3056a34146104ff578063e43581b814610510578063e985e9c514610532578063f235757f1461056e57600080fd5b8063b3d23ffc14610455578063b88d4fde14610490578063c87b56dd146104a3578063df08aed5146104b657600080fd5b80637cad6cd1116100f45780637cad6cd1146103f45780637ecebe0014610407578063823abfd91461042757806395d89b411461043a578063a22cb4651461044257600080fd5b80634faa3883146103a85780636352211e146103bb57806370a08231146103ce5780637ac2ff7b146103e157600080fd5b806327d70dca116101a8578063365a86fc11610177578063365a86fc1461034957806336b350981461035c57806342842e0e1461036f57806342966c6814610382578063442675701461039557600080fd5b806327d70dca146102d257806330adf81f1461030757806331962cdc1461032e5780633644e5151461034157600080fd5b80630b7d4820116101e45780630b7d4820146102935780630c340a24146102a657806313f6986d146102b757806323b872dd146102bf57600080fd5b806301ffc9a71461021657806306fdde031461023e578063081812fc14610253578063095ea7b31461027e575b600080fd5b6102296102243660046121b2565b610581565b60405190151581526020015b60405180910390f35b6102466105d3565b6040516102359190612227565b61026661026136600461223a565b610665565b6040516001600160a01b039091168152602001610235565b61029161028c366004612268565b6106ff565b005b6102916102a13660046122e0565b610815565b6006546001600160a01b0316610266565b61029161085a565b6102916102cd36600461232c565b6108c8565b6102f97fd9daa4fe1723edf458fc13a2d7c6e9147a88485b7932c0ada7e0dd16445f0dda81565b604051908152602001610235565b6102f97f49ecf333e5b8c95c40fdafc95c1ad136e8914a8fb55e9dc8bb01eaa83a2df9ad81565b61029161033c36600461236d565b6108f9565b6102f961096c565b600954610266906001600160a01b031681565b61029161036a36600461238a565b61097b565b61029161037d36600461232c565b6109c1565b61029161039036600461223a565b6109dc565b600854610266906001600160a01b031681565b6102916103b63660046123fc565b610a13565b6102666103c936600461223a565b610b48565b6102f96103dc36600461236d565b610bbf565b6102916103ef366004612476565b610c46565b61029161040236600461236d565b610d74565b6102f961041536600461236d565b600a6020526000908152604090205481565b6102296104353660046124df565b610e46565b610246610efb565b61029161045036600461251d565b610f0a565b61047b61046336600461223a565b600b6020526000908152604090205463ffffffff1681565b60405163ffffffff9091168152602001610235565b61029161049e3660046125ca565b610fcf565b6102466104b136600461223a565b611001565b6102296104c436600461236d565b6007546001600160a01b0391821691161490565b6102f97f5922b2c51ed135e5c892d4fa1b63ad30a4a2c7e7bfc895ee28a38b6e8899962781565b6007546001600160a01b0316610266565b61022961051e36600461236d565b6006546001600160a01b0391821691161490565b610229610540366004612679565b6001600160a01b03918216600090815260056020908152604080832093909416825291909152205460ff1690565b61029161057c36600461236d565b611090565b60006001600160e01b031982166380ac58cd60e01b14806105b257506001600160e01b03198216635b5e139f60e01b145b806105cd57506301ffc9a760e01b6001600160e01b03198316145b92915050565b6060600080546105e2906126a7565b80601f016020809104026020016040519081016040528092919081815260200182805461060e906126a7565b801561065b5780601f106106305761010080835404028352916020019161065b565b820191906000526020600020905b81548152906001019060200180831161063e57829003601f168201915b5050505050905090565b6000818152600260205260408120546001600160a01b03166106e35760405162461bcd60e51b815260206004820152602c60248201527f4552433732313a20617070726f76656420717565727920666f72206e6f6e657860448201526b34b9ba32b73a103a37b5b2b760a11b60648201526084015b60405180910390fd5b506000908152600460205260409020546001600160a01b031690565b600061070a82610b48565b9050806001600160a01b0316836001600160a01b031614156107785760405162461bcd60e51b815260206004820152602160248201527f4552433732313a20617070726f76616c20746f2063757272656e74206f776e656044820152603960f91b60648201526084016106da565b336001600160a01b038216148061079457506107948133610540565b6108065760405162461bcd60e51b815260206004820152603860248201527f4552433732313a20617070726f76652063616c6c6572206973206e6f74206f7760448201527f6e6572206e6f7220617070726f76656420666f7220616c6c000000000000000060648201526084016106da565b61081083836110ef565b505050565b61081e83610b48565b6001600160a01b0316336001600160a01b03161461084f576040516330cd747160e01b815260040160405180910390fd5b61081083838361115d565b6007546001600160a01b031633146108be5760405162461bcd60e51b815260206004820152602160248201527f476f7665726e61626c653a206f6e6c792070656e64696e6720676f7665726e6f6044820152603960f91b60648201526084016106da565b6108c66111a8565b565b6108d23382611250565b6108ee5760405162461bcd60e51b81526004016106da906126dc565b610810838383611347565b6001600160a01b0381166109205760405163d92e233d60e01b815260040160405180910390fd5b6009546001600160a01b03161561094a576040516379fb96cd60e01b815260040160405180910390fd5b600980546001600160a01b0319166001600160a01b0392909216919091179055565b60006109766114f2565b905090565b6009546001600160a01b031633146109a65760405163fc88f3b160e01b815260040160405180910390fd5b6109b083856115e5565b6109bb848383611733565b50505050565b61081083838360405180602001604052806000815250610fcf565b6009546001600160a01b03163314610a075760405163fc88f3b160e01b815260040160405180910390fd5b610a108161190e565b50565b83421115610a345760405163f87d927160e01b815260040160405180910390fd5b6000610a3f86610b48565b905060007f5922b2c51ed135e5c892d4fa1b63ad30a4a2c7e7bfc895ee28a38b6e88999627610a6e8a8a6119b5565b80516020918201206001600160a01b0385166000908152600a90925260408220805491928b929190610a9f83612743565b909155506040805160208101959095528401929092526060830152608082015260a0810187905260c0016040516020818303038152906040528051906020012090506000610aec82611a30565b90506000610afc82888888611a7e565b9050836001600160a01b0316816001600160a01b031614610b3057604051638baa579f60e01b815260040160405180910390fd5b610b3b898c8c61115d565b5050505050505050505050565b6000818152600260205260408120546001600160a01b0316806105cd5760405162461bcd60e51b815260206004820152602960248201527f4552433732313a206f776e657220717565727920666f72206e6f6e657869737460448201526832b73a103a37b5b2b760b91b60648201526084016106da565b60006001600160a01b038216610c2a5760405162461bcd60e51b815260206004820152602a60248201527f4552433732313a2062616c616e636520717565727920666f7220746865207a65604482015269726f206164647265737360b01b60648201526084016106da565b506001600160a01b031660009081526003602052604090205490565b83421115610c675760405163f87d927160e01b815260040160405180910390fd5b6000610c7286610b48565b6001600160a01b0381166000908152600a60205260408120805492935090917f49ecf333e5b8c95c40fdafc95c1ad136e8914a8fb55e9dc8bb01eaa83a2df9ad918a918a9185610cc183612743565b909155506040805160208101959095526001600160a01b03909316928401929092526060830152608082015260a0810187905260c0016040516020818303038152906040528051906020012090506000610d1a82611a30565b90506000610d2a82888888611a7e565b9050836001600160a01b0316816001600160a01b031614610d5e57604051638baa579f60e01b815260040160405180910390fd5b610d688a8a6110ef565b50505050505050505050565b6006546001600160a01b03163314610dca5760405162461bcd60e51b815260206004820152601960248201527823b7bb32b93730b136329d1037b7363c9033b7bb32b93737b960391b60448201526064016106da565b6001600160a01b038116610df15760405163d92e233d60e01b815260040160405180910390fd5b600880546001600160a01b0319166001600160a01b0383169081179091556040519081527f58a2b9171063c6d38177053178bc1844b920884b05d7c9126c480d86b0716bce906020015b60405180910390a150565b6000826001600160a01b0316610e5b85610b48565b6001600160a01b03161415610e7257506001610ef4565b6000848152600c602090815260408083206001600160a01b038716845282529182902082518084019093525460ff811680845263ffffffff610100909204821692840192909252610ec691908590611aa616565b8015610ef057506020808201516000878152600b90925260409091205463ffffffff918216911611155b9150505b9392505050565b6060600180546105e2906126a7565b6001600160a01b038216331415610f635760405162461bcd60e51b815260206004820152601960248201527f4552433732313a20617070726f766520746f2063616c6c65720000000000000060448201526064016106da565b3360008181526005602090815260408083206001600160a01b03871680855290835292819020805460ff191686151590811790915590519081529192917f17307eab39ab6107e8899845ad3d59bd9653f200f220920489ca2b5937696c31910160405180910390a35050565b610fd93383611250565b610ff55760405162461bcd60e51b81526004016106da906126dc565b6109bb84848484611ad1565b60085460095460405163e9dc637560e01b81526001600160a01b03918216600482015260248101849052606092919091169063e9dc63759060440160006040518083038186803b15801561105457600080fd5b505afa158015611068573d6000803e3d6000fd5b505050506040513d6000823e601f3d908101601f191682016040526105cd919081019061275e565b6006546001600160a01b031633146110e65760405162461bcd60e51b815260206004820152601960248201527823b7bb32b93730b136329d1037b7363c9033b7bb32b93737b960391b60448201526064016106da565b610a1081611b04565b600081815260046020526040902080546001600160a01b0319166001600160a01b038416908117909155819061112482610b48565b6001600160a01b03167f8c5be1e5ebec7d5bd14f71427d1e84f3dd0314c0f7b2291e5b200ac8c7c3b92560405160405180910390a45050565b611168838383611733565b7f5015559e4f379aa0dd2effee572c916b09bb68ed41ad9ab127c8066f052e164383838360405161119b939291906127eb565b60405180910390a1505050565b6007546001600160a01b03166112005760405162461bcd60e51b815260206004820152601f60248201527f476f7665726e61626c653a206e6f2070656e64696e6720676f7665726e6f720060448201526064016106da565b60078054600680546001600160a01b03199081166001600160a01b038416179091551690556040517fdc57ca23c46d823853915ed5a090ca0ee9db5eb6a46f5c58e1c9158de861fd7690600090a1565b6000818152600260205260408120546001600160a01b03166112c95760405162461bcd60e51b815260206004820152602c60248201527f4552433732313a206f70657261746f7220717565727920666f72206e6f6e657860448201526b34b9ba32b73a103a37b5b2b760a11b60648201526084016106da565b60006112d483610b48565b9050806001600160a01b0316846001600160a01b0316148061130f5750836001600160a01b031661130484610665565b6001600160a01b0316145b8061133f57506001600160a01b0380821660009081526005602090815260408083209388168352929052205460ff165b949350505050565b826001600160a01b031661135a82610b48565b6001600160a01b0316146113c25760405162461bcd60e51b815260206004820152602960248201527f4552433732313a207472616e73666572206f6620746f6b656e2074686174206960448201526839903737ba1037bbb760b91b60648201526084016106da565b6001600160a01b0382166114245760405162461bcd60e51b8152602060048201526024808201527f4552433732313a207472616e7366657220746f20746865207a65726f206164646044820152637265737360e01b60648201526084016106da565b61142f838383611ba8565b61143a6000826110ef565b6001600160a01b0383166000908152600360205260408120805460019290611463908490612918565b90915550506001600160a01b038216600090815260036020526040812080546001929061149190849061292f565b909155505060008181526002602052604080822080546001600160a01b0319166001600160a01b0386811691821790925591518493918716917fddf252ad1be2c89b69c2b068fc378daa952ba7f163c4a11628f55a4df523b3ef91a4505050565b60007f000000000000000000000000000000000000000000000000000000000000000046141561154157507f000000000000000000000000000000000000000000000000000000000000000090565b50604080517f00000000000000000000000000000000000000000000000000000000000000006020808301919091527f0000000000000000000000000000000000000000000000000000000000000000828401527f000000000000000000000000000000000000000000000000000000000000000060608301524660808301523060a0808401919091528351808403909101815260c0909201909252805191012090565b6001600160a01b03821661163b5760405162461bcd60e51b815260206004820181905260248201527f4552433732313a206d696e7420746f20746865207a65726f206164647265737360448201526064016106da565b6000818152600260205260409020546001600160a01b0316156116a05760405162461bcd60e51b815260206004820152601c60248201527f4552433732313a20746f6b656e20616c7265616479206d696e7465640000000060448201526064016106da565b6116ac60008383611ba8565b6001600160a01b03821660009081526003602052604081208054600192906116d590849061292f565b909155505060008181526002602052604080822080546001600160a01b0319166001600160a01b03861690811790915590518392907fddf252ad1be2c89b69c2b068fc378daa952ba7f163c4a11628f55a4df523b3ef908290a45050565b4260005b828110156119075783838281811061175157611751612947565b9050602002810190611763919061295d565b61177190602081019061297d565b151590506117e4576000858152600c602052604081209085858481811061179a5761179a612947565b90506020028101906117ac919061295d565b6117ba90602081019061236d565b6001600160a01b031681526020810191909152604001600020805464ffffffffff191690556118f5565b604051806040016040528061185b86868581811061180457611804612947565b9050602002810190611816919061295d565b61182490602081019061297d565b80806020026020016040519081016040528093929190818152602001838360200280828437600092019190915250611c0792505050565b60ff16815263ffffffff84166020918201526000878152600c909152604081209086868581811061188e5761188e612947565b90506020028101906118a0919061295d565b6118ae90602081019061236d565b6001600160a01b0316815260208082019290925260400160002082518154939092015163ffffffff166101000264ffffffffff1990931660ff909216919091179190911790555b806118ff81612743565b915050611737565b5050505050565b600061191982610b48565b905061192781600084611ba8565b6119326000836110ef565b6001600160a01b038116600090815260036020526040812080546001929061195b908490612918565b909155505060008281526002602052604080822080546001600160a01b0319169055518391906001600160a01b038416907fddf252ad1be2c89b69c2b068fc378daa952ba7f163c4a11628f55a4df523b3ef908390a45050565b606060005b82811015611a2957816119ef8585848181106119d8576119d8612947565b90506020028101906119ea919061295d565b611c6b565b8051602091820120604051611a059392016129c7565b60405160208183030381529060405291508080611a2190612743565b9150506119ba565b5092915050565b60006105cd611a3d6114f2565b8360405161190160f01b6020820152602281018390526042810182905260009060620160405160208183030381529060405280519060200120905092915050565b6000806000611a8f87878787611cf7565b91509150611a9c81611de4565b5095945050505050565b600080826003811115611abb57611abb6127d5565b600160ff9182161b948516169093149392505050565b611adc848484611347565b611ae884848484611f9f565b6109bb5760405162461bcd60e51b81526004016106da906129e9565b6001600160a01b038116611b5a5760405162461bcd60e51b815260206004820152601860248201527f476f7665726e61626c653a207a65726f2061646472657373000000000000000060448201526064016106da565b600780546001600160a01b0319166001600160a01b0383169081179091556040519081527f56bddfa0cee9697cebddf9acd7f23dc6583663b05e007b877056d05017994def90602001610e3b565b6001600160a01b038216611bd3576000908152600b60205260409020805463ffffffff191690555050565b6001600160a01b03831615610810576000908152600b60205260409020805463ffffffff19164263ffffffff161790555050565b6000805b8251811015611c6557828181518110611c2657611c26612947565b60200260200101516003811115611c3f57611c3f6127d5565b60ff166001901b82611c519190612a3b565b915080611c5d81612743565b915050611c0b565b50919050565b60607fd9daa4fe1723edf458fc13a2d7c6e9147a88485b7932c0ada7e0dd16445f0dda611c9b602084018461236d565b611cb0611cab602086018661297d565b6120a9565b8051602091820120604051611ce1949392019283526001600160a01b03919091166020830152604082015260600190565b6040516020818303038152906040529050919050565b6000807f7fffffffffffffffffffffffffffffff5d576e7357a4501ddfe92f46681b20a0831115611d2e5750600090506003611ddb565b8460ff16601b14158015611d4657508460ff16601c14155b15611d575750600090506004611ddb565b6040805160008082526020820180845289905260ff881692820192909252606081018690526080810185905260019060a0016020604051602081039080840390855afa158015611dab573d6000803e3d6000fd5b5050604051601f1901519150506001600160a01b038116611dd457600060019250925050611ddb565b9150600090505b94509492505050565b6000816004811115611df857611df86127d5565b1415611e015750565b6001816004811115611e1557611e156127d5565b1415611e635760405162461bcd60e51b815260206004820152601860248201527f45434453413a20696e76616c6964207369676e6174757265000000000000000060448201526064016106da565b6002816004811115611e7757611e776127d5565b1415611ec55760405162461bcd60e51b815260206004820152601f60248201527f45434453413a20696e76616c6964207369676e6174757265206c656e6774680060448201526064016106da565b6003816004811115611ed957611ed96127d5565b1415611f325760405162461bcd60e51b815260206004820152602260248201527f45434453413a20696e76616c6964207369676e6174757265202773272076616c604482015261756560f01b60648201526084016106da565b6004816004811115611f4657611f466127d5565b1415610a105760405162461bcd60e51b815260206004820152602260248201527f45434453413a20696e76616c6964207369676e6174757265202776272076616c604482015261756560f01b60648201526084016106da565b60006001600160a01b0384163b156120a157604051630a85bd0160e11b81526001600160a01b0385169063150b7a0290611fe3903390899088908890600401612a60565b602060405180830381600087803b158015611ffd57600080fd5b505af192505050801561202d575060408051601f3d908101601f1916820190925261202a91810190612a9d565b60015b612087573d80801561205b576040519150601f19603f3d011682016040523d82523d6000602084013e612060565b606091505b50805161207f5760405162461bcd60e51b81526004016106da906129e9565b805181602001fd5b6001600160e01b031916630a85bd0160e11b14905061133f565b50600161133f565b60606120b6826020612aba565b67ffffffffffffffff8111156120ce576120ce61255b565b6040519080825280601f01601f1916602001820160405280156120f8576020820181803683370190505b50905060005b82811015611a295783838281811061211857612118612947565b905060200201602081019061212d9190612ad9565b600381111561213e5761213e6127d5565b60f81b82600161214e8487612918565b612159906020612aba565b6121639190612918565b8151811061217357612173612947565b60200101906001600160f81b031916908160001a9053508061219481612743565b9150506120fe565b6001600160e01b031981168114610a1057600080fd5b6000602082840312156121c457600080fd5b8135610ef48161219c565b60005b838110156121ea5781810151838201526020016121d2565b838111156109bb5750506000910152565b600081518084526122138160208601602086016121cf565b601f01601f19169290920160200192915050565b602081526000610ef460208301846121fb565b60006020828403121561224c57600080fd5b5035919050565b6001600160a01b0381168114610a1057600080fd5b6000806040838503121561227b57600080fd5b823561228681612253565b946020939093013593505050565b60008083601f8401126122a657600080fd5b50813567ffffffffffffffff8111156122be57600080fd5b6020830191508360208260051b85010111156122d957600080fd5b9250929050565b6000806000604084860312156122f557600080fd5b83359250602084013567ffffffffffffffff81111561231357600080fd5b61231f86828701612294565b9497909650939450505050565b60008060006060848603121561234157600080fd5b833561234c81612253565b9250602084013561235c81612253565b929592945050506040919091013590565b60006020828403121561237f57600080fd5b8135610ef481612253565b600080600080606085870312156123a057600080fd5b8435935060208501356123b281612253565b9250604085013567ffffffffffffffff8111156123ce57600080fd5b6123da87828801612294565b95989497509550505050565b803560ff811681146123f757600080fd5b919050565b600080600080600080600060c0888a03121561241757600080fd5b873567ffffffffffffffff81111561242e57600080fd5b61243a8a828b01612294565b909850965050602088013594506040880135935061245a606089016123e6565b92506080880135915060a0880135905092959891949750929550565b60008060008060008060c0878903121561248f57600080fd5b863561249a81612253565b955060208701359450604087013593506124b6606088016123e6565b92506080870135915060a087013590509295509295509295565b8035600481106123f757600080fd5b6000806000606084860312156124f457600080fd5b83359250602084013561250681612253565b9150612514604085016124d0565b90509250925092565b6000806040838503121561253057600080fd5b823561253b81612253565b91506020830135801515811461255057600080fd5b809150509250929050565b634e487b7160e01b600052604160045260246000fd5b604051601f8201601f1916810167ffffffffffffffff8111828210171561259a5761259a61255b565b604052919050565b600067ffffffffffffffff8211156125bc576125bc61255b565b50601f01601f191660200190565b600080600080608085870312156125e057600080fd5b84356125eb81612253565b935060208501356125fb81612253565b925060408501359150606085013567ffffffffffffffff81111561261e57600080fd5b8501601f8101871361262f57600080fd5b803561264261263d826125a2565b612571565b81815288602083850101111561265757600080fd5b8160208401602083013760006020838301015280935050505092959194509250565b6000806040838503121561268c57600080fd5b823561269781612253565b9150602083013561255081612253565b600181811c908216806126bb57607f821691505b60208210811415611c6557634e487b7160e01b600052602260045260246000fd5b60208082526031908201527f4552433732313a207472616e736665722063616c6c6572206973206e6f74206f6040820152701ddb995c881b9bdc88185c1c1c9bdd9959607a1b606082015260800190565b634e487b7160e01b600052601160045260246000fd5b60006000198214156127575761275761272d565b5060010190565b60006020828403121561277057600080fd5b815167ffffffffffffffff81111561278757600080fd5b8201601f8101841361279857600080fd5b80516127a661263d826125a2565b8181528560208385010111156127bb57600080fd5b6127cc8260208301602086016121cf565b95945050505050565b634e487b7160e01b600052602160045260246000fd5b8381526040602080830182905282820184905260009190606090818501600587811b8701840189875b8a81101561290757898303605f190185528135368d9003603e1901811261283a57600080fd5b8c01838901813561284a81612253565b6001600160a01b031685528188013536839003601e1901811261286c57600080fd5b8201803567ffffffffffffffff81111561288557600080fd5b80881b360384131561289657600080fd5b868a018c90529182905289860192508801906000905b808210156128f2576128bd836124d0565b60048082106128db57634e487b7160e01b6000526021815260246000fd5b5084529289019291890191600191909101906128ac565b50505094860194925090850190600101612814565b50909b9a5050505050505050505050565b60008282101561292a5761292a61272d565b500390565b600082198211156129425761294261272d565b500190565b634e487b7160e01b600052603260045260246000fd5b60008235603e1983360301811261297357600080fd5b9190910192915050565b6000808335601e1984360301811261299457600080fd5b83018035915067ffffffffffffffff8211156129af57600080fd5b6020019150600581901b36038213156122d957600080fd5b600083516129d98184602088016121cf565b9190910191825250602001919050565b60208082526032908201527f4552433732313a207472616e7366657220746f206e6f6e20455243373231526560408201527131b2b4bb32b91034b6b83632b6b2b73a32b960711b606082015260800190565b600060ff821660ff84168060ff03821115612a5857612a5861272d565b019392505050565b6001600160a01b0385811682528416602082015260408101839052608060608201819052600090612a93908301846121fb565b9695505050505050565b600060208284031215612aaf57600080fd5b8151610ef48161219c565b6000816000190483118215151615612ad457612ad461272d565b500290565b600060208284031215612aeb57600080fd5b610ef4826124d056fea26469706673582212205cf6ae3e06a5ad53499067ca26dfb97865747ebd1f7eb7f3b397983740a828fb64736f6c63430008080033",
  "devdoc": {
    "kind": "dev",
    "methods": {
      "DOMAIN_SEPARATOR()": {
        "returns": {
          "_0": "The domain seperator used in encoding of permit signature"
        }
      },
      "approve(address,uint256)": {
        "details": "See {IERC721-approve}."
      },
      "balanceOf(address)": {
        "details": "See {IERC721-balanceOf}."
      },
      "burn(uint256)": {
        "details": "Will revert with OnlyHubCanExecute if the caller is not the hub",
        "params": {
          "_id": "The token's id"
        }
      },
      "getApproved(uint256)": {
        "details": "See {IERC721-getApproved}."
      },
      "hasPermission(uint256,address,uint8)": {
        "params": {
          "_address": "The address of the user to check",
          "_id": "The id of the token to check",
          "_permission": "The permission to check"
        },
        "returns": {
          "_0": "Whether the user has the permission or not"
        }
      },
      "isApprovedForAll(address,address)": {
        "details": "See {IERC721-isApprovedForAll}."
      },
      "mint(uint256,address,(address,uint8[])[])": {
        "details": "Will revert with OnlyHubCanExecute if the caller is not the hub",
        "params": {
          "_id": "The id of the new NFT",
          "_owner": "The owner of the new NFT",
          "_permissions": "Permissions to set for the new NFT"
        }
      },
      "modify(uint256,(address,uint8[])[])": {
        "details": "Will revert with NotOwner if the caller is not the token's owner. Operators that are not part of the given permission sets do not see their permissions modified. In order to remove permissions to an operator, provide an empty list of permissions for them",
        "params": {
          "_id": "The token's id",
          "_permissions": "A list of permission sets"
        }
      },
      "name()": {
        "details": "See {IERC721Metadata-name}."
      },
      "ownerOf(uint256)": {
        "details": "See {IERC721-ownerOf}."
      },
      "permissionPermit((address,uint8[])[],uint256,uint256,uint8,bytes32,bytes32)": {
        "details": "This method works similarly to `modify`, but instead of being executed by the owner, it can be set my signature",
        "params": {
          "_deadline": "The deadline timestamp by which the call must be mined for the approve to work",
          "_permissions": "The permissions to set",
          "_r": "Must produce valid secp256k1 signature from the holder along with `v` and `s`",
          "_s": "Must produce valid secp256k1 signature from the holder along with `r` and `v`",
          "_tokenId": "The token's id",
          "_v": "Must produce valid secp256k1 signature from the holder along with `r` and `s`"
        }
      },
      "permit(address,uint256,uint256,uint8,bytes32,bytes32)": {
        "params": {
          "_deadline": "The deadline timestamp by which the call must be mined for the approve to work",
          "_r": "Must produce valid secp256k1 signature from the holder along with `v` and `s`",
          "_s": "Must produce valid secp256k1 signature from the holder along with `r` and `v`",
          "_spender": "The account that is being approved",
          "_tokenId": "The ID of the token that is being approved for spending",
          "_v": "Must produce valid secp256k1 signature from the holder along with `r` and `s`"
        }
      },
      "safeTransferFrom(address,address,uint256)": {
        "details": "See {IERC721-safeTransferFrom}."
      },
      "safeTransferFrom(address,address,uint256,bytes)": {
        "details": "See {IERC721-safeTransferFrom}."
      },
      "setApprovalForAll(address,bool)": {
        "details": "See {IERC721-setApprovalForAll}."
      },
      "setHub(address)": {
        "details": "Can only be successfully executed once. Once it's set, it can be modified again Will revert: With ZeroAddress if address is zero With HubAlreadySet if the hub has already been set",
        "params": {
          "_hub": "The address to set for the hub"
        }
      },
      "setNFTDescriptor(address)": {
        "details": "Will revert with ZeroAddress if address is zero",
        "params": {
          "_descriptor": "The new NFT descriptor contract"
        }
      },
      "supportsInterface(bytes4)": {
        "details": "See {IERC165-supportsInterface}."
      },
      "symbol()": {
        "details": "See {IERC721Metadata-symbol}."
      },
      "transferFrom(address,address,uint256)": {
        "details": "See {IERC721-transferFrom}."
      }
    },
    "stateVariables": {
      "PERMISSION_PERMIT_TYPEHASH": {
        "return": "The typehash for the permission permit",
        "returns": {
          "_0": "The typehash for the permission permit"
        }
      },
      "PERMISSION_SET_TYPEHASH": {
        "return": "The typehash for the permission set",
        "returns": {
          "_0": "The typehash for the permission set"
        }
      },
      "PERMIT_TYPEHASH": {
        "return": "The typehash for the permit",
        "returns": {
          "_0": "The typehash for the permit"
        }
      },
      "hub": {
        "return": "The address of the DCA Hub",
        "returns": {
          "_0": "The address of the DCA Hub"
        }
      },
      "nftDescriptor": {
        "return": "The contract for the NFT descriptor",
        "returns": {
          "_0": "The contract for the NFT descriptor"
        }
      },
      "nonces": {
        "params": {
          "_user": "The address of the user"
        },
        "return": "_nonce The next nonce to use",
        "returns": {
          "_0": "_nonce The next nonce to use"
        }
      }
    },
    "version": 1
  },
  "userdoc": {
    "errors": {
      "ExpiredDeadline()": [
        {
          "notice": "Thrown when a user tries to execute a permit with an expired deadline"
        }
      ],
      "HubAlreadySet()": [
        {
          "notice": "Thrown when a user tries to set the hub, once it was already set"
        }
      ],
      "InvalidSignature()": [
        {
          "notice": "Thrown when a user tries to execute a permit with an invalid signature"
        }
      ],
      "NotOwner()": [
        {
          "notice": "Thrown when a user tries to modify permissions for a token they do not own"
        }
      ],
      "OnlyHubCanExecute()": [
        {
          "notice": "Thrown when a user calls a method that can only be executed by the hub"
        }
      ],
      "ZeroAddress()": [
        {
          "notice": "Thrown when a user provides a zero address when they shouldn't"
        }
      ]
    },
    "events": {
      "Modified(uint256,(address,uint8[])[])": {
        "notice": "Emitted when permissions for a token are modified"
      },
      "NFTDescriptorSet(address)": {
        "notice": "Emitted when the address for a new descritor is set"
      }
    },
    "kind": "user",
    "methods": {
      "DOMAIN_SEPARATOR()": {
        "notice": "The domain separator used in the permit signature"
      },
      "PERMISSION_PERMIT_TYPEHASH()": {
        "notice": "The permit typehash used in the permission permit signature"
      },
      "PERMISSION_SET_TYPEHASH()": {
        "notice": "The permit typehash used in the permission permit signature"
      },
      "PERMIT_TYPEHASH()": {
        "notice": "The permit typehash used in the permit signature"
      },
      "burn(uint256)": {
        "notice": "Burns the NFT with the given id, and clears all permissions"
      },
      "hasPermission(uint256,address,uint8)": {
        "notice": "Returns whether the given address has the permission for the given token"
      },
      "hub()": {
        "notice": "Returns the address of the DCA Hub"
      },
      "mint(uint256,address,(address,uint8[])[])": {
        "notice": "Mints a new NFT with the given id, and sets the permissions for it"
      },
      "modify(uint256,(address,uint8[])[])": {
        "notice": "Sets new permissions for the given tokens"
      },
      "nftDescriptor()": {
        "notice": "Returns the NFT descriptor contract"
      },
      "nonces(address)": {
        "notice": "Returns the next nonce to use for a given user"
      },
      "permissionPermit((address,uint8[])[],uint256,uint256,uint8,bytes32,bytes32)": {
        "notice": "Sets permissions via signature"
      },
      "permit(address,uint256,uint256,uint8,bytes32,bytes32)": {
        "notice": "Approves spending of a specific token ID by spender via signature"
      },
      "setHub(address)": {
        "notice": "Sets the address for the hub"
      },
      "setNFTDescriptor(address)": {
        "notice": "Sets a new NFT descriptor"
      }
    },
    "version": 1
  },
  "storageLayout": {
    "storage": [
      {
        "astId": 1941,
        "contract": "contracts/DCAPermissionsManager/DCAPermissionsManager.sol:DCAPermissionsManager",
        "label": "_name",
        "offset": 0,
        "slot": "0",
        "type": "t_string_storage"
      },
      {
        "astId": 1943,
        "contract": "contracts/DCAPermissionsManager/DCAPermissionsManager.sol:DCAPermissionsManager",
        "label": "_symbol",
        "offset": 0,
        "slot": "1",
        "type": "t_string_storage"
      },
      {
        "astId": 1947,
        "contract": "contracts/DCAPermissionsManager/DCAPermissionsManager.sol:DCAPermissionsManager",
        "label": "_owners",
        "offset": 0,
        "slot": "2",
        "type": "t_mapping(t_uint256,t_address)"
      },
      {
        "astId": 1951,
        "contract": "contracts/DCAPermissionsManager/DCAPermissionsManager.sol:DCAPermissionsManager",
        "label": "_balances",
        "offset": 0,
        "slot": "3",
        "type": "t_mapping(t_address,t_uint256)"
      },
      {
        "astId": 1955,
        "contract": "contracts/DCAPermissionsManager/DCAPermissionsManager.sol:DCAPermissionsManager",
        "label": "_tokenApprovals",
        "offset": 0,
        "slot": "4",
        "type": "t_mapping(t_uint256,t_address)"
      },
      {
        "astId": 1961,
        "contract": "contracts/DCAPermissionsManager/DCAPermissionsManager.sol:DCAPermissionsManager",
        "label": "_operatorApprovals",
        "offset": 0,
        "slot": "5",
        "type": "t_mapping(t_address,t_mapping(t_address,t_bool))"
      },
      {
        "astId": 15743,
        "contract": "contracts/DCAPermissionsManager/DCAPermissionsManager.sol:DCAPermissionsManager",
        "label": "_governor",
        "offset": 0,
        "slot": "6",
        "type": "t_address"
      },
      {
        "astId": 15745,
        "contract": "contracts/DCAPermissionsManager/DCAPermissionsManager.sol:DCAPermissionsManager",
        "label": "_pendingGovernor",
        "offset": 0,
        "slot": "7",
        "type": "t_address"
      },
      {
        "astId": 8691,
        "contract": "contracts/DCAPermissionsManager/DCAPermissionsManager.sol:DCAPermissionsManager",
        "label": "nftDescriptor",
        "offset": 0,
        "slot": "8",
        "type": "t_contract(IDCATokenDescriptor)10327"
      },
      {
        "astId": 8693,
        "contract": "contracts/DCAPermissionsManager/DCAPermissionsManager.sol:DCAPermissionsManager",
        "label": "hub",
        "offset": 0,
        "slot": "9",
        "type": "t_address"
      },
      {
        "astId": 8697,
        "contract": "contracts/DCAPermissionsManager/DCAPermissionsManager.sol:DCAPermissionsManager",
        "label": "nonces",
        "offset": 0,
        "slot": "10",
        "type": "t_mapping(t_address,t_uint256)"
      },
      {
        "astId": 8701,
        "contract": "contracts/DCAPermissionsManager/DCAPermissionsManager.sol:DCAPermissionsManager",
        "label": "lastOwnershipChange",
        "offset": 0,
        "slot": "11",
        "type": "t_mapping(t_uint256,t_uint32)"
      },
      {
        "astId": 8708,
        "contract": "contracts/DCAPermissionsManager/DCAPermissionsManager.sol:DCAPermissionsManager",
        "label": "_tokenPermissions",
        "offset": 0,
        "slot": "12",
        "type": "t_mapping(t_uint256,t_mapping(t_address,t_struct(InternalPermission)8665_storage))"
      }
    ],
    "types": {
      "t_address": {
        "encoding": "inplace",
        "label": "address",
        "numberOfBytes": "20"
      },
      "t_bool": {
        "encoding": "inplace",
        "label": "bool",
        "numberOfBytes": "1"
      },
      "t_contract(IDCATokenDescriptor)10327": {
        "encoding": "inplace",
        "label": "contract IDCATokenDescriptor",
        "numberOfBytes": "20"
      },
      "t_mapping(t_address,t_bool)": {
        "encoding": "mapping",
        "key": "t_address",
        "label": "mapping(address => bool)",
        "numberOfBytes": "32",
        "value": "t_bool"
      },
      "t_mapping(t_address,t_mapping(t_address,t_bool))": {
        "encoding": "mapping",
        "key": "t_address",
        "label": "mapping(address => mapping(address => bool))",
        "numberOfBytes": "32",
        "value": "t_mapping(t_address,t_bool)"
      },
      "t_mapping(t_address,t_struct(InternalPermission)8665_storage)": {
        "encoding": "mapping",
        "key": "t_address",
        "label": "mapping(address => struct DCAPermissionsManager.InternalPermission)",
        "numberOfBytes": "32",
        "value": "t_struct(InternalPermission)8665_storage"
      },
      "t_mapping(t_address,t_uint256)": {
        "encoding": "mapping",
        "key": "t_address",
        "label": "mapping(address => uint256)",
        "numberOfBytes": "32",
        "value": "t_uint256"
      },
      "t_mapping(t_uint256,t_address)": {
        "encoding": "mapping",
        "key": "t_uint256",
        "label": "mapping(uint256 => address)",
        "numberOfBytes": "32",
        "value": "t_address"
      },
      "t_mapping(t_uint256,t_mapping(t_address,t_struct(InternalPermission)8665_storage))": {
        "encoding": "mapping",
        "key": "t_uint256",
        "label": "mapping(uint256 => mapping(address => struct DCAPermissionsManager.InternalPermission))",
        "numberOfBytes": "32",
        "value": "t_mapping(t_address,t_struct(InternalPermission)8665_storage)"
      },
      "t_mapping(t_uint256,t_uint32)": {
        "encoding": "mapping",
        "key": "t_uint256",
        "label": "mapping(uint256 => uint32)",
        "numberOfBytes": "32",
        "value": "t_uint32"
      },
      "t_string_storage": {
        "encoding": "bytes",
        "label": "string",
        "numberOfBytes": "32"
      },
      "t_struct(InternalPermission)8665_storage": {
        "encoding": "inplace",
        "label": "struct DCAPermissionsManager.InternalPermission",
        "members": [
          {
            "astId": 8662,
            "contract": "contracts/DCAPermissionsManager/DCAPermissionsManager.sol:DCAPermissionsManager",
            "label": "permissions",
            "offset": 0,
            "slot": "0",
            "type": "t_uint8"
          },
          {
            "astId": 8664,
            "contract": "contracts/DCAPermissionsManager/DCAPermissionsManager.sol:DCAPermissionsManager",
            "label": "lastUpdated",
            "offset": 1,
            "slot": "0",
            "type": "t_uint32"
          }
        ],
        "numberOfBytes": "32"
      },
      "t_uint256": {
        "encoding": "inplace",
        "label": "uint256",
        "numberOfBytes": "32"
      },
      "t_uint32": {
        "encoding": "inplace",
        "label": "uint32",
        "numberOfBytes": "4"
      },
      "t_uint8": {
        "encoding": "inplace",
        "label": "uint8",
        "numberOfBytes": "1"
      }
    }
  }
}